{
	"contracts/4_Hello.sol": {
		"Hello": {
			"abi": [
				{
					"inputs": [
						{
							"internalType": "address",
							"name": "initialOwner",
							"type": "address"
						}
					],
					"stateMutability": "nonpayable",
					"type": "constructor"
				},
				{
					"inputs": [
						{
							"internalType": "address",
							"name": "owner",
							"type": "address"
						}
					],
					"name": "OwnableInvalidOwner",
					"type": "error"
				},
				{
					"inputs": [
						{
							"internalType": "address",
							"name": "account",
							"type": "address"
						}
					],
					"name": "OwnableUnauthorizedAccount",
					"type": "error"
				},
				{
					"anonymous": false,
					"inputs": [
						{
							"indexed": true,
							"internalType": "address",
							"name": "previousOwner",
							"type": "address"
						},
						{
							"indexed": true,
							"internalType": "address",
							"name": "newOwner",
							"type": "address"
						}
					],
					"name": "OwnershipTransferred",
					"type": "event"
				},
				{
					"inputs": [
						{
							"internalType": "uint256",
							"name": "gameId",
							"type": "uint256"
						},
						{
							"internalType": "uint256",
							"name": "amount",
							"type": "uint256"
						}
					],
					"name": "bet",
					"outputs": [
						{
							"internalType": "bool",
							"name": "",
							"type": "bool"
						}
					],
					"stateMutability": "nonpayable",
					"type": "function"
				},
				{
					"inputs": [
						{
							"internalType": "uint256",
							"name": "gameId",
							"type": "uint256"
						},
						{
							"internalType": "address",
							"name": "winner",
							"type": "address"
						}
					],
					"name": "finish",
					"outputs": [
						{
							"internalType": "uint256",
							"name": "",
							"type": "uint256"
						}
					],
					"stateMutability": "nonpayable",
					"type": "function"
				},
				{
					"inputs": [
						{
							"internalType": "uint256",
							"name": "",
							"type": "uint256"
						}
					],
					"name": "gameIds",
					"outputs": [
						{
							"internalType": "uint256",
							"name": "",
							"type": "uint256"
						}
					],
					"stateMutability": "view",
					"type": "function"
				},
				{
					"inputs": [
						{
							"internalType": "uint256",
							"name": "gameId",
							"type": "uint256"
						}
					],
					"name": "gameUsers",
					"outputs": [
						{
							"internalType": "address[]",
							"name": "",
							"type": "address[]"
						}
					],
					"stateMutability": "view",
					"type": "function"
				},
				{
					"inputs": [
						{
							"internalType": "uint256",
							"name": "",
							"type": "uint256"
						}
					],
					"name": "games",
					"outputs": [
						{
							"internalType": "bool",
							"name": "initialized",
							"type": "bool"
						},
						{
							"internalType": "uint256",
							"name": "totalBettings",
							"type": "uint256"
						},
						{
							"internalType": "address",
							"name": "winner",
							"type": "address"
						}
					],
					"stateMutability": "view",
					"type": "function"
				},
				{
					"inputs": [
						{
							"internalType": "uint256",
							"name": "gameId",
							"type": "uint256"
						},
						{
							"internalType": "address",
							"name": "better",
							"type": "address"
						}
					],
					"name": "getBetting",
					"outputs": [
						{
							"internalType": "uint256",
							"name": "",
							"type": "uint256"
						}
					],
					"stateMutability": "view",
					"type": "function"
				},
				{
					"inputs": [],
					"name": "listGameIds",
					"outputs": [
						{
							"internalType": "uint256[]",
							"name": "",
							"type": "uint256[]"
						}
					],
					"stateMutability": "view",
					"type": "function"
				},
				{
					"inputs": [
						{
							"internalType": "uint256",
							"name": "gameId",
							"type": "uint256"
						}
					],
					"name": "myBetting",
					"outputs": [
						{
							"internalType": "uint256",
							"name": "",
							"type": "uint256"
						}
					],
					"stateMutability": "view",
					"type": "function"
				},
				{
					"inputs": [],
					"name": "owner",
					"outputs": [
						{
							"internalType": "address",
							"name": "",
							"type": "address"
						}
					],
					"stateMutability": "view",
					"type": "function"
				},
				{
					"inputs": [],
					"name": "renounceOwnership",
					"outputs": [],
					"stateMutability": "nonpayable",
					"type": "function"
				},
				{
					"inputs": [
						{
							"internalType": "address",
							"name": "newContract",
							"type": "address"
						}
					],
					"name": "setErc20",
					"outputs": [
						{
							"internalType": "bool",
							"name": "",
							"type": "bool"
						}
					],
					"stateMutability": "nonpayable",
					"type": "function"
				},
				{
					"inputs": [
						{
							"internalType": "uint256",
							"name": "newId",
							"type": "uint256"
						}
					],
					"name": "startGame",
					"outputs": [
						{
							"internalType": "bool",
							"name": "",
							"type": "bool"
						}
					],
					"stateMutability": "nonpayable",
					"type": "function"
				},
				{
					"inputs": [],
					"name": "tokenContract",
					"outputs": [
						{
							"internalType": "address",
							"name": "",
							"type": "address"
						}
					],
					"stateMutability": "view",
					"type": "function"
				},
				{
					"inputs": [
						{
							"internalType": "address",
							"name": "newOwner",
							"type": "address"
						}
					],
					"name": "transferOwnership",
					"outputs": [],
					"stateMutability": "nonpayable",
					"type": "function"
				}
			],
			"devdoc": {
				"errors": {
					"OwnableInvalidOwner(address)": [
						{
							"details": "The owner is not a valid owner account. (eg. `address(0)`)"
						}
					],
					"OwnableUnauthorizedAccount(address)": [
						{
							"details": "The caller account is not authorized to perform an operation."
						}
					]
				},
				"kind": "dev",
				"methods": {
					"owner()": {
						"details": "Returns the address of the current owner."
					},
					"renounceOwnership()": {
						"details": "Leaves the contract without owner. It will not be possible to call `onlyOwner` functions. Can only be called by the current owner. NOTE: Renouncing ownership will leave the contract without an owner, thereby disabling any functionality that is only available to the owner."
					},
					"transferOwnership(address)": {
						"details": "Transfers ownership of the contract to a new account (`newOwner`). Can only be called by the current owner."
					}
				},
				"version": 1
			},
			"evm": {
				"assembly": "    /* \"contracts/4_Hello.sol\":155:2686  contract Hello is Context, Ownable {... */\n  mstore(0x40, 0x80)\n    /* \"contracts/4_Hello.sol\":482:556  constructor(address initialOwner) Ownable(initialOwner) {... */\n  callvalue\n  dup1\n  iszero\n  tag_1\n  jumpi\n  0x00\n  dup1\n  revert\ntag_1:\n  pop\n  mload(0x40)\n  sub(codesize, bytecodeSize)\n  dup1\n  bytecodeSize\n  dup4\n  codecopy\n  dup2\n  dup2\n  add\n  0x40\n  mstore\n  dup2\n  add\n  swap1\n  tag_2\n  swap2\n  swap1\n  tag_3\n  jump\t// in\ntag_2:\n    /* \"contracts/4_Hello.sol\":524:536  initialOwner */\n  dup1\n    /* \"contracts/ownable.sol\":1335:1336  0 */\n  0x00\n    /* \"contracts/ownable.sol\":1311:1337  initialOwner == address(0) */\n  0xffffffffffffffffffffffffffffffffffffffff\n  and\n    /* \"contracts/ownable.sol\":1311:1323  initialOwner */\n  dup2\n    /* \"contracts/ownable.sol\":1311:1337  initialOwner == address(0) */\n  0xffffffffffffffffffffffffffffffffffffffff\n  and\n  sub\n    /* \"contracts/ownable.sol\":1307:1404  if (initialOwner == address(0)) {... */\n  tag_7\n  jumpi\n    /* \"contracts/ownable.sol\":1389:1390  0 */\n  0x00\n    /* \"contracts/ownable.sol\":1361:1392  OwnableInvalidOwner(address(0)) */\n  mload(0x40)\n  0x1e4fbdf700000000000000000000000000000000000000000000000000000000\n  dup2\n  mstore\n  0x04\n  add\n  tag_8\n  swap2\n  swap1\n  tag_9\n  jump\t// in\ntag_8:\n  mload(0x40)\n  dup1\n  swap2\n  sub\n  swap1\n  revert\n    /* \"contracts/ownable.sol\":1307:1404  if (initialOwner == address(0)) {... */\ntag_7:\n    /* \"contracts/ownable.sol\":1414:1446  _transferOwnership(initialOwner) */\n  tag_10\n    /* \"contracts/ownable.sol\":1433:1445  initialOwner */\n  dup2\n    /* \"contracts/ownable.sol\":1414:1432  _transferOwnership */\n  shl(0x20, tag_11)\n    /* \"contracts/ownable.sol\":1414:1446  _transferOwnership(initialOwner) */\n  0x20\n  shr\n  jump\t// in\ntag_10:\n    /* \"contracts/ownable.sol\":1262:1454  constructor(address initialOwner) {... */\n  pop\n    /* \"contracts/4_Hello.sol\":482:556  constructor(address initialOwner) Ownable(initialOwner) {... */\n  pop\n    /* \"contracts/4_Hello.sol\":155:2686  contract Hello is Context, Ownable {... */\n  jump(tag_13)\n    /* \"contracts/ownable.sol\":3006:3197  function _transferOwnership(address newOwner) internal virtual {... */\ntag_11:\n    /* \"contracts/ownable.sol\":3080:3096  address oldOwner */\n  0x00\n    /* \"contracts/ownable.sol\":3099:3105  _owner */\n  dup1\n  0x00\n  swap1\n  sload\n  swap1\n  0x0100\n  exp\n  swap1\n  div\n  0xffffffffffffffffffffffffffffffffffffffff\n  and\n    /* \"contracts/ownable.sol\":3080:3105  address oldOwner = _owner */\n  swap1\n  pop\n    /* \"contracts/ownable.sol\":3125:3133  newOwner */\n  dup2\n    /* \"contracts/ownable.sol\":3116:3122  _owner */\n  0x00\n  dup1\n    /* \"contracts/ownable.sol\":3116:3133  _owner = newOwner */\n  0x0100\n  exp\n  dup2\n  sload\n  dup2\n  0xffffffffffffffffffffffffffffffffffffffff\n  mul\n  not\n  and\n  swap1\n  dup4\n  0xffffffffffffffffffffffffffffffffffffffff\n  and\n  mul\n  or\n  swap1\n  sstore\n  pop\n    /* \"contracts/ownable.sol\":3180:3188  newOwner */\n  dup2\n    /* \"contracts/ownable.sol\":3149:3189  OwnershipTransferred(oldOwner, newOwner) */\n  0xffffffffffffffffffffffffffffffffffffffff\n  and\n    /* \"contracts/ownable.sol\":3170:3178  oldOwner */\n  dup2\n    /* \"contracts/ownable.sol\":3149:3189  OwnershipTransferred(oldOwner, newOwner) */\n  0xffffffffffffffffffffffffffffffffffffffff\n  and\n  0x8be0079c531659141344cd1fd0a4f28419497f9722a3daafe3b4186f6b6457e0\n  mload(0x40)\n  mload(0x40)\n  dup1\n  swap2\n  sub\n  swap1\n  log3\n    /* \"contracts/ownable.sol\":3069:3197  {... */\n  pop\n    /* \"contracts/ownable.sol\":3006:3197  function _transferOwnership(address newOwner) internal virtual {... */\n  pop\n  jump\t// out\n    /* \"#utility.yul\":88:205   */\ntag_16:\n    /* \"#utility.yul\":197:198   */\n  0x00\n    /* \"#utility.yul\":194:195   */\n  dup1\n    /* \"#utility.yul\":187:199   */\n  revert\n    /* \"#utility.yul\":334:460   */\ntag_18:\n    /* \"#utility.yul\":371:378   */\n  0x00\n    /* \"#utility.yul\":411:453   */\n  0xffffffffffffffffffffffffffffffffffffffff\n    /* \"#utility.yul\":404:409   */\n  dup3\n    /* \"#utility.yul\":400:454   */\n  and\n    /* \"#utility.yul\":389:454   */\n  swap1\n  pop\n    /* \"#utility.yul\":334:460   */\n  swap2\n  swap1\n  pop\n  jump\t// out\n    /* \"#utility.yul\":466:562   */\ntag_19:\n    /* \"#utility.yul\":503:510   */\n  0x00\n    /* \"#utility.yul\":532:556   */\n  tag_29\n    /* \"#utility.yul\":550:555   */\n  dup3\n    /* \"#utility.yul\":532:556   */\n  tag_18\n  jump\t// in\ntag_29:\n    /* \"#utility.yul\":521:556   */\n  swap1\n  pop\n    /* \"#utility.yul\":466:562   */\n  swap2\n  swap1\n  pop\n  jump\t// out\n    /* \"#utility.yul\":568:690   */\ntag_20:\n    /* \"#utility.yul\":641:665   */\n  tag_31\n    /* \"#utility.yul\":659:664   */\n  dup2\n    /* \"#utility.yul\":641:665   */\n  tag_19\n  jump\t// in\ntag_31:\n    /* \"#utility.yul\":634:639   */\n  dup2\n    /* \"#utility.yul\":631:666   */\n  eq\n    /* \"#utility.yul\":621:684   */\n  tag_32\n  jumpi\n    /* \"#utility.yul\":680:681   */\n  0x00\n    /* \"#utility.yul\":677:678   */\n  dup1\n    /* \"#utility.yul\":670:682   */\n  revert\n    /* \"#utility.yul\":621:684   */\ntag_32:\n    /* \"#utility.yul\":568:690   */\n  pop\n  jump\t// out\n    /* \"#utility.yul\":696:839   */\ntag_21:\n    /* \"#utility.yul\":753:758   */\n  0x00\n    /* \"#utility.yul\":784:790   */\n  dup2\n    /* \"#utility.yul\":778:791   */\n  mload\n    /* \"#utility.yul\":769:791   */\n  swap1\n  pop\n    /* \"#utility.yul\":800:833   */\n  tag_34\n    /* \"#utility.yul\":827:832   */\n  dup2\n    /* \"#utility.yul\":800:833   */\n  tag_20\n  jump\t// in\ntag_34:\n    /* \"#utility.yul\":696:839   */\n  swap3\n  swap2\n  pop\n  pop\n  jump\t// out\n    /* \"#utility.yul\":845:1196   */\ntag_3:\n    /* \"#utility.yul\":915:921   */\n  0x00\n    /* \"#utility.yul\":964:966   */\n  0x20\n    /* \"#utility.yul\":952:961   */\n  dup3\n    /* \"#utility.yul\":943:950   */\n  dup5\n    /* \"#utility.yul\":939:962   */\n  sub\n    /* \"#utility.yul\":935:967   */\n  slt\n    /* \"#utility.yul\":932:1051   */\n  iszero\n  tag_36\n  jumpi\n    /* \"#utility.yul\":970:1049   */\n  tag_37\n  tag_16\n  jump\t// in\ntag_37:\n    /* \"#utility.yul\":932:1051   */\ntag_36:\n    /* \"#utility.yul\":1090:1091   */\n  0x00\n    /* \"#utility.yul\":1115:1179   */\n  tag_38\n    /* \"#utility.yul\":1171:1178   */\n  dup5\n    /* \"#utility.yul\":1162:1168   */\n  dup3\n    /* \"#utility.yul\":1151:1160   */\n  dup6\n    /* \"#utility.yul\":1147:1169   */\n  add\n    /* \"#utility.yul\":1115:1179   */\n  tag_21\n  jump\t// in\ntag_38:\n    /* \"#utility.yul\":1105:1179   */\n  swap2\n  pop\n    /* \"#utility.yul\":1061:1189   */\n  pop\n    /* \"#utility.yul\":845:1196   */\n  swap3\n  swap2\n  pop\n  pop\n  jump\t// out\n    /* \"#utility.yul\":1202:1320   */\ntag_22:\n    /* \"#utility.yul\":1289:1313   */\n  tag_40\n    /* \"#utility.yul\":1307:1312   */\n  dup2\n    /* \"#utility.yul\":1289:1313   */\n  tag_19\n  jump\t// in\ntag_40:\n    /* \"#utility.yul\":1284:1287   */\n  dup3\n    /* \"#utility.yul\":1277:1314   */\n  mstore\n    /* \"#utility.yul\":1202:1320   */\n  pop\n  pop\n  jump\t// out\n    /* \"#utility.yul\":1326:1548   */\ntag_9:\n    /* \"#utility.yul\":1419:1423   */\n  0x00\n    /* \"#utility.yul\":1457:1459   */\n  0x20\n    /* \"#utility.yul\":1446:1455   */\n  dup3\n    /* \"#utility.yul\":1442:1460   */\n  add\n    /* \"#utility.yul\":1434:1460   */\n  swap1\n  pop\n    /* \"#utility.yul\":1470:1541   */\n  tag_42\n    /* \"#utility.yul\":1538:1539   */\n  0x00\n    /* \"#utility.yul\":1527:1536   */\n  dup4\n    /* \"#utility.yul\":1523:1540   */\n  add\n    /* \"#utility.yul\":1514:1520   */\n  dup5\n    /* \"#utility.yul\":1470:1541   */\n  tag_22\n  jump\t// in\ntag_42:\n    /* \"#utility.yul\":1326:1548   */\n  swap3\n  swap2\n  pop\n  pop\n  jump\t// out\n    /* \"contracts/4_Hello.sol\":155:2686  contract Hello is Context, Ownable {... */\ntag_13:\n  dataSize(sub_0)\n  dup1\n  dataOffset(sub_0)\n  0x00\n  codecopy\n  0x00\n  return\nstop\n\nsub_0: assembly {\n        /* \"contracts/4_Hello.sol\":155:2686  contract Hello is Context, Ownable {... */\n      mstore(0x40, 0x80)\n      callvalue\n      dup1\n      iszero\n      tag_1\n      jumpi\n      0x00\n      dup1\n      revert\n    tag_1:\n      pop\n      jumpi(tag_2, lt(calldatasize, 0x04))\n      shr(0xe0, calldataload(0x00))\n      dup1\n      0x8da5cb5b\n      gt\n      tag_17\n      jumpi\n      dup1\n      0xd82c13f0\n      gt\n      tag_18\n      jumpi\n      dup1\n      0xd82c13f0\n      eq\n      tag_13\n      jumpi\n      dup1\n      0xe5ed1d59\n      eq\n      tag_14\n      jumpi\n      dup1\n      0xee9b80a4\n      eq\n      tag_15\n      jumpi\n      dup1\n      0xf2fde38b\n      eq\n      tag_16\n      jumpi\n      jump(tag_2)\n    tag_18:\n      dup1\n      0x8da5cb5b\n      eq\n      tag_10\n      jumpi\n      dup1\n      0x9bc01b36\n      eq\n      tag_11\n      jumpi\n      dup1\n      0xce33bd74\n      eq\n      tag_12\n      jumpi\n      jump(tag_2)\n    tag_17:\n      dup1\n      0x34fcc3e7\n      gt\n      tag_19\n      jumpi\n      dup1\n      0x34fcc3e7\n      eq\n      tag_6\n      jumpi\n      dup1\n      0x55a373d6\n      eq\n      tag_7\n      jumpi\n      dup1\n      0x6ffcc719\n      eq\n      tag_8\n      jumpi\n      dup1\n      0x715018a6\n      eq\n      tag_9\n      jumpi\n      jump(tag_2)\n    tag_19:\n      dup1\n      0x117a5b90\n      eq\n      tag_3\n      jumpi\n      dup1\n      0x16b169c4\n      eq\n      tag_4\n      jumpi\n      dup1\n      0x2c32b187\n      eq\n      tag_5\n      jumpi\n    tag_2:\n      0x00\n      dup1\n      revert\n        /* \"contracts/4_Hello.sol\":376:410  mapping(uint => Game) public games */\n    tag_3:\n      tag_20\n      0x04\n      dup1\n      calldatasize\n      sub\n      dup2\n      add\n      swap1\n      tag_21\n      swap2\n      swap1\n      tag_22\n      jump\t// in\n    tag_21:\n      tag_23\n      jump\t// in\n    tag_20:\n      mload(0x40)\n      tag_24\n      swap4\n      swap3\n      swap2\n      swap1\n      tag_25\n      jump\t// in\n    tag_24:\n      mload(0x40)\n      dup1\n      swap2\n      sub\n      swap1\n      return\n        /* \"contracts/4_Hello.sol\":2105:2286  function gameUsers(uint gameId) public view returns (address[] memory) {... */\n    tag_4:\n      tag_26\n      0x04\n      dup1\n      calldatasize\n      sub\n      dup2\n      add\n      swap1\n      tag_27\n      swap2\n      swap1\n      tag_22\n      jump\t// in\n    tag_27:\n      tag_28\n      jump\t// in\n    tag_26:\n      mload(0x40)\n      tag_29\n      swap2\n      swap1\n      tag_30\n      jump\t// in\n    tag_29:\n      mload(0x40)\n      dup1\n      swap2\n      sub\n      swap1\n      return\n        /* \"contracts/4_Hello.sol\":1694:2097  function finish(uint gameId, address winner) public returns (uint) {... */\n    tag_5:\n      tag_31\n      0x04\n      dup1\n      calldatasize\n      sub\n      dup2\n      add\n      swap1\n      tag_32\n      swap2\n      swap1\n      tag_33\n      jump\t// in\n    tag_32:\n      tag_34\n      jump\t// in\n    tag_31:\n      mload(0x40)\n      tag_35\n      swap2\n      swap1\n      tag_36\n      jump\t// in\n    tag_35:\n      mload(0x40)\n      dup1\n      swap2\n      sub\n      swap1\n      return\n        /* \"contracts/4_Hello.sol\":2294:2491  function getBetting(uint gameId, address better) public view returns (uint) {... */\n    tag_6:\n      tag_37\n      0x04\n      dup1\n      calldatasize\n      sub\n      dup2\n      add\n      swap1\n      tag_38\n      swap2\n      swap1\n      tag_33\n      jump\t// in\n    tag_38:\n      tag_39\n      jump\t// in\n    tag_37:\n      mload(0x40)\n      tag_40\n      swap2\n      swap1\n      tag_36\n      jump\t// in\n    tag_40:\n      mload(0x40)\n      dup1\n      swap2\n      sub\n      swap1\n      return\n        /* \"contracts/4_Hello.sol\":445:473  address public tokenContract */\n    tag_7:\n      tag_41\n      tag_42\n      jump\t// in\n    tag_41:\n      mload(0x40)\n      tag_43\n      swap2\n      swap1\n      tag_44\n      jump\t// in\n    tag_43:\n      mload(0x40)\n      dup1\n      swap2\n      sub\n      swap1\n      return\n        /* \"contracts/4_Hello.sol\":1034:1686  function bet(uint gameId, uint amount) public returns (bool) {... */\n    tag_8:\n      tag_45\n      0x04\n      dup1\n      calldatasize\n      sub\n      dup2\n      add\n      swap1\n      tag_46\n      swap2\n      swap1\n      tag_47\n      jump\t// in\n    tag_46:\n      tag_48\n      jump\t// in\n    tag_45:\n      mload(0x40)\n      tag_49\n      swap2\n      swap1\n      tag_50\n      jump\t// in\n    tag_49:\n      mload(0x40)\n      dup1\n      swap2\n      sub\n      swap1\n      return\n        /* \"contracts/ownable.sol\":2368:2471  function renounceOwnership() public virtual onlyOwner {... */\n    tag_9:\n      tag_51\n      tag_52\n      jump\t// in\n    tag_51:\n      stop\n        /* \"contracts/ownable.sol\":1693:1780  function owner() public view virtual returns (address) {... */\n    tag_10:\n      tag_53\n      tag_54\n      jump\t// in\n    tag_53:\n      mload(0x40)\n      tag_55\n      swap2\n      swap1\n      tag_44\n      jump\t// in\n    tag_55:\n      mload(0x40)\n      dup1\n      swap2\n      sub\n      swap1\n      return\n        /* \"contracts/4_Hello.sol\":934:1026  function listGameIds() public view returns (uint[] memory) {... */\n    tag_11:\n      tag_56\n      tag_57\n      jump\t// in\n    tag_56:\n      mload(0x40)\n      tag_58\n      swap2\n      swap1\n      tag_59\n      jump\t// in\n    tag_58:\n      mload(0x40)\n      dup1\n      swap2\n      sub\n      swap1\n      return\n        /* \"contracts/4_Hello.sol\":2499:2683  function myBetting(uint gameId) public view returns (uint) {... */\n    tag_12:\n      tag_60\n      0x04\n      dup1\n      calldatasize\n      sub\n      dup2\n      add\n      swap1\n      tag_61\n      swap2\n      swap1\n      tag_22\n      jump\t// in\n    tag_61:\n      tag_62\n      jump\t// in\n    tag_60:\n      mload(0x40)\n      tag_63\n      swap2\n      swap1\n      tag_36\n      jump\t// in\n    tag_63:\n      mload(0x40)\n      dup1\n      swap2\n      sub\n      swap1\n      return\n        /* \"contracts/4_Hello.sol\":417:438  uint[] public gameIds */\n    tag_13:\n      tag_64\n      0x04\n      dup1\n      calldatasize\n      sub\n      dup2\n      add\n      swap1\n      tag_65\n      swap2\n      swap1\n      tag_22\n      jump\t// in\n    tag_65:\n      tag_66\n      jump\t// in\n    tag_64:\n      mload(0x40)\n      tag_67\n      swap2\n      swap1\n      tag_36\n      jump\t// in\n    tag_67:\n      mload(0x40)\n      dup1\n      swap2\n      sub\n      swap1\n      return\n        /* \"contracts/4_Hello.sol\":703:926  function startGame(uint newId) public returns (bool) {... */\n    tag_14:\n      tag_68\n      0x04\n      dup1\n      calldatasize\n      sub\n      dup2\n      add\n      swap1\n      tag_69\n      swap2\n      swap1\n      tag_22\n      jump\t// in\n    tag_69:\n      tag_70\n      jump\t// in\n    tag_68:\n      mload(0x40)\n      tag_71\n      swap2\n      swap1\n      tag_50\n      jump\t// in\n    tag_71:\n      mload(0x40)\n      dup1\n      swap2\n      sub\n      swap1\n      return\n        /* \"contracts/4_Hello.sol\":566:695  function setErc20(address newContract) public returns (bool) {... */\n    tag_15:\n      tag_72\n      0x04\n      dup1\n      calldatasize\n      sub\n      dup2\n      add\n      swap1\n      tag_73\n      swap2\n      swap1\n      tag_74\n      jump\t// in\n    tag_73:\n      tag_75\n      jump\t// in\n    tag_72:\n      mload(0x40)\n      tag_76\n      swap2\n      swap1\n      tag_50\n      jump\t// in\n    tag_76:\n      mload(0x40)\n      dup1\n      swap2\n      sub\n      swap1\n      return\n        /* \"contracts/ownable.sol\":2626:2846  function transferOwnership(address newOwner) public virtual onlyOwner {... */\n    tag_16:\n      tag_77\n      0x04\n      dup1\n      calldatasize\n      sub\n      dup2\n      add\n      swap1\n      tag_78\n      swap2\n      swap1\n      tag_74\n      jump\t// in\n    tag_78:\n      tag_79\n      jump\t// in\n    tag_77:\n      stop\n        /* \"contracts/4_Hello.sol\":376:410  mapping(uint => Game) public games */\n    tag_23:\n      mstore(0x20, 0x01)\n      dup1\n      0x00\n      mstore\n      keccak256(0x00, 0x40)\n      0x00\n      swap2\n      pop\n      swap1\n      pop\n      dup1\n      0x00\n      add\n      0x00\n      swap1\n      sload\n      swap1\n      0x0100\n      exp\n      swap1\n      div\n      0xff\n      and\n      swap1\n      dup1\n      0x02\n      add\n      sload\n      swap1\n      dup1\n      0x04\n      add\n      0x00\n      swap1\n      sload\n      swap1\n      0x0100\n      exp\n      swap1\n      div\n      0xffffffffffffffffffffffffffffffffffffffff\n      and\n      swap1\n      pop\n      dup4\n      jump\t// out\n        /* \"contracts/4_Hello.sol\":2105:2286  function gameUsers(uint gameId) public view returns (address[] memory) {... */\n    tag_28:\n        /* \"contracts/4_Hello.sol\":2158:2174  address[] memory */\n      0x60\n        /* \"contracts/4_Hello.sol\":2195:2200  games */\n      0x01\n        /* \"contracts/4_Hello.sol\":2195:2208  games[gameId] */\n      0x00\n        /* \"contracts/4_Hello.sol\":2201:2207  gameId */\n      dup4\n        /* \"contracts/4_Hello.sol\":2195:2208  games[gameId] */\n      dup2\n      mstore\n      0x20\n      add\n      swap1\n      dup2\n      mstore\n      0x20\n      add\n      0x00\n      keccak256\n        /* \"contracts/4_Hello.sol\":2195:2220  games[gameId].initialized */\n      0x00\n      add\n      0x00\n      swap1\n      sload\n      swap1\n      0x0100\n      exp\n      swap1\n      div\n      0xff\n      and\n        /* \"contracts/4_Hello.sol\":2187:2241  require(games[gameId].initialized, \"Game Initialized\") */\n      tag_81\n      jumpi\n      mload(0x40)\n      0x08c379a000000000000000000000000000000000000000000000000000000000\n      dup2\n      mstore\n      0x04\n      add\n      tag_82\n      swap1\n      tag_83\n      jump\t// in\n    tag_82:\n      mload(0x40)\n      dup1\n      swap2\n      sub\n      swap1\n      revert\n    tag_81:\n        /* \"contracts/4_Hello.sol\":2259:2264  games */\n      0x01\n        /* \"contracts/4_Hello.sol\":2259:2272  games[gameId] */\n      0x00\n        /* \"contracts/4_Hello.sol\":2265:2271  gameId */\n      dup4\n        /* \"contracts/4_Hello.sol\":2259:2272  games[gameId] */\n      dup2\n      mstore\n      0x20\n      add\n      swap1\n      dup2\n      mstore\n      0x20\n      add\n      0x00\n      keccak256\n        /* \"contracts/4_Hello.sol\":2259:2278  games[gameId].users */\n      0x03\n      add\n        /* \"contracts/4_Hello.sol\":2252:2278  return games[gameId].users */\n      dup1\n      sload\n      dup1\n      0x20\n      mul\n      0x20\n      add\n      mload(0x40)\n      swap1\n      dup2\n      add\n      0x40\n      mstore\n      dup1\n      swap3\n      swap2\n      swap1\n      dup2\n      dup2\n      mstore\n      0x20\n      add\n      dup3\n      dup1\n      sload\n      dup1\n      iszero\n      tag_84\n      jumpi\n      0x20\n      mul\n      dup3\n      add\n      swap2\n      swap1\n      0x00\n      mstore\n      keccak256(0x00, 0x20)\n      swap1\n    tag_85:\n      dup2\n      0x00\n      swap1\n      sload\n      swap1\n      0x0100\n      exp\n      swap1\n      div\n      0xffffffffffffffffffffffffffffffffffffffff\n      and\n      0xffffffffffffffffffffffffffffffffffffffff\n      and\n      dup2\n      mstore\n      0x20\n      add\n      swap1\n      0x01\n      add\n      swap1\n      dup1\n      dup4\n      gt\n      tag_85\n      jumpi\n    tag_84:\n      pop\n      pop\n      pop\n      pop\n      pop\n      swap1\n      pop\n        /* \"contracts/4_Hello.sol\":2105:2286  function gameUsers(uint gameId) public view returns (address[] memory) {... */\n      swap2\n      swap1\n      pop\n      jump\t// out\n        /* \"contracts/4_Hello.sol\":1694:2097  function finish(uint gameId, address winner) public returns (uint) {... */\n    tag_34:\n        /* \"contracts/4_Hello.sol\":1755:1759  uint */\n      0x00\n        /* \"contracts/4_Hello.sol\":1780:1785  games */\n      0x01\n        /* \"contracts/4_Hello.sol\":1780:1793  games[gameId] */\n      0x00\n        /* \"contracts/4_Hello.sol\":1786:1792  gameId */\n      dup5\n        /* \"contracts/4_Hello.sol\":1780:1793  games[gameId] */\n      dup2\n      mstore\n      0x20\n      add\n      swap1\n      dup2\n      mstore\n      0x20\n      add\n      0x00\n      keccak256\n        /* \"contracts/4_Hello.sol\":1780:1805  games[gameId].initialized */\n      0x00\n      add\n      0x00\n      swap1\n      sload\n      swap1\n      0x0100\n      exp\n      swap1\n      div\n      0xff\n      and\n        /* \"contracts/4_Hello.sol\":1772:1826  require(games[gameId].initialized, \"Game Initialized\") */\n      tag_87\n      jumpi\n      mload(0x40)\n      0x08c379a000000000000000000000000000000000000000000000000000000000\n      dup2\n      mstore\n      0x04\n      add\n      tag_88\n      swap1\n      tag_83\n      jump\t// in\n    tag_88:\n      mload(0x40)\n      dup1\n      swap2\n      sub\n      swap1\n      revert\n    tag_87:\n        /* \"contracts/4_Hello.sol\":1877:1878  0 */\n      0x00\n        /* \"contracts/4_Hello.sol\":1845:1879  games[gameId].winner == address(0) */\n      0xffffffffffffffffffffffffffffffffffffffff\n      and\n        /* \"contracts/4_Hello.sol\":1845:1850  games */\n      0x01\n        /* \"contracts/4_Hello.sol\":1845:1858  games[gameId] */\n      0x00\n        /* \"contracts/4_Hello.sol\":1851:1857  gameId */\n      dup6\n        /* \"contracts/4_Hello.sol\":1845:1858  games[gameId] */\n      dup2\n      mstore\n      0x20\n      add\n      swap1\n      dup2\n      mstore\n      0x20\n      add\n      0x00\n      keccak256\n        /* \"contracts/4_Hello.sol\":1845:1865  games[gameId].winner */\n      0x04\n      add\n      0x00\n      swap1\n      sload\n      swap1\n      0x0100\n      exp\n      swap1\n      div\n      0xffffffffffffffffffffffffffffffffffffffff\n      and\n        /* \"contracts/4_Hello.sol\":1845:1879  games[gameId].winner == address(0) */\n      0xffffffffffffffffffffffffffffffffffffffff\n      and\n      eq\n        /* \"contracts/4_Hello.sol\":1837:1892  require(games[gameId].winner == address(0), \"Finished\") */\n      tag_89\n      jumpi\n      mload(0x40)\n      0x08c379a000000000000000000000000000000000000000000000000000000000\n      dup2\n      mstore\n      0x04\n      add\n      tag_90\n      swap1\n      tag_91\n      jump\t// in\n    tag_90:\n      mload(0x40)\n      dup1\n      swap2\n      sub\n      swap1\n      revert\n    tag_89:\n        /* \"contracts/4_Hello.sol\":1926:1932  winner */\n      dup2\n        /* \"contracts/4_Hello.sol\":1903:1908  games */\n      0x01\n        /* \"contracts/4_Hello.sol\":1903:1916  games[gameId] */\n      0x00\n        /* \"contracts/4_Hello.sol\":1909:1915  gameId */\n      dup6\n        /* \"contracts/4_Hello.sol\":1903:1916  games[gameId] */\n      dup2\n      mstore\n      0x20\n      add\n      swap1\n      dup2\n      mstore\n      0x20\n      add\n      0x00\n      keccak256\n        /* \"contracts/4_Hello.sol\":1903:1923  games[gameId].winner */\n      0x04\n      add\n      0x00\n        /* \"contracts/4_Hello.sol\":1903:1932  games[gameId].winner = winner */\n      0x0100\n      exp\n      dup2\n      sload\n      dup2\n      0xffffffffffffffffffffffffffffffffffffffff\n      mul\n      not\n      and\n      swap1\n      dup4\n      0xffffffffffffffffffffffffffffffffffffffff\n      and\n      mul\n      or\n      swap1\n      sstore\n      pop\n        /* \"contracts/4_Hello.sol\":1958:1971  tokenContract */\n      0x03\n      0x00\n      swap1\n      sload\n      swap1\n      0x0100\n      exp\n      swap1\n      div\n      0xffffffffffffffffffffffffffffffffffffffff\n      and\n        /* \"contracts/4_Hello.sol\":1951:1981  IERC20(tokenContract).transfer */\n      0xffffffffffffffffffffffffffffffffffffffff\n      and\n      0xa9059cbb\n        /* \"contracts/4_Hello.sol\":1982:1988  winner */\n      dup4\n        /* \"contracts/4_Hello.sol\":1990:1995  games */\n      0x01\n        /* \"contracts/4_Hello.sol\":1990:2003  games[gameId] */\n      0x00\n        /* \"contracts/4_Hello.sol\":1996:2002  gameId */\n      dup8\n        /* \"contracts/4_Hello.sol\":1990:2003  games[gameId] */\n      dup2\n      mstore\n      0x20\n      add\n      swap1\n      dup2\n      mstore\n      0x20\n      add\n      0x00\n      keccak256\n        /* \"contracts/4_Hello.sol\":1990:2017  games[gameId].totalBettings */\n      0x02\n      add\n      sload\n        /* \"contracts/4_Hello.sol\":1951:2018  IERC20(tokenContract).transfer(winner, games[gameId].totalBettings) */\n      mload(0x40)\n      dup4\n      0xffffffff\n      and\n      0xe0\n      shl\n      dup2\n      mstore\n      0x04\n      add\n      tag_92\n      swap3\n      swap2\n      swap1\n      tag_93\n      jump\t// in\n    tag_92:\n      0x20\n      mload(0x40)\n      dup1\n      dup4\n      sub\n      dup2\n      0x00\n      dup8\n      gas\n      call\n      iszero\n      dup1\n      iszero\n      tag_95\n      jumpi\n      returndatasize\n      0x00\n      dup1\n      returndatacopy\n      revert(0x00, returndatasize)\n    tag_95:\n      pop\n      pop\n      pop\n      pop\n      mload(0x40)\n      returndatasize\n      not(0x1f)\n      0x1f\n      dup3\n      add\n      and\n      dup3\n      add\n      dup1\n      0x40\n      mstore\n      pop\n      dup2\n      add\n      swap1\n      tag_96\n      swap2\n      swap1\n      tag_97\n      jump\t// in\n    tag_96:\n        /* \"contracts/4_Hello.sol\":1943:2044  require(IERC20(tokenContract).transfer(winner, games[gameId].totalBettings), \"Reward should success\") */\n      tag_98\n      jumpi\n      mload(0x40)\n      0x08c379a000000000000000000000000000000000000000000000000000000000\n      dup2\n      mstore\n      0x04\n      add\n      tag_99\n      swap1\n      tag_100\n      jump\t// in\n    tag_99:\n      mload(0x40)\n      dup1\n      swap2\n      sub\n      swap1\n      revert\n    tag_98:\n        /* \"contracts/4_Hello.sol\":2062:2067  games */\n      0x01\n        /* \"contracts/4_Hello.sol\":2062:2075  games[gameId] */\n      0x00\n        /* \"contracts/4_Hello.sol\":2068:2074  gameId */\n      dup5\n        /* \"contracts/4_Hello.sol\":2062:2075  games[gameId] */\n      dup2\n      mstore\n      0x20\n      add\n      swap1\n      dup2\n      mstore\n      0x20\n      add\n      0x00\n      keccak256\n        /* \"contracts/4_Hello.sol\":2062:2089  games[gameId].totalBettings */\n      0x02\n      add\n      sload\n        /* \"contracts/4_Hello.sol\":2055:2089  return games[gameId].totalBettings */\n      swap1\n      pop\n        /* \"contracts/4_Hello.sol\":1694:2097  function finish(uint gameId, address winner) public returns (uint) {... */\n      swap3\n      swap2\n      pop\n      pop\n      jump\t// out\n        /* \"contracts/4_Hello.sol\":2294:2491  function getBetting(uint gameId, address better) public view returns (uint) {... */\n    tag_39:\n        /* \"contracts/4_Hello.sol\":2364:2368  uint */\n      0x00\n        /* \"contracts/4_Hello.sol\":2389:2394  games */\n      0x01\n        /* \"contracts/4_Hello.sol\":2389:2402  games[gameId] */\n      0x00\n        /* \"contracts/4_Hello.sol\":2395:2401  gameId */\n      dup5\n        /* \"contracts/4_Hello.sol\":2389:2402  games[gameId] */\n      dup2\n      mstore\n      0x20\n      add\n      swap1\n      dup2\n      mstore\n      0x20\n      add\n      0x00\n      keccak256\n        /* \"contracts/4_Hello.sol\":2389:2414  games[gameId].initialized */\n      0x00\n      add\n      0x00\n      swap1\n      sload\n      swap1\n      0x0100\n      exp\n      swap1\n      div\n      0xff\n      and\n        /* \"contracts/4_Hello.sol\":2381:2435  require(games[gameId].initialized, \"Game Initialized\") */\n      tag_102\n      jumpi\n      mload(0x40)\n      0x08c379a000000000000000000000000000000000000000000000000000000000\n      dup2\n      mstore\n      0x04\n      add\n      tag_103\n      swap1\n      tag_83\n      jump\t// in\n    tag_103:\n      mload(0x40)\n      dup1\n      swap2\n      sub\n      swap1\n      revert\n    tag_102:\n        /* \"contracts/4_Hello.sol\":2453:2458  games */\n      0x01\n        /* \"contracts/4_Hello.sol\":2453:2466  games[gameId] */\n      0x00\n        /* \"contracts/4_Hello.sol\":2459:2465  gameId */\n      dup5\n        /* \"contracts/4_Hello.sol\":2453:2466  games[gameId] */\n      dup2\n      mstore\n      0x20\n      add\n      swap1\n      dup2\n      mstore\n      0x20\n      add\n      0x00\n      keccak256\n        /* \"contracts/4_Hello.sol\":2453:2475  games[gameId].bettings */\n      0x01\n      add\n        /* \"contracts/4_Hello.sol\":2453:2483  games[gameId].bettings[better] */\n      0x00\n        /* \"contracts/4_Hello.sol\":2476:2482  better */\n      dup4\n        /* \"contracts/4_Hello.sol\":2453:2483  games[gameId].bettings[better] */\n      0xffffffffffffffffffffffffffffffffffffffff\n      and\n      0xffffffffffffffffffffffffffffffffffffffff\n      and\n      dup2\n      mstore\n      0x20\n      add\n      swap1\n      dup2\n      mstore\n      0x20\n      add\n      0x00\n      keccak256\n      sload\n        /* \"contracts/4_Hello.sol\":2446:2483  return games[gameId].bettings[better] */\n      swap1\n      pop\n        /* \"contracts/4_Hello.sol\":2294:2491  function getBetting(uint gameId, address better) public view returns (uint) {... */\n      swap3\n      swap2\n      pop\n      pop\n      jump\t// out\n        /* \"contracts/4_Hello.sol\":445:473  address public tokenContract */\n    tag_42:\n      0x03\n      0x00\n      swap1\n      sload\n      swap1\n      0x0100\n      exp\n      swap1\n      div\n      0xffffffffffffffffffffffffffffffffffffffff\n      and\n      dup2\n      jump\t// out\n        /* \"contracts/4_Hello.sol\":1034:1686  function bet(uint gameId, uint amount) public returns (bool) {... */\n    tag_48:\n        /* \"contracts/4_Hello.sol\":1089:1093  bool */\n      0x00\n        /* \"contracts/4_Hello.sol\":1114:1119  games */\n      0x01\n        /* \"contracts/4_Hello.sol\":1114:1127  games[gameId] */\n      0x00\n        /* \"contracts/4_Hello.sol\":1120:1126  gameId */\n      dup5\n        /* \"contracts/4_Hello.sol\":1114:1127  games[gameId] */\n      dup2\n      mstore\n      0x20\n      add\n      swap1\n      dup2\n      mstore\n      0x20\n      add\n      0x00\n      keccak256\n        /* \"contracts/4_Hello.sol\":1114:1139  games[gameId].initialized */\n      0x00\n      add\n      0x00\n      swap1\n      sload\n      swap1\n      0x0100\n      exp\n      swap1\n      div\n      0xff\n      and\n        /* \"contracts/4_Hello.sol\":1106:1160  require(games[gameId].initialized, \"Game Initialized\") */\n      tag_105\n      jumpi\n      mload(0x40)\n      0x08c379a000000000000000000000000000000000000000000000000000000000\n      dup2\n      mstore\n      0x04\n      add\n      tag_106\n      swap1\n      tag_83\n      jump\t// in\n    tag_106:\n      mload(0x40)\n      dup1\n      swap2\n      sub\n      swap1\n      revert\n    tag_105:\n        /* \"contracts/4_Hello.sol\":1211:1212  0 */\n      0x00\n        /* \"contracts/4_Hello.sol\":1179:1213  games[gameId].winner == address(0) */\n      0xffffffffffffffffffffffffffffffffffffffff\n      and\n        /* \"contracts/4_Hello.sol\":1179:1184  games */\n      0x01\n        /* \"contracts/4_Hello.sol\":1179:1192  games[gameId] */\n      0x00\n        /* \"contracts/4_Hello.sol\":1185:1191  gameId */\n      dup6\n        /* \"contracts/4_Hello.sol\":1179:1192  games[gameId] */\n      dup2\n      mstore\n      0x20\n      add\n      swap1\n      dup2\n      mstore\n      0x20\n      add\n      0x00\n      keccak256\n        /* \"contracts/4_Hello.sol\":1179:1199  games[gameId].winner */\n      0x04\n      add\n      0x00\n      swap1\n      sload\n      swap1\n      0x0100\n      exp\n      swap1\n      div\n      0xffffffffffffffffffffffffffffffffffffffff\n      and\n        /* \"contracts/4_Hello.sol\":1179:1213  games[gameId].winner == address(0) */\n      0xffffffffffffffffffffffffffffffffffffffff\n      and\n      eq\n        /* \"contracts/4_Hello.sol\":1171:1226  require(games[gameId].winner == address(0), \"Finished\") */\n      tag_107\n      jumpi\n      mload(0x40)\n      0x08c379a000000000000000000000000000000000000000000000000000000000\n      dup2\n      mstore\n      0x04\n      add\n      tag_108\n      swap1\n      tag_91\n      jump\t// in\n    tag_108:\n      mload(0x40)\n      dup1\n      swap2\n      sub\n      swap1\n      revert\n    tag_107:\n        /* \"contracts/4_Hello.sol\":1292:1298  amount */\n      dup2\n        /* \"contracts/4_Hello.sol\":1252:1265  tokenContract */\n      0x03\n      0x00\n      swap1\n      sload\n      swap1\n      0x0100\n      exp\n      swap1\n      div\n      0xffffffffffffffffffffffffffffffffffffffff\n      and\n        /* \"contracts/4_Hello.sol\":1245:1276  IERC20(tokenContract).balanceOf */\n      0xffffffffffffffffffffffffffffffffffffffff\n      and\n      0x70a08231\n        /* \"contracts/4_Hello.sol\":1277:1287  msg.sender */\n      caller\n        /* \"contracts/4_Hello.sol\":1245:1288  IERC20(tokenContract).balanceOf(msg.sender) */\n      mload(0x40)\n      dup3\n      0xffffffff\n      and\n      0xe0\n      shl\n      dup2\n      mstore\n      0x04\n      add\n      tag_109\n      swap2\n      swap1\n      tag_44\n      jump\t// in\n    tag_109:\n      0x20\n      mload(0x40)\n      dup1\n      dup4\n      sub\n      dup2\n      dup7\n      gas\n      staticcall\n      iszero\n      dup1\n      iszero\n      tag_111\n      jumpi\n      returndatasize\n      0x00\n      dup1\n      returndatacopy\n      revert(0x00, returndatasize)\n    tag_111:\n      pop\n      pop\n      pop\n      pop\n      mload(0x40)\n      returndatasize\n      not(0x1f)\n      0x1f\n      dup3\n      add\n      and\n      dup3\n      add\n      dup1\n      0x40\n      mstore\n      pop\n      dup2\n      add\n      swap1\n      tag_112\n      swap2\n      swap1\n      tag_113\n      jump\t// in\n    tag_112:\n        /* \"contracts/4_Hello.sol\":1245:1298  IERC20(tokenContract).balanceOf(msg.sender) >= amount */\n      lt\n      iszero\n        /* \"contracts/4_Hello.sol\":1237:1317  require(IERC20(tokenContract).balanceOf(msg.sender) >= amount, \"Enough balance\") */\n      tag_114\n      jumpi\n      mload(0x40)\n      0x08c379a000000000000000000000000000000000000000000000000000000000\n      dup2\n      mstore\n      0x04\n      add\n      tag_115\n      swap1\n      tag_116\n      jump\t// in\n    tag_115:\n      mload(0x40)\n      dup1\n      swap2\n      sub\n      swap1\n      revert\n    tag_114:\n        /* \"contracts/4_Hello.sol\":1345:1358  tokenContract */\n      0x03\n      0x00\n      swap1\n      sload\n      swap1\n      0x0100\n      exp\n      swap1\n      div\n      0xffffffffffffffffffffffffffffffffffffffff\n      and\n        /* \"contracts/4_Hello.sol\":1338:1372  IERC20(tokenContract).transferFrom */\n      0xffffffffffffffffffffffffffffffffffffffff\n      and\n      0x23b872dd\n        /* \"contracts/4_Hello.sol\":1373:1383  msg.sender */\n      caller\n        /* \"contracts/4_Hello.sol\":1393:1397  this */\n      address\n        /* \"contracts/4_Hello.sol\":1400:1406  amount */\n      dup6\n        /* \"contracts/4_Hello.sol\":1338:1407  IERC20(tokenContract).transferFrom(msg.sender, address(this), amount) */\n      mload(0x40)\n      dup5\n      0xffffffff\n      and\n      0xe0\n      shl\n      dup2\n      mstore\n      0x04\n      add\n      tag_117\n      swap4\n      swap3\n      swap2\n      swap1\n      tag_118\n      jump\t// in\n    tag_117:\n      0x20\n      mload(0x40)\n      dup1\n      dup4\n      sub\n      dup2\n      0x00\n      dup8\n      gas\n      call\n      iszero\n      dup1\n      iszero\n      tag_120\n      jumpi\n      returndatasize\n      0x00\n      dup1\n      returndatacopy\n      revert(0x00, returndatasize)\n    tag_120:\n      pop\n      pop\n      pop\n      pop\n      mload(0x40)\n      returndatasize\n      not(0x1f)\n      0x1f\n      dup3\n      add\n      and\n      dup3\n      add\n      dup1\n      0x40\n      mstore\n      pop\n      dup2\n      add\n      swap1\n      tag_121\n      swap2\n      swap1\n      tag_97\n      jump\t// in\n    tag_121:\n        /* \"contracts/4_Hello.sol\":1330:1435  require(IERC20(tokenContract).transferFrom(msg.sender, address(this), amount), \"Transfer should success\") */\n      tag_122\n      jumpi\n      mload(0x40)\n      0x08c379a000000000000000000000000000000000000000000000000000000000\n      dup2\n      mstore\n      0x04\n      add\n      tag_123\n      swap1\n      tag_124\n      jump\t// in\n    tag_123:\n      mload(0x40)\n      dup1\n      swap2\n      sub\n      swap1\n      revert\n    tag_122:\n        /* \"contracts/4_Hello.sol\":1488:1489  0 */\n      0x00\n        /* \"contracts/4_Hello.sol\":1450:1455  games */\n      0x01\n        /* \"contracts/4_Hello.sol\":1450:1463  games[gameId] */\n      0x00\n        /* \"contracts/4_Hello.sol\":1456:1462  gameId */\n      dup6\n        /* \"contracts/4_Hello.sol\":1450:1463  games[gameId] */\n      dup2\n      mstore\n      0x20\n      add\n      swap1\n      dup2\n      mstore\n      0x20\n      add\n      0x00\n      keccak256\n        /* \"contracts/4_Hello.sol\":1450:1472  games[gameId].bettings */\n      0x01\n      add\n        /* \"contracts/4_Hello.sol\":1450:1484  games[gameId].bettings[msg.sender] */\n      0x00\n        /* \"contracts/4_Hello.sol\":1473:1483  msg.sender */\n      caller\n        /* \"contracts/4_Hello.sol\":1450:1484  games[gameId].bettings[msg.sender] */\n      0xffffffffffffffffffffffffffffffffffffffff\n      and\n      0xffffffffffffffffffffffffffffffffffffffff\n      and\n      dup2\n      mstore\n      0x20\n      add\n      swap1\n      dup2\n      mstore\n      0x20\n      add\n      0x00\n      keccak256\n      sload\n        /* \"contracts/4_Hello.sol\":1450:1489  games[gameId].bettings[msg.sender] == 0 */\n      sub\n        /* \"contracts/4_Hello.sol\":1446:1554  if (games[gameId].bettings[msg.sender] == 0) {... */\n      tag_125\n      jumpi\n        /* \"contracts/4_Hello.sol\":1506:1511  games */\n      0x01\n        /* \"contracts/4_Hello.sol\":1506:1519  games[gameId] */\n      0x00\n        /* \"contracts/4_Hello.sol\":1512:1518  gameId */\n      dup5\n        /* \"contracts/4_Hello.sol\":1506:1519  games[gameId] */\n      dup2\n      mstore\n      0x20\n      add\n      swap1\n      dup2\n      mstore\n      0x20\n      add\n      0x00\n      keccak256\n        /* \"contracts/4_Hello.sol\":1506:1525  games[gameId].users */\n      0x03\n      add\n        /* \"contracts/4_Hello.sol\":1531:1541  msg.sender */\n      caller\n        /* \"contracts/4_Hello.sol\":1506:1542  games[gameId].users.push(msg.sender) */\n      swap1\n      dup1\n      0x01\n      dup2\n      sload\n      add\n      dup1\n      dup3\n      sstore\n      dup1\n      swap2\n      pop\n      pop\n      0x01\n      swap1\n      sub\n      swap1\n      0x00\n      mstore\n      keccak256(0x00, 0x20)\n      add\n      0x00\n      swap1\n      swap2\n      swap1\n      swap2\n      swap1\n      swap2\n      0x0100\n      exp\n      dup2\n      sload\n      dup2\n      0xffffffffffffffffffffffffffffffffffffffff\n      mul\n      not\n      and\n      swap1\n      dup4\n      0xffffffffffffffffffffffffffffffffffffffff\n      and\n      mul\n      or\n      swap1\n      sstore\n      pop\n        /* \"contracts/4_Hello.sol\":1446:1554  if (games[gameId].bettings[msg.sender] == 0) {... */\n    tag_125:\n        /* \"contracts/4_Hello.sol\":1602:1608  amount */\n      dup2\n        /* \"contracts/4_Hello.sol\":1564:1569  games */\n      0x01\n        /* \"contracts/4_Hello.sol\":1564:1577  games[gameId] */\n      0x00\n        /* \"contracts/4_Hello.sol\":1570:1576  gameId */\n      dup6\n        /* \"contracts/4_Hello.sol\":1564:1577  games[gameId] */\n      dup2\n      mstore\n      0x20\n      add\n      swap1\n      dup2\n      mstore\n      0x20\n      add\n      0x00\n      keccak256\n        /* \"contracts/4_Hello.sol\":1564:1586  games[gameId].bettings */\n      0x01\n      add\n        /* \"contracts/4_Hello.sol\":1564:1598  games[gameId].bettings[msg.sender] */\n      0x00\n        /* \"contracts/4_Hello.sol\":1587:1597  msg.sender */\n      caller\n        /* \"contracts/4_Hello.sol\":1564:1598  games[gameId].bettings[msg.sender] */\n      0xffffffffffffffffffffffffffffffffffffffff\n      and\n      0xffffffffffffffffffffffffffffffffffffffff\n      and\n      dup2\n      mstore\n      0x20\n      add\n      swap1\n      dup2\n      mstore\n      0x20\n      add\n      0x00\n      keccak256\n      0x00\n        /* \"contracts/4_Hello.sol\":1564:1608  games[gameId].bettings[msg.sender] += amount */\n      dup3\n      dup3\n      sload\n      tag_127\n      swap2\n      swap1\n      tag_128\n      jump\t// in\n    tag_127:\n      swap3\n      pop\n      pop\n      dup2\n      swap1\n      sstore\n      pop\n        /* \"contracts/4_Hello.sol\":1650:1656  amount */\n      dup2\n        /* \"contracts/4_Hello.sol\":1619:1624  games */\n      0x01\n        /* \"contracts/4_Hello.sol\":1619:1632  games[gameId] */\n      0x00\n        /* \"contracts/4_Hello.sol\":1625:1631  gameId */\n      dup6\n        /* \"contracts/4_Hello.sol\":1619:1632  games[gameId] */\n      dup2\n      mstore\n      0x20\n      add\n      swap1\n      dup2\n      mstore\n      0x20\n      add\n      0x00\n      keccak256\n        /* \"contracts/4_Hello.sol\":1619:1646  games[gameId].totalBettings */\n      0x02\n      add\n      0x00\n        /* \"contracts/4_Hello.sol\":1619:1656  games[gameId].totalBettings += amount */\n      dup3\n      dup3\n      sload\n      tag_129\n      swap2\n      swap1\n      tag_128\n      jump\t// in\n    tag_129:\n      swap3\n      pop\n      pop\n      dup2\n      swap1\n      sstore\n      pop\n        /* \"contracts/4_Hello.sol\":1674:1678  true */\n      0x01\n        /* \"contracts/4_Hello.sol\":1667:1678  return true */\n      swap1\n      pop\n        /* \"contracts/4_Hello.sol\":1034:1686  function bet(uint gameId, uint amount) public returns (bool) {... */\n      swap3\n      swap2\n      pop\n      pop\n      jump\t// out\n        /* \"contracts/ownable.sol\":2368:2471  function renounceOwnership() public virtual onlyOwner {... */\n    tag_52:\n        /* \"contracts/ownable.sol\":1579:1592  _checkOwner() */\n      tag_131\n        /* \"contracts/ownable.sol\":1579:1590  _checkOwner */\n      tag_132\n        /* \"contracts/ownable.sol\":1579:1592  _checkOwner() */\n      jump\t// in\n    tag_131:\n        /* \"contracts/ownable.sol\":2433:2463  _transferOwnership(address(0)) */\n      tag_134\n        /* \"contracts/ownable.sol\":2460:2461  0 */\n      0x00\n        /* \"contracts/ownable.sol\":2433:2451  _transferOwnership */\n      tag_135\n        /* \"contracts/ownable.sol\":2433:2463  _transferOwnership(address(0)) */\n      jump\t// in\n    tag_134:\n        /* \"contracts/ownable.sol\":2368:2471  function renounceOwnership() public virtual onlyOwner {... */\n      jump\t// out\n        /* \"contracts/ownable.sol\":1693:1780  function owner() public view virtual returns (address) {... */\n    tag_54:\n        /* \"contracts/ownable.sol\":1739:1746  address */\n      0x00\n        /* \"contracts/ownable.sol\":1766:1772  _owner */\n      dup1\n      0x00\n      swap1\n      sload\n      swap1\n      0x0100\n      exp\n      swap1\n      div\n      0xffffffffffffffffffffffffffffffffffffffff\n      and\n        /* \"contracts/ownable.sol\":1759:1772  return _owner */\n      swap1\n      pop\n        /* \"contracts/ownable.sol\":1693:1780  function owner() public view virtual returns (address) {... */\n      swap1\n      jump\t// out\n        /* \"contracts/4_Hello.sol\":934:1026  function listGameIds() public view returns (uint[] memory) {... */\n    tag_57:\n        /* \"contracts/4_Hello.sol\":978:991  uint[] memory */\n      0x60\n        /* \"contracts/4_Hello.sol\":1011:1018  gameIds */\n      0x02\n        /* \"contracts/4_Hello.sol\":1004:1018  return gameIds */\n      dup1\n      sload\n      dup1\n      0x20\n      mul\n      0x20\n      add\n      mload(0x40)\n      swap1\n      dup2\n      add\n      0x40\n      mstore\n      dup1\n      swap3\n      swap2\n      swap1\n      dup2\n      dup2\n      mstore\n      0x20\n      add\n      dup3\n      dup1\n      sload\n      dup1\n      iszero\n      tag_138\n      jumpi\n      0x20\n      mul\n      dup3\n      add\n      swap2\n      swap1\n      0x00\n      mstore\n      keccak256(0x00, 0x20)\n      swap1\n    tag_139:\n      dup2\n      sload\n      dup2\n      mstore\n      0x20\n      add\n      swap1\n      0x01\n      add\n      swap1\n      dup1\n      dup4\n      gt\n      tag_139\n      jumpi\n    tag_138:\n      pop\n      pop\n      pop\n      pop\n      pop\n      swap1\n      pop\n        /* \"contracts/4_Hello.sol\":934:1026  function listGameIds() public view returns (uint[] memory) {... */\n      swap1\n      jump\t// out\n        /* \"contracts/4_Hello.sol\":2499:2683  function myBetting(uint gameId) public view returns (uint) {... */\n    tag_62:\n        /* \"contracts/4_Hello.sol\":2552:2556  uint */\n      0x00\n        /* \"contracts/4_Hello.sol\":2577:2582  games */\n      0x01\n        /* \"contracts/4_Hello.sol\":2577:2590  games[gameId] */\n      0x00\n        /* \"contracts/4_Hello.sol\":2583:2589  gameId */\n      dup4\n        /* \"contracts/4_Hello.sol\":2577:2590  games[gameId] */\n      dup2\n      mstore\n      0x20\n      add\n      swap1\n      dup2\n      mstore\n      0x20\n      add\n      0x00\n      keccak256\n        /* \"contracts/4_Hello.sol\":2577:2602  games[gameId].initialized */\n      0x00\n      add\n      0x00\n      swap1\n      sload\n      swap1\n      0x0100\n      exp\n      swap1\n      div\n      0xff\n      and\n        /* \"contracts/4_Hello.sol\":2569:2623  require(games[gameId].initialized, \"Game Initialized\") */\n      tag_141\n      jumpi\n      mload(0x40)\n      0x08c379a000000000000000000000000000000000000000000000000000000000\n      dup2\n      mstore\n      0x04\n      add\n      tag_142\n      swap1\n      tag_83\n      jump\t// in\n    tag_142:\n      mload(0x40)\n      dup1\n      swap2\n      sub\n      swap1\n      revert\n    tag_141:\n        /* \"contracts/4_Hello.sol\":2641:2646  games */\n      0x01\n        /* \"contracts/4_Hello.sol\":2641:2654  games[gameId] */\n      0x00\n        /* \"contracts/4_Hello.sol\":2647:2653  gameId */\n      dup4\n        /* \"contracts/4_Hello.sol\":2641:2654  games[gameId] */\n      dup2\n      mstore\n      0x20\n      add\n      swap1\n      dup2\n      mstore\n      0x20\n      add\n      0x00\n      keccak256\n        /* \"contracts/4_Hello.sol\":2641:2663  games[gameId].bettings */\n      0x01\n      add\n        /* \"contracts/4_Hello.sol\":2641:2675  games[gameId].bettings[msg.sender] */\n      0x00\n        /* \"contracts/4_Hello.sol\":2664:2674  msg.sender */\n      caller\n        /* \"contracts/4_Hello.sol\":2641:2675  games[gameId].bettings[msg.sender] */\n      0xffffffffffffffffffffffffffffffffffffffff\n      and\n      0xffffffffffffffffffffffffffffffffffffffff\n      and\n      dup2\n      mstore\n      0x20\n      add\n      swap1\n      dup2\n      mstore\n      0x20\n      add\n      0x00\n      keccak256\n      sload\n        /* \"contracts/4_Hello.sol\":2634:2675  return games[gameId].bettings[msg.sender] */\n      swap1\n      pop\n        /* \"contracts/4_Hello.sol\":2499:2683  function myBetting(uint gameId) public view returns (uint) {... */\n      swap2\n      swap1\n      pop\n      jump\t// out\n        /* \"contracts/4_Hello.sol\":417:438  uint[] public gameIds */\n    tag_66:\n      0x02\n      dup2\n      dup2\n      sload\n      dup2\n      lt\n      tag_143\n      jumpi\n      0x00\n      dup1\n      revert\n    tag_143:\n      swap1\n      0x00\n      mstore\n      keccak256(0x00, 0x20)\n      add\n      0x00\n      swap2\n      pop\n      swap1\n      pop\n      sload\n      dup2\n      jump\t// out\n        /* \"contracts/4_Hello.sol\":703:926  function startGame(uint newId) public returns (bool) {... */\n    tag_70:\n        /* \"contracts/4_Hello.sol\":750:754  bool */\n      0x00\n        /* \"contracts/4_Hello.sol\":803:808  false */\n      dup1\n        /* \"contracts/4_Hello.sol\":775:808  games[newId].initialized == false */\n      iszero\n      iszero\n        /* \"contracts/4_Hello.sol\":775:780  games */\n      0x01\n        /* \"contracts/4_Hello.sol\":775:787  games[newId] */\n      0x00\n        /* \"contracts/4_Hello.sol\":781:786  newId */\n      dup5\n        /* \"contracts/4_Hello.sol\":775:787  games[newId] */\n      dup2\n      mstore\n      0x20\n      add\n      swap1\n      dup2\n      mstore\n      0x20\n      add\n      0x00\n      keccak256\n        /* \"contracts/4_Hello.sol\":775:799  games[newId].initialized */\n      0x00\n      add\n      0x00\n      swap1\n      sload\n      swap1\n      0x0100\n      exp\n      swap1\n      div\n      0xff\n      and\n        /* \"contracts/4_Hello.sol\":775:808  games[newId].initialized == false */\n      iszero\n      iszero\n      eq\n        /* \"contracts/4_Hello.sol\":767:824  require(games[newId].initialized == false, \"Game exists\") */\n      tag_146\n      jumpi\n      mload(0x40)\n      0x08c379a000000000000000000000000000000000000000000000000000000000\n      dup2\n      mstore\n      0x04\n      add\n      tag_147\n      swap1\n      tag_148\n      jump\t// in\n    tag_147:\n      mload(0x40)\n      dup1\n      swap2\n      sub\n      swap1\n      revert\n    tag_146:\n        /* \"contracts/4_Hello.sol\":862:866  true */\n      0x01\n        /* \"contracts/4_Hello.sol\":835:840  games */\n      dup1\n        /* \"contracts/4_Hello.sol\":835:847  games[newId] */\n      0x00\n        /* \"contracts/4_Hello.sol\":841:846  newId */\n      dup5\n        /* \"contracts/4_Hello.sol\":835:847  games[newId] */\n      dup2\n      mstore\n      0x20\n      add\n      swap1\n      dup2\n      mstore\n      0x20\n      add\n      0x00\n      keccak256\n        /* \"contracts/4_Hello.sol\":835:859  games[newId].initialized */\n      0x00\n      add\n      0x00\n        /* \"contracts/4_Hello.sol\":835:866  games[newId].initialized = true */\n      0x0100\n      exp\n      dup2\n      sload\n      dup2\n      0xff\n      mul\n      not\n      and\n      swap1\n      dup4\n      iszero\n      iszero\n      mul\n      or\n      swap1\n      sstore\n      pop\n        /* \"contracts/4_Hello.sol\":877:884  gameIds */\n      0x02\n        /* \"contracts/4_Hello.sol\":890:895  newId */\n      dup3\n        /* \"contracts/4_Hello.sol\":877:896  gameIds.push(newId) */\n      swap1\n      dup1\n      0x01\n      dup2\n      sload\n      add\n      dup1\n      dup3\n      sstore\n      dup1\n      swap2\n      pop\n      pop\n      0x01\n      swap1\n      sub\n      swap1\n      0x00\n      mstore\n      keccak256(0x00, 0x20)\n      add\n      0x00\n      swap1\n      swap2\n      swap1\n      swap2\n      swap1\n      swap2\n      pop\n      sstore\n        /* \"contracts/4_Hello.sol\":914:918  true */\n      0x01\n        /* \"contracts/4_Hello.sol\":907:918  return true */\n      swap1\n      pop\n        /* \"contracts/4_Hello.sol\":703:926  function startGame(uint newId) public returns (bool) {... */\n      swap2\n      swap1\n      pop\n      jump\t// out\n        /* \"contracts/4_Hello.sol\":566:695  function setErc20(address newContract) public returns (bool) {... */\n    tag_75:\n        /* \"contracts/4_Hello.sol\":621:625  bool */\n      0x00\n        /* \"contracts/4_Hello.sol\":654:665  newContract */\n      dup2\n        /* \"contracts/4_Hello.sol\":638:651  tokenContract */\n      0x03\n      0x00\n        /* \"contracts/4_Hello.sol\":638:665  tokenContract = newContract */\n      0x0100\n      exp\n      dup2\n      sload\n      dup2\n      0xffffffffffffffffffffffffffffffffffffffff\n      mul\n      not\n      and\n      swap1\n      dup4\n      0xffffffffffffffffffffffffffffffffffffffff\n      and\n      mul\n      or\n      swap1\n      sstore\n      pop\n        /* \"contracts/4_Hello.sol\":683:687  true */\n      0x01\n        /* \"contracts/4_Hello.sol\":676:687  return true */\n      swap1\n      pop\n        /* \"contracts/4_Hello.sol\":566:695  function setErc20(address newContract) public returns (bool) {... */\n      swap2\n      swap1\n      pop\n      jump\t// out\n        /* \"contracts/ownable.sol\":2626:2846  function transferOwnership(address newOwner) public virtual onlyOwner {... */\n    tag_79:\n        /* \"contracts/ownable.sol\":1579:1592  _checkOwner() */\n      tag_152\n        /* \"contracts/ownable.sol\":1579:1590  _checkOwner */\n      tag_132\n        /* \"contracts/ownable.sol\":1579:1592  _checkOwner() */\n      jump\t// in\n    tag_152:\n        /* \"contracts/ownable.sol\":2731:2732  0 */\n      0x00\n        /* \"contracts/ownable.sol\":2711:2733  newOwner == address(0) */\n      0xffffffffffffffffffffffffffffffffffffffff\n      and\n        /* \"contracts/ownable.sol\":2711:2719  newOwner */\n      dup2\n        /* \"contracts/ownable.sol\":2711:2733  newOwner == address(0) */\n      0xffffffffffffffffffffffffffffffffffffffff\n      and\n      sub\n        /* \"contracts/ownable.sol\":2707:2800  if (newOwner == address(0)) {... */\n      tag_154\n      jumpi\n        /* \"contracts/ownable.sol\":2785:2786  0 */\n      0x00\n        /* \"contracts/ownable.sol\":2757:2788  OwnableInvalidOwner(address(0)) */\n      mload(0x40)\n      0x1e4fbdf700000000000000000000000000000000000000000000000000000000\n      dup2\n      mstore\n      0x04\n      add\n      tag_155\n      swap2\n      swap1\n      tag_44\n      jump\t// in\n    tag_155:\n      mload(0x40)\n      dup1\n      swap2\n      sub\n      swap1\n      revert\n        /* \"contracts/ownable.sol\":2707:2800  if (newOwner == address(0)) {... */\n    tag_154:\n        /* \"contracts/ownable.sol\":2810:2838  _transferOwnership(newOwner) */\n      tag_156\n        /* \"contracts/ownable.sol\":2829:2837  newOwner */\n      dup2\n        /* \"contracts/ownable.sol\":2810:2828  _transferOwnership */\n      tag_135\n        /* \"contracts/ownable.sol\":2810:2838  _transferOwnership(newOwner) */\n      jump\t// in\n    tag_156:\n        /* \"contracts/ownable.sol\":2626:2846  function transferOwnership(address newOwner) public virtual onlyOwner {... */\n      pop\n      jump\t// out\n        /* \"contracts/ownable.sol\":1858:2024  function _checkOwner() internal view virtual {... */\n    tag_132:\n        /* \"contracts/ownable.sol\":1929:1941  _msgSender() */\n      tag_158\n        /* \"contracts/ownable.sol\":1929:1939  _msgSender */\n      tag_159\n        /* \"contracts/ownable.sol\":1929:1941  _msgSender() */\n      jump\t// in\n    tag_158:\n        /* \"contracts/ownable.sol\":1918:1941  owner() != _msgSender() */\n      0xffffffffffffffffffffffffffffffffffffffff\n      and\n        /* \"contracts/ownable.sol\":1918:1925  owner() */\n      tag_160\n        /* \"contracts/ownable.sol\":1918:1923  owner */\n      tag_54\n        /* \"contracts/ownable.sol\":1918:1925  owner() */\n      jump\t// in\n    tag_160:\n        /* \"contracts/ownable.sol\":1918:1941  owner() != _msgSender() */\n      0xffffffffffffffffffffffffffffffffffffffff\n      and\n      eq\n        /* \"contracts/ownable.sol\":1914:2017  if (owner() != _msgSender()) {... */\n      tag_161\n      jumpi\n        /* \"contracts/ownable.sol\":1992:2004  _msgSender() */\n      tag_162\n        /* \"contracts/ownable.sol\":1992:2002  _msgSender */\n      tag_159\n        /* \"contracts/ownable.sol\":1992:2004  _msgSender() */\n      jump\t// in\n    tag_162:\n        /* \"contracts/ownable.sol\":1965:2005  OwnableUnauthorizedAccount(_msgSender()) */\n      mload(0x40)\n      0x118cdaa700000000000000000000000000000000000000000000000000000000\n      dup2\n      mstore\n      0x04\n      add\n      tag_163\n      swap2\n      swap1\n      tag_44\n      jump\t// in\n    tag_163:\n      mload(0x40)\n      dup1\n      swap2\n      sub\n      swap1\n      revert\n        /* \"contracts/ownable.sol\":1914:2017  if (owner() != _msgSender()) {... */\n    tag_161:\n        /* \"contracts/ownable.sol\":1858:2024  function _checkOwner() internal view virtual {... */\n      jump\t// out\n        /* \"contracts/ownable.sol\":3006:3197  function _transferOwnership(address newOwner) internal virtual {... */\n    tag_135:\n        /* \"contracts/ownable.sol\":3080:3096  address oldOwner */\n      0x00\n        /* \"contracts/ownable.sol\":3099:3105  _owner */\n      dup1\n      0x00\n      swap1\n      sload\n      swap1\n      0x0100\n      exp\n      swap1\n      div\n      0xffffffffffffffffffffffffffffffffffffffff\n      and\n        /* \"contracts/ownable.sol\":3080:3105  address oldOwner = _owner */\n      swap1\n      pop\n        /* \"contracts/ownable.sol\":3125:3133  newOwner */\n      dup2\n        /* \"contracts/ownable.sol\":3116:3122  _owner */\n      0x00\n      dup1\n        /* \"contracts/ownable.sol\":3116:3133  _owner = newOwner */\n      0x0100\n      exp\n      dup2\n      sload\n      dup2\n      0xffffffffffffffffffffffffffffffffffffffff\n      mul\n      not\n      and\n      swap1\n      dup4\n      0xffffffffffffffffffffffffffffffffffffffff\n      and\n      mul\n      or\n      swap1\n      sstore\n      pop\n        /* \"contracts/ownable.sol\":3180:3188  newOwner */\n      dup2\n        /* \"contracts/ownable.sol\":3149:3189  OwnershipTransferred(oldOwner, newOwner) */\n      0xffffffffffffffffffffffffffffffffffffffff\n      and\n        /* \"contracts/ownable.sol\":3170:3178  oldOwner */\n      dup2\n        /* \"contracts/ownable.sol\":3149:3189  OwnershipTransferred(oldOwner, newOwner) */\n      0xffffffffffffffffffffffffffffffffffffffff\n      and\n      0x8be0079c531659141344cd1fd0a4f28419497f9722a3daafe3b4186f6b6457e0\n      mload(0x40)\n      mload(0x40)\n      dup1\n      swap2\n      sub\n      swap1\n      log3\n        /* \"contracts/ownable.sol\":3069:3197  {... */\n      pop\n        /* \"contracts/ownable.sol\":3006:3197  function _transferOwnership(address newOwner) internal virtual {... */\n      pop\n      jump\t// out\n        /* \"contracts/context.sol\":679:777  function _msgSender() internal view virtual returns (address) {... */\n    tag_159:\n        /* \"contracts/context.sol\":732:739  address */\n      0x00\n        /* \"contracts/context.sol\":759:769  msg.sender */\n      caller\n        /* \"contracts/context.sol\":752:769  return msg.sender */\n      swap1\n      pop\n        /* \"contracts/context.sol\":679:777  function _msgSender() internal view virtual returns (address) {... */\n      swap1\n      jump\t// out\n        /* \"#utility.yul\":88:205   */\n    tag_167:\n        /* \"#utility.yul\":197:198   */\n      0x00\n        /* \"#utility.yul\":194:195   */\n      dup1\n        /* \"#utility.yul\":187:199   */\n      revert\n        /* \"#utility.yul\":334:411   */\n    tag_169:\n        /* \"#utility.yul\":371:378   */\n      0x00\n        /* \"#utility.yul\":400:405   */\n      dup2\n        /* \"#utility.yul\":389:405   */\n      swap1\n      pop\n        /* \"#utility.yul\":334:411   */\n      swap2\n      swap1\n      pop\n      jump\t// out\n        /* \"#utility.yul\":417:539   */\n    tag_170:\n        /* \"#utility.yul\":490:514   */\n      tag_217\n        /* \"#utility.yul\":508:513   */\n      dup2\n        /* \"#utility.yul\":490:514   */\n      tag_169\n      jump\t// in\n    tag_217:\n        /* \"#utility.yul\":483:488   */\n      dup2\n        /* \"#utility.yul\":480:515   */\n      eq\n        /* \"#utility.yul\":470:533   */\n      tag_218\n      jumpi\n        /* \"#utility.yul\":529:530   */\n      0x00\n        /* \"#utility.yul\":526:527   */\n      dup1\n        /* \"#utility.yul\":519:531   */\n      revert\n        /* \"#utility.yul\":470:533   */\n    tag_218:\n        /* \"#utility.yul\":417:539   */\n      pop\n      jump\t// out\n        /* \"#utility.yul\":545:684   */\n    tag_171:\n        /* \"#utility.yul\":591:596   */\n      0x00\n        /* \"#utility.yul\":629:635   */\n      dup2\n        /* \"#utility.yul\":616:636   */\n      calldataload\n        /* \"#utility.yul\":607:636   */\n      swap1\n      pop\n        /* \"#utility.yul\":645:678   */\n      tag_220\n        /* \"#utility.yul\":672:677   */\n      dup2\n        /* \"#utility.yul\":645:678   */\n      tag_170\n      jump\t// in\n    tag_220:\n        /* \"#utility.yul\":545:684   */\n      swap3\n      swap2\n      pop\n      pop\n      jump\t// out\n        /* \"#utility.yul\":690:1019   */\n    tag_22:\n        /* \"#utility.yul\":749:755   */\n      0x00\n        /* \"#utility.yul\":798:800   */\n      0x20\n        /* \"#utility.yul\":786:795   */\n      dup3\n        /* \"#utility.yul\":777:784   */\n      dup5\n        /* \"#utility.yul\":773:796   */\n      sub\n        /* \"#utility.yul\":769:801   */\n      slt\n        /* \"#utility.yul\":766:885   */\n      iszero\n      tag_222\n      jumpi\n        /* \"#utility.yul\":804:883   */\n      tag_223\n      tag_167\n      jump\t// in\n    tag_223:\n        /* \"#utility.yul\":766:885   */\n    tag_222:\n        /* \"#utility.yul\":924:925   */\n      0x00\n        /* \"#utility.yul\":949:1002   */\n      tag_224\n        /* \"#utility.yul\":994:1001   */\n      dup5\n        /* \"#utility.yul\":985:991   */\n      dup3\n        /* \"#utility.yul\":974:983   */\n      dup6\n        /* \"#utility.yul\":970:992   */\n      add\n        /* \"#utility.yul\":949:1002   */\n      tag_171\n      jump\t// in\n    tag_224:\n        /* \"#utility.yul\":939:1002   */\n      swap2\n      pop\n        /* \"#utility.yul\":895:1012   */\n      pop\n        /* \"#utility.yul\":690:1019   */\n      swap3\n      swap2\n      pop\n      pop\n      jump\t// out\n        /* \"#utility.yul\":1025:1115   */\n    tag_172:\n        /* \"#utility.yul\":1059:1066   */\n      0x00\n        /* \"#utility.yul\":1102:1107   */\n      dup2\n        /* \"#utility.yul\":1095:1108   */\n      iszero\n        /* \"#utility.yul\":1088:1109   */\n      iszero\n        /* \"#utility.yul\":1077:1109   */\n      swap1\n      pop\n        /* \"#utility.yul\":1025:1115   */\n      swap2\n      swap1\n      pop\n      jump\t// out\n        /* \"#utility.yul\":1121:1230   */\n    tag_173:\n        /* \"#utility.yul\":1202:1223   */\n      tag_227\n        /* \"#utility.yul\":1217:1222   */\n      dup2\n        /* \"#utility.yul\":1202:1223   */\n      tag_172\n      jump\t// in\n    tag_227:\n        /* \"#utility.yul\":1197:1200   */\n      dup3\n        /* \"#utility.yul\":1190:1224   */\n      mstore\n        /* \"#utility.yul\":1121:1230   */\n      pop\n      pop\n      jump\t// out\n        /* \"#utility.yul\":1236:1354   */\n    tag_174:\n        /* \"#utility.yul\":1323:1347   */\n      tag_229\n        /* \"#utility.yul\":1341:1346   */\n      dup2\n        /* \"#utility.yul\":1323:1347   */\n      tag_169\n      jump\t// in\n    tag_229:\n        /* \"#utility.yul\":1318:1321   */\n      dup3\n        /* \"#utility.yul\":1311:1348   */\n      mstore\n        /* \"#utility.yul\":1236:1354   */\n      pop\n      pop\n      jump\t// out\n        /* \"#utility.yul\":1360:1486   */\n    tag_175:\n        /* \"#utility.yul\":1397:1404   */\n      0x00\n        /* \"#utility.yul\":1437:1479   */\n      0xffffffffffffffffffffffffffffffffffffffff\n        /* \"#utility.yul\":1430:1435   */\n      dup3\n        /* \"#utility.yul\":1426:1480   */\n      and\n        /* \"#utility.yul\":1415:1480   */\n      swap1\n      pop\n        /* \"#utility.yul\":1360:1486   */\n      swap2\n      swap1\n      pop\n      jump\t// out\n        /* \"#utility.yul\":1492:1588   */\n    tag_176:\n        /* \"#utility.yul\":1529:1536   */\n      0x00\n        /* \"#utility.yul\":1558:1582   */\n      tag_232\n        /* \"#utility.yul\":1576:1581   */\n      dup3\n        /* \"#utility.yul\":1558:1582   */\n      tag_175\n      jump\t// in\n    tag_232:\n        /* \"#utility.yul\":1547:1582   */\n      swap1\n      pop\n        /* \"#utility.yul\":1492:1588   */\n      swap2\n      swap1\n      pop\n      jump\t// out\n        /* \"#utility.yul\":1594:1712   */\n    tag_177:\n        /* \"#utility.yul\":1681:1705   */\n      tag_234\n        /* \"#utility.yul\":1699:1704   */\n      dup2\n        /* \"#utility.yul\":1681:1705   */\n      tag_176\n      jump\t// in\n    tag_234:\n        /* \"#utility.yul\":1676:1679   */\n      dup3\n        /* \"#utility.yul\":1669:1706   */\n      mstore\n        /* \"#utility.yul\":1594:1712   */\n      pop\n      pop\n      jump\t// out\n        /* \"#utility.yul\":1718:2148   */\n    tag_25:\n        /* \"#utility.yul\":1861:1865   */\n      0x00\n        /* \"#utility.yul\":1899:1901   */\n      0x60\n        /* \"#utility.yul\":1888:1897   */\n      dup3\n        /* \"#utility.yul\":1884:1902   */\n      add\n        /* \"#utility.yul\":1876:1902   */\n      swap1\n      pop\n        /* \"#utility.yul\":1912:1977   */\n      tag_236\n        /* \"#utility.yul\":1974:1975   */\n      0x00\n        /* \"#utility.yul\":1963:1972   */\n      dup4\n        /* \"#utility.yul\":1959:1976   */\n      add\n        /* \"#utility.yul\":1950:1956   */\n      dup7\n        /* \"#utility.yul\":1912:1977   */\n      tag_173\n      jump\t// in\n    tag_236:\n        /* \"#utility.yul\":1987:2059   */\n      tag_237\n        /* \"#utility.yul\":2055:2057   */\n      0x20\n        /* \"#utility.yul\":2044:2053   */\n      dup4\n        /* \"#utility.yul\":2040:2058   */\n      add\n        /* \"#utility.yul\":2031:2037   */\n      dup6\n        /* \"#utility.yul\":1987:2059   */\n      tag_174\n      jump\t// in\n    tag_237:\n        /* \"#utility.yul\":2069:2141   */\n      tag_238\n        /* \"#utility.yul\":2137:2139   */\n      0x40\n        /* \"#utility.yul\":2126:2135   */\n      dup4\n        /* \"#utility.yul\":2122:2140   */\n      add\n        /* \"#utility.yul\":2113:2119   */\n      dup5\n        /* \"#utility.yul\":2069:2141   */\n      tag_177\n      jump\t// in\n    tag_238:\n        /* \"#utility.yul\":1718:2148   */\n      swap5\n      swap4\n      pop\n      pop\n      pop\n      pop\n      jump\t// out\n        /* \"#utility.yul\":2154:2268   */\n    tag_178:\n        /* \"#utility.yul\":2221:2227   */\n      0x00\n        /* \"#utility.yul\":2255:2260   */\n      dup2\n        /* \"#utility.yul\":2249:2261   */\n      mload\n        /* \"#utility.yul\":2239:2261   */\n      swap1\n      pop\n        /* \"#utility.yul\":2154:2268   */\n      swap2\n      swap1\n      pop\n      jump\t// out\n        /* \"#utility.yul\":2274:2458   */\n    tag_179:\n        /* \"#utility.yul\":2373:2384   */\n      0x00\n        /* \"#utility.yul\":2407:2413   */\n      dup3\n        /* \"#utility.yul\":2402:2405   */\n      dup3\n        /* \"#utility.yul\":2395:2414   */\n      mstore\n        /* \"#utility.yul\":2447:2451   */\n      0x20\n        /* \"#utility.yul\":2442:2445   */\n      dup3\n        /* \"#utility.yul\":2438:2452   */\n      add\n        /* \"#utility.yul\":2423:2452   */\n      swap1\n      pop\n        /* \"#utility.yul\":2274:2458   */\n      swap3\n      swap2\n      pop\n      pop\n      jump\t// out\n        /* \"#utility.yul\":2464:2596   */\n    tag_180:\n        /* \"#utility.yul\":2531:2535   */\n      0x00\n        /* \"#utility.yul\":2554:2557   */\n      dup2\n        /* \"#utility.yul\":2546:2557   */\n      swap1\n      pop\n        /* \"#utility.yul\":2584:2588   */\n      0x20\n        /* \"#utility.yul\":2579:2582   */\n      dup3\n        /* \"#utility.yul\":2575:2589   */\n      add\n        /* \"#utility.yul\":2567:2589   */\n      swap1\n      pop\n        /* \"#utility.yul\":2464:2596   */\n      swap2\n      swap1\n      pop\n      jump\t// out\n        /* \"#utility.yul\":2602:2710   */\n    tag_181:\n        /* \"#utility.yul\":2679:2703   */\n      tag_243\n        /* \"#utility.yul\":2697:2702   */\n      dup2\n        /* \"#utility.yul\":2679:2703   */\n      tag_176\n      jump\t// in\n    tag_243:\n        /* \"#utility.yul\":2674:2677   */\n      dup3\n        /* \"#utility.yul\":2667:2704   */\n      mstore\n        /* \"#utility.yul\":2602:2710   */\n      pop\n      pop\n      jump\t// out\n        /* \"#utility.yul\":2716:2895   */\n    tag_182:\n        /* \"#utility.yul\":2785:2795   */\n      0x00\n        /* \"#utility.yul\":2806:2852   */\n      tag_245\n        /* \"#utility.yul\":2848:2851   */\n      dup4\n        /* \"#utility.yul\":2840:2846   */\n      dup4\n        /* \"#utility.yul\":2806:2852   */\n      tag_181\n      jump\t// in\n    tag_245:\n        /* \"#utility.yul\":2884:2888   */\n      0x20\n        /* \"#utility.yul\":2879:2882   */\n      dup4\n        /* \"#utility.yul\":2875:2889   */\n      add\n        /* \"#utility.yul\":2861:2889   */\n      swap1\n      pop\n        /* \"#utility.yul\":2716:2895   */\n      swap3\n      swap2\n      pop\n      pop\n      jump\t// out\n        /* \"#utility.yul\":2901:3014   */\n    tag_183:\n        /* \"#utility.yul\":2971:2975   */\n      0x00\n        /* \"#utility.yul\":3003:3007   */\n      0x20\n        /* \"#utility.yul\":2998:3001   */\n      dup3\n        /* \"#utility.yul\":2994:3008   */\n      add\n        /* \"#utility.yul\":2986:3008   */\n      swap1\n      pop\n        /* \"#utility.yul\":2901:3014   */\n      swap2\n      swap1\n      pop\n      jump\t// out\n        /* \"#utility.yul\":3050:3782   */\n    tag_184:\n        /* \"#utility.yul\":3169:3172   */\n      0x00\n        /* \"#utility.yul\":3198:3252   */\n      tag_248\n        /* \"#utility.yul\":3246:3251   */\n      dup3\n        /* \"#utility.yul\":3198:3252   */\n      tag_178\n      jump\t// in\n    tag_248:\n        /* \"#utility.yul\":3268:3354   */\n      tag_249\n        /* \"#utility.yul\":3347:3353   */\n      dup2\n        /* \"#utility.yul\":3342:3345   */\n      dup6\n        /* \"#utility.yul\":3268:3354   */\n      tag_179\n      jump\t// in\n    tag_249:\n        /* \"#utility.yul\":3261:3354   */\n      swap4\n      pop\n        /* \"#utility.yul\":3378:3434   */\n      tag_250\n        /* \"#utility.yul\":3428:3433   */\n      dup4\n        /* \"#utility.yul\":3378:3434   */\n      tag_180\n      jump\t// in\n    tag_250:\n        /* \"#utility.yul\":3457:3464   */\n      dup1\n        /* \"#utility.yul\":3488:3489   */\n      0x00\n        /* \"#utility.yul\":3473:3757   */\n    tag_251:\n        /* \"#utility.yul\":3498:3504   */\n      dup4\n        /* \"#utility.yul\":3495:3496   */\n      dup2\n        /* \"#utility.yul\":3492:3505   */\n      lt\n        /* \"#utility.yul\":3473:3757   */\n      iszero\n      tag_253\n      jumpi\n        /* \"#utility.yul\":3574:3580   */\n      dup2\n        /* \"#utility.yul\":3568:3581   */\n      mload\n        /* \"#utility.yul\":3601:3664   */\n      tag_254\n        /* \"#utility.yul\":3660:3663   */\n      dup9\n        /* \"#utility.yul\":3645:3658   */\n      dup3\n        /* \"#utility.yul\":3601:3664   */\n      tag_182\n      jump\t// in\n    tag_254:\n        /* \"#utility.yul\":3594:3664   */\n      swap8\n      pop\n        /* \"#utility.yul\":3687:3747   */\n      tag_255\n        /* \"#utility.yul\":3740:3746   */\n      dup4\n        /* \"#utility.yul\":3687:3747   */\n      tag_183\n      jump\t// in\n    tag_255:\n        /* \"#utility.yul\":3677:3747   */\n      swap3\n      pop\n        /* \"#utility.yul\":3533:3757   */\n      pop\n        /* \"#utility.yul\":3520:3521   */\n      0x01\n        /* \"#utility.yul\":3517:3518   */\n      dup2\n        /* \"#utility.yul\":3513:3522   */\n      add\n        /* \"#utility.yul\":3508:3522   */\n      swap1\n      pop\n        /* \"#utility.yul\":3473:3757   */\n      jump(tag_251)\n    tag_253:\n        /* \"#utility.yul\":3477:3491   */\n      pop\n        /* \"#utility.yul\":3773:3776   */\n      dup6\n        /* \"#utility.yul\":3766:3776   */\n      swap4\n      pop\n        /* \"#utility.yul\":3174:3782   */\n      pop\n      pop\n      pop\n        /* \"#utility.yul\":3050:3782   */\n      swap3\n      swap2\n      pop\n      pop\n      jump\t// out\n        /* \"#utility.yul\":3788:4161   */\n    tag_30:\n        /* \"#utility.yul\":3931:3935   */\n      0x00\n        /* \"#utility.yul\":3969:3971   */\n      0x20\n        /* \"#utility.yul\":3958:3967   */\n      dup3\n        /* \"#utility.yul\":3954:3972   */\n      add\n        /* \"#utility.yul\":3946:3972   */\n      swap1\n      pop\n        /* \"#utility.yul\":4018:4027   */\n      dup2\n        /* \"#utility.yul\":4012:4016   */\n      dup2\n        /* \"#utility.yul\":4008:4028   */\n      sub\n        /* \"#utility.yul\":4004:4005   */\n      0x00\n        /* \"#utility.yul\":3993:4002   */\n      dup4\n        /* \"#utility.yul\":3989:4006   */\n      add\n        /* \"#utility.yul\":3982:4029   */\n      mstore\n        /* \"#utility.yul\":4046:4154   */\n      tag_257\n        /* \"#utility.yul\":4149:4153   */\n      dup2\n        /* \"#utility.yul\":4140:4146   */\n      dup5\n        /* \"#utility.yul\":4046:4154   */\n      tag_184\n      jump\t// in\n    tag_257:\n        /* \"#utility.yul\":4038:4154   */\n      swap1\n      pop\n        /* \"#utility.yul\":3788:4161   */\n      swap3\n      swap2\n      pop\n      pop\n      jump\t// out\n        /* \"#utility.yul\":4167:4289   */\n    tag_185:\n        /* \"#utility.yul\":4240:4264   */\n      tag_259\n        /* \"#utility.yul\":4258:4263   */\n      dup2\n        /* \"#utility.yul\":4240:4264   */\n      tag_176\n      jump\t// in\n    tag_259:\n        /* \"#utility.yul\":4233:4238   */\n      dup2\n        /* \"#utility.yul\":4230:4265   */\n      eq\n        /* \"#utility.yul\":4220:4283   */\n      tag_260\n      jumpi\n        /* \"#utility.yul\":4279:4280   */\n      0x00\n        /* \"#utility.yul\":4276:4277   */\n      dup1\n        /* \"#utility.yul\":4269:4281   */\n      revert\n        /* \"#utility.yul\":4220:4283   */\n    tag_260:\n        /* \"#utility.yul\":4167:4289   */\n      pop\n      jump\t// out\n        /* \"#utility.yul\":4295:4434   */\n    tag_186:\n        /* \"#utility.yul\":4341:4346   */\n      0x00\n        /* \"#utility.yul\":4379:4385   */\n      dup2\n        /* \"#utility.yul\":4366:4386   */\n      calldataload\n        /* \"#utility.yul\":4357:4386   */\n      swap1\n      pop\n        /* \"#utility.yul\":4395:4428   */\n      tag_262\n        /* \"#utility.yul\":4422:4427   */\n      dup2\n        /* \"#utility.yul\":4395:4428   */\n      tag_185\n      jump\t// in\n    tag_262:\n        /* \"#utility.yul\":4295:4434   */\n      swap3\n      swap2\n      pop\n      pop\n      jump\t// out\n        /* \"#utility.yul\":4440:4914   */\n    tag_33:\n        /* \"#utility.yul\":4508:4514   */\n      0x00\n        /* \"#utility.yul\":4516:4522   */\n      dup1\n        /* \"#utility.yul\":4565:4567   */\n      0x40\n        /* \"#utility.yul\":4553:4562   */\n      dup4\n        /* \"#utility.yul\":4544:4551   */\n      dup6\n        /* \"#utility.yul\":4540:4563   */\n      sub\n        /* \"#utility.yul\":4536:4568   */\n      slt\n        /* \"#utility.yul\":4533:4652   */\n      iszero\n      tag_264\n      jumpi\n        /* \"#utility.yul\":4571:4650   */\n      tag_265\n      tag_167\n      jump\t// in\n    tag_265:\n        /* \"#utility.yul\":4533:4652   */\n    tag_264:\n        /* \"#utility.yul\":4691:4692   */\n      0x00\n        /* \"#utility.yul\":4716:4769   */\n      tag_266\n        /* \"#utility.yul\":4761:4768   */\n      dup6\n        /* \"#utility.yul\":4752:4758   */\n      dup3\n        /* \"#utility.yul\":4741:4750   */\n      dup7\n        /* \"#utility.yul\":4737:4759   */\n      add\n        /* \"#utility.yul\":4716:4769   */\n      tag_171\n      jump\t// in\n    tag_266:\n        /* \"#utility.yul\":4706:4769   */\n      swap3\n      pop\n        /* \"#utility.yul\":4662:4779   */\n      pop\n        /* \"#utility.yul\":4818:4820   */\n      0x20\n        /* \"#utility.yul\":4844:4897   */\n      tag_267\n        /* \"#utility.yul\":4889:4896   */\n      dup6\n        /* \"#utility.yul\":4880:4886   */\n      dup3\n        /* \"#utility.yul\":4869:4878   */\n      dup7\n        /* \"#utility.yul\":4865:4887   */\n      add\n        /* \"#utility.yul\":4844:4897   */\n      tag_186\n      jump\t// in\n    tag_267:\n        /* \"#utility.yul\":4834:4897   */\n      swap2\n      pop\n        /* \"#utility.yul\":4789:4907   */\n      pop\n        /* \"#utility.yul\":4440:4914   */\n      swap3\n      pop\n      swap3\n      swap1\n      pop\n      jump\t// out\n        /* \"#utility.yul\":4920:5142   */\n    tag_36:\n        /* \"#utility.yul\":5013:5017   */\n      0x00\n        /* \"#utility.yul\":5051:5053   */\n      0x20\n        /* \"#utility.yul\":5040:5049   */\n      dup3\n        /* \"#utility.yul\":5036:5054   */\n      add\n        /* \"#utility.yul\":5028:5054   */\n      swap1\n      pop\n        /* \"#utility.yul\":5064:5135   */\n      tag_269\n        /* \"#utility.yul\":5132:5133   */\n      0x00\n        /* \"#utility.yul\":5121:5130   */\n      dup4\n        /* \"#utility.yul\":5117:5134   */\n      add\n        /* \"#utility.yul\":5108:5114   */\n      dup5\n        /* \"#utility.yul\":5064:5135   */\n      tag_174\n      jump\t// in\n    tag_269:\n        /* \"#utility.yul\":4920:5142   */\n      swap3\n      swap2\n      pop\n      pop\n      jump\t// out\n        /* \"#utility.yul\":5148:5370   */\n    tag_44:\n        /* \"#utility.yul\":5241:5245   */\n      0x00\n        /* \"#utility.yul\":5279:5281   */\n      0x20\n        /* \"#utility.yul\":5268:5277   */\n      dup3\n        /* \"#utility.yul\":5264:5282   */\n      add\n        /* \"#utility.yul\":5256:5282   */\n      swap1\n      pop\n        /* \"#utility.yul\":5292:5363   */\n      tag_271\n        /* \"#utility.yul\":5360:5361   */\n      0x00\n        /* \"#utility.yul\":5349:5358   */\n      dup4\n        /* \"#utility.yul\":5345:5362   */\n      add\n        /* \"#utility.yul\":5336:5342   */\n      dup5\n        /* \"#utility.yul\":5292:5363   */\n      tag_177\n      jump\t// in\n    tag_271:\n        /* \"#utility.yul\":5148:5370   */\n      swap3\n      swap2\n      pop\n      pop\n      jump\t// out\n        /* \"#utility.yul\":5376:5850   */\n    tag_47:\n        /* \"#utility.yul\":5444:5450   */\n      0x00\n        /* \"#utility.yul\":5452:5458   */\n      dup1\n        /* \"#utility.yul\":5501:5503   */\n      0x40\n        /* \"#utility.yul\":5489:5498   */\n      dup4\n        /* \"#utility.yul\":5480:5487   */\n      dup6\n        /* \"#utility.yul\":5476:5499   */\n      sub\n        /* \"#utility.yul\":5472:5504   */\n      slt\n        /* \"#utility.yul\":5469:5588   */\n      iszero\n      tag_273\n      jumpi\n        /* \"#utility.yul\":5507:5586   */\n      tag_274\n      tag_167\n      jump\t// in\n    tag_274:\n        /* \"#utility.yul\":5469:5588   */\n    tag_273:\n        /* \"#utility.yul\":5627:5628   */\n      0x00\n        /* \"#utility.yul\":5652:5705   */\n      tag_275\n        /* \"#utility.yul\":5697:5704   */\n      dup6\n        /* \"#utility.yul\":5688:5694   */\n      dup3\n        /* \"#utility.yul\":5677:5686   */\n      dup7\n        /* \"#utility.yul\":5673:5695   */\n      add\n        /* \"#utility.yul\":5652:5705   */\n      tag_171\n      jump\t// in\n    tag_275:\n        /* \"#utility.yul\":5642:5705   */\n      swap3\n      pop\n        /* \"#utility.yul\":5598:5715   */\n      pop\n        /* \"#utility.yul\":5754:5756   */\n      0x20\n        /* \"#utility.yul\":5780:5833   */\n      tag_276\n        /* \"#utility.yul\":5825:5832   */\n      dup6\n        /* \"#utility.yul\":5816:5822   */\n      dup3\n        /* \"#utility.yul\":5805:5814   */\n      dup7\n        /* \"#utility.yul\":5801:5823   */\n      add\n        /* \"#utility.yul\":5780:5833   */\n      tag_171\n      jump\t// in\n    tag_276:\n        /* \"#utility.yul\":5770:5833   */\n      swap2\n      pop\n        /* \"#utility.yul\":5725:5843   */\n      pop\n        /* \"#utility.yul\":5376:5850   */\n      swap3\n      pop\n      swap3\n      swap1\n      pop\n      jump\t// out\n        /* \"#utility.yul\":5856:6066   */\n    tag_50:\n        /* \"#utility.yul\":5943:5947   */\n      0x00\n        /* \"#utility.yul\":5981:5983   */\n      0x20\n        /* \"#utility.yul\":5970:5979   */\n      dup3\n        /* \"#utility.yul\":5966:5984   */\n      add\n        /* \"#utility.yul\":5958:5984   */\n      swap1\n      pop\n        /* \"#utility.yul\":5994:6059   */\n      tag_278\n        /* \"#utility.yul\":6056:6057   */\n      0x00\n        /* \"#utility.yul\":6045:6054   */\n      dup4\n        /* \"#utility.yul\":6041:6058   */\n      add\n        /* \"#utility.yul\":6032:6038   */\n      dup5\n        /* \"#utility.yul\":5994:6059   */\n      tag_173\n      jump\t// in\n    tag_278:\n        /* \"#utility.yul\":5856:6066   */\n      swap3\n      swap2\n      pop\n      pop\n      jump\t// out\n        /* \"#utility.yul\":6072:6186   */\n    tag_187:\n        /* \"#utility.yul\":6139:6145   */\n      0x00\n        /* \"#utility.yul\":6173:6178   */\n      dup2\n        /* \"#utility.yul\":6167:6179   */\n      mload\n        /* \"#utility.yul\":6157:6179   */\n      swap1\n      pop\n        /* \"#utility.yul\":6072:6186   */\n      swap2\n      swap1\n      pop\n      jump\t// out\n        /* \"#utility.yul\":6192:6376   */\n    tag_188:\n        /* \"#utility.yul\":6291:6302   */\n      0x00\n        /* \"#utility.yul\":6325:6331   */\n      dup3\n        /* \"#utility.yul\":6320:6323   */\n      dup3\n        /* \"#utility.yul\":6313:6332   */\n      mstore\n        /* \"#utility.yul\":6365:6369   */\n      0x20\n        /* \"#utility.yul\":6360:6363   */\n      dup3\n        /* \"#utility.yul\":6356:6370   */\n      add\n        /* \"#utility.yul\":6341:6370   */\n      swap1\n      pop\n        /* \"#utility.yul\":6192:6376   */\n      swap3\n      swap2\n      pop\n      pop\n      jump\t// out\n        /* \"#utility.yul\":6382:6514   */\n    tag_189:\n        /* \"#utility.yul\":6449:6453   */\n      0x00\n        /* \"#utility.yul\":6472:6475   */\n      dup2\n        /* \"#utility.yul\":6464:6475   */\n      swap1\n      pop\n        /* \"#utility.yul\":6502:6506   */\n      0x20\n        /* \"#utility.yul\":6497:6500   */\n      dup3\n        /* \"#utility.yul\":6493:6507   */\n      add\n        /* \"#utility.yul\":6485:6507   */\n      swap1\n      pop\n        /* \"#utility.yul\":6382:6514   */\n      swap2\n      swap1\n      pop\n      jump\t// out\n        /* \"#utility.yul\":6520:6628   */\n    tag_190:\n        /* \"#utility.yul\":6597:6621   */\n      tag_283\n        /* \"#utility.yul\":6615:6620   */\n      dup2\n        /* \"#utility.yul\":6597:6621   */\n      tag_169\n      jump\t// in\n    tag_283:\n        /* \"#utility.yul\":6592:6595   */\n      dup3\n        /* \"#utility.yul\":6585:6622   */\n      mstore\n        /* \"#utility.yul\":6520:6628   */\n      pop\n      pop\n      jump\t// out\n        /* \"#utility.yul\":6634:6813   */\n    tag_191:\n        /* \"#utility.yul\":6703:6713   */\n      0x00\n        /* \"#utility.yul\":6724:6770   */\n      tag_285\n        /* \"#utility.yul\":6766:6769   */\n      dup4\n        /* \"#utility.yul\":6758:6764   */\n      dup4\n        /* \"#utility.yul\":6724:6770   */\n      tag_190\n      jump\t// in\n    tag_285:\n        /* \"#utility.yul\":6802:6806   */\n      0x20\n        /* \"#utility.yul\":6797:6800   */\n      dup4\n        /* \"#utility.yul\":6793:6807   */\n      add\n        /* \"#utility.yul\":6779:6807   */\n      swap1\n      pop\n        /* \"#utility.yul\":6634:6813   */\n      swap3\n      swap2\n      pop\n      pop\n      jump\t// out\n        /* \"#utility.yul\":6819:6932   */\n    tag_192:\n        /* \"#utility.yul\":6889:6893   */\n      0x00\n        /* \"#utility.yul\":6921:6925   */\n      0x20\n        /* \"#utility.yul\":6916:6919   */\n      dup3\n        /* \"#utility.yul\":6912:6926   */\n      add\n        /* \"#utility.yul\":6904:6926   */\n      swap1\n      pop\n        /* \"#utility.yul\":6819:6932   */\n      swap2\n      swap1\n      pop\n      jump\t// out\n        /* \"#utility.yul\":6968:7700   */\n    tag_193:\n        /* \"#utility.yul\":7087:7090   */\n      0x00\n        /* \"#utility.yul\":7116:7170   */\n      tag_288\n        /* \"#utility.yul\":7164:7169   */\n      dup3\n        /* \"#utility.yul\":7116:7170   */\n      tag_187\n      jump\t// in\n    tag_288:\n        /* \"#utility.yul\":7186:7272   */\n      tag_289\n        /* \"#utility.yul\":7265:7271   */\n      dup2\n        /* \"#utility.yul\":7260:7263   */\n      dup6\n        /* \"#utility.yul\":7186:7272   */\n      tag_188\n      jump\t// in\n    tag_289:\n        /* \"#utility.yul\":7179:7272   */\n      swap4\n      pop\n        /* \"#utility.yul\":7296:7352   */\n      tag_290\n        /* \"#utility.yul\":7346:7351   */\n      dup4\n        /* \"#utility.yul\":7296:7352   */\n      tag_189\n      jump\t// in\n    tag_290:\n        /* \"#utility.yul\":7375:7382   */\n      dup1\n        /* \"#utility.yul\":7406:7407   */\n      0x00\n        /* \"#utility.yul\":7391:7675   */\n    tag_291:\n        /* \"#utility.yul\":7416:7422   */\n      dup4\n        /* \"#utility.yul\":7413:7414   */\n      dup2\n        /* \"#utility.yul\":7410:7423   */\n      lt\n        /* \"#utility.yul\":7391:7675   */\n      iszero\n      tag_293\n      jumpi\n        /* \"#utility.yul\":7492:7498   */\n      dup2\n        /* \"#utility.yul\":7486:7499   */\n      mload\n        /* \"#utility.yul\":7519:7582   */\n      tag_294\n        /* \"#utility.yul\":7578:7581   */\n      dup9\n        /* \"#utility.yul\":7563:7576   */\n      dup3\n        /* \"#utility.yul\":7519:7582   */\n      tag_191\n      jump\t// in\n    tag_294:\n        /* \"#utility.yul\":7512:7582   */\n      swap8\n      pop\n        /* \"#utility.yul\":7605:7665   */\n      tag_295\n        /* \"#utility.yul\":7658:7664   */\n      dup4\n        /* \"#utility.yul\":7605:7665   */\n      tag_192\n      jump\t// in\n    tag_295:\n        /* \"#utility.yul\":7595:7665   */\n      swap3\n      pop\n        /* \"#utility.yul\":7451:7675   */\n      pop\n        /* \"#utility.yul\":7438:7439   */\n      0x01\n        /* \"#utility.yul\":7435:7436   */\n      dup2\n        /* \"#utility.yul\":7431:7440   */\n      add\n        /* \"#utility.yul\":7426:7440   */\n      swap1\n      pop\n        /* \"#utility.yul\":7391:7675   */\n      jump(tag_291)\n    tag_293:\n        /* \"#utility.yul\":7395:7409   */\n      pop\n        /* \"#utility.yul\":7691:7694   */\n      dup6\n        /* \"#utility.yul\":7684:7694   */\n      swap4\n      pop\n        /* \"#utility.yul\":7092:7700   */\n      pop\n      pop\n      pop\n        /* \"#utility.yul\":6968:7700   */\n      swap3\n      swap2\n      pop\n      pop\n      jump\t// out\n        /* \"#utility.yul\":7706:8079   */\n    tag_59:\n        /* \"#utility.yul\":7849:7853   */\n      0x00\n        /* \"#utility.yul\":7887:7889   */\n      0x20\n        /* \"#utility.yul\":7876:7885   */\n      dup3\n        /* \"#utility.yul\":7872:7890   */\n      add\n        /* \"#utility.yul\":7864:7890   */\n      swap1\n      pop\n        /* \"#utility.yul\":7936:7945   */\n      dup2\n        /* \"#utility.yul\":7930:7934   */\n      dup2\n        /* \"#utility.yul\":7926:7946   */\n      sub\n        /* \"#utility.yul\":7922:7923   */\n      0x00\n        /* \"#utility.yul\":7911:7920   */\n      dup4\n        /* \"#utility.yul\":7907:7924   */\n      add\n        /* \"#utility.yul\":7900:7947   */\n      mstore\n        /* \"#utility.yul\":7964:8072   */\n      tag_297\n        /* \"#utility.yul\":8067:8071   */\n      dup2\n        /* \"#utility.yul\":8058:8064   */\n      dup5\n        /* \"#utility.yul\":7964:8072   */\n      tag_193\n      jump\t// in\n    tag_297:\n        /* \"#utility.yul\":7956:8072   */\n      swap1\n      pop\n        /* \"#utility.yul\":7706:8079   */\n      swap3\n      swap2\n      pop\n      pop\n      jump\t// out\n        /* \"#utility.yul\":8085:8414   */\n    tag_74:\n        /* \"#utility.yul\":8144:8150   */\n      0x00\n        /* \"#utility.yul\":8193:8195   */\n      0x20\n        /* \"#utility.yul\":8181:8190   */\n      dup3\n        /* \"#utility.yul\":8172:8179   */\n      dup5\n        /* \"#utility.yul\":8168:8191   */\n      sub\n        /* \"#utility.yul\":8164:8196   */\n      slt\n        /* \"#utility.yul\":8161:8280   */\n      iszero\n      tag_299\n      jumpi\n        /* \"#utility.yul\":8199:8278   */\n      tag_300\n      tag_167\n      jump\t// in\n    tag_300:\n        /* \"#utility.yul\":8161:8280   */\n    tag_299:\n        /* \"#utility.yul\":8319:8320   */\n      0x00\n        /* \"#utility.yul\":8344:8397   */\n      tag_301\n        /* \"#utility.yul\":8389:8396   */\n      dup5\n        /* \"#utility.yul\":8380:8386   */\n      dup3\n        /* \"#utility.yul\":8369:8378   */\n      dup6\n        /* \"#utility.yul\":8365:8387   */\n      add\n        /* \"#utility.yul\":8344:8397   */\n      tag_186\n      jump\t// in\n    tag_301:\n        /* \"#utility.yul\":8334:8397   */\n      swap2\n      pop\n        /* \"#utility.yul\":8290:8407   */\n      pop\n        /* \"#utility.yul\":8085:8414   */\n      swap3\n      swap2\n      pop\n      pop\n      jump\t// out\n        /* \"#utility.yul\":8420:8589   */\n    tag_194:\n        /* \"#utility.yul\":8504:8515   */\n      0x00\n        /* \"#utility.yul\":8538:8544   */\n      dup3\n        /* \"#utility.yul\":8533:8536   */\n      dup3\n        /* \"#utility.yul\":8526:8545   */\n      mstore\n        /* \"#utility.yul\":8578:8582   */\n      0x20\n        /* \"#utility.yul\":8573:8576   */\n      dup3\n        /* \"#utility.yul\":8569:8583   */\n      add\n        /* \"#utility.yul\":8554:8583   */\n      swap1\n      pop\n        /* \"#utility.yul\":8420:8589   */\n      swap3\n      swap2\n      pop\n      pop\n      jump\t// out\n        /* \"#utility.yul\":8595:8761   */\n    tag_195:\n        /* \"#utility.yul\":8735:8753   */\n      0x47616d6520496e697469616c697a656400000000000000000000000000000000\n        /* \"#utility.yul\":8731:8732   */\n      0x00\n        /* \"#utility.yul\":8723:8729   */\n      dup3\n        /* \"#utility.yul\":8719:8733   */\n      add\n        /* \"#utility.yul\":8712:8754   */\n      mstore\n        /* \"#utility.yul\":8595:8761   */\n      pop\n      jump\t// out\n        /* \"#utility.yul\":8767:9133   */\n    tag_196:\n        /* \"#utility.yul\":8909:8912   */\n      0x00\n        /* \"#utility.yul\":8930:8997   */\n      tag_305\n        /* \"#utility.yul\":8994:8996   */\n      0x10\n        /* \"#utility.yul\":8989:8992   */\n      dup4\n        /* \"#utility.yul\":8930:8997   */\n      tag_194\n      jump\t// in\n    tag_305:\n        /* \"#utility.yul\":8923:8997   */\n      swap2\n      pop\n        /* \"#utility.yul\":9006:9099   */\n      tag_306\n        /* \"#utility.yul\":9095:9098   */\n      dup3\n        /* \"#utility.yul\":9006:9099   */\n      tag_195\n      jump\t// in\n    tag_306:\n        /* \"#utility.yul\":9124:9126   */\n      0x20\n        /* \"#utility.yul\":9119:9122   */\n      dup3\n        /* \"#utility.yul\":9115:9127   */\n      add\n        /* \"#utility.yul\":9108:9127   */\n      swap1\n      pop\n        /* \"#utility.yul\":8767:9133   */\n      swap2\n      swap1\n      pop\n      jump\t// out\n        /* \"#utility.yul\":9139:9558   */\n    tag_83:\n        /* \"#utility.yul\":9305:9309   */\n      0x00\n        /* \"#utility.yul\":9343:9345   */\n      0x20\n        /* \"#utility.yul\":9332:9341   */\n      dup3\n        /* \"#utility.yul\":9328:9346   */\n      add\n        /* \"#utility.yul\":9320:9346   */\n      swap1\n      pop\n        /* \"#utility.yul\":9392:9401   */\n      dup2\n        /* \"#utility.yul\":9386:9390   */\n      dup2\n        /* \"#utility.yul\":9382:9402   */\n      sub\n        /* \"#utility.yul\":9378:9379   */\n      0x00\n        /* \"#utility.yul\":9367:9376   */\n      dup4\n        /* \"#utility.yul\":9363:9380   */\n      add\n        /* \"#utility.yul\":9356:9403   */\n      mstore\n        /* \"#utility.yul\":9420:9551   */\n      tag_308\n        /* \"#utility.yul\":9546:9550   */\n      dup2\n        /* \"#utility.yul\":9420:9551   */\n      tag_196\n      jump\t// in\n    tag_308:\n        /* \"#utility.yul\":9412:9551   */\n      swap1\n      pop\n        /* \"#utility.yul\":9139:9558   */\n      swap2\n      swap1\n      pop\n      jump\t// out\n        /* \"#utility.yul\":9564:9722   */\n    tag_197:\n        /* \"#utility.yul\":9704:9714   */\n      0x46696e6973686564000000000000000000000000000000000000000000000000\n        /* \"#utility.yul\":9700:9701   */\n      0x00\n        /* \"#utility.yul\":9692:9698   */\n      dup3\n        /* \"#utility.yul\":9688:9702   */\n      add\n        /* \"#utility.yul\":9681:9715   */\n      mstore\n        /* \"#utility.yul\":9564:9722   */\n      pop\n      jump\t// out\n        /* \"#utility.yul\":9728:10093   */\n    tag_198:\n        /* \"#utility.yul\":9870:9873   */\n      0x00\n        /* \"#utility.yul\":9891:9957   */\n      tag_311\n        /* \"#utility.yul\":9955:9956   */\n      0x08\n        /* \"#utility.yul\":9950:9953   */\n      dup4\n        /* \"#utility.yul\":9891:9957   */\n      tag_194\n      jump\t// in\n    tag_311:\n        /* \"#utility.yul\":9884:9957   */\n      swap2\n      pop\n        /* \"#utility.yul\":9966:10059   */\n      tag_312\n        /* \"#utility.yul\":10055:10058   */\n      dup3\n        /* \"#utility.yul\":9966:10059   */\n      tag_197\n      jump\t// in\n    tag_312:\n        /* \"#utility.yul\":10084:10086   */\n      0x20\n        /* \"#utility.yul\":10079:10082   */\n      dup3\n        /* \"#utility.yul\":10075:10087   */\n      add\n        /* \"#utility.yul\":10068:10087   */\n      swap1\n      pop\n        /* \"#utility.yul\":9728:10093   */\n      swap2\n      swap1\n      pop\n      jump\t// out\n        /* \"#utility.yul\":10099:10518   */\n    tag_91:\n        /* \"#utility.yul\":10265:10269   */\n      0x00\n        /* \"#utility.yul\":10303:10305   */\n      0x20\n        /* \"#utility.yul\":10292:10301   */\n      dup3\n        /* \"#utility.yul\":10288:10306   */\n      add\n        /* \"#utility.yul\":10280:10306   */\n      swap1\n      pop\n        /* \"#utility.yul\":10352:10361   */\n      dup2\n        /* \"#utility.yul\":10346:10350   */\n      dup2\n        /* \"#utility.yul\":10342:10362   */\n      sub\n        /* \"#utility.yul\":10338:10339   */\n      0x00\n        /* \"#utility.yul\":10327:10336   */\n      dup4\n        /* \"#utility.yul\":10323:10340   */\n      add\n        /* \"#utility.yul\":10316:10363   */\n      mstore\n        /* \"#utility.yul\":10380:10511   */\n      tag_314\n        /* \"#utility.yul\":10506:10510   */\n      dup2\n        /* \"#utility.yul\":10380:10511   */\n      tag_198\n      jump\t// in\n    tag_314:\n        /* \"#utility.yul\":10372:10511   */\n      swap1\n      pop\n        /* \"#utility.yul\":10099:10518   */\n      swap2\n      swap1\n      pop\n      jump\t// out\n        /* \"#utility.yul\":10524:10856   */\n    tag_93:\n        /* \"#utility.yul\":10645:10649   */\n      0x00\n        /* \"#utility.yul\":10683:10685   */\n      0x40\n        /* \"#utility.yul\":10672:10681   */\n      dup3\n        /* \"#utility.yul\":10668:10686   */\n      add\n        /* \"#utility.yul\":10660:10686   */\n      swap1\n      pop\n        /* \"#utility.yul\":10696:10767   */\n      tag_316\n        /* \"#utility.yul\":10764:10765   */\n      0x00\n        /* \"#utility.yul\":10753:10762   */\n      dup4\n        /* \"#utility.yul\":10749:10766   */\n      add\n        /* \"#utility.yul\":10740:10746   */\n      dup6\n        /* \"#utility.yul\":10696:10767   */\n      tag_177\n      jump\t// in\n    tag_316:\n        /* \"#utility.yul\":10777:10849   */\n      tag_317\n        /* \"#utility.yul\":10845:10847   */\n      0x20\n        /* \"#utility.yul\":10834:10843   */\n      dup4\n        /* \"#utility.yul\":10830:10848   */\n      add\n        /* \"#utility.yul\":10821:10827   */\n      dup5\n        /* \"#utility.yul\":10777:10849   */\n      tag_174\n      jump\t// in\n    tag_317:\n        /* \"#utility.yul\":10524:10856   */\n      swap4\n      swap3\n      pop\n      pop\n      pop\n      jump\t// out\n        /* \"#utility.yul\":10862:10978   */\n    tag_199:\n        /* \"#utility.yul\":10932:10953   */\n      tag_319\n        /* \"#utility.yul\":10947:10952   */\n      dup2\n        /* \"#utility.yul\":10932:10953   */\n      tag_172\n      jump\t// in\n    tag_319:\n        /* \"#utility.yul\":10925:10930   */\n      dup2\n        /* \"#utility.yul\":10922:10954   */\n      eq\n        /* \"#utility.yul\":10912:10972   */\n      tag_320\n      jumpi\n        /* \"#utility.yul\":10968:10969   */\n      0x00\n        /* \"#utility.yul\":10965:10966   */\n      dup1\n        /* \"#utility.yul\":10958:10970   */\n      revert\n        /* \"#utility.yul\":10912:10972   */\n    tag_320:\n        /* \"#utility.yul\":10862:10978   */\n      pop\n      jump\t// out\n        /* \"#utility.yul\":10984:11121   */\n    tag_200:\n        /* \"#utility.yul\":11038:11043   */\n      0x00\n        /* \"#utility.yul\":11069:11075   */\n      dup2\n        /* \"#utility.yul\":11063:11076   */\n      mload\n        /* \"#utility.yul\":11054:11076   */\n      swap1\n      pop\n        /* \"#utility.yul\":11085:11115   */\n      tag_322\n        /* \"#utility.yul\":11109:11114   */\n      dup2\n        /* \"#utility.yul\":11085:11115   */\n      tag_199\n      jump\t// in\n    tag_322:\n        /* \"#utility.yul\":10984:11121   */\n      swap3\n      swap2\n      pop\n      pop\n      jump\t// out\n        /* \"#utility.yul\":11127:11472   */\n    tag_97:\n        /* \"#utility.yul\":11194:11200   */\n      0x00\n        /* \"#utility.yul\":11243:11245   */\n      0x20\n        /* \"#utility.yul\":11231:11240   */\n      dup3\n        /* \"#utility.yul\":11222:11229   */\n      dup5\n        /* \"#utility.yul\":11218:11241   */\n      sub\n        /* \"#utility.yul\":11214:11246   */\n      slt\n        /* \"#utility.yul\":11211:11330   */\n      iszero\n      tag_324\n      jumpi\n        /* \"#utility.yul\":11249:11328   */\n      tag_325\n      tag_167\n      jump\t// in\n    tag_325:\n        /* \"#utility.yul\":11211:11330   */\n    tag_324:\n        /* \"#utility.yul\":11369:11370   */\n      0x00\n        /* \"#utility.yul\":11394:11455   */\n      tag_326\n        /* \"#utility.yul\":11447:11454   */\n      dup5\n        /* \"#utility.yul\":11438:11444   */\n      dup3\n        /* \"#utility.yul\":11427:11436   */\n      dup6\n        /* \"#utility.yul\":11423:11445   */\n      add\n        /* \"#utility.yul\":11394:11455   */\n      tag_200\n      jump\t// in\n    tag_326:\n        /* \"#utility.yul\":11384:11455   */\n      swap2\n      pop\n        /* \"#utility.yul\":11340:11465   */\n      pop\n        /* \"#utility.yul\":11127:11472   */\n      swap3\n      swap2\n      pop\n      pop\n      jump\t// out\n        /* \"#utility.yul\":11478:11649   */\n    tag_201:\n        /* \"#utility.yul\":11618:11641   */\n      0x5265776172642073686f756c6420737563636573730000000000000000000000\n        /* \"#utility.yul\":11614:11615   */\n      0x00\n        /* \"#utility.yul\":11606:11612   */\n      dup3\n        /* \"#utility.yul\":11602:11616   */\n      add\n        /* \"#utility.yul\":11595:11642   */\n      mstore\n        /* \"#utility.yul\":11478:11649   */\n      pop\n      jump\t// out\n        /* \"#utility.yul\":11655:12021   */\n    tag_202:\n        /* \"#utility.yul\":11797:11800   */\n      0x00\n        /* \"#utility.yul\":11818:11885   */\n      tag_329\n        /* \"#utility.yul\":11882:11884   */\n      0x15\n        /* \"#utility.yul\":11877:11880   */\n      dup4\n        /* \"#utility.yul\":11818:11885   */\n      tag_194\n      jump\t// in\n    tag_329:\n        /* \"#utility.yul\":11811:11885   */\n      swap2\n      pop\n        /* \"#utility.yul\":11894:11987   */\n      tag_330\n        /* \"#utility.yul\":11983:11986   */\n      dup3\n        /* \"#utility.yul\":11894:11987   */\n      tag_201\n      jump\t// in\n    tag_330:\n        /* \"#utility.yul\":12012:12014   */\n      0x20\n        /* \"#utility.yul\":12007:12010   */\n      dup3\n        /* \"#utility.yul\":12003:12015   */\n      add\n        /* \"#utility.yul\":11996:12015   */\n      swap1\n      pop\n        /* \"#utility.yul\":11655:12021   */\n      swap2\n      swap1\n      pop\n      jump\t// out\n        /* \"#utility.yul\":12027:12446   */\n    tag_100:\n        /* \"#utility.yul\":12193:12197   */\n      0x00\n        /* \"#utility.yul\":12231:12233   */\n      0x20\n        /* \"#utility.yul\":12220:12229   */\n      dup3\n        /* \"#utility.yul\":12216:12234   */\n      add\n        /* \"#utility.yul\":12208:12234   */\n      swap1\n      pop\n        /* \"#utility.yul\":12280:12289   */\n      dup2\n        /* \"#utility.yul\":12274:12278   */\n      dup2\n        /* \"#utility.yul\":12270:12290   */\n      sub\n        /* \"#utility.yul\":12266:12267   */\n      0x00\n        /* \"#utility.yul\":12255:12264   */\n      dup4\n        /* \"#utility.yul\":12251:12268   */\n      add\n        /* \"#utility.yul\":12244:12291   */\n      mstore\n        /* \"#utility.yul\":12308:12439   */\n      tag_332\n        /* \"#utility.yul\":12434:12438   */\n      dup2\n        /* \"#utility.yul\":12308:12439   */\n      tag_202\n      jump\t// in\n    tag_332:\n        /* \"#utility.yul\":12300:12439   */\n      swap1\n      pop\n        /* \"#utility.yul\":12027:12446   */\n      swap2\n      swap1\n      pop\n      jump\t// out\n        /* \"#utility.yul\":12452:12595   */\n    tag_203:\n        /* \"#utility.yul\":12509:12514   */\n      0x00\n        /* \"#utility.yul\":12540:12546   */\n      dup2\n        /* \"#utility.yul\":12534:12547   */\n      mload\n        /* \"#utility.yul\":12525:12547   */\n      swap1\n      pop\n        /* \"#utility.yul\":12556:12589   */\n      tag_334\n        /* \"#utility.yul\":12583:12588   */\n      dup2\n        /* \"#utility.yul\":12556:12589   */\n      tag_170\n      jump\t// in\n    tag_334:\n        /* \"#utility.yul\":12452:12595   */\n      swap3\n      swap2\n      pop\n      pop\n      jump\t// out\n        /* \"#utility.yul\":12601:12952   */\n    tag_113:\n        /* \"#utility.yul\":12671:12677   */\n      0x00\n        /* \"#utility.yul\":12720:12722   */\n      0x20\n        /* \"#utility.yul\":12708:12717   */\n      dup3\n        /* \"#utility.yul\":12699:12706   */\n      dup5\n        /* \"#utility.yul\":12695:12718   */\n      sub\n        /* \"#utility.yul\":12691:12723   */\n      slt\n        /* \"#utility.yul\":12688:12807   */\n      iszero\n      tag_336\n      jumpi\n        /* \"#utility.yul\":12726:12805   */\n      tag_337\n      tag_167\n      jump\t// in\n    tag_337:\n        /* \"#utility.yul\":12688:12807   */\n    tag_336:\n        /* \"#utility.yul\":12846:12847   */\n      0x00\n        /* \"#utility.yul\":12871:12935   */\n      tag_338\n        /* \"#utility.yul\":12927:12934   */\n      dup5\n        /* \"#utility.yul\":12918:12924   */\n      dup3\n        /* \"#utility.yul\":12907:12916   */\n      dup6\n        /* \"#utility.yul\":12903:12925   */\n      add\n        /* \"#utility.yul\":12871:12935   */\n      tag_203\n      jump\t// in\n    tag_338:\n        /* \"#utility.yul\":12861:12935   */\n      swap2\n      pop\n        /* \"#utility.yul\":12817:12945   */\n      pop\n        /* \"#utility.yul\":12601:12952   */\n      swap3\n      swap2\n      pop\n      pop\n      jump\t// out\n        /* \"#utility.yul\":12958:13122   */\n    tag_204:\n        /* \"#utility.yul\":13098:13114   */\n      0x456e6f7567682062616c616e6365000000000000000000000000000000000000\n        /* \"#utility.yul\":13094:13095   */\n      0x00\n        /* \"#utility.yul\":13086:13092   */\n      dup3\n        /* \"#utility.yul\":13082:13096   */\n      add\n        /* \"#utility.yul\":13075:13115   */\n      mstore\n        /* \"#utility.yul\":12958:13122   */\n      pop\n      jump\t// out\n        /* \"#utility.yul\":13128:13494   */\n    tag_205:\n        /* \"#utility.yul\":13270:13273   */\n      0x00\n        /* \"#utility.yul\":13291:13358   */\n      tag_341\n        /* \"#utility.yul\":13355:13357   */\n      0x0e\n        /* \"#utility.yul\":13350:13353   */\n      dup4\n        /* \"#utility.yul\":13291:13358   */\n      tag_194\n      jump\t// in\n    tag_341:\n        /* \"#utility.yul\":13284:13358   */\n      swap2\n      pop\n        /* \"#utility.yul\":13367:13460   */\n      tag_342\n        /* \"#utility.yul\":13456:13459   */\n      dup3\n        /* \"#utility.yul\":13367:13460   */\n      tag_204\n      jump\t// in\n    tag_342:\n        /* \"#utility.yul\":13485:13487   */\n      0x20\n        /* \"#utility.yul\":13480:13483   */\n      dup3\n        /* \"#utility.yul\":13476:13488   */\n      add\n        /* \"#utility.yul\":13469:13488   */\n      swap1\n      pop\n        /* \"#utility.yul\":13128:13494   */\n      swap2\n      swap1\n      pop\n      jump\t// out\n        /* \"#utility.yul\":13500:13919   */\n    tag_116:\n        /* \"#utility.yul\":13666:13670   */\n      0x00\n        /* \"#utility.yul\":13704:13706   */\n      0x20\n        /* \"#utility.yul\":13693:13702   */\n      dup3\n        /* \"#utility.yul\":13689:13707   */\n      add\n        /* \"#utility.yul\":13681:13707   */\n      swap1\n      pop\n        /* \"#utility.yul\":13753:13762   */\n      dup2\n        /* \"#utility.yul\":13747:13751   */\n      dup2\n        /* \"#utility.yul\":13743:13763   */\n      sub\n        /* \"#utility.yul\":13739:13740   */\n      0x00\n        /* \"#utility.yul\":13728:13737   */\n      dup4\n        /* \"#utility.yul\":13724:13741   */\n      add\n        /* \"#utility.yul\":13717:13764   */\n      mstore\n        /* \"#utility.yul\":13781:13912   */\n      tag_344\n        /* \"#utility.yul\":13907:13911   */\n      dup2\n        /* \"#utility.yul\":13781:13912   */\n      tag_205\n      jump\t// in\n    tag_344:\n        /* \"#utility.yul\":13773:13912   */\n      swap1\n      pop\n        /* \"#utility.yul\":13500:13919   */\n      swap2\n      swap1\n      pop\n      jump\t// out\n        /* \"#utility.yul\":13925:14367   */\n    tag_118:\n        /* \"#utility.yul\":14074:14078   */\n      0x00\n        /* \"#utility.yul\":14112:14114   */\n      0x60\n        /* \"#utility.yul\":14101:14110   */\n      dup3\n        /* \"#utility.yul\":14097:14115   */\n      add\n        /* \"#utility.yul\":14089:14115   */\n      swap1\n      pop\n        /* \"#utility.yul\":14125:14196   */\n      tag_346\n        /* \"#utility.yul\":14193:14194   */\n      0x00\n        /* \"#utility.yul\":14182:14191   */\n      dup4\n        /* \"#utility.yul\":14178:14195   */\n      add\n        /* \"#utility.yul\":14169:14175   */\n      dup7\n        /* \"#utility.yul\":14125:14196   */\n      tag_177\n      jump\t// in\n    tag_346:\n        /* \"#utility.yul\":14206:14278   */\n      tag_347\n        /* \"#utility.yul\":14274:14276   */\n      0x20\n        /* \"#utility.yul\":14263:14272   */\n      dup4\n        /* \"#utility.yul\":14259:14277   */\n      add\n        /* \"#utility.yul\":14250:14256   */\n      dup6\n        /* \"#utility.yul\":14206:14278   */\n      tag_177\n      jump\t// in\n    tag_347:\n        /* \"#utility.yul\":14288:14360   */\n      tag_348\n        /* \"#utility.yul\":14356:14358   */\n      0x40\n        /* \"#utility.yul\":14345:14354   */\n      dup4\n        /* \"#utility.yul\":14341:14359   */\n      add\n        /* \"#utility.yul\":14332:14338   */\n      dup5\n        /* \"#utility.yul\":14288:14360   */\n      tag_174\n      jump\t// in\n    tag_348:\n        /* \"#utility.yul\":13925:14367   */\n      swap5\n      swap4\n      pop\n      pop\n      pop\n      pop\n      jump\t// out\n        /* \"#utility.yul\":14373:14546   */\n    tag_206:\n        /* \"#utility.yul\":14513:14538   */\n      0x5472616e736665722073686f756c642073756363657373000000000000000000\n        /* \"#utility.yul\":14509:14510   */\n      0x00\n        /* \"#utility.yul\":14501:14507   */\n      dup3\n        /* \"#utility.yul\":14497:14511   */\n      add\n        /* \"#utility.yul\":14490:14539   */\n      mstore\n        /* \"#utility.yul\":14373:14546   */\n      pop\n      jump\t// out\n        /* \"#utility.yul\":14552:14918   */\n    tag_207:\n        /* \"#utility.yul\":14694:14697   */\n      0x00\n        /* \"#utility.yul\":14715:14782   */\n      tag_351\n        /* \"#utility.yul\":14779:14781   */\n      0x17\n        /* \"#utility.yul\":14774:14777   */\n      dup4\n        /* \"#utility.yul\":14715:14782   */\n      tag_194\n      jump\t// in\n    tag_351:\n        /* \"#utility.yul\":14708:14782   */\n      swap2\n      pop\n        /* \"#utility.yul\":14791:14884   */\n      tag_352\n        /* \"#utility.yul\":14880:14883   */\n      dup3\n        /* \"#utility.yul\":14791:14884   */\n      tag_206\n      jump\t// in\n    tag_352:\n        /* \"#utility.yul\":14909:14911   */\n      0x20\n        /* \"#utility.yul\":14904:14907   */\n      dup3\n        /* \"#utility.yul\":14900:14912   */\n      add\n        /* \"#utility.yul\":14893:14912   */\n      swap1\n      pop\n        /* \"#utility.yul\":14552:14918   */\n      swap2\n      swap1\n      pop\n      jump\t// out\n        /* \"#utility.yul\":14924:15343   */\n    tag_124:\n        /* \"#utility.yul\":15090:15094   */\n      0x00\n        /* \"#utility.yul\":15128:15130   */\n      0x20\n        /* \"#utility.yul\":15117:15126   */\n      dup3\n        /* \"#utility.yul\":15113:15131   */\n      add\n        /* \"#utility.yul\":15105:15131   */\n      swap1\n      pop\n        /* \"#utility.yul\":15177:15186   */\n      dup2\n        /* \"#utility.yul\":15171:15175   */\n      dup2\n        /* \"#utility.yul\":15167:15187   */\n      sub\n        /* \"#utility.yul\":15163:15164   */\n      0x00\n        /* \"#utility.yul\":15152:15161   */\n      dup4\n        /* \"#utility.yul\":15148:15165   */\n      add\n        /* \"#utility.yul\":15141:15188   */\n      mstore\n        /* \"#utility.yul\":15205:15336   */\n      tag_354\n        /* \"#utility.yul\":15331:15335   */\n      dup2\n        /* \"#utility.yul\":15205:15336   */\n      tag_207\n      jump\t// in\n    tag_354:\n        /* \"#utility.yul\":15197:15336   */\n      swap1\n      pop\n        /* \"#utility.yul\":14924:15343   */\n      swap2\n      swap1\n      pop\n      jump\t// out\n        /* \"#utility.yul\":15349:15529   */\n    tag_208:\n        /* \"#utility.yul\":15397:15474   */\n      0x4e487b7100000000000000000000000000000000000000000000000000000000\n        /* \"#utility.yul\":15394:15395   */\n      0x00\n        /* \"#utility.yul\":15387:15475   */\n      mstore\n        /* \"#utility.yul\":15494:15498   */\n      0x11\n        /* \"#utility.yul\":15491:15492   */\n      0x04\n        /* \"#utility.yul\":15484:15499   */\n      mstore\n        /* \"#utility.yul\":15518:15522   */\n      0x24\n        /* \"#utility.yul\":15515:15516   */\n      0x00\n        /* \"#utility.yul\":15508:15523   */\n      revert\n        /* \"#utility.yul\":15535:15726   */\n    tag_128:\n        /* \"#utility.yul\":15575:15578   */\n      0x00\n        /* \"#utility.yul\":15594:15614   */\n      tag_357\n        /* \"#utility.yul\":15612:15613   */\n      dup3\n        /* \"#utility.yul\":15594:15614   */\n      tag_169\n      jump\t// in\n    tag_357:\n        /* \"#utility.yul\":15589:15614   */\n      swap2\n      pop\n        /* \"#utility.yul\":15628:15648   */\n      tag_358\n        /* \"#utility.yul\":15646:15647   */\n      dup4\n        /* \"#utility.yul\":15628:15648   */\n      tag_169\n      jump\t// in\n    tag_358:\n        /* \"#utility.yul\":15623:15648   */\n      swap3\n      pop\n        /* \"#utility.yul\":15671:15672   */\n      dup3\n        /* \"#utility.yul\":15668:15669   */\n      dup3\n        /* \"#utility.yul\":15664:15673   */\n      add\n        /* \"#utility.yul\":15657:15673   */\n      swap1\n      pop\n        /* \"#utility.yul\":15692:15695   */\n      dup1\n        /* \"#utility.yul\":15689:15690   */\n      dup3\n        /* \"#utility.yul\":15686:15696   */\n      gt\n        /* \"#utility.yul\":15683:15719   */\n      iszero\n      tag_359\n      jumpi\n        /* \"#utility.yul\":15699:15717   */\n      tag_360\n      tag_208\n      jump\t// in\n    tag_360:\n        /* \"#utility.yul\":15683:15719   */\n    tag_359:\n        /* \"#utility.yul\":15535:15726   */\n      swap3\n      swap2\n      pop\n      pop\n      jump\t// out\n        /* \"#utility.yul\":15732:15893   */\n    tag_209:\n        /* \"#utility.yul\":15872:15885   */\n      0x47616d6520657869737473000000000000000000000000000000000000000000\n        /* \"#utility.yul\":15868:15869   */\n      0x00\n        /* \"#utility.yul\":15860:15866   */\n      dup3\n        /* \"#utility.yul\":15856:15870   */\n      add\n        /* \"#utility.yul\":15849:15886   */\n      mstore\n        /* \"#utility.yul\":15732:15893   */\n      pop\n      jump\t// out\n        /* \"#utility.yul\":15899:16265   */\n    tag_210:\n        /* \"#utility.yul\":16041:16044   */\n      0x00\n        /* \"#utility.yul\":16062:16129   */\n      tag_363\n        /* \"#utility.yul\":16126:16128   */\n      0x0b\n        /* \"#utility.yul\":16121:16124   */\n      dup4\n        /* \"#utility.yul\":16062:16129   */\n      tag_194\n      jump\t// in\n    tag_363:\n        /* \"#utility.yul\":16055:16129   */\n      swap2\n      pop\n        /* \"#utility.yul\":16138:16231   */\n      tag_364\n        /* \"#utility.yul\":16227:16230   */\n      dup3\n        /* \"#utility.yul\":16138:16231   */\n      tag_209\n      jump\t// in\n    tag_364:\n        /* \"#utility.yul\":16256:16258   */\n      0x20\n        /* \"#utility.yul\":16251:16254   */\n      dup3\n        /* \"#utility.yul\":16247:16259   */\n      add\n        /* \"#utility.yul\":16240:16259   */\n      swap1\n      pop\n        /* \"#utility.yul\":15899:16265   */\n      swap2\n      swap1\n      pop\n      jump\t// out\n        /* \"#utility.yul\":16271:16690   */\n    tag_148:\n        /* \"#utility.yul\":16437:16441   */\n      0x00\n        /* \"#utility.yul\":16475:16477   */\n      0x20\n        /* \"#utility.yul\":16464:16473   */\n      dup3\n        /* \"#utility.yul\":16460:16478   */\n      add\n        /* \"#utility.yul\":16452:16478   */\n      swap1\n      pop\n        /* \"#utility.yul\":16524:16533   */\n      dup2\n        /* \"#utility.yul\":16518:16522   */\n      dup2\n        /* \"#utility.yul\":16514:16534   */\n      sub\n        /* \"#utility.yul\":16510:16511   */\n      0x00\n        /* \"#utility.yul\":16499:16508   */\n      dup4\n        /* \"#utility.yul\":16495:16512   */\n      add\n        /* \"#utility.yul\":16488:16535   */\n      mstore\n        /* \"#utility.yul\":16552:16683   */\n      tag_366\n        /* \"#utility.yul\":16678:16682   */\n      dup2\n        /* \"#utility.yul\":16552:16683   */\n      tag_210\n      jump\t// in\n    tag_366:\n        /* \"#utility.yul\":16544:16683   */\n      swap1\n      pop\n        /* \"#utility.yul\":16271:16690   */\n      swap2\n      swap1\n      pop\n      jump\t// out\n\n    auxdata: 0xa26469706673582212204abdc43ccee97db69ad86406bfc1b12493ba2fa6ea46e70a8640fb9cc4fc034064736f6c63430008120033\n}\n",
				"bytecode": {
					"linkReferences": {},
					"object": "60806040523480156200001157600080fd5b5060405162001b0438038062001b048339818101604052810190620000379190620001f4565b80600073ffffffffffffffffffffffffffffffffffffffff168173ffffffffffffffffffffffffffffffffffffffff1603620000ad5760006040517f1e4fbdf7000000000000000000000000000000000000000000000000000000008152600401620000a4919062000237565b60405180910390fd5b620000be81620000c660201b60201c565b505062000254565b60008060009054906101000a900473ffffffffffffffffffffffffffffffffffffffff169050816000806101000a81548173ffffffffffffffffffffffffffffffffffffffff021916908373ffffffffffffffffffffffffffffffffffffffff1602179055508173ffffffffffffffffffffffffffffffffffffffff168173ffffffffffffffffffffffffffffffffffffffff167f8be0079c531659141344cd1fd0a4f28419497f9722a3daafe3b4186f6b6457e060405160405180910390a35050565b600080fd5b600073ffffffffffffffffffffffffffffffffffffffff82169050919050565b6000620001bc826200018f565b9050919050565b620001ce81620001af565b8114620001da57600080fd5b50565b600081519050620001ee81620001c3565b92915050565b6000602082840312156200020d576200020c6200018a565b5b60006200021d84828501620001dd565b91505092915050565b6200023181620001af565b82525050565b60006020820190506200024e600083018462000226565b92915050565b6118a080620002646000396000f3fe608060405234801561001057600080fd5b50600436106100ea5760003560e01c80638da5cb5b1161008c578063d82c13f011610066578063d82c13f014610275578063e5ed1d59146102a5578063ee9b80a4146102d5578063f2fde38b14610305576100ea565b80638da5cb5b146102095780639bc01b3614610227578063ce33bd7414610245576100ea565b806334fcc3e7116100c857806334fcc3e71461018157806355a373d6146101b15780636ffcc719146101cf578063715018a6146101ff576100ea565b8063117a5b90146100ef57806316b169c4146101215780632c32b18714610151575b600080fd5b610109600480360381019061010491906110ba565b610321565b60405161011893929190611152565b60405180910390f35b61013b600480360381019061013691906110ba565b610378565b6040516101489190611247565b60405180910390f35b61016b60048036038101906101669190611295565b61047f565b60405161017891906112d5565b60405180910390f35b61019b60048036038101906101969190611295565b6106f2565b6040516101a891906112d5565b60405180910390f35b6101b96107b3565b6040516101c691906112f0565b60405180910390f35b6101e960048036038101906101e4919061130b565b6107d9565b6040516101f6919061134b565b60405180910390f35b610207610c16565b005b610211610c2a565b60405161021e91906112f0565b60405180910390f35b61022f610c53565b60405161023c9190611424565b60405180910390f35b61025f600480360381019061025a91906110ba565b610cab565b60405161026c91906112d5565b60405180910390f35b61028f600480360381019061028a91906110ba565b610d6b565b60405161029c91906112d5565b60405180910390f35b6102bf60048036038101906102ba91906110ba565b610d8f565b6040516102cc919061134b565b60405180910390f35b6102ef60048036038101906102ea9190611446565b610e5a565b6040516102fc919061134b565b60405180910390f35b61031f600480360381019061031a9190611446565b610ea6565b005b60016020528060005260406000206000915090508060000160009054906101000a900460ff16908060020154908060040160009054906101000a900473ffffffffffffffffffffffffffffffffffffffff16905083565b60606001600083815260200190815260200160002060000160009054906101000a900460ff166103dd576040517f08c379a00000000000000000000000000000000000000000000000000000000081526004016103d4906114d0565b60405180910390fd5b6001600083815260200190815260200160002060030180548060200260200160405190810160405280929190818152602001828054801561047357602002820191906000526020600020905b8160009054906101000a900473ffffffffffffffffffffffffffffffffffffffff1673ffffffffffffffffffffffffffffffffffffffff1681526020019060010190808311610429575b50505050509050919050565b60006001600084815260200190815260200160002060000160009054906101000a900460ff166104e4576040517f08c379a00000000000000000000000000000000000000000000000000000000081526004016104db906114d0565b60405180910390fd5b600073ffffffffffffffffffffffffffffffffffffffff166001600085815260200190815260200160002060040160009054906101000a900473ffffffffffffffffffffffffffffffffffffffff1673ffffffffffffffffffffffffffffffffffffffff1614610589576040517f08c379a00000000000000000000000000000000000000000000000000000000081526004016105809061153c565b60405180910390fd5b816001600085815260200190815260200160002060040160006101000a81548173ffffffffffffffffffffffffffffffffffffffff021916908373ffffffffffffffffffffffffffffffffffffffff160217905550600360009054906101000a900473ffffffffffffffffffffffffffffffffffffffff1673ffffffffffffffffffffffffffffffffffffffff1663a9059cbb8360016000878152602001908152602001600020600201546040518363ffffffff1660e01b815260040161065192919061155c565b6020604051808303816000875af1158015610670573d6000803e3d6000fd5b505050506040513d601f19601f8201168201806040525081019061069491906115b1565b6106d3576040517f08c379a00000000000000000000000000000000000000000000000000000000081526004016106ca9061162a565b60405180910390fd5b6001600084815260200190815260200160002060020154905092915050565b60006001600084815260200190815260200160002060000160009054906101000a900460ff16610757576040517f08c379a000000000000000000000000000000000000000000000000000000000815260040161074e906114d0565b60405180910390fd5b6001600084815260200190815260200160002060010160008373ffffffffffffffffffffffffffffffffffffffff1673ffffffffffffffffffffffffffffffffffffffff16815260200190815260200160002054905092915050565b600360009054906101000a900473ffffffffffffffffffffffffffffffffffffffff1681565b60006001600084815260200190815260200160002060000160009054906101000a900460ff1661083e576040517f08c379a0000000000000000000000000000000000000000000000000000000008152600401610835906114d0565b60405180910390fd5b600073ffffffffffffffffffffffffffffffffffffffff166001600085815260200190815260200160002060040160009054906101000a900473ffffffffffffffffffffffffffffffffffffffff1673ffffffffffffffffffffffffffffffffffffffff16146108e3576040517f08c379a00000000000000000000000000000000000000000000000000000000081526004016108da9061153c565b60405180910390fd5b81600360009054906101000a900473ffffffffffffffffffffffffffffffffffffffff1673ffffffffffffffffffffffffffffffffffffffff166370a08231336040518263ffffffff1660e01b815260040161093f91906112f0565b602060405180830381865afa15801561095c573d6000803e3d6000fd5b505050506040513d601f19601f82011682018060405250810190610980919061165f565b10156109c1576040517f08c379a00000000000000000000000000000000000000000000000000000000081526004016109b8906116d8565b60405180910390fd5b600360009054906101000a900473ffffffffffffffffffffffffffffffffffffffff1673ffffffffffffffffffffffffffffffffffffffff166323b872dd3330856040518463ffffffff1660e01b8152600401610a20939291906116f8565b6020604051808303816000875af1158015610a3f573d6000803e3d6000fd5b505050506040513d601f19601f82011682018060405250810190610a6391906115b1565b610aa2576040517f08c379a0000000000000000000000000000000000000000000000000000000008152600401610a999061177b565b60405180910390fd5b60006001600085815260200190815260200160002060010160003373ffffffffffffffffffffffffffffffffffffffff1673ffffffffffffffffffffffffffffffffffffffff1681526020019081526020016000205403610b755760016000848152602001908152602001600020600301339080600181540180825580915050600190039060005260206000200160009091909190916101000a81548173ffffffffffffffffffffffffffffffffffffffff021916908373ffffffffffffffffffffffffffffffffffffffff1602179055505b816001600085815260200190815260200160002060010160003373ffffffffffffffffffffffffffffffffffffffff1673ffffffffffffffffffffffffffffffffffffffff1681526020019081526020016000206000828254610bd891906117ca565b9250508190555081600160008581526020019081526020016000206002016000828254610c0591906117ca565b925050819055506001905092915050565b610c1e610f2c565b610c286000610fb3565b565b60008060009054906101000a900473ffffffffffffffffffffffffffffffffffffffff16905090565b60606002805480602002602001604051908101604052809291908181526020018280548015610ca157602002820191906000526020600020905b815481526020019060010190808311610c8d575b5050505050905090565b60006001600083815260200190815260200160002060000160009054906101000a900460ff16610d10576040517f08c379a0000000000000000000000000000000000000000000000000000000008152600401610d07906114d0565b60405180910390fd5b6001600083815260200190815260200160002060010160003373ffffffffffffffffffffffffffffffffffffffff1673ffffffffffffffffffffffffffffffffffffffff168152602001908152602001600020549050919050565b60028181548110610d7b57600080fd5b906000526020600020016000915090505481565b60008015156001600084815260200190815260200160002060000160009054906101000a900460ff16151514610dfa576040517f08c379a0000000000000000000000000000000000000000000000000000000008152600401610df19061184a565b60405180910390fd5b600180600084815260200190815260200160002060000160006101000a81548160ff021916908315150217905550600282908060018154018082558091505060019003906000526020600020016000909190919091505560019050919050565b600081600360006101000a81548173ffffffffffffffffffffffffffffffffffffffff021916908373ffffffffffffffffffffffffffffffffffffffff16021790555060019050919050565b610eae610f2c565b600073ffffffffffffffffffffffffffffffffffffffff168173ffffffffffffffffffffffffffffffffffffffff1603610f205760006040517f1e4fbdf7000000000000000000000000000000000000000000000000000000008152600401610f1791906112f0565b60405180910390fd5b610f2981610fb3565b50565b610f34611077565b73ffffffffffffffffffffffffffffffffffffffff16610f52610c2a565b73ffffffffffffffffffffffffffffffffffffffff1614610fb157610f75611077565b6040517f118cdaa7000000000000000000000000000000000000000000000000000000008152600401610fa891906112f0565b60405180910390fd5b565b60008060009054906101000a900473ffffffffffffffffffffffffffffffffffffffff169050816000806101000a81548173ffffffffffffffffffffffffffffffffffffffff021916908373ffffffffffffffffffffffffffffffffffffffff1602179055508173ffffffffffffffffffffffffffffffffffffffff168173ffffffffffffffffffffffffffffffffffffffff167f8be0079c531659141344cd1fd0a4f28419497f9722a3daafe3b4186f6b6457e060405160405180910390a35050565b600033905090565b600080fd5b6000819050919050565b61109781611084565b81146110a257600080fd5b50565b6000813590506110b48161108e565b92915050565b6000602082840312156110d0576110cf61107f565b5b60006110de848285016110a5565b91505092915050565b60008115159050919050565b6110fc816110e7565b82525050565b61110b81611084565b82525050565b600073ffffffffffffffffffffffffffffffffffffffff82169050919050565b600061113c82611111565b9050919050565b61114c81611131565b82525050565b600060608201905061116760008301866110f3565b6111746020830185611102565b6111816040830184611143565b949350505050565b600081519050919050565b600082825260208201905092915050565b6000819050602082019050919050565b6111be81611131565b82525050565b60006111d083836111b5565b60208301905092915050565b6000602082019050919050565b60006111f482611189565b6111fe8185611194565b9350611209836111a5565b8060005b8381101561123a57815161122188826111c4565b975061122c836111dc565b92505060018101905061120d565b5085935050505092915050565b6000602082019050818103600083015261126181846111e9565b905092915050565b61127281611131565b811461127d57600080fd5b50565b60008135905061128f81611269565b92915050565b600080604083850312156112ac576112ab61107f565b5b60006112ba858286016110a5565b92505060206112cb85828601611280565b9150509250929050565b60006020820190506112ea6000830184611102565b92915050565b60006020820190506113056000830184611143565b92915050565b600080604083850312156113225761132161107f565b5b6000611330858286016110a5565b9250506020611341858286016110a5565b9150509250929050565b600060208201905061136060008301846110f3565b92915050565b600081519050919050565b600082825260208201905092915050565b6000819050602082019050919050565b61139b81611084565b82525050565b60006113ad8383611392565b60208301905092915050565b6000602082019050919050565b60006113d182611366565b6113db8185611371565b93506113e683611382565b8060005b838110156114175781516113fe88826113a1565b9750611409836113b9565b9250506001810190506113ea565b5085935050505092915050565b6000602082019050818103600083015261143e81846113c6565b905092915050565b60006020828403121561145c5761145b61107f565b5b600061146a84828501611280565b91505092915050565b600082825260208201905092915050565b7f47616d6520496e697469616c697a656400000000000000000000000000000000600082015250565b60006114ba601083611473565b91506114c582611484565b602082019050919050565b600060208201905081810360008301526114e9816114ad565b9050919050565b7f46696e6973686564000000000000000000000000000000000000000000000000600082015250565b6000611526600883611473565b9150611531826114f0565b602082019050919050565b6000602082019050818103600083015261155581611519565b9050919050565b60006040820190506115716000830185611143565b61157e6020830184611102565b9392505050565b61158e816110e7565b811461159957600080fd5b50565b6000815190506115ab81611585565b92915050565b6000602082840312156115c7576115c661107f565b5b60006115d58482850161159c565b91505092915050565b7f5265776172642073686f756c6420737563636573730000000000000000000000600082015250565b6000611614601583611473565b915061161f826115de565b602082019050919050565b6000602082019050818103600083015261164381611607565b9050919050565b6000815190506116598161108e565b92915050565b6000602082840312156116755761167461107f565b5b60006116838482850161164a565b91505092915050565b7f456e6f7567682062616c616e6365000000000000000000000000000000000000600082015250565b60006116c2600e83611473565b91506116cd8261168c565b602082019050919050565b600060208201905081810360008301526116f1816116b5565b9050919050565b600060608201905061170d6000830186611143565b61171a6020830185611143565b6117276040830184611102565b949350505050565b7f5472616e736665722073686f756c642073756363657373000000000000000000600082015250565b6000611765601783611473565b91506117708261172f565b602082019050919050565b6000602082019050818103600083015261179481611758565b9050919050565b7f4e487b7100000000000000000000000000000000000000000000000000000000600052601160045260246000fd5b60006117d582611084565b91506117e083611084565b92508282019050808211156117f8576117f761179b565b5b92915050565b7f47616d6520657869737473000000000000000000000000000000000000000000600082015250565b6000611834600b83611473565b915061183f826117fe565b602082019050919050565b6000602082019050818103600083015261186381611827565b905091905056fea26469706673582212204abdc43ccee97db69ad86406bfc1b12493ba2fa6ea46e70a8640fb9cc4fc034064736f6c63430008120033",
					"opcodes": "PUSH1 0x80 PUSH1 0x40 MSTORE CALLVALUE DUP1 ISZERO PUSH3 0x11 JUMPI PUSH1 0x0 DUP1 REVERT JUMPDEST POP PUSH1 0x40 MLOAD PUSH3 0x1B04 CODESIZE SUB DUP1 PUSH3 0x1B04 DUP4 CODECOPY DUP2 DUP2 ADD PUSH1 0x40 MSTORE DUP2 ADD SWAP1 PUSH3 0x37 SWAP2 SWAP1 PUSH3 0x1F4 JUMP JUMPDEST DUP1 PUSH1 0x0 PUSH20 0xFFFFFFFFFFFFFFFFFFFFFFFFFFFFFFFFFFFFFFFF AND DUP2 PUSH20 0xFFFFFFFFFFFFFFFFFFFFFFFFFFFFFFFFFFFFFFFF AND SUB PUSH3 0xAD JUMPI PUSH1 0x0 PUSH1 0x40 MLOAD PUSH32 0x1E4FBDF700000000000000000000000000000000000000000000000000000000 DUP2 MSTORE PUSH1 0x4 ADD PUSH3 0xA4 SWAP2 SWAP1 PUSH3 0x237 JUMP JUMPDEST PUSH1 0x40 MLOAD DUP1 SWAP2 SUB SWAP1 REVERT JUMPDEST PUSH3 0xBE DUP2 PUSH3 0xC6 PUSH1 0x20 SHL PUSH1 0x20 SHR JUMP JUMPDEST POP POP PUSH3 0x254 JUMP JUMPDEST PUSH1 0x0 DUP1 PUSH1 0x0 SWAP1 SLOAD SWAP1 PUSH2 0x100 EXP SWAP1 DIV PUSH20 0xFFFFFFFFFFFFFFFFFFFFFFFFFFFFFFFFFFFFFFFF AND SWAP1 POP DUP2 PUSH1 0x0 DUP1 PUSH2 0x100 EXP DUP2 SLOAD DUP2 PUSH20 0xFFFFFFFFFFFFFFFFFFFFFFFFFFFFFFFFFFFFFFFF MUL NOT AND SWAP1 DUP4 PUSH20 0xFFFFFFFFFFFFFFFFFFFFFFFFFFFFFFFFFFFFFFFF AND MUL OR SWAP1 SSTORE POP DUP2 PUSH20 0xFFFFFFFFFFFFFFFFFFFFFFFFFFFFFFFFFFFFFFFF AND DUP2 PUSH20 0xFFFFFFFFFFFFFFFFFFFFFFFFFFFFFFFFFFFFFFFF AND PUSH32 0x8BE0079C531659141344CD1FD0A4F28419497F9722A3DAAFE3B4186F6B6457E0 PUSH1 0x40 MLOAD PUSH1 0x40 MLOAD DUP1 SWAP2 SUB SWAP1 LOG3 POP POP JUMP JUMPDEST PUSH1 0x0 DUP1 REVERT JUMPDEST PUSH1 0x0 PUSH20 0xFFFFFFFFFFFFFFFFFFFFFFFFFFFFFFFFFFFFFFFF DUP3 AND SWAP1 POP SWAP2 SWAP1 POP JUMP JUMPDEST PUSH1 0x0 PUSH3 0x1BC DUP3 PUSH3 0x18F JUMP JUMPDEST SWAP1 POP SWAP2 SWAP1 POP JUMP JUMPDEST PUSH3 0x1CE DUP2 PUSH3 0x1AF JUMP JUMPDEST DUP2 EQ PUSH3 0x1DA JUMPI PUSH1 0x0 DUP1 REVERT JUMPDEST POP JUMP JUMPDEST PUSH1 0x0 DUP2 MLOAD SWAP1 POP PUSH3 0x1EE DUP2 PUSH3 0x1C3 JUMP JUMPDEST SWAP3 SWAP2 POP POP JUMP JUMPDEST PUSH1 0x0 PUSH1 0x20 DUP3 DUP5 SUB SLT ISZERO PUSH3 0x20D JUMPI PUSH3 0x20C PUSH3 0x18A JUMP JUMPDEST JUMPDEST PUSH1 0x0 PUSH3 0x21D DUP5 DUP3 DUP6 ADD PUSH3 0x1DD JUMP JUMPDEST SWAP2 POP POP SWAP3 SWAP2 POP POP JUMP JUMPDEST PUSH3 0x231 DUP2 PUSH3 0x1AF JUMP JUMPDEST DUP3 MSTORE POP POP JUMP JUMPDEST PUSH1 0x0 PUSH1 0x20 DUP3 ADD SWAP1 POP PUSH3 0x24E PUSH1 0x0 DUP4 ADD DUP5 PUSH3 0x226 JUMP JUMPDEST SWAP3 SWAP2 POP POP JUMP JUMPDEST PUSH2 0x18A0 DUP1 PUSH3 0x264 PUSH1 0x0 CODECOPY PUSH1 0x0 RETURN INVALID PUSH1 0x80 PUSH1 0x40 MSTORE CALLVALUE DUP1 ISZERO PUSH2 0x10 JUMPI PUSH1 0x0 DUP1 REVERT JUMPDEST POP PUSH1 0x4 CALLDATASIZE LT PUSH2 0xEA JUMPI PUSH1 0x0 CALLDATALOAD PUSH1 0xE0 SHR DUP1 PUSH4 0x8DA5CB5B GT PUSH2 0x8C JUMPI DUP1 PUSH4 0xD82C13F0 GT PUSH2 0x66 JUMPI DUP1 PUSH4 0xD82C13F0 EQ PUSH2 0x275 JUMPI DUP1 PUSH4 0xE5ED1D59 EQ PUSH2 0x2A5 JUMPI DUP1 PUSH4 0xEE9B80A4 EQ PUSH2 0x2D5 JUMPI DUP1 PUSH4 0xF2FDE38B EQ PUSH2 0x305 JUMPI PUSH2 0xEA JUMP JUMPDEST DUP1 PUSH4 0x8DA5CB5B EQ PUSH2 0x209 JUMPI DUP1 PUSH4 0x9BC01B36 EQ PUSH2 0x227 JUMPI DUP1 PUSH4 0xCE33BD74 EQ PUSH2 0x245 JUMPI PUSH2 0xEA JUMP JUMPDEST DUP1 PUSH4 0x34FCC3E7 GT PUSH2 0xC8 JUMPI DUP1 PUSH4 0x34FCC3E7 EQ PUSH2 0x181 JUMPI DUP1 PUSH4 0x55A373D6 EQ PUSH2 0x1B1 JUMPI DUP1 PUSH4 0x6FFCC719 EQ PUSH2 0x1CF JUMPI DUP1 PUSH4 0x715018A6 EQ PUSH2 0x1FF JUMPI PUSH2 0xEA JUMP JUMPDEST DUP1 PUSH4 0x117A5B90 EQ PUSH2 0xEF JUMPI DUP1 PUSH4 0x16B169C4 EQ PUSH2 0x121 JUMPI DUP1 PUSH4 0x2C32B187 EQ PUSH2 0x151 JUMPI JUMPDEST PUSH1 0x0 DUP1 REVERT JUMPDEST PUSH2 0x109 PUSH1 0x4 DUP1 CALLDATASIZE SUB DUP2 ADD SWAP1 PUSH2 0x104 SWAP2 SWAP1 PUSH2 0x10BA JUMP JUMPDEST PUSH2 0x321 JUMP JUMPDEST PUSH1 0x40 MLOAD PUSH2 0x118 SWAP4 SWAP3 SWAP2 SWAP1 PUSH2 0x1152 JUMP JUMPDEST PUSH1 0x40 MLOAD DUP1 SWAP2 SUB SWAP1 RETURN JUMPDEST PUSH2 0x13B PUSH1 0x4 DUP1 CALLDATASIZE SUB DUP2 ADD SWAP1 PUSH2 0x136 SWAP2 SWAP1 PUSH2 0x10BA JUMP JUMPDEST PUSH2 0x378 JUMP JUMPDEST PUSH1 0x40 MLOAD PUSH2 0x148 SWAP2 SWAP1 PUSH2 0x1247 JUMP JUMPDEST PUSH1 0x40 MLOAD DUP1 SWAP2 SUB SWAP1 RETURN JUMPDEST PUSH2 0x16B PUSH1 0x4 DUP1 CALLDATASIZE SUB DUP2 ADD SWAP1 PUSH2 0x166 SWAP2 SWAP1 PUSH2 0x1295 JUMP JUMPDEST PUSH2 0x47F JUMP JUMPDEST PUSH1 0x40 MLOAD PUSH2 0x178 SWAP2 SWAP1 PUSH2 0x12D5 JUMP JUMPDEST PUSH1 0x40 MLOAD DUP1 SWAP2 SUB SWAP1 RETURN JUMPDEST PUSH2 0x19B PUSH1 0x4 DUP1 CALLDATASIZE SUB DUP2 ADD SWAP1 PUSH2 0x196 SWAP2 SWAP1 PUSH2 0x1295 JUMP JUMPDEST PUSH2 0x6F2 JUMP JUMPDEST PUSH1 0x40 MLOAD PUSH2 0x1A8 SWAP2 SWAP1 PUSH2 0x12D5 JUMP JUMPDEST PUSH1 0x40 MLOAD DUP1 SWAP2 SUB SWAP1 RETURN JUMPDEST PUSH2 0x1B9 PUSH2 0x7B3 JUMP JUMPDEST PUSH1 0x40 MLOAD PUSH2 0x1C6 SWAP2 SWAP1 PUSH2 0x12F0 JUMP JUMPDEST PUSH1 0x40 MLOAD DUP1 SWAP2 SUB SWAP1 RETURN JUMPDEST PUSH2 0x1E9 PUSH1 0x4 DUP1 CALLDATASIZE SUB DUP2 ADD SWAP1 PUSH2 0x1E4 SWAP2 SWAP1 PUSH2 0x130B JUMP JUMPDEST PUSH2 0x7D9 JUMP JUMPDEST PUSH1 0x40 MLOAD PUSH2 0x1F6 SWAP2 SWAP1 PUSH2 0x134B JUMP JUMPDEST PUSH1 0x40 MLOAD DUP1 SWAP2 SUB SWAP1 RETURN JUMPDEST PUSH2 0x207 PUSH2 0xC16 JUMP JUMPDEST STOP JUMPDEST PUSH2 0x211 PUSH2 0xC2A JUMP JUMPDEST PUSH1 0x40 MLOAD PUSH2 0x21E SWAP2 SWAP1 PUSH2 0x12F0 JUMP JUMPDEST PUSH1 0x40 MLOAD DUP1 SWAP2 SUB SWAP1 RETURN JUMPDEST PUSH2 0x22F PUSH2 0xC53 JUMP JUMPDEST PUSH1 0x40 MLOAD PUSH2 0x23C SWAP2 SWAP1 PUSH2 0x1424 JUMP JUMPDEST PUSH1 0x40 MLOAD DUP1 SWAP2 SUB SWAP1 RETURN JUMPDEST PUSH2 0x25F PUSH1 0x4 DUP1 CALLDATASIZE SUB DUP2 ADD SWAP1 PUSH2 0x25A SWAP2 SWAP1 PUSH2 0x10BA JUMP JUMPDEST PUSH2 0xCAB JUMP JUMPDEST PUSH1 0x40 MLOAD PUSH2 0x26C SWAP2 SWAP1 PUSH2 0x12D5 JUMP JUMPDEST PUSH1 0x40 MLOAD DUP1 SWAP2 SUB SWAP1 RETURN JUMPDEST PUSH2 0x28F PUSH1 0x4 DUP1 CALLDATASIZE SUB DUP2 ADD SWAP1 PUSH2 0x28A SWAP2 SWAP1 PUSH2 0x10BA JUMP JUMPDEST PUSH2 0xD6B JUMP JUMPDEST PUSH1 0x40 MLOAD PUSH2 0x29C SWAP2 SWAP1 PUSH2 0x12D5 JUMP JUMPDEST PUSH1 0x40 MLOAD DUP1 SWAP2 SUB SWAP1 RETURN JUMPDEST PUSH2 0x2BF PUSH1 0x4 DUP1 CALLDATASIZE SUB DUP2 ADD SWAP1 PUSH2 0x2BA SWAP2 SWAP1 PUSH2 0x10BA JUMP JUMPDEST PUSH2 0xD8F JUMP JUMPDEST PUSH1 0x40 MLOAD PUSH2 0x2CC SWAP2 SWAP1 PUSH2 0x134B JUMP JUMPDEST PUSH1 0x40 MLOAD DUP1 SWAP2 SUB SWAP1 RETURN JUMPDEST PUSH2 0x2EF PUSH1 0x4 DUP1 CALLDATASIZE SUB DUP2 ADD SWAP1 PUSH2 0x2EA SWAP2 SWAP1 PUSH2 0x1446 JUMP JUMPDEST PUSH2 0xE5A JUMP JUMPDEST PUSH1 0x40 MLOAD PUSH2 0x2FC SWAP2 SWAP1 PUSH2 0x134B JUMP JUMPDEST PUSH1 0x40 MLOAD DUP1 SWAP2 SUB SWAP1 RETURN JUMPDEST PUSH2 0x31F PUSH1 0x4 DUP1 CALLDATASIZE SUB DUP2 ADD SWAP1 PUSH2 0x31A SWAP2 SWAP1 PUSH2 0x1446 JUMP JUMPDEST PUSH2 0xEA6 JUMP JUMPDEST STOP JUMPDEST PUSH1 0x1 PUSH1 0x20 MSTORE DUP1 PUSH1 0x0 MSTORE PUSH1 0x40 PUSH1 0x0 KECCAK256 PUSH1 0x0 SWAP2 POP SWAP1 POP DUP1 PUSH1 0x0 ADD PUSH1 0x0 SWAP1 SLOAD SWAP1 PUSH2 0x100 EXP SWAP1 DIV PUSH1 0xFF AND SWAP1 DUP1 PUSH1 0x2 ADD SLOAD SWAP1 DUP1 PUSH1 0x4 ADD PUSH1 0x0 SWAP1 SLOAD SWAP1 PUSH2 0x100 EXP SWAP1 DIV PUSH20 0xFFFFFFFFFFFFFFFFFFFFFFFFFFFFFFFFFFFFFFFF AND SWAP1 POP DUP4 JUMP JUMPDEST PUSH1 0x60 PUSH1 0x1 PUSH1 0x0 DUP4 DUP2 MSTORE PUSH1 0x20 ADD SWAP1 DUP2 MSTORE PUSH1 0x20 ADD PUSH1 0x0 KECCAK256 PUSH1 0x0 ADD PUSH1 0x0 SWAP1 SLOAD SWAP1 PUSH2 0x100 EXP SWAP1 DIV PUSH1 0xFF AND PUSH2 0x3DD JUMPI PUSH1 0x40 MLOAD PUSH32 0x8C379A000000000000000000000000000000000000000000000000000000000 DUP2 MSTORE PUSH1 0x4 ADD PUSH2 0x3D4 SWAP1 PUSH2 0x14D0 JUMP JUMPDEST PUSH1 0x40 MLOAD DUP1 SWAP2 SUB SWAP1 REVERT JUMPDEST PUSH1 0x1 PUSH1 0x0 DUP4 DUP2 MSTORE PUSH1 0x20 ADD SWAP1 DUP2 MSTORE PUSH1 0x20 ADD PUSH1 0x0 KECCAK256 PUSH1 0x3 ADD DUP1 SLOAD DUP1 PUSH1 0x20 MUL PUSH1 0x20 ADD PUSH1 0x40 MLOAD SWAP1 DUP2 ADD PUSH1 0x40 MSTORE DUP1 SWAP3 SWAP2 SWAP1 DUP2 DUP2 MSTORE PUSH1 0x20 ADD DUP3 DUP1 SLOAD DUP1 ISZERO PUSH2 0x473 JUMPI PUSH1 0x20 MUL DUP3 ADD SWAP2 SWAP1 PUSH1 0x0 MSTORE PUSH1 0x20 PUSH1 0x0 KECCAK256 SWAP1 JUMPDEST DUP2 PUSH1 0x0 SWAP1 SLOAD SWAP1 PUSH2 0x100 EXP SWAP1 DIV PUSH20 0xFFFFFFFFFFFFFFFFFFFFFFFFFFFFFFFFFFFFFFFF AND PUSH20 0xFFFFFFFFFFFFFFFFFFFFFFFFFFFFFFFFFFFFFFFF AND DUP2 MSTORE PUSH1 0x20 ADD SWAP1 PUSH1 0x1 ADD SWAP1 DUP1 DUP4 GT PUSH2 0x429 JUMPI JUMPDEST POP POP POP POP POP SWAP1 POP SWAP2 SWAP1 POP JUMP JUMPDEST PUSH1 0x0 PUSH1 0x1 PUSH1 0x0 DUP5 DUP2 MSTORE PUSH1 0x20 ADD SWAP1 DUP2 MSTORE PUSH1 0x20 ADD PUSH1 0x0 KECCAK256 PUSH1 0x0 ADD PUSH1 0x0 SWAP1 SLOAD SWAP1 PUSH2 0x100 EXP SWAP1 DIV PUSH1 0xFF AND PUSH2 0x4E4 JUMPI PUSH1 0x40 MLOAD PUSH32 0x8C379A000000000000000000000000000000000000000000000000000000000 DUP2 MSTORE PUSH1 0x4 ADD PUSH2 0x4DB SWAP1 PUSH2 0x14D0 JUMP JUMPDEST PUSH1 0x40 MLOAD DUP1 SWAP2 SUB SWAP1 REVERT JUMPDEST PUSH1 0x0 PUSH20 0xFFFFFFFFFFFFFFFFFFFFFFFFFFFFFFFFFFFFFFFF AND PUSH1 0x1 PUSH1 0x0 DUP6 DUP2 MSTORE PUSH1 0x20 ADD SWAP1 DUP2 MSTORE PUSH1 0x20 ADD PUSH1 0x0 KECCAK256 PUSH1 0x4 ADD PUSH1 0x0 SWAP1 SLOAD SWAP1 PUSH2 0x100 EXP SWAP1 DIV PUSH20 0xFFFFFFFFFFFFFFFFFFFFFFFFFFFFFFFFFFFFFFFF AND PUSH20 0xFFFFFFFFFFFFFFFFFFFFFFFFFFFFFFFFFFFFFFFF AND EQ PUSH2 0x589 JUMPI PUSH1 0x40 MLOAD PUSH32 0x8C379A000000000000000000000000000000000000000000000000000000000 DUP2 MSTORE PUSH1 0x4 ADD PUSH2 0x580 SWAP1 PUSH2 0x153C JUMP JUMPDEST PUSH1 0x40 MLOAD DUP1 SWAP2 SUB SWAP1 REVERT JUMPDEST DUP2 PUSH1 0x1 PUSH1 0x0 DUP6 DUP2 MSTORE PUSH1 0x20 ADD SWAP1 DUP2 MSTORE PUSH1 0x20 ADD PUSH1 0x0 KECCAK256 PUSH1 0x4 ADD PUSH1 0x0 PUSH2 0x100 EXP DUP2 SLOAD DUP2 PUSH20 0xFFFFFFFFFFFFFFFFFFFFFFFFFFFFFFFFFFFFFFFF MUL NOT AND SWAP1 DUP4 PUSH20 0xFFFFFFFFFFFFFFFFFFFFFFFFFFFFFFFFFFFFFFFF AND MUL OR SWAP1 SSTORE POP PUSH1 0x3 PUSH1 0x0 SWAP1 SLOAD SWAP1 PUSH2 0x100 EXP SWAP1 DIV PUSH20 0xFFFFFFFFFFFFFFFFFFFFFFFFFFFFFFFFFFFFFFFF AND PUSH20 0xFFFFFFFFFFFFFFFFFFFFFFFFFFFFFFFFFFFFFFFF AND PUSH4 0xA9059CBB DUP4 PUSH1 0x1 PUSH1 0x0 DUP8 DUP2 MSTORE PUSH1 0x20 ADD SWAP1 DUP2 MSTORE PUSH1 0x20 ADD PUSH1 0x0 KECCAK256 PUSH1 0x2 ADD SLOAD PUSH1 0x40 MLOAD DUP4 PUSH4 0xFFFFFFFF AND PUSH1 0xE0 SHL DUP2 MSTORE PUSH1 0x4 ADD PUSH2 0x651 SWAP3 SWAP2 SWAP1 PUSH2 0x155C JUMP JUMPDEST PUSH1 0x20 PUSH1 0x40 MLOAD DUP1 DUP4 SUB DUP2 PUSH1 0x0 DUP8 GAS CALL ISZERO DUP1 ISZERO PUSH2 0x670 JUMPI RETURNDATASIZE PUSH1 0x0 DUP1 RETURNDATACOPY RETURNDATASIZE PUSH1 0x0 REVERT JUMPDEST POP POP POP POP PUSH1 0x40 MLOAD RETURNDATASIZE PUSH1 0x1F NOT PUSH1 0x1F DUP3 ADD AND DUP3 ADD DUP1 PUSH1 0x40 MSTORE POP DUP2 ADD SWAP1 PUSH2 0x694 SWAP2 SWAP1 PUSH2 0x15B1 JUMP JUMPDEST PUSH2 0x6D3 JUMPI PUSH1 0x40 MLOAD PUSH32 0x8C379A000000000000000000000000000000000000000000000000000000000 DUP2 MSTORE PUSH1 0x4 ADD PUSH2 0x6CA SWAP1 PUSH2 0x162A JUMP JUMPDEST PUSH1 0x40 MLOAD DUP1 SWAP2 SUB SWAP1 REVERT JUMPDEST PUSH1 0x1 PUSH1 0x0 DUP5 DUP2 MSTORE PUSH1 0x20 ADD SWAP1 DUP2 MSTORE PUSH1 0x20 ADD PUSH1 0x0 KECCAK256 PUSH1 0x2 ADD SLOAD SWAP1 POP SWAP3 SWAP2 POP POP JUMP JUMPDEST PUSH1 0x0 PUSH1 0x1 PUSH1 0x0 DUP5 DUP2 MSTORE PUSH1 0x20 ADD SWAP1 DUP2 MSTORE PUSH1 0x20 ADD PUSH1 0x0 KECCAK256 PUSH1 0x0 ADD PUSH1 0x0 SWAP1 SLOAD SWAP1 PUSH2 0x100 EXP SWAP1 DIV PUSH1 0xFF AND PUSH2 0x757 JUMPI PUSH1 0x40 MLOAD PUSH32 0x8C379A000000000000000000000000000000000000000000000000000000000 DUP2 MSTORE PUSH1 0x4 ADD PUSH2 0x74E SWAP1 PUSH2 0x14D0 JUMP JUMPDEST PUSH1 0x40 MLOAD DUP1 SWAP2 SUB SWAP1 REVERT JUMPDEST PUSH1 0x1 PUSH1 0x0 DUP5 DUP2 MSTORE PUSH1 0x20 ADD SWAP1 DUP2 MSTORE PUSH1 0x20 ADD PUSH1 0x0 KECCAK256 PUSH1 0x1 ADD PUSH1 0x0 DUP4 PUSH20 0xFFFFFFFFFFFFFFFFFFFFFFFFFFFFFFFFFFFFFFFF AND PUSH20 0xFFFFFFFFFFFFFFFFFFFFFFFFFFFFFFFFFFFFFFFF AND DUP2 MSTORE PUSH1 0x20 ADD SWAP1 DUP2 MSTORE PUSH1 0x20 ADD PUSH1 0x0 KECCAK256 SLOAD SWAP1 POP SWAP3 SWAP2 POP POP JUMP JUMPDEST PUSH1 0x3 PUSH1 0x0 SWAP1 SLOAD SWAP1 PUSH2 0x100 EXP SWAP1 DIV PUSH20 0xFFFFFFFFFFFFFFFFFFFFFFFFFFFFFFFFFFFFFFFF AND DUP2 JUMP JUMPDEST PUSH1 0x0 PUSH1 0x1 PUSH1 0x0 DUP5 DUP2 MSTORE PUSH1 0x20 ADD SWAP1 DUP2 MSTORE PUSH1 0x20 ADD PUSH1 0x0 KECCAK256 PUSH1 0x0 ADD PUSH1 0x0 SWAP1 SLOAD SWAP1 PUSH2 0x100 EXP SWAP1 DIV PUSH1 0xFF AND PUSH2 0x83E JUMPI PUSH1 0x40 MLOAD PUSH32 0x8C379A000000000000000000000000000000000000000000000000000000000 DUP2 MSTORE PUSH1 0x4 ADD PUSH2 0x835 SWAP1 PUSH2 0x14D0 JUMP JUMPDEST PUSH1 0x40 MLOAD DUP1 SWAP2 SUB SWAP1 REVERT JUMPDEST PUSH1 0x0 PUSH20 0xFFFFFFFFFFFFFFFFFFFFFFFFFFFFFFFFFFFFFFFF AND PUSH1 0x1 PUSH1 0x0 DUP6 DUP2 MSTORE PUSH1 0x20 ADD SWAP1 DUP2 MSTORE PUSH1 0x20 ADD PUSH1 0x0 KECCAK256 PUSH1 0x4 ADD PUSH1 0x0 SWAP1 SLOAD SWAP1 PUSH2 0x100 EXP SWAP1 DIV PUSH20 0xFFFFFFFFFFFFFFFFFFFFFFFFFFFFFFFFFFFFFFFF AND PUSH20 0xFFFFFFFFFFFFFFFFFFFFFFFFFFFFFFFFFFFFFFFF AND EQ PUSH2 0x8E3 JUMPI PUSH1 0x40 MLOAD PUSH32 0x8C379A000000000000000000000000000000000000000000000000000000000 DUP2 MSTORE PUSH1 0x4 ADD PUSH2 0x8DA SWAP1 PUSH2 0x153C JUMP JUMPDEST PUSH1 0x40 MLOAD DUP1 SWAP2 SUB SWAP1 REVERT JUMPDEST DUP2 PUSH1 0x3 PUSH1 0x0 SWAP1 SLOAD SWAP1 PUSH2 0x100 EXP SWAP1 DIV PUSH20 0xFFFFFFFFFFFFFFFFFFFFFFFFFFFFFFFFFFFFFFFF AND PUSH20 0xFFFFFFFFFFFFFFFFFFFFFFFFFFFFFFFFFFFFFFFF AND PUSH4 0x70A08231 CALLER PUSH1 0x40 MLOAD DUP3 PUSH4 0xFFFFFFFF AND PUSH1 0xE0 SHL DUP2 MSTORE PUSH1 0x4 ADD PUSH2 0x93F SWAP2 SWAP1 PUSH2 0x12F0 JUMP JUMPDEST PUSH1 0x20 PUSH1 0x40 MLOAD DUP1 DUP4 SUB DUP2 DUP7 GAS STATICCALL ISZERO DUP1 ISZERO PUSH2 0x95C JUMPI RETURNDATASIZE PUSH1 0x0 DUP1 RETURNDATACOPY RETURNDATASIZE PUSH1 0x0 REVERT JUMPDEST POP POP POP POP PUSH1 0x40 MLOAD RETURNDATASIZE PUSH1 0x1F NOT PUSH1 0x1F DUP3 ADD AND DUP3 ADD DUP1 PUSH1 0x40 MSTORE POP DUP2 ADD SWAP1 PUSH2 0x980 SWAP2 SWAP1 PUSH2 0x165F JUMP JUMPDEST LT ISZERO PUSH2 0x9C1 JUMPI PUSH1 0x40 MLOAD PUSH32 0x8C379A000000000000000000000000000000000000000000000000000000000 DUP2 MSTORE PUSH1 0x4 ADD PUSH2 0x9B8 SWAP1 PUSH2 0x16D8 JUMP JUMPDEST PUSH1 0x40 MLOAD DUP1 SWAP2 SUB SWAP1 REVERT JUMPDEST PUSH1 0x3 PUSH1 0x0 SWAP1 SLOAD SWAP1 PUSH2 0x100 EXP SWAP1 DIV PUSH20 0xFFFFFFFFFFFFFFFFFFFFFFFFFFFFFFFFFFFFFFFF AND PUSH20 0xFFFFFFFFFFFFFFFFFFFFFFFFFFFFFFFFFFFFFFFF AND PUSH4 0x23B872DD CALLER ADDRESS DUP6 PUSH1 0x40 MLOAD DUP5 PUSH4 0xFFFFFFFF AND PUSH1 0xE0 SHL DUP2 MSTORE PUSH1 0x4 ADD PUSH2 0xA20 SWAP4 SWAP3 SWAP2 SWAP1 PUSH2 0x16F8 JUMP JUMPDEST PUSH1 0x20 PUSH1 0x40 MLOAD DUP1 DUP4 SUB DUP2 PUSH1 0x0 DUP8 GAS CALL ISZERO DUP1 ISZERO PUSH2 0xA3F JUMPI RETURNDATASIZE PUSH1 0x0 DUP1 RETURNDATACOPY RETURNDATASIZE PUSH1 0x0 REVERT JUMPDEST POP POP POP POP PUSH1 0x40 MLOAD RETURNDATASIZE PUSH1 0x1F NOT PUSH1 0x1F DUP3 ADD AND DUP3 ADD DUP1 PUSH1 0x40 MSTORE POP DUP2 ADD SWAP1 PUSH2 0xA63 SWAP2 SWAP1 PUSH2 0x15B1 JUMP JUMPDEST PUSH2 0xAA2 JUMPI PUSH1 0x40 MLOAD PUSH32 0x8C379A000000000000000000000000000000000000000000000000000000000 DUP2 MSTORE PUSH1 0x4 ADD PUSH2 0xA99 SWAP1 PUSH2 0x177B JUMP JUMPDEST PUSH1 0x40 MLOAD DUP1 SWAP2 SUB SWAP1 REVERT JUMPDEST PUSH1 0x0 PUSH1 0x1 PUSH1 0x0 DUP6 DUP2 MSTORE PUSH1 0x20 ADD SWAP1 DUP2 MSTORE PUSH1 0x20 ADD PUSH1 0x0 KECCAK256 PUSH1 0x1 ADD PUSH1 0x0 CALLER PUSH20 0xFFFFFFFFFFFFFFFFFFFFFFFFFFFFFFFFFFFFFFFF AND PUSH20 0xFFFFFFFFFFFFFFFFFFFFFFFFFFFFFFFFFFFFFFFF AND DUP2 MSTORE PUSH1 0x20 ADD SWAP1 DUP2 MSTORE PUSH1 0x20 ADD PUSH1 0x0 KECCAK256 SLOAD SUB PUSH2 0xB75 JUMPI PUSH1 0x1 PUSH1 0x0 DUP5 DUP2 MSTORE PUSH1 0x20 ADD SWAP1 DUP2 MSTORE PUSH1 0x20 ADD PUSH1 0x0 KECCAK256 PUSH1 0x3 ADD CALLER SWAP1 DUP1 PUSH1 0x1 DUP2 SLOAD ADD DUP1 DUP3 SSTORE DUP1 SWAP2 POP POP PUSH1 0x1 SWAP1 SUB SWAP1 PUSH1 0x0 MSTORE PUSH1 0x20 PUSH1 0x0 KECCAK256 ADD PUSH1 0x0 SWAP1 SWAP2 SWAP1 SWAP2 SWAP1 SWAP2 PUSH2 0x100 EXP DUP2 SLOAD DUP2 PUSH20 0xFFFFFFFFFFFFFFFFFFFFFFFFFFFFFFFFFFFFFFFF MUL NOT AND SWAP1 DUP4 PUSH20 0xFFFFFFFFFFFFFFFFFFFFFFFFFFFFFFFFFFFFFFFF AND MUL OR SWAP1 SSTORE POP JUMPDEST DUP2 PUSH1 0x1 PUSH1 0x0 DUP6 DUP2 MSTORE PUSH1 0x20 ADD SWAP1 DUP2 MSTORE PUSH1 0x20 ADD PUSH1 0x0 KECCAK256 PUSH1 0x1 ADD PUSH1 0x0 CALLER PUSH20 0xFFFFFFFFFFFFFFFFFFFFFFFFFFFFFFFFFFFFFFFF AND PUSH20 0xFFFFFFFFFFFFFFFFFFFFFFFFFFFFFFFFFFFFFFFF AND DUP2 MSTORE PUSH1 0x20 ADD SWAP1 DUP2 MSTORE PUSH1 0x20 ADD PUSH1 0x0 KECCAK256 PUSH1 0x0 DUP3 DUP3 SLOAD PUSH2 0xBD8 SWAP2 SWAP1 PUSH2 0x17CA JUMP JUMPDEST SWAP3 POP POP DUP2 SWAP1 SSTORE POP DUP2 PUSH1 0x1 PUSH1 0x0 DUP6 DUP2 MSTORE PUSH1 0x20 ADD SWAP1 DUP2 MSTORE PUSH1 0x20 ADD PUSH1 0x0 KECCAK256 PUSH1 0x2 ADD PUSH1 0x0 DUP3 DUP3 SLOAD PUSH2 0xC05 SWAP2 SWAP1 PUSH2 0x17CA JUMP JUMPDEST SWAP3 POP POP DUP2 SWAP1 SSTORE POP PUSH1 0x1 SWAP1 POP SWAP3 SWAP2 POP POP JUMP JUMPDEST PUSH2 0xC1E PUSH2 0xF2C JUMP JUMPDEST PUSH2 0xC28 PUSH1 0x0 PUSH2 0xFB3 JUMP JUMPDEST JUMP JUMPDEST PUSH1 0x0 DUP1 PUSH1 0x0 SWAP1 SLOAD SWAP1 PUSH2 0x100 EXP SWAP1 DIV PUSH20 0xFFFFFFFFFFFFFFFFFFFFFFFFFFFFFFFFFFFFFFFF AND SWAP1 POP SWAP1 JUMP JUMPDEST PUSH1 0x60 PUSH1 0x2 DUP1 SLOAD DUP1 PUSH1 0x20 MUL PUSH1 0x20 ADD PUSH1 0x40 MLOAD SWAP1 DUP2 ADD PUSH1 0x40 MSTORE DUP1 SWAP3 SWAP2 SWAP1 DUP2 DUP2 MSTORE PUSH1 0x20 ADD DUP3 DUP1 SLOAD DUP1 ISZERO PUSH2 0xCA1 JUMPI PUSH1 0x20 MUL DUP3 ADD SWAP2 SWAP1 PUSH1 0x0 MSTORE PUSH1 0x20 PUSH1 0x0 KECCAK256 SWAP1 JUMPDEST DUP2 SLOAD DUP2 MSTORE PUSH1 0x20 ADD SWAP1 PUSH1 0x1 ADD SWAP1 DUP1 DUP4 GT PUSH2 0xC8D JUMPI JUMPDEST POP POP POP POP POP SWAP1 POP SWAP1 JUMP JUMPDEST PUSH1 0x0 PUSH1 0x1 PUSH1 0x0 DUP4 DUP2 MSTORE PUSH1 0x20 ADD SWAP1 DUP2 MSTORE PUSH1 0x20 ADD PUSH1 0x0 KECCAK256 PUSH1 0x0 ADD PUSH1 0x0 SWAP1 SLOAD SWAP1 PUSH2 0x100 EXP SWAP1 DIV PUSH1 0xFF AND PUSH2 0xD10 JUMPI PUSH1 0x40 MLOAD PUSH32 0x8C379A000000000000000000000000000000000000000000000000000000000 DUP2 MSTORE PUSH1 0x4 ADD PUSH2 0xD07 SWAP1 PUSH2 0x14D0 JUMP JUMPDEST PUSH1 0x40 MLOAD DUP1 SWAP2 SUB SWAP1 REVERT JUMPDEST PUSH1 0x1 PUSH1 0x0 DUP4 DUP2 MSTORE PUSH1 0x20 ADD SWAP1 DUP2 MSTORE PUSH1 0x20 ADD PUSH1 0x0 KECCAK256 PUSH1 0x1 ADD PUSH1 0x0 CALLER PUSH20 0xFFFFFFFFFFFFFFFFFFFFFFFFFFFFFFFFFFFFFFFF AND PUSH20 0xFFFFFFFFFFFFFFFFFFFFFFFFFFFFFFFFFFFFFFFF AND DUP2 MSTORE PUSH1 0x20 ADD SWAP1 DUP2 MSTORE PUSH1 0x20 ADD PUSH1 0x0 KECCAK256 SLOAD SWAP1 POP SWAP2 SWAP1 POP JUMP JUMPDEST PUSH1 0x2 DUP2 DUP2 SLOAD DUP2 LT PUSH2 0xD7B JUMPI PUSH1 0x0 DUP1 REVERT JUMPDEST SWAP1 PUSH1 0x0 MSTORE PUSH1 0x20 PUSH1 0x0 KECCAK256 ADD PUSH1 0x0 SWAP2 POP SWAP1 POP SLOAD DUP2 JUMP JUMPDEST PUSH1 0x0 DUP1 ISZERO ISZERO PUSH1 0x1 PUSH1 0x0 DUP5 DUP2 MSTORE PUSH1 0x20 ADD SWAP1 DUP2 MSTORE PUSH1 0x20 ADD PUSH1 0x0 KECCAK256 PUSH1 0x0 ADD PUSH1 0x0 SWAP1 SLOAD SWAP1 PUSH2 0x100 EXP SWAP1 DIV PUSH1 0xFF AND ISZERO ISZERO EQ PUSH2 0xDFA JUMPI PUSH1 0x40 MLOAD PUSH32 0x8C379A000000000000000000000000000000000000000000000000000000000 DUP2 MSTORE PUSH1 0x4 ADD PUSH2 0xDF1 SWAP1 PUSH2 0x184A JUMP JUMPDEST PUSH1 0x40 MLOAD DUP1 SWAP2 SUB SWAP1 REVERT JUMPDEST PUSH1 0x1 DUP1 PUSH1 0x0 DUP5 DUP2 MSTORE PUSH1 0x20 ADD SWAP1 DUP2 MSTORE PUSH1 0x20 ADD PUSH1 0x0 KECCAK256 PUSH1 0x0 ADD PUSH1 0x0 PUSH2 0x100 EXP DUP2 SLOAD DUP2 PUSH1 0xFF MUL NOT AND SWAP1 DUP4 ISZERO ISZERO MUL OR SWAP1 SSTORE POP PUSH1 0x2 DUP3 SWAP1 DUP1 PUSH1 0x1 DUP2 SLOAD ADD DUP1 DUP3 SSTORE DUP1 SWAP2 POP POP PUSH1 0x1 SWAP1 SUB SWAP1 PUSH1 0x0 MSTORE PUSH1 0x20 PUSH1 0x0 KECCAK256 ADD PUSH1 0x0 SWAP1 SWAP2 SWAP1 SWAP2 SWAP1 SWAP2 POP SSTORE PUSH1 0x1 SWAP1 POP SWAP2 SWAP1 POP JUMP JUMPDEST PUSH1 0x0 DUP2 PUSH1 0x3 PUSH1 0x0 PUSH2 0x100 EXP DUP2 SLOAD DUP2 PUSH20 0xFFFFFFFFFFFFFFFFFFFFFFFFFFFFFFFFFFFFFFFF MUL NOT AND SWAP1 DUP4 PUSH20 0xFFFFFFFFFFFFFFFFFFFFFFFFFFFFFFFFFFFFFFFF AND MUL OR SWAP1 SSTORE POP PUSH1 0x1 SWAP1 POP SWAP2 SWAP1 POP JUMP JUMPDEST PUSH2 0xEAE PUSH2 0xF2C JUMP JUMPDEST PUSH1 0x0 PUSH20 0xFFFFFFFFFFFFFFFFFFFFFFFFFFFFFFFFFFFFFFFF AND DUP2 PUSH20 0xFFFFFFFFFFFFFFFFFFFFFFFFFFFFFFFFFFFFFFFF AND SUB PUSH2 0xF20 JUMPI PUSH1 0x0 PUSH1 0x40 MLOAD PUSH32 0x1E4FBDF700000000000000000000000000000000000000000000000000000000 DUP2 MSTORE PUSH1 0x4 ADD PUSH2 0xF17 SWAP2 SWAP1 PUSH2 0x12F0 JUMP JUMPDEST PUSH1 0x40 MLOAD DUP1 SWAP2 SUB SWAP1 REVERT JUMPDEST PUSH2 0xF29 DUP2 PUSH2 0xFB3 JUMP JUMPDEST POP JUMP JUMPDEST PUSH2 0xF34 PUSH2 0x1077 JUMP JUMPDEST PUSH20 0xFFFFFFFFFFFFFFFFFFFFFFFFFFFFFFFFFFFFFFFF AND PUSH2 0xF52 PUSH2 0xC2A JUMP JUMPDEST PUSH20 0xFFFFFFFFFFFFFFFFFFFFFFFFFFFFFFFFFFFFFFFF AND EQ PUSH2 0xFB1 JUMPI PUSH2 0xF75 PUSH2 0x1077 JUMP JUMPDEST PUSH1 0x40 MLOAD PUSH32 0x118CDAA700000000000000000000000000000000000000000000000000000000 DUP2 MSTORE PUSH1 0x4 ADD PUSH2 0xFA8 SWAP2 SWAP1 PUSH2 0x12F0 JUMP JUMPDEST PUSH1 0x40 MLOAD DUP1 SWAP2 SUB SWAP1 REVERT JUMPDEST JUMP JUMPDEST PUSH1 0x0 DUP1 PUSH1 0x0 SWAP1 SLOAD SWAP1 PUSH2 0x100 EXP SWAP1 DIV PUSH20 0xFFFFFFFFFFFFFFFFFFFFFFFFFFFFFFFFFFFFFFFF AND SWAP1 POP DUP2 PUSH1 0x0 DUP1 PUSH2 0x100 EXP DUP2 SLOAD DUP2 PUSH20 0xFFFFFFFFFFFFFFFFFFFFFFFFFFFFFFFFFFFFFFFF MUL NOT AND SWAP1 DUP4 PUSH20 0xFFFFFFFFFFFFFFFFFFFFFFFFFFFFFFFFFFFFFFFF AND MUL OR SWAP1 SSTORE POP DUP2 PUSH20 0xFFFFFFFFFFFFFFFFFFFFFFFFFFFFFFFFFFFFFFFF AND DUP2 PUSH20 0xFFFFFFFFFFFFFFFFFFFFFFFFFFFFFFFFFFFFFFFF AND PUSH32 0x8BE0079C531659141344CD1FD0A4F28419497F9722A3DAAFE3B4186F6B6457E0 PUSH1 0x40 MLOAD PUSH1 0x40 MLOAD DUP1 SWAP2 SUB SWAP1 LOG3 POP POP JUMP JUMPDEST PUSH1 0x0 CALLER SWAP1 POP SWAP1 JUMP JUMPDEST PUSH1 0x0 DUP1 REVERT JUMPDEST PUSH1 0x0 DUP2 SWAP1 POP SWAP2 SWAP1 POP JUMP JUMPDEST PUSH2 0x1097 DUP2 PUSH2 0x1084 JUMP JUMPDEST DUP2 EQ PUSH2 0x10A2 JUMPI PUSH1 0x0 DUP1 REVERT JUMPDEST POP JUMP JUMPDEST PUSH1 0x0 DUP2 CALLDATALOAD SWAP1 POP PUSH2 0x10B4 DUP2 PUSH2 0x108E JUMP JUMPDEST SWAP3 SWAP2 POP POP JUMP JUMPDEST PUSH1 0x0 PUSH1 0x20 DUP3 DUP5 SUB SLT ISZERO PUSH2 0x10D0 JUMPI PUSH2 0x10CF PUSH2 0x107F JUMP JUMPDEST JUMPDEST PUSH1 0x0 PUSH2 0x10DE DUP5 DUP3 DUP6 ADD PUSH2 0x10A5 JUMP JUMPDEST SWAP2 POP POP SWAP3 SWAP2 POP POP JUMP JUMPDEST PUSH1 0x0 DUP2 ISZERO ISZERO SWAP1 POP SWAP2 SWAP1 POP JUMP JUMPDEST PUSH2 0x10FC DUP2 PUSH2 0x10E7 JUMP JUMPDEST DUP3 MSTORE POP POP JUMP JUMPDEST PUSH2 0x110B DUP2 PUSH2 0x1084 JUMP JUMPDEST DUP3 MSTORE POP POP JUMP JUMPDEST PUSH1 0x0 PUSH20 0xFFFFFFFFFFFFFFFFFFFFFFFFFFFFFFFFFFFFFFFF DUP3 AND SWAP1 POP SWAP2 SWAP1 POP JUMP JUMPDEST PUSH1 0x0 PUSH2 0x113C DUP3 PUSH2 0x1111 JUMP JUMPDEST SWAP1 POP SWAP2 SWAP1 POP JUMP JUMPDEST PUSH2 0x114C DUP2 PUSH2 0x1131 JUMP JUMPDEST DUP3 MSTORE POP POP JUMP JUMPDEST PUSH1 0x0 PUSH1 0x60 DUP3 ADD SWAP1 POP PUSH2 0x1167 PUSH1 0x0 DUP4 ADD DUP7 PUSH2 0x10F3 JUMP JUMPDEST PUSH2 0x1174 PUSH1 0x20 DUP4 ADD DUP6 PUSH2 0x1102 JUMP JUMPDEST PUSH2 0x1181 PUSH1 0x40 DUP4 ADD DUP5 PUSH2 0x1143 JUMP JUMPDEST SWAP5 SWAP4 POP POP POP POP JUMP JUMPDEST PUSH1 0x0 DUP2 MLOAD SWAP1 POP SWAP2 SWAP1 POP JUMP JUMPDEST PUSH1 0x0 DUP3 DUP3 MSTORE PUSH1 0x20 DUP3 ADD SWAP1 POP SWAP3 SWAP2 POP POP JUMP JUMPDEST PUSH1 0x0 DUP2 SWAP1 POP PUSH1 0x20 DUP3 ADD SWAP1 POP SWAP2 SWAP1 POP JUMP JUMPDEST PUSH2 0x11BE DUP2 PUSH2 0x1131 JUMP JUMPDEST DUP3 MSTORE POP POP JUMP JUMPDEST PUSH1 0x0 PUSH2 0x11D0 DUP4 DUP4 PUSH2 0x11B5 JUMP JUMPDEST PUSH1 0x20 DUP4 ADD SWAP1 POP SWAP3 SWAP2 POP POP JUMP JUMPDEST PUSH1 0x0 PUSH1 0x20 DUP3 ADD SWAP1 POP SWAP2 SWAP1 POP JUMP JUMPDEST PUSH1 0x0 PUSH2 0x11F4 DUP3 PUSH2 0x1189 JUMP JUMPDEST PUSH2 0x11FE DUP2 DUP6 PUSH2 0x1194 JUMP JUMPDEST SWAP4 POP PUSH2 0x1209 DUP4 PUSH2 0x11A5 JUMP JUMPDEST DUP1 PUSH1 0x0 JUMPDEST DUP4 DUP2 LT ISZERO PUSH2 0x123A JUMPI DUP2 MLOAD PUSH2 0x1221 DUP9 DUP3 PUSH2 0x11C4 JUMP JUMPDEST SWAP8 POP PUSH2 0x122C DUP4 PUSH2 0x11DC JUMP JUMPDEST SWAP3 POP POP PUSH1 0x1 DUP2 ADD SWAP1 POP PUSH2 0x120D JUMP JUMPDEST POP DUP6 SWAP4 POP POP POP POP SWAP3 SWAP2 POP POP JUMP JUMPDEST PUSH1 0x0 PUSH1 0x20 DUP3 ADD SWAP1 POP DUP2 DUP2 SUB PUSH1 0x0 DUP4 ADD MSTORE PUSH2 0x1261 DUP2 DUP5 PUSH2 0x11E9 JUMP JUMPDEST SWAP1 POP SWAP3 SWAP2 POP POP JUMP JUMPDEST PUSH2 0x1272 DUP2 PUSH2 0x1131 JUMP JUMPDEST DUP2 EQ PUSH2 0x127D JUMPI PUSH1 0x0 DUP1 REVERT JUMPDEST POP JUMP JUMPDEST PUSH1 0x0 DUP2 CALLDATALOAD SWAP1 POP PUSH2 0x128F DUP2 PUSH2 0x1269 JUMP JUMPDEST SWAP3 SWAP2 POP POP JUMP JUMPDEST PUSH1 0x0 DUP1 PUSH1 0x40 DUP4 DUP6 SUB SLT ISZERO PUSH2 0x12AC JUMPI PUSH2 0x12AB PUSH2 0x107F JUMP JUMPDEST JUMPDEST PUSH1 0x0 PUSH2 0x12BA DUP6 DUP3 DUP7 ADD PUSH2 0x10A5 JUMP JUMPDEST SWAP3 POP POP PUSH1 0x20 PUSH2 0x12CB DUP6 DUP3 DUP7 ADD PUSH2 0x1280 JUMP JUMPDEST SWAP2 POP POP SWAP3 POP SWAP3 SWAP1 POP JUMP JUMPDEST PUSH1 0x0 PUSH1 0x20 DUP3 ADD SWAP1 POP PUSH2 0x12EA PUSH1 0x0 DUP4 ADD DUP5 PUSH2 0x1102 JUMP JUMPDEST SWAP3 SWAP2 POP POP JUMP JUMPDEST PUSH1 0x0 PUSH1 0x20 DUP3 ADD SWAP1 POP PUSH2 0x1305 PUSH1 0x0 DUP4 ADD DUP5 PUSH2 0x1143 JUMP JUMPDEST SWAP3 SWAP2 POP POP JUMP JUMPDEST PUSH1 0x0 DUP1 PUSH1 0x40 DUP4 DUP6 SUB SLT ISZERO PUSH2 0x1322 JUMPI PUSH2 0x1321 PUSH2 0x107F JUMP JUMPDEST JUMPDEST PUSH1 0x0 PUSH2 0x1330 DUP6 DUP3 DUP7 ADD PUSH2 0x10A5 JUMP JUMPDEST SWAP3 POP POP PUSH1 0x20 PUSH2 0x1341 DUP6 DUP3 DUP7 ADD PUSH2 0x10A5 JUMP JUMPDEST SWAP2 POP POP SWAP3 POP SWAP3 SWAP1 POP JUMP JUMPDEST PUSH1 0x0 PUSH1 0x20 DUP3 ADD SWAP1 POP PUSH2 0x1360 PUSH1 0x0 DUP4 ADD DUP5 PUSH2 0x10F3 JUMP JUMPDEST SWAP3 SWAP2 POP POP JUMP JUMPDEST PUSH1 0x0 DUP2 MLOAD SWAP1 POP SWAP2 SWAP1 POP JUMP JUMPDEST PUSH1 0x0 DUP3 DUP3 MSTORE PUSH1 0x20 DUP3 ADD SWAP1 POP SWAP3 SWAP2 POP POP JUMP JUMPDEST PUSH1 0x0 DUP2 SWAP1 POP PUSH1 0x20 DUP3 ADD SWAP1 POP SWAP2 SWAP1 POP JUMP JUMPDEST PUSH2 0x139B DUP2 PUSH2 0x1084 JUMP JUMPDEST DUP3 MSTORE POP POP JUMP JUMPDEST PUSH1 0x0 PUSH2 0x13AD DUP4 DUP4 PUSH2 0x1392 JUMP JUMPDEST PUSH1 0x20 DUP4 ADD SWAP1 POP SWAP3 SWAP2 POP POP JUMP JUMPDEST PUSH1 0x0 PUSH1 0x20 DUP3 ADD SWAP1 POP SWAP2 SWAP1 POP JUMP JUMPDEST PUSH1 0x0 PUSH2 0x13D1 DUP3 PUSH2 0x1366 JUMP JUMPDEST PUSH2 0x13DB DUP2 DUP6 PUSH2 0x1371 JUMP JUMPDEST SWAP4 POP PUSH2 0x13E6 DUP4 PUSH2 0x1382 JUMP JUMPDEST DUP1 PUSH1 0x0 JUMPDEST DUP4 DUP2 LT ISZERO PUSH2 0x1417 JUMPI DUP2 MLOAD PUSH2 0x13FE DUP9 DUP3 PUSH2 0x13A1 JUMP JUMPDEST SWAP8 POP PUSH2 0x1409 DUP4 PUSH2 0x13B9 JUMP JUMPDEST SWAP3 POP POP PUSH1 0x1 DUP2 ADD SWAP1 POP PUSH2 0x13EA JUMP JUMPDEST POP DUP6 SWAP4 POP POP POP POP SWAP3 SWAP2 POP POP JUMP JUMPDEST PUSH1 0x0 PUSH1 0x20 DUP3 ADD SWAP1 POP DUP2 DUP2 SUB PUSH1 0x0 DUP4 ADD MSTORE PUSH2 0x143E DUP2 DUP5 PUSH2 0x13C6 JUMP JUMPDEST SWAP1 POP SWAP3 SWAP2 POP POP JUMP JUMPDEST PUSH1 0x0 PUSH1 0x20 DUP3 DUP5 SUB SLT ISZERO PUSH2 0x145C JUMPI PUSH2 0x145B PUSH2 0x107F JUMP JUMPDEST JUMPDEST PUSH1 0x0 PUSH2 0x146A DUP5 DUP3 DUP6 ADD PUSH2 0x1280 JUMP JUMPDEST SWAP2 POP POP SWAP3 SWAP2 POP POP JUMP JUMPDEST PUSH1 0x0 DUP3 DUP3 MSTORE PUSH1 0x20 DUP3 ADD SWAP1 POP SWAP3 SWAP2 POP POP JUMP JUMPDEST PUSH32 0x47616D6520496E697469616C697A656400000000000000000000000000000000 PUSH1 0x0 DUP3 ADD MSTORE POP JUMP JUMPDEST PUSH1 0x0 PUSH2 0x14BA PUSH1 0x10 DUP4 PUSH2 0x1473 JUMP JUMPDEST SWAP2 POP PUSH2 0x14C5 DUP3 PUSH2 0x1484 JUMP JUMPDEST PUSH1 0x20 DUP3 ADD SWAP1 POP SWAP2 SWAP1 POP JUMP JUMPDEST PUSH1 0x0 PUSH1 0x20 DUP3 ADD SWAP1 POP DUP2 DUP2 SUB PUSH1 0x0 DUP4 ADD MSTORE PUSH2 0x14E9 DUP2 PUSH2 0x14AD JUMP JUMPDEST SWAP1 POP SWAP2 SWAP1 POP JUMP JUMPDEST PUSH32 0x46696E6973686564000000000000000000000000000000000000000000000000 PUSH1 0x0 DUP3 ADD MSTORE POP JUMP JUMPDEST PUSH1 0x0 PUSH2 0x1526 PUSH1 0x8 DUP4 PUSH2 0x1473 JUMP JUMPDEST SWAP2 POP PUSH2 0x1531 DUP3 PUSH2 0x14F0 JUMP JUMPDEST PUSH1 0x20 DUP3 ADD SWAP1 POP SWAP2 SWAP1 POP JUMP JUMPDEST PUSH1 0x0 PUSH1 0x20 DUP3 ADD SWAP1 POP DUP2 DUP2 SUB PUSH1 0x0 DUP4 ADD MSTORE PUSH2 0x1555 DUP2 PUSH2 0x1519 JUMP JUMPDEST SWAP1 POP SWAP2 SWAP1 POP JUMP JUMPDEST PUSH1 0x0 PUSH1 0x40 DUP3 ADD SWAP1 POP PUSH2 0x1571 PUSH1 0x0 DUP4 ADD DUP6 PUSH2 0x1143 JUMP JUMPDEST PUSH2 0x157E PUSH1 0x20 DUP4 ADD DUP5 PUSH2 0x1102 JUMP JUMPDEST SWAP4 SWAP3 POP POP POP JUMP JUMPDEST PUSH2 0x158E DUP2 PUSH2 0x10E7 JUMP JUMPDEST DUP2 EQ PUSH2 0x1599 JUMPI PUSH1 0x0 DUP1 REVERT JUMPDEST POP JUMP JUMPDEST PUSH1 0x0 DUP2 MLOAD SWAP1 POP PUSH2 0x15AB DUP2 PUSH2 0x1585 JUMP JUMPDEST SWAP3 SWAP2 POP POP JUMP JUMPDEST PUSH1 0x0 PUSH1 0x20 DUP3 DUP5 SUB SLT ISZERO PUSH2 0x15C7 JUMPI PUSH2 0x15C6 PUSH2 0x107F JUMP JUMPDEST JUMPDEST PUSH1 0x0 PUSH2 0x15D5 DUP5 DUP3 DUP6 ADD PUSH2 0x159C JUMP JUMPDEST SWAP2 POP POP SWAP3 SWAP2 POP POP JUMP JUMPDEST PUSH32 0x5265776172642073686F756C6420737563636573730000000000000000000000 PUSH1 0x0 DUP3 ADD MSTORE POP JUMP JUMPDEST PUSH1 0x0 PUSH2 0x1614 PUSH1 0x15 DUP4 PUSH2 0x1473 JUMP JUMPDEST SWAP2 POP PUSH2 0x161F DUP3 PUSH2 0x15DE JUMP JUMPDEST PUSH1 0x20 DUP3 ADD SWAP1 POP SWAP2 SWAP1 POP JUMP JUMPDEST PUSH1 0x0 PUSH1 0x20 DUP3 ADD SWAP1 POP DUP2 DUP2 SUB PUSH1 0x0 DUP4 ADD MSTORE PUSH2 0x1643 DUP2 PUSH2 0x1607 JUMP JUMPDEST SWAP1 POP SWAP2 SWAP1 POP JUMP JUMPDEST PUSH1 0x0 DUP2 MLOAD SWAP1 POP PUSH2 0x1659 DUP2 PUSH2 0x108E JUMP JUMPDEST SWAP3 SWAP2 POP POP JUMP JUMPDEST PUSH1 0x0 PUSH1 0x20 DUP3 DUP5 SUB SLT ISZERO PUSH2 0x1675 JUMPI PUSH2 0x1674 PUSH2 0x107F JUMP JUMPDEST JUMPDEST PUSH1 0x0 PUSH2 0x1683 DUP5 DUP3 DUP6 ADD PUSH2 0x164A JUMP JUMPDEST SWAP2 POP POP SWAP3 SWAP2 POP POP JUMP JUMPDEST PUSH32 0x456E6F7567682062616C616E6365000000000000000000000000000000000000 PUSH1 0x0 DUP3 ADD MSTORE POP JUMP JUMPDEST PUSH1 0x0 PUSH2 0x16C2 PUSH1 0xE DUP4 PUSH2 0x1473 JUMP JUMPDEST SWAP2 POP PUSH2 0x16CD DUP3 PUSH2 0x168C JUMP JUMPDEST PUSH1 0x20 DUP3 ADD SWAP1 POP SWAP2 SWAP1 POP JUMP JUMPDEST PUSH1 0x0 PUSH1 0x20 DUP3 ADD SWAP1 POP DUP2 DUP2 SUB PUSH1 0x0 DUP4 ADD MSTORE PUSH2 0x16F1 DUP2 PUSH2 0x16B5 JUMP JUMPDEST SWAP1 POP SWAP2 SWAP1 POP JUMP JUMPDEST PUSH1 0x0 PUSH1 0x60 DUP3 ADD SWAP1 POP PUSH2 0x170D PUSH1 0x0 DUP4 ADD DUP7 PUSH2 0x1143 JUMP JUMPDEST PUSH2 0x171A PUSH1 0x20 DUP4 ADD DUP6 PUSH2 0x1143 JUMP JUMPDEST PUSH2 0x1727 PUSH1 0x40 DUP4 ADD DUP5 PUSH2 0x1102 JUMP JUMPDEST SWAP5 SWAP4 POP POP POP POP JUMP JUMPDEST PUSH32 0x5472616E736665722073686F756C642073756363657373000000000000000000 PUSH1 0x0 DUP3 ADD MSTORE POP JUMP JUMPDEST PUSH1 0x0 PUSH2 0x1765 PUSH1 0x17 DUP4 PUSH2 0x1473 JUMP JUMPDEST SWAP2 POP PUSH2 0x1770 DUP3 PUSH2 0x172F JUMP JUMPDEST PUSH1 0x20 DUP3 ADD SWAP1 POP SWAP2 SWAP1 POP JUMP JUMPDEST PUSH1 0x0 PUSH1 0x20 DUP3 ADD SWAP1 POP DUP2 DUP2 SUB PUSH1 0x0 DUP4 ADD MSTORE PUSH2 0x1794 DUP2 PUSH2 0x1758 JUMP JUMPDEST SWAP1 POP SWAP2 SWAP1 POP JUMP JUMPDEST PUSH32 0x4E487B7100000000000000000000000000000000000000000000000000000000 PUSH1 0x0 MSTORE PUSH1 0x11 PUSH1 0x4 MSTORE PUSH1 0x24 PUSH1 0x0 REVERT JUMPDEST PUSH1 0x0 PUSH2 0x17D5 DUP3 PUSH2 0x1084 JUMP JUMPDEST SWAP2 POP PUSH2 0x17E0 DUP4 PUSH2 0x1084 JUMP JUMPDEST SWAP3 POP DUP3 DUP3 ADD SWAP1 POP DUP1 DUP3 GT ISZERO PUSH2 0x17F8 JUMPI PUSH2 0x17F7 PUSH2 0x179B JUMP JUMPDEST JUMPDEST SWAP3 SWAP2 POP POP JUMP JUMPDEST PUSH32 0x47616D6520657869737473000000000000000000000000000000000000000000 PUSH1 0x0 DUP3 ADD MSTORE POP JUMP JUMPDEST PUSH1 0x0 PUSH2 0x1834 PUSH1 0xB DUP4 PUSH2 0x1473 JUMP JUMPDEST SWAP2 POP PUSH2 0x183F DUP3 PUSH2 0x17FE JUMP JUMPDEST PUSH1 0x20 DUP3 ADD SWAP1 POP SWAP2 SWAP1 POP JUMP JUMPDEST PUSH1 0x0 PUSH1 0x20 DUP3 ADD SWAP1 POP DUP2 DUP2 SUB PUSH1 0x0 DUP4 ADD MSTORE PUSH2 0x1863 DUP2 PUSH2 0x1827 JUMP JUMPDEST SWAP1 POP SWAP2 SWAP1 POP JUMP INVALID LOG2 PUSH5 0x6970667358 0x22 SLT KECCAK256 0x4A 0xBD 0xC4 EXTCODECOPY 0xCE 0xE9 PUSH30 0xB69AD86406BFC1B12493BA2FA6EA46E70A8640FB9CC4FC034064736F6C63 NUMBER STOP ADDMOD SLT STOP CALLER "
				},
				"gasEstimates": {
					"creation": {
						"codeDepositCost": "1260800",
						"executionCost": "infinite",
						"totalCost": "infinite"
					},
					"external": {
						"bet(uint256,uint256)": "infinite",
						"finish(uint256,address)": "infinite",
						"gameIds(uint256)": "infinite",
						"gameUsers(uint256)": "infinite",
						"games(uint256)": "infinite",
						"getBetting(uint256,address)": "infinite",
						"listGameIds()": "infinite",
						"myBetting(uint256)": "infinite",
						"owner()": "2545",
						"renounceOwnership()": "infinite",
						"setErc20(address)": "24990",
						"startGame(uint256)": "73681",
						"tokenContract()": "2559",
						"transferOwnership(address)": "infinite"
					}
				},
				"methodIdentifiers": {
					"bet(uint256,uint256)": "6ffcc719",
					"finish(uint256,address)": "2c32b187",
					"gameIds(uint256)": "d82c13f0",
					"gameUsers(uint256)": "16b169c4",
					"games(uint256)": "117a5b90",
					"getBetting(uint256,address)": "34fcc3e7",
					"listGameIds()": "9bc01b36",
					"myBetting(uint256)": "ce33bd74",
					"owner()": "8da5cb5b",
					"renounceOwnership()": "715018a6",
					"setErc20(address)": "ee9b80a4",
					"startGame(uint256)": "e5ed1d59",
					"tokenContract()": "55a373d6",
					"transferOwnership(address)": "f2fde38b"
				}
			},
			"storageLayout": {
				"storage": [
					{
						"astId": 437,
						"contract": "contracts/4_Hello.sol:Hello",
						"label": "_owner",
						"offset": 0,
						"slot": "0",
						"type": "t_address"
					},
					{
						"astId": 30,
						"contract": "contracts/4_Hello.sol:Hello",
						"label": "games",
						"offset": 0,
						"slot": "1",
						"type": "t_mapping(t_uint256,t_struct(Game)25_storage)"
					},
					{
						"astId": 33,
						"contract": "contracts/4_Hello.sol:Hello",
						"label": "gameIds",
						"offset": 0,
						"slot": "2",
						"type": "t_array(t_uint256)dyn_storage"
					},
					{
						"astId": 35,
						"contract": "contracts/4_Hello.sol:Hello",
						"label": "tokenContract",
						"offset": 0,
						"slot": "3",
						"type": "t_address"
					}
				],
				"types": {
					"t_address": {
						"encoding": "inplace",
						"label": "address",
						"numberOfBytes": "20"
					},
					"t_array(t_address)dyn_storage": {
						"base": "t_address",
						"encoding": "dynamic_array",
						"label": "address[]",
						"numberOfBytes": "32"
					},
					"t_array(t_uint256)dyn_storage": {
						"base": "t_uint256",
						"encoding": "dynamic_array",
						"label": "uint256[]",
						"numberOfBytes": "32"
					},
					"t_bool": {
						"encoding": "inplace",
						"label": "bool",
						"numberOfBytes": "1"
					},
					"t_mapping(t_address,t_uint256)": {
						"encoding": "mapping",
						"key": "t_address",
						"label": "mapping(address => uint256)",
						"numberOfBytes": "32",
						"value": "t_uint256"
					},
					"t_mapping(t_uint256,t_struct(Game)25_storage)": {
						"encoding": "mapping",
						"key": "t_uint256",
						"label": "mapping(uint256 => struct Hello.Game)",
						"numberOfBytes": "32",
						"value": "t_struct(Game)25_storage"
					},
					"t_struct(Game)25_storage": {
						"encoding": "inplace",
						"label": "struct Hello.Game",
						"members": [
							{
								"astId": 13,
								"contract": "contracts/4_Hello.sol:Hello",
								"label": "initialized",
								"offset": 0,
								"slot": "0",
								"type": "t_bool"
							},
							{
								"astId": 17,
								"contract": "contracts/4_Hello.sol:Hello",
								"label": "bettings",
								"offset": 0,
								"slot": "1",
								"type": "t_mapping(t_address,t_uint256)"
							},
							{
								"astId": 19,
								"contract": "contracts/4_Hello.sol:Hello",
								"label": "totalBettings",
								"offset": 0,
								"slot": "2",
								"type": "t_uint256"
							},
							{
								"astId": 22,
								"contract": "contracts/4_Hello.sol:Hello",
								"label": "users",
								"offset": 0,
								"slot": "3",
								"type": "t_array(t_address)dyn_storage"
							},
							{
								"astId": 24,
								"contract": "contracts/4_Hello.sol:Hello",
								"label": "winner",
								"offset": 0,
								"slot": "4",
								"type": "t_address"
							}
						],
						"numberOfBytes": "160"
					},
					"t_uint256": {
						"encoding": "inplace",
						"label": "uint256",
						"numberOfBytes": "32"
					}
				}
			},
			"userdoc": {
				"kind": "user",
				"methods": {},
				"version": 1
			}
		}
	}
}