{
	"contracts/4_Hello.sol": {
		"Hello": {
			"abi": [
				{
					"inputs": [],
					"stateMutability": "nonpayable",
					"type": "constructor"
				},
				{
					"inputs": [
						{
							"internalType": "uint256",
							"name": "",
							"type": "uint256"
						}
					],
					"name": "gameIds",
					"outputs": [
						{
							"internalType": "uint256",
							"name": "",
							"type": "uint256"
						}
					],
					"stateMutability": "view",
					"type": "function"
				},
				{
					"inputs": [
						{
							"internalType": "uint256",
							"name": "",
							"type": "uint256"
						}
					],
					"name": "games",
					"outputs": [
						{
							"internalType": "bool",
							"name": "initialized",
							"type": "bool"
						},
						{
							"internalType": "address",
							"name": "winner",
							"type": "address"
						}
					],
					"stateMutability": "view",
					"type": "function"
				},
				{
					"inputs": [],
					"name": "listGameIds",
					"outputs": [
						{
							"internalType": "uint256[]",
							"name": "",
							"type": "uint256[]"
						}
					],
					"stateMutability": "view",
					"type": "function"
				},
				{
					"inputs": [
						{
							"internalType": "uint256",
							"name": "newId",
							"type": "uint256"
						}
					],
					"name": "startGame",
					"outputs": [
						{
							"internalType": "bool",
							"name": "",
							"type": "bool"
						}
					],
					"stateMutability": "nonpayable",
					"type": "function"
				}
			],
			"devdoc": {
				"details": "Implements voting process along with vote delegation",
				"kind": "dev",
				"methods": {},
				"title": "Ballot",
				"version": 1
			},
			"evm": {
				"assembly": "    /* \"contracts/4_Hello.sol\":126:753  contract Hello {... */\n  mstore(0x40, 0x80)\n    /* \"contracts/4_Hello.sol\":369:391  constructor() {... */\n  callvalue\n  dup1\n  iszero\n  tag_1\n  jumpi\n  0x00\n  dup1\n  revert\ntag_1:\n  pop\n    /* \"contracts/4_Hello.sol\":126:753  contract Hello {... */\n  dataSize(sub_0)\n  dup1\n  dataOffset(sub_0)\n  0x00\n  codecopy\n  0x00\n  return\nstop\n\nsub_0: assembly {\n        /* \"contracts/4_Hello.sol\":126:753  contract Hello {... */\n      mstore(0x40, 0x80)\n      callvalue\n      dup1\n      iszero\n      tag_1\n      jumpi\n      0x00\n      dup1\n      revert\n    tag_1:\n      pop\n      jumpi(tag_2, lt(calldatasize, 0x04))\n      shr(0xe0, calldataload(0x00))\n      dup1\n      0x117a5b90\n      eq\n      tag_3\n      jumpi\n      dup1\n      0x9bc01b36\n      eq\n      tag_4\n      jumpi\n      dup1\n      0xd82c13f0\n      eq\n      tag_5\n      jumpi\n      dup1\n      0xe5ed1d59\n      eq\n      tag_6\n      jumpi\n    tag_2:\n      0x00\n      dup1\n      revert\n        /* \"contracts/4_Hello.sol\":298:332  mapping(uint => Game) public games */\n    tag_3:\n      tag_7\n      0x04\n      dup1\n      calldatasize\n      sub\n      dup2\n      add\n      swap1\n      tag_8\n      swap2\n      swap1\n      tag_9\n      jump\t// in\n    tag_8:\n      tag_10\n      jump\t// in\n    tag_7:\n      mload(0x40)\n      tag_11\n      swap3\n      swap2\n      swap1\n      tag_12\n      jump\t// in\n    tag_11:\n      mload(0x40)\n      dup1\n      swap2\n      sub\n      swap1\n      return\n        /* \"contracts/4_Hello.sol\":658:750  function listGameIds() public view returns (uint[] memory) {... */\n    tag_4:\n      tag_13\n      tag_14\n      jump\t// in\n    tag_13:\n      mload(0x40)\n      tag_15\n      swap2\n      swap1\n      tag_16\n      jump\t// in\n    tag_15:\n      mload(0x40)\n      dup1\n      swap2\n      sub\n      swap1\n      return\n        /* \"contracts/4_Hello.sol\":339:360  uint[] public gameIds */\n    tag_5:\n      tag_17\n      0x04\n      dup1\n      calldatasize\n      sub\n      dup2\n      add\n      swap1\n      tag_18\n      swap2\n      swap1\n      tag_9\n      jump\t// in\n    tag_18:\n      tag_19\n      jump\t// in\n    tag_17:\n      mload(0x40)\n      tag_20\n      swap2\n      swap1\n      tag_21\n      jump\t// in\n    tag_20:\n      mload(0x40)\n      dup1\n      swap2\n      sub\n      swap1\n      return\n        /* \"contracts/4_Hello.sol\":399:650  function startGame(uint newId) public returns (bool) {... */\n    tag_6:\n      tag_22\n      0x04\n      dup1\n      calldatasize\n      sub\n      dup2\n      add\n      swap1\n      tag_23\n      swap2\n      swap1\n      tag_9\n      jump\t// in\n    tag_23:\n      tag_24\n      jump\t// in\n    tag_22:\n      mload(0x40)\n      tag_25\n      swap2\n      swap1\n      tag_26\n      jump\t// in\n    tag_25:\n      mload(0x40)\n      dup1\n      swap2\n      sub\n      swap1\n      return\n        /* \"contracts/4_Hello.sol\":298:332  mapping(uint => Game) public games */\n    tag_10:\n      mstore(0x20, 0x00)\n      dup1\n      0x00\n      mstore\n      keccak256(0x00, 0x40)\n      0x00\n      swap2\n      pop\n      swap1\n      pop\n      dup1\n      0x00\n      add\n      0x00\n      swap1\n      sload\n      swap1\n      0x0100\n      exp\n      swap1\n      div\n      0xff\n      and\n      swap1\n      dup1\n      0x03\n      add\n      0x00\n      swap1\n      sload\n      swap1\n      0x0100\n      exp\n      swap1\n      div\n      0xffffffffffffffffffffffffffffffffffffffff\n      and\n      swap1\n      pop\n      dup3\n      jump\t// out\n        /* \"contracts/4_Hello.sol\":658:750  function listGameIds() public view returns (uint[] memory) {... */\n    tag_14:\n        /* \"contracts/4_Hello.sol\":702:715  uint[] memory */\n      0x60\n        /* \"contracts/4_Hello.sol\":735:742  gameIds */\n      0x01\n        /* \"contracts/4_Hello.sol\":728:742  return gameIds */\n      dup1\n      sload\n      dup1\n      0x20\n      mul\n      0x20\n      add\n      mload(0x40)\n      swap1\n      dup2\n      add\n      0x40\n      mstore\n      dup1\n      swap3\n      swap2\n      swap1\n      dup2\n      dup2\n      mstore\n      0x20\n      add\n      dup3\n      dup1\n      sload\n      dup1\n      iszero\n      tag_28\n      jumpi\n      0x20\n      mul\n      dup3\n      add\n      swap2\n      swap1\n      0x00\n      mstore\n      keccak256(0x00, 0x20)\n      swap1\n    tag_29:\n      dup2\n      sload\n      dup2\n      mstore\n      0x20\n      add\n      swap1\n      0x01\n      add\n      swap1\n      dup1\n      dup4\n      gt\n      tag_29\n      jumpi\n    tag_28:\n      pop\n      pop\n      pop\n      pop\n      pop\n      swap1\n      pop\n        /* \"contracts/4_Hello.sol\":658:750  function listGameIds() public view returns (uint[] memory) {... */\n      swap1\n      jump\t// out\n        /* \"contracts/4_Hello.sol\":339:360  uint[] public gameIds */\n    tag_19:\n      0x01\n      dup2\n      dup2\n      sload\n      dup2\n      lt\n      tag_30\n      jumpi\n      0x00\n      dup1\n      revert\n    tag_30:\n      swap1\n      0x00\n      mstore\n      keccak256(0x00, 0x20)\n      add\n      0x00\n      swap2\n      pop\n      swap1\n      pop\n      sload\n      dup2\n      jump\t// out\n        /* \"contracts/4_Hello.sol\":399:650  function startGame(uint newId) public returns (bool) {... */\n    tag_24:\n        /* \"contracts/4_Hello.sol\":446:450  bool */\n      0x00\n        /* \"contracts/4_Hello.sol\":495:499  true */\n      0x01\n        /* \"contracts/4_Hello.sol\":467:499  games[newId].initialized == true */\n      iszero\n      iszero\n        /* \"contracts/4_Hello.sol\":467:472  games */\n      0x00\n        /* \"contracts/4_Hello.sol\":467:479  games[newId] */\n      dup1\n        /* \"contracts/4_Hello.sol\":473:478  newId */\n      dup5\n        /* \"contracts/4_Hello.sol\":467:479  games[newId] */\n      dup2\n      mstore\n      0x20\n      add\n      swap1\n      dup2\n      mstore\n      0x20\n      add\n      0x00\n      keccak256\n        /* \"contracts/4_Hello.sol\":467:491  games[newId].initialized */\n      0x00\n      add\n      0x00\n      swap1\n      sload\n      swap1\n      0x0100\n      exp\n      swap1\n      div\n      0xff\n      and\n        /* \"contracts/4_Hello.sol\":467:499  games[newId].initialized == true */\n      iszero\n      iszero\n      sub\n        /* \"contracts/4_Hello.sol\":463:549  if (games[newId].initialized == true) {... */\n      tag_33\n      jumpi\n        /* \"contracts/4_Hello.sol\":516:537  revert(\"Game exists\") */\n      mload(0x40)\n      0x08c379a000000000000000000000000000000000000000000000000000000000\n      dup2\n      mstore\n      0x04\n      add\n      tag_34\n      swap1\n      tag_35\n      jump\t// in\n    tag_34:\n      mload(0x40)\n      dup1\n      swap2\n      sub\n      swap1\n      revert\n        /* \"contracts/4_Hello.sol\":463:549  if (games[newId].initialized == true) {... */\n    tag_33:\n        /* \"contracts/4_Hello.sol\":586:590  true */\n      0x01\n        /* \"contracts/4_Hello.sol\":559:564  games */\n      0x00\n        /* \"contracts/4_Hello.sol\":559:571  games[newId] */\n      dup1\n        /* \"contracts/4_Hello.sol\":565:570  newId */\n      dup5\n        /* \"contracts/4_Hello.sol\":559:571  games[newId] */\n      dup2\n      mstore\n      0x20\n      add\n      swap1\n      dup2\n      mstore\n      0x20\n      add\n      0x00\n      keccak256\n        /* \"contracts/4_Hello.sol\":559:583  games[newId].initialized */\n      0x00\n      add\n      0x00\n        /* \"contracts/4_Hello.sol\":559:590  games[newId].initialized = true */\n      0x0100\n      exp\n      dup2\n      sload\n      dup2\n      0xff\n      mul\n      not\n      and\n      swap1\n      dup4\n      iszero\n      iszero\n      mul\n      or\n      swap1\n      sstore\n      pop\n        /* \"contracts/4_Hello.sol\":601:608  gameIds */\n      0x01\n        /* \"contracts/4_Hello.sol\":614:619  newId */\n      dup3\n        /* \"contracts/4_Hello.sol\":601:620  gameIds.push(newId) */\n      swap1\n      dup1\n      0x01\n      dup2\n      sload\n      add\n      dup1\n      dup3\n      sstore\n      dup1\n      swap2\n      pop\n      pop\n      0x01\n      swap1\n      sub\n      swap1\n      0x00\n      mstore\n      keccak256(0x00, 0x20)\n      add\n      0x00\n      swap1\n      swap2\n      swap1\n      swap2\n      swap1\n      swap2\n      pop\n      sstore\n        /* \"contracts/4_Hello.sol\":638:642  true */\n      0x01\n        /* \"contracts/4_Hello.sol\":631:642  return true */\n      swap1\n      pop\n        /* \"contracts/4_Hello.sol\":399:650  function startGame(uint newId) public returns (bool) {... */\n      swap2\n      swap1\n      pop\n      jump\t// out\n        /* \"#utility.yul\":88:205   */\n    tag_38:\n        /* \"#utility.yul\":197:198   */\n      0x00\n        /* \"#utility.yul\":194:195   */\n      dup1\n        /* \"#utility.yul\":187:199   */\n      revert\n        /* \"#utility.yul\":334:411   */\n    tag_40:\n        /* \"#utility.yul\":371:378   */\n      0x00\n        /* \"#utility.yul\":400:405   */\n      dup2\n        /* \"#utility.yul\":389:405   */\n      swap1\n      pop\n        /* \"#utility.yul\":334:411   */\n      swap2\n      swap1\n      pop\n      jump\t// out\n        /* \"#utility.yul\":417:539   */\n    tag_41:\n        /* \"#utility.yul\":490:514   */\n      tag_65\n        /* \"#utility.yul\":508:513   */\n      dup2\n        /* \"#utility.yul\":490:514   */\n      tag_40\n      jump\t// in\n    tag_65:\n        /* \"#utility.yul\":483:488   */\n      dup2\n        /* \"#utility.yul\":480:515   */\n      eq\n        /* \"#utility.yul\":470:533   */\n      tag_66\n      jumpi\n        /* \"#utility.yul\":529:530   */\n      0x00\n        /* \"#utility.yul\":526:527   */\n      dup1\n        /* \"#utility.yul\":519:531   */\n      revert\n        /* \"#utility.yul\":470:533   */\n    tag_66:\n        /* \"#utility.yul\":417:539   */\n      pop\n      jump\t// out\n        /* \"#utility.yul\":545:684   */\n    tag_42:\n        /* \"#utility.yul\":591:596   */\n      0x00\n        /* \"#utility.yul\":629:635   */\n      dup2\n        /* \"#utility.yul\":616:636   */\n      calldataload\n        /* \"#utility.yul\":607:636   */\n      swap1\n      pop\n        /* \"#utility.yul\":645:678   */\n      tag_68\n        /* \"#utility.yul\":672:677   */\n      dup2\n        /* \"#utility.yul\":645:678   */\n      tag_41\n      jump\t// in\n    tag_68:\n        /* \"#utility.yul\":545:684   */\n      swap3\n      swap2\n      pop\n      pop\n      jump\t// out\n        /* \"#utility.yul\":690:1019   */\n    tag_9:\n        /* \"#utility.yul\":749:755   */\n      0x00\n        /* \"#utility.yul\":798:800   */\n      0x20\n        /* \"#utility.yul\":786:795   */\n      dup3\n        /* \"#utility.yul\":777:784   */\n      dup5\n        /* \"#utility.yul\":773:796   */\n      sub\n        /* \"#utility.yul\":769:801   */\n      slt\n        /* \"#utility.yul\":766:885   */\n      iszero\n      tag_70\n      jumpi\n        /* \"#utility.yul\":804:883   */\n      tag_71\n      tag_38\n      jump\t// in\n    tag_71:\n        /* \"#utility.yul\":766:885   */\n    tag_70:\n        /* \"#utility.yul\":924:925   */\n      0x00\n        /* \"#utility.yul\":949:1002   */\n      tag_72\n        /* \"#utility.yul\":994:1001   */\n      dup5\n        /* \"#utility.yul\":985:991   */\n      dup3\n        /* \"#utility.yul\":974:983   */\n      dup6\n        /* \"#utility.yul\":970:992   */\n      add\n        /* \"#utility.yul\":949:1002   */\n      tag_42\n      jump\t// in\n    tag_72:\n        /* \"#utility.yul\":939:1002   */\n      swap2\n      pop\n        /* \"#utility.yul\":895:1012   */\n      pop\n        /* \"#utility.yul\":690:1019   */\n      swap3\n      swap2\n      pop\n      pop\n      jump\t// out\n        /* \"#utility.yul\":1025:1115   */\n    tag_43:\n        /* \"#utility.yul\":1059:1066   */\n      0x00\n        /* \"#utility.yul\":1102:1107   */\n      dup2\n        /* \"#utility.yul\":1095:1108   */\n      iszero\n        /* \"#utility.yul\":1088:1109   */\n      iszero\n        /* \"#utility.yul\":1077:1109   */\n      swap1\n      pop\n        /* \"#utility.yul\":1025:1115   */\n      swap2\n      swap1\n      pop\n      jump\t// out\n        /* \"#utility.yul\":1121:1230   */\n    tag_44:\n        /* \"#utility.yul\":1202:1223   */\n      tag_75\n        /* \"#utility.yul\":1217:1222   */\n      dup2\n        /* \"#utility.yul\":1202:1223   */\n      tag_43\n      jump\t// in\n    tag_75:\n        /* \"#utility.yul\":1197:1200   */\n      dup3\n        /* \"#utility.yul\":1190:1224   */\n      mstore\n        /* \"#utility.yul\":1121:1230   */\n      pop\n      pop\n      jump\t// out\n        /* \"#utility.yul\":1236:1362   */\n    tag_45:\n        /* \"#utility.yul\":1273:1280   */\n      0x00\n        /* \"#utility.yul\":1313:1355   */\n      0xffffffffffffffffffffffffffffffffffffffff\n        /* \"#utility.yul\":1306:1311   */\n      dup3\n        /* \"#utility.yul\":1302:1356   */\n      and\n        /* \"#utility.yul\":1291:1356   */\n      swap1\n      pop\n        /* \"#utility.yul\":1236:1362   */\n      swap2\n      swap1\n      pop\n      jump\t// out\n        /* \"#utility.yul\":1368:1464   */\n    tag_46:\n        /* \"#utility.yul\":1405:1412   */\n      0x00\n        /* \"#utility.yul\":1434:1458   */\n      tag_78\n        /* \"#utility.yul\":1452:1457   */\n      dup3\n        /* \"#utility.yul\":1434:1458   */\n      tag_45\n      jump\t// in\n    tag_78:\n        /* \"#utility.yul\":1423:1458   */\n      swap1\n      pop\n        /* \"#utility.yul\":1368:1464   */\n      swap2\n      swap1\n      pop\n      jump\t// out\n        /* \"#utility.yul\":1470:1588   */\n    tag_47:\n        /* \"#utility.yul\":1557:1581   */\n      tag_80\n        /* \"#utility.yul\":1575:1580   */\n      dup2\n        /* \"#utility.yul\":1557:1581   */\n      tag_46\n      jump\t// in\n    tag_80:\n        /* \"#utility.yul\":1552:1555   */\n      dup3\n        /* \"#utility.yul\":1545:1582   */\n      mstore\n        /* \"#utility.yul\":1470:1588   */\n      pop\n      pop\n      jump\t// out\n        /* \"#utility.yul\":1594:1914   */\n    tag_12:\n        /* \"#utility.yul\":1709:1713   */\n      0x00\n        /* \"#utility.yul\":1747:1749   */\n      0x40\n        /* \"#utility.yul\":1736:1745   */\n      dup3\n        /* \"#utility.yul\":1732:1750   */\n      add\n        /* \"#utility.yul\":1724:1750   */\n      swap1\n      pop\n        /* \"#utility.yul\":1760:1825   */\n      tag_82\n        /* \"#utility.yul\":1822:1823   */\n      0x00\n        /* \"#utility.yul\":1811:1820   */\n      dup4\n        /* \"#utility.yul\":1807:1824   */\n      add\n        /* \"#utility.yul\":1798:1804   */\n      dup6\n        /* \"#utility.yul\":1760:1825   */\n      tag_44\n      jump\t// in\n    tag_82:\n        /* \"#utility.yul\":1835:1907   */\n      tag_83\n        /* \"#utility.yul\":1903:1905   */\n      0x20\n        /* \"#utility.yul\":1892:1901   */\n      dup4\n        /* \"#utility.yul\":1888:1906   */\n      add\n        /* \"#utility.yul\":1879:1885   */\n      dup5\n        /* \"#utility.yul\":1835:1907   */\n      tag_47\n      jump\t// in\n    tag_83:\n        /* \"#utility.yul\":1594:1914   */\n      swap4\n      swap3\n      pop\n      pop\n      pop\n      jump\t// out\n        /* \"#utility.yul\":1920:2034   */\n    tag_48:\n        /* \"#utility.yul\":1987:1993   */\n      0x00\n        /* \"#utility.yul\":2021:2026   */\n      dup2\n        /* \"#utility.yul\":2015:2027   */\n      mload\n        /* \"#utility.yul\":2005:2027   */\n      swap1\n      pop\n        /* \"#utility.yul\":1920:2034   */\n      swap2\n      swap1\n      pop\n      jump\t// out\n        /* \"#utility.yul\":2040:2224   */\n    tag_49:\n        /* \"#utility.yul\":2139:2150   */\n      0x00\n        /* \"#utility.yul\":2173:2179   */\n      dup3\n        /* \"#utility.yul\":2168:2171   */\n      dup3\n        /* \"#utility.yul\":2161:2180   */\n      mstore\n        /* \"#utility.yul\":2213:2217   */\n      0x20\n        /* \"#utility.yul\":2208:2211   */\n      dup3\n        /* \"#utility.yul\":2204:2218   */\n      add\n        /* \"#utility.yul\":2189:2218   */\n      swap1\n      pop\n        /* \"#utility.yul\":2040:2224   */\n      swap3\n      swap2\n      pop\n      pop\n      jump\t// out\n        /* \"#utility.yul\":2230:2362   */\n    tag_50:\n        /* \"#utility.yul\":2297:2301   */\n      0x00\n        /* \"#utility.yul\":2320:2323   */\n      dup2\n        /* \"#utility.yul\":2312:2323   */\n      swap1\n      pop\n        /* \"#utility.yul\":2350:2354   */\n      0x20\n        /* \"#utility.yul\":2345:2348   */\n      dup3\n        /* \"#utility.yul\":2341:2355   */\n      add\n        /* \"#utility.yul\":2333:2355   */\n      swap1\n      pop\n        /* \"#utility.yul\":2230:2362   */\n      swap2\n      swap1\n      pop\n      jump\t// out\n        /* \"#utility.yul\":2368:2476   */\n    tag_51:\n        /* \"#utility.yul\":2445:2469   */\n      tag_88\n        /* \"#utility.yul\":2463:2468   */\n      dup2\n        /* \"#utility.yul\":2445:2469   */\n      tag_40\n      jump\t// in\n    tag_88:\n        /* \"#utility.yul\":2440:2443   */\n      dup3\n        /* \"#utility.yul\":2433:2470   */\n      mstore\n        /* \"#utility.yul\":2368:2476   */\n      pop\n      pop\n      jump\t// out\n        /* \"#utility.yul\":2482:2661   */\n    tag_52:\n        /* \"#utility.yul\":2551:2561   */\n      0x00\n        /* \"#utility.yul\":2572:2618   */\n      tag_90\n        /* \"#utility.yul\":2614:2617   */\n      dup4\n        /* \"#utility.yul\":2606:2612   */\n      dup4\n        /* \"#utility.yul\":2572:2618   */\n      tag_51\n      jump\t// in\n    tag_90:\n        /* \"#utility.yul\":2650:2654   */\n      0x20\n        /* \"#utility.yul\":2645:2648   */\n      dup4\n        /* \"#utility.yul\":2641:2655   */\n      add\n        /* \"#utility.yul\":2627:2655   */\n      swap1\n      pop\n        /* \"#utility.yul\":2482:2661   */\n      swap3\n      swap2\n      pop\n      pop\n      jump\t// out\n        /* \"#utility.yul\":2667:2780   */\n    tag_53:\n        /* \"#utility.yul\":2737:2741   */\n      0x00\n        /* \"#utility.yul\":2769:2773   */\n      0x20\n        /* \"#utility.yul\":2764:2767   */\n      dup3\n        /* \"#utility.yul\":2760:2774   */\n      add\n        /* \"#utility.yul\":2752:2774   */\n      swap1\n      pop\n        /* \"#utility.yul\":2667:2780   */\n      swap2\n      swap1\n      pop\n      jump\t// out\n        /* \"#utility.yul\":2816:3548   */\n    tag_54:\n        /* \"#utility.yul\":2935:2938   */\n      0x00\n        /* \"#utility.yul\":2964:3018   */\n      tag_93\n        /* \"#utility.yul\":3012:3017   */\n      dup3\n        /* \"#utility.yul\":2964:3018   */\n      tag_48\n      jump\t// in\n    tag_93:\n        /* \"#utility.yul\":3034:3120   */\n      tag_94\n        /* \"#utility.yul\":3113:3119   */\n      dup2\n        /* \"#utility.yul\":3108:3111   */\n      dup6\n        /* \"#utility.yul\":3034:3120   */\n      tag_49\n      jump\t// in\n    tag_94:\n        /* \"#utility.yul\":3027:3120   */\n      swap4\n      pop\n        /* \"#utility.yul\":3144:3200   */\n      tag_95\n        /* \"#utility.yul\":3194:3199   */\n      dup4\n        /* \"#utility.yul\":3144:3200   */\n      tag_50\n      jump\t// in\n    tag_95:\n        /* \"#utility.yul\":3223:3230   */\n      dup1\n        /* \"#utility.yul\":3254:3255   */\n      0x00\n        /* \"#utility.yul\":3239:3523   */\n    tag_96:\n        /* \"#utility.yul\":3264:3270   */\n      dup4\n        /* \"#utility.yul\":3261:3262   */\n      dup2\n        /* \"#utility.yul\":3258:3271   */\n      lt\n        /* \"#utility.yul\":3239:3523   */\n      iszero\n      tag_98\n      jumpi\n        /* \"#utility.yul\":3340:3346   */\n      dup2\n        /* \"#utility.yul\":3334:3347   */\n      mload\n        /* \"#utility.yul\":3367:3430   */\n      tag_99\n        /* \"#utility.yul\":3426:3429   */\n      dup9\n        /* \"#utility.yul\":3411:3424   */\n      dup3\n        /* \"#utility.yul\":3367:3430   */\n      tag_52\n      jump\t// in\n    tag_99:\n        /* \"#utility.yul\":3360:3430   */\n      swap8\n      pop\n        /* \"#utility.yul\":3453:3513   */\n      tag_100\n        /* \"#utility.yul\":3506:3512   */\n      dup4\n        /* \"#utility.yul\":3453:3513   */\n      tag_53\n      jump\t// in\n    tag_100:\n        /* \"#utility.yul\":3443:3513   */\n      swap3\n      pop\n        /* \"#utility.yul\":3299:3523   */\n      pop\n        /* \"#utility.yul\":3286:3287   */\n      0x01\n        /* \"#utility.yul\":3283:3284   */\n      dup2\n        /* \"#utility.yul\":3279:3288   */\n      add\n        /* \"#utility.yul\":3274:3288   */\n      swap1\n      pop\n        /* \"#utility.yul\":3239:3523   */\n      jump(tag_96)\n    tag_98:\n        /* \"#utility.yul\":3243:3257   */\n      pop\n        /* \"#utility.yul\":3539:3542   */\n      dup6\n        /* \"#utility.yul\":3532:3542   */\n      swap4\n      pop\n        /* \"#utility.yul\":2940:3548   */\n      pop\n      pop\n      pop\n        /* \"#utility.yul\":2816:3548   */\n      swap3\n      swap2\n      pop\n      pop\n      jump\t// out\n        /* \"#utility.yul\":3554:3927   */\n    tag_16:\n        /* \"#utility.yul\":3697:3701   */\n      0x00\n        /* \"#utility.yul\":3735:3737   */\n      0x20\n        /* \"#utility.yul\":3724:3733   */\n      dup3\n        /* \"#utility.yul\":3720:3738   */\n      add\n        /* \"#utility.yul\":3712:3738   */\n      swap1\n      pop\n        /* \"#utility.yul\":3784:3793   */\n      dup2\n        /* \"#utility.yul\":3778:3782   */\n      dup2\n        /* \"#utility.yul\":3774:3794   */\n      sub\n        /* \"#utility.yul\":3770:3771   */\n      0x00\n        /* \"#utility.yul\":3759:3768   */\n      dup4\n        /* \"#utility.yul\":3755:3772   */\n      add\n        /* \"#utility.yul\":3748:3795   */\n      mstore\n        /* \"#utility.yul\":3812:3920   */\n      tag_102\n        /* \"#utility.yul\":3915:3919   */\n      dup2\n        /* \"#utility.yul\":3906:3912   */\n      dup5\n        /* \"#utility.yul\":3812:3920   */\n      tag_54\n      jump\t// in\n    tag_102:\n        /* \"#utility.yul\":3804:3920   */\n      swap1\n      pop\n        /* \"#utility.yul\":3554:3927   */\n      swap3\n      swap2\n      pop\n      pop\n      jump\t// out\n        /* \"#utility.yul\":3933:4051   */\n    tag_55:\n        /* \"#utility.yul\":4020:4044   */\n      tag_104\n        /* \"#utility.yul\":4038:4043   */\n      dup2\n        /* \"#utility.yul\":4020:4044   */\n      tag_40\n      jump\t// in\n    tag_104:\n        /* \"#utility.yul\":4015:4018   */\n      dup3\n        /* \"#utility.yul\":4008:4045   */\n      mstore\n        /* \"#utility.yul\":3933:4051   */\n      pop\n      pop\n      jump\t// out\n        /* \"#utility.yul\":4057:4279   */\n    tag_21:\n        /* \"#utility.yul\":4150:4154   */\n      0x00\n        /* \"#utility.yul\":4188:4190   */\n      0x20\n        /* \"#utility.yul\":4177:4186   */\n      dup3\n        /* \"#utility.yul\":4173:4191   */\n      add\n        /* \"#utility.yul\":4165:4191   */\n      swap1\n      pop\n        /* \"#utility.yul\":4201:4272   */\n      tag_106\n        /* \"#utility.yul\":4269:4270   */\n      0x00\n        /* \"#utility.yul\":4258:4267   */\n      dup4\n        /* \"#utility.yul\":4254:4271   */\n      add\n        /* \"#utility.yul\":4245:4251   */\n      dup5\n        /* \"#utility.yul\":4201:4272   */\n      tag_55\n      jump\t// in\n    tag_106:\n        /* \"#utility.yul\":4057:4279   */\n      swap3\n      swap2\n      pop\n      pop\n      jump\t// out\n        /* \"#utility.yul\":4285:4495   */\n    tag_26:\n        /* \"#utility.yul\":4372:4376   */\n      0x00\n        /* \"#utility.yul\":4410:4412   */\n      0x20\n        /* \"#utility.yul\":4399:4408   */\n      dup3\n        /* \"#utility.yul\":4395:4413   */\n      add\n        /* \"#utility.yul\":4387:4413   */\n      swap1\n      pop\n        /* \"#utility.yul\":4423:4488   */\n      tag_108\n        /* \"#utility.yul\":4485:4486   */\n      0x00\n        /* \"#utility.yul\":4474:4483   */\n      dup4\n        /* \"#utility.yul\":4470:4487   */\n      add\n        /* \"#utility.yul\":4461:4467   */\n      dup5\n        /* \"#utility.yul\":4423:4488   */\n      tag_44\n      jump\t// in\n    tag_108:\n        /* \"#utility.yul\":4285:4495   */\n      swap3\n      swap2\n      pop\n      pop\n      jump\t// out\n        /* \"#utility.yul\":4501:4670   */\n    tag_56:\n        /* \"#utility.yul\":4585:4596   */\n      0x00\n        /* \"#utility.yul\":4619:4625   */\n      dup3\n        /* \"#utility.yul\":4614:4617   */\n      dup3\n        /* \"#utility.yul\":4607:4626   */\n      mstore\n        /* \"#utility.yul\":4659:4663   */\n      0x20\n        /* \"#utility.yul\":4654:4657   */\n      dup3\n        /* \"#utility.yul\":4650:4664   */\n      add\n        /* \"#utility.yul\":4635:4664   */\n      swap1\n      pop\n        /* \"#utility.yul\":4501:4670   */\n      swap3\n      swap2\n      pop\n      pop\n      jump\t// out\n        /* \"#utility.yul\":4676:4837   */\n    tag_57:\n        /* \"#utility.yul\":4816:4829   */\n      0x47616d6520657869737473000000000000000000000000000000000000000000\n        /* \"#utility.yul\":4812:4813   */\n      0x00\n        /* \"#utility.yul\":4804:4810   */\n      dup3\n        /* \"#utility.yul\":4800:4814   */\n      add\n        /* \"#utility.yul\":4793:4830   */\n      mstore\n        /* \"#utility.yul\":4676:4837   */\n      pop\n      jump\t// out\n        /* \"#utility.yul\":4843:5209   */\n    tag_58:\n        /* \"#utility.yul\":4985:4988   */\n      0x00\n        /* \"#utility.yul\":5006:5073   */\n      tag_112\n        /* \"#utility.yul\":5070:5072   */\n      0x0b\n        /* \"#utility.yul\":5065:5068   */\n      dup4\n        /* \"#utility.yul\":5006:5073   */\n      tag_56\n      jump\t// in\n    tag_112:\n        /* \"#utility.yul\":4999:5073   */\n      swap2\n      pop\n        /* \"#utility.yul\":5082:5175   */\n      tag_113\n        /* \"#utility.yul\":5171:5174   */\n      dup3\n        /* \"#utility.yul\":5082:5175   */\n      tag_57\n      jump\t// in\n    tag_113:\n        /* \"#utility.yul\":5200:5202   */\n      0x20\n        /* \"#utility.yul\":5195:5198   */\n      dup3\n        /* \"#utility.yul\":5191:5203   */\n      add\n        /* \"#utility.yul\":5184:5203   */\n      swap1\n      pop\n        /* \"#utility.yul\":4843:5209   */\n      swap2\n      swap1\n      pop\n      jump\t// out\n        /* \"#utility.yul\":5215:5634   */\n    tag_35:\n        /* \"#utility.yul\":5381:5385   */\n      0x00\n        /* \"#utility.yul\":5419:5421   */\n      0x20\n        /* \"#utility.yul\":5408:5417   */\n      dup3\n        /* \"#utility.yul\":5404:5422   */\n      add\n        /* \"#utility.yul\":5396:5422   */\n      swap1\n      pop\n        /* \"#utility.yul\":5468:5477   */\n      dup2\n        /* \"#utility.yul\":5462:5466   */\n      dup2\n        /* \"#utility.yul\":5458:5478   */\n      sub\n        /* \"#utility.yul\":5454:5455   */\n      0x00\n        /* \"#utility.yul\":5443:5452   */\n      dup4\n        /* \"#utility.yul\":5439:5456   */\n      add\n        /* \"#utility.yul\":5432:5479   */\n      mstore\n        /* \"#utility.yul\":5496:5627   */\n      tag_115\n        /* \"#utility.yul\":5622:5626   */\n      dup2\n        /* \"#utility.yul\":5496:5627   */\n      tag_58\n      jump\t// in\n    tag_115:\n        /* \"#utility.yul\":5488:5627   */\n      swap1\n      pop\n        /* \"#utility.yul\":5215:5634   */\n      swap2\n      swap1\n      pop\n      jump\t// out\n\n    auxdata: 0xa2646970667358221220ecda254c6fe58ac8382b7baee80fb69bac1f49ebe2542bd98aafb15be5c8e2b264736f6c63430008120033\n}\n",
				"bytecode": {
					"linkReferences": {},
					"object": "608060405234801561001057600080fd5b5061055d806100206000396000f3fe608060405234801561001057600080fd5b506004361061004c5760003560e01c8063117a5b90146100515780639bc01b3614610082578063d82c13f0146100a0578063e5ed1d59146100d0575b600080fd5b61006b600480360381019061006691906102d3565b610100565b60405161007992919061035c565b60405180910390f35b61008a610151565b6040516100979190610443565b60405180910390f35b6100ba60048036038101906100b591906102d3565b6101a9565b6040516100c79190610474565b60405180910390f35b6100ea60048036038101906100e591906102d3565b6101cd565b6040516100f7919061048f565b60405180910390f35b60006020528060005260406000206000915090508060000160009054906101000a900460ff16908060030160009054906101000a900473ffffffffffffffffffffffffffffffffffffffff16905082565b6060600180548060200260200160405190810160405280929190818152602001828054801561019f57602002820191906000526020600020905b81548152602001906001019080831161018b575b5050505050905090565b600181815481106101b957600080fd5b906000526020600020016000915090505481565b60006001151560008084815260200190815260200160002060000160009054906101000a900460ff16151503610238576040517f08c379a000000000000000000000000000000000000000000000000000000000815260040161022f90610507565b60405180910390fd5b600160008084815260200190815260200160002060000160006101000a81548160ff021916908315150217905550600182908060018154018082558091505060019003906000526020600020016000909190919091505560019050919050565b600080fd5b6000819050919050565b6102b08161029d565b81146102bb57600080fd5b50565b6000813590506102cd816102a7565b92915050565b6000602082840312156102e9576102e8610298565b5b60006102f7848285016102be565b91505092915050565b60008115159050919050565b61031581610300565b82525050565b600073ffffffffffffffffffffffffffffffffffffffff82169050919050565b60006103468261031b565b9050919050565b6103568161033b565b82525050565b6000604082019050610371600083018561030c565b61037e602083018461034d565b9392505050565b600081519050919050565b600082825260208201905092915050565b6000819050602082019050919050565b6103ba8161029d565b82525050565b60006103cc83836103b1565b60208301905092915050565b6000602082019050919050565b60006103f082610385565b6103fa8185610390565b9350610405836103a1565b8060005b8381101561043657815161041d88826103c0565b9750610428836103d8565b925050600181019050610409565b5085935050505092915050565b6000602082019050818103600083015261045d81846103e5565b905092915050565b61046e8161029d565b82525050565b60006020820190506104896000830184610465565b92915050565b60006020820190506104a4600083018461030c565b92915050565b600082825260208201905092915050565b7f47616d6520657869737473000000000000000000000000000000000000000000600082015250565b60006104f1600b836104aa565b91506104fc826104bb565b602082019050919050565b60006020820190508181036000830152610520816104e4565b905091905056fea2646970667358221220ecda254c6fe58ac8382b7baee80fb69bac1f49ebe2542bd98aafb15be5c8e2b264736f6c63430008120033",
					"opcodes": "PUSH1 0x80 PUSH1 0x40 MSTORE CALLVALUE DUP1 ISZERO PUSH2 0x10 JUMPI PUSH1 0x0 DUP1 REVERT JUMPDEST POP PUSH2 0x55D DUP1 PUSH2 0x20 PUSH1 0x0 CODECOPY PUSH1 0x0 RETURN INVALID PUSH1 0x80 PUSH1 0x40 MSTORE CALLVALUE DUP1 ISZERO PUSH2 0x10 JUMPI PUSH1 0x0 DUP1 REVERT JUMPDEST POP PUSH1 0x4 CALLDATASIZE LT PUSH2 0x4C JUMPI PUSH1 0x0 CALLDATALOAD PUSH1 0xE0 SHR DUP1 PUSH4 0x117A5B90 EQ PUSH2 0x51 JUMPI DUP1 PUSH4 0x9BC01B36 EQ PUSH2 0x82 JUMPI DUP1 PUSH4 0xD82C13F0 EQ PUSH2 0xA0 JUMPI DUP1 PUSH4 0xE5ED1D59 EQ PUSH2 0xD0 JUMPI JUMPDEST PUSH1 0x0 DUP1 REVERT JUMPDEST PUSH2 0x6B PUSH1 0x4 DUP1 CALLDATASIZE SUB DUP2 ADD SWAP1 PUSH2 0x66 SWAP2 SWAP1 PUSH2 0x2D3 JUMP JUMPDEST PUSH2 0x100 JUMP JUMPDEST PUSH1 0x40 MLOAD PUSH2 0x79 SWAP3 SWAP2 SWAP1 PUSH2 0x35C JUMP JUMPDEST PUSH1 0x40 MLOAD DUP1 SWAP2 SUB SWAP1 RETURN JUMPDEST PUSH2 0x8A PUSH2 0x151 JUMP JUMPDEST PUSH1 0x40 MLOAD PUSH2 0x97 SWAP2 SWAP1 PUSH2 0x443 JUMP JUMPDEST PUSH1 0x40 MLOAD DUP1 SWAP2 SUB SWAP1 RETURN JUMPDEST PUSH2 0xBA PUSH1 0x4 DUP1 CALLDATASIZE SUB DUP2 ADD SWAP1 PUSH2 0xB5 SWAP2 SWAP1 PUSH2 0x2D3 JUMP JUMPDEST PUSH2 0x1A9 JUMP JUMPDEST PUSH1 0x40 MLOAD PUSH2 0xC7 SWAP2 SWAP1 PUSH2 0x474 JUMP JUMPDEST PUSH1 0x40 MLOAD DUP1 SWAP2 SUB SWAP1 RETURN JUMPDEST PUSH2 0xEA PUSH1 0x4 DUP1 CALLDATASIZE SUB DUP2 ADD SWAP1 PUSH2 0xE5 SWAP2 SWAP1 PUSH2 0x2D3 JUMP JUMPDEST PUSH2 0x1CD JUMP JUMPDEST PUSH1 0x40 MLOAD PUSH2 0xF7 SWAP2 SWAP1 PUSH2 0x48F JUMP JUMPDEST PUSH1 0x40 MLOAD DUP1 SWAP2 SUB SWAP1 RETURN JUMPDEST PUSH1 0x0 PUSH1 0x20 MSTORE DUP1 PUSH1 0x0 MSTORE PUSH1 0x40 PUSH1 0x0 KECCAK256 PUSH1 0x0 SWAP2 POP SWAP1 POP DUP1 PUSH1 0x0 ADD PUSH1 0x0 SWAP1 SLOAD SWAP1 PUSH2 0x100 EXP SWAP1 DIV PUSH1 0xFF AND SWAP1 DUP1 PUSH1 0x3 ADD PUSH1 0x0 SWAP1 SLOAD SWAP1 PUSH2 0x100 EXP SWAP1 DIV PUSH20 0xFFFFFFFFFFFFFFFFFFFFFFFFFFFFFFFFFFFFFFFF AND SWAP1 POP DUP3 JUMP JUMPDEST PUSH1 0x60 PUSH1 0x1 DUP1 SLOAD DUP1 PUSH1 0x20 MUL PUSH1 0x20 ADD PUSH1 0x40 MLOAD SWAP1 DUP2 ADD PUSH1 0x40 MSTORE DUP1 SWAP3 SWAP2 SWAP1 DUP2 DUP2 MSTORE PUSH1 0x20 ADD DUP3 DUP1 SLOAD DUP1 ISZERO PUSH2 0x19F JUMPI PUSH1 0x20 MUL DUP3 ADD SWAP2 SWAP1 PUSH1 0x0 MSTORE PUSH1 0x20 PUSH1 0x0 KECCAK256 SWAP1 JUMPDEST DUP2 SLOAD DUP2 MSTORE PUSH1 0x20 ADD SWAP1 PUSH1 0x1 ADD SWAP1 DUP1 DUP4 GT PUSH2 0x18B JUMPI JUMPDEST POP POP POP POP POP SWAP1 POP SWAP1 JUMP JUMPDEST PUSH1 0x1 DUP2 DUP2 SLOAD DUP2 LT PUSH2 0x1B9 JUMPI PUSH1 0x0 DUP1 REVERT JUMPDEST SWAP1 PUSH1 0x0 MSTORE PUSH1 0x20 PUSH1 0x0 KECCAK256 ADD PUSH1 0x0 SWAP2 POP SWAP1 POP SLOAD DUP2 JUMP JUMPDEST PUSH1 0x0 PUSH1 0x1 ISZERO ISZERO PUSH1 0x0 DUP1 DUP5 DUP2 MSTORE PUSH1 0x20 ADD SWAP1 DUP2 MSTORE PUSH1 0x20 ADD PUSH1 0x0 KECCAK256 PUSH1 0x0 ADD PUSH1 0x0 SWAP1 SLOAD SWAP1 PUSH2 0x100 EXP SWAP1 DIV PUSH1 0xFF AND ISZERO ISZERO SUB PUSH2 0x238 JUMPI PUSH1 0x40 MLOAD PUSH32 0x8C379A000000000000000000000000000000000000000000000000000000000 DUP2 MSTORE PUSH1 0x4 ADD PUSH2 0x22F SWAP1 PUSH2 0x507 JUMP JUMPDEST PUSH1 0x40 MLOAD DUP1 SWAP2 SUB SWAP1 REVERT JUMPDEST PUSH1 0x1 PUSH1 0x0 DUP1 DUP5 DUP2 MSTORE PUSH1 0x20 ADD SWAP1 DUP2 MSTORE PUSH1 0x20 ADD PUSH1 0x0 KECCAK256 PUSH1 0x0 ADD PUSH1 0x0 PUSH2 0x100 EXP DUP2 SLOAD DUP2 PUSH1 0xFF MUL NOT AND SWAP1 DUP4 ISZERO ISZERO MUL OR SWAP1 SSTORE POP PUSH1 0x1 DUP3 SWAP1 DUP1 PUSH1 0x1 DUP2 SLOAD ADD DUP1 DUP3 SSTORE DUP1 SWAP2 POP POP PUSH1 0x1 SWAP1 SUB SWAP1 PUSH1 0x0 MSTORE PUSH1 0x20 PUSH1 0x0 KECCAK256 ADD PUSH1 0x0 SWAP1 SWAP2 SWAP1 SWAP2 SWAP1 SWAP2 POP SSTORE PUSH1 0x1 SWAP1 POP SWAP2 SWAP1 POP JUMP JUMPDEST PUSH1 0x0 DUP1 REVERT JUMPDEST PUSH1 0x0 DUP2 SWAP1 POP SWAP2 SWAP1 POP JUMP JUMPDEST PUSH2 0x2B0 DUP2 PUSH2 0x29D JUMP JUMPDEST DUP2 EQ PUSH2 0x2BB JUMPI PUSH1 0x0 DUP1 REVERT JUMPDEST POP JUMP JUMPDEST PUSH1 0x0 DUP2 CALLDATALOAD SWAP1 POP PUSH2 0x2CD DUP2 PUSH2 0x2A7 JUMP JUMPDEST SWAP3 SWAP2 POP POP JUMP JUMPDEST PUSH1 0x0 PUSH1 0x20 DUP3 DUP5 SUB SLT ISZERO PUSH2 0x2E9 JUMPI PUSH2 0x2E8 PUSH2 0x298 JUMP JUMPDEST JUMPDEST PUSH1 0x0 PUSH2 0x2F7 DUP5 DUP3 DUP6 ADD PUSH2 0x2BE JUMP JUMPDEST SWAP2 POP POP SWAP3 SWAP2 POP POP JUMP JUMPDEST PUSH1 0x0 DUP2 ISZERO ISZERO SWAP1 POP SWAP2 SWAP1 POP JUMP JUMPDEST PUSH2 0x315 DUP2 PUSH2 0x300 JUMP JUMPDEST DUP3 MSTORE POP POP JUMP JUMPDEST PUSH1 0x0 PUSH20 0xFFFFFFFFFFFFFFFFFFFFFFFFFFFFFFFFFFFFFFFF DUP3 AND SWAP1 POP SWAP2 SWAP1 POP JUMP JUMPDEST PUSH1 0x0 PUSH2 0x346 DUP3 PUSH2 0x31B JUMP JUMPDEST SWAP1 POP SWAP2 SWAP1 POP JUMP JUMPDEST PUSH2 0x356 DUP2 PUSH2 0x33B JUMP JUMPDEST DUP3 MSTORE POP POP JUMP JUMPDEST PUSH1 0x0 PUSH1 0x40 DUP3 ADD SWAP1 POP PUSH2 0x371 PUSH1 0x0 DUP4 ADD DUP6 PUSH2 0x30C JUMP JUMPDEST PUSH2 0x37E PUSH1 0x20 DUP4 ADD DUP5 PUSH2 0x34D JUMP JUMPDEST SWAP4 SWAP3 POP POP POP JUMP JUMPDEST PUSH1 0x0 DUP2 MLOAD SWAP1 POP SWAP2 SWAP1 POP JUMP JUMPDEST PUSH1 0x0 DUP3 DUP3 MSTORE PUSH1 0x20 DUP3 ADD SWAP1 POP SWAP3 SWAP2 POP POP JUMP JUMPDEST PUSH1 0x0 DUP2 SWAP1 POP PUSH1 0x20 DUP3 ADD SWAP1 POP SWAP2 SWAP1 POP JUMP JUMPDEST PUSH2 0x3BA DUP2 PUSH2 0x29D JUMP JUMPDEST DUP3 MSTORE POP POP JUMP JUMPDEST PUSH1 0x0 PUSH2 0x3CC DUP4 DUP4 PUSH2 0x3B1 JUMP JUMPDEST PUSH1 0x20 DUP4 ADD SWAP1 POP SWAP3 SWAP2 POP POP JUMP JUMPDEST PUSH1 0x0 PUSH1 0x20 DUP3 ADD SWAP1 POP SWAP2 SWAP1 POP JUMP JUMPDEST PUSH1 0x0 PUSH2 0x3F0 DUP3 PUSH2 0x385 JUMP JUMPDEST PUSH2 0x3FA DUP2 DUP6 PUSH2 0x390 JUMP JUMPDEST SWAP4 POP PUSH2 0x405 DUP4 PUSH2 0x3A1 JUMP JUMPDEST DUP1 PUSH1 0x0 JUMPDEST DUP4 DUP2 LT ISZERO PUSH2 0x436 JUMPI DUP2 MLOAD PUSH2 0x41D DUP9 DUP3 PUSH2 0x3C0 JUMP JUMPDEST SWAP8 POP PUSH2 0x428 DUP4 PUSH2 0x3D8 JUMP JUMPDEST SWAP3 POP POP PUSH1 0x1 DUP2 ADD SWAP1 POP PUSH2 0x409 JUMP JUMPDEST POP DUP6 SWAP4 POP POP POP POP SWAP3 SWAP2 POP POP JUMP JUMPDEST PUSH1 0x0 PUSH1 0x20 DUP3 ADD SWAP1 POP DUP2 DUP2 SUB PUSH1 0x0 DUP4 ADD MSTORE PUSH2 0x45D DUP2 DUP5 PUSH2 0x3E5 JUMP JUMPDEST SWAP1 POP SWAP3 SWAP2 POP POP JUMP JUMPDEST PUSH2 0x46E DUP2 PUSH2 0x29D JUMP JUMPDEST DUP3 MSTORE POP POP JUMP JUMPDEST PUSH1 0x0 PUSH1 0x20 DUP3 ADD SWAP1 POP PUSH2 0x489 PUSH1 0x0 DUP4 ADD DUP5 PUSH2 0x465 JUMP JUMPDEST SWAP3 SWAP2 POP POP JUMP JUMPDEST PUSH1 0x0 PUSH1 0x20 DUP3 ADD SWAP1 POP PUSH2 0x4A4 PUSH1 0x0 DUP4 ADD DUP5 PUSH2 0x30C JUMP JUMPDEST SWAP3 SWAP2 POP POP JUMP JUMPDEST PUSH1 0x0 DUP3 DUP3 MSTORE PUSH1 0x20 DUP3 ADD SWAP1 POP SWAP3 SWAP2 POP POP JUMP JUMPDEST PUSH32 0x47616D6520657869737473000000000000000000000000000000000000000000 PUSH1 0x0 DUP3 ADD MSTORE POP JUMP JUMPDEST PUSH1 0x0 PUSH2 0x4F1 PUSH1 0xB DUP4 PUSH2 0x4AA JUMP JUMPDEST SWAP2 POP PUSH2 0x4FC DUP3 PUSH2 0x4BB JUMP JUMPDEST PUSH1 0x20 DUP3 ADD SWAP1 POP SWAP2 SWAP1 POP JUMP JUMPDEST PUSH1 0x0 PUSH1 0x20 DUP3 ADD SWAP1 POP DUP2 DUP2 SUB PUSH1 0x0 DUP4 ADD MSTORE PUSH2 0x520 DUP2 PUSH2 0x4E4 JUMP JUMPDEST SWAP1 POP SWAP2 SWAP1 POP JUMP INVALID LOG2 PUSH5 0x6970667358 0x22 SLT KECCAK256 0xEC 0xDA 0x25 0x4C PUSH16 0xE58AC8382B7BAEE80FB69BAC1F49EBE2 SLOAD 0x2B 0xD9 DUP11 0xAF 0xB1 JUMPDEST 0xE5 0xC8 0xE2 0xB2 PUSH5 0x736F6C6343 STOP ADDMOD SLT STOP CALLER "
				},
				"gasEstimates": {
					"creation": {
						"codeDepositCost": "274600",
						"executionCost": "312",
						"totalCost": "274912"
					},
					"external": {
						"gameIds(uint256)": "infinite",
						"games(uint256)": "5096",
						"listGameIds()": "infinite",
						"startGame(uint256)": "73681"
					}
				},
				"methodIdentifiers": {
					"gameIds(uint256)": "d82c13f0",
					"games(uint256)": "117a5b90",
					"listGameIds()": "9bc01b36",
					"startGame(uint256)": "e5ed1d59"
				}
			},
			"storageLayout": {
				"storage": [
					{
						"astId": 19,
						"contract": "contracts/4_Hello.sol:Hello",
						"label": "games",
						"offset": 0,
						"slot": "0",
						"type": "t_mapping(t_uint256,t_struct(Game)14_storage)"
					},
					{
						"astId": 22,
						"contract": "contracts/4_Hello.sol:Hello",
						"label": "gameIds",
						"offset": 0,
						"slot": "1",
						"type": "t_array(t_uint256)dyn_storage"
					}
				],
				"types": {
					"t_address": {
						"encoding": "inplace",
						"label": "address",
						"numberOfBytes": "20"
					},
					"t_array(t_address)dyn_storage": {
						"base": "t_address",
						"encoding": "dynamic_array",
						"label": "address[]",
						"numberOfBytes": "32"
					},
					"t_array(t_uint256)dyn_storage": {
						"base": "t_uint256",
						"encoding": "dynamic_array",
						"label": "uint256[]",
						"numberOfBytes": "32"
					},
					"t_bool": {
						"encoding": "inplace",
						"label": "bool",
						"numberOfBytes": "1"
					},
					"t_mapping(t_address,t_uint256)": {
						"encoding": "mapping",
						"key": "t_address",
						"label": "mapping(address => uint256)",
						"numberOfBytes": "32",
						"value": "t_uint256"
					},
					"t_mapping(t_uint256,t_struct(Game)14_storage)": {
						"encoding": "mapping",
						"key": "t_uint256",
						"label": "mapping(uint256 => struct Hello.Game)",
						"numberOfBytes": "32",
						"value": "t_struct(Game)14_storage"
					},
					"t_struct(Game)14_storage": {
						"encoding": "inplace",
						"label": "struct Hello.Game",
						"members": [
							{
								"astId": 4,
								"contract": "contracts/4_Hello.sol:Hello",
								"label": "initialized",
								"offset": 0,
								"slot": "0",
								"type": "t_bool"
							},
							{
								"astId": 8,
								"contract": "contracts/4_Hello.sol:Hello",
								"label": "bettings",
								"offset": 0,
								"slot": "1",
								"type": "t_mapping(t_address,t_uint256)"
							},
							{
								"astId": 11,
								"contract": "contracts/4_Hello.sol:Hello",
								"label": "users",
								"offset": 0,
								"slot": "2",
								"type": "t_array(t_address)dyn_storage"
							},
							{
								"astId": 13,
								"contract": "contracts/4_Hello.sol:Hello",
								"label": "winner",
								"offset": 0,
								"slot": "3",
								"type": "t_address"
							}
						],
						"numberOfBytes": "128"
					},
					"t_uint256": {
						"encoding": "inplace",
						"label": "uint256",
						"numberOfBytes": "32"
					}
				}
			},
			"userdoc": {
				"kind": "user",
				"methods": {},
				"version": 1
			}
		}
	}
}