{
	"contracts/4_Hello.sol": {
		"Hello": {
			"abi": [
				{
					"inputs": [
						{
							"internalType": "address",
							"name": "initialOwner",
							"type": "address"
						}
					],
					"stateMutability": "nonpayable",
					"type": "constructor"
				},
				{
					"inputs": [
						{
							"internalType": "address",
							"name": "owner",
							"type": "address"
						}
					],
					"name": "OwnableInvalidOwner",
					"type": "error"
				},
				{
					"inputs": [
						{
							"internalType": "address",
							"name": "account",
							"type": "address"
						}
					],
					"name": "OwnableUnauthorizedAccount",
					"type": "error"
				},
				{
					"anonymous": false,
					"inputs": [
						{
							"indexed": true,
							"internalType": "address",
							"name": "previousOwner",
							"type": "address"
						},
						{
							"indexed": true,
							"internalType": "address",
							"name": "newOwner",
							"type": "address"
						}
					],
					"name": "OwnershipTransferred",
					"type": "event"
				},
				{
					"inputs": [
						{
							"internalType": "uint256",
							"name": "gameId",
							"type": "uint256"
						},
						{
							"internalType": "uint256",
							"name": "amount",
							"type": "uint256"
						}
					],
					"name": "bet",
					"outputs": [
						{
							"internalType": "bool",
							"name": "",
							"type": "bool"
						}
					],
					"stateMutability": "nonpayable",
					"type": "function"
				},
				{
					"inputs": [
						{
							"internalType": "uint256",
							"name": "gameId",
							"type": "uint256"
						},
						{
							"internalType": "address",
							"name": "winner",
							"type": "address"
						}
					],
					"name": "finish",
					"outputs": [
						{
							"internalType": "uint256",
							"name": "",
							"type": "uint256"
						}
					],
					"stateMutability": "nonpayable",
					"type": "function"
				},
				{
					"inputs": [
						{
							"internalType": "uint256",
							"name": "",
							"type": "uint256"
						}
					],
					"name": "gameIds",
					"outputs": [
						{
							"internalType": "uint256",
							"name": "",
							"type": "uint256"
						}
					],
					"stateMutability": "view",
					"type": "function"
				},
				{
					"inputs": [
						{
							"internalType": "uint256",
							"name": "gameId",
							"type": "uint256"
						}
					],
					"name": "gameUsers",
					"outputs": [
						{
							"internalType": "address[]",
							"name": "",
							"type": "address[]"
						}
					],
					"stateMutability": "view",
					"type": "function"
				},
				{
					"inputs": [
						{
							"internalType": "uint256",
							"name": "",
							"type": "uint256"
						}
					],
					"name": "games",
					"outputs": [
						{
							"internalType": "bool",
							"name": "initialized",
							"type": "bool"
						},
						{
							"internalType": "uint256",
							"name": "totalBettings",
							"type": "uint256"
						},
						{
							"internalType": "address",
							"name": "winner",
							"type": "address"
						}
					],
					"stateMutability": "view",
					"type": "function"
				},
				{
					"inputs": [
						{
							"internalType": "uint256",
							"name": "gameId",
							"type": "uint256"
						},
						{
							"internalType": "address",
							"name": "better",
							"type": "address"
						}
					],
					"name": "getBetting",
					"outputs": [
						{
							"internalType": "uint256",
							"name": "",
							"type": "uint256"
						}
					],
					"stateMutability": "view",
					"type": "function"
				},
				{
					"inputs": [],
					"name": "listGameIds",
					"outputs": [
						{
							"internalType": "uint256[]",
							"name": "",
							"type": "uint256[]"
						}
					],
					"stateMutability": "view",
					"type": "function"
				},
				{
					"inputs": [
						{
							"internalType": "uint256",
							"name": "gameId",
							"type": "uint256"
						}
					],
					"name": "myBetting",
					"outputs": [
						{
							"internalType": "uint256",
							"name": "",
							"type": "uint256"
						}
					],
					"stateMutability": "view",
					"type": "function"
				},
				{
					"inputs": [],
					"name": "owner",
					"outputs": [
						{
							"internalType": "address",
							"name": "",
							"type": "address"
						}
					],
					"stateMutability": "view",
					"type": "function"
				},
				{
					"inputs": [],
					"name": "renounceOwnership",
					"outputs": [],
					"stateMutability": "nonpayable",
					"type": "function"
				},
				{
					"inputs": [
						{
							"internalType": "address",
							"name": "newContract",
							"type": "address"
						}
					],
					"name": "setErc20",
					"outputs": [
						{
							"internalType": "bool",
							"name": "",
							"type": "bool"
						}
					],
					"stateMutability": "nonpayable",
					"type": "function"
				},
				{
					"inputs": [
						{
							"internalType": "uint256",
							"name": "newId",
							"type": "uint256"
						}
					],
					"name": "startGame",
					"outputs": [
						{
							"internalType": "bool",
							"name": "",
							"type": "bool"
						}
					],
					"stateMutability": "nonpayable",
					"type": "function"
				},
				{
					"inputs": [],
					"name": "tokenContract",
					"outputs": [
						{
							"internalType": "address",
							"name": "",
							"type": "address"
						}
					],
					"stateMutability": "view",
					"type": "function"
				},
				{
					"inputs": [
						{
							"internalType": "address",
							"name": "newOwner",
							"type": "address"
						}
					],
					"name": "transferOwnership",
					"outputs": [],
					"stateMutability": "nonpayable",
					"type": "function"
				}
			],
			"devdoc": {
				"details": "Implements voting process along with vote delegation",
				"errors": {
					"OwnableInvalidOwner(address)": [
						{
							"details": "The owner is not a valid owner account. (eg. `address(0)`)"
						}
					],
					"OwnableUnauthorizedAccount(address)": [
						{
							"details": "The caller account is not authorized to perform an operation."
						}
					]
				},
				"kind": "dev",
				"methods": {
					"owner()": {
						"details": "Returns the address of the current owner."
					},
					"renounceOwnership()": {
						"details": "Leaves the contract without owner. It will not be possible to call `onlyOwner` functions. Can only be called by the current owner. NOTE: Renouncing ownership will leave the contract without an owner, thereby disabling any functionality that is only available to the owner."
					},
					"transferOwnership(address)": {
						"details": "Transfers ownership of the contract to a new account (`newOwner`). Can only be called by the current owner."
					}
				},
				"title": "Ballot",
				"version": 1
			},
			"evm": {
				"assembly": "    /* \"contracts/4_Hello.sol\":246:2599  contract Hello is Context, Ownable {... */\n  mstore(0x40, 0x80)\n    /* \"contracts/4_Hello.sol\":594:668  constructor(address initialOwner) Ownable(initialOwner) {... */\n  callvalue\n  dup1\n  iszero\n  tag_1\n  jumpi\n  0x00\n  dup1\n  revert\ntag_1:\n  pop\n  mload(0x40)\n  sub(codesize, bytecodeSize)\n  dup1\n  bytecodeSize\n  dup4\n  codecopy\n  dup2\n  dup2\n  add\n  0x40\n  mstore\n  dup2\n  add\n  swap1\n  tag_2\n  swap2\n  swap1\n  tag_3\n  jump\t// in\ntag_2:\n    /* \"contracts/4_Hello.sol\":636:648  initialOwner */\n  dup1\n    /* \"contracts/ownable.sol\":1335:1336  0 */\n  0x00\n    /* \"contracts/ownable.sol\":1311:1337  initialOwner == address(0) */\n  0xffffffffffffffffffffffffffffffffffffffff\n  and\n    /* \"contracts/ownable.sol\":1311:1323  initialOwner */\n  dup2\n    /* \"contracts/ownable.sol\":1311:1337  initialOwner == address(0) */\n  0xffffffffffffffffffffffffffffffffffffffff\n  and\n  sub\n    /* \"contracts/ownable.sol\":1307:1404  if (initialOwner == address(0)) {... */\n  tag_7\n  jumpi\n    /* \"contracts/ownable.sol\":1389:1390  0 */\n  0x00\n    /* \"contracts/ownable.sol\":1361:1392  OwnableInvalidOwner(address(0)) */\n  mload(0x40)\n  0x1e4fbdf700000000000000000000000000000000000000000000000000000000\n  dup2\n  mstore\n  0x04\n  add\n  tag_8\n  swap2\n  swap1\n  tag_9\n  jump\t// in\ntag_8:\n  mload(0x40)\n  dup1\n  swap2\n  sub\n  swap1\n  revert\n    /* \"contracts/ownable.sol\":1307:1404  if (initialOwner == address(0)) {... */\ntag_7:\n    /* \"contracts/ownable.sol\":1414:1446  _transferOwnership(initialOwner) */\n  tag_10\n    /* \"contracts/ownable.sol\":1433:1445  initialOwner */\n  dup2\n    /* \"contracts/ownable.sol\":1414:1432  _transferOwnership */\n  shl(0x20, tag_11)\n    /* \"contracts/ownable.sol\":1414:1446  _transferOwnership(initialOwner) */\n  0x20\n  shr\n  jump\t// in\ntag_10:\n    /* \"contracts/ownable.sol\":1262:1454  constructor(address initialOwner) {... */\n  pop\n    /* \"contracts/4_Hello.sol\":594:668  constructor(address initialOwner) Ownable(initialOwner) {... */\n  pop\n    /* \"contracts/4_Hello.sol\":246:2599  contract Hello is Context, Ownable {... */\n  jump(tag_13)\n    /* \"contracts/ownable.sol\":3006:3197  function _transferOwnership(address newOwner) internal virtual {... */\ntag_11:\n    /* \"contracts/ownable.sol\":3080:3096  address oldOwner */\n  0x00\n    /* \"contracts/ownable.sol\":3099:3105  _owner */\n  dup1\n  0x00\n  swap1\n  sload\n  swap1\n  0x0100\n  exp\n  swap1\n  div\n  0xffffffffffffffffffffffffffffffffffffffff\n  and\n    /* \"contracts/ownable.sol\":3080:3105  address oldOwner = _owner */\n  swap1\n  pop\n    /* \"contracts/ownable.sol\":3125:3133  newOwner */\n  dup2\n    /* \"contracts/ownable.sol\":3116:3122  _owner */\n  0x00\n  dup1\n    /* \"contracts/ownable.sol\":3116:3133  _owner = newOwner */\n  0x0100\n  exp\n  dup2\n  sload\n  dup2\n  0xffffffffffffffffffffffffffffffffffffffff\n  mul\n  not\n  and\n  swap1\n  dup4\n  0xffffffffffffffffffffffffffffffffffffffff\n  and\n  mul\n  or\n  swap1\n  sstore\n  pop\n    /* \"contracts/ownable.sol\":3180:3188  newOwner */\n  dup2\n    /* \"contracts/ownable.sol\":3149:3189  OwnershipTransferred(oldOwner, newOwner) */\n  0xffffffffffffffffffffffffffffffffffffffff\n  and\n    /* \"contracts/ownable.sol\":3170:3178  oldOwner */\n  dup2\n    /* \"contracts/ownable.sol\":3149:3189  OwnershipTransferred(oldOwner, newOwner) */\n  0xffffffffffffffffffffffffffffffffffffffff\n  and\n  0x8be0079c531659141344cd1fd0a4f28419497f9722a3daafe3b4186f6b6457e0\n  mload(0x40)\n  mload(0x40)\n  dup1\n  swap2\n  sub\n  swap1\n  log3\n    /* \"contracts/ownable.sol\":3069:3197  {... */\n  pop\n    /* \"contracts/ownable.sol\":3006:3197  function _transferOwnership(address newOwner) internal virtual {... */\n  pop\n  jump\t// out\n    /* \"#utility.yul\":88:205   */\ntag_16:\n    /* \"#utility.yul\":197:198   */\n  0x00\n    /* \"#utility.yul\":194:195   */\n  dup1\n    /* \"#utility.yul\":187:199   */\n  revert\n    /* \"#utility.yul\":334:460   */\ntag_18:\n    /* \"#utility.yul\":371:378   */\n  0x00\n    /* \"#utility.yul\":411:453   */\n  0xffffffffffffffffffffffffffffffffffffffff\n    /* \"#utility.yul\":404:409   */\n  dup3\n    /* \"#utility.yul\":400:454   */\n  and\n    /* \"#utility.yul\":389:454   */\n  swap1\n  pop\n    /* \"#utility.yul\":334:460   */\n  swap2\n  swap1\n  pop\n  jump\t// out\n    /* \"#utility.yul\":466:562   */\ntag_19:\n    /* \"#utility.yul\":503:510   */\n  0x00\n    /* \"#utility.yul\":532:556   */\n  tag_29\n    /* \"#utility.yul\":550:555   */\n  dup3\n    /* \"#utility.yul\":532:556   */\n  tag_18\n  jump\t// in\ntag_29:\n    /* \"#utility.yul\":521:556   */\n  swap1\n  pop\n    /* \"#utility.yul\":466:562   */\n  swap2\n  swap1\n  pop\n  jump\t// out\n    /* \"#utility.yul\":568:690   */\ntag_20:\n    /* \"#utility.yul\":641:665   */\n  tag_31\n    /* \"#utility.yul\":659:664   */\n  dup2\n    /* \"#utility.yul\":641:665   */\n  tag_19\n  jump\t// in\ntag_31:\n    /* \"#utility.yul\":634:639   */\n  dup2\n    /* \"#utility.yul\":631:666   */\n  eq\n    /* \"#utility.yul\":621:684   */\n  tag_32\n  jumpi\n    /* \"#utility.yul\":680:681   */\n  0x00\n    /* \"#utility.yul\":677:678   */\n  dup1\n    /* \"#utility.yul\":670:682   */\n  revert\n    /* \"#utility.yul\":621:684   */\ntag_32:\n    /* \"#utility.yul\":568:690   */\n  pop\n  jump\t// out\n    /* \"#utility.yul\":696:839   */\ntag_21:\n    /* \"#utility.yul\":753:758   */\n  0x00\n    /* \"#utility.yul\":784:790   */\n  dup2\n    /* \"#utility.yul\":778:791   */\n  mload\n    /* \"#utility.yul\":769:791   */\n  swap1\n  pop\n    /* \"#utility.yul\":800:833   */\n  tag_34\n    /* \"#utility.yul\":827:832   */\n  dup2\n    /* \"#utility.yul\":800:833   */\n  tag_20\n  jump\t// in\ntag_34:\n    /* \"#utility.yul\":696:839   */\n  swap3\n  swap2\n  pop\n  pop\n  jump\t// out\n    /* \"#utility.yul\":845:1196   */\ntag_3:\n    /* \"#utility.yul\":915:921   */\n  0x00\n    /* \"#utility.yul\":964:966   */\n  0x20\n    /* \"#utility.yul\":952:961   */\n  dup3\n    /* \"#utility.yul\":943:950   */\n  dup5\n    /* \"#utility.yul\":939:962   */\n  sub\n    /* \"#utility.yul\":935:967   */\n  slt\n    /* \"#utility.yul\":932:1051   */\n  iszero\n  tag_36\n  jumpi\n    /* \"#utility.yul\":970:1049   */\n  tag_37\n  tag_16\n  jump\t// in\ntag_37:\n    /* \"#utility.yul\":932:1051   */\ntag_36:\n    /* \"#utility.yul\":1090:1091   */\n  0x00\n    /* \"#utility.yul\":1115:1179   */\n  tag_38\n    /* \"#utility.yul\":1171:1178   */\n  dup5\n    /* \"#utility.yul\":1162:1168   */\n  dup3\n    /* \"#utility.yul\":1151:1160   */\n  dup6\n    /* \"#utility.yul\":1147:1169   */\n  add\n    /* \"#utility.yul\":1115:1179   */\n  tag_21\n  jump\t// in\ntag_38:\n    /* \"#utility.yul\":1105:1179   */\n  swap2\n  pop\n    /* \"#utility.yul\":1061:1189   */\n  pop\n    /* \"#utility.yul\":845:1196   */\n  swap3\n  swap2\n  pop\n  pop\n  jump\t// out\n    /* \"#utility.yul\":1202:1320   */\ntag_22:\n    /* \"#utility.yul\":1289:1313   */\n  tag_40\n    /* \"#utility.yul\":1307:1312   */\n  dup2\n    /* \"#utility.yul\":1289:1313   */\n  tag_19\n  jump\t// in\ntag_40:\n    /* \"#utility.yul\":1284:1287   */\n  dup3\n    /* \"#utility.yul\":1277:1314   */\n  mstore\n    /* \"#utility.yul\":1202:1320   */\n  pop\n  pop\n  jump\t// out\n    /* \"#utility.yul\":1326:1548   */\ntag_9:\n    /* \"#utility.yul\":1419:1423   */\n  0x00\n    /* \"#utility.yul\":1457:1459   */\n  0x20\n    /* \"#utility.yul\":1446:1455   */\n  dup3\n    /* \"#utility.yul\":1442:1460   */\n  add\n    /* \"#utility.yul\":1434:1460   */\n  swap1\n  pop\n    /* \"#utility.yul\":1470:1541   */\n  tag_42\n    /* \"#utility.yul\":1538:1539   */\n  0x00\n    /* \"#utility.yul\":1527:1536   */\n  dup4\n    /* \"#utility.yul\":1523:1540   */\n  add\n    /* \"#utility.yul\":1514:1520   */\n  dup5\n    /* \"#utility.yul\":1470:1541   */\n  tag_22\n  jump\t// in\ntag_42:\n    /* \"#utility.yul\":1326:1548   */\n  swap3\n  swap2\n  pop\n  pop\n  jump\t// out\n    /* \"contracts/4_Hello.sol\":246:2599  contract Hello is Context, Ownable {... */\ntag_13:\n  dataSize(sub_0)\n  dup1\n  dataOffset(sub_0)\n  0x00\n  codecopy\n  0x00\n  return\nstop\n\nsub_0: assembly {\n        /* \"contracts/4_Hello.sol\":246:2599  contract Hello is Context, Ownable {... */\n      mstore(0x40, 0x80)\n      callvalue\n      dup1\n      iszero\n      tag_1\n      jumpi\n      0x00\n      dup1\n      revert\n    tag_1:\n      pop\n      jumpi(tag_2, lt(calldatasize, 0x04))\n      shr(0xe0, calldataload(0x00))\n      dup1\n      0x8da5cb5b\n      gt\n      tag_17\n      jumpi\n      dup1\n      0xd82c13f0\n      gt\n      tag_18\n      jumpi\n      dup1\n      0xd82c13f0\n      eq\n      tag_13\n      jumpi\n      dup1\n      0xe5ed1d59\n      eq\n      tag_14\n      jumpi\n      dup1\n      0xee9b80a4\n      eq\n      tag_15\n      jumpi\n      dup1\n      0xf2fde38b\n      eq\n      tag_16\n      jumpi\n      jump(tag_2)\n    tag_18:\n      dup1\n      0x8da5cb5b\n      eq\n      tag_10\n      jumpi\n      dup1\n      0x9bc01b36\n      eq\n      tag_11\n      jumpi\n      dup1\n      0xce33bd74\n      eq\n      tag_12\n      jumpi\n      jump(tag_2)\n    tag_17:\n      dup1\n      0x34fcc3e7\n      gt\n      tag_19\n      jumpi\n      dup1\n      0x34fcc3e7\n      eq\n      tag_6\n      jumpi\n      dup1\n      0x55a373d6\n      eq\n      tag_7\n      jumpi\n      dup1\n      0x6ffcc719\n      eq\n      tag_8\n      jumpi\n      dup1\n      0x715018a6\n      eq\n      tag_9\n      jumpi\n      jump(tag_2)\n    tag_19:\n      dup1\n      0x117a5b90\n      eq\n      tag_3\n      jumpi\n      dup1\n      0x16b169c4\n      eq\n      tag_4\n      jumpi\n      dup1\n      0x2c32b187\n      eq\n      tag_5\n      jumpi\n    tag_2:\n      0x00\n      dup1\n      revert\n        /* \"contracts/4_Hello.sol\":488:522  mapping(uint => Game) public games */\n    tag_3:\n      tag_20\n      0x04\n      dup1\n      calldatasize\n      sub\n      dup2\n      add\n      swap1\n      tag_21\n      swap2\n      swap1\n      tag_22\n      jump\t// in\n    tag_21:\n      tag_23\n      jump\t// in\n    tag_20:\n      mload(0x40)\n      tag_24\n      swap4\n      swap3\n      swap2\n      swap1\n      tag_25\n      jump\t// in\n    tag_24:\n      mload(0x40)\n      dup1\n      swap2\n      sub\n      swap1\n      return\n        /* \"contracts/4_Hello.sol\":2018:2199  function gameUsers(uint gameId) public view returns (address[] memory) {... */\n    tag_4:\n      tag_26\n      0x04\n      dup1\n      calldatasize\n      sub\n      dup2\n      add\n      swap1\n      tag_27\n      swap2\n      swap1\n      tag_22\n      jump\t// in\n    tag_27:\n      tag_28\n      jump\t// in\n    tag_26:\n      mload(0x40)\n      tag_29\n      swap2\n      swap1\n      tag_30\n      jump\t// in\n    tag_29:\n      mload(0x40)\n      dup1\n      swap2\n      sub\n      swap1\n      return\n        /* \"contracts/4_Hello.sol\":1685:2010  function finish(uint gameId, address winner) public returns (uint) {... */\n    tag_5:\n      tag_31\n      0x04\n      dup1\n      calldatasize\n      sub\n      dup2\n      add\n      swap1\n      tag_32\n      swap2\n      swap1\n      tag_33\n      jump\t// in\n    tag_32:\n      tag_34\n      jump\t// in\n    tag_31:\n      mload(0x40)\n      tag_35\n      swap2\n      swap1\n      tag_36\n      jump\t// in\n    tag_35:\n      mload(0x40)\n      dup1\n      swap2\n      sub\n      swap1\n      return\n        /* \"contracts/4_Hello.sol\":2207:2404  function getBetting(uint gameId, address better) public view returns (uint) {... */\n    tag_6:\n      tag_37\n      0x04\n      dup1\n      calldatasize\n      sub\n      dup2\n      add\n      swap1\n      tag_38\n      swap2\n      swap1\n      tag_33\n      jump\t// in\n    tag_38:\n      tag_39\n      jump\t// in\n    tag_37:\n      mload(0x40)\n      tag_40\n      swap2\n      swap1\n      tag_36\n      jump\t// in\n    tag_40:\n      mload(0x40)\n      dup1\n      swap2\n      sub\n      swap1\n      return\n        /* \"contracts/4_Hello.sol\":557:585  address public tokenContract */\n    tag_7:\n      tag_41\n      tag_42\n      jump\t// in\n    tag_41:\n      mload(0x40)\n      tag_43\n      swap2\n      swap1\n      tag_44\n      jump\t// in\n    tag_43:\n      mload(0x40)\n      dup1\n      swap2\n      sub\n      swap1\n      return\n        /* \"contracts/4_Hello.sol\":1146:1677  function bet(uint gameId, uint amount) public returns (bool) {... */\n    tag_8:\n      tag_45\n      0x04\n      dup1\n      calldatasize\n      sub\n      dup2\n      add\n      swap1\n      tag_46\n      swap2\n      swap1\n      tag_47\n      jump\t// in\n    tag_46:\n      tag_48\n      jump\t// in\n    tag_45:\n      mload(0x40)\n      tag_49\n      swap2\n      swap1\n      tag_50\n      jump\t// in\n    tag_49:\n      mload(0x40)\n      dup1\n      swap2\n      sub\n      swap1\n      return\n        /* \"contracts/ownable.sol\":2368:2471  function renounceOwnership() public virtual onlyOwner {... */\n    tag_9:\n      tag_51\n      tag_52\n      jump\t// in\n    tag_51:\n      stop\n        /* \"contracts/ownable.sol\":1693:1780  function owner() public view virtual returns (address) {... */\n    tag_10:\n      tag_53\n      tag_54\n      jump\t// in\n    tag_53:\n      mload(0x40)\n      tag_55\n      swap2\n      swap1\n      tag_44\n      jump\t// in\n    tag_55:\n      mload(0x40)\n      dup1\n      swap2\n      sub\n      swap1\n      return\n        /* \"contracts/4_Hello.sol\":1046:1138  function listGameIds() public view returns (uint[] memory) {... */\n    tag_11:\n      tag_56\n      tag_57\n      jump\t// in\n    tag_56:\n      mload(0x40)\n      tag_58\n      swap2\n      swap1\n      tag_59\n      jump\t// in\n    tag_58:\n      mload(0x40)\n      dup1\n      swap2\n      sub\n      swap1\n      return\n        /* \"contracts/4_Hello.sol\":2412:2596  function myBetting(uint gameId) public view returns (uint) {... */\n    tag_12:\n      tag_60\n      0x04\n      dup1\n      calldatasize\n      sub\n      dup2\n      add\n      swap1\n      tag_61\n      swap2\n      swap1\n      tag_22\n      jump\t// in\n    tag_61:\n      tag_62\n      jump\t// in\n    tag_60:\n      mload(0x40)\n      tag_63\n      swap2\n      swap1\n      tag_36\n      jump\t// in\n    tag_63:\n      mload(0x40)\n      dup1\n      swap2\n      sub\n      swap1\n      return\n        /* \"contracts/4_Hello.sol\":529:550  uint[] public gameIds */\n    tag_13:\n      tag_64\n      0x04\n      dup1\n      calldatasize\n      sub\n      dup2\n      add\n      swap1\n      tag_65\n      swap2\n      swap1\n      tag_22\n      jump\t// in\n    tag_65:\n      tag_66\n      jump\t// in\n    tag_64:\n      mload(0x40)\n      tag_67\n      swap2\n      swap1\n      tag_36\n      jump\t// in\n    tag_67:\n      mload(0x40)\n      dup1\n      swap2\n      sub\n      swap1\n      return\n        /* \"contracts/4_Hello.sol\":815:1038  function startGame(uint newId) public returns (bool) {... */\n    tag_14:\n      tag_68\n      0x04\n      dup1\n      calldatasize\n      sub\n      dup2\n      add\n      swap1\n      tag_69\n      swap2\n      swap1\n      tag_22\n      jump\t// in\n    tag_69:\n      tag_70\n      jump\t// in\n    tag_68:\n      mload(0x40)\n      tag_71\n      swap2\n      swap1\n      tag_50\n      jump\t// in\n    tag_71:\n      mload(0x40)\n      dup1\n      swap2\n      sub\n      swap1\n      return\n        /* \"contracts/4_Hello.sol\":678:807  function setErc20(address newContract) public returns (bool) {... */\n    tag_15:\n      tag_72\n      0x04\n      dup1\n      calldatasize\n      sub\n      dup2\n      add\n      swap1\n      tag_73\n      swap2\n      swap1\n      tag_74\n      jump\t// in\n    tag_73:\n      tag_75\n      jump\t// in\n    tag_72:\n      mload(0x40)\n      tag_76\n      swap2\n      swap1\n      tag_50\n      jump\t// in\n    tag_76:\n      mload(0x40)\n      dup1\n      swap2\n      sub\n      swap1\n      return\n        /* \"contracts/ownable.sol\":2626:2846  function transferOwnership(address newOwner) public virtual onlyOwner {... */\n    tag_16:\n      tag_77\n      0x04\n      dup1\n      calldatasize\n      sub\n      dup2\n      add\n      swap1\n      tag_78\n      swap2\n      swap1\n      tag_74\n      jump\t// in\n    tag_78:\n      tag_79\n      jump\t// in\n    tag_77:\n      stop\n        /* \"contracts/4_Hello.sol\":488:522  mapping(uint => Game) public games */\n    tag_23:\n      mstore(0x20, 0x01)\n      dup1\n      0x00\n      mstore\n      keccak256(0x00, 0x40)\n      0x00\n      swap2\n      pop\n      swap1\n      pop\n      dup1\n      0x00\n      add\n      0x00\n      swap1\n      sload\n      swap1\n      0x0100\n      exp\n      swap1\n      div\n      0xff\n      and\n      swap1\n      dup1\n      0x02\n      add\n      sload\n      swap1\n      dup1\n      0x04\n      add\n      0x00\n      swap1\n      sload\n      swap1\n      0x0100\n      exp\n      swap1\n      div\n      0xffffffffffffffffffffffffffffffffffffffff\n      and\n      swap1\n      pop\n      dup4\n      jump\t// out\n        /* \"contracts/4_Hello.sol\":2018:2199  function gameUsers(uint gameId) public view returns (address[] memory) {... */\n    tag_28:\n        /* \"contracts/4_Hello.sol\":2071:2087  address[] memory */\n      0x60\n        /* \"contracts/4_Hello.sol\":2108:2113  games */\n      0x01\n        /* \"contracts/4_Hello.sol\":2108:2121  games[gameId] */\n      0x00\n        /* \"contracts/4_Hello.sol\":2114:2120  gameId */\n      dup4\n        /* \"contracts/4_Hello.sol\":2108:2121  games[gameId] */\n      dup2\n      mstore\n      0x20\n      add\n      swap1\n      dup2\n      mstore\n      0x20\n      add\n      0x00\n      keccak256\n        /* \"contracts/4_Hello.sol\":2108:2133  games[gameId].initialized */\n      0x00\n      add\n      0x00\n      swap1\n      sload\n      swap1\n      0x0100\n      exp\n      swap1\n      div\n      0xff\n      and\n        /* \"contracts/4_Hello.sol\":2100:2154  require(games[gameId].initialized, \"Game Initialized\") */\n      tag_81\n      jumpi\n      mload(0x40)\n      0x08c379a000000000000000000000000000000000000000000000000000000000\n      dup2\n      mstore\n      0x04\n      add\n      tag_82\n      swap1\n      tag_83\n      jump\t// in\n    tag_82:\n      mload(0x40)\n      dup1\n      swap2\n      sub\n      swap1\n      revert\n    tag_81:\n        /* \"contracts/4_Hello.sol\":2172:2177  games */\n      0x01\n        /* \"contracts/4_Hello.sol\":2172:2185  games[gameId] */\n      0x00\n        /* \"contracts/4_Hello.sol\":2178:2184  gameId */\n      dup4\n        /* \"contracts/4_Hello.sol\":2172:2185  games[gameId] */\n      dup2\n      mstore\n      0x20\n      add\n      swap1\n      dup2\n      mstore\n      0x20\n      add\n      0x00\n      keccak256\n        /* \"contracts/4_Hello.sol\":2172:2191  games[gameId].users */\n      0x03\n      add\n        /* \"contracts/4_Hello.sol\":2165:2191  return games[gameId].users */\n      dup1\n      sload\n      dup1\n      0x20\n      mul\n      0x20\n      add\n      mload(0x40)\n      swap1\n      dup2\n      add\n      0x40\n      mstore\n      dup1\n      swap3\n      swap2\n      swap1\n      dup2\n      dup2\n      mstore\n      0x20\n      add\n      dup3\n      dup1\n      sload\n      dup1\n      iszero\n      tag_84\n      jumpi\n      0x20\n      mul\n      dup3\n      add\n      swap2\n      swap1\n      0x00\n      mstore\n      keccak256(0x00, 0x20)\n      swap1\n    tag_85:\n      dup2\n      0x00\n      swap1\n      sload\n      swap1\n      0x0100\n      exp\n      swap1\n      div\n      0xffffffffffffffffffffffffffffffffffffffff\n      and\n      0xffffffffffffffffffffffffffffffffffffffff\n      and\n      dup2\n      mstore\n      0x20\n      add\n      swap1\n      0x01\n      add\n      swap1\n      dup1\n      dup4\n      gt\n      tag_85\n      jumpi\n    tag_84:\n      pop\n      pop\n      pop\n      pop\n      pop\n      swap1\n      pop\n        /* \"contracts/4_Hello.sol\":2018:2199  function gameUsers(uint gameId) public view returns (address[] memory) {... */\n      swap2\n      swap1\n      pop\n      jump\t// out\n        /* \"contracts/4_Hello.sol\":1685:2010  function finish(uint gameId, address winner) public returns (uint) {... */\n    tag_34:\n        /* \"contracts/4_Hello.sol\":1746:1750  uint */\n      0x00\n        /* \"contracts/4_Hello.sol\":1771:1776  games */\n      0x01\n        /* \"contracts/4_Hello.sol\":1771:1784  games[gameId] */\n      0x00\n        /* \"contracts/4_Hello.sol\":1777:1783  gameId */\n      dup5\n        /* \"contracts/4_Hello.sol\":1771:1784  games[gameId] */\n      dup2\n      mstore\n      0x20\n      add\n      swap1\n      dup2\n      mstore\n      0x20\n      add\n      0x00\n      keccak256\n        /* \"contracts/4_Hello.sol\":1771:1796  games[gameId].initialized */\n      0x00\n      add\n      0x00\n      swap1\n      sload\n      swap1\n      0x0100\n      exp\n      swap1\n      div\n      0xff\n      and\n        /* \"contracts/4_Hello.sol\":1763:1817  require(games[gameId].initialized, \"Game Initialized\") */\n      tag_87\n      jumpi\n      mload(0x40)\n      0x08c379a000000000000000000000000000000000000000000000000000000000\n      dup2\n      mstore\n      0x04\n      add\n      tag_88\n      swap1\n      tag_83\n      jump\t// in\n    tag_88:\n      mload(0x40)\n      dup1\n      swap2\n      sub\n      swap1\n      revert\n    tag_87:\n        /* \"contracts/4_Hello.sol\":1868:1869  0 */\n      0x00\n        /* \"contracts/4_Hello.sol\":1836:1870  games[gameId].winner == address(0) */\n      0xffffffffffffffffffffffffffffffffffffffff\n      and\n        /* \"contracts/4_Hello.sol\":1836:1841  games */\n      0x01\n        /* \"contracts/4_Hello.sol\":1836:1849  games[gameId] */\n      0x00\n        /* \"contracts/4_Hello.sol\":1842:1848  gameId */\n      dup6\n        /* \"contracts/4_Hello.sol\":1836:1849  games[gameId] */\n      dup2\n      mstore\n      0x20\n      add\n      swap1\n      dup2\n      mstore\n      0x20\n      add\n      0x00\n      keccak256\n        /* \"contracts/4_Hello.sol\":1836:1856  games[gameId].winner */\n      0x04\n      add\n      0x00\n      swap1\n      sload\n      swap1\n      0x0100\n      exp\n      swap1\n      div\n      0xffffffffffffffffffffffffffffffffffffffff\n      and\n        /* \"contracts/4_Hello.sol\":1836:1870  games[gameId].winner == address(0) */\n      0xffffffffffffffffffffffffffffffffffffffff\n      and\n      eq\n        /* \"contracts/4_Hello.sol\":1828:1883  require(games[gameId].winner == address(0), \"Finished\") */\n      tag_89\n      jumpi\n      mload(0x40)\n      0x08c379a000000000000000000000000000000000000000000000000000000000\n      dup2\n      mstore\n      0x04\n      add\n      tag_90\n      swap1\n      tag_91\n      jump\t// in\n    tag_90:\n      mload(0x40)\n      dup1\n      swap2\n      sub\n      swap1\n      revert\n    tag_89:\n        /* \"contracts/4_Hello.sol\":1917:1923  winner */\n      dup2\n        /* \"contracts/4_Hello.sol\":1894:1899  games */\n      0x01\n        /* \"contracts/4_Hello.sol\":1894:1907  games[gameId] */\n      0x00\n        /* \"contracts/4_Hello.sol\":1900:1906  gameId */\n      dup6\n        /* \"contracts/4_Hello.sol\":1894:1907  games[gameId] */\n      dup2\n      mstore\n      0x20\n      add\n      swap1\n      dup2\n      mstore\n      0x20\n      add\n      0x00\n      keccak256\n        /* \"contracts/4_Hello.sol\":1894:1914  games[gameId].winner */\n      0x04\n      add\n      0x00\n        /* \"contracts/4_Hello.sol\":1894:1923  games[gameId].winner = winner */\n      0x0100\n      exp\n      dup2\n      sload\n      dup2\n      0xffffffffffffffffffffffffffffffffffffffff\n      mul\n      not\n      and\n      swap1\n      dup4\n      0xffffffffffffffffffffffffffffffffffffffff\n      and\n      mul\n      or\n      swap1\n      sstore\n      pop\n        /* \"contracts/4_Hello.sol\":1975:1980  games */\n      0x01\n        /* \"contracts/4_Hello.sol\":1975:1988  games[gameId] */\n      0x00\n        /* \"contracts/4_Hello.sol\":1981:1987  gameId */\n      dup5\n        /* \"contracts/4_Hello.sol\":1975:1988  games[gameId] */\n      dup2\n      mstore\n      0x20\n      add\n      swap1\n      dup2\n      mstore\n      0x20\n      add\n      0x00\n      keccak256\n        /* \"contracts/4_Hello.sol\":1975:2002  games[gameId].totalBettings */\n      0x02\n      add\n      sload\n        /* \"contracts/4_Hello.sol\":1968:2002  return games[gameId].totalBettings */\n      swap1\n      pop\n        /* \"contracts/4_Hello.sol\":1685:2010  function finish(uint gameId, address winner) public returns (uint) {... */\n      swap3\n      swap2\n      pop\n      pop\n      jump\t// out\n        /* \"contracts/4_Hello.sol\":2207:2404  function getBetting(uint gameId, address better) public view returns (uint) {... */\n    tag_39:\n        /* \"contracts/4_Hello.sol\":2277:2281  uint */\n      0x00\n        /* \"contracts/4_Hello.sol\":2302:2307  games */\n      0x01\n        /* \"contracts/4_Hello.sol\":2302:2315  games[gameId] */\n      0x00\n        /* \"contracts/4_Hello.sol\":2308:2314  gameId */\n      dup5\n        /* \"contracts/4_Hello.sol\":2302:2315  games[gameId] */\n      dup2\n      mstore\n      0x20\n      add\n      swap1\n      dup2\n      mstore\n      0x20\n      add\n      0x00\n      keccak256\n        /* \"contracts/4_Hello.sol\":2302:2327  games[gameId].initialized */\n      0x00\n      add\n      0x00\n      swap1\n      sload\n      swap1\n      0x0100\n      exp\n      swap1\n      div\n      0xff\n      and\n        /* \"contracts/4_Hello.sol\":2294:2348  require(games[gameId].initialized, \"Game Initialized\") */\n      tag_93\n      jumpi\n      mload(0x40)\n      0x08c379a000000000000000000000000000000000000000000000000000000000\n      dup2\n      mstore\n      0x04\n      add\n      tag_94\n      swap1\n      tag_83\n      jump\t// in\n    tag_94:\n      mload(0x40)\n      dup1\n      swap2\n      sub\n      swap1\n      revert\n    tag_93:\n        /* \"contracts/4_Hello.sol\":2366:2371  games */\n      0x01\n        /* \"contracts/4_Hello.sol\":2366:2379  games[gameId] */\n      0x00\n        /* \"contracts/4_Hello.sol\":2372:2378  gameId */\n      dup5\n        /* \"contracts/4_Hello.sol\":2366:2379  games[gameId] */\n      dup2\n      mstore\n      0x20\n      add\n      swap1\n      dup2\n      mstore\n      0x20\n      add\n      0x00\n      keccak256\n        /* \"contracts/4_Hello.sol\":2366:2388  games[gameId].bettings */\n      0x01\n      add\n        /* \"contracts/4_Hello.sol\":2366:2396  games[gameId].bettings[better] */\n      0x00\n        /* \"contracts/4_Hello.sol\":2389:2395  better */\n      dup4\n        /* \"contracts/4_Hello.sol\":2366:2396  games[gameId].bettings[better] */\n      0xffffffffffffffffffffffffffffffffffffffff\n      and\n      0xffffffffffffffffffffffffffffffffffffffff\n      and\n      dup2\n      mstore\n      0x20\n      add\n      swap1\n      dup2\n      mstore\n      0x20\n      add\n      0x00\n      keccak256\n      sload\n        /* \"contracts/4_Hello.sol\":2359:2396  return games[gameId].bettings[better] */\n      swap1\n      pop\n        /* \"contracts/4_Hello.sol\":2207:2404  function getBetting(uint gameId, address better) public view returns (uint) {... */\n      swap3\n      swap2\n      pop\n      pop\n      jump\t// out\n        /* \"contracts/4_Hello.sol\":557:585  address public tokenContract */\n    tag_42:\n      0x03\n      0x00\n      swap1\n      sload\n      swap1\n      0x0100\n      exp\n      swap1\n      div\n      0xffffffffffffffffffffffffffffffffffffffff\n      and\n      dup2\n      jump\t// out\n        /* \"contracts/4_Hello.sol\":1146:1677  function bet(uint gameId, uint amount) public returns (bool) {... */\n    tag_48:\n        /* \"contracts/4_Hello.sol\":1201:1205  bool */\n      0x00\n        /* \"contracts/4_Hello.sol\":1226:1231  games */\n      0x01\n        /* \"contracts/4_Hello.sol\":1226:1239  games[gameId] */\n      0x00\n        /* \"contracts/4_Hello.sol\":1232:1238  gameId */\n      dup5\n        /* \"contracts/4_Hello.sol\":1226:1239  games[gameId] */\n      dup2\n      mstore\n      0x20\n      add\n      swap1\n      dup2\n      mstore\n      0x20\n      add\n      0x00\n      keccak256\n        /* \"contracts/4_Hello.sol\":1226:1251  games[gameId].initialized */\n      0x00\n      add\n      0x00\n      swap1\n      sload\n      swap1\n      0x0100\n      exp\n      swap1\n      div\n      0xff\n      and\n        /* \"contracts/4_Hello.sol\":1218:1272  require(games[gameId].initialized, \"Game Initialized\") */\n      tag_96\n      jumpi\n      mload(0x40)\n      0x08c379a000000000000000000000000000000000000000000000000000000000\n      dup2\n      mstore\n      0x04\n      add\n      tag_97\n      swap1\n      tag_83\n      jump\t// in\n    tag_97:\n      mload(0x40)\n      dup1\n      swap2\n      sub\n      swap1\n      revert\n    tag_96:\n        /* \"contracts/4_Hello.sol\":1323:1324  0 */\n      0x00\n        /* \"contracts/4_Hello.sol\":1291:1325  games[gameId].winner == address(0) */\n      0xffffffffffffffffffffffffffffffffffffffff\n      and\n        /* \"contracts/4_Hello.sol\":1291:1296  games */\n      0x01\n        /* \"contracts/4_Hello.sol\":1291:1304  games[gameId] */\n      0x00\n        /* \"contracts/4_Hello.sol\":1297:1303  gameId */\n      dup6\n        /* \"contracts/4_Hello.sol\":1291:1304  games[gameId] */\n      dup2\n      mstore\n      0x20\n      add\n      swap1\n      dup2\n      mstore\n      0x20\n      add\n      0x00\n      keccak256\n        /* \"contracts/4_Hello.sol\":1291:1311  games[gameId].winner */\n      0x04\n      add\n      0x00\n      swap1\n      sload\n      swap1\n      0x0100\n      exp\n      swap1\n      div\n      0xffffffffffffffffffffffffffffffffffffffff\n      and\n        /* \"contracts/4_Hello.sol\":1291:1325  games[gameId].winner == address(0) */\n      0xffffffffffffffffffffffffffffffffffffffff\n      and\n      eq\n        /* \"contracts/4_Hello.sol\":1283:1338  require(games[gameId].winner == address(0), \"Finished\") */\n      tag_98\n      jumpi\n      mload(0x40)\n      0x08c379a000000000000000000000000000000000000000000000000000000000\n      dup2\n      mstore\n      0x04\n      add\n      tag_99\n      swap1\n      tag_91\n      jump\t// in\n    tag_99:\n      mload(0x40)\n      dup1\n      swap2\n      sub\n      swap1\n      revert\n    tag_98:\n        /* \"contracts/4_Hello.sol\":1479:1480  0 */\n      0x00\n        /* \"contracts/4_Hello.sol\":1441:1446  games */\n      0x01\n        /* \"contracts/4_Hello.sol\":1441:1454  games[gameId] */\n      0x00\n        /* \"contracts/4_Hello.sol\":1447:1453  gameId */\n      dup6\n        /* \"contracts/4_Hello.sol\":1441:1454  games[gameId] */\n      dup2\n      mstore\n      0x20\n      add\n      swap1\n      dup2\n      mstore\n      0x20\n      add\n      0x00\n      keccak256\n        /* \"contracts/4_Hello.sol\":1441:1463  games[gameId].bettings */\n      0x01\n      add\n        /* \"contracts/4_Hello.sol\":1441:1475  games[gameId].bettings[msg.sender] */\n      0x00\n        /* \"contracts/4_Hello.sol\":1464:1474  msg.sender */\n      caller\n        /* \"contracts/4_Hello.sol\":1441:1475  games[gameId].bettings[msg.sender] */\n      0xffffffffffffffffffffffffffffffffffffffff\n      and\n      0xffffffffffffffffffffffffffffffffffffffff\n      and\n      dup2\n      mstore\n      0x20\n      add\n      swap1\n      dup2\n      mstore\n      0x20\n      add\n      0x00\n      keccak256\n      sload\n        /* \"contracts/4_Hello.sol\":1441:1480  games[gameId].bettings[msg.sender] == 0 */\n      sub\n        /* \"contracts/4_Hello.sol\":1437:1545  if (games[gameId].bettings[msg.sender] == 0) {... */\n      tag_100\n      jumpi\n        /* \"contracts/4_Hello.sol\":1497:1502  games */\n      0x01\n        /* \"contracts/4_Hello.sol\":1497:1510  games[gameId] */\n      0x00\n        /* \"contracts/4_Hello.sol\":1503:1509  gameId */\n      dup5\n        /* \"contracts/4_Hello.sol\":1497:1510  games[gameId] */\n      dup2\n      mstore\n      0x20\n      add\n      swap1\n      dup2\n      mstore\n      0x20\n      add\n      0x00\n      keccak256\n        /* \"contracts/4_Hello.sol\":1497:1516  games[gameId].users */\n      0x03\n      add\n        /* \"contracts/4_Hello.sol\":1522:1532  msg.sender */\n      caller\n        /* \"contracts/4_Hello.sol\":1497:1533  games[gameId].users.push(msg.sender) */\n      swap1\n      dup1\n      0x01\n      dup2\n      sload\n      add\n      dup1\n      dup3\n      sstore\n      dup1\n      swap2\n      pop\n      pop\n      0x01\n      swap1\n      sub\n      swap1\n      0x00\n      mstore\n      keccak256(0x00, 0x20)\n      add\n      0x00\n      swap1\n      swap2\n      swap1\n      swap2\n      swap1\n      swap2\n      0x0100\n      exp\n      dup2\n      sload\n      dup2\n      0xffffffffffffffffffffffffffffffffffffffff\n      mul\n      not\n      and\n      swap1\n      dup4\n      0xffffffffffffffffffffffffffffffffffffffff\n      and\n      mul\n      or\n      swap1\n      sstore\n      pop\n        /* \"contracts/4_Hello.sol\":1437:1545  if (games[gameId].bettings[msg.sender] == 0) {... */\n    tag_100:\n        /* \"contracts/4_Hello.sol\":1593:1599  amount */\n      dup2\n        /* \"contracts/4_Hello.sol\":1555:1560  games */\n      0x01\n        /* \"contracts/4_Hello.sol\":1555:1568  games[gameId] */\n      0x00\n        /* \"contracts/4_Hello.sol\":1561:1567  gameId */\n      dup6\n        /* \"contracts/4_Hello.sol\":1555:1568  games[gameId] */\n      dup2\n      mstore\n      0x20\n      add\n      swap1\n      dup2\n      mstore\n      0x20\n      add\n      0x00\n      keccak256\n        /* \"contracts/4_Hello.sol\":1555:1577  games[gameId].bettings */\n      0x01\n      add\n        /* \"contracts/4_Hello.sol\":1555:1589  games[gameId].bettings[msg.sender] */\n      0x00\n        /* \"contracts/4_Hello.sol\":1578:1588  msg.sender */\n      caller\n        /* \"contracts/4_Hello.sol\":1555:1589  games[gameId].bettings[msg.sender] */\n      0xffffffffffffffffffffffffffffffffffffffff\n      and\n      0xffffffffffffffffffffffffffffffffffffffff\n      and\n      dup2\n      mstore\n      0x20\n      add\n      swap1\n      dup2\n      mstore\n      0x20\n      add\n      0x00\n      keccak256\n      0x00\n        /* \"contracts/4_Hello.sol\":1555:1599  games[gameId].bettings[msg.sender] += amount */\n      dup3\n      dup3\n      sload\n      tag_102\n      swap2\n      swap1\n      tag_103\n      jump\t// in\n    tag_102:\n      swap3\n      pop\n      pop\n      dup2\n      swap1\n      sstore\n      pop\n        /* \"contracts/4_Hello.sol\":1641:1647  amount */\n      dup2\n        /* \"contracts/4_Hello.sol\":1610:1615  games */\n      0x01\n        /* \"contracts/4_Hello.sol\":1610:1623  games[gameId] */\n      0x00\n        /* \"contracts/4_Hello.sol\":1616:1622  gameId */\n      dup6\n        /* \"contracts/4_Hello.sol\":1610:1623  games[gameId] */\n      dup2\n      mstore\n      0x20\n      add\n      swap1\n      dup2\n      mstore\n      0x20\n      add\n      0x00\n      keccak256\n        /* \"contracts/4_Hello.sol\":1610:1637  games[gameId].totalBettings */\n      0x02\n      add\n      0x00\n        /* \"contracts/4_Hello.sol\":1610:1647  games[gameId].totalBettings += amount */\n      dup3\n      dup3\n      sload\n      tag_104\n      swap2\n      swap1\n      tag_103\n      jump\t// in\n    tag_104:\n      swap3\n      pop\n      pop\n      dup2\n      swap1\n      sstore\n      pop\n        /* \"contracts/4_Hello.sol\":1665:1669  true */\n      0x01\n        /* \"contracts/4_Hello.sol\":1658:1669  return true */\n      swap1\n      pop\n        /* \"contracts/4_Hello.sol\":1146:1677  function bet(uint gameId, uint amount) public returns (bool) {... */\n      swap3\n      swap2\n      pop\n      pop\n      jump\t// out\n        /* \"contracts/ownable.sol\":2368:2471  function renounceOwnership() public virtual onlyOwner {... */\n    tag_52:\n        /* \"contracts/ownable.sol\":1579:1592  _checkOwner() */\n      tag_106\n        /* \"contracts/ownable.sol\":1579:1590  _checkOwner */\n      tag_107\n        /* \"contracts/ownable.sol\":1579:1592  _checkOwner() */\n      jump\t// in\n    tag_106:\n        /* \"contracts/ownable.sol\":2433:2463  _transferOwnership(address(0)) */\n      tag_109\n        /* \"contracts/ownable.sol\":2460:2461  0 */\n      0x00\n        /* \"contracts/ownable.sol\":2433:2451  _transferOwnership */\n      tag_110\n        /* \"contracts/ownable.sol\":2433:2463  _transferOwnership(address(0)) */\n      jump\t// in\n    tag_109:\n        /* \"contracts/ownable.sol\":2368:2471  function renounceOwnership() public virtual onlyOwner {... */\n      jump\t// out\n        /* \"contracts/ownable.sol\":1693:1780  function owner() public view virtual returns (address) {... */\n    tag_54:\n        /* \"contracts/ownable.sol\":1739:1746  address */\n      0x00\n        /* \"contracts/ownable.sol\":1766:1772  _owner */\n      dup1\n      0x00\n      swap1\n      sload\n      swap1\n      0x0100\n      exp\n      swap1\n      div\n      0xffffffffffffffffffffffffffffffffffffffff\n      and\n        /* \"contracts/ownable.sol\":1759:1772  return _owner */\n      swap1\n      pop\n        /* \"contracts/ownable.sol\":1693:1780  function owner() public view virtual returns (address) {... */\n      swap1\n      jump\t// out\n        /* \"contracts/4_Hello.sol\":1046:1138  function listGameIds() public view returns (uint[] memory) {... */\n    tag_57:\n        /* \"contracts/4_Hello.sol\":1090:1103  uint[] memory */\n      0x60\n        /* \"contracts/4_Hello.sol\":1123:1130  gameIds */\n      0x02\n        /* \"contracts/4_Hello.sol\":1116:1130  return gameIds */\n      dup1\n      sload\n      dup1\n      0x20\n      mul\n      0x20\n      add\n      mload(0x40)\n      swap1\n      dup2\n      add\n      0x40\n      mstore\n      dup1\n      swap3\n      swap2\n      swap1\n      dup2\n      dup2\n      mstore\n      0x20\n      add\n      dup3\n      dup1\n      sload\n      dup1\n      iszero\n      tag_113\n      jumpi\n      0x20\n      mul\n      dup3\n      add\n      swap2\n      swap1\n      0x00\n      mstore\n      keccak256(0x00, 0x20)\n      swap1\n    tag_114:\n      dup2\n      sload\n      dup2\n      mstore\n      0x20\n      add\n      swap1\n      0x01\n      add\n      swap1\n      dup1\n      dup4\n      gt\n      tag_114\n      jumpi\n    tag_113:\n      pop\n      pop\n      pop\n      pop\n      pop\n      swap1\n      pop\n        /* \"contracts/4_Hello.sol\":1046:1138  function listGameIds() public view returns (uint[] memory) {... */\n      swap1\n      jump\t// out\n        /* \"contracts/4_Hello.sol\":2412:2596  function myBetting(uint gameId) public view returns (uint) {... */\n    tag_62:\n        /* \"contracts/4_Hello.sol\":2465:2469  uint */\n      0x00\n        /* \"contracts/4_Hello.sol\":2490:2495  games */\n      0x01\n        /* \"contracts/4_Hello.sol\":2490:2503  games[gameId] */\n      0x00\n        /* \"contracts/4_Hello.sol\":2496:2502  gameId */\n      dup4\n        /* \"contracts/4_Hello.sol\":2490:2503  games[gameId] */\n      dup2\n      mstore\n      0x20\n      add\n      swap1\n      dup2\n      mstore\n      0x20\n      add\n      0x00\n      keccak256\n        /* \"contracts/4_Hello.sol\":2490:2515  games[gameId].initialized */\n      0x00\n      add\n      0x00\n      swap1\n      sload\n      swap1\n      0x0100\n      exp\n      swap1\n      div\n      0xff\n      and\n        /* \"contracts/4_Hello.sol\":2482:2536  require(games[gameId].initialized, \"Game Initialized\") */\n      tag_116\n      jumpi\n      mload(0x40)\n      0x08c379a000000000000000000000000000000000000000000000000000000000\n      dup2\n      mstore\n      0x04\n      add\n      tag_117\n      swap1\n      tag_83\n      jump\t// in\n    tag_117:\n      mload(0x40)\n      dup1\n      swap2\n      sub\n      swap1\n      revert\n    tag_116:\n        /* \"contracts/4_Hello.sol\":2554:2559  games */\n      0x01\n        /* \"contracts/4_Hello.sol\":2554:2567  games[gameId] */\n      0x00\n        /* \"contracts/4_Hello.sol\":2560:2566  gameId */\n      dup4\n        /* \"contracts/4_Hello.sol\":2554:2567  games[gameId] */\n      dup2\n      mstore\n      0x20\n      add\n      swap1\n      dup2\n      mstore\n      0x20\n      add\n      0x00\n      keccak256\n        /* \"contracts/4_Hello.sol\":2554:2576  games[gameId].bettings */\n      0x01\n      add\n        /* \"contracts/4_Hello.sol\":2554:2588  games[gameId].bettings[msg.sender] */\n      0x00\n        /* \"contracts/4_Hello.sol\":2577:2587  msg.sender */\n      caller\n        /* \"contracts/4_Hello.sol\":2554:2588  games[gameId].bettings[msg.sender] */\n      0xffffffffffffffffffffffffffffffffffffffff\n      and\n      0xffffffffffffffffffffffffffffffffffffffff\n      and\n      dup2\n      mstore\n      0x20\n      add\n      swap1\n      dup2\n      mstore\n      0x20\n      add\n      0x00\n      keccak256\n      sload\n        /* \"contracts/4_Hello.sol\":2547:2588  return games[gameId].bettings[msg.sender] */\n      swap1\n      pop\n        /* \"contracts/4_Hello.sol\":2412:2596  function myBetting(uint gameId) public view returns (uint) {... */\n      swap2\n      swap1\n      pop\n      jump\t// out\n        /* \"contracts/4_Hello.sol\":529:550  uint[] public gameIds */\n    tag_66:\n      0x02\n      dup2\n      dup2\n      sload\n      dup2\n      lt\n      tag_118\n      jumpi\n      0x00\n      dup1\n      revert\n    tag_118:\n      swap1\n      0x00\n      mstore\n      keccak256(0x00, 0x20)\n      add\n      0x00\n      swap2\n      pop\n      swap1\n      pop\n      sload\n      dup2\n      jump\t// out\n        /* \"contracts/4_Hello.sol\":815:1038  function startGame(uint newId) public returns (bool) {... */\n    tag_70:\n        /* \"contracts/4_Hello.sol\":862:866  bool */\n      0x00\n        /* \"contracts/4_Hello.sol\":915:920  false */\n      dup1\n        /* \"contracts/4_Hello.sol\":887:920  games[newId].initialized == false */\n      iszero\n      iszero\n        /* \"contracts/4_Hello.sol\":887:892  games */\n      0x01\n        /* \"contracts/4_Hello.sol\":887:899  games[newId] */\n      0x00\n        /* \"contracts/4_Hello.sol\":893:898  newId */\n      dup5\n        /* \"contracts/4_Hello.sol\":887:899  games[newId] */\n      dup2\n      mstore\n      0x20\n      add\n      swap1\n      dup2\n      mstore\n      0x20\n      add\n      0x00\n      keccak256\n        /* \"contracts/4_Hello.sol\":887:911  games[newId].initialized */\n      0x00\n      add\n      0x00\n      swap1\n      sload\n      swap1\n      0x0100\n      exp\n      swap1\n      div\n      0xff\n      and\n        /* \"contracts/4_Hello.sol\":887:920  games[newId].initialized == false */\n      iszero\n      iszero\n      eq\n        /* \"contracts/4_Hello.sol\":879:936  require(games[newId].initialized == false, \"Game exists\") */\n      tag_121\n      jumpi\n      mload(0x40)\n      0x08c379a000000000000000000000000000000000000000000000000000000000\n      dup2\n      mstore\n      0x04\n      add\n      tag_122\n      swap1\n      tag_123\n      jump\t// in\n    tag_122:\n      mload(0x40)\n      dup1\n      swap2\n      sub\n      swap1\n      revert\n    tag_121:\n        /* \"contracts/4_Hello.sol\":974:978  true */\n      0x01\n        /* \"contracts/4_Hello.sol\":947:952  games */\n      dup1\n        /* \"contracts/4_Hello.sol\":947:959  games[newId] */\n      0x00\n        /* \"contracts/4_Hello.sol\":953:958  newId */\n      dup5\n        /* \"contracts/4_Hello.sol\":947:959  games[newId] */\n      dup2\n      mstore\n      0x20\n      add\n      swap1\n      dup2\n      mstore\n      0x20\n      add\n      0x00\n      keccak256\n        /* \"contracts/4_Hello.sol\":947:971  games[newId].initialized */\n      0x00\n      add\n      0x00\n        /* \"contracts/4_Hello.sol\":947:978  games[newId].initialized = true */\n      0x0100\n      exp\n      dup2\n      sload\n      dup2\n      0xff\n      mul\n      not\n      and\n      swap1\n      dup4\n      iszero\n      iszero\n      mul\n      or\n      swap1\n      sstore\n      pop\n        /* \"contracts/4_Hello.sol\":989:996  gameIds */\n      0x02\n        /* \"contracts/4_Hello.sol\":1002:1007  newId */\n      dup3\n        /* \"contracts/4_Hello.sol\":989:1008  gameIds.push(newId) */\n      swap1\n      dup1\n      0x01\n      dup2\n      sload\n      add\n      dup1\n      dup3\n      sstore\n      dup1\n      swap2\n      pop\n      pop\n      0x01\n      swap1\n      sub\n      swap1\n      0x00\n      mstore\n      keccak256(0x00, 0x20)\n      add\n      0x00\n      swap1\n      swap2\n      swap1\n      swap2\n      swap1\n      swap2\n      pop\n      sstore\n        /* \"contracts/4_Hello.sol\":1026:1030  true */\n      0x01\n        /* \"contracts/4_Hello.sol\":1019:1030  return true */\n      swap1\n      pop\n        /* \"contracts/4_Hello.sol\":815:1038  function startGame(uint newId) public returns (bool) {... */\n      swap2\n      swap1\n      pop\n      jump\t// out\n        /* \"contracts/4_Hello.sol\":678:807  function setErc20(address newContract) public returns (bool) {... */\n    tag_75:\n        /* \"contracts/4_Hello.sol\":733:737  bool */\n      0x00\n        /* \"contracts/4_Hello.sol\":766:777  newContract */\n      dup2\n        /* \"contracts/4_Hello.sol\":750:763  tokenContract */\n      0x03\n      0x00\n        /* \"contracts/4_Hello.sol\":750:777  tokenContract = newContract */\n      0x0100\n      exp\n      dup2\n      sload\n      dup2\n      0xffffffffffffffffffffffffffffffffffffffff\n      mul\n      not\n      and\n      swap1\n      dup4\n      0xffffffffffffffffffffffffffffffffffffffff\n      and\n      mul\n      or\n      swap1\n      sstore\n      pop\n        /* \"contracts/4_Hello.sol\":795:799  true */\n      0x01\n        /* \"contracts/4_Hello.sol\":788:799  return true */\n      swap1\n      pop\n        /* \"contracts/4_Hello.sol\":678:807  function setErc20(address newContract) public returns (bool) {... */\n      swap2\n      swap1\n      pop\n      jump\t// out\n        /* \"contracts/ownable.sol\":2626:2846  function transferOwnership(address newOwner) public virtual onlyOwner {... */\n    tag_79:\n        /* \"contracts/ownable.sol\":1579:1592  _checkOwner() */\n      tag_127\n        /* \"contracts/ownable.sol\":1579:1590  _checkOwner */\n      tag_107\n        /* \"contracts/ownable.sol\":1579:1592  _checkOwner() */\n      jump\t// in\n    tag_127:\n        /* \"contracts/ownable.sol\":2731:2732  0 */\n      0x00\n        /* \"contracts/ownable.sol\":2711:2733  newOwner == address(0) */\n      0xffffffffffffffffffffffffffffffffffffffff\n      and\n        /* \"contracts/ownable.sol\":2711:2719  newOwner */\n      dup2\n        /* \"contracts/ownable.sol\":2711:2733  newOwner == address(0) */\n      0xffffffffffffffffffffffffffffffffffffffff\n      and\n      sub\n        /* \"contracts/ownable.sol\":2707:2800  if (newOwner == address(0)) {... */\n      tag_129\n      jumpi\n        /* \"contracts/ownable.sol\":2785:2786  0 */\n      0x00\n        /* \"contracts/ownable.sol\":2757:2788  OwnableInvalidOwner(address(0)) */\n      mload(0x40)\n      0x1e4fbdf700000000000000000000000000000000000000000000000000000000\n      dup2\n      mstore\n      0x04\n      add\n      tag_130\n      swap2\n      swap1\n      tag_44\n      jump\t// in\n    tag_130:\n      mload(0x40)\n      dup1\n      swap2\n      sub\n      swap1\n      revert\n        /* \"contracts/ownable.sol\":2707:2800  if (newOwner == address(0)) {... */\n    tag_129:\n        /* \"contracts/ownable.sol\":2810:2838  _transferOwnership(newOwner) */\n      tag_131\n        /* \"contracts/ownable.sol\":2829:2837  newOwner */\n      dup2\n        /* \"contracts/ownable.sol\":2810:2828  _transferOwnership */\n      tag_110\n        /* \"contracts/ownable.sol\":2810:2838  _transferOwnership(newOwner) */\n      jump\t// in\n    tag_131:\n        /* \"contracts/ownable.sol\":2626:2846  function transferOwnership(address newOwner) public virtual onlyOwner {... */\n      pop\n      jump\t// out\n        /* \"contracts/ownable.sol\":1858:2024  function _checkOwner() internal view virtual {... */\n    tag_107:\n        /* \"contracts/ownable.sol\":1929:1941  _msgSender() */\n      tag_133\n        /* \"contracts/ownable.sol\":1929:1939  _msgSender */\n      tag_134\n        /* \"contracts/ownable.sol\":1929:1941  _msgSender() */\n      jump\t// in\n    tag_133:\n        /* \"contracts/ownable.sol\":1918:1941  owner() != _msgSender() */\n      0xffffffffffffffffffffffffffffffffffffffff\n      and\n        /* \"contracts/ownable.sol\":1918:1925  owner() */\n      tag_135\n        /* \"contracts/ownable.sol\":1918:1923  owner */\n      tag_54\n        /* \"contracts/ownable.sol\":1918:1925  owner() */\n      jump\t// in\n    tag_135:\n        /* \"contracts/ownable.sol\":1918:1941  owner() != _msgSender() */\n      0xffffffffffffffffffffffffffffffffffffffff\n      and\n      eq\n        /* \"contracts/ownable.sol\":1914:2017  if (owner() != _msgSender()) {... */\n      tag_136\n      jumpi\n        /* \"contracts/ownable.sol\":1992:2004  _msgSender() */\n      tag_137\n        /* \"contracts/ownable.sol\":1992:2002  _msgSender */\n      tag_134\n        /* \"contracts/ownable.sol\":1992:2004  _msgSender() */\n      jump\t// in\n    tag_137:\n        /* \"contracts/ownable.sol\":1965:2005  OwnableUnauthorizedAccount(_msgSender()) */\n      mload(0x40)\n      0x118cdaa700000000000000000000000000000000000000000000000000000000\n      dup2\n      mstore\n      0x04\n      add\n      tag_138\n      swap2\n      swap1\n      tag_44\n      jump\t// in\n    tag_138:\n      mload(0x40)\n      dup1\n      swap2\n      sub\n      swap1\n      revert\n        /* \"contracts/ownable.sol\":1914:2017  if (owner() != _msgSender()) {... */\n    tag_136:\n        /* \"contracts/ownable.sol\":1858:2024  function _checkOwner() internal view virtual {... */\n      jump\t// out\n        /* \"contracts/ownable.sol\":3006:3197  function _transferOwnership(address newOwner) internal virtual {... */\n    tag_110:\n        /* \"contracts/ownable.sol\":3080:3096  address oldOwner */\n      0x00\n        /* \"contracts/ownable.sol\":3099:3105  _owner */\n      dup1\n      0x00\n      swap1\n      sload\n      swap1\n      0x0100\n      exp\n      swap1\n      div\n      0xffffffffffffffffffffffffffffffffffffffff\n      and\n        /* \"contracts/ownable.sol\":3080:3105  address oldOwner = _owner */\n      swap1\n      pop\n        /* \"contracts/ownable.sol\":3125:3133  newOwner */\n      dup2\n        /* \"contracts/ownable.sol\":3116:3122  _owner */\n      0x00\n      dup1\n        /* \"contracts/ownable.sol\":3116:3133  _owner = newOwner */\n      0x0100\n      exp\n      dup2\n      sload\n      dup2\n      0xffffffffffffffffffffffffffffffffffffffff\n      mul\n      not\n      and\n      swap1\n      dup4\n      0xffffffffffffffffffffffffffffffffffffffff\n      and\n      mul\n      or\n      swap1\n      sstore\n      pop\n        /* \"contracts/ownable.sol\":3180:3188  newOwner */\n      dup2\n        /* \"contracts/ownable.sol\":3149:3189  OwnershipTransferred(oldOwner, newOwner) */\n      0xffffffffffffffffffffffffffffffffffffffff\n      and\n        /* \"contracts/ownable.sol\":3170:3178  oldOwner */\n      dup2\n        /* \"contracts/ownable.sol\":3149:3189  OwnershipTransferred(oldOwner, newOwner) */\n      0xffffffffffffffffffffffffffffffffffffffff\n      and\n      0x8be0079c531659141344cd1fd0a4f28419497f9722a3daafe3b4186f6b6457e0\n      mload(0x40)\n      mload(0x40)\n      dup1\n      swap2\n      sub\n      swap1\n      log3\n        /* \"contracts/ownable.sol\":3069:3197  {... */\n      pop\n        /* \"contracts/ownable.sol\":3006:3197  function _transferOwnership(address newOwner) internal virtual {... */\n      pop\n      jump\t// out\n        /* \"contracts/context.sol\":679:777  function _msgSender() internal view virtual returns (address) {... */\n    tag_134:\n        /* \"contracts/context.sol\":732:739  address */\n      0x00\n        /* \"contracts/context.sol\":759:769  msg.sender */\n      caller\n        /* \"contracts/context.sol\":752:769  return msg.sender */\n      swap1\n      pop\n        /* \"contracts/context.sol\":679:777  function _msgSender() internal view virtual returns (address) {... */\n      swap1\n      jump\t// out\n        /* \"#utility.yul\":88:205   */\n    tag_142:\n        /* \"#utility.yul\":197:198   */\n      0x00\n        /* \"#utility.yul\":194:195   */\n      dup1\n        /* \"#utility.yul\":187:199   */\n      revert\n        /* \"#utility.yul\":334:411   */\n    tag_144:\n        /* \"#utility.yul\":371:378   */\n      0x00\n        /* \"#utility.yul\":400:405   */\n      dup2\n        /* \"#utility.yul\":389:405   */\n      swap1\n      pop\n        /* \"#utility.yul\":334:411   */\n      swap2\n      swap1\n      pop\n      jump\t// out\n        /* \"#utility.yul\":417:539   */\n    tag_145:\n        /* \"#utility.yul\":490:514   */\n      tag_183\n        /* \"#utility.yul\":508:513   */\n      dup2\n        /* \"#utility.yul\":490:514   */\n      tag_144\n      jump\t// in\n    tag_183:\n        /* \"#utility.yul\":483:488   */\n      dup2\n        /* \"#utility.yul\":480:515   */\n      eq\n        /* \"#utility.yul\":470:533   */\n      tag_184\n      jumpi\n        /* \"#utility.yul\":529:530   */\n      0x00\n        /* \"#utility.yul\":526:527   */\n      dup1\n        /* \"#utility.yul\":519:531   */\n      revert\n        /* \"#utility.yul\":470:533   */\n    tag_184:\n        /* \"#utility.yul\":417:539   */\n      pop\n      jump\t// out\n        /* \"#utility.yul\":545:684   */\n    tag_146:\n        /* \"#utility.yul\":591:596   */\n      0x00\n        /* \"#utility.yul\":629:635   */\n      dup2\n        /* \"#utility.yul\":616:636   */\n      calldataload\n        /* \"#utility.yul\":607:636   */\n      swap1\n      pop\n        /* \"#utility.yul\":645:678   */\n      tag_186\n        /* \"#utility.yul\":672:677   */\n      dup2\n        /* \"#utility.yul\":645:678   */\n      tag_145\n      jump\t// in\n    tag_186:\n        /* \"#utility.yul\":545:684   */\n      swap3\n      swap2\n      pop\n      pop\n      jump\t// out\n        /* \"#utility.yul\":690:1019   */\n    tag_22:\n        /* \"#utility.yul\":749:755   */\n      0x00\n        /* \"#utility.yul\":798:800   */\n      0x20\n        /* \"#utility.yul\":786:795   */\n      dup3\n        /* \"#utility.yul\":777:784   */\n      dup5\n        /* \"#utility.yul\":773:796   */\n      sub\n        /* \"#utility.yul\":769:801   */\n      slt\n        /* \"#utility.yul\":766:885   */\n      iszero\n      tag_188\n      jumpi\n        /* \"#utility.yul\":804:883   */\n      tag_189\n      tag_142\n      jump\t// in\n    tag_189:\n        /* \"#utility.yul\":766:885   */\n    tag_188:\n        /* \"#utility.yul\":924:925   */\n      0x00\n        /* \"#utility.yul\":949:1002   */\n      tag_190\n        /* \"#utility.yul\":994:1001   */\n      dup5\n        /* \"#utility.yul\":985:991   */\n      dup3\n        /* \"#utility.yul\":974:983   */\n      dup6\n        /* \"#utility.yul\":970:992   */\n      add\n        /* \"#utility.yul\":949:1002   */\n      tag_146\n      jump\t// in\n    tag_190:\n        /* \"#utility.yul\":939:1002   */\n      swap2\n      pop\n        /* \"#utility.yul\":895:1012   */\n      pop\n        /* \"#utility.yul\":690:1019   */\n      swap3\n      swap2\n      pop\n      pop\n      jump\t// out\n        /* \"#utility.yul\":1025:1115   */\n    tag_147:\n        /* \"#utility.yul\":1059:1066   */\n      0x00\n        /* \"#utility.yul\":1102:1107   */\n      dup2\n        /* \"#utility.yul\":1095:1108   */\n      iszero\n        /* \"#utility.yul\":1088:1109   */\n      iszero\n        /* \"#utility.yul\":1077:1109   */\n      swap1\n      pop\n        /* \"#utility.yul\":1025:1115   */\n      swap2\n      swap1\n      pop\n      jump\t// out\n        /* \"#utility.yul\":1121:1230   */\n    tag_148:\n        /* \"#utility.yul\":1202:1223   */\n      tag_193\n        /* \"#utility.yul\":1217:1222   */\n      dup2\n        /* \"#utility.yul\":1202:1223   */\n      tag_147\n      jump\t// in\n    tag_193:\n        /* \"#utility.yul\":1197:1200   */\n      dup3\n        /* \"#utility.yul\":1190:1224   */\n      mstore\n        /* \"#utility.yul\":1121:1230   */\n      pop\n      pop\n      jump\t// out\n        /* \"#utility.yul\":1236:1354   */\n    tag_149:\n        /* \"#utility.yul\":1323:1347   */\n      tag_195\n        /* \"#utility.yul\":1341:1346   */\n      dup2\n        /* \"#utility.yul\":1323:1347   */\n      tag_144\n      jump\t// in\n    tag_195:\n        /* \"#utility.yul\":1318:1321   */\n      dup3\n        /* \"#utility.yul\":1311:1348   */\n      mstore\n        /* \"#utility.yul\":1236:1354   */\n      pop\n      pop\n      jump\t// out\n        /* \"#utility.yul\":1360:1486   */\n    tag_150:\n        /* \"#utility.yul\":1397:1404   */\n      0x00\n        /* \"#utility.yul\":1437:1479   */\n      0xffffffffffffffffffffffffffffffffffffffff\n        /* \"#utility.yul\":1430:1435   */\n      dup3\n        /* \"#utility.yul\":1426:1480   */\n      and\n        /* \"#utility.yul\":1415:1480   */\n      swap1\n      pop\n        /* \"#utility.yul\":1360:1486   */\n      swap2\n      swap1\n      pop\n      jump\t// out\n        /* \"#utility.yul\":1492:1588   */\n    tag_151:\n        /* \"#utility.yul\":1529:1536   */\n      0x00\n        /* \"#utility.yul\":1558:1582   */\n      tag_198\n        /* \"#utility.yul\":1576:1581   */\n      dup3\n        /* \"#utility.yul\":1558:1582   */\n      tag_150\n      jump\t// in\n    tag_198:\n        /* \"#utility.yul\":1547:1582   */\n      swap1\n      pop\n        /* \"#utility.yul\":1492:1588   */\n      swap2\n      swap1\n      pop\n      jump\t// out\n        /* \"#utility.yul\":1594:1712   */\n    tag_152:\n        /* \"#utility.yul\":1681:1705   */\n      tag_200\n        /* \"#utility.yul\":1699:1704   */\n      dup2\n        /* \"#utility.yul\":1681:1705   */\n      tag_151\n      jump\t// in\n    tag_200:\n        /* \"#utility.yul\":1676:1679   */\n      dup3\n        /* \"#utility.yul\":1669:1706   */\n      mstore\n        /* \"#utility.yul\":1594:1712   */\n      pop\n      pop\n      jump\t// out\n        /* \"#utility.yul\":1718:2148   */\n    tag_25:\n        /* \"#utility.yul\":1861:1865   */\n      0x00\n        /* \"#utility.yul\":1899:1901   */\n      0x60\n        /* \"#utility.yul\":1888:1897   */\n      dup3\n        /* \"#utility.yul\":1884:1902   */\n      add\n        /* \"#utility.yul\":1876:1902   */\n      swap1\n      pop\n        /* \"#utility.yul\":1912:1977   */\n      tag_202\n        /* \"#utility.yul\":1974:1975   */\n      0x00\n        /* \"#utility.yul\":1963:1972   */\n      dup4\n        /* \"#utility.yul\":1959:1976   */\n      add\n        /* \"#utility.yul\":1950:1956   */\n      dup7\n        /* \"#utility.yul\":1912:1977   */\n      tag_148\n      jump\t// in\n    tag_202:\n        /* \"#utility.yul\":1987:2059   */\n      tag_203\n        /* \"#utility.yul\":2055:2057   */\n      0x20\n        /* \"#utility.yul\":2044:2053   */\n      dup4\n        /* \"#utility.yul\":2040:2058   */\n      add\n        /* \"#utility.yul\":2031:2037   */\n      dup6\n        /* \"#utility.yul\":1987:2059   */\n      tag_149\n      jump\t// in\n    tag_203:\n        /* \"#utility.yul\":2069:2141   */\n      tag_204\n        /* \"#utility.yul\":2137:2139   */\n      0x40\n        /* \"#utility.yul\":2126:2135   */\n      dup4\n        /* \"#utility.yul\":2122:2140   */\n      add\n        /* \"#utility.yul\":2113:2119   */\n      dup5\n        /* \"#utility.yul\":2069:2141   */\n      tag_152\n      jump\t// in\n    tag_204:\n        /* \"#utility.yul\":1718:2148   */\n      swap5\n      swap4\n      pop\n      pop\n      pop\n      pop\n      jump\t// out\n        /* \"#utility.yul\":2154:2268   */\n    tag_153:\n        /* \"#utility.yul\":2221:2227   */\n      0x00\n        /* \"#utility.yul\":2255:2260   */\n      dup2\n        /* \"#utility.yul\":2249:2261   */\n      mload\n        /* \"#utility.yul\":2239:2261   */\n      swap1\n      pop\n        /* \"#utility.yul\":2154:2268   */\n      swap2\n      swap1\n      pop\n      jump\t// out\n        /* \"#utility.yul\":2274:2458   */\n    tag_154:\n        /* \"#utility.yul\":2373:2384   */\n      0x00\n        /* \"#utility.yul\":2407:2413   */\n      dup3\n        /* \"#utility.yul\":2402:2405   */\n      dup3\n        /* \"#utility.yul\":2395:2414   */\n      mstore\n        /* \"#utility.yul\":2447:2451   */\n      0x20\n        /* \"#utility.yul\":2442:2445   */\n      dup3\n        /* \"#utility.yul\":2438:2452   */\n      add\n        /* \"#utility.yul\":2423:2452   */\n      swap1\n      pop\n        /* \"#utility.yul\":2274:2458   */\n      swap3\n      swap2\n      pop\n      pop\n      jump\t// out\n        /* \"#utility.yul\":2464:2596   */\n    tag_155:\n        /* \"#utility.yul\":2531:2535   */\n      0x00\n        /* \"#utility.yul\":2554:2557   */\n      dup2\n        /* \"#utility.yul\":2546:2557   */\n      swap1\n      pop\n        /* \"#utility.yul\":2584:2588   */\n      0x20\n        /* \"#utility.yul\":2579:2582   */\n      dup3\n        /* \"#utility.yul\":2575:2589   */\n      add\n        /* \"#utility.yul\":2567:2589   */\n      swap1\n      pop\n        /* \"#utility.yul\":2464:2596   */\n      swap2\n      swap1\n      pop\n      jump\t// out\n        /* \"#utility.yul\":2602:2710   */\n    tag_156:\n        /* \"#utility.yul\":2679:2703   */\n      tag_209\n        /* \"#utility.yul\":2697:2702   */\n      dup2\n        /* \"#utility.yul\":2679:2703   */\n      tag_151\n      jump\t// in\n    tag_209:\n        /* \"#utility.yul\":2674:2677   */\n      dup3\n        /* \"#utility.yul\":2667:2704   */\n      mstore\n        /* \"#utility.yul\":2602:2710   */\n      pop\n      pop\n      jump\t// out\n        /* \"#utility.yul\":2716:2895   */\n    tag_157:\n        /* \"#utility.yul\":2785:2795   */\n      0x00\n        /* \"#utility.yul\":2806:2852   */\n      tag_211\n        /* \"#utility.yul\":2848:2851   */\n      dup4\n        /* \"#utility.yul\":2840:2846   */\n      dup4\n        /* \"#utility.yul\":2806:2852   */\n      tag_156\n      jump\t// in\n    tag_211:\n        /* \"#utility.yul\":2884:2888   */\n      0x20\n        /* \"#utility.yul\":2879:2882   */\n      dup4\n        /* \"#utility.yul\":2875:2889   */\n      add\n        /* \"#utility.yul\":2861:2889   */\n      swap1\n      pop\n        /* \"#utility.yul\":2716:2895   */\n      swap3\n      swap2\n      pop\n      pop\n      jump\t// out\n        /* \"#utility.yul\":2901:3014   */\n    tag_158:\n        /* \"#utility.yul\":2971:2975   */\n      0x00\n        /* \"#utility.yul\":3003:3007   */\n      0x20\n        /* \"#utility.yul\":2998:3001   */\n      dup3\n        /* \"#utility.yul\":2994:3008   */\n      add\n        /* \"#utility.yul\":2986:3008   */\n      swap1\n      pop\n        /* \"#utility.yul\":2901:3014   */\n      swap2\n      swap1\n      pop\n      jump\t// out\n        /* \"#utility.yul\":3050:3782   */\n    tag_159:\n        /* \"#utility.yul\":3169:3172   */\n      0x00\n        /* \"#utility.yul\":3198:3252   */\n      tag_214\n        /* \"#utility.yul\":3246:3251   */\n      dup3\n        /* \"#utility.yul\":3198:3252   */\n      tag_153\n      jump\t// in\n    tag_214:\n        /* \"#utility.yul\":3268:3354   */\n      tag_215\n        /* \"#utility.yul\":3347:3353   */\n      dup2\n        /* \"#utility.yul\":3342:3345   */\n      dup6\n        /* \"#utility.yul\":3268:3354   */\n      tag_154\n      jump\t// in\n    tag_215:\n        /* \"#utility.yul\":3261:3354   */\n      swap4\n      pop\n        /* \"#utility.yul\":3378:3434   */\n      tag_216\n        /* \"#utility.yul\":3428:3433   */\n      dup4\n        /* \"#utility.yul\":3378:3434   */\n      tag_155\n      jump\t// in\n    tag_216:\n        /* \"#utility.yul\":3457:3464   */\n      dup1\n        /* \"#utility.yul\":3488:3489   */\n      0x00\n        /* \"#utility.yul\":3473:3757   */\n    tag_217:\n        /* \"#utility.yul\":3498:3504   */\n      dup4\n        /* \"#utility.yul\":3495:3496   */\n      dup2\n        /* \"#utility.yul\":3492:3505   */\n      lt\n        /* \"#utility.yul\":3473:3757   */\n      iszero\n      tag_219\n      jumpi\n        /* \"#utility.yul\":3574:3580   */\n      dup2\n        /* \"#utility.yul\":3568:3581   */\n      mload\n        /* \"#utility.yul\":3601:3664   */\n      tag_220\n        /* \"#utility.yul\":3660:3663   */\n      dup9\n        /* \"#utility.yul\":3645:3658   */\n      dup3\n        /* \"#utility.yul\":3601:3664   */\n      tag_157\n      jump\t// in\n    tag_220:\n        /* \"#utility.yul\":3594:3664   */\n      swap8\n      pop\n        /* \"#utility.yul\":3687:3747   */\n      tag_221\n        /* \"#utility.yul\":3740:3746   */\n      dup4\n        /* \"#utility.yul\":3687:3747   */\n      tag_158\n      jump\t// in\n    tag_221:\n        /* \"#utility.yul\":3677:3747   */\n      swap3\n      pop\n        /* \"#utility.yul\":3533:3757   */\n      pop\n        /* \"#utility.yul\":3520:3521   */\n      0x01\n        /* \"#utility.yul\":3517:3518   */\n      dup2\n        /* \"#utility.yul\":3513:3522   */\n      add\n        /* \"#utility.yul\":3508:3522   */\n      swap1\n      pop\n        /* \"#utility.yul\":3473:3757   */\n      jump(tag_217)\n    tag_219:\n        /* \"#utility.yul\":3477:3491   */\n      pop\n        /* \"#utility.yul\":3773:3776   */\n      dup6\n        /* \"#utility.yul\":3766:3776   */\n      swap4\n      pop\n        /* \"#utility.yul\":3174:3782   */\n      pop\n      pop\n      pop\n        /* \"#utility.yul\":3050:3782   */\n      swap3\n      swap2\n      pop\n      pop\n      jump\t// out\n        /* \"#utility.yul\":3788:4161   */\n    tag_30:\n        /* \"#utility.yul\":3931:3935   */\n      0x00\n        /* \"#utility.yul\":3969:3971   */\n      0x20\n        /* \"#utility.yul\":3958:3967   */\n      dup3\n        /* \"#utility.yul\":3954:3972   */\n      add\n        /* \"#utility.yul\":3946:3972   */\n      swap1\n      pop\n        /* \"#utility.yul\":4018:4027   */\n      dup2\n        /* \"#utility.yul\":4012:4016   */\n      dup2\n        /* \"#utility.yul\":4008:4028   */\n      sub\n        /* \"#utility.yul\":4004:4005   */\n      0x00\n        /* \"#utility.yul\":3993:4002   */\n      dup4\n        /* \"#utility.yul\":3989:4006   */\n      add\n        /* \"#utility.yul\":3982:4029   */\n      mstore\n        /* \"#utility.yul\":4046:4154   */\n      tag_223\n        /* \"#utility.yul\":4149:4153   */\n      dup2\n        /* \"#utility.yul\":4140:4146   */\n      dup5\n        /* \"#utility.yul\":4046:4154   */\n      tag_159\n      jump\t// in\n    tag_223:\n        /* \"#utility.yul\":4038:4154   */\n      swap1\n      pop\n        /* \"#utility.yul\":3788:4161   */\n      swap3\n      swap2\n      pop\n      pop\n      jump\t// out\n        /* \"#utility.yul\":4167:4289   */\n    tag_160:\n        /* \"#utility.yul\":4240:4264   */\n      tag_225\n        /* \"#utility.yul\":4258:4263   */\n      dup2\n        /* \"#utility.yul\":4240:4264   */\n      tag_151\n      jump\t// in\n    tag_225:\n        /* \"#utility.yul\":4233:4238   */\n      dup2\n        /* \"#utility.yul\":4230:4265   */\n      eq\n        /* \"#utility.yul\":4220:4283   */\n      tag_226\n      jumpi\n        /* \"#utility.yul\":4279:4280   */\n      0x00\n        /* \"#utility.yul\":4276:4277   */\n      dup1\n        /* \"#utility.yul\":4269:4281   */\n      revert\n        /* \"#utility.yul\":4220:4283   */\n    tag_226:\n        /* \"#utility.yul\":4167:4289   */\n      pop\n      jump\t// out\n        /* \"#utility.yul\":4295:4434   */\n    tag_161:\n        /* \"#utility.yul\":4341:4346   */\n      0x00\n        /* \"#utility.yul\":4379:4385   */\n      dup2\n        /* \"#utility.yul\":4366:4386   */\n      calldataload\n        /* \"#utility.yul\":4357:4386   */\n      swap1\n      pop\n        /* \"#utility.yul\":4395:4428   */\n      tag_228\n        /* \"#utility.yul\":4422:4427   */\n      dup2\n        /* \"#utility.yul\":4395:4428   */\n      tag_160\n      jump\t// in\n    tag_228:\n        /* \"#utility.yul\":4295:4434   */\n      swap3\n      swap2\n      pop\n      pop\n      jump\t// out\n        /* \"#utility.yul\":4440:4914   */\n    tag_33:\n        /* \"#utility.yul\":4508:4514   */\n      0x00\n        /* \"#utility.yul\":4516:4522   */\n      dup1\n        /* \"#utility.yul\":4565:4567   */\n      0x40\n        /* \"#utility.yul\":4553:4562   */\n      dup4\n        /* \"#utility.yul\":4544:4551   */\n      dup6\n        /* \"#utility.yul\":4540:4563   */\n      sub\n        /* \"#utility.yul\":4536:4568   */\n      slt\n        /* \"#utility.yul\":4533:4652   */\n      iszero\n      tag_230\n      jumpi\n        /* \"#utility.yul\":4571:4650   */\n      tag_231\n      tag_142\n      jump\t// in\n    tag_231:\n        /* \"#utility.yul\":4533:4652   */\n    tag_230:\n        /* \"#utility.yul\":4691:4692   */\n      0x00\n        /* \"#utility.yul\":4716:4769   */\n      tag_232\n        /* \"#utility.yul\":4761:4768   */\n      dup6\n        /* \"#utility.yul\":4752:4758   */\n      dup3\n        /* \"#utility.yul\":4741:4750   */\n      dup7\n        /* \"#utility.yul\":4737:4759   */\n      add\n        /* \"#utility.yul\":4716:4769   */\n      tag_146\n      jump\t// in\n    tag_232:\n        /* \"#utility.yul\":4706:4769   */\n      swap3\n      pop\n        /* \"#utility.yul\":4662:4779   */\n      pop\n        /* \"#utility.yul\":4818:4820   */\n      0x20\n        /* \"#utility.yul\":4844:4897   */\n      tag_233\n        /* \"#utility.yul\":4889:4896   */\n      dup6\n        /* \"#utility.yul\":4880:4886   */\n      dup3\n        /* \"#utility.yul\":4869:4878   */\n      dup7\n        /* \"#utility.yul\":4865:4887   */\n      add\n        /* \"#utility.yul\":4844:4897   */\n      tag_161\n      jump\t// in\n    tag_233:\n        /* \"#utility.yul\":4834:4897   */\n      swap2\n      pop\n        /* \"#utility.yul\":4789:4907   */\n      pop\n        /* \"#utility.yul\":4440:4914   */\n      swap3\n      pop\n      swap3\n      swap1\n      pop\n      jump\t// out\n        /* \"#utility.yul\":4920:5142   */\n    tag_36:\n        /* \"#utility.yul\":5013:5017   */\n      0x00\n        /* \"#utility.yul\":5051:5053   */\n      0x20\n        /* \"#utility.yul\":5040:5049   */\n      dup3\n        /* \"#utility.yul\":5036:5054   */\n      add\n        /* \"#utility.yul\":5028:5054   */\n      swap1\n      pop\n        /* \"#utility.yul\":5064:5135   */\n      tag_235\n        /* \"#utility.yul\":5132:5133   */\n      0x00\n        /* \"#utility.yul\":5121:5130   */\n      dup4\n        /* \"#utility.yul\":5117:5134   */\n      add\n        /* \"#utility.yul\":5108:5114   */\n      dup5\n        /* \"#utility.yul\":5064:5135   */\n      tag_149\n      jump\t// in\n    tag_235:\n        /* \"#utility.yul\":4920:5142   */\n      swap3\n      swap2\n      pop\n      pop\n      jump\t// out\n        /* \"#utility.yul\":5148:5370   */\n    tag_44:\n        /* \"#utility.yul\":5241:5245   */\n      0x00\n        /* \"#utility.yul\":5279:5281   */\n      0x20\n        /* \"#utility.yul\":5268:5277   */\n      dup3\n        /* \"#utility.yul\":5264:5282   */\n      add\n        /* \"#utility.yul\":5256:5282   */\n      swap1\n      pop\n        /* \"#utility.yul\":5292:5363   */\n      tag_237\n        /* \"#utility.yul\":5360:5361   */\n      0x00\n        /* \"#utility.yul\":5349:5358   */\n      dup4\n        /* \"#utility.yul\":5345:5362   */\n      add\n        /* \"#utility.yul\":5336:5342   */\n      dup5\n        /* \"#utility.yul\":5292:5363   */\n      tag_152\n      jump\t// in\n    tag_237:\n        /* \"#utility.yul\":5148:5370   */\n      swap3\n      swap2\n      pop\n      pop\n      jump\t// out\n        /* \"#utility.yul\":5376:5850   */\n    tag_47:\n        /* \"#utility.yul\":5444:5450   */\n      0x00\n        /* \"#utility.yul\":5452:5458   */\n      dup1\n        /* \"#utility.yul\":5501:5503   */\n      0x40\n        /* \"#utility.yul\":5489:5498   */\n      dup4\n        /* \"#utility.yul\":5480:5487   */\n      dup6\n        /* \"#utility.yul\":5476:5499   */\n      sub\n        /* \"#utility.yul\":5472:5504   */\n      slt\n        /* \"#utility.yul\":5469:5588   */\n      iszero\n      tag_239\n      jumpi\n        /* \"#utility.yul\":5507:5586   */\n      tag_240\n      tag_142\n      jump\t// in\n    tag_240:\n        /* \"#utility.yul\":5469:5588   */\n    tag_239:\n        /* \"#utility.yul\":5627:5628   */\n      0x00\n        /* \"#utility.yul\":5652:5705   */\n      tag_241\n        /* \"#utility.yul\":5697:5704   */\n      dup6\n        /* \"#utility.yul\":5688:5694   */\n      dup3\n        /* \"#utility.yul\":5677:5686   */\n      dup7\n        /* \"#utility.yul\":5673:5695   */\n      add\n        /* \"#utility.yul\":5652:5705   */\n      tag_146\n      jump\t// in\n    tag_241:\n        /* \"#utility.yul\":5642:5705   */\n      swap3\n      pop\n        /* \"#utility.yul\":5598:5715   */\n      pop\n        /* \"#utility.yul\":5754:5756   */\n      0x20\n        /* \"#utility.yul\":5780:5833   */\n      tag_242\n        /* \"#utility.yul\":5825:5832   */\n      dup6\n        /* \"#utility.yul\":5816:5822   */\n      dup3\n        /* \"#utility.yul\":5805:5814   */\n      dup7\n        /* \"#utility.yul\":5801:5823   */\n      add\n        /* \"#utility.yul\":5780:5833   */\n      tag_146\n      jump\t// in\n    tag_242:\n        /* \"#utility.yul\":5770:5833   */\n      swap2\n      pop\n        /* \"#utility.yul\":5725:5843   */\n      pop\n        /* \"#utility.yul\":5376:5850   */\n      swap3\n      pop\n      swap3\n      swap1\n      pop\n      jump\t// out\n        /* \"#utility.yul\":5856:6066   */\n    tag_50:\n        /* \"#utility.yul\":5943:5947   */\n      0x00\n        /* \"#utility.yul\":5981:5983   */\n      0x20\n        /* \"#utility.yul\":5970:5979   */\n      dup3\n        /* \"#utility.yul\":5966:5984   */\n      add\n        /* \"#utility.yul\":5958:5984   */\n      swap1\n      pop\n        /* \"#utility.yul\":5994:6059   */\n      tag_244\n        /* \"#utility.yul\":6056:6057   */\n      0x00\n        /* \"#utility.yul\":6045:6054   */\n      dup4\n        /* \"#utility.yul\":6041:6058   */\n      add\n        /* \"#utility.yul\":6032:6038   */\n      dup5\n        /* \"#utility.yul\":5994:6059   */\n      tag_148\n      jump\t// in\n    tag_244:\n        /* \"#utility.yul\":5856:6066   */\n      swap3\n      swap2\n      pop\n      pop\n      jump\t// out\n        /* \"#utility.yul\":6072:6186   */\n    tag_162:\n        /* \"#utility.yul\":6139:6145   */\n      0x00\n        /* \"#utility.yul\":6173:6178   */\n      dup2\n        /* \"#utility.yul\":6167:6179   */\n      mload\n        /* \"#utility.yul\":6157:6179   */\n      swap1\n      pop\n        /* \"#utility.yul\":6072:6186   */\n      swap2\n      swap1\n      pop\n      jump\t// out\n        /* \"#utility.yul\":6192:6376   */\n    tag_163:\n        /* \"#utility.yul\":6291:6302   */\n      0x00\n        /* \"#utility.yul\":6325:6331   */\n      dup3\n        /* \"#utility.yul\":6320:6323   */\n      dup3\n        /* \"#utility.yul\":6313:6332   */\n      mstore\n        /* \"#utility.yul\":6365:6369   */\n      0x20\n        /* \"#utility.yul\":6360:6363   */\n      dup3\n        /* \"#utility.yul\":6356:6370   */\n      add\n        /* \"#utility.yul\":6341:6370   */\n      swap1\n      pop\n        /* \"#utility.yul\":6192:6376   */\n      swap3\n      swap2\n      pop\n      pop\n      jump\t// out\n        /* \"#utility.yul\":6382:6514   */\n    tag_164:\n        /* \"#utility.yul\":6449:6453   */\n      0x00\n        /* \"#utility.yul\":6472:6475   */\n      dup2\n        /* \"#utility.yul\":6464:6475   */\n      swap1\n      pop\n        /* \"#utility.yul\":6502:6506   */\n      0x20\n        /* \"#utility.yul\":6497:6500   */\n      dup3\n        /* \"#utility.yul\":6493:6507   */\n      add\n        /* \"#utility.yul\":6485:6507   */\n      swap1\n      pop\n        /* \"#utility.yul\":6382:6514   */\n      swap2\n      swap1\n      pop\n      jump\t// out\n        /* \"#utility.yul\":6520:6628   */\n    tag_165:\n        /* \"#utility.yul\":6597:6621   */\n      tag_249\n        /* \"#utility.yul\":6615:6620   */\n      dup2\n        /* \"#utility.yul\":6597:6621   */\n      tag_144\n      jump\t// in\n    tag_249:\n        /* \"#utility.yul\":6592:6595   */\n      dup3\n        /* \"#utility.yul\":6585:6622   */\n      mstore\n        /* \"#utility.yul\":6520:6628   */\n      pop\n      pop\n      jump\t// out\n        /* \"#utility.yul\":6634:6813   */\n    tag_166:\n        /* \"#utility.yul\":6703:6713   */\n      0x00\n        /* \"#utility.yul\":6724:6770   */\n      tag_251\n        /* \"#utility.yul\":6766:6769   */\n      dup4\n        /* \"#utility.yul\":6758:6764   */\n      dup4\n        /* \"#utility.yul\":6724:6770   */\n      tag_165\n      jump\t// in\n    tag_251:\n        /* \"#utility.yul\":6802:6806   */\n      0x20\n        /* \"#utility.yul\":6797:6800   */\n      dup4\n        /* \"#utility.yul\":6793:6807   */\n      add\n        /* \"#utility.yul\":6779:6807   */\n      swap1\n      pop\n        /* \"#utility.yul\":6634:6813   */\n      swap3\n      swap2\n      pop\n      pop\n      jump\t// out\n        /* \"#utility.yul\":6819:6932   */\n    tag_167:\n        /* \"#utility.yul\":6889:6893   */\n      0x00\n        /* \"#utility.yul\":6921:6925   */\n      0x20\n        /* \"#utility.yul\":6916:6919   */\n      dup3\n        /* \"#utility.yul\":6912:6926   */\n      add\n        /* \"#utility.yul\":6904:6926   */\n      swap1\n      pop\n        /* \"#utility.yul\":6819:6932   */\n      swap2\n      swap1\n      pop\n      jump\t// out\n        /* \"#utility.yul\":6968:7700   */\n    tag_168:\n        /* \"#utility.yul\":7087:7090   */\n      0x00\n        /* \"#utility.yul\":7116:7170   */\n      tag_254\n        /* \"#utility.yul\":7164:7169   */\n      dup3\n        /* \"#utility.yul\":7116:7170   */\n      tag_162\n      jump\t// in\n    tag_254:\n        /* \"#utility.yul\":7186:7272   */\n      tag_255\n        /* \"#utility.yul\":7265:7271   */\n      dup2\n        /* \"#utility.yul\":7260:7263   */\n      dup6\n        /* \"#utility.yul\":7186:7272   */\n      tag_163\n      jump\t// in\n    tag_255:\n        /* \"#utility.yul\":7179:7272   */\n      swap4\n      pop\n        /* \"#utility.yul\":7296:7352   */\n      tag_256\n        /* \"#utility.yul\":7346:7351   */\n      dup4\n        /* \"#utility.yul\":7296:7352   */\n      tag_164\n      jump\t// in\n    tag_256:\n        /* \"#utility.yul\":7375:7382   */\n      dup1\n        /* \"#utility.yul\":7406:7407   */\n      0x00\n        /* \"#utility.yul\":7391:7675   */\n    tag_257:\n        /* \"#utility.yul\":7416:7422   */\n      dup4\n        /* \"#utility.yul\":7413:7414   */\n      dup2\n        /* \"#utility.yul\":7410:7423   */\n      lt\n        /* \"#utility.yul\":7391:7675   */\n      iszero\n      tag_259\n      jumpi\n        /* \"#utility.yul\":7492:7498   */\n      dup2\n        /* \"#utility.yul\":7486:7499   */\n      mload\n        /* \"#utility.yul\":7519:7582   */\n      tag_260\n        /* \"#utility.yul\":7578:7581   */\n      dup9\n        /* \"#utility.yul\":7563:7576   */\n      dup3\n        /* \"#utility.yul\":7519:7582   */\n      tag_166\n      jump\t// in\n    tag_260:\n        /* \"#utility.yul\":7512:7582   */\n      swap8\n      pop\n        /* \"#utility.yul\":7605:7665   */\n      tag_261\n        /* \"#utility.yul\":7658:7664   */\n      dup4\n        /* \"#utility.yul\":7605:7665   */\n      tag_167\n      jump\t// in\n    tag_261:\n        /* \"#utility.yul\":7595:7665   */\n      swap3\n      pop\n        /* \"#utility.yul\":7451:7675   */\n      pop\n        /* \"#utility.yul\":7438:7439   */\n      0x01\n        /* \"#utility.yul\":7435:7436   */\n      dup2\n        /* \"#utility.yul\":7431:7440   */\n      add\n        /* \"#utility.yul\":7426:7440   */\n      swap1\n      pop\n        /* \"#utility.yul\":7391:7675   */\n      jump(tag_257)\n    tag_259:\n        /* \"#utility.yul\":7395:7409   */\n      pop\n        /* \"#utility.yul\":7691:7694   */\n      dup6\n        /* \"#utility.yul\":7684:7694   */\n      swap4\n      pop\n        /* \"#utility.yul\":7092:7700   */\n      pop\n      pop\n      pop\n        /* \"#utility.yul\":6968:7700   */\n      swap3\n      swap2\n      pop\n      pop\n      jump\t// out\n        /* \"#utility.yul\":7706:8079   */\n    tag_59:\n        /* \"#utility.yul\":7849:7853   */\n      0x00\n        /* \"#utility.yul\":7887:7889   */\n      0x20\n        /* \"#utility.yul\":7876:7885   */\n      dup3\n        /* \"#utility.yul\":7872:7890   */\n      add\n        /* \"#utility.yul\":7864:7890   */\n      swap1\n      pop\n        /* \"#utility.yul\":7936:7945   */\n      dup2\n        /* \"#utility.yul\":7930:7934   */\n      dup2\n        /* \"#utility.yul\":7926:7946   */\n      sub\n        /* \"#utility.yul\":7922:7923   */\n      0x00\n        /* \"#utility.yul\":7911:7920   */\n      dup4\n        /* \"#utility.yul\":7907:7924   */\n      add\n        /* \"#utility.yul\":7900:7947   */\n      mstore\n        /* \"#utility.yul\":7964:8072   */\n      tag_263\n        /* \"#utility.yul\":8067:8071   */\n      dup2\n        /* \"#utility.yul\":8058:8064   */\n      dup5\n        /* \"#utility.yul\":7964:8072   */\n      tag_168\n      jump\t// in\n    tag_263:\n        /* \"#utility.yul\":7956:8072   */\n      swap1\n      pop\n        /* \"#utility.yul\":7706:8079   */\n      swap3\n      swap2\n      pop\n      pop\n      jump\t// out\n        /* \"#utility.yul\":8085:8414   */\n    tag_74:\n        /* \"#utility.yul\":8144:8150   */\n      0x00\n        /* \"#utility.yul\":8193:8195   */\n      0x20\n        /* \"#utility.yul\":8181:8190   */\n      dup3\n        /* \"#utility.yul\":8172:8179   */\n      dup5\n        /* \"#utility.yul\":8168:8191   */\n      sub\n        /* \"#utility.yul\":8164:8196   */\n      slt\n        /* \"#utility.yul\":8161:8280   */\n      iszero\n      tag_265\n      jumpi\n        /* \"#utility.yul\":8199:8278   */\n      tag_266\n      tag_142\n      jump\t// in\n    tag_266:\n        /* \"#utility.yul\":8161:8280   */\n    tag_265:\n        /* \"#utility.yul\":8319:8320   */\n      0x00\n        /* \"#utility.yul\":8344:8397   */\n      tag_267\n        /* \"#utility.yul\":8389:8396   */\n      dup5\n        /* \"#utility.yul\":8380:8386   */\n      dup3\n        /* \"#utility.yul\":8369:8378   */\n      dup6\n        /* \"#utility.yul\":8365:8387   */\n      add\n        /* \"#utility.yul\":8344:8397   */\n      tag_161\n      jump\t// in\n    tag_267:\n        /* \"#utility.yul\":8334:8397   */\n      swap2\n      pop\n        /* \"#utility.yul\":8290:8407   */\n      pop\n        /* \"#utility.yul\":8085:8414   */\n      swap3\n      swap2\n      pop\n      pop\n      jump\t// out\n        /* \"#utility.yul\":8420:8589   */\n    tag_169:\n        /* \"#utility.yul\":8504:8515   */\n      0x00\n        /* \"#utility.yul\":8538:8544   */\n      dup3\n        /* \"#utility.yul\":8533:8536   */\n      dup3\n        /* \"#utility.yul\":8526:8545   */\n      mstore\n        /* \"#utility.yul\":8578:8582   */\n      0x20\n        /* \"#utility.yul\":8573:8576   */\n      dup3\n        /* \"#utility.yul\":8569:8583   */\n      add\n        /* \"#utility.yul\":8554:8583   */\n      swap1\n      pop\n        /* \"#utility.yul\":8420:8589   */\n      swap3\n      swap2\n      pop\n      pop\n      jump\t// out\n        /* \"#utility.yul\":8595:8761   */\n    tag_170:\n        /* \"#utility.yul\":8735:8753   */\n      0x47616d6520496e697469616c697a656400000000000000000000000000000000\n        /* \"#utility.yul\":8731:8732   */\n      0x00\n        /* \"#utility.yul\":8723:8729   */\n      dup3\n        /* \"#utility.yul\":8719:8733   */\n      add\n        /* \"#utility.yul\":8712:8754   */\n      mstore\n        /* \"#utility.yul\":8595:8761   */\n      pop\n      jump\t// out\n        /* \"#utility.yul\":8767:9133   */\n    tag_171:\n        /* \"#utility.yul\":8909:8912   */\n      0x00\n        /* \"#utility.yul\":8930:8997   */\n      tag_271\n        /* \"#utility.yul\":8994:8996   */\n      0x10\n        /* \"#utility.yul\":8989:8992   */\n      dup4\n        /* \"#utility.yul\":8930:8997   */\n      tag_169\n      jump\t// in\n    tag_271:\n        /* \"#utility.yul\":8923:8997   */\n      swap2\n      pop\n        /* \"#utility.yul\":9006:9099   */\n      tag_272\n        /* \"#utility.yul\":9095:9098   */\n      dup3\n        /* \"#utility.yul\":9006:9099   */\n      tag_170\n      jump\t// in\n    tag_272:\n        /* \"#utility.yul\":9124:9126   */\n      0x20\n        /* \"#utility.yul\":9119:9122   */\n      dup3\n        /* \"#utility.yul\":9115:9127   */\n      add\n        /* \"#utility.yul\":9108:9127   */\n      swap1\n      pop\n        /* \"#utility.yul\":8767:9133   */\n      swap2\n      swap1\n      pop\n      jump\t// out\n        /* \"#utility.yul\":9139:9558   */\n    tag_83:\n        /* \"#utility.yul\":9305:9309   */\n      0x00\n        /* \"#utility.yul\":9343:9345   */\n      0x20\n        /* \"#utility.yul\":9332:9341   */\n      dup3\n        /* \"#utility.yul\":9328:9346   */\n      add\n        /* \"#utility.yul\":9320:9346   */\n      swap1\n      pop\n        /* \"#utility.yul\":9392:9401   */\n      dup2\n        /* \"#utility.yul\":9386:9390   */\n      dup2\n        /* \"#utility.yul\":9382:9402   */\n      sub\n        /* \"#utility.yul\":9378:9379   */\n      0x00\n        /* \"#utility.yul\":9367:9376   */\n      dup4\n        /* \"#utility.yul\":9363:9380   */\n      add\n        /* \"#utility.yul\":9356:9403   */\n      mstore\n        /* \"#utility.yul\":9420:9551   */\n      tag_274\n        /* \"#utility.yul\":9546:9550   */\n      dup2\n        /* \"#utility.yul\":9420:9551   */\n      tag_171\n      jump\t// in\n    tag_274:\n        /* \"#utility.yul\":9412:9551   */\n      swap1\n      pop\n        /* \"#utility.yul\":9139:9558   */\n      swap2\n      swap1\n      pop\n      jump\t// out\n        /* \"#utility.yul\":9564:9722   */\n    tag_172:\n        /* \"#utility.yul\":9704:9714   */\n      0x46696e6973686564000000000000000000000000000000000000000000000000\n        /* \"#utility.yul\":9700:9701   */\n      0x00\n        /* \"#utility.yul\":9692:9698   */\n      dup3\n        /* \"#utility.yul\":9688:9702   */\n      add\n        /* \"#utility.yul\":9681:9715   */\n      mstore\n        /* \"#utility.yul\":9564:9722   */\n      pop\n      jump\t// out\n        /* \"#utility.yul\":9728:10093   */\n    tag_173:\n        /* \"#utility.yul\":9870:9873   */\n      0x00\n        /* \"#utility.yul\":9891:9957   */\n      tag_277\n        /* \"#utility.yul\":9955:9956   */\n      0x08\n        /* \"#utility.yul\":9950:9953   */\n      dup4\n        /* \"#utility.yul\":9891:9957   */\n      tag_169\n      jump\t// in\n    tag_277:\n        /* \"#utility.yul\":9884:9957   */\n      swap2\n      pop\n        /* \"#utility.yul\":9966:10059   */\n      tag_278\n        /* \"#utility.yul\":10055:10058   */\n      dup3\n        /* \"#utility.yul\":9966:10059   */\n      tag_172\n      jump\t// in\n    tag_278:\n        /* \"#utility.yul\":10084:10086   */\n      0x20\n        /* \"#utility.yul\":10079:10082   */\n      dup3\n        /* \"#utility.yul\":10075:10087   */\n      add\n        /* \"#utility.yul\":10068:10087   */\n      swap1\n      pop\n        /* \"#utility.yul\":9728:10093   */\n      swap2\n      swap1\n      pop\n      jump\t// out\n        /* \"#utility.yul\":10099:10518   */\n    tag_91:\n        /* \"#utility.yul\":10265:10269   */\n      0x00\n        /* \"#utility.yul\":10303:10305   */\n      0x20\n        /* \"#utility.yul\":10292:10301   */\n      dup3\n        /* \"#utility.yul\":10288:10306   */\n      add\n        /* \"#utility.yul\":10280:10306   */\n      swap1\n      pop\n        /* \"#utility.yul\":10352:10361   */\n      dup2\n        /* \"#utility.yul\":10346:10350   */\n      dup2\n        /* \"#utility.yul\":10342:10362   */\n      sub\n        /* \"#utility.yul\":10338:10339   */\n      0x00\n        /* \"#utility.yul\":10327:10336   */\n      dup4\n        /* \"#utility.yul\":10323:10340   */\n      add\n        /* \"#utility.yul\":10316:10363   */\n      mstore\n        /* \"#utility.yul\":10380:10511   */\n      tag_280\n        /* \"#utility.yul\":10506:10510   */\n      dup2\n        /* \"#utility.yul\":10380:10511   */\n      tag_173\n      jump\t// in\n    tag_280:\n        /* \"#utility.yul\":10372:10511   */\n      swap1\n      pop\n        /* \"#utility.yul\":10099:10518   */\n      swap2\n      swap1\n      pop\n      jump\t// out\n        /* \"#utility.yul\":10524:10704   */\n    tag_174:\n        /* \"#utility.yul\":10572:10649   */\n      0x4e487b7100000000000000000000000000000000000000000000000000000000\n        /* \"#utility.yul\":10569:10570   */\n      0x00\n        /* \"#utility.yul\":10562:10650   */\n      mstore\n        /* \"#utility.yul\":10669:10673   */\n      0x11\n        /* \"#utility.yul\":10666:10667   */\n      0x04\n        /* \"#utility.yul\":10659:10674   */\n      mstore\n        /* \"#utility.yul\":10693:10697   */\n      0x24\n        /* \"#utility.yul\":10690:10691   */\n      0x00\n        /* \"#utility.yul\":10683:10698   */\n      revert\n        /* \"#utility.yul\":10710:10901   */\n    tag_103:\n        /* \"#utility.yul\":10750:10753   */\n      0x00\n        /* \"#utility.yul\":10769:10789   */\n      tag_283\n        /* \"#utility.yul\":10787:10788   */\n      dup3\n        /* \"#utility.yul\":10769:10789   */\n      tag_144\n      jump\t// in\n    tag_283:\n        /* \"#utility.yul\":10764:10789   */\n      swap2\n      pop\n        /* \"#utility.yul\":10803:10823   */\n      tag_284\n        /* \"#utility.yul\":10821:10822   */\n      dup4\n        /* \"#utility.yul\":10803:10823   */\n      tag_144\n      jump\t// in\n    tag_284:\n        /* \"#utility.yul\":10798:10823   */\n      swap3\n      pop\n        /* \"#utility.yul\":10846:10847   */\n      dup3\n        /* \"#utility.yul\":10843:10844   */\n      dup3\n        /* \"#utility.yul\":10839:10848   */\n      add\n        /* \"#utility.yul\":10832:10848   */\n      swap1\n      pop\n        /* \"#utility.yul\":10867:10870   */\n      dup1\n        /* \"#utility.yul\":10864:10865   */\n      dup3\n        /* \"#utility.yul\":10861:10871   */\n      gt\n        /* \"#utility.yul\":10858:10894   */\n      iszero\n      tag_285\n      jumpi\n        /* \"#utility.yul\":10874:10892   */\n      tag_286\n      tag_174\n      jump\t// in\n    tag_286:\n        /* \"#utility.yul\":10858:10894   */\n    tag_285:\n        /* \"#utility.yul\":10710:10901   */\n      swap3\n      swap2\n      pop\n      pop\n      jump\t// out\n        /* \"#utility.yul\":10907:11068   */\n    tag_175:\n        /* \"#utility.yul\":11047:11060   */\n      0x47616d6520657869737473000000000000000000000000000000000000000000\n        /* \"#utility.yul\":11043:11044   */\n      0x00\n        /* \"#utility.yul\":11035:11041   */\n      dup3\n        /* \"#utility.yul\":11031:11045   */\n      add\n        /* \"#utility.yul\":11024:11061   */\n      mstore\n        /* \"#utility.yul\":10907:11068   */\n      pop\n      jump\t// out\n        /* \"#utility.yul\":11074:11440   */\n    tag_176:\n        /* \"#utility.yul\":11216:11219   */\n      0x00\n        /* \"#utility.yul\":11237:11304   */\n      tag_289\n        /* \"#utility.yul\":11301:11303   */\n      0x0b\n        /* \"#utility.yul\":11296:11299   */\n      dup4\n        /* \"#utility.yul\":11237:11304   */\n      tag_169\n      jump\t// in\n    tag_289:\n        /* \"#utility.yul\":11230:11304   */\n      swap2\n      pop\n        /* \"#utility.yul\":11313:11406   */\n      tag_290\n        /* \"#utility.yul\":11402:11405   */\n      dup3\n        /* \"#utility.yul\":11313:11406   */\n      tag_175\n      jump\t// in\n    tag_290:\n        /* \"#utility.yul\":11431:11433   */\n      0x20\n        /* \"#utility.yul\":11426:11429   */\n      dup3\n        /* \"#utility.yul\":11422:11434   */\n      add\n        /* \"#utility.yul\":11415:11434   */\n      swap1\n      pop\n        /* \"#utility.yul\":11074:11440   */\n      swap2\n      swap1\n      pop\n      jump\t// out\n        /* \"#utility.yul\":11446:11865   */\n    tag_123:\n        /* \"#utility.yul\":11612:11616   */\n      0x00\n        /* \"#utility.yul\":11650:11652   */\n      0x20\n        /* \"#utility.yul\":11639:11648   */\n      dup3\n        /* \"#utility.yul\":11635:11653   */\n      add\n        /* \"#utility.yul\":11627:11653   */\n      swap1\n      pop\n        /* \"#utility.yul\":11699:11708   */\n      dup2\n        /* \"#utility.yul\":11693:11697   */\n      dup2\n        /* \"#utility.yul\":11689:11709   */\n      sub\n        /* \"#utility.yul\":11685:11686   */\n      0x00\n        /* \"#utility.yul\":11674:11683   */\n      dup4\n        /* \"#utility.yul\":11670:11687   */\n      add\n        /* \"#utility.yul\":11663:11710   */\n      mstore\n        /* \"#utility.yul\":11727:11858   */\n      tag_292\n        /* \"#utility.yul\":11853:11857   */\n      dup2\n        /* \"#utility.yul\":11727:11858   */\n      tag_176\n      jump\t// in\n    tag_292:\n        /* \"#utility.yul\":11719:11858   */\n      swap1\n      pop\n        /* \"#utility.yul\":11446:11865   */\n      swap2\n      swap1\n      pop\n      jump\t// out\n\n    auxdata: 0xa2646970667358221220e20bbbf321717190392ad813b4847e0399873f4169c91f96e7c7d221311eb44864736f6c63430008120033\n}\n",
				"bytecode": {
					"linkReferences": {},
					"object": "60806040523480156200001157600080fd5b5060405162001611380380620016118339818101604052810190620000379190620001f4565b80600073ffffffffffffffffffffffffffffffffffffffff168173ffffffffffffffffffffffffffffffffffffffff1603620000ad5760006040517f1e4fbdf7000000000000000000000000000000000000000000000000000000008152600401620000a4919062000237565b60405180910390fd5b620000be81620000c660201b60201c565b505062000254565b60008060009054906101000a900473ffffffffffffffffffffffffffffffffffffffff169050816000806101000a81548173ffffffffffffffffffffffffffffffffffffffff021916908373ffffffffffffffffffffffffffffffffffffffff1602179055508173ffffffffffffffffffffffffffffffffffffffff168173ffffffffffffffffffffffffffffffffffffffff167f8be0079c531659141344cd1fd0a4f28419497f9722a3daafe3b4186f6b6457e060405160405180910390a35050565b600080fd5b600073ffffffffffffffffffffffffffffffffffffffff82169050919050565b6000620001bc826200018f565b9050919050565b620001ce81620001af565b8114620001da57600080fd5b50565b600081519050620001ee81620001c3565b92915050565b6000602082840312156200020d576200020c6200018a565b5b60006200021d84828501620001dd565b91505092915050565b6200023181620001af565b82525050565b60006020820190506200024e600083018462000226565b92915050565b6113ad80620002646000396000f3fe608060405234801561001057600080fd5b50600436106100ea5760003560e01c80638da5cb5b1161008c578063d82c13f011610066578063d82c13f014610275578063e5ed1d59146102a5578063ee9b80a4146102d5578063f2fde38b14610305576100ea565b80638da5cb5b146102095780639bc01b3614610227578063ce33bd7414610245576100ea565b806334fcc3e7116100c857806334fcc3e71461018157806355a373d6146101b15780636ffcc719146101cf578063715018a6146101ff576100ea565b8063117a5b90146100ef57806316b169c4146101215780632c32b18714610151575b600080fd5b61010960048036038101906101049190610e06565b610321565b60405161011893929190610e9e565b60405180910390f35b61013b60048036038101906101369190610e06565b610378565b6040516101489190610f93565b60405180910390f35b61016b60048036038101906101669190610fe1565b61047f565b6040516101789190611021565b60405180910390f35b61019b60048036038101906101969190610fe1565b6105fd565b6040516101a89190611021565b60405180910390f35b6101b96106be565b6040516101c6919061103c565b60405180910390f35b6101e960048036038101906101e49190611057565b6106e4565b6040516101f69190611097565b60405180910390f35b610207610962565b005b610211610976565b60405161021e919061103c565b60405180910390f35b61022f61099f565b60405161023c9190611170565b60405180910390f35b61025f600480360381019061025a9190610e06565b6109f7565b60405161026c9190611021565b60405180910390f35b61028f600480360381019061028a9190610e06565b610ab7565b60405161029c9190611021565b60405180910390f35b6102bf60048036038101906102ba9190610e06565b610adb565b6040516102cc9190611097565b60405180910390f35b6102ef60048036038101906102ea9190611192565b610ba6565b6040516102fc9190611097565b60405180910390f35b61031f600480360381019061031a9190611192565b610bf2565b005b60016020528060005260406000206000915090508060000160009054906101000a900460ff16908060020154908060040160009054906101000a900473ffffffffffffffffffffffffffffffffffffffff16905083565b60606001600083815260200190815260200160002060000160009054906101000a900460ff166103dd576040517f08c379a00000000000000000000000000000000000000000000000000000000081526004016103d49061121c565b60405180910390fd5b6001600083815260200190815260200160002060030180548060200260200160405190810160405280929190818152602001828054801561047357602002820191906000526020600020905b8160009054906101000a900473ffffffffffffffffffffffffffffffffffffffff1673ffffffffffffffffffffffffffffffffffffffff1681526020019060010190808311610429575b50505050509050919050565b60006001600084815260200190815260200160002060000160009054906101000a900460ff166104e4576040517f08c379a00000000000000000000000000000000000000000000000000000000081526004016104db9061121c565b60405180910390fd5b600073ffffffffffffffffffffffffffffffffffffffff166001600085815260200190815260200160002060040160009054906101000a900473ffffffffffffffffffffffffffffffffffffffff1673ffffffffffffffffffffffffffffffffffffffff1614610589576040517f08c379a000000000000000000000000000000000000000000000000000000000815260040161058090611288565b60405180910390fd5b816001600085815260200190815260200160002060040160006101000a81548173ffffffffffffffffffffffffffffffffffffffff021916908373ffffffffffffffffffffffffffffffffffffffff1602179055506001600084815260200190815260200160002060020154905092915050565b60006001600084815260200190815260200160002060000160009054906101000a900460ff16610662576040517f08c379a00000000000000000000000000000000000000000000000000000000081526004016106599061121c565b60405180910390fd5b6001600084815260200190815260200160002060010160008373ffffffffffffffffffffffffffffffffffffffff1673ffffffffffffffffffffffffffffffffffffffff16815260200190815260200160002054905092915050565b600360009054906101000a900473ffffffffffffffffffffffffffffffffffffffff1681565b60006001600084815260200190815260200160002060000160009054906101000a900460ff16610749576040517f08c379a00000000000000000000000000000000000000000000000000000000081526004016107409061121c565b60405180910390fd5b600073ffffffffffffffffffffffffffffffffffffffff166001600085815260200190815260200160002060040160009054906101000a900473ffffffffffffffffffffffffffffffffffffffff1673ffffffffffffffffffffffffffffffffffffffff16146107ee576040517f08c379a00000000000000000000000000000000000000000000000000000000081526004016107e590611288565b60405180910390fd5b60006001600085815260200190815260200160002060010160003373ffffffffffffffffffffffffffffffffffffffff1673ffffffffffffffffffffffffffffffffffffffff16815260200190815260200160002054036108c15760016000848152602001908152602001600020600301339080600181540180825580915050600190039060005260206000200160009091909190916101000a81548173ffffffffffffffffffffffffffffffffffffffff021916908373ffffffffffffffffffffffffffffffffffffffff1602179055505b816001600085815260200190815260200160002060010160003373ffffffffffffffffffffffffffffffffffffffff1673ffffffffffffffffffffffffffffffffffffffff168152602001908152602001600020600082825461092491906112d7565b925050819055508160016000858152602001908152602001600020600201600082825461095191906112d7565b925050819055506001905092915050565b61096a610c78565b6109746000610cff565b565b60008060009054906101000a900473ffffffffffffffffffffffffffffffffffffffff16905090565b606060028054806020026020016040519081016040528092919081815260200182805480156109ed57602002820191906000526020600020905b8154815260200190600101908083116109d9575b5050505050905090565b60006001600083815260200190815260200160002060000160009054906101000a900460ff16610a5c576040517f08c379a0000000000000000000000000000000000000000000000000000000008152600401610a539061121c565b60405180910390fd5b6001600083815260200190815260200160002060010160003373ffffffffffffffffffffffffffffffffffffffff1673ffffffffffffffffffffffffffffffffffffffff168152602001908152602001600020549050919050565b60028181548110610ac757600080fd5b906000526020600020016000915090505481565b60008015156001600084815260200190815260200160002060000160009054906101000a900460ff16151514610b46576040517f08c379a0000000000000000000000000000000000000000000000000000000008152600401610b3d90611357565b60405180910390fd5b600180600084815260200190815260200160002060000160006101000a81548160ff021916908315150217905550600282908060018154018082558091505060019003906000526020600020016000909190919091505560019050919050565b600081600360006101000a81548173ffffffffffffffffffffffffffffffffffffffff021916908373ffffffffffffffffffffffffffffffffffffffff16021790555060019050919050565b610bfa610c78565b600073ffffffffffffffffffffffffffffffffffffffff168173ffffffffffffffffffffffffffffffffffffffff1603610c6c5760006040517f1e4fbdf7000000000000000000000000000000000000000000000000000000008152600401610c63919061103c565b60405180910390fd5b610c7581610cff565b50565b610c80610dc3565b73ffffffffffffffffffffffffffffffffffffffff16610c9e610976565b73ffffffffffffffffffffffffffffffffffffffff1614610cfd57610cc1610dc3565b6040517f118cdaa7000000000000000000000000000000000000000000000000000000008152600401610cf4919061103c565b60405180910390fd5b565b60008060009054906101000a900473ffffffffffffffffffffffffffffffffffffffff169050816000806101000a81548173ffffffffffffffffffffffffffffffffffffffff021916908373ffffffffffffffffffffffffffffffffffffffff1602179055508173ffffffffffffffffffffffffffffffffffffffff168173ffffffffffffffffffffffffffffffffffffffff167f8be0079c531659141344cd1fd0a4f28419497f9722a3daafe3b4186f6b6457e060405160405180910390a35050565b600033905090565b600080fd5b6000819050919050565b610de381610dd0565b8114610dee57600080fd5b50565b600081359050610e0081610dda565b92915050565b600060208284031215610e1c57610e1b610dcb565b5b6000610e2a84828501610df1565b91505092915050565b60008115159050919050565b610e4881610e33565b82525050565b610e5781610dd0565b82525050565b600073ffffffffffffffffffffffffffffffffffffffff82169050919050565b6000610e8882610e5d565b9050919050565b610e9881610e7d565b82525050565b6000606082019050610eb36000830186610e3f565b610ec06020830185610e4e565b610ecd6040830184610e8f565b949350505050565b600081519050919050565b600082825260208201905092915050565b6000819050602082019050919050565b610f0a81610e7d565b82525050565b6000610f1c8383610f01565b60208301905092915050565b6000602082019050919050565b6000610f4082610ed5565b610f4a8185610ee0565b9350610f5583610ef1565b8060005b83811015610f86578151610f6d8882610f10565b9750610f7883610f28565b925050600181019050610f59565b5085935050505092915050565b60006020820190508181036000830152610fad8184610f35565b905092915050565b610fbe81610e7d565b8114610fc957600080fd5b50565b600081359050610fdb81610fb5565b92915050565b60008060408385031215610ff857610ff7610dcb565b5b600061100685828601610df1565b925050602061101785828601610fcc565b9150509250929050565b60006020820190506110366000830184610e4e565b92915050565b60006020820190506110516000830184610e8f565b92915050565b6000806040838503121561106e5761106d610dcb565b5b600061107c85828601610df1565b925050602061108d85828601610df1565b9150509250929050565b60006020820190506110ac6000830184610e3f565b92915050565b600081519050919050565b600082825260208201905092915050565b6000819050602082019050919050565b6110e781610dd0565b82525050565b60006110f983836110de565b60208301905092915050565b6000602082019050919050565b600061111d826110b2565b61112781856110bd565b9350611132836110ce565b8060005b8381101561116357815161114a88826110ed565b975061115583611105565b925050600181019050611136565b5085935050505092915050565b6000602082019050818103600083015261118a8184611112565b905092915050565b6000602082840312156111a8576111a7610dcb565b5b60006111b684828501610fcc565b91505092915050565b600082825260208201905092915050565b7f47616d6520496e697469616c697a656400000000000000000000000000000000600082015250565b60006112066010836111bf565b9150611211826111d0565b602082019050919050565b60006020820190508181036000830152611235816111f9565b9050919050565b7f46696e6973686564000000000000000000000000000000000000000000000000600082015250565b60006112726008836111bf565b915061127d8261123c565b602082019050919050565b600060208201905081810360008301526112a181611265565b9050919050565b7f4e487b7100000000000000000000000000000000000000000000000000000000600052601160045260246000fd5b60006112e282610dd0565b91506112ed83610dd0565b9250828201905080821115611305576113046112a8565b5b92915050565b7f47616d6520657869737473000000000000000000000000000000000000000000600082015250565b6000611341600b836111bf565b915061134c8261130b565b602082019050919050565b6000602082019050818103600083015261137081611334565b905091905056fea2646970667358221220e20bbbf321717190392ad813b4847e0399873f4169c91f96e7c7d221311eb44864736f6c63430008120033",
					"opcodes": "PUSH1 0x80 PUSH1 0x40 MSTORE CALLVALUE DUP1 ISZERO PUSH3 0x11 JUMPI PUSH1 0x0 DUP1 REVERT JUMPDEST POP PUSH1 0x40 MLOAD PUSH3 0x1611 CODESIZE SUB DUP1 PUSH3 0x1611 DUP4 CODECOPY DUP2 DUP2 ADD PUSH1 0x40 MSTORE DUP2 ADD SWAP1 PUSH3 0x37 SWAP2 SWAP1 PUSH3 0x1F4 JUMP JUMPDEST DUP1 PUSH1 0x0 PUSH20 0xFFFFFFFFFFFFFFFFFFFFFFFFFFFFFFFFFFFFFFFF AND DUP2 PUSH20 0xFFFFFFFFFFFFFFFFFFFFFFFFFFFFFFFFFFFFFFFF AND SUB PUSH3 0xAD JUMPI PUSH1 0x0 PUSH1 0x40 MLOAD PUSH32 0x1E4FBDF700000000000000000000000000000000000000000000000000000000 DUP2 MSTORE PUSH1 0x4 ADD PUSH3 0xA4 SWAP2 SWAP1 PUSH3 0x237 JUMP JUMPDEST PUSH1 0x40 MLOAD DUP1 SWAP2 SUB SWAP1 REVERT JUMPDEST PUSH3 0xBE DUP2 PUSH3 0xC6 PUSH1 0x20 SHL PUSH1 0x20 SHR JUMP JUMPDEST POP POP PUSH3 0x254 JUMP JUMPDEST PUSH1 0x0 DUP1 PUSH1 0x0 SWAP1 SLOAD SWAP1 PUSH2 0x100 EXP SWAP1 DIV PUSH20 0xFFFFFFFFFFFFFFFFFFFFFFFFFFFFFFFFFFFFFFFF AND SWAP1 POP DUP2 PUSH1 0x0 DUP1 PUSH2 0x100 EXP DUP2 SLOAD DUP2 PUSH20 0xFFFFFFFFFFFFFFFFFFFFFFFFFFFFFFFFFFFFFFFF MUL NOT AND SWAP1 DUP4 PUSH20 0xFFFFFFFFFFFFFFFFFFFFFFFFFFFFFFFFFFFFFFFF AND MUL OR SWAP1 SSTORE POP DUP2 PUSH20 0xFFFFFFFFFFFFFFFFFFFFFFFFFFFFFFFFFFFFFFFF AND DUP2 PUSH20 0xFFFFFFFFFFFFFFFFFFFFFFFFFFFFFFFFFFFFFFFF AND PUSH32 0x8BE0079C531659141344CD1FD0A4F28419497F9722A3DAAFE3B4186F6B6457E0 PUSH1 0x40 MLOAD PUSH1 0x40 MLOAD DUP1 SWAP2 SUB SWAP1 LOG3 POP POP JUMP JUMPDEST PUSH1 0x0 DUP1 REVERT JUMPDEST PUSH1 0x0 PUSH20 0xFFFFFFFFFFFFFFFFFFFFFFFFFFFFFFFFFFFFFFFF DUP3 AND SWAP1 POP SWAP2 SWAP1 POP JUMP JUMPDEST PUSH1 0x0 PUSH3 0x1BC DUP3 PUSH3 0x18F JUMP JUMPDEST SWAP1 POP SWAP2 SWAP1 POP JUMP JUMPDEST PUSH3 0x1CE DUP2 PUSH3 0x1AF JUMP JUMPDEST DUP2 EQ PUSH3 0x1DA JUMPI PUSH1 0x0 DUP1 REVERT JUMPDEST POP JUMP JUMPDEST PUSH1 0x0 DUP2 MLOAD SWAP1 POP PUSH3 0x1EE DUP2 PUSH3 0x1C3 JUMP JUMPDEST SWAP3 SWAP2 POP POP JUMP JUMPDEST PUSH1 0x0 PUSH1 0x20 DUP3 DUP5 SUB SLT ISZERO PUSH3 0x20D JUMPI PUSH3 0x20C PUSH3 0x18A JUMP JUMPDEST JUMPDEST PUSH1 0x0 PUSH3 0x21D DUP5 DUP3 DUP6 ADD PUSH3 0x1DD JUMP JUMPDEST SWAP2 POP POP SWAP3 SWAP2 POP POP JUMP JUMPDEST PUSH3 0x231 DUP2 PUSH3 0x1AF JUMP JUMPDEST DUP3 MSTORE POP POP JUMP JUMPDEST PUSH1 0x0 PUSH1 0x20 DUP3 ADD SWAP1 POP PUSH3 0x24E PUSH1 0x0 DUP4 ADD DUP5 PUSH3 0x226 JUMP JUMPDEST SWAP3 SWAP2 POP POP JUMP JUMPDEST PUSH2 0x13AD DUP1 PUSH3 0x264 PUSH1 0x0 CODECOPY PUSH1 0x0 RETURN INVALID PUSH1 0x80 PUSH1 0x40 MSTORE CALLVALUE DUP1 ISZERO PUSH2 0x10 JUMPI PUSH1 0x0 DUP1 REVERT JUMPDEST POP PUSH1 0x4 CALLDATASIZE LT PUSH2 0xEA JUMPI PUSH1 0x0 CALLDATALOAD PUSH1 0xE0 SHR DUP1 PUSH4 0x8DA5CB5B GT PUSH2 0x8C JUMPI DUP1 PUSH4 0xD82C13F0 GT PUSH2 0x66 JUMPI DUP1 PUSH4 0xD82C13F0 EQ PUSH2 0x275 JUMPI DUP1 PUSH4 0xE5ED1D59 EQ PUSH2 0x2A5 JUMPI DUP1 PUSH4 0xEE9B80A4 EQ PUSH2 0x2D5 JUMPI DUP1 PUSH4 0xF2FDE38B EQ PUSH2 0x305 JUMPI PUSH2 0xEA JUMP JUMPDEST DUP1 PUSH4 0x8DA5CB5B EQ PUSH2 0x209 JUMPI DUP1 PUSH4 0x9BC01B36 EQ PUSH2 0x227 JUMPI DUP1 PUSH4 0xCE33BD74 EQ PUSH2 0x245 JUMPI PUSH2 0xEA JUMP JUMPDEST DUP1 PUSH4 0x34FCC3E7 GT PUSH2 0xC8 JUMPI DUP1 PUSH4 0x34FCC3E7 EQ PUSH2 0x181 JUMPI DUP1 PUSH4 0x55A373D6 EQ PUSH2 0x1B1 JUMPI DUP1 PUSH4 0x6FFCC719 EQ PUSH2 0x1CF JUMPI DUP1 PUSH4 0x715018A6 EQ PUSH2 0x1FF JUMPI PUSH2 0xEA JUMP JUMPDEST DUP1 PUSH4 0x117A5B90 EQ PUSH2 0xEF JUMPI DUP1 PUSH4 0x16B169C4 EQ PUSH2 0x121 JUMPI DUP1 PUSH4 0x2C32B187 EQ PUSH2 0x151 JUMPI JUMPDEST PUSH1 0x0 DUP1 REVERT JUMPDEST PUSH2 0x109 PUSH1 0x4 DUP1 CALLDATASIZE SUB DUP2 ADD SWAP1 PUSH2 0x104 SWAP2 SWAP1 PUSH2 0xE06 JUMP JUMPDEST PUSH2 0x321 JUMP JUMPDEST PUSH1 0x40 MLOAD PUSH2 0x118 SWAP4 SWAP3 SWAP2 SWAP1 PUSH2 0xE9E JUMP JUMPDEST PUSH1 0x40 MLOAD DUP1 SWAP2 SUB SWAP1 RETURN JUMPDEST PUSH2 0x13B PUSH1 0x4 DUP1 CALLDATASIZE SUB DUP2 ADD SWAP1 PUSH2 0x136 SWAP2 SWAP1 PUSH2 0xE06 JUMP JUMPDEST PUSH2 0x378 JUMP JUMPDEST PUSH1 0x40 MLOAD PUSH2 0x148 SWAP2 SWAP1 PUSH2 0xF93 JUMP JUMPDEST PUSH1 0x40 MLOAD DUP1 SWAP2 SUB SWAP1 RETURN JUMPDEST PUSH2 0x16B PUSH1 0x4 DUP1 CALLDATASIZE SUB DUP2 ADD SWAP1 PUSH2 0x166 SWAP2 SWAP1 PUSH2 0xFE1 JUMP JUMPDEST PUSH2 0x47F JUMP JUMPDEST PUSH1 0x40 MLOAD PUSH2 0x178 SWAP2 SWAP1 PUSH2 0x1021 JUMP JUMPDEST PUSH1 0x40 MLOAD DUP1 SWAP2 SUB SWAP1 RETURN JUMPDEST PUSH2 0x19B PUSH1 0x4 DUP1 CALLDATASIZE SUB DUP2 ADD SWAP1 PUSH2 0x196 SWAP2 SWAP1 PUSH2 0xFE1 JUMP JUMPDEST PUSH2 0x5FD JUMP JUMPDEST PUSH1 0x40 MLOAD PUSH2 0x1A8 SWAP2 SWAP1 PUSH2 0x1021 JUMP JUMPDEST PUSH1 0x40 MLOAD DUP1 SWAP2 SUB SWAP1 RETURN JUMPDEST PUSH2 0x1B9 PUSH2 0x6BE JUMP JUMPDEST PUSH1 0x40 MLOAD PUSH2 0x1C6 SWAP2 SWAP1 PUSH2 0x103C JUMP JUMPDEST PUSH1 0x40 MLOAD DUP1 SWAP2 SUB SWAP1 RETURN JUMPDEST PUSH2 0x1E9 PUSH1 0x4 DUP1 CALLDATASIZE SUB DUP2 ADD SWAP1 PUSH2 0x1E4 SWAP2 SWAP1 PUSH2 0x1057 JUMP JUMPDEST PUSH2 0x6E4 JUMP JUMPDEST PUSH1 0x40 MLOAD PUSH2 0x1F6 SWAP2 SWAP1 PUSH2 0x1097 JUMP JUMPDEST PUSH1 0x40 MLOAD DUP1 SWAP2 SUB SWAP1 RETURN JUMPDEST PUSH2 0x207 PUSH2 0x962 JUMP JUMPDEST STOP JUMPDEST PUSH2 0x211 PUSH2 0x976 JUMP JUMPDEST PUSH1 0x40 MLOAD PUSH2 0x21E SWAP2 SWAP1 PUSH2 0x103C JUMP JUMPDEST PUSH1 0x40 MLOAD DUP1 SWAP2 SUB SWAP1 RETURN JUMPDEST PUSH2 0x22F PUSH2 0x99F JUMP JUMPDEST PUSH1 0x40 MLOAD PUSH2 0x23C SWAP2 SWAP1 PUSH2 0x1170 JUMP JUMPDEST PUSH1 0x40 MLOAD DUP1 SWAP2 SUB SWAP1 RETURN JUMPDEST PUSH2 0x25F PUSH1 0x4 DUP1 CALLDATASIZE SUB DUP2 ADD SWAP1 PUSH2 0x25A SWAP2 SWAP1 PUSH2 0xE06 JUMP JUMPDEST PUSH2 0x9F7 JUMP JUMPDEST PUSH1 0x40 MLOAD PUSH2 0x26C SWAP2 SWAP1 PUSH2 0x1021 JUMP JUMPDEST PUSH1 0x40 MLOAD DUP1 SWAP2 SUB SWAP1 RETURN JUMPDEST PUSH2 0x28F PUSH1 0x4 DUP1 CALLDATASIZE SUB DUP2 ADD SWAP1 PUSH2 0x28A SWAP2 SWAP1 PUSH2 0xE06 JUMP JUMPDEST PUSH2 0xAB7 JUMP JUMPDEST PUSH1 0x40 MLOAD PUSH2 0x29C SWAP2 SWAP1 PUSH2 0x1021 JUMP JUMPDEST PUSH1 0x40 MLOAD DUP1 SWAP2 SUB SWAP1 RETURN JUMPDEST PUSH2 0x2BF PUSH1 0x4 DUP1 CALLDATASIZE SUB DUP2 ADD SWAP1 PUSH2 0x2BA SWAP2 SWAP1 PUSH2 0xE06 JUMP JUMPDEST PUSH2 0xADB JUMP JUMPDEST PUSH1 0x40 MLOAD PUSH2 0x2CC SWAP2 SWAP1 PUSH2 0x1097 JUMP JUMPDEST PUSH1 0x40 MLOAD DUP1 SWAP2 SUB SWAP1 RETURN JUMPDEST PUSH2 0x2EF PUSH1 0x4 DUP1 CALLDATASIZE SUB DUP2 ADD SWAP1 PUSH2 0x2EA SWAP2 SWAP1 PUSH2 0x1192 JUMP JUMPDEST PUSH2 0xBA6 JUMP JUMPDEST PUSH1 0x40 MLOAD PUSH2 0x2FC SWAP2 SWAP1 PUSH2 0x1097 JUMP JUMPDEST PUSH1 0x40 MLOAD DUP1 SWAP2 SUB SWAP1 RETURN JUMPDEST PUSH2 0x31F PUSH1 0x4 DUP1 CALLDATASIZE SUB DUP2 ADD SWAP1 PUSH2 0x31A SWAP2 SWAP1 PUSH2 0x1192 JUMP JUMPDEST PUSH2 0xBF2 JUMP JUMPDEST STOP JUMPDEST PUSH1 0x1 PUSH1 0x20 MSTORE DUP1 PUSH1 0x0 MSTORE PUSH1 0x40 PUSH1 0x0 KECCAK256 PUSH1 0x0 SWAP2 POP SWAP1 POP DUP1 PUSH1 0x0 ADD PUSH1 0x0 SWAP1 SLOAD SWAP1 PUSH2 0x100 EXP SWAP1 DIV PUSH1 0xFF AND SWAP1 DUP1 PUSH1 0x2 ADD SLOAD SWAP1 DUP1 PUSH1 0x4 ADD PUSH1 0x0 SWAP1 SLOAD SWAP1 PUSH2 0x100 EXP SWAP1 DIV PUSH20 0xFFFFFFFFFFFFFFFFFFFFFFFFFFFFFFFFFFFFFFFF AND SWAP1 POP DUP4 JUMP JUMPDEST PUSH1 0x60 PUSH1 0x1 PUSH1 0x0 DUP4 DUP2 MSTORE PUSH1 0x20 ADD SWAP1 DUP2 MSTORE PUSH1 0x20 ADD PUSH1 0x0 KECCAK256 PUSH1 0x0 ADD PUSH1 0x0 SWAP1 SLOAD SWAP1 PUSH2 0x100 EXP SWAP1 DIV PUSH1 0xFF AND PUSH2 0x3DD JUMPI PUSH1 0x40 MLOAD PUSH32 0x8C379A000000000000000000000000000000000000000000000000000000000 DUP2 MSTORE PUSH1 0x4 ADD PUSH2 0x3D4 SWAP1 PUSH2 0x121C JUMP JUMPDEST PUSH1 0x40 MLOAD DUP1 SWAP2 SUB SWAP1 REVERT JUMPDEST PUSH1 0x1 PUSH1 0x0 DUP4 DUP2 MSTORE PUSH1 0x20 ADD SWAP1 DUP2 MSTORE PUSH1 0x20 ADD PUSH1 0x0 KECCAK256 PUSH1 0x3 ADD DUP1 SLOAD DUP1 PUSH1 0x20 MUL PUSH1 0x20 ADD PUSH1 0x40 MLOAD SWAP1 DUP2 ADD PUSH1 0x40 MSTORE DUP1 SWAP3 SWAP2 SWAP1 DUP2 DUP2 MSTORE PUSH1 0x20 ADD DUP3 DUP1 SLOAD DUP1 ISZERO PUSH2 0x473 JUMPI PUSH1 0x20 MUL DUP3 ADD SWAP2 SWAP1 PUSH1 0x0 MSTORE PUSH1 0x20 PUSH1 0x0 KECCAK256 SWAP1 JUMPDEST DUP2 PUSH1 0x0 SWAP1 SLOAD SWAP1 PUSH2 0x100 EXP SWAP1 DIV PUSH20 0xFFFFFFFFFFFFFFFFFFFFFFFFFFFFFFFFFFFFFFFF AND PUSH20 0xFFFFFFFFFFFFFFFFFFFFFFFFFFFFFFFFFFFFFFFF AND DUP2 MSTORE PUSH1 0x20 ADD SWAP1 PUSH1 0x1 ADD SWAP1 DUP1 DUP4 GT PUSH2 0x429 JUMPI JUMPDEST POP POP POP POP POP SWAP1 POP SWAP2 SWAP1 POP JUMP JUMPDEST PUSH1 0x0 PUSH1 0x1 PUSH1 0x0 DUP5 DUP2 MSTORE PUSH1 0x20 ADD SWAP1 DUP2 MSTORE PUSH1 0x20 ADD PUSH1 0x0 KECCAK256 PUSH1 0x0 ADD PUSH1 0x0 SWAP1 SLOAD SWAP1 PUSH2 0x100 EXP SWAP1 DIV PUSH1 0xFF AND PUSH2 0x4E4 JUMPI PUSH1 0x40 MLOAD PUSH32 0x8C379A000000000000000000000000000000000000000000000000000000000 DUP2 MSTORE PUSH1 0x4 ADD PUSH2 0x4DB SWAP1 PUSH2 0x121C JUMP JUMPDEST PUSH1 0x40 MLOAD DUP1 SWAP2 SUB SWAP1 REVERT JUMPDEST PUSH1 0x0 PUSH20 0xFFFFFFFFFFFFFFFFFFFFFFFFFFFFFFFFFFFFFFFF AND PUSH1 0x1 PUSH1 0x0 DUP6 DUP2 MSTORE PUSH1 0x20 ADD SWAP1 DUP2 MSTORE PUSH1 0x20 ADD PUSH1 0x0 KECCAK256 PUSH1 0x4 ADD PUSH1 0x0 SWAP1 SLOAD SWAP1 PUSH2 0x100 EXP SWAP1 DIV PUSH20 0xFFFFFFFFFFFFFFFFFFFFFFFFFFFFFFFFFFFFFFFF AND PUSH20 0xFFFFFFFFFFFFFFFFFFFFFFFFFFFFFFFFFFFFFFFF AND EQ PUSH2 0x589 JUMPI PUSH1 0x40 MLOAD PUSH32 0x8C379A000000000000000000000000000000000000000000000000000000000 DUP2 MSTORE PUSH1 0x4 ADD PUSH2 0x580 SWAP1 PUSH2 0x1288 JUMP JUMPDEST PUSH1 0x40 MLOAD DUP1 SWAP2 SUB SWAP1 REVERT JUMPDEST DUP2 PUSH1 0x1 PUSH1 0x0 DUP6 DUP2 MSTORE PUSH1 0x20 ADD SWAP1 DUP2 MSTORE PUSH1 0x20 ADD PUSH1 0x0 KECCAK256 PUSH1 0x4 ADD PUSH1 0x0 PUSH2 0x100 EXP DUP2 SLOAD DUP2 PUSH20 0xFFFFFFFFFFFFFFFFFFFFFFFFFFFFFFFFFFFFFFFF MUL NOT AND SWAP1 DUP4 PUSH20 0xFFFFFFFFFFFFFFFFFFFFFFFFFFFFFFFFFFFFFFFF AND MUL OR SWAP1 SSTORE POP PUSH1 0x1 PUSH1 0x0 DUP5 DUP2 MSTORE PUSH1 0x20 ADD SWAP1 DUP2 MSTORE PUSH1 0x20 ADD PUSH1 0x0 KECCAK256 PUSH1 0x2 ADD SLOAD SWAP1 POP SWAP3 SWAP2 POP POP JUMP JUMPDEST PUSH1 0x0 PUSH1 0x1 PUSH1 0x0 DUP5 DUP2 MSTORE PUSH1 0x20 ADD SWAP1 DUP2 MSTORE PUSH1 0x20 ADD PUSH1 0x0 KECCAK256 PUSH1 0x0 ADD PUSH1 0x0 SWAP1 SLOAD SWAP1 PUSH2 0x100 EXP SWAP1 DIV PUSH1 0xFF AND PUSH2 0x662 JUMPI PUSH1 0x40 MLOAD PUSH32 0x8C379A000000000000000000000000000000000000000000000000000000000 DUP2 MSTORE PUSH1 0x4 ADD PUSH2 0x659 SWAP1 PUSH2 0x121C JUMP JUMPDEST PUSH1 0x40 MLOAD DUP1 SWAP2 SUB SWAP1 REVERT JUMPDEST PUSH1 0x1 PUSH1 0x0 DUP5 DUP2 MSTORE PUSH1 0x20 ADD SWAP1 DUP2 MSTORE PUSH1 0x20 ADD PUSH1 0x0 KECCAK256 PUSH1 0x1 ADD PUSH1 0x0 DUP4 PUSH20 0xFFFFFFFFFFFFFFFFFFFFFFFFFFFFFFFFFFFFFFFF AND PUSH20 0xFFFFFFFFFFFFFFFFFFFFFFFFFFFFFFFFFFFFFFFF AND DUP2 MSTORE PUSH1 0x20 ADD SWAP1 DUP2 MSTORE PUSH1 0x20 ADD PUSH1 0x0 KECCAK256 SLOAD SWAP1 POP SWAP3 SWAP2 POP POP JUMP JUMPDEST PUSH1 0x3 PUSH1 0x0 SWAP1 SLOAD SWAP1 PUSH2 0x100 EXP SWAP1 DIV PUSH20 0xFFFFFFFFFFFFFFFFFFFFFFFFFFFFFFFFFFFFFFFF AND DUP2 JUMP JUMPDEST PUSH1 0x0 PUSH1 0x1 PUSH1 0x0 DUP5 DUP2 MSTORE PUSH1 0x20 ADD SWAP1 DUP2 MSTORE PUSH1 0x20 ADD PUSH1 0x0 KECCAK256 PUSH1 0x0 ADD PUSH1 0x0 SWAP1 SLOAD SWAP1 PUSH2 0x100 EXP SWAP1 DIV PUSH1 0xFF AND PUSH2 0x749 JUMPI PUSH1 0x40 MLOAD PUSH32 0x8C379A000000000000000000000000000000000000000000000000000000000 DUP2 MSTORE PUSH1 0x4 ADD PUSH2 0x740 SWAP1 PUSH2 0x121C JUMP JUMPDEST PUSH1 0x40 MLOAD DUP1 SWAP2 SUB SWAP1 REVERT JUMPDEST PUSH1 0x0 PUSH20 0xFFFFFFFFFFFFFFFFFFFFFFFFFFFFFFFFFFFFFFFF AND PUSH1 0x1 PUSH1 0x0 DUP6 DUP2 MSTORE PUSH1 0x20 ADD SWAP1 DUP2 MSTORE PUSH1 0x20 ADD PUSH1 0x0 KECCAK256 PUSH1 0x4 ADD PUSH1 0x0 SWAP1 SLOAD SWAP1 PUSH2 0x100 EXP SWAP1 DIV PUSH20 0xFFFFFFFFFFFFFFFFFFFFFFFFFFFFFFFFFFFFFFFF AND PUSH20 0xFFFFFFFFFFFFFFFFFFFFFFFFFFFFFFFFFFFFFFFF AND EQ PUSH2 0x7EE JUMPI PUSH1 0x40 MLOAD PUSH32 0x8C379A000000000000000000000000000000000000000000000000000000000 DUP2 MSTORE PUSH1 0x4 ADD PUSH2 0x7E5 SWAP1 PUSH2 0x1288 JUMP JUMPDEST PUSH1 0x40 MLOAD DUP1 SWAP2 SUB SWAP1 REVERT JUMPDEST PUSH1 0x0 PUSH1 0x1 PUSH1 0x0 DUP6 DUP2 MSTORE PUSH1 0x20 ADD SWAP1 DUP2 MSTORE PUSH1 0x20 ADD PUSH1 0x0 KECCAK256 PUSH1 0x1 ADD PUSH1 0x0 CALLER PUSH20 0xFFFFFFFFFFFFFFFFFFFFFFFFFFFFFFFFFFFFFFFF AND PUSH20 0xFFFFFFFFFFFFFFFFFFFFFFFFFFFFFFFFFFFFFFFF AND DUP2 MSTORE PUSH1 0x20 ADD SWAP1 DUP2 MSTORE PUSH1 0x20 ADD PUSH1 0x0 KECCAK256 SLOAD SUB PUSH2 0x8C1 JUMPI PUSH1 0x1 PUSH1 0x0 DUP5 DUP2 MSTORE PUSH1 0x20 ADD SWAP1 DUP2 MSTORE PUSH1 0x20 ADD PUSH1 0x0 KECCAK256 PUSH1 0x3 ADD CALLER SWAP1 DUP1 PUSH1 0x1 DUP2 SLOAD ADD DUP1 DUP3 SSTORE DUP1 SWAP2 POP POP PUSH1 0x1 SWAP1 SUB SWAP1 PUSH1 0x0 MSTORE PUSH1 0x20 PUSH1 0x0 KECCAK256 ADD PUSH1 0x0 SWAP1 SWAP2 SWAP1 SWAP2 SWAP1 SWAP2 PUSH2 0x100 EXP DUP2 SLOAD DUP2 PUSH20 0xFFFFFFFFFFFFFFFFFFFFFFFFFFFFFFFFFFFFFFFF MUL NOT AND SWAP1 DUP4 PUSH20 0xFFFFFFFFFFFFFFFFFFFFFFFFFFFFFFFFFFFFFFFF AND MUL OR SWAP1 SSTORE POP JUMPDEST DUP2 PUSH1 0x1 PUSH1 0x0 DUP6 DUP2 MSTORE PUSH1 0x20 ADD SWAP1 DUP2 MSTORE PUSH1 0x20 ADD PUSH1 0x0 KECCAK256 PUSH1 0x1 ADD PUSH1 0x0 CALLER PUSH20 0xFFFFFFFFFFFFFFFFFFFFFFFFFFFFFFFFFFFFFFFF AND PUSH20 0xFFFFFFFFFFFFFFFFFFFFFFFFFFFFFFFFFFFFFFFF AND DUP2 MSTORE PUSH1 0x20 ADD SWAP1 DUP2 MSTORE PUSH1 0x20 ADD PUSH1 0x0 KECCAK256 PUSH1 0x0 DUP3 DUP3 SLOAD PUSH2 0x924 SWAP2 SWAP1 PUSH2 0x12D7 JUMP JUMPDEST SWAP3 POP POP DUP2 SWAP1 SSTORE POP DUP2 PUSH1 0x1 PUSH1 0x0 DUP6 DUP2 MSTORE PUSH1 0x20 ADD SWAP1 DUP2 MSTORE PUSH1 0x20 ADD PUSH1 0x0 KECCAK256 PUSH1 0x2 ADD PUSH1 0x0 DUP3 DUP3 SLOAD PUSH2 0x951 SWAP2 SWAP1 PUSH2 0x12D7 JUMP JUMPDEST SWAP3 POP POP DUP2 SWAP1 SSTORE POP PUSH1 0x1 SWAP1 POP SWAP3 SWAP2 POP POP JUMP JUMPDEST PUSH2 0x96A PUSH2 0xC78 JUMP JUMPDEST PUSH2 0x974 PUSH1 0x0 PUSH2 0xCFF JUMP JUMPDEST JUMP JUMPDEST PUSH1 0x0 DUP1 PUSH1 0x0 SWAP1 SLOAD SWAP1 PUSH2 0x100 EXP SWAP1 DIV PUSH20 0xFFFFFFFFFFFFFFFFFFFFFFFFFFFFFFFFFFFFFFFF AND SWAP1 POP SWAP1 JUMP JUMPDEST PUSH1 0x60 PUSH1 0x2 DUP1 SLOAD DUP1 PUSH1 0x20 MUL PUSH1 0x20 ADD PUSH1 0x40 MLOAD SWAP1 DUP2 ADD PUSH1 0x40 MSTORE DUP1 SWAP3 SWAP2 SWAP1 DUP2 DUP2 MSTORE PUSH1 0x20 ADD DUP3 DUP1 SLOAD DUP1 ISZERO PUSH2 0x9ED JUMPI PUSH1 0x20 MUL DUP3 ADD SWAP2 SWAP1 PUSH1 0x0 MSTORE PUSH1 0x20 PUSH1 0x0 KECCAK256 SWAP1 JUMPDEST DUP2 SLOAD DUP2 MSTORE PUSH1 0x20 ADD SWAP1 PUSH1 0x1 ADD SWAP1 DUP1 DUP4 GT PUSH2 0x9D9 JUMPI JUMPDEST POP POP POP POP POP SWAP1 POP SWAP1 JUMP JUMPDEST PUSH1 0x0 PUSH1 0x1 PUSH1 0x0 DUP4 DUP2 MSTORE PUSH1 0x20 ADD SWAP1 DUP2 MSTORE PUSH1 0x20 ADD PUSH1 0x0 KECCAK256 PUSH1 0x0 ADD PUSH1 0x0 SWAP1 SLOAD SWAP1 PUSH2 0x100 EXP SWAP1 DIV PUSH1 0xFF AND PUSH2 0xA5C JUMPI PUSH1 0x40 MLOAD PUSH32 0x8C379A000000000000000000000000000000000000000000000000000000000 DUP2 MSTORE PUSH1 0x4 ADD PUSH2 0xA53 SWAP1 PUSH2 0x121C JUMP JUMPDEST PUSH1 0x40 MLOAD DUP1 SWAP2 SUB SWAP1 REVERT JUMPDEST PUSH1 0x1 PUSH1 0x0 DUP4 DUP2 MSTORE PUSH1 0x20 ADD SWAP1 DUP2 MSTORE PUSH1 0x20 ADD PUSH1 0x0 KECCAK256 PUSH1 0x1 ADD PUSH1 0x0 CALLER PUSH20 0xFFFFFFFFFFFFFFFFFFFFFFFFFFFFFFFFFFFFFFFF AND PUSH20 0xFFFFFFFFFFFFFFFFFFFFFFFFFFFFFFFFFFFFFFFF AND DUP2 MSTORE PUSH1 0x20 ADD SWAP1 DUP2 MSTORE PUSH1 0x20 ADD PUSH1 0x0 KECCAK256 SLOAD SWAP1 POP SWAP2 SWAP1 POP JUMP JUMPDEST PUSH1 0x2 DUP2 DUP2 SLOAD DUP2 LT PUSH2 0xAC7 JUMPI PUSH1 0x0 DUP1 REVERT JUMPDEST SWAP1 PUSH1 0x0 MSTORE PUSH1 0x20 PUSH1 0x0 KECCAK256 ADD PUSH1 0x0 SWAP2 POP SWAP1 POP SLOAD DUP2 JUMP JUMPDEST PUSH1 0x0 DUP1 ISZERO ISZERO PUSH1 0x1 PUSH1 0x0 DUP5 DUP2 MSTORE PUSH1 0x20 ADD SWAP1 DUP2 MSTORE PUSH1 0x20 ADD PUSH1 0x0 KECCAK256 PUSH1 0x0 ADD PUSH1 0x0 SWAP1 SLOAD SWAP1 PUSH2 0x100 EXP SWAP1 DIV PUSH1 0xFF AND ISZERO ISZERO EQ PUSH2 0xB46 JUMPI PUSH1 0x40 MLOAD PUSH32 0x8C379A000000000000000000000000000000000000000000000000000000000 DUP2 MSTORE PUSH1 0x4 ADD PUSH2 0xB3D SWAP1 PUSH2 0x1357 JUMP JUMPDEST PUSH1 0x40 MLOAD DUP1 SWAP2 SUB SWAP1 REVERT JUMPDEST PUSH1 0x1 DUP1 PUSH1 0x0 DUP5 DUP2 MSTORE PUSH1 0x20 ADD SWAP1 DUP2 MSTORE PUSH1 0x20 ADD PUSH1 0x0 KECCAK256 PUSH1 0x0 ADD PUSH1 0x0 PUSH2 0x100 EXP DUP2 SLOAD DUP2 PUSH1 0xFF MUL NOT AND SWAP1 DUP4 ISZERO ISZERO MUL OR SWAP1 SSTORE POP PUSH1 0x2 DUP3 SWAP1 DUP1 PUSH1 0x1 DUP2 SLOAD ADD DUP1 DUP3 SSTORE DUP1 SWAP2 POP POP PUSH1 0x1 SWAP1 SUB SWAP1 PUSH1 0x0 MSTORE PUSH1 0x20 PUSH1 0x0 KECCAK256 ADD PUSH1 0x0 SWAP1 SWAP2 SWAP1 SWAP2 SWAP1 SWAP2 POP SSTORE PUSH1 0x1 SWAP1 POP SWAP2 SWAP1 POP JUMP JUMPDEST PUSH1 0x0 DUP2 PUSH1 0x3 PUSH1 0x0 PUSH2 0x100 EXP DUP2 SLOAD DUP2 PUSH20 0xFFFFFFFFFFFFFFFFFFFFFFFFFFFFFFFFFFFFFFFF MUL NOT AND SWAP1 DUP4 PUSH20 0xFFFFFFFFFFFFFFFFFFFFFFFFFFFFFFFFFFFFFFFF AND MUL OR SWAP1 SSTORE POP PUSH1 0x1 SWAP1 POP SWAP2 SWAP1 POP JUMP JUMPDEST PUSH2 0xBFA PUSH2 0xC78 JUMP JUMPDEST PUSH1 0x0 PUSH20 0xFFFFFFFFFFFFFFFFFFFFFFFFFFFFFFFFFFFFFFFF AND DUP2 PUSH20 0xFFFFFFFFFFFFFFFFFFFFFFFFFFFFFFFFFFFFFFFF AND SUB PUSH2 0xC6C JUMPI PUSH1 0x0 PUSH1 0x40 MLOAD PUSH32 0x1E4FBDF700000000000000000000000000000000000000000000000000000000 DUP2 MSTORE PUSH1 0x4 ADD PUSH2 0xC63 SWAP2 SWAP1 PUSH2 0x103C JUMP JUMPDEST PUSH1 0x40 MLOAD DUP1 SWAP2 SUB SWAP1 REVERT JUMPDEST PUSH2 0xC75 DUP2 PUSH2 0xCFF JUMP JUMPDEST POP JUMP JUMPDEST PUSH2 0xC80 PUSH2 0xDC3 JUMP JUMPDEST PUSH20 0xFFFFFFFFFFFFFFFFFFFFFFFFFFFFFFFFFFFFFFFF AND PUSH2 0xC9E PUSH2 0x976 JUMP JUMPDEST PUSH20 0xFFFFFFFFFFFFFFFFFFFFFFFFFFFFFFFFFFFFFFFF AND EQ PUSH2 0xCFD JUMPI PUSH2 0xCC1 PUSH2 0xDC3 JUMP JUMPDEST PUSH1 0x40 MLOAD PUSH32 0x118CDAA700000000000000000000000000000000000000000000000000000000 DUP2 MSTORE PUSH1 0x4 ADD PUSH2 0xCF4 SWAP2 SWAP1 PUSH2 0x103C JUMP JUMPDEST PUSH1 0x40 MLOAD DUP1 SWAP2 SUB SWAP1 REVERT JUMPDEST JUMP JUMPDEST PUSH1 0x0 DUP1 PUSH1 0x0 SWAP1 SLOAD SWAP1 PUSH2 0x100 EXP SWAP1 DIV PUSH20 0xFFFFFFFFFFFFFFFFFFFFFFFFFFFFFFFFFFFFFFFF AND SWAP1 POP DUP2 PUSH1 0x0 DUP1 PUSH2 0x100 EXP DUP2 SLOAD DUP2 PUSH20 0xFFFFFFFFFFFFFFFFFFFFFFFFFFFFFFFFFFFFFFFF MUL NOT AND SWAP1 DUP4 PUSH20 0xFFFFFFFFFFFFFFFFFFFFFFFFFFFFFFFFFFFFFFFF AND MUL OR SWAP1 SSTORE POP DUP2 PUSH20 0xFFFFFFFFFFFFFFFFFFFFFFFFFFFFFFFFFFFFFFFF AND DUP2 PUSH20 0xFFFFFFFFFFFFFFFFFFFFFFFFFFFFFFFFFFFFFFFF AND PUSH32 0x8BE0079C531659141344CD1FD0A4F28419497F9722A3DAAFE3B4186F6B6457E0 PUSH1 0x40 MLOAD PUSH1 0x40 MLOAD DUP1 SWAP2 SUB SWAP1 LOG3 POP POP JUMP JUMPDEST PUSH1 0x0 CALLER SWAP1 POP SWAP1 JUMP JUMPDEST PUSH1 0x0 DUP1 REVERT JUMPDEST PUSH1 0x0 DUP2 SWAP1 POP SWAP2 SWAP1 POP JUMP JUMPDEST PUSH2 0xDE3 DUP2 PUSH2 0xDD0 JUMP JUMPDEST DUP2 EQ PUSH2 0xDEE JUMPI PUSH1 0x0 DUP1 REVERT JUMPDEST POP JUMP JUMPDEST PUSH1 0x0 DUP2 CALLDATALOAD SWAP1 POP PUSH2 0xE00 DUP2 PUSH2 0xDDA JUMP JUMPDEST SWAP3 SWAP2 POP POP JUMP JUMPDEST PUSH1 0x0 PUSH1 0x20 DUP3 DUP5 SUB SLT ISZERO PUSH2 0xE1C JUMPI PUSH2 0xE1B PUSH2 0xDCB JUMP JUMPDEST JUMPDEST PUSH1 0x0 PUSH2 0xE2A DUP5 DUP3 DUP6 ADD PUSH2 0xDF1 JUMP JUMPDEST SWAP2 POP POP SWAP3 SWAP2 POP POP JUMP JUMPDEST PUSH1 0x0 DUP2 ISZERO ISZERO SWAP1 POP SWAP2 SWAP1 POP JUMP JUMPDEST PUSH2 0xE48 DUP2 PUSH2 0xE33 JUMP JUMPDEST DUP3 MSTORE POP POP JUMP JUMPDEST PUSH2 0xE57 DUP2 PUSH2 0xDD0 JUMP JUMPDEST DUP3 MSTORE POP POP JUMP JUMPDEST PUSH1 0x0 PUSH20 0xFFFFFFFFFFFFFFFFFFFFFFFFFFFFFFFFFFFFFFFF DUP3 AND SWAP1 POP SWAP2 SWAP1 POP JUMP JUMPDEST PUSH1 0x0 PUSH2 0xE88 DUP3 PUSH2 0xE5D JUMP JUMPDEST SWAP1 POP SWAP2 SWAP1 POP JUMP JUMPDEST PUSH2 0xE98 DUP2 PUSH2 0xE7D JUMP JUMPDEST DUP3 MSTORE POP POP JUMP JUMPDEST PUSH1 0x0 PUSH1 0x60 DUP3 ADD SWAP1 POP PUSH2 0xEB3 PUSH1 0x0 DUP4 ADD DUP7 PUSH2 0xE3F JUMP JUMPDEST PUSH2 0xEC0 PUSH1 0x20 DUP4 ADD DUP6 PUSH2 0xE4E JUMP JUMPDEST PUSH2 0xECD PUSH1 0x40 DUP4 ADD DUP5 PUSH2 0xE8F JUMP JUMPDEST SWAP5 SWAP4 POP POP POP POP JUMP JUMPDEST PUSH1 0x0 DUP2 MLOAD SWAP1 POP SWAP2 SWAP1 POP JUMP JUMPDEST PUSH1 0x0 DUP3 DUP3 MSTORE PUSH1 0x20 DUP3 ADD SWAP1 POP SWAP3 SWAP2 POP POP JUMP JUMPDEST PUSH1 0x0 DUP2 SWAP1 POP PUSH1 0x20 DUP3 ADD SWAP1 POP SWAP2 SWAP1 POP JUMP JUMPDEST PUSH2 0xF0A DUP2 PUSH2 0xE7D JUMP JUMPDEST DUP3 MSTORE POP POP JUMP JUMPDEST PUSH1 0x0 PUSH2 0xF1C DUP4 DUP4 PUSH2 0xF01 JUMP JUMPDEST PUSH1 0x20 DUP4 ADD SWAP1 POP SWAP3 SWAP2 POP POP JUMP JUMPDEST PUSH1 0x0 PUSH1 0x20 DUP3 ADD SWAP1 POP SWAP2 SWAP1 POP JUMP JUMPDEST PUSH1 0x0 PUSH2 0xF40 DUP3 PUSH2 0xED5 JUMP JUMPDEST PUSH2 0xF4A DUP2 DUP6 PUSH2 0xEE0 JUMP JUMPDEST SWAP4 POP PUSH2 0xF55 DUP4 PUSH2 0xEF1 JUMP JUMPDEST DUP1 PUSH1 0x0 JUMPDEST DUP4 DUP2 LT ISZERO PUSH2 0xF86 JUMPI DUP2 MLOAD PUSH2 0xF6D DUP9 DUP3 PUSH2 0xF10 JUMP JUMPDEST SWAP8 POP PUSH2 0xF78 DUP4 PUSH2 0xF28 JUMP JUMPDEST SWAP3 POP POP PUSH1 0x1 DUP2 ADD SWAP1 POP PUSH2 0xF59 JUMP JUMPDEST POP DUP6 SWAP4 POP POP POP POP SWAP3 SWAP2 POP POP JUMP JUMPDEST PUSH1 0x0 PUSH1 0x20 DUP3 ADD SWAP1 POP DUP2 DUP2 SUB PUSH1 0x0 DUP4 ADD MSTORE PUSH2 0xFAD DUP2 DUP5 PUSH2 0xF35 JUMP JUMPDEST SWAP1 POP SWAP3 SWAP2 POP POP JUMP JUMPDEST PUSH2 0xFBE DUP2 PUSH2 0xE7D JUMP JUMPDEST DUP2 EQ PUSH2 0xFC9 JUMPI PUSH1 0x0 DUP1 REVERT JUMPDEST POP JUMP JUMPDEST PUSH1 0x0 DUP2 CALLDATALOAD SWAP1 POP PUSH2 0xFDB DUP2 PUSH2 0xFB5 JUMP JUMPDEST SWAP3 SWAP2 POP POP JUMP JUMPDEST PUSH1 0x0 DUP1 PUSH1 0x40 DUP4 DUP6 SUB SLT ISZERO PUSH2 0xFF8 JUMPI PUSH2 0xFF7 PUSH2 0xDCB JUMP JUMPDEST JUMPDEST PUSH1 0x0 PUSH2 0x1006 DUP6 DUP3 DUP7 ADD PUSH2 0xDF1 JUMP JUMPDEST SWAP3 POP POP PUSH1 0x20 PUSH2 0x1017 DUP6 DUP3 DUP7 ADD PUSH2 0xFCC JUMP JUMPDEST SWAP2 POP POP SWAP3 POP SWAP3 SWAP1 POP JUMP JUMPDEST PUSH1 0x0 PUSH1 0x20 DUP3 ADD SWAP1 POP PUSH2 0x1036 PUSH1 0x0 DUP4 ADD DUP5 PUSH2 0xE4E JUMP JUMPDEST SWAP3 SWAP2 POP POP JUMP JUMPDEST PUSH1 0x0 PUSH1 0x20 DUP3 ADD SWAP1 POP PUSH2 0x1051 PUSH1 0x0 DUP4 ADD DUP5 PUSH2 0xE8F JUMP JUMPDEST SWAP3 SWAP2 POP POP JUMP JUMPDEST PUSH1 0x0 DUP1 PUSH1 0x40 DUP4 DUP6 SUB SLT ISZERO PUSH2 0x106E JUMPI PUSH2 0x106D PUSH2 0xDCB JUMP JUMPDEST JUMPDEST PUSH1 0x0 PUSH2 0x107C DUP6 DUP3 DUP7 ADD PUSH2 0xDF1 JUMP JUMPDEST SWAP3 POP POP PUSH1 0x20 PUSH2 0x108D DUP6 DUP3 DUP7 ADD PUSH2 0xDF1 JUMP JUMPDEST SWAP2 POP POP SWAP3 POP SWAP3 SWAP1 POP JUMP JUMPDEST PUSH1 0x0 PUSH1 0x20 DUP3 ADD SWAP1 POP PUSH2 0x10AC PUSH1 0x0 DUP4 ADD DUP5 PUSH2 0xE3F JUMP JUMPDEST SWAP3 SWAP2 POP POP JUMP JUMPDEST PUSH1 0x0 DUP2 MLOAD SWAP1 POP SWAP2 SWAP1 POP JUMP JUMPDEST PUSH1 0x0 DUP3 DUP3 MSTORE PUSH1 0x20 DUP3 ADD SWAP1 POP SWAP3 SWAP2 POP POP JUMP JUMPDEST PUSH1 0x0 DUP2 SWAP1 POP PUSH1 0x20 DUP3 ADD SWAP1 POP SWAP2 SWAP1 POP JUMP JUMPDEST PUSH2 0x10E7 DUP2 PUSH2 0xDD0 JUMP JUMPDEST DUP3 MSTORE POP POP JUMP JUMPDEST PUSH1 0x0 PUSH2 0x10F9 DUP4 DUP4 PUSH2 0x10DE JUMP JUMPDEST PUSH1 0x20 DUP4 ADD SWAP1 POP SWAP3 SWAP2 POP POP JUMP JUMPDEST PUSH1 0x0 PUSH1 0x20 DUP3 ADD SWAP1 POP SWAP2 SWAP1 POP JUMP JUMPDEST PUSH1 0x0 PUSH2 0x111D DUP3 PUSH2 0x10B2 JUMP JUMPDEST PUSH2 0x1127 DUP2 DUP6 PUSH2 0x10BD JUMP JUMPDEST SWAP4 POP PUSH2 0x1132 DUP4 PUSH2 0x10CE JUMP JUMPDEST DUP1 PUSH1 0x0 JUMPDEST DUP4 DUP2 LT ISZERO PUSH2 0x1163 JUMPI DUP2 MLOAD PUSH2 0x114A DUP9 DUP3 PUSH2 0x10ED JUMP JUMPDEST SWAP8 POP PUSH2 0x1155 DUP4 PUSH2 0x1105 JUMP JUMPDEST SWAP3 POP POP PUSH1 0x1 DUP2 ADD SWAP1 POP PUSH2 0x1136 JUMP JUMPDEST POP DUP6 SWAP4 POP POP POP POP SWAP3 SWAP2 POP POP JUMP JUMPDEST PUSH1 0x0 PUSH1 0x20 DUP3 ADD SWAP1 POP DUP2 DUP2 SUB PUSH1 0x0 DUP4 ADD MSTORE PUSH2 0x118A DUP2 DUP5 PUSH2 0x1112 JUMP JUMPDEST SWAP1 POP SWAP3 SWAP2 POP POP JUMP JUMPDEST PUSH1 0x0 PUSH1 0x20 DUP3 DUP5 SUB SLT ISZERO PUSH2 0x11A8 JUMPI PUSH2 0x11A7 PUSH2 0xDCB JUMP JUMPDEST JUMPDEST PUSH1 0x0 PUSH2 0x11B6 DUP5 DUP3 DUP6 ADD PUSH2 0xFCC JUMP JUMPDEST SWAP2 POP POP SWAP3 SWAP2 POP POP JUMP JUMPDEST PUSH1 0x0 DUP3 DUP3 MSTORE PUSH1 0x20 DUP3 ADD SWAP1 POP SWAP3 SWAP2 POP POP JUMP JUMPDEST PUSH32 0x47616D6520496E697469616C697A656400000000000000000000000000000000 PUSH1 0x0 DUP3 ADD MSTORE POP JUMP JUMPDEST PUSH1 0x0 PUSH2 0x1206 PUSH1 0x10 DUP4 PUSH2 0x11BF JUMP JUMPDEST SWAP2 POP PUSH2 0x1211 DUP3 PUSH2 0x11D0 JUMP JUMPDEST PUSH1 0x20 DUP3 ADD SWAP1 POP SWAP2 SWAP1 POP JUMP JUMPDEST PUSH1 0x0 PUSH1 0x20 DUP3 ADD SWAP1 POP DUP2 DUP2 SUB PUSH1 0x0 DUP4 ADD MSTORE PUSH2 0x1235 DUP2 PUSH2 0x11F9 JUMP JUMPDEST SWAP1 POP SWAP2 SWAP1 POP JUMP JUMPDEST PUSH32 0x46696E6973686564000000000000000000000000000000000000000000000000 PUSH1 0x0 DUP3 ADD MSTORE POP JUMP JUMPDEST PUSH1 0x0 PUSH2 0x1272 PUSH1 0x8 DUP4 PUSH2 0x11BF JUMP JUMPDEST SWAP2 POP PUSH2 0x127D DUP3 PUSH2 0x123C JUMP JUMPDEST PUSH1 0x20 DUP3 ADD SWAP1 POP SWAP2 SWAP1 POP JUMP JUMPDEST PUSH1 0x0 PUSH1 0x20 DUP3 ADD SWAP1 POP DUP2 DUP2 SUB PUSH1 0x0 DUP4 ADD MSTORE PUSH2 0x12A1 DUP2 PUSH2 0x1265 JUMP JUMPDEST SWAP1 POP SWAP2 SWAP1 POP JUMP JUMPDEST PUSH32 0x4E487B7100000000000000000000000000000000000000000000000000000000 PUSH1 0x0 MSTORE PUSH1 0x11 PUSH1 0x4 MSTORE PUSH1 0x24 PUSH1 0x0 REVERT JUMPDEST PUSH1 0x0 PUSH2 0x12E2 DUP3 PUSH2 0xDD0 JUMP JUMPDEST SWAP2 POP PUSH2 0x12ED DUP4 PUSH2 0xDD0 JUMP JUMPDEST SWAP3 POP DUP3 DUP3 ADD SWAP1 POP DUP1 DUP3 GT ISZERO PUSH2 0x1305 JUMPI PUSH2 0x1304 PUSH2 0x12A8 JUMP JUMPDEST JUMPDEST SWAP3 SWAP2 POP POP JUMP JUMPDEST PUSH32 0x47616D6520657869737473000000000000000000000000000000000000000000 PUSH1 0x0 DUP3 ADD MSTORE POP JUMP JUMPDEST PUSH1 0x0 PUSH2 0x1341 PUSH1 0xB DUP4 PUSH2 0x11BF JUMP JUMPDEST SWAP2 POP PUSH2 0x134C DUP3 PUSH2 0x130B JUMP JUMPDEST PUSH1 0x20 DUP3 ADD SWAP1 POP SWAP2 SWAP1 POP JUMP JUMPDEST PUSH1 0x0 PUSH1 0x20 DUP3 ADD SWAP1 POP DUP2 DUP2 SUB PUSH1 0x0 DUP4 ADD MSTORE PUSH2 0x1370 DUP2 PUSH2 0x1334 JUMP JUMPDEST SWAP1 POP SWAP2 SWAP1 POP JUMP INVALID LOG2 PUSH5 0x6970667358 0x22 SLT KECCAK256 0xE2 SIGNEXTEND 0xBB RETURN 0x21 PUSH18 0x7190392AD813B4847E0399873F4169C91F96 0xE7 0xC7 0xD2 0x21 BALANCE 0x1E 0xB4 BASEFEE PUSH5 0x736F6C6343 STOP ADDMOD SLT STOP CALLER "
				},
				"gasEstimates": {
					"creation": {
						"codeDepositCost": "1007400",
						"executionCost": "infinite",
						"totalCost": "infinite"
					},
					"external": {
						"bet(uint256,uint256)": "infinite",
						"finish(uint256,address)": "infinite",
						"gameIds(uint256)": "infinite",
						"gameUsers(uint256)": "infinite",
						"games(uint256)": "infinite",
						"getBetting(uint256,address)": "infinite",
						"listGameIds()": "infinite",
						"myBetting(uint256)": "infinite",
						"owner()": "2545",
						"renounceOwnership()": "infinite",
						"setErc20(address)": "24990",
						"startGame(uint256)": "73681",
						"tokenContract()": "2559",
						"transferOwnership(address)": "infinite"
					}
				},
				"methodIdentifiers": {
					"bet(uint256,uint256)": "6ffcc719",
					"finish(uint256,address)": "2c32b187",
					"gameIds(uint256)": "d82c13f0",
					"gameUsers(uint256)": "16b169c4",
					"games(uint256)": "117a5b90",
					"getBetting(uint256,address)": "34fcc3e7",
					"listGameIds()": "9bc01b36",
					"myBetting(uint256)": "ce33bd74",
					"owner()": "8da5cb5b",
					"renounceOwnership()": "715018a6",
					"setErc20(address)": "ee9b80a4",
					"startGame(uint256)": "e5ed1d59",
					"tokenContract()": "55a373d6",
					"transferOwnership(address)": "f2fde38b"
				}
			},
			"storageLayout": {
				"storage": [
					{
						"astId": 395,
						"contract": "contracts/4_Hello.sol:Hello",
						"label": "_owner",
						"offset": 0,
						"slot": "0",
						"type": "t_address"
					},
					{
						"astId": 31,
						"contract": "contracts/4_Hello.sol:Hello",
						"label": "games",
						"offset": 0,
						"slot": "1",
						"type": "t_mapping(t_uint256,t_struct(Game)26_storage)"
					},
					{
						"astId": 34,
						"contract": "contracts/4_Hello.sol:Hello",
						"label": "gameIds",
						"offset": 0,
						"slot": "2",
						"type": "t_array(t_uint256)dyn_storage"
					},
					{
						"astId": 36,
						"contract": "contracts/4_Hello.sol:Hello",
						"label": "tokenContract",
						"offset": 0,
						"slot": "3",
						"type": "t_address"
					}
				],
				"types": {
					"t_address": {
						"encoding": "inplace",
						"label": "address",
						"numberOfBytes": "20"
					},
					"t_array(t_address)dyn_storage": {
						"base": "t_address",
						"encoding": "dynamic_array",
						"label": "address[]",
						"numberOfBytes": "32"
					},
					"t_array(t_uint256)dyn_storage": {
						"base": "t_uint256",
						"encoding": "dynamic_array",
						"label": "uint256[]",
						"numberOfBytes": "32"
					},
					"t_bool": {
						"encoding": "inplace",
						"label": "bool",
						"numberOfBytes": "1"
					},
					"t_mapping(t_address,t_uint256)": {
						"encoding": "mapping",
						"key": "t_address",
						"label": "mapping(address => uint256)",
						"numberOfBytes": "32",
						"value": "t_uint256"
					},
					"t_mapping(t_uint256,t_struct(Game)26_storage)": {
						"encoding": "mapping",
						"key": "t_uint256",
						"label": "mapping(uint256 => struct Hello.Game)",
						"numberOfBytes": "32",
						"value": "t_struct(Game)26_storage"
					},
					"t_struct(Game)26_storage": {
						"encoding": "inplace",
						"label": "struct Hello.Game",
						"members": [
							{
								"astId": 14,
								"contract": "contracts/4_Hello.sol:Hello",
								"label": "initialized",
								"offset": 0,
								"slot": "0",
								"type": "t_bool"
							},
							{
								"astId": 18,
								"contract": "contracts/4_Hello.sol:Hello",
								"label": "bettings",
								"offset": 0,
								"slot": "1",
								"type": "t_mapping(t_address,t_uint256)"
							},
							{
								"astId": 20,
								"contract": "contracts/4_Hello.sol:Hello",
								"label": "totalBettings",
								"offset": 0,
								"slot": "2",
								"type": "t_uint256"
							},
							{
								"astId": 23,
								"contract": "contracts/4_Hello.sol:Hello",
								"label": "users",
								"offset": 0,
								"slot": "3",
								"type": "t_array(t_address)dyn_storage"
							},
							{
								"astId": 25,
								"contract": "contracts/4_Hello.sol:Hello",
								"label": "winner",
								"offset": 0,
								"slot": "4",
								"type": "t_address"
							}
						],
						"numberOfBytes": "160"
					},
					"t_uint256": {
						"encoding": "inplace",
						"label": "uint256",
						"numberOfBytes": "32"
					}
				}
			},
			"userdoc": {
				"kind": "user",
				"methods": {},
				"version": 1
			}
		}
	}
}