{
	"contracts/4_Hello.sol": {
		"Hello": {
			"abi": [
				{
					"inputs": [
						{
							"internalType": "address",
							"name": "initialOwner",
							"type": "address"
						}
					],
					"stateMutability": "nonpayable",
					"type": "constructor"
				},
				{
					"inputs": [
						{
							"internalType": "address",
							"name": "owner",
							"type": "address"
						}
					],
					"name": "OwnableInvalidOwner",
					"type": "error"
				},
				{
					"inputs": [
						{
							"internalType": "address",
							"name": "account",
							"type": "address"
						}
					],
					"name": "OwnableUnauthorizedAccount",
					"type": "error"
				},
				{
					"anonymous": false,
					"inputs": [
						{
							"indexed": true,
							"internalType": "address",
							"name": "previousOwner",
							"type": "address"
						},
						{
							"indexed": true,
							"internalType": "address",
							"name": "newOwner",
							"type": "address"
						}
					],
					"name": "OwnershipTransferred",
					"type": "event"
				},
				{
					"inputs": [
						{
							"internalType": "uint256",
							"name": "gameId",
							"type": "uint256"
						},
						{
							"internalType": "uint256",
							"name": "amount",
							"type": "uint256"
						}
					],
					"name": "bet",
					"outputs": [
						{
							"internalType": "bool",
							"name": "",
							"type": "bool"
						}
					],
					"stateMutability": "nonpayable",
					"type": "function"
				},
				{
					"inputs": [],
					"name": "feePercent",
					"outputs": [
						{
							"internalType": "uint256",
							"name": "",
							"type": "uint256"
						}
					],
					"stateMutability": "view",
					"type": "function"
				},
				{
					"inputs": [
						{
							"internalType": "uint256",
							"name": "gameId",
							"type": "uint256"
						},
						{
							"internalType": "address",
							"name": "winner",
							"type": "address"
						}
					],
					"name": "finish",
					"outputs": [
						{
							"internalType": "uint256",
							"name": "",
							"type": "uint256"
						}
					],
					"stateMutability": "nonpayable",
					"type": "function"
				},
				{
					"inputs": [
						{
							"internalType": "uint256",
							"name": "",
							"type": "uint256"
						}
					],
					"name": "gameIds",
					"outputs": [
						{
							"internalType": "uint256",
							"name": "",
							"type": "uint256"
						}
					],
					"stateMutability": "view",
					"type": "function"
				},
				{
					"inputs": [
						{
							"internalType": "uint256",
							"name": "gameId",
							"type": "uint256"
						}
					],
					"name": "gameUsers",
					"outputs": [
						{
							"internalType": "address[]",
							"name": "",
							"type": "address[]"
						}
					],
					"stateMutability": "view",
					"type": "function"
				},
				{
					"inputs": [
						{
							"internalType": "uint256",
							"name": "",
							"type": "uint256"
						}
					],
					"name": "games",
					"outputs": [
						{
							"internalType": "bool",
							"name": "initialized",
							"type": "bool"
						},
						{
							"internalType": "uint256",
							"name": "totalBettings",
							"type": "uint256"
						},
						{
							"internalType": "address",
							"name": "winner",
							"type": "address"
						}
					],
					"stateMutability": "view",
					"type": "function"
				},
				{
					"inputs": [
						{
							"internalType": "uint256",
							"name": "gameId",
							"type": "uint256"
						},
						{
							"internalType": "address",
							"name": "better",
							"type": "address"
						}
					],
					"name": "getBetting",
					"outputs": [
						{
							"internalType": "uint256",
							"name": "",
							"type": "uint256"
						}
					],
					"stateMutability": "view",
					"type": "function"
				},
				{
					"inputs": [],
					"name": "listGameIds",
					"outputs": [
						{
							"internalType": "uint256[]",
							"name": "",
							"type": "uint256[]"
						}
					],
					"stateMutability": "view",
					"type": "function"
				},
				{
					"inputs": [
						{
							"internalType": "uint256",
							"name": "gameId",
							"type": "uint256"
						}
					],
					"name": "myBetting",
					"outputs": [
						{
							"internalType": "uint256",
							"name": "",
							"type": "uint256"
						}
					],
					"stateMutability": "view",
					"type": "function"
				},
				{
					"inputs": [],
					"name": "owner",
					"outputs": [
						{
							"internalType": "address",
							"name": "",
							"type": "address"
						}
					],
					"stateMutability": "view",
					"type": "function"
				},
				{
					"inputs": [],
					"name": "renounceOwnership",
					"outputs": [],
					"stateMutability": "nonpayable",
					"type": "function"
				},
				{
					"inputs": [
						{
							"internalType": "address",
							"name": "newContract",
							"type": "address"
						}
					],
					"name": "setErc20",
					"outputs": [
						{
							"internalType": "bool",
							"name": "",
							"type": "bool"
						}
					],
					"stateMutability": "nonpayable",
					"type": "function"
				},
				{
					"inputs": [
						{
							"internalType": "uint256",
							"name": "newId",
							"type": "uint256"
						}
					],
					"name": "startGame",
					"outputs": [
						{
							"internalType": "bool",
							"name": "",
							"type": "bool"
						}
					],
					"stateMutability": "nonpayable",
					"type": "function"
				},
				{
					"inputs": [],
					"name": "tokenContract",
					"outputs": [
						{
							"internalType": "address",
							"name": "",
							"type": "address"
						}
					],
					"stateMutability": "view",
					"type": "function"
				},
				{
					"inputs": [
						{
							"internalType": "address",
							"name": "newOwner",
							"type": "address"
						}
					],
					"name": "transferOwnership",
					"outputs": [],
					"stateMutability": "nonpayable",
					"type": "function"
				}
			],
			"devdoc": {
				"errors": {
					"OwnableInvalidOwner(address)": [
						{
							"details": "The owner is not a valid owner account. (eg. `address(0)`)"
						}
					],
					"OwnableUnauthorizedAccount(address)": [
						{
							"details": "The caller account is not authorized to perform an operation."
						}
					]
				},
				"kind": "dev",
				"methods": {
					"owner()": {
						"details": "Returns the address of the current owner."
					},
					"renounceOwnership()": {
						"details": "Leaves the contract without owner. It will not be possible to call `onlyOwner` functions. Can only be called by the current owner. NOTE: Renouncing ownership will leave the contract without an owner, thereby disabling any functionality that is only available to the owner."
					},
					"transferOwnership(address)": {
						"details": "Transfers ownership of the contract to a new account (`newOwner`). Can only be called by the current owner."
					}
				},
				"version": 1
			},
			"evm": {
				"assembly": "    /* \"contracts/4_Hello.sol\":155:2740  contract Hello is Context, Ownable {... */\n  mstore(0x40, 0x80)\n    /* \"contracts/4_Hello.sol\":505:507  10 */\n  0x0a\n    /* \"contracts/4_Hello.sol\":480:507  uint public feePercent = 10 */\n  0x04\n  sstore\n    /* \"contracts/4_Hello.sol\":516:590  constructor(address initialOwner) Ownable(initialOwner) {... */\n  callvalue\n  dup1\n  iszero\n  tag_1\n  jumpi\n  0x00\n  dup1\n  revert\ntag_1:\n  pop\n  mload(0x40)\n  sub(codesize, bytecodeSize)\n  dup1\n  bytecodeSize\n  dup4\n  codecopy\n  dup2\n  dup2\n  add\n  0x40\n  mstore\n  dup2\n  add\n  swap1\n  tag_2\n  swap2\n  swap1\n  tag_3\n  jump\t// in\ntag_2:\n    /* \"contracts/4_Hello.sol\":558:570  initialOwner */\n  dup1\n    /* \"contracts/ownable.sol\":1335:1336  0 */\n  0x00\n    /* \"contracts/ownable.sol\":1311:1337  initialOwner == address(0) */\n  0xffffffffffffffffffffffffffffffffffffffff\n  and\n    /* \"contracts/ownable.sol\":1311:1323  initialOwner */\n  dup2\n    /* \"contracts/ownable.sol\":1311:1337  initialOwner == address(0) */\n  0xffffffffffffffffffffffffffffffffffffffff\n  and\n  sub\n    /* \"contracts/ownable.sol\":1307:1404  if (initialOwner == address(0)) {... */\n  tag_7\n  jumpi\n    /* \"contracts/ownable.sol\":1389:1390  0 */\n  0x00\n    /* \"contracts/ownable.sol\":1361:1392  OwnableInvalidOwner(address(0)) */\n  mload(0x40)\n  0x1e4fbdf700000000000000000000000000000000000000000000000000000000\n  dup2\n  mstore\n  0x04\n  add\n  tag_8\n  swap2\n  swap1\n  tag_9\n  jump\t// in\ntag_8:\n  mload(0x40)\n  dup1\n  swap2\n  sub\n  swap1\n  revert\n    /* \"contracts/ownable.sol\":1307:1404  if (initialOwner == address(0)) {... */\ntag_7:\n    /* \"contracts/ownable.sol\":1414:1446  _transferOwnership(initialOwner) */\n  tag_10\n    /* \"contracts/ownable.sol\":1433:1445  initialOwner */\n  dup2\n    /* \"contracts/ownable.sol\":1414:1432  _transferOwnership */\n  shl(0x20, tag_11)\n    /* \"contracts/ownable.sol\":1414:1446  _transferOwnership(initialOwner) */\n  0x20\n  shr\n  jump\t// in\ntag_10:\n    /* \"contracts/ownable.sol\":1262:1454  constructor(address initialOwner) {... */\n  pop\n    /* \"contracts/4_Hello.sol\":516:590  constructor(address initialOwner) Ownable(initialOwner) {... */\n  pop\n    /* \"contracts/4_Hello.sol\":155:2740  contract Hello is Context, Ownable {... */\n  jump(tag_13)\n    /* \"contracts/ownable.sol\":3006:3197  function _transferOwnership(address newOwner) internal virtual {... */\ntag_11:\n    /* \"contracts/ownable.sol\":3080:3096  address oldOwner */\n  0x00\n    /* \"contracts/ownable.sol\":3099:3105  _owner */\n  dup1\n  0x00\n  swap1\n  sload\n  swap1\n  0x0100\n  exp\n  swap1\n  div\n  0xffffffffffffffffffffffffffffffffffffffff\n  and\n    /* \"contracts/ownable.sol\":3080:3105  address oldOwner = _owner */\n  swap1\n  pop\n    /* \"contracts/ownable.sol\":3125:3133  newOwner */\n  dup2\n    /* \"contracts/ownable.sol\":3116:3122  _owner */\n  0x00\n  dup1\n    /* \"contracts/ownable.sol\":3116:3133  _owner = newOwner */\n  0x0100\n  exp\n  dup2\n  sload\n  dup2\n  0xffffffffffffffffffffffffffffffffffffffff\n  mul\n  not\n  and\n  swap1\n  dup4\n  0xffffffffffffffffffffffffffffffffffffffff\n  and\n  mul\n  or\n  swap1\n  sstore\n  pop\n    /* \"contracts/ownable.sol\":3180:3188  newOwner */\n  dup2\n    /* \"contracts/ownable.sol\":3149:3189  OwnershipTransferred(oldOwner, newOwner) */\n  0xffffffffffffffffffffffffffffffffffffffff\n  and\n    /* \"contracts/ownable.sol\":3170:3178  oldOwner */\n  dup2\n    /* \"contracts/ownable.sol\":3149:3189  OwnershipTransferred(oldOwner, newOwner) */\n  0xffffffffffffffffffffffffffffffffffffffff\n  and\n  0x8be0079c531659141344cd1fd0a4f28419497f9722a3daafe3b4186f6b6457e0\n  mload(0x40)\n  mload(0x40)\n  dup1\n  swap2\n  sub\n  swap1\n  log3\n    /* \"contracts/ownable.sol\":3069:3197  {... */\n  pop\n    /* \"contracts/ownable.sol\":3006:3197  function _transferOwnership(address newOwner) internal virtual {... */\n  pop\n  jump\t// out\n    /* \"#utility.yul\":88:205   */\ntag_16:\n    /* \"#utility.yul\":197:198   */\n  0x00\n    /* \"#utility.yul\":194:195   */\n  dup1\n    /* \"#utility.yul\":187:199   */\n  revert\n    /* \"#utility.yul\":334:460   */\ntag_18:\n    /* \"#utility.yul\":371:378   */\n  0x00\n    /* \"#utility.yul\":411:453   */\n  0xffffffffffffffffffffffffffffffffffffffff\n    /* \"#utility.yul\":404:409   */\n  dup3\n    /* \"#utility.yul\":400:454   */\n  and\n    /* \"#utility.yul\":389:454   */\n  swap1\n  pop\n    /* \"#utility.yul\":334:460   */\n  swap2\n  swap1\n  pop\n  jump\t// out\n    /* \"#utility.yul\":466:562   */\ntag_19:\n    /* \"#utility.yul\":503:510   */\n  0x00\n    /* \"#utility.yul\":532:556   */\n  tag_29\n    /* \"#utility.yul\":550:555   */\n  dup3\n    /* \"#utility.yul\":532:556   */\n  tag_18\n  jump\t// in\ntag_29:\n    /* \"#utility.yul\":521:556   */\n  swap1\n  pop\n    /* \"#utility.yul\":466:562   */\n  swap2\n  swap1\n  pop\n  jump\t// out\n    /* \"#utility.yul\":568:690   */\ntag_20:\n    /* \"#utility.yul\":641:665   */\n  tag_31\n    /* \"#utility.yul\":659:664   */\n  dup2\n    /* \"#utility.yul\":641:665   */\n  tag_19\n  jump\t// in\ntag_31:\n    /* \"#utility.yul\":634:639   */\n  dup2\n    /* \"#utility.yul\":631:666   */\n  eq\n    /* \"#utility.yul\":621:684   */\n  tag_32\n  jumpi\n    /* \"#utility.yul\":680:681   */\n  0x00\n    /* \"#utility.yul\":677:678   */\n  dup1\n    /* \"#utility.yul\":670:682   */\n  revert\n    /* \"#utility.yul\":621:684   */\ntag_32:\n    /* \"#utility.yul\":568:690   */\n  pop\n  jump\t// out\n    /* \"#utility.yul\":696:839   */\ntag_21:\n    /* \"#utility.yul\":753:758   */\n  0x00\n    /* \"#utility.yul\":784:790   */\n  dup2\n    /* \"#utility.yul\":778:791   */\n  mload\n    /* \"#utility.yul\":769:791   */\n  swap1\n  pop\n    /* \"#utility.yul\":800:833   */\n  tag_34\n    /* \"#utility.yul\":827:832   */\n  dup2\n    /* \"#utility.yul\":800:833   */\n  tag_20\n  jump\t// in\ntag_34:\n    /* \"#utility.yul\":696:839   */\n  swap3\n  swap2\n  pop\n  pop\n  jump\t// out\n    /* \"#utility.yul\":845:1196   */\ntag_3:\n    /* \"#utility.yul\":915:921   */\n  0x00\n    /* \"#utility.yul\":964:966   */\n  0x20\n    /* \"#utility.yul\":952:961   */\n  dup3\n    /* \"#utility.yul\":943:950   */\n  dup5\n    /* \"#utility.yul\":939:962   */\n  sub\n    /* \"#utility.yul\":935:967   */\n  slt\n    /* \"#utility.yul\":932:1051   */\n  iszero\n  tag_36\n  jumpi\n    /* \"#utility.yul\":970:1049   */\n  tag_37\n  tag_16\n  jump\t// in\ntag_37:\n    /* \"#utility.yul\":932:1051   */\ntag_36:\n    /* \"#utility.yul\":1090:1091   */\n  0x00\n    /* \"#utility.yul\":1115:1179   */\n  tag_38\n    /* \"#utility.yul\":1171:1178   */\n  dup5\n    /* \"#utility.yul\":1162:1168   */\n  dup3\n    /* \"#utility.yul\":1151:1160   */\n  dup6\n    /* \"#utility.yul\":1147:1169   */\n  add\n    /* \"#utility.yul\":1115:1179   */\n  tag_21\n  jump\t// in\ntag_38:\n    /* \"#utility.yul\":1105:1179   */\n  swap2\n  pop\n    /* \"#utility.yul\":1061:1189   */\n  pop\n    /* \"#utility.yul\":845:1196   */\n  swap3\n  swap2\n  pop\n  pop\n  jump\t// out\n    /* \"#utility.yul\":1202:1320   */\ntag_22:\n    /* \"#utility.yul\":1289:1313   */\n  tag_40\n    /* \"#utility.yul\":1307:1312   */\n  dup2\n    /* \"#utility.yul\":1289:1313   */\n  tag_19\n  jump\t// in\ntag_40:\n    /* \"#utility.yul\":1284:1287   */\n  dup3\n    /* \"#utility.yul\":1277:1314   */\n  mstore\n    /* \"#utility.yul\":1202:1320   */\n  pop\n  pop\n  jump\t// out\n    /* \"#utility.yul\":1326:1548   */\ntag_9:\n    /* \"#utility.yul\":1419:1423   */\n  0x00\n    /* \"#utility.yul\":1457:1459   */\n  0x20\n    /* \"#utility.yul\":1446:1455   */\n  dup3\n    /* \"#utility.yul\":1442:1460   */\n  add\n    /* \"#utility.yul\":1434:1460   */\n  swap1\n  pop\n    /* \"#utility.yul\":1470:1541   */\n  tag_42\n    /* \"#utility.yul\":1538:1539   */\n  0x00\n    /* \"#utility.yul\":1527:1536   */\n  dup4\n    /* \"#utility.yul\":1523:1540   */\n  add\n    /* \"#utility.yul\":1514:1520   */\n  dup5\n    /* \"#utility.yul\":1470:1541   */\n  tag_22\n  jump\t// in\ntag_42:\n    /* \"#utility.yul\":1326:1548   */\n  swap3\n  swap2\n  pop\n  pop\n  jump\t// out\n    /* \"contracts/4_Hello.sol\":155:2740  contract Hello is Context, Ownable {... */\ntag_13:\n  dataSize(sub_0)\n  dup1\n  dataOffset(sub_0)\n  0x00\n  codecopy\n  0x00\n  return\nstop\n\nsub_0: assembly {\n        /* \"contracts/4_Hello.sol\":155:2740  contract Hello is Context, Ownable {... */\n      mstore(0x40, 0x80)\n      callvalue\n      dup1\n      iszero\n      tag_1\n      jumpi\n      0x00\n      dup1\n      revert\n    tag_1:\n      pop\n      jumpi(tag_2, lt(calldatasize, 0x04))\n      shr(0xe0, calldataload(0x00))\n      dup1\n      0x7fd6f15c\n      gt\n      tag_18\n      jumpi\n      dup1\n      0xd82c13f0\n      gt\n      tag_19\n      jumpi\n      dup1\n      0xd82c13f0\n      eq\n      tag_14\n      jumpi\n      dup1\n      0xe5ed1d59\n      eq\n      tag_15\n      jumpi\n      dup1\n      0xee9b80a4\n      eq\n      tag_16\n      jumpi\n      dup1\n      0xf2fde38b\n      eq\n      tag_17\n      jumpi\n      jump(tag_2)\n    tag_19:\n      dup1\n      0x7fd6f15c\n      eq\n      tag_10\n      jumpi\n      dup1\n      0x8da5cb5b\n      eq\n      tag_11\n      jumpi\n      dup1\n      0x9bc01b36\n      eq\n      tag_12\n      jumpi\n      dup1\n      0xce33bd74\n      eq\n      tag_13\n      jumpi\n      jump(tag_2)\n    tag_18:\n      dup1\n      0x34fcc3e7\n      gt\n      tag_20\n      jumpi\n      dup1\n      0x34fcc3e7\n      eq\n      tag_6\n      jumpi\n      dup1\n      0x55a373d6\n      eq\n      tag_7\n      jumpi\n      dup1\n      0x6ffcc719\n      eq\n      tag_8\n      jumpi\n      dup1\n      0x715018a6\n      eq\n      tag_9\n      jumpi\n      jump(tag_2)\n    tag_20:\n      dup1\n      0x117a5b90\n      eq\n      tag_3\n      jumpi\n      dup1\n      0x16b169c4\n      eq\n      tag_4\n      jumpi\n      dup1\n      0x2c32b187\n      eq\n      tag_5\n      jumpi\n    tag_2:\n      0x00\n      dup1\n      revert\n        /* \"contracts/4_Hello.sol\":376:410  mapping(uint => Game) public games */\n    tag_3:\n      tag_21\n      0x04\n      dup1\n      calldatasize\n      sub\n      dup2\n      add\n      swap1\n      tag_22\n      swap2\n      swap1\n      tag_23\n      jump\t// in\n    tag_22:\n      tag_24\n      jump\t// in\n    tag_21:\n      mload(0x40)\n      tag_25\n      swap4\n      swap3\n      swap2\n      swap1\n      tag_26\n      jump\t// in\n    tag_25:\n      mload(0x40)\n      dup1\n      swap2\n      sub\n      swap1\n      return\n        /* \"contracts/4_Hello.sol\":2159:2340  function gameUsers(uint gameId) public view returns (address[] memory) {... */\n    tag_4:\n      tag_27\n      0x04\n      dup1\n      calldatasize\n      sub\n      dup2\n      add\n      swap1\n      tag_28\n      swap2\n      swap1\n      tag_23\n      jump\t// in\n    tag_28:\n      tag_29\n      jump\t// in\n    tag_27:\n      mload(0x40)\n      tag_30\n      swap2\n      swap1\n      tag_31\n      jump\t// in\n    tag_30:\n      mload(0x40)\n      dup1\n      swap2\n      sub\n      swap1\n      return\n        /* \"contracts/4_Hello.sol\":1738:2151  function finish(uint gameId, address winner) public onlyOwner returns (uint) {... */\n    tag_5:\n      tag_32\n      0x04\n      dup1\n      calldatasize\n      sub\n      dup2\n      add\n      swap1\n      tag_33\n      swap2\n      swap1\n      tag_34\n      jump\t// in\n    tag_33:\n      tag_35\n      jump\t// in\n    tag_32:\n      mload(0x40)\n      tag_36\n      swap2\n      swap1\n      tag_37\n      jump\t// in\n    tag_36:\n      mload(0x40)\n      dup1\n      swap2\n      sub\n      swap1\n      return\n        /* \"contracts/4_Hello.sol\":2348:2545  function getBetting(uint gameId, address better) public view returns (uint) {... */\n    tag_6:\n      tag_38\n      0x04\n      dup1\n      calldatasize\n      sub\n      dup2\n      add\n      swap1\n      tag_39\n      swap2\n      swap1\n      tag_34\n      jump\t// in\n    tag_39:\n      tag_40\n      jump\t// in\n    tag_38:\n      mload(0x40)\n      tag_41\n      swap2\n      swap1\n      tag_37\n      jump\t// in\n    tag_41:\n      mload(0x40)\n      dup1\n      swap2\n      sub\n      swap1\n      return\n        /* \"contracts/4_Hello.sol\":445:473  address public tokenContract */\n    tag_7:\n      tag_42\n      tag_43\n      jump\t// in\n    tag_42:\n      mload(0x40)\n      tag_44\n      swap2\n      swap1\n      tag_45\n      jump\t// in\n    tag_44:\n      mload(0x40)\n      dup1\n      swap2\n      sub\n      swap1\n      return\n        /* \"contracts/4_Hello.sol\":1078:1730  function bet(uint gameId, uint amount) public returns (bool) {... */\n    tag_8:\n      tag_46\n      0x04\n      dup1\n      calldatasize\n      sub\n      dup2\n      add\n      swap1\n      tag_47\n      swap2\n      swap1\n      tag_48\n      jump\t// in\n    tag_47:\n      tag_49\n      jump\t// in\n    tag_46:\n      mload(0x40)\n      tag_50\n      swap2\n      swap1\n      tag_51\n      jump\t// in\n    tag_50:\n      mload(0x40)\n      dup1\n      swap2\n      sub\n      swap1\n      return\n        /* \"contracts/ownable.sol\":2368:2471  function renounceOwnership() public virtual onlyOwner {... */\n    tag_9:\n      tag_52\n      tag_53\n      jump\t// in\n    tag_52:\n      stop\n        /* \"contracts/4_Hello.sol\":480:507  uint public feePercent = 10 */\n    tag_10:\n      tag_54\n      tag_55\n      jump\t// in\n    tag_54:\n      mload(0x40)\n      tag_56\n      swap2\n      swap1\n      tag_37\n      jump\t// in\n    tag_56:\n      mload(0x40)\n      dup1\n      swap2\n      sub\n      swap1\n      return\n        /* \"contracts/ownable.sol\":1693:1780  function owner() public view virtual returns (address) {... */\n    tag_11:\n      tag_57\n      tag_58\n      jump\t// in\n    tag_57:\n      mload(0x40)\n      tag_59\n      swap2\n      swap1\n      tag_45\n      jump\t// in\n    tag_59:\n      mload(0x40)\n      dup1\n      swap2\n      sub\n      swap1\n      return\n        /* \"contracts/4_Hello.sol\":978:1070  function listGameIds() public view returns (uint[] memory) {... */\n    tag_12:\n      tag_60\n      tag_61\n      jump\t// in\n    tag_60:\n      mload(0x40)\n      tag_62\n      swap2\n      swap1\n      tag_63\n      jump\t// in\n    tag_62:\n      mload(0x40)\n      dup1\n      swap2\n      sub\n      swap1\n      return\n        /* \"contracts/4_Hello.sol\":2553:2737  function myBetting(uint gameId) public view returns (uint) {... */\n    tag_13:\n      tag_64\n      0x04\n      dup1\n      calldatasize\n      sub\n      dup2\n      add\n      swap1\n      tag_65\n      swap2\n      swap1\n      tag_23\n      jump\t// in\n    tag_65:\n      tag_66\n      jump\t// in\n    tag_64:\n      mload(0x40)\n      tag_67\n      swap2\n      swap1\n      tag_37\n      jump\t// in\n    tag_67:\n      mload(0x40)\n      dup1\n      swap2\n      sub\n      swap1\n      return\n        /* \"contracts/4_Hello.sol\":417:438  uint[] public gameIds */\n    tag_14:\n      tag_68\n      0x04\n      dup1\n      calldatasize\n      sub\n      dup2\n      add\n      swap1\n      tag_69\n      swap2\n      swap1\n      tag_23\n      jump\t// in\n    tag_69:\n      tag_70\n      jump\t// in\n    tag_68:\n      mload(0x40)\n      tag_71\n      swap2\n      swap1\n      tag_37\n      jump\t// in\n    tag_71:\n      mload(0x40)\n      dup1\n      swap2\n      sub\n      swap1\n      return\n        /* \"contracts/4_Hello.sol\":747:970  function startGame(uint newId) public returns (bool) {... */\n    tag_15:\n      tag_72\n      0x04\n      dup1\n      calldatasize\n      sub\n      dup2\n      add\n      swap1\n      tag_73\n      swap2\n      swap1\n      tag_23\n      jump\t// in\n    tag_73:\n      tag_74\n      jump\t// in\n    tag_72:\n      mload(0x40)\n      tag_75\n      swap2\n      swap1\n      tag_51\n      jump\t// in\n    tag_75:\n      mload(0x40)\n      dup1\n      swap2\n      sub\n      swap1\n      return\n        /* \"contracts/4_Hello.sol\":600:739  function setErc20(address newContract) public onlyOwner returns (bool) {... */\n    tag_16:\n      tag_76\n      0x04\n      dup1\n      calldatasize\n      sub\n      dup2\n      add\n      swap1\n      tag_77\n      swap2\n      swap1\n      tag_78\n      jump\t// in\n    tag_77:\n      tag_79\n      jump\t// in\n    tag_76:\n      mload(0x40)\n      tag_80\n      swap2\n      swap1\n      tag_51\n      jump\t// in\n    tag_80:\n      mload(0x40)\n      dup1\n      swap2\n      sub\n      swap1\n      return\n        /* \"contracts/ownable.sol\":2626:2846  function transferOwnership(address newOwner) public virtual onlyOwner {... */\n    tag_17:\n      tag_81\n      0x04\n      dup1\n      calldatasize\n      sub\n      dup2\n      add\n      swap1\n      tag_82\n      swap2\n      swap1\n      tag_78\n      jump\t// in\n    tag_82:\n      tag_83\n      jump\t// in\n    tag_81:\n      stop\n        /* \"contracts/4_Hello.sol\":376:410  mapping(uint => Game) public games */\n    tag_24:\n      mstore(0x20, 0x01)\n      dup1\n      0x00\n      mstore\n      keccak256(0x00, 0x40)\n      0x00\n      swap2\n      pop\n      swap1\n      pop\n      dup1\n      0x00\n      add\n      0x00\n      swap1\n      sload\n      swap1\n      0x0100\n      exp\n      swap1\n      div\n      0xff\n      and\n      swap1\n      dup1\n      0x02\n      add\n      sload\n      swap1\n      dup1\n      0x04\n      add\n      0x00\n      swap1\n      sload\n      swap1\n      0x0100\n      exp\n      swap1\n      div\n      0xffffffffffffffffffffffffffffffffffffffff\n      and\n      swap1\n      pop\n      dup4\n      jump\t// out\n        /* \"contracts/4_Hello.sol\":2159:2340  function gameUsers(uint gameId) public view returns (address[] memory) {... */\n    tag_29:\n        /* \"contracts/4_Hello.sol\":2212:2228  address[] memory */\n      0x60\n        /* \"contracts/4_Hello.sol\":2249:2254  games */\n      0x01\n        /* \"contracts/4_Hello.sol\":2249:2262  games[gameId] */\n      0x00\n        /* \"contracts/4_Hello.sol\":2255:2261  gameId */\n      dup4\n        /* \"contracts/4_Hello.sol\":2249:2262  games[gameId] */\n      dup2\n      mstore\n      0x20\n      add\n      swap1\n      dup2\n      mstore\n      0x20\n      add\n      0x00\n      keccak256\n        /* \"contracts/4_Hello.sol\":2249:2274  games[gameId].initialized */\n      0x00\n      add\n      0x00\n      swap1\n      sload\n      swap1\n      0x0100\n      exp\n      swap1\n      div\n      0xff\n      and\n        /* \"contracts/4_Hello.sol\":2241:2295  require(games[gameId].initialized, \"Game Initialized\") */\n      tag_85\n      jumpi\n      mload(0x40)\n      0x08c379a000000000000000000000000000000000000000000000000000000000\n      dup2\n      mstore\n      0x04\n      add\n      tag_86\n      swap1\n      tag_87\n      jump\t// in\n    tag_86:\n      mload(0x40)\n      dup1\n      swap2\n      sub\n      swap1\n      revert\n    tag_85:\n        /* \"contracts/4_Hello.sol\":2313:2318  games */\n      0x01\n        /* \"contracts/4_Hello.sol\":2313:2326  games[gameId] */\n      0x00\n        /* \"contracts/4_Hello.sol\":2319:2325  gameId */\n      dup4\n        /* \"contracts/4_Hello.sol\":2313:2326  games[gameId] */\n      dup2\n      mstore\n      0x20\n      add\n      swap1\n      dup2\n      mstore\n      0x20\n      add\n      0x00\n      keccak256\n        /* \"contracts/4_Hello.sol\":2313:2332  games[gameId].users */\n      0x03\n      add\n        /* \"contracts/4_Hello.sol\":2306:2332  return games[gameId].users */\n      dup1\n      sload\n      dup1\n      0x20\n      mul\n      0x20\n      add\n      mload(0x40)\n      swap1\n      dup2\n      add\n      0x40\n      mstore\n      dup1\n      swap3\n      swap2\n      swap1\n      dup2\n      dup2\n      mstore\n      0x20\n      add\n      dup3\n      dup1\n      sload\n      dup1\n      iszero\n      tag_88\n      jumpi\n      0x20\n      mul\n      dup3\n      add\n      swap2\n      swap1\n      0x00\n      mstore\n      keccak256(0x00, 0x20)\n      swap1\n    tag_89:\n      dup2\n      0x00\n      swap1\n      sload\n      swap1\n      0x0100\n      exp\n      swap1\n      div\n      0xffffffffffffffffffffffffffffffffffffffff\n      and\n      0xffffffffffffffffffffffffffffffffffffffff\n      and\n      dup2\n      mstore\n      0x20\n      add\n      swap1\n      0x01\n      add\n      swap1\n      dup1\n      dup4\n      gt\n      tag_89\n      jumpi\n    tag_88:\n      pop\n      pop\n      pop\n      pop\n      pop\n      swap1\n      pop\n        /* \"contracts/4_Hello.sol\":2159:2340  function gameUsers(uint gameId) public view returns (address[] memory) {... */\n      swap2\n      swap1\n      pop\n      jump\t// out\n        /* \"contracts/4_Hello.sol\":1738:2151  function finish(uint gameId, address winner) public onlyOwner returns (uint) {... */\n    tag_35:\n        /* \"contracts/4_Hello.sol\":1809:1813  uint */\n      0x00\n        /* \"contracts/ownable.sol\":1579:1592  _checkOwner() */\n      tag_91\n        /* \"contracts/ownable.sol\":1579:1590  _checkOwner */\n      tag_92\n        /* \"contracts/ownable.sol\":1579:1592  _checkOwner() */\n      jump\t// in\n    tag_91:\n        /* \"contracts/4_Hello.sol\":1834:1839  games */\n      0x01\n        /* \"contracts/4_Hello.sol\":1834:1847  games[gameId] */\n      0x00\n        /* \"contracts/4_Hello.sol\":1840:1846  gameId */\n      dup5\n        /* \"contracts/4_Hello.sol\":1834:1847  games[gameId] */\n      dup2\n      mstore\n      0x20\n      add\n      swap1\n      dup2\n      mstore\n      0x20\n      add\n      0x00\n      keccak256\n        /* \"contracts/4_Hello.sol\":1834:1859  games[gameId].initialized */\n      0x00\n      add\n      0x00\n      swap1\n      sload\n      swap1\n      0x0100\n      exp\n      swap1\n      div\n      0xff\n      and\n        /* \"contracts/4_Hello.sol\":1826:1880  require(games[gameId].initialized, \"Game Initialized\") */\n      tag_94\n      jumpi\n      mload(0x40)\n      0x08c379a000000000000000000000000000000000000000000000000000000000\n      dup2\n      mstore\n      0x04\n      add\n      tag_95\n      swap1\n      tag_87\n      jump\t// in\n    tag_95:\n      mload(0x40)\n      dup1\n      swap2\n      sub\n      swap1\n      revert\n    tag_94:\n        /* \"contracts/4_Hello.sol\":1931:1932  0 */\n      0x00\n        /* \"contracts/4_Hello.sol\":1899:1933  games[gameId].winner == address(0) */\n      0xffffffffffffffffffffffffffffffffffffffff\n      and\n        /* \"contracts/4_Hello.sol\":1899:1904  games */\n      0x01\n        /* \"contracts/4_Hello.sol\":1899:1912  games[gameId] */\n      0x00\n        /* \"contracts/4_Hello.sol\":1905:1911  gameId */\n      dup6\n        /* \"contracts/4_Hello.sol\":1899:1912  games[gameId] */\n      dup2\n      mstore\n      0x20\n      add\n      swap1\n      dup2\n      mstore\n      0x20\n      add\n      0x00\n      keccak256\n        /* \"contracts/4_Hello.sol\":1899:1919  games[gameId].winner */\n      0x04\n      add\n      0x00\n      swap1\n      sload\n      swap1\n      0x0100\n      exp\n      swap1\n      div\n      0xffffffffffffffffffffffffffffffffffffffff\n      and\n        /* \"contracts/4_Hello.sol\":1899:1933  games[gameId].winner == address(0) */\n      0xffffffffffffffffffffffffffffffffffffffff\n      and\n      eq\n        /* \"contracts/4_Hello.sol\":1891:1946  require(games[gameId].winner == address(0), \"Finished\") */\n      tag_96\n      jumpi\n      mload(0x40)\n      0x08c379a000000000000000000000000000000000000000000000000000000000\n      dup2\n      mstore\n      0x04\n      add\n      tag_97\n      swap1\n      tag_98\n      jump\t// in\n    tag_97:\n      mload(0x40)\n      dup1\n      swap2\n      sub\n      swap1\n      revert\n    tag_96:\n        /* \"contracts/4_Hello.sol\":1980:1986  winner */\n      dup2\n        /* \"contracts/4_Hello.sol\":1957:1962  games */\n      0x01\n        /* \"contracts/4_Hello.sol\":1957:1970  games[gameId] */\n      0x00\n        /* \"contracts/4_Hello.sol\":1963:1969  gameId */\n      dup6\n        /* \"contracts/4_Hello.sol\":1957:1970  games[gameId] */\n      dup2\n      mstore\n      0x20\n      add\n      swap1\n      dup2\n      mstore\n      0x20\n      add\n      0x00\n      keccak256\n        /* \"contracts/4_Hello.sol\":1957:1977  games[gameId].winner */\n      0x04\n      add\n      0x00\n        /* \"contracts/4_Hello.sol\":1957:1986  games[gameId].winner = winner */\n      0x0100\n      exp\n      dup2\n      sload\n      dup2\n      0xffffffffffffffffffffffffffffffffffffffff\n      mul\n      not\n      and\n      swap1\n      dup4\n      0xffffffffffffffffffffffffffffffffffffffff\n      and\n      mul\n      or\n      swap1\n      sstore\n      pop\n        /* \"contracts/4_Hello.sol\":2012:2025  tokenContract */\n      0x03\n      0x00\n      swap1\n      sload\n      swap1\n      0x0100\n      exp\n      swap1\n      div\n      0xffffffffffffffffffffffffffffffffffffffff\n      and\n        /* \"contracts/4_Hello.sol\":2005:2035  IERC20(tokenContract).transfer */\n      0xffffffffffffffffffffffffffffffffffffffff\n      and\n      0xa9059cbb\n        /* \"contracts/4_Hello.sol\":2036:2042  winner */\n      dup4\n        /* \"contracts/4_Hello.sol\":2044:2049  games */\n      0x01\n        /* \"contracts/4_Hello.sol\":2044:2057  games[gameId] */\n      0x00\n        /* \"contracts/4_Hello.sol\":2050:2056  gameId */\n      dup8\n        /* \"contracts/4_Hello.sol\":2044:2057  games[gameId] */\n      dup2\n      mstore\n      0x20\n      add\n      swap1\n      dup2\n      mstore\n      0x20\n      add\n      0x00\n      keccak256\n        /* \"contracts/4_Hello.sol\":2044:2071  games[gameId].totalBettings */\n      0x02\n      add\n      sload\n        /* \"contracts/4_Hello.sol\":2005:2072  IERC20(tokenContract).transfer(winner, games[gameId].totalBettings) */\n      mload(0x40)\n      dup4\n      0xffffffff\n      and\n      0xe0\n      shl\n      dup2\n      mstore\n      0x04\n      add\n      tag_99\n      swap3\n      swap2\n      swap1\n      tag_100\n      jump\t// in\n    tag_99:\n      0x20\n      mload(0x40)\n      dup1\n      dup4\n      sub\n      dup2\n      0x00\n      dup8\n      gas\n      call\n      iszero\n      dup1\n      iszero\n      tag_102\n      jumpi\n      returndatasize\n      0x00\n      dup1\n      returndatacopy\n      revert(0x00, returndatasize)\n    tag_102:\n      pop\n      pop\n      pop\n      pop\n      mload(0x40)\n      returndatasize\n      not(0x1f)\n      0x1f\n      dup3\n      add\n      and\n      dup3\n      add\n      dup1\n      0x40\n      mstore\n      pop\n      dup2\n      add\n      swap1\n      tag_103\n      swap2\n      swap1\n      tag_104\n      jump\t// in\n    tag_103:\n        /* \"contracts/4_Hello.sol\":1997:2098  require(IERC20(tokenContract).transfer(winner, games[gameId].totalBettings), \"Reward should success\") */\n      tag_105\n      jumpi\n      mload(0x40)\n      0x08c379a000000000000000000000000000000000000000000000000000000000\n      dup2\n      mstore\n      0x04\n      add\n      tag_106\n      swap1\n      tag_107\n      jump\t// in\n    tag_106:\n      mload(0x40)\n      dup1\n      swap2\n      sub\n      swap1\n      revert\n    tag_105:\n        /* \"contracts/4_Hello.sol\":2116:2121  games */\n      0x01\n        /* \"contracts/4_Hello.sol\":2116:2129  games[gameId] */\n      0x00\n        /* \"contracts/4_Hello.sol\":2122:2128  gameId */\n      dup5\n        /* \"contracts/4_Hello.sol\":2116:2129  games[gameId] */\n      dup2\n      mstore\n      0x20\n      add\n      swap1\n      dup2\n      mstore\n      0x20\n      add\n      0x00\n      keccak256\n        /* \"contracts/4_Hello.sol\":2116:2143  games[gameId].totalBettings */\n      0x02\n      add\n      sload\n        /* \"contracts/4_Hello.sol\":2109:2143  return games[gameId].totalBettings */\n      swap1\n      pop\n        /* \"contracts/4_Hello.sol\":1738:2151  function finish(uint gameId, address winner) public onlyOwner returns (uint) {... */\n      swap3\n      swap2\n      pop\n      pop\n      jump\t// out\n        /* \"contracts/4_Hello.sol\":2348:2545  function getBetting(uint gameId, address better) public view returns (uint) {... */\n    tag_40:\n        /* \"contracts/4_Hello.sol\":2418:2422  uint */\n      0x00\n        /* \"contracts/4_Hello.sol\":2443:2448  games */\n      0x01\n        /* \"contracts/4_Hello.sol\":2443:2456  games[gameId] */\n      0x00\n        /* \"contracts/4_Hello.sol\":2449:2455  gameId */\n      dup5\n        /* \"contracts/4_Hello.sol\":2443:2456  games[gameId] */\n      dup2\n      mstore\n      0x20\n      add\n      swap1\n      dup2\n      mstore\n      0x20\n      add\n      0x00\n      keccak256\n        /* \"contracts/4_Hello.sol\":2443:2468  games[gameId].initialized */\n      0x00\n      add\n      0x00\n      swap1\n      sload\n      swap1\n      0x0100\n      exp\n      swap1\n      div\n      0xff\n      and\n        /* \"contracts/4_Hello.sol\":2435:2489  require(games[gameId].initialized, \"Game Initialized\") */\n      tag_109\n      jumpi\n      mload(0x40)\n      0x08c379a000000000000000000000000000000000000000000000000000000000\n      dup2\n      mstore\n      0x04\n      add\n      tag_110\n      swap1\n      tag_87\n      jump\t// in\n    tag_110:\n      mload(0x40)\n      dup1\n      swap2\n      sub\n      swap1\n      revert\n    tag_109:\n        /* \"contracts/4_Hello.sol\":2507:2512  games */\n      0x01\n        /* \"contracts/4_Hello.sol\":2507:2520  games[gameId] */\n      0x00\n        /* \"contracts/4_Hello.sol\":2513:2519  gameId */\n      dup5\n        /* \"contracts/4_Hello.sol\":2507:2520  games[gameId] */\n      dup2\n      mstore\n      0x20\n      add\n      swap1\n      dup2\n      mstore\n      0x20\n      add\n      0x00\n      keccak256\n        /* \"contracts/4_Hello.sol\":2507:2529  games[gameId].bettings */\n      0x01\n      add\n        /* \"contracts/4_Hello.sol\":2507:2537  games[gameId].bettings[better] */\n      0x00\n        /* \"contracts/4_Hello.sol\":2530:2536  better */\n      dup4\n        /* \"contracts/4_Hello.sol\":2507:2537  games[gameId].bettings[better] */\n      0xffffffffffffffffffffffffffffffffffffffff\n      and\n      0xffffffffffffffffffffffffffffffffffffffff\n      and\n      dup2\n      mstore\n      0x20\n      add\n      swap1\n      dup2\n      mstore\n      0x20\n      add\n      0x00\n      keccak256\n      sload\n        /* \"contracts/4_Hello.sol\":2500:2537  return games[gameId].bettings[better] */\n      swap1\n      pop\n        /* \"contracts/4_Hello.sol\":2348:2545  function getBetting(uint gameId, address better) public view returns (uint) {... */\n      swap3\n      swap2\n      pop\n      pop\n      jump\t// out\n        /* \"contracts/4_Hello.sol\":445:473  address public tokenContract */\n    tag_43:\n      0x03\n      0x00\n      swap1\n      sload\n      swap1\n      0x0100\n      exp\n      swap1\n      div\n      0xffffffffffffffffffffffffffffffffffffffff\n      and\n      dup2\n      jump\t// out\n        /* \"contracts/4_Hello.sol\":1078:1730  function bet(uint gameId, uint amount) public returns (bool) {... */\n    tag_49:\n        /* \"contracts/4_Hello.sol\":1133:1137  bool */\n      0x00\n        /* \"contracts/4_Hello.sol\":1158:1163  games */\n      0x01\n        /* \"contracts/4_Hello.sol\":1158:1171  games[gameId] */\n      0x00\n        /* \"contracts/4_Hello.sol\":1164:1170  gameId */\n      dup5\n        /* \"contracts/4_Hello.sol\":1158:1171  games[gameId] */\n      dup2\n      mstore\n      0x20\n      add\n      swap1\n      dup2\n      mstore\n      0x20\n      add\n      0x00\n      keccak256\n        /* \"contracts/4_Hello.sol\":1158:1183  games[gameId].initialized */\n      0x00\n      add\n      0x00\n      swap1\n      sload\n      swap1\n      0x0100\n      exp\n      swap1\n      div\n      0xff\n      and\n        /* \"contracts/4_Hello.sol\":1150:1204  require(games[gameId].initialized, \"Game Initialized\") */\n      tag_112\n      jumpi\n      mload(0x40)\n      0x08c379a000000000000000000000000000000000000000000000000000000000\n      dup2\n      mstore\n      0x04\n      add\n      tag_113\n      swap1\n      tag_87\n      jump\t// in\n    tag_113:\n      mload(0x40)\n      dup1\n      swap2\n      sub\n      swap1\n      revert\n    tag_112:\n        /* \"contracts/4_Hello.sol\":1255:1256  0 */\n      0x00\n        /* \"contracts/4_Hello.sol\":1223:1257  games[gameId].winner == address(0) */\n      0xffffffffffffffffffffffffffffffffffffffff\n      and\n        /* \"contracts/4_Hello.sol\":1223:1228  games */\n      0x01\n        /* \"contracts/4_Hello.sol\":1223:1236  games[gameId] */\n      0x00\n        /* \"contracts/4_Hello.sol\":1229:1235  gameId */\n      dup6\n        /* \"contracts/4_Hello.sol\":1223:1236  games[gameId] */\n      dup2\n      mstore\n      0x20\n      add\n      swap1\n      dup2\n      mstore\n      0x20\n      add\n      0x00\n      keccak256\n        /* \"contracts/4_Hello.sol\":1223:1243  games[gameId].winner */\n      0x04\n      add\n      0x00\n      swap1\n      sload\n      swap1\n      0x0100\n      exp\n      swap1\n      div\n      0xffffffffffffffffffffffffffffffffffffffff\n      and\n        /* \"contracts/4_Hello.sol\":1223:1257  games[gameId].winner == address(0) */\n      0xffffffffffffffffffffffffffffffffffffffff\n      and\n      eq\n        /* \"contracts/4_Hello.sol\":1215:1270  require(games[gameId].winner == address(0), \"Finished\") */\n      tag_114\n      jumpi\n      mload(0x40)\n      0x08c379a000000000000000000000000000000000000000000000000000000000\n      dup2\n      mstore\n      0x04\n      add\n      tag_115\n      swap1\n      tag_98\n      jump\t// in\n    tag_115:\n      mload(0x40)\n      dup1\n      swap2\n      sub\n      swap1\n      revert\n    tag_114:\n        /* \"contracts/4_Hello.sol\":1336:1342  amount */\n      dup2\n        /* \"contracts/4_Hello.sol\":1296:1309  tokenContract */\n      0x03\n      0x00\n      swap1\n      sload\n      swap1\n      0x0100\n      exp\n      swap1\n      div\n      0xffffffffffffffffffffffffffffffffffffffff\n      and\n        /* \"contracts/4_Hello.sol\":1289:1320  IERC20(tokenContract).balanceOf */\n      0xffffffffffffffffffffffffffffffffffffffff\n      and\n      0x70a08231\n        /* \"contracts/4_Hello.sol\":1321:1331  msg.sender */\n      caller\n        /* \"contracts/4_Hello.sol\":1289:1332  IERC20(tokenContract).balanceOf(msg.sender) */\n      mload(0x40)\n      dup3\n      0xffffffff\n      and\n      0xe0\n      shl\n      dup2\n      mstore\n      0x04\n      add\n      tag_116\n      swap2\n      swap1\n      tag_45\n      jump\t// in\n    tag_116:\n      0x20\n      mload(0x40)\n      dup1\n      dup4\n      sub\n      dup2\n      dup7\n      gas\n      staticcall\n      iszero\n      dup1\n      iszero\n      tag_118\n      jumpi\n      returndatasize\n      0x00\n      dup1\n      returndatacopy\n      revert(0x00, returndatasize)\n    tag_118:\n      pop\n      pop\n      pop\n      pop\n      mload(0x40)\n      returndatasize\n      not(0x1f)\n      0x1f\n      dup3\n      add\n      and\n      dup3\n      add\n      dup1\n      0x40\n      mstore\n      pop\n      dup2\n      add\n      swap1\n      tag_119\n      swap2\n      swap1\n      tag_120\n      jump\t// in\n    tag_119:\n        /* \"contracts/4_Hello.sol\":1289:1342  IERC20(tokenContract).balanceOf(msg.sender) >= amount */\n      lt\n      iszero\n        /* \"contracts/4_Hello.sol\":1281:1361  require(IERC20(tokenContract).balanceOf(msg.sender) >= amount, \"Enough balance\") */\n      tag_121\n      jumpi\n      mload(0x40)\n      0x08c379a000000000000000000000000000000000000000000000000000000000\n      dup2\n      mstore\n      0x04\n      add\n      tag_122\n      swap1\n      tag_123\n      jump\t// in\n    tag_122:\n      mload(0x40)\n      dup1\n      swap2\n      sub\n      swap1\n      revert\n    tag_121:\n        /* \"contracts/4_Hello.sol\":1389:1402  tokenContract */\n      0x03\n      0x00\n      swap1\n      sload\n      swap1\n      0x0100\n      exp\n      swap1\n      div\n      0xffffffffffffffffffffffffffffffffffffffff\n      and\n        /* \"contracts/4_Hello.sol\":1382:1416  IERC20(tokenContract).transferFrom */\n      0xffffffffffffffffffffffffffffffffffffffff\n      and\n      0x23b872dd\n        /* \"contracts/4_Hello.sol\":1417:1427  msg.sender */\n      caller\n        /* \"contracts/4_Hello.sol\":1437:1441  this */\n      address\n        /* \"contracts/4_Hello.sol\":1444:1450  amount */\n      dup6\n        /* \"contracts/4_Hello.sol\":1382:1451  IERC20(tokenContract).transferFrom(msg.sender, address(this), amount) */\n      mload(0x40)\n      dup5\n      0xffffffff\n      and\n      0xe0\n      shl\n      dup2\n      mstore\n      0x04\n      add\n      tag_124\n      swap4\n      swap3\n      swap2\n      swap1\n      tag_125\n      jump\t// in\n    tag_124:\n      0x20\n      mload(0x40)\n      dup1\n      dup4\n      sub\n      dup2\n      0x00\n      dup8\n      gas\n      call\n      iszero\n      dup1\n      iszero\n      tag_127\n      jumpi\n      returndatasize\n      0x00\n      dup1\n      returndatacopy\n      revert(0x00, returndatasize)\n    tag_127:\n      pop\n      pop\n      pop\n      pop\n      mload(0x40)\n      returndatasize\n      not(0x1f)\n      0x1f\n      dup3\n      add\n      and\n      dup3\n      add\n      dup1\n      0x40\n      mstore\n      pop\n      dup2\n      add\n      swap1\n      tag_128\n      swap2\n      swap1\n      tag_104\n      jump\t// in\n    tag_128:\n        /* \"contracts/4_Hello.sol\":1374:1479  require(IERC20(tokenContract).transferFrom(msg.sender, address(this), amount), \"Transfer should success\") */\n      tag_129\n      jumpi\n      mload(0x40)\n      0x08c379a000000000000000000000000000000000000000000000000000000000\n      dup2\n      mstore\n      0x04\n      add\n      tag_130\n      swap1\n      tag_131\n      jump\t// in\n    tag_130:\n      mload(0x40)\n      dup1\n      swap2\n      sub\n      swap1\n      revert\n    tag_129:\n        /* \"contracts/4_Hello.sol\":1532:1533  0 */\n      0x00\n        /* \"contracts/4_Hello.sol\":1494:1499  games */\n      0x01\n        /* \"contracts/4_Hello.sol\":1494:1507  games[gameId] */\n      0x00\n        /* \"contracts/4_Hello.sol\":1500:1506  gameId */\n      dup6\n        /* \"contracts/4_Hello.sol\":1494:1507  games[gameId] */\n      dup2\n      mstore\n      0x20\n      add\n      swap1\n      dup2\n      mstore\n      0x20\n      add\n      0x00\n      keccak256\n        /* \"contracts/4_Hello.sol\":1494:1516  games[gameId].bettings */\n      0x01\n      add\n        /* \"contracts/4_Hello.sol\":1494:1528  games[gameId].bettings[msg.sender] */\n      0x00\n        /* \"contracts/4_Hello.sol\":1517:1527  msg.sender */\n      caller\n        /* \"contracts/4_Hello.sol\":1494:1528  games[gameId].bettings[msg.sender] */\n      0xffffffffffffffffffffffffffffffffffffffff\n      and\n      0xffffffffffffffffffffffffffffffffffffffff\n      and\n      dup2\n      mstore\n      0x20\n      add\n      swap1\n      dup2\n      mstore\n      0x20\n      add\n      0x00\n      keccak256\n      sload\n        /* \"contracts/4_Hello.sol\":1494:1533  games[gameId].bettings[msg.sender] == 0 */\n      sub\n        /* \"contracts/4_Hello.sol\":1490:1598  if (games[gameId].bettings[msg.sender] == 0) {... */\n      tag_132\n      jumpi\n        /* \"contracts/4_Hello.sol\":1550:1555  games */\n      0x01\n        /* \"contracts/4_Hello.sol\":1550:1563  games[gameId] */\n      0x00\n        /* \"contracts/4_Hello.sol\":1556:1562  gameId */\n      dup5\n        /* \"contracts/4_Hello.sol\":1550:1563  games[gameId] */\n      dup2\n      mstore\n      0x20\n      add\n      swap1\n      dup2\n      mstore\n      0x20\n      add\n      0x00\n      keccak256\n        /* \"contracts/4_Hello.sol\":1550:1569  games[gameId].users */\n      0x03\n      add\n        /* \"contracts/4_Hello.sol\":1575:1585  msg.sender */\n      caller\n        /* \"contracts/4_Hello.sol\":1550:1586  games[gameId].users.push(msg.sender) */\n      swap1\n      dup1\n      0x01\n      dup2\n      sload\n      add\n      dup1\n      dup3\n      sstore\n      dup1\n      swap2\n      pop\n      pop\n      0x01\n      swap1\n      sub\n      swap1\n      0x00\n      mstore\n      keccak256(0x00, 0x20)\n      add\n      0x00\n      swap1\n      swap2\n      swap1\n      swap2\n      swap1\n      swap2\n      0x0100\n      exp\n      dup2\n      sload\n      dup2\n      0xffffffffffffffffffffffffffffffffffffffff\n      mul\n      not\n      and\n      swap1\n      dup4\n      0xffffffffffffffffffffffffffffffffffffffff\n      and\n      mul\n      or\n      swap1\n      sstore\n      pop\n        /* \"contracts/4_Hello.sol\":1490:1598  if (games[gameId].bettings[msg.sender] == 0) {... */\n    tag_132:\n        /* \"contracts/4_Hello.sol\":1646:1652  amount */\n      dup2\n        /* \"contracts/4_Hello.sol\":1608:1613  games */\n      0x01\n        /* \"contracts/4_Hello.sol\":1608:1621  games[gameId] */\n      0x00\n        /* \"contracts/4_Hello.sol\":1614:1620  gameId */\n      dup6\n        /* \"contracts/4_Hello.sol\":1608:1621  games[gameId] */\n      dup2\n      mstore\n      0x20\n      add\n      swap1\n      dup2\n      mstore\n      0x20\n      add\n      0x00\n      keccak256\n        /* \"contracts/4_Hello.sol\":1608:1630  games[gameId].bettings */\n      0x01\n      add\n        /* \"contracts/4_Hello.sol\":1608:1642  games[gameId].bettings[msg.sender] */\n      0x00\n        /* \"contracts/4_Hello.sol\":1631:1641  msg.sender */\n      caller\n        /* \"contracts/4_Hello.sol\":1608:1642  games[gameId].bettings[msg.sender] */\n      0xffffffffffffffffffffffffffffffffffffffff\n      and\n      0xffffffffffffffffffffffffffffffffffffffff\n      and\n      dup2\n      mstore\n      0x20\n      add\n      swap1\n      dup2\n      mstore\n      0x20\n      add\n      0x00\n      keccak256\n      0x00\n        /* \"contracts/4_Hello.sol\":1608:1652  games[gameId].bettings[msg.sender] += amount */\n      dup3\n      dup3\n      sload\n      tag_134\n      swap2\n      swap1\n      tag_135\n      jump\t// in\n    tag_134:\n      swap3\n      pop\n      pop\n      dup2\n      swap1\n      sstore\n      pop\n        /* \"contracts/4_Hello.sol\":1694:1700  amount */\n      dup2\n        /* \"contracts/4_Hello.sol\":1663:1668  games */\n      0x01\n        /* \"contracts/4_Hello.sol\":1663:1676  games[gameId] */\n      0x00\n        /* \"contracts/4_Hello.sol\":1669:1675  gameId */\n      dup6\n        /* \"contracts/4_Hello.sol\":1663:1676  games[gameId] */\n      dup2\n      mstore\n      0x20\n      add\n      swap1\n      dup2\n      mstore\n      0x20\n      add\n      0x00\n      keccak256\n        /* \"contracts/4_Hello.sol\":1663:1690  games[gameId].totalBettings */\n      0x02\n      add\n      0x00\n        /* \"contracts/4_Hello.sol\":1663:1700  games[gameId].totalBettings += amount */\n      dup3\n      dup3\n      sload\n      tag_136\n      swap2\n      swap1\n      tag_135\n      jump\t// in\n    tag_136:\n      swap3\n      pop\n      pop\n      dup2\n      swap1\n      sstore\n      pop\n        /* \"contracts/4_Hello.sol\":1718:1722  true */\n      0x01\n        /* \"contracts/4_Hello.sol\":1711:1722  return true */\n      swap1\n      pop\n        /* \"contracts/4_Hello.sol\":1078:1730  function bet(uint gameId, uint amount) public returns (bool) {... */\n      swap3\n      swap2\n      pop\n      pop\n      jump\t// out\n        /* \"contracts/ownable.sol\":2368:2471  function renounceOwnership() public virtual onlyOwner {... */\n    tag_53:\n        /* \"contracts/ownable.sol\":1579:1592  _checkOwner() */\n      tag_138\n        /* \"contracts/ownable.sol\":1579:1590  _checkOwner */\n      tag_92\n        /* \"contracts/ownable.sol\":1579:1592  _checkOwner() */\n      jump\t// in\n    tag_138:\n        /* \"contracts/ownable.sol\":2433:2463  _transferOwnership(address(0)) */\n      tag_140\n        /* \"contracts/ownable.sol\":2460:2461  0 */\n      0x00\n        /* \"contracts/ownable.sol\":2433:2451  _transferOwnership */\n      tag_141\n        /* \"contracts/ownable.sol\":2433:2463  _transferOwnership(address(0)) */\n      jump\t// in\n    tag_140:\n        /* \"contracts/ownable.sol\":2368:2471  function renounceOwnership() public virtual onlyOwner {... */\n      jump\t// out\n        /* \"contracts/4_Hello.sol\":480:507  uint public feePercent = 10 */\n    tag_55:\n      sload(0x04)\n      dup2\n      jump\t// out\n        /* \"contracts/ownable.sol\":1693:1780  function owner() public view virtual returns (address) {... */\n    tag_58:\n        /* \"contracts/ownable.sol\":1739:1746  address */\n      0x00\n        /* \"contracts/ownable.sol\":1766:1772  _owner */\n      dup1\n      0x00\n      swap1\n      sload\n      swap1\n      0x0100\n      exp\n      swap1\n      div\n      0xffffffffffffffffffffffffffffffffffffffff\n      and\n        /* \"contracts/ownable.sol\":1759:1772  return _owner */\n      swap1\n      pop\n        /* \"contracts/ownable.sol\":1693:1780  function owner() public view virtual returns (address) {... */\n      swap1\n      jump\t// out\n        /* \"contracts/4_Hello.sol\":978:1070  function listGameIds() public view returns (uint[] memory) {... */\n    tag_61:\n        /* \"contracts/4_Hello.sol\":1022:1035  uint[] memory */\n      0x60\n        /* \"contracts/4_Hello.sol\":1055:1062  gameIds */\n      0x02\n        /* \"contracts/4_Hello.sol\":1048:1062  return gameIds */\n      dup1\n      sload\n      dup1\n      0x20\n      mul\n      0x20\n      add\n      mload(0x40)\n      swap1\n      dup2\n      add\n      0x40\n      mstore\n      dup1\n      swap3\n      swap2\n      swap1\n      dup2\n      dup2\n      mstore\n      0x20\n      add\n      dup3\n      dup1\n      sload\n      dup1\n      iszero\n      tag_144\n      jumpi\n      0x20\n      mul\n      dup3\n      add\n      swap2\n      swap1\n      0x00\n      mstore\n      keccak256(0x00, 0x20)\n      swap1\n    tag_145:\n      dup2\n      sload\n      dup2\n      mstore\n      0x20\n      add\n      swap1\n      0x01\n      add\n      swap1\n      dup1\n      dup4\n      gt\n      tag_145\n      jumpi\n    tag_144:\n      pop\n      pop\n      pop\n      pop\n      pop\n      swap1\n      pop\n        /* \"contracts/4_Hello.sol\":978:1070  function listGameIds() public view returns (uint[] memory) {... */\n      swap1\n      jump\t// out\n        /* \"contracts/4_Hello.sol\":2553:2737  function myBetting(uint gameId) public view returns (uint) {... */\n    tag_66:\n        /* \"contracts/4_Hello.sol\":2606:2610  uint */\n      0x00\n        /* \"contracts/4_Hello.sol\":2631:2636  games */\n      0x01\n        /* \"contracts/4_Hello.sol\":2631:2644  games[gameId] */\n      0x00\n        /* \"contracts/4_Hello.sol\":2637:2643  gameId */\n      dup4\n        /* \"contracts/4_Hello.sol\":2631:2644  games[gameId] */\n      dup2\n      mstore\n      0x20\n      add\n      swap1\n      dup2\n      mstore\n      0x20\n      add\n      0x00\n      keccak256\n        /* \"contracts/4_Hello.sol\":2631:2656  games[gameId].initialized */\n      0x00\n      add\n      0x00\n      swap1\n      sload\n      swap1\n      0x0100\n      exp\n      swap1\n      div\n      0xff\n      and\n        /* \"contracts/4_Hello.sol\":2623:2677  require(games[gameId].initialized, \"Game Initialized\") */\n      tag_147\n      jumpi\n      mload(0x40)\n      0x08c379a000000000000000000000000000000000000000000000000000000000\n      dup2\n      mstore\n      0x04\n      add\n      tag_148\n      swap1\n      tag_87\n      jump\t// in\n    tag_148:\n      mload(0x40)\n      dup1\n      swap2\n      sub\n      swap1\n      revert\n    tag_147:\n        /* \"contracts/4_Hello.sol\":2695:2700  games */\n      0x01\n        /* \"contracts/4_Hello.sol\":2695:2708  games[gameId] */\n      0x00\n        /* \"contracts/4_Hello.sol\":2701:2707  gameId */\n      dup4\n        /* \"contracts/4_Hello.sol\":2695:2708  games[gameId] */\n      dup2\n      mstore\n      0x20\n      add\n      swap1\n      dup2\n      mstore\n      0x20\n      add\n      0x00\n      keccak256\n        /* \"contracts/4_Hello.sol\":2695:2717  games[gameId].bettings */\n      0x01\n      add\n        /* \"contracts/4_Hello.sol\":2695:2729  games[gameId].bettings[msg.sender] */\n      0x00\n        /* \"contracts/4_Hello.sol\":2718:2728  msg.sender */\n      caller\n        /* \"contracts/4_Hello.sol\":2695:2729  games[gameId].bettings[msg.sender] */\n      0xffffffffffffffffffffffffffffffffffffffff\n      and\n      0xffffffffffffffffffffffffffffffffffffffff\n      and\n      dup2\n      mstore\n      0x20\n      add\n      swap1\n      dup2\n      mstore\n      0x20\n      add\n      0x00\n      keccak256\n      sload\n        /* \"contracts/4_Hello.sol\":2688:2729  return games[gameId].bettings[msg.sender] */\n      swap1\n      pop\n        /* \"contracts/4_Hello.sol\":2553:2737  function myBetting(uint gameId) public view returns (uint) {... */\n      swap2\n      swap1\n      pop\n      jump\t// out\n        /* \"contracts/4_Hello.sol\":417:438  uint[] public gameIds */\n    tag_70:\n      0x02\n      dup2\n      dup2\n      sload\n      dup2\n      lt\n      tag_149\n      jumpi\n      0x00\n      dup1\n      revert\n    tag_149:\n      swap1\n      0x00\n      mstore\n      keccak256(0x00, 0x20)\n      add\n      0x00\n      swap2\n      pop\n      swap1\n      pop\n      sload\n      dup2\n      jump\t// out\n        /* \"contracts/4_Hello.sol\":747:970  function startGame(uint newId) public returns (bool) {... */\n    tag_74:\n        /* \"contracts/4_Hello.sol\":794:798  bool */\n      0x00\n        /* \"contracts/4_Hello.sol\":847:852  false */\n      dup1\n        /* \"contracts/4_Hello.sol\":819:852  games[newId].initialized == false */\n      iszero\n      iszero\n        /* \"contracts/4_Hello.sol\":819:824  games */\n      0x01\n        /* \"contracts/4_Hello.sol\":819:831  games[newId] */\n      0x00\n        /* \"contracts/4_Hello.sol\":825:830  newId */\n      dup5\n        /* \"contracts/4_Hello.sol\":819:831  games[newId] */\n      dup2\n      mstore\n      0x20\n      add\n      swap1\n      dup2\n      mstore\n      0x20\n      add\n      0x00\n      keccak256\n        /* \"contracts/4_Hello.sol\":819:843  games[newId].initialized */\n      0x00\n      add\n      0x00\n      swap1\n      sload\n      swap1\n      0x0100\n      exp\n      swap1\n      div\n      0xff\n      and\n        /* \"contracts/4_Hello.sol\":819:852  games[newId].initialized == false */\n      iszero\n      iszero\n      eq\n        /* \"contracts/4_Hello.sol\":811:868  require(games[newId].initialized == false, \"Game exists\") */\n      tag_152\n      jumpi\n      mload(0x40)\n      0x08c379a000000000000000000000000000000000000000000000000000000000\n      dup2\n      mstore\n      0x04\n      add\n      tag_153\n      swap1\n      tag_154\n      jump\t// in\n    tag_153:\n      mload(0x40)\n      dup1\n      swap2\n      sub\n      swap1\n      revert\n    tag_152:\n        /* \"contracts/4_Hello.sol\":906:910  true */\n      0x01\n        /* \"contracts/4_Hello.sol\":879:884  games */\n      dup1\n        /* \"contracts/4_Hello.sol\":879:891  games[newId] */\n      0x00\n        /* \"contracts/4_Hello.sol\":885:890  newId */\n      dup5\n        /* \"contracts/4_Hello.sol\":879:891  games[newId] */\n      dup2\n      mstore\n      0x20\n      add\n      swap1\n      dup2\n      mstore\n      0x20\n      add\n      0x00\n      keccak256\n        /* \"contracts/4_Hello.sol\":879:903  games[newId].initialized */\n      0x00\n      add\n      0x00\n        /* \"contracts/4_Hello.sol\":879:910  games[newId].initialized = true */\n      0x0100\n      exp\n      dup2\n      sload\n      dup2\n      0xff\n      mul\n      not\n      and\n      swap1\n      dup4\n      iszero\n      iszero\n      mul\n      or\n      swap1\n      sstore\n      pop\n        /* \"contracts/4_Hello.sol\":921:928  gameIds */\n      0x02\n        /* \"contracts/4_Hello.sol\":934:939  newId */\n      dup3\n        /* \"contracts/4_Hello.sol\":921:940  gameIds.push(newId) */\n      swap1\n      dup1\n      0x01\n      dup2\n      sload\n      add\n      dup1\n      dup3\n      sstore\n      dup1\n      swap2\n      pop\n      pop\n      0x01\n      swap1\n      sub\n      swap1\n      0x00\n      mstore\n      keccak256(0x00, 0x20)\n      add\n      0x00\n      swap1\n      swap2\n      swap1\n      swap2\n      swap1\n      swap2\n      pop\n      sstore\n        /* \"contracts/4_Hello.sol\":958:962  true */\n      0x01\n        /* \"contracts/4_Hello.sol\":951:962  return true */\n      swap1\n      pop\n        /* \"contracts/4_Hello.sol\":747:970  function startGame(uint newId) public returns (bool) {... */\n      swap2\n      swap1\n      pop\n      jump\t// out\n        /* \"contracts/4_Hello.sol\":600:739  function setErc20(address newContract) public onlyOwner returns (bool) {... */\n    tag_79:\n        /* \"contracts/4_Hello.sol\":665:669  bool */\n      0x00\n        /* \"contracts/ownable.sol\":1579:1592  _checkOwner() */\n      tag_157\n        /* \"contracts/ownable.sol\":1579:1590  _checkOwner */\n      tag_92\n        /* \"contracts/ownable.sol\":1579:1592  _checkOwner() */\n      jump\t// in\n    tag_157:\n        /* \"contracts/4_Hello.sol\":698:709  newContract */\n      dup2\n        /* \"contracts/4_Hello.sol\":682:695  tokenContract */\n      0x03\n      0x00\n        /* \"contracts/4_Hello.sol\":682:709  tokenContract = newContract */\n      0x0100\n      exp\n      dup2\n      sload\n      dup2\n      0xffffffffffffffffffffffffffffffffffffffff\n      mul\n      not\n      and\n      swap1\n      dup4\n      0xffffffffffffffffffffffffffffffffffffffff\n      and\n      mul\n      or\n      swap1\n      sstore\n      pop\n        /* \"contracts/4_Hello.sol\":727:731  true */\n      0x01\n        /* \"contracts/4_Hello.sol\":720:731  return true */\n      swap1\n      pop\n        /* \"contracts/4_Hello.sol\":600:739  function setErc20(address newContract) public onlyOwner returns (bool) {... */\n      swap2\n      swap1\n      pop\n      jump\t// out\n        /* \"contracts/ownable.sol\":2626:2846  function transferOwnership(address newOwner) public virtual onlyOwner {... */\n    tag_83:\n        /* \"contracts/ownable.sol\":1579:1592  _checkOwner() */\n      tag_160\n        /* \"contracts/ownable.sol\":1579:1590  _checkOwner */\n      tag_92\n        /* \"contracts/ownable.sol\":1579:1592  _checkOwner() */\n      jump\t// in\n    tag_160:\n        /* \"contracts/ownable.sol\":2731:2732  0 */\n      0x00\n        /* \"contracts/ownable.sol\":2711:2733  newOwner == address(0) */\n      0xffffffffffffffffffffffffffffffffffffffff\n      and\n        /* \"contracts/ownable.sol\":2711:2719  newOwner */\n      dup2\n        /* \"contracts/ownable.sol\":2711:2733  newOwner == address(0) */\n      0xffffffffffffffffffffffffffffffffffffffff\n      and\n      sub\n        /* \"contracts/ownable.sol\":2707:2800  if (newOwner == address(0)) {... */\n      tag_162\n      jumpi\n        /* \"contracts/ownable.sol\":2785:2786  0 */\n      0x00\n        /* \"contracts/ownable.sol\":2757:2788  OwnableInvalidOwner(address(0)) */\n      mload(0x40)\n      0x1e4fbdf700000000000000000000000000000000000000000000000000000000\n      dup2\n      mstore\n      0x04\n      add\n      tag_163\n      swap2\n      swap1\n      tag_45\n      jump\t// in\n    tag_163:\n      mload(0x40)\n      dup1\n      swap2\n      sub\n      swap1\n      revert\n        /* \"contracts/ownable.sol\":2707:2800  if (newOwner == address(0)) {... */\n    tag_162:\n        /* \"contracts/ownable.sol\":2810:2838  _transferOwnership(newOwner) */\n      tag_164\n        /* \"contracts/ownable.sol\":2829:2837  newOwner */\n      dup2\n        /* \"contracts/ownable.sol\":2810:2828  _transferOwnership */\n      tag_141\n        /* \"contracts/ownable.sol\":2810:2838  _transferOwnership(newOwner) */\n      jump\t// in\n    tag_164:\n        /* \"contracts/ownable.sol\":2626:2846  function transferOwnership(address newOwner) public virtual onlyOwner {... */\n      pop\n      jump\t// out\n        /* \"contracts/ownable.sol\":1858:2024  function _checkOwner() internal view virtual {... */\n    tag_92:\n        /* \"contracts/ownable.sol\":1929:1941  _msgSender() */\n      tag_166\n        /* \"contracts/ownable.sol\":1929:1939  _msgSender */\n      tag_167\n        /* \"contracts/ownable.sol\":1929:1941  _msgSender() */\n      jump\t// in\n    tag_166:\n        /* \"contracts/ownable.sol\":1918:1941  owner() != _msgSender() */\n      0xffffffffffffffffffffffffffffffffffffffff\n      and\n        /* \"contracts/ownable.sol\":1918:1925  owner() */\n      tag_168\n        /* \"contracts/ownable.sol\":1918:1923  owner */\n      tag_58\n        /* \"contracts/ownable.sol\":1918:1925  owner() */\n      jump\t// in\n    tag_168:\n        /* \"contracts/ownable.sol\":1918:1941  owner() != _msgSender() */\n      0xffffffffffffffffffffffffffffffffffffffff\n      and\n      eq\n        /* \"contracts/ownable.sol\":1914:2017  if (owner() != _msgSender()) {... */\n      tag_169\n      jumpi\n        /* \"contracts/ownable.sol\":1992:2004  _msgSender() */\n      tag_170\n        /* \"contracts/ownable.sol\":1992:2002  _msgSender */\n      tag_167\n        /* \"contracts/ownable.sol\":1992:2004  _msgSender() */\n      jump\t// in\n    tag_170:\n        /* \"contracts/ownable.sol\":1965:2005  OwnableUnauthorizedAccount(_msgSender()) */\n      mload(0x40)\n      0x118cdaa700000000000000000000000000000000000000000000000000000000\n      dup2\n      mstore\n      0x04\n      add\n      tag_171\n      swap2\n      swap1\n      tag_45\n      jump\t// in\n    tag_171:\n      mload(0x40)\n      dup1\n      swap2\n      sub\n      swap1\n      revert\n        /* \"contracts/ownable.sol\":1914:2017  if (owner() != _msgSender()) {... */\n    tag_169:\n        /* \"contracts/ownable.sol\":1858:2024  function _checkOwner() internal view virtual {... */\n      jump\t// out\n        /* \"contracts/ownable.sol\":3006:3197  function _transferOwnership(address newOwner) internal virtual {... */\n    tag_141:\n        /* \"contracts/ownable.sol\":3080:3096  address oldOwner */\n      0x00\n        /* \"contracts/ownable.sol\":3099:3105  _owner */\n      dup1\n      0x00\n      swap1\n      sload\n      swap1\n      0x0100\n      exp\n      swap1\n      div\n      0xffffffffffffffffffffffffffffffffffffffff\n      and\n        /* \"contracts/ownable.sol\":3080:3105  address oldOwner = _owner */\n      swap1\n      pop\n        /* \"contracts/ownable.sol\":3125:3133  newOwner */\n      dup2\n        /* \"contracts/ownable.sol\":3116:3122  _owner */\n      0x00\n      dup1\n        /* \"contracts/ownable.sol\":3116:3133  _owner = newOwner */\n      0x0100\n      exp\n      dup2\n      sload\n      dup2\n      0xffffffffffffffffffffffffffffffffffffffff\n      mul\n      not\n      and\n      swap1\n      dup4\n      0xffffffffffffffffffffffffffffffffffffffff\n      and\n      mul\n      or\n      swap1\n      sstore\n      pop\n        /* \"contracts/ownable.sol\":3180:3188  newOwner */\n      dup2\n        /* \"contracts/ownable.sol\":3149:3189  OwnershipTransferred(oldOwner, newOwner) */\n      0xffffffffffffffffffffffffffffffffffffffff\n      and\n        /* \"contracts/ownable.sol\":3170:3178  oldOwner */\n      dup2\n        /* \"contracts/ownable.sol\":3149:3189  OwnershipTransferred(oldOwner, newOwner) */\n      0xffffffffffffffffffffffffffffffffffffffff\n      and\n      0x8be0079c531659141344cd1fd0a4f28419497f9722a3daafe3b4186f6b6457e0\n      mload(0x40)\n      mload(0x40)\n      dup1\n      swap2\n      sub\n      swap1\n      log3\n        /* \"contracts/ownable.sol\":3069:3197  {... */\n      pop\n        /* \"contracts/ownable.sol\":3006:3197  function _transferOwnership(address newOwner) internal virtual {... */\n      pop\n      jump\t// out\n        /* \"contracts/context.sol\":679:777  function _msgSender() internal view virtual returns (address) {... */\n    tag_167:\n        /* \"contracts/context.sol\":732:739  address */\n      0x00\n        /* \"contracts/context.sol\":759:769  msg.sender */\n      caller\n        /* \"contracts/context.sol\":752:769  return msg.sender */\n      swap1\n      pop\n        /* \"contracts/context.sol\":679:777  function _msgSender() internal view virtual returns (address) {... */\n      swap1\n      jump\t// out\n        /* \"#utility.yul\":88:205   */\n    tag_175:\n        /* \"#utility.yul\":197:198   */\n      0x00\n        /* \"#utility.yul\":194:195   */\n      dup1\n        /* \"#utility.yul\":187:199   */\n      revert\n        /* \"#utility.yul\":334:411   */\n    tag_177:\n        /* \"#utility.yul\":371:378   */\n      0x00\n        /* \"#utility.yul\":400:405   */\n      dup2\n        /* \"#utility.yul\":389:405   */\n      swap1\n      pop\n        /* \"#utility.yul\":334:411   */\n      swap2\n      swap1\n      pop\n      jump\t// out\n        /* \"#utility.yul\":417:539   */\n    tag_178:\n        /* \"#utility.yul\":490:514   */\n      tag_225\n        /* \"#utility.yul\":508:513   */\n      dup2\n        /* \"#utility.yul\":490:514   */\n      tag_177\n      jump\t// in\n    tag_225:\n        /* \"#utility.yul\":483:488   */\n      dup2\n        /* \"#utility.yul\":480:515   */\n      eq\n        /* \"#utility.yul\":470:533   */\n      tag_226\n      jumpi\n        /* \"#utility.yul\":529:530   */\n      0x00\n        /* \"#utility.yul\":526:527   */\n      dup1\n        /* \"#utility.yul\":519:531   */\n      revert\n        /* \"#utility.yul\":470:533   */\n    tag_226:\n        /* \"#utility.yul\":417:539   */\n      pop\n      jump\t// out\n        /* \"#utility.yul\":545:684   */\n    tag_179:\n        /* \"#utility.yul\":591:596   */\n      0x00\n        /* \"#utility.yul\":629:635   */\n      dup2\n        /* \"#utility.yul\":616:636   */\n      calldataload\n        /* \"#utility.yul\":607:636   */\n      swap1\n      pop\n        /* \"#utility.yul\":645:678   */\n      tag_228\n        /* \"#utility.yul\":672:677   */\n      dup2\n        /* \"#utility.yul\":645:678   */\n      tag_178\n      jump\t// in\n    tag_228:\n        /* \"#utility.yul\":545:684   */\n      swap3\n      swap2\n      pop\n      pop\n      jump\t// out\n        /* \"#utility.yul\":690:1019   */\n    tag_23:\n        /* \"#utility.yul\":749:755   */\n      0x00\n        /* \"#utility.yul\":798:800   */\n      0x20\n        /* \"#utility.yul\":786:795   */\n      dup3\n        /* \"#utility.yul\":777:784   */\n      dup5\n        /* \"#utility.yul\":773:796   */\n      sub\n        /* \"#utility.yul\":769:801   */\n      slt\n        /* \"#utility.yul\":766:885   */\n      iszero\n      tag_230\n      jumpi\n        /* \"#utility.yul\":804:883   */\n      tag_231\n      tag_175\n      jump\t// in\n    tag_231:\n        /* \"#utility.yul\":766:885   */\n    tag_230:\n        /* \"#utility.yul\":924:925   */\n      0x00\n        /* \"#utility.yul\":949:1002   */\n      tag_232\n        /* \"#utility.yul\":994:1001   */\n      dup5\n        /* \"#utility.yul\":985:991   */\n      dup3\n        /* \"#utility.yul\":974:983   */\n      dup6\n        /* \"#utility.yul\":970:992   */\n      add\n        /* \"#utility.yul\":949:1002   */\n      tag_179\n      jump\t// in\n    tag_232:\n        /* \"#utility.yul\":939:1002   */\n      swap2\n      pop\n        /* \"#utility.yul\":895:1012   */\n      pop\n        /* \"#utility.yul\":690:1019   */\n      swap3\n      swap2\n      pop\n      pop\n      jump\t// out\n        /* \"#utility.yul\":1025:1115   */\n    tag_180:\n        /* \"#utility.yul\":1059:1066   */\n      0x00\n        /* \"#utility.yul\":1102:1107   */\n      dup2\n        /* \"#utility.yul\":1095:1108   */\n      iszero\n        /* \"#utility.yul\":1088:1109   */\n      iszero\n        /* \"#utility.yul\":1077:1109   */\n      swap1\n      pop\n        /* \"#utility.yul\":1025:1115   */\n      swap2\n      swap1\n      pop\n      jump\t// out\n        /* \"#utility.yul\":1121:1230   */\n    tag_181:\n        /* \"#utility.yul\":1202:1223   */\n      tag_235\n        /* \"#utility.yul\":1217:1222   */\n      dup2\n        /* \"#utility.yul\":1202:1223   */\n      tag_180\n      jump\t// in\n    tag_235:\n        /* \"#utility.yul\":1197:1200   */\n      dup3\n        /* \"#utility.yul\":1190:1224   */\n      mstore\n        /* \"#utility.yul\":1121:1230   */\n      pop\n      pop\n      jump\t// out\n        /* \"#utility.yul\":1236:1354   */\n    tag_182:\n        /* \"#utility.yul\":1323:1347   */\n      tag_237\n        /* \"#utility.yul\":1341:1346   */\n      dup2\n        /* \"#utility.yul\":1323:1347   */\n      tag_177\n      jump\t// in\n    tag_237:\n        /* \"#utility.yul\":1318:1321   */\n      dup3\n        /* \"#utility.yul\":1311:1348   */\n      mstore\n        /* \"#utility.yul\":1236:1354   */\n      pop\n      pop\n      jump\t// out\n        /* \"#utility.yul\":1360:1486   */\n    tag_183:\n        /* \"#utility.yul\":1397:1404   */\n      0x00\n        /* \"#utility.yul\":1437:1479   */\n      0xffffffffffffffffffffffffffffffffffffffff\n        /* \"#utility.yul\":1430:1435   */\n      dup3\n        /* \"#utility.yul\":1426:1480   */\n      and\n        /* \"#utility.yul\":1415:1480   */\n      swap1\n      pop\n        /* \"#utility.yul\":1360:1486   */\n      swap2\n      swap1\n      pop\n      jump\t// out\n        /* \"#utility.yul\":1492:1588   */\n    tag_184:\n        /* \"#utility.yul\":1529:1536   */\n      0x00\n        /* \"#utility.yul\":1558:1582   */\n      tag_240\n        /* \"#utility.yul\":1576:1581   */\n      dup3\n        /* \"#utility.yul\":1558:1582   */\n      tag_183\n      jump\t// in\n    tag_240:\n        /* \"#utility.yul\":1547:1582   */\n      swap1\n      pop\n        /* \"#utility.yul\":1492:1588   */\n      swap2\n      swap1\n      pop\n      jump\t// out\n        /* \"#utility.yul\":1594:1712   */\n    tag_185:\n        /* \"#utility.yul\":1681:1705   */\n      tag_242\n        /* \"#utility.yul\":1699:1704   */\n      dup2\n        /* \"#utility.yul\":1681:1705   */\n      tag_184\n      jump\t// in\n    tag_242:\n        /* \"#utility.yul\":1676:1679   */\n      dup3\n        /* \"#utility.yul\":1669:1706   */\n      mstore\n        /* \"#utility.yul\":1594:1712   */\n      pop\n      pop\n      jump\t// out\n        /* \"#utility.yul\":1718:2148   */\n    tag_26:\n        /* \"#utility.yul\":1861:1865   */\n      0x00\n        /* \"#utility.yul\":1899:1901   */\n      0x60\n        /* \"#utility.yul\":1888:1897   */\n      dup3\n        /* \"#utility.yul\":1884:1902   */\n      add\n        /* \"#utility.yul\":1876:1902   */\n      swap1\n      pop\n        /* \"#utility.yul\":1912:1977   */\n      tag_244\n        /* \"#utility.yul\":1974:1975   */\n      0x00\n        /* \"#utility.yul\":1963:1972   */\n      dup4\n        /* \"#utility.yul\":1959:1976   */\n      add\n        /* \"#utility.yul\":1950:1956   */\n      dup7\n        /* \"#utility.yul\":1912:1977   */\n      tag_181\n      jump\t// in\n    tag_244:\n        /* \"#utility.yul\":1987:2059   */\n      tag_245\n        /* \"#utility.yul\":2055:2057   */\n      0x20\n        /* \"#utility.yul\":2044:2053   */\n      dup4\n        /* \"#utility.yul\":2040:2058   */\n      add\n        /* \"#utility.yul\":2031:2037   */\n      dup6\n        /* \"#utility.yul\":1987:2059   */\n      tag_182\n      jump\t// in\n    tag_245:\n        /* \"#utility.yul\":2069:2141   */\n      tag_246\n        /* \"#utility.yul\":2137:2139   */\n      0x40\n        /* \"#utility.yul\":2126:2135   */\n      dup4\n        /* \"#utility.yul\":2122:2140   */\n      add\n        /* \"#utility.yul\":2113:2119   */\n      dup5\n        /* \"#utility.yul\":2069:2141   */\n      tag_185\n      jump\t// in\n    tag_246:\n        /* \"#utility.yul\":1718:2148   */\n      swap5\n      swap4\n      pop\n      pop\n      pop\n      pop\n      jump\t// out\n        /* \"#utility.yul\":2154:2268   */\n    tag_186:\n        /* \"#utility.yul\":2221:2227   */\n      0x00\n        /* \"#utility.yul\":2255:2260   */\n      dup2\n        /* \"#utility.yul\":2249:2261   */\n      mload\n        /* \"#utility.yul\":2239:2261   */\n      swap1\n      pop\n        /* \"#utility.yul\":2154:2268   */\n      swap2\n      swap1\n      pop\n      jump\t// out\n        /* \"#utility.yul\":2274:2458   */\n    tag_187:\n        /* \"#utility.yul\":2373:2384   */\n      0x00\n        /* \"#utility.yul\":2407:2413   */\n      dup3\n        /* \"#utility.yul\":2402:2405   */\n      dup3\n        /* \"#utility.yul\":2395:2414   */\n      mstore\n        /* \"#utility.yul\":2447:2451   */\n      0x20\n        /* \"#utility.yul\":2442:2445   */\n      dup3\n        /* \"#utility.yul\":2438:2452   */\n      add\n        /* \"#utility.yul\":2423:2452   */\n      swap1\n      pop\n        /* \"#utility.yul\":2274:2458   */\n      swap3\n      swap2\n      pop\n      pop\n      jump\t// out\n        /* \"#utility.yul\":2464:2596   */\n    tag_188:\n        /* \"#utility.yul\":2531:2535   */\n      0x00\n        /* \"#utility.yul\":2554:2557   */\n      dup2\n        /* \"#utility.yul\":2546:2557   */\n      swap1\n      pop\n        /* \"#utility.yul\":2584:2588   */\n      0x20\n        /* \"#utility.yul\":2579:2582   */\n      dup3\n        /* \"#utility.yul\":2575:2589   */\n      add\n        /* \"#utility.yul\":2567:2589   */\n      swap1\n      pop\n        /* \"#utility.yul\":2464:2596   */\n      swap2\n      swap1\n      pop\n      jump\t// out\n        /* \"#utility.yul\":2602:2710   */\n    tag_189:\n        /* \"#utility.yul\":2679:2703   */\n      tag_251\n        /* \"#utility.yul\":2697:2702   */\n      dup2\n        /* \"#utility.yul\":2679:2703   */\n      tag_184\n      jump\t// in\n    tag_251:\n        /* \"#utility.yul\":2674:2677   */\n      dup3\n        /* \"#utility.yul\":2667:2704   */\n      mstore\n        /* \"#utility.yul\":2602:2710   */\n      pop\n      pop\n      jump\t// out\n        /* \"#utility.yul\":2716:2895   */\n    tag_190:\n        /* \"#utility.yul\":2785:2795   */\n      0x00\n        /* \"#utility.yul\":2806:2852   */\n      tag_253\n        /* \"#utility.yul\":2848:2851   */\n      dup4\n        /* \"#utility.yul\":2840:2846   */\n      dup4\n        /* \"#utility.yul\":2806:2852   */\n      tag_189\n      jump\t// in\n    tag_253:\n        /* \"#utility.yul\":2884:2888   */\n      0x20\n        /* \"#utility.yul\":2879:2882   */\n      dup4\n        /* \"#utility.yul\":2875:2889   */\n      add\n        /* \"#utility.yul\":2861:2889   */\n      swap1\n      pop\n        /* \"#utility.yul\":2716:2895   */\n      swap3\n      swap2\n      pop\n      pop\n      jump\t// out\n        /* \"#utility.yul\":2901:3014   */\n    tag_191:\n        /* \"#utility.yul\":2971:2975   */\n      0x00\n        /* \"#utility.yul\":3003:3007   */\n      0x20\n        /* \"#utility.yul\":2998:3001   */\n      dup3\n        /* \"#utility.yul\":2994:3008   */\n      add\n        /* \"#utility.yul\":2986:3008   */\n      swap1\n      pop\n        /* \"#utility.yul\":2901:3014   */\n      swap2\n      swap1\n      pop\n      jump\t// out\n        /* \"#utility.yul\":3050:3782   */\n    tag_192:\n        /* \"#utility.yul\":3169:3172   */\n      0x00\n        /* \"#utility.yul\":3198:3252   */\n      tag_256\n        /* \"#utility.yul\":3246:3251   */\n      dup3\n        /* \"#utility.yul\":3198:3252   */\n      tag_186\n      jump\t// in\n    tag_256:\n        /* \"#utility.yul\":3268:3354   */\n      tag_257\n        /* \"#utility.yul\":3347:3353   */\n      dup2\n        /* \"#utility.yul\":3342:3345   */\n      dup6\n        /* \"#utility.yul\":3268:3354   */\n      tag_187\n      jump\t// in\n    tag_257:\n        /* \"#utility.yul\":3261:3354   */\n      swap4\n      pop\n        /* \"#utility.yul\":3378:3434   */\n      tag_258\n        /* \"#utility.yul\":3428:3433   */\n      dup4\n        /* \"#utility.yul\":3378:3434   */\n      tag_188\n      jump\t// in\n    tag_258:\n        /* \"#utility.yul\":3457:3464   */\n      dup1\n        /* \"#utility.yul\":3488:3489   */\n      0x00\n        /* \"#utility.yul\":3473:3757   */\n    tag_259:\n        /* \"#utility.yul\":3498:3504   */\n      dup4\n        /* \"#utility.yul\":3495:3496   */\n      dup2\n        /* \"#utility.yul\":3492:3505   */\n      lt\n        /* \"#utility.yul\":3473:3757   */\n      iszero\n      tag_261\n      jumpi\n        /* \"#utility.yul\":3574:3580   */\n      dup2\n        /* \"#utility.yul\":3568:3581   */\n      mload\n        /* \"#utility.yul\":3601:3664   */\n      tag_262\n        /* \"#utility.yul\":3660:3663   */\n      dup9\n        /* \"#utility.yul\":3645:3658   */\n      dup3\n        /* \"#utility.yul\":3601:3664   */\n      tag_190\n      jump\t// in\n    tag_262:\n        /* \"#utility.yul\":3594:3664   */\n      swap8\n      pop\n        /* \"#utility.yul\":3687:3747   */\n      tag_263\n        /* \"#utility.yul\":3740:3746   */\n      dup4\n        /* \"#utility.yul\":3687:3747   */\n      tag_191\n      jump\t// in\n    tag_263:\n        /* \"#utility.yul\":3677:3747   */\n      swap3\n      pop\n        /* \"#utility.yul\":3533:3757   */\n      pop\n        /* \"#utility.yul\":3520:3521   */\n      0x01\n        /* \"#utility.yul\":3517:3518   */\n      dup2\n        /* \"#utility.yul\":3513:3522   */\n      add\n        /* \"#utility.yul\":3508:3522   */\n      swap1\n      pop\n        /* \"#utility.yul\":3473:3757   */\n      jump(tag_259)\n    tag_261:\n        /* \"#utility.yul\":3477:3491   */\n      pop\n        /* \"#utility.yul\":3773:3776   */\n      dup6\n        /* \"#utility.yul\":3766:3776   */\n      swap4\n      pop\n        /* \"#utility.yul\":3174:3782   */\n      pop\n      pop\n      pop\n        /* \"#utility.yul\":3050:3782   */\n      swap3\n      swap2\n      pop\n      pop\n      jump\t// out\n        /* \"#utility.yul\":3788:4161   */\n    tag_31:\n        /* \"#utility.yul\":3931:3935   */\n      0x00\n        /* \"#utility.yul\":3969:3971   */\n      0x20\n        /* \"#utility.yul\":3958:3967   */\n      dup3\n        /* \"#utility.yul\":3954:3972   */\n      add\n        /* \"#utility.yul\":3946:3972   */\n      swap1\n      pop\n        /* \"#utility.yul\":4018:4027   */\n      dup2\n        /* \"#utility.yul\":4012:4016   */\n      dup2\n        /* \"#utility.yul\":4008:4028   */\n      sub\n        /* \"#utility.yul\":4004:4005   */\n      0x00\n        /* \"#utility.yul\":3993:4002   */\n      dup4\n        /* \"#utility.yul\":3989:4006   */\n      add\n        /* \"#utility.yul\":3982:4029   */\n      mstore\n        /* \"#utility.yul\":4046:4154   */\n      tag_265\n        /* \"#utility.yul\":4149:4153   */\n      dup2\n        /* \"#utility.yul\":4140:4146   */\n      dup5\n        /* \"#utility.yul\":4046:4154   */\n      tag_192\n      jump\t// in\n    tag_265:\n        /* \"#utility.yul\":4038:4154   */\n      swap1\n      pop\n        /* \"#utility.yul\":3788:4161   */\n      swap3\n      swap2\n      pop\n      pop\n      jump\t// out\n        /* \"#utility.yul\":4167:4289   */\n    tag_193:\n        /* \"#utility.yul\":4240:4264   */\n      tag_267\n        /* \"#utility.yul\":4258:4263   */\n      dup2\n        /* \"#utility.yul\":4240:4264   */\n      tag_184\n      jump\t// in\n    tag_267:\n        /* \"#utility.yul\":4233:4238   */\n      dup2\n        /* \"#utility.yul\":4230:4265   */\n      eq\n        /* \"#utility.yul\":4220:4283   */\n      tag_268\n      jumpi\n        /* \"#utility.yul\":4279:4280   */\n      0x00\n        /* \"#utility.yul\":4276:4277   */\n      dup1\n        /* \"#utility.yul\":4269:4281   */\n      revert\n        /* \"#utility.yul\":4220:4283   */\n    tag_268:\n        /* \"#utility.yul\":4167:4289   */\n      pop\n      jump\t// out\n        /* \"#utility.yul\":4295:4434   */\n    tag_194:\n        /* \"#utility.yul\":4341:4346   */\n      0x00\n        /* \"#utility.yul\":4379:4385   */\n      dup2\n        /* \"#utility.yul\":4366:4386   */\n      calldataload\n        /* \"#utility.yul\":4357:4386   */\n      swap1\n      pop\n        /* \"#utility.yul\":4395:4428   */\n      tag_270\n        /* \"#utility.yul\":4422:4427   */\n      dup2\n        /* \"#utility.yul\":4395:4428   */\n      tag_193\n      jump\t// in\n    tag_270:\n        /* \"#utility.yul\":4295:4434   */\n      swap3\n      swap2\n      pop\n      pop\n      jump\t// out\n        /* \"#utility.yul\":4440:4914   */\n    tag_34:\n        /* \"#utility.yul\":4508:4514   */\n      0x00\n        /* \"#utility.yul\":4516:4522   */\n      dup1\n        /* \"#utility.yul\":4565:4567   */\n      0x40\n        /* \"#utility.yul\":4553:4562   */\n      dup4\n        /* \"#utility.yul\":4544:4551   */\n      dup6\n        /* \"#utility.yul\":4540:4563   */\n      sub\n        /* \"#utility.yul\":4536:4568   */\n      slt\n        /* \"#utility.yul\":4533:4652   */\n      iszero\n      tag_272\n      jumpi\n        /* \"#utility.yul\":4571:4650   */\n      tag_273\n      tag_175\n      jump\t// in\n    tag_273:\n        /* \"#utility.yul\":4533:4652   */\n    tag_272:\n        /* \"#utility.yul\":4691:4692   */\n      0x00\n        /* \"#utility.yul\":4716:4769   */\n      tag_274\n        /* \"#utility.yul\":4761:4768   */\n      dup6\n        /* \"#utility.yul\":4752:4758   */\n      dup3\n        /* \"#utility.yul\":4741:4750   */\n      dup7\n        /* \"#utility.yul\":4737:4759   */\n      add\n        /* \"#utility.yul\":4716:4769   */\n      tag_179\n      jump\t// in\n    tag_274:\n        /* \"#utility.yul\":4706:4769   */\n      swap3\n      pop\n        /* \"#utility.yul\":4662:4779   */\n      pop\n        /* \"#utility.yul\":4818:4820   */\n      0x20\n        /* \"#utility.yul\":4844:4897   */\n      tag_275\n        /* \"#utility.yul\":4889:4896   */\n      dup6\n        /* \"#utility.yul\":4880:4886   */\n      dup3\n        /* \"#utility.yul\":4869:4878   */\n      dup7\n        /* \"#utility.yul\":4865:4887   */\n      add\n        /* \"#utility.yul\":4844:4897   */\n      tag_194\n      jump\t// in\n    tag_275:\n        /* \"#utility.yul\":4834:4897   */\n      swap2\n      pop\n        /* \"#utility.yul\":4789:4907   */\n      pop\n        /* \"#utility.yul\":4440:4914   */\n      swap3\n      pop\n      swap3\n      swap1\n      pop\n      jump\t// out\n        /* \"#utility.yul\":4920:5142   */\n    tag_37:\n        /* \"#utility.yul\":5013:5017   */\n      0x00\n        /* \"#utility.yul\":5051:5053   */\n      0x20\n        /* \"#utility.yul\":5040:5049   */\n      dup3\n        /* \"#utility.yul\":5036:5054   */\n      add\n        /* \"#utility.yul\":5028:5054   */\n      swap1\n      pop\n        /* \"#utility.yul\":5064:5135   */\n      tag_277\n        /* \"#utility.yul\":5132:5133   */\n      0x00\n        /* \"#utility.yul\":5121:5130   */\n      dup4\n        /* \"#utility.yul\":5117:5134   */\n      add\n        /* \"#utility.yul\":5108:5114   */\n      dup5\n        /* \"#utility.yul\":5064:5135   */\n      tag_182\n      jump\t// in\n    tag_277:\n        /* \"#utility.yul\":4920:5142   */\n      swap3\n      swap2\n      pop\n      pop\n      jump\t// out\n        /* \"#utility.yul\":5148:5370   */\n    tag_45:\n        /* \"#utility.yul\":5241:5245   */\n      0x00\n        /* \"#utility.yul\":5279:5281   */\n      0x20\n        /* \"#utility.yul\":5268:5277   */\n      dup3\n        /* \"#utility.yul\":5264:5282   */\n      add\n        /* \"#utility.yul\":5256:5282   */\n      swap1\n      pop\n        /* \"#utility.yul\":5292:5363   */\n      tag_279\n        /* \"#utility.yul\":5360:5361   */\n      0x00\n        /* \"#utility.yul\":5349:5358   */\n      dup4\n        /* \"#utility.yul\":5345:5362   */\n      add\n        /* \"#utility.yul\":5336:5342   */\n      dup5\n        /* \"#utility.yul\":5292:5363   */\n      tag_185\n      jump\t// in\n    tag_279:\n        /* \"#utility.yul\":5148:5370   */\n      swap3\n      swap2\n      pop\n      pop\n      jump\t// out\n        /* \"#utility.yul\":5376:5850   */\n    tag_48:\n        /* \"#utility.yul\":5444:5450   */\n      0x00\n        /* \"#utility.yul\":5452:5458   */\n      dup1\n        /* \"#utility.yul\":5501:5503   */\n      0x40\n        /* \"#utility.yul\":5489:5498   */\n      dup4\n        /* \"#utility.yul\":5480:5487   */\n      dup6\n        /* \"#utility.yul\":5476:5499   */\n      sub\n        /* \"#utility.yul\":5472:5504   */\n      slt\n        /* \"#utility.yul\":5469:5588   */\n      iszero\n      tag_281\n      jumpi\n        /* \"#utility.yul\":5507:5586   */\n      tag_282\n      tag_175\n      jump\t// in\n    tag_282:\n        /* \"#utility.yul\":5469:5588   */\n    tag_281:\n        /* \"#utility.yul\":5627:5628   */\n      0x00\n        /* \"#utility.yul\":5652:5705   */\n      tag_283\n        /* \"#utility.yul\":5697:5704   */\n      dup6\n        /* \"#utility.yul\":5688:5694   */\n      dup3\n        /* \"#utility.yul\":5677:5686   */\n      dup7\n        /* \"#utility.yul\":5673:5695   */\n      add\n        /* \"#utility.yul\":5652:5705   */\n      tag_179\n      jump\t// in\n    tag_283:\n        /* \"#utility.yul\":5642:5705   */\n      swap3\n      pop\n        /* \"#utility.yul\":5598:5715   */\n      pop\n        /* \"#utility.yul\":5754:5756   */\n      0x20\n        /* \"#utility.yul\":5780:5833   */\n      tag_284\n        /* \"#utility.yul\":5825:5832   */\n      dup6\n        /* \"#utility.yul\":5816:5822   */\n      dup3\n        /* \"#utility.yul\":5805:5814   */\n      dup7\n        /* \"#utility.yul\":5801:5823   */\n      add\n        /* \"#utility.yul\":5780:5833   */\n      tag_179\n      jump\t// in\n    tag_284:\n        /* \"#utility.yul\":5770:5833   */\n      swap2\n      pop\n        /* \"#utility.yul\":5725:5843   */\n      pop\n        /* \"#utility.yul\":5376:5850   */\n      swap3\n      pop\n      swap3\n      swap1\n      pop\n      jump\t// out\n        /* \"#utility.yul\":5856:6066   */\n    tag_51:\n        /* \"#utility.yul\":5943:5947   */\n      0x00\n        /* \"#utility.yul\":5981:5983   */\n      0x20\n        /* \"#utility.yul\":5970:5979   */\n      dup3\n        /* \"#utility.yul\":5966:5984   */\n      add\n        /* \"#utility.yul\":5958:5984   */\n      swap1\n      pop\n        /* \"#utility.yul\":5994:6059   */\n      tag_286\n        /* \"#utility.yul\":6056:6057   */\n      0x00\n        /* \"#utility.yul\":6045:6054   */\n      dup4\n        /* \"#utility.yul\":6041:6058   */\n      add\n        /* \"#utility.yul\":6032:6038   */\n      dup5\n        /* \"#utility.yul\":5994:6059   */\n      tag_181\n      jump\t// in\n    tag_286:\n        /* \"#utility.yul\":5856:6066   */\n      swap3\n      swap2\n      pop\n      pop\n      jump\t// out\n        /* \"#utility.yul\":6072:6186   */\n    tag_195:\n        /* \"#utility.yul\":6139:6145   */\n      0x00\n        /* \"#utility.yul\":6173:6178   */\n      dup2\n        /* \"#utility.yul\":6167:6179   */\n      mload\n        /* \"#utility.yul\":6157:6179   */\n      swap1\n      pop\n        /* \"#utility.yul\":6072:6186   */\n      swap2\n      swap1\n      pop\n      jump\t// out\n        /* \"#utility.yul\":6192:6376   */\n    tag_196:\n        /* \"#utility.yul\":6291:6302   */\n      0x00\n        /* \"#utility.yul\":6325:6331   */\n      dup3\n        /* \"#utility.yul\":6320:6323   */\n      dup3\n        /* \"#utility.yul\":6313:6332   */\n      mstore\n        /* \"#utility.yul\":6365:6369   */\n      0x20\n        /* \"#utility.yul\":6360:6363   */\n      dup3\n        /* \"#utility.yul\":6356:6370   */\n      add\n        /* \"#utility.yul\":6341:6370   */\n      swap1\n      pop\n        /* \"#utility.yul\":6192:6376   */\n      swap3\n      swap2\n      pop\n      pop\n      jump\t// out\n        /* \"#utility.yul\":6382:6514   */\n    tag_197:\n        /* \"#utility.yul\":6449:6453   */\n      0x00\n        /* \"#utility.yul\":6472:6475   */\n      dup2\n        /* \"#utility.yul\":6464:6475   */\n      swap1\n      pop\n        /* \"#utility.yul\":6502:6506   */\n      0x20\n        /* \"#utility.yul\":6497:6500   */\n      dup3\n        /* \"#utility.yul\":6493:6507   */\n      add\n        /* \"#utility.yul\":6485:6507   */\n      swap1\n      pop\n        /* \"#utility.yul\":6382:6514   */\n      swap2\n      swap1\n      pop\n      jump\t// out\n        /* \"#utility.yul\":6520:6628   */\n    tag_198:\n        /* \"#utility.yul\":6597:6621   */\n      tag_291\n        /* \"#utility.yul\":6615:6620   */\n      dup2\n        /* \"#utility.yul\":6597:6621   */\n      tag_177\n      jump\t// in\n    tag_291:\n        /* \"#utility.yul\":6592:6595   */\n      dup3\n        /* \"#utility.yul\":6585:6622   */\n      mstore\n        /* \"#utility.yul\":6520:6628   */\n      pop\n      pop\n      jump\t// out\n        /* \"#utility.yul\":6634:6813   */\n    tag_199:\n        /* \"#utility.yul\":6703:6713   */\n      0x00\n        /* \"#utility.yul\":6724:6770   */\n      tag_293\n        /* \"#utility.yul\":6766:6769   */\n      dup4\n        /* \"#utility.yul\":6758:6764   */\n      dup4\n        /* \"#utility.yul\":6724:6770   */\n      tag_198\n      jump\t// in\n    tag_293:\n        /* \"#utility.yul\":6802:6806   */\n      0x20\n        /* \"#utility.yul\":6797:6800   */\n      dup4\n        /* \"#utility.yul\":6793:6807   */\n      add\n        /* \"#utility.yul\":6779:6807   */\n      swap1\n      pop\n        /* \"#utility.yul\":6634:6813   */\n      swap3\n      swap2\n      pop\n      pop\n      jump\t// out\n        /* \"#utility.yul\":6819:6932   */\n    tag_200:\n        /* \"#utility.yul\":6889:6893   */\n      0x00\n        /* \"#utility.yul\":6921:6925   */\n      0x20\n        /* \"#utility.yul\":6916:6919   */\n      dup3\n        /* \"#utility.yul\":6912:6926   */\n      add\n        /* \"#utility.yul\":6904:6926   */\n      swap1\n      pop\n        /* \"#utility.yul\":6819:6932   */\n      swap2\n      swap1\n      pop\n      jump\t// out\n        /* \"#utility.yul\":6968:7700   */\n    tag_201:\n        /* \"#utility.yul\":7087:7090   */\n      0x00\n        /* \"#utility.yul\":7116:7170   */\n      tag_296\n        /* \"#utility.yul\":7164:7169   */\n      dup3\n        /* \"#utility.yul\":7116:7170   */\n      tag_195\n      jump\t// in\n    tag_296:\n        /* \"#utility.yul\":7186:7272   */\n      tag_297\n        /* \"#utility.yul\":7265:7271   */\n      dup2\n        /* \"#utility.yul\":7260:7263   */\n      dup6\n        /* \"#utility.yul\":7186:7272   */\n      tag_196\n      jump\t// in\n    tag_297:\n        /* \"#utility.yul\":7179:7272   */\n      swap4\n      pop\n        /* \"#utility.yul\":7296:7352   */\n      tag_298\n        /* \"#utility.yul\":7346:7351   */\n      dup4\n        /* \"#utility.yul\":7296:7352   */\n      tag_197\n      jump\t// in\n    tag_298:\n        /* \"#utility.yul\":7375:7382   */\n      dup1\n        /* \"#utility.yul\":7406:7407   */\n      0x00\n        /* \"#utility.yul\":7391:7675   */\n    tag_299:\n        /* \"#utility.yul\":7416:7422   */\n      dup4\n        /* \"#utility.yul\":7413:7414   */\n      dup2\n        /* \"#utility.yul\":7410:7423   */\n      lt\n        /* \"#utility.yul\":7391:7675   */\n      iszero\n      tag_301\n      jumpi\n        /* \"#utility.yul\":7492:7498   */\n      dup2\n        /* \"#utility.yul\":7486:7499   */\n      mload\n        /* \"#utility.yul\":7519:7582   */\n      tag_302\n        /* \"#utility.yul\":7578:7581   */\n      dup9\n        /* \"#utility.yul\":7563:7576   */\n      dup3\n        /* \"#utility.yul\":7519:7582   */\n      tag_199\n      jump\t// in\n    tag_302:\n        /* \"#utility.yul\":7512:7582   */\n      swap8\n      pop\n        /* \"#utility.yul\":7605:7665   */\n      tag_303\n        /* \"#utility.yul\":7658:7664   */\n      dup4\n        /* \"#utility.yul\":7605:7665   */\n      tag_200\n      jump\t// in\n    tag_303:\n        /* \"#utility.yul\":7595:7665   */\n      swap3\n      pop\n        /* \"#utility.yul\":7451:7675   */\n      pop\n        /* \"#utility.yul\":7438:7439   */\n      0x01\n        /* \"#utility.yul\":7435:7436   */\n      dup2\n        /* \"#utility.yul\":7431:7440   */\n      add\n        /* \"#utility.yul\":7426:7440   */\n      swap1\n      pop\n        /* \"#utility.yul\":7391:7675   */\n      jump(tag_299)\n    tag_301:\n        /* \"#utility.yul\":7395:7409   */\n      pop\n        /* \"#utility.yul\":7691:7694   */\n      dup6\n        /* \"#utility.yul\":7684:7694   */\n      swap4\n      pop\n        /* \"#utility.yul\":7092:7700   */\n      pop\n      pop\n      pop\n        /* \"#utility.yul\":6968:7700   */\n      swap3\n      swap2\n      pop\n      pop\n      jump\t// out\n        /* \"#utility.yul\":7706:8079   */\n    tag_63:\n        /* \"#utility.yul\":7849:7853   */\n      0x00\n        /* \"#utility.yul\":7887:7889   */\n      0x20\n        /* \"#utility.yul\":7876:7885   */\n      dup3\n        /* \"#utility.yul\":7872:7890   */\n      add\n        /* \"#utility.yul\":7864:7890   */\n      swap1\n      pop\n        /* \"#utility.yul\":7936:7945   */\n      dup2\n        /* \"#utility.yul\":7930:7934   */\n      dup2\n        /* \"#utility.yul\":7926:7946   */\n      sub\n        /* \"#utility.yul\":7922:7923   */\n      0x00\n        /* \"#utility.yul\":7911:7920   */\n      dup4\n        /* \"#utility.yul\":7907:7924   */\n      add\n        /* \"#utility.yul\":7900:7947   */\n      mstore\n        /* \"#utility.yul\":7964:8072   */\n      tag_305\n        /* \"#utility.yul\":8067:8071   */\n      dup2\n        /* \"#utility.yul\":8058:8064   */\n      dup5\n        /* \"#utility.yul\":7964:8072   */\n      tag_201\n      jump\t// in\n    tag_305:\n        /* \"#utility.yul\":7956:8072   */\n      swap1\n      pop\n        /* \"#utility.yul\":7706:8079   */\n      swap3\n      swap2\n      pop\n      pop\n      jump\t// out\n        /* \"#utility.yul\":8085:8414   */\n    tag_78:\n        /* \"#utility.yul\":8144:8150   */\n      0x00\n        /* \"#utility.yul\":8193:8195   */\n      0x20\n        /* \"#utility.yul\":8181:8190   */\n      dup3\n        /* \"#utility.yul\":8172:8179   */\n      dup5\n        /* \"#utility.yul\":8168:8191   */\n      sub\n        /* \"#utility.yul\":8164:8196   */\n      slt\n        /* \"#utility.yul\":8161:8280   */\n      iszero\n      tag_307\n      jumpi\n        /* \"#utility.yul\":8199:8278   */\n      tag_308\n      tag_175\n      jump\t// in\n    tag_308:\n        /* \"#utility.yul\":8161:8280   */\n    tag_307:\n        /* \"#utility.yul\":8319:8320   */\n      0x00\n        /* \"#utility.yul\":8344:8397   */\n      tag_309\n        /* \"#utility.yul\":8389:8396   */\n      dup5\n        /* \"#utility.yul\":8380:8386   */\n      dup3\n        /* \"#utility.yul\":8369:8378   */\n      dup6\n        /* \"#utility.yul\":8365:8387   */\n      add\n        /* \"#utility.yul\":8344:8397   */\n      tag_194\n      jump\t// in\n    tag_309:\n        /* \"#utility.yul\":8334:8397   */\n      swap2\n      pop\n        /* \"#utility.yul\":8290:8407   */\n      pop\n        /* \"#utility.yul\":8085:8414   */\n      swap3\n      swap2\n      pop\n      pop\n      jump\t// out\n        /* \"#utility.yul\":8420:8589   */\n    tag_202:\n        /* \"#utility.yul\":8504:8515   */\n      0x00\n        /* \"#utility.yul\":8538:8544   */\n      dup3\n        /* \"#utility.yul\":8533:8536   */\n      dup3\n        /* \"#utility.yul\":8526:8545   */\n      mstore\n        /* \"#utility.yul\":8578:8582   */\n      0x20\n        /* \"#utility.yul\":8573:8576   */\n      dup3\n        /* \"#utility.yul\":8569:8583   */\n      add\n        /* \"#utility.yul\":8554:8583   */\n      swap1\n      pop\n        /* \"#utility.yul\":8420:8589   */\n      swap3\n      swap2\n      pop\n      pop\n      jump\t// out\n        /* \"#utility.yul\":8595:8761   */\n    tag_203:\n        /* \"#utility.yul\":8735:8753   */\n      0x47616d6520496e697469616c697a656400000000000000000000000000000000\n        /* \"#utility.yul\":8731:8732   */\n      0x00\n        /* \"#utility.yul\":8723:8729   */\n      dup3\n        /* \"#utility.yul\":8719:8733   */\n      add\n        /* \"#utility.yul\":8712:8754   */\n      mstore\n        /* \"#utility.yul\":8595:8761   */\n      pop\n      jump\t// out\n        /* \"#utility.yul\":8767:9133   */\n    tag_204:\n        /* \"#utility.yul\":8909:8912   */\n      0x00\n        /* \"#utility.yul\":8930:8997   */\n      tag_313\n        /* \"#utility.yul\":8994:8996   */\n      0x10\n        /* \"#utility.yul\":8989:8992   */\n      dup4\n        /* \"#utility.yul\":8930:8997   */\n      tag_202\n      jump\t// in\n    tag_313:\n        /* \"#utility.yul\":8923:8997   */\n      swap2\n      pop\n        /* \"#utility.yul\":9006:9099   */\n      tag_314\n        /* \"#utility.yul\":9095:9098   */\n      dup3\n        /* \"#utility.yul\":9006:9099   */\n      tag_203\n      jump\t// in\n    tag_314:\n        /* \"#utility.yul\":9124:9126   */\n      0x20\n        /* \"#utility.yul\":9119:9122   */\n      dup3\n        /* \"#utility.yul\":9115:9127   */\n      add\n        /* \"#utility.yul\":9108:9127   */\n      swap1\n      pop\n        /* \"#utility.yul\":8767:9133   */\n      swap2\n      swap1\n      pop\n      jump\t// out\n        /* \"#utility.yul\":9139:9558   */\n    tag_87:\n        /* \"#utility.yul\":9305:9309   */\n      0x00\n        /* \"#utility.yul\":9343:9345   */\n      0x20\n        /* \"#utility.yul\":9332:9341   */\n      dup3\n        /* \"#utility.yul\":9328:9346   */\n      add\n        /* \"#utility.yul\":9320:9346   */\n      swap1\n      pop\n        /* \"#utility.yul\":9392:9401   */\n      dup2\n        /* \"#utility.yul\":9386:9390   */\n      dup2\n        /* \"#utility.yul\":9382:9402   */\n      sub\n        /* \"#utility.yul\":9378:9379   */\n      0x00\n        /* \"#utility.yul\":9367:9376   */\n      dup4\n        /* \"#utility.yul\":9363:9380   */\n      add\n        /* \"#utility.yul\":9356:9403   */\n      mstore\n        /* \"#utility.yul\":9420:9551   */\n      tag_316\n        /* \"#utility.yul\":9546:9550   */\n      dup2\n        /* \"#utility.yul\":9420:9551   */\n      tag_204\n      jump\t// in\n    tag_316:\n        /* \"#utility.yul\":9412:9551   */\n      swap1\n      pop\n        /* \"#utility.yul\":9139:9558   */\n      swap2\n      swap1\n      pop\n      jump\t// out\n        /* \"#utility.yul\":9564:9722   */\n    tag_205:\n        /* \"#utility.yul\":9704:9714   */\n      0x46696e6973686564000000000000000000000000000000000000000000000000\n        /* \"#utility.yul\":9700:9701   */\n      0x00\n        /* \"#utility.yul\":9692:9698   */\n      dup3\n        /* \"#utility.yul\":9688:9702   */\n      add\n        /* \"#utility.yul\":9681:9715   */\n      mstore\n        /* \"#utility.yul\":9564:9722   */\n      pop\n      jump\t// out\n        /* \"#utility.yul\":9728:10093   */\n    tag_206:\n        /* \"#utility.yul\":9870:9873   */\n      0x00\n        /* \"#utility.yul\":9891:9957   */\n      tag_319\n        /* \"#utility.yul\":9955:9956   */\n      0x08\n        /* \"#utility.yul\":9950:9953   */\n      dup4\n        /* \"#utility.yul\":9891:9957   */\n      tag_202\n      jump\t// in\n    tag_319:\n        /* \"#utility.yul\":9884:9957   */\n      swap2\n      pop\n        /* \"#utility.yul\":9966:10059   */\n      tag_320\n        /* \"#utility.yul\":10055:10058   */\n      dup3\n        /* \"#utility.yul\":9966:10059   */\n      tag_205\n      jump\t// in\n    tag_320:\n        /* \"#utility.yul\":10084:10086   */\n      0x20\n        /* \"#utility.yul\":10079:10082   */\n      dup3\n        /* \"#utility.yul\":10075:10087   */\n      add\n        /* \"#utility.yul\":10068:10087   */\n      swap1\n      pop\n        /* \"#utility.yul\":9728:10093   */\n      swap2\n      swap1\n      pop\n      jump\t// out\n        /* \"#utility.yul\":10099:10518   */\n    tag_98:\n        /* \"#utility.yul\":10265:10269   */\n      0x00\n        /* \"#utility.yul\":10303:10305   */\n      0x20\n        /* \"#utility.yul\":10292:10301   */\n      dup3\n        /* \"#utility.yul\":10288:10306   */\n      add\n        /* \"#utility.yul\":10280:10306   */\n      swap1\n      pop\n        /* \"#utility.yul\":10352:10361   */\n      dup2\n        /* \"#utility.yul\":10346:10350   */\n      dup2\n        /* \"#utility.yul\":10342:10362   */\n      sub\n        /* \"#utility.yul\":10338:10339   */\n      0x00\n        /* \"#utility.yul\":10327:10336   */\n      dup4\n        /* \"#utility.yul\":10323:10340   */\n      add\n        /* \"#utility.yul\":10316:10363   */\n      mstore\n        /* \"#utility.yul\":10380:10511   */\n      tag_322\n        /* \"#utility.yul\":10506:10510   */\n      dup2\n        /* \"#utility.yul\":10380:10511   */\n      tag_206\n      jump\t// in\n    tag_322:\n        /* \"#utility.yul\":10372:10511   */\n      swap1\n      pop\n        /* \"#utility.yul\":10099:10518   */\n      swap2\n      swap1\n      pop\n      jump\t// out\n        /* \"#utility.yul\":10524:10856   */\n    tag_100:\n        /* \"#utility.yul\":10645:10649   */\n      0x00\n        /* \"#utility.yul\":10683:10685   */\n      0x40\n        /* \"#utility.yul\":10672:10681   */\n      dup3\n        /* \"#utility.yul\":10668:10686   */\n      add\n        /* \"#utility.yul\":10660:10686   */\n      swap1\n      pop\n        /* \"#utility.yul\":10696:10767   */\n      tag_324\n        /* \"#utility.yul\":10764:10765   */\n      0x00\n        /* \"#utility.yul\":10753:10762   */\n      dup4\n        /* \"#utility.yul\":10749:10766   */\n      add\n        /* \"#utility.yul\":10740:10746   */\n      dup6\n        /* \"#utility.yul\":10696:10767   */\n      tag_185\n      jump\t// in\n    tag_324:\n        /* \"#utility.yul\":10777:10849   */\n      tag_325\n        /* \"#utility.yul\":10845:10847   */\n      0x20\n        /* \"#utility.yul\":10834:10843   */\n      dup4\n        /* \"#utility.yul\":10830:10848   */\n      add\n        /* \"#utility.yul\":10821:10827   */\n      dup5\n        /* \"#utility.yul\":10777:10849   */\n      tag_182\n      jump\t// in\n    tag_325:\n        /* \"#utility.yul\":10524:10856   */\n      swap4\n      swap3\n      pop\n      pop\n      pop\n      jump\t// out\n        /* \"#utility.yul\":10862:10978   */\n    tag_207:\n        /* \"#utility.yul\":10932:10953   */\n      tag_327\n        /* \"#utility.yul\":10947:10952   */\n      dup2\n        /* \"#utility.yul\":10932:10953   */\n      tag_180\n      jump\t// in\n    tag_327:\n        /* \"#utility.yul\":10925:10930   */\n      dup2\n        /* \"#utility.yul\":10922:10954   */\n      eq\n        /* \"#utility.yul\":10912:10972   */\n      tag_328\n      jumpi\n        /* \"#utility.yul\":10968:10969   */\n      0x00\n        /* \"#utility.yul\":10965:10966   */\n      dup1\n        /* \"#utility.yul\":10958:10970   */\n      revert\n        /* \"#utility.yul\":10912:10972   */\n    tag_328:\n        /* \"#utility.yul\":10862:10978   */\n      pop\n      jump\t// out\n        /* \"#utility.yul\":10984:11121   */\n    tag_208:\n        /* \"#utility.yul\":11038:11043   */\n      0x00\n        /* \"#utility.yul\":11069:11075   */\n      dup2\n        /* \"#utility.yul\":11063:11076   */\n      mload\n        /* \"#utility.yul\":11054:11076   */\n      swap1\n      pop\n        /* \"#utility.yul\":11085:11115   */\n      tag_330\n        /* \"#utility.yul\":11109:11114   */\n      dup2\n        /* \"#utility.yul\":11085:11115   */\n      tag_207\n      jump\t// in\n    tag_330:\n        /* \"#utility.yul\":10984:11121   */\n      swap3\n      swap2\n      pop\n      pop\n      jump\t// out\n        /* \"#utility.yul\":11127:11472   */\n    tag_104:\n        /* \"#utility.yul\":11194:11200   */\n      0x00\n        /* \"#utility.yul\":11243:11245   */\n      0x20\n        /* \"#utility.yul\":11231:11240   */\n      dup3\n        /* \"#utility.yul\":11222:11229   */\n      dup5\n        /* \"#utility.yul\":11218:11241   */\n      sub\n        /* \"#utility.yul\":11214:11246   */\n      slt\n        /* \"#utility.yul\":11211:11330   */\n      iszero\n      tag_332\n      jumpi\n        /* \"#utility.yul\":11249:11328   */\n      tag_333\n      tag_175\n      jump\t// in\n    tag_333:\n        /* \"#utility.yul\":11211:11330   */\n    tag_332:\n        /* \"#utility.yul\":11369:11370   */\n      0x00\n        /* \"#utility.yul\":11394:11455   */\n      tag_334\n        /* \"#utility.yul\":11447:11454   */\n      dup5\n        /* \"#utility.yul\":11438:11444   */\n      dup3\n        /* \"#utility.yul\":11427:11436   */\n      dup6\n        /* \"#utility.yul\":11423:11445   */\n      add\n        /* \"#utility.yul\":11394:11455   */\n      tag_208\n      jump\t// in\n    tag_334:\n        /* \"#utility.yul\":11384:11455   */\n      swap2\n      pop\n        /* \"#utility.yul\":11340:11465   */\n      pop\n        /* \"#utility.yul\":11127:11472   */\n      swap3\n      swap2\n      pop\n      pop\n      jump\t// out\n        /* \"#utility.yul\":11478:11649   */\n    tag_209:\n        /* \"#utility.yul\":11618:11641   */\n      0x5265776172642073686f756c6420737563636573730000000000000000000000\n        /* \"#utility.yul\":11614:11615   */\n      0x00\n        /* \"#utility.yul\":11606:11612   */\n      dup3\n        /* \"#utility.yul\":11602:11616   */\n      add\n        /* \"#utility.yul\":11595:11642   */\n      mstore\n        /* \"#utility.yul\":11478:11649   */\n      pop\n      jump\t// out\n        /* \"#utility.yul\":11655:12021   */\n    tag_210:\n        /* \"#utility.yul\":11797:11800   */\n      0x00\n        /* \"#utility.yul\":11818:11885   */\n      tag_337\n        /* \"#utility.yul\":11882:11884   */\n      0x15\n        /* \"#utility.yul\":11877:11880   */\n      dup4\n        /* \"#utility.yul\":11818:11885   */\n      tag_202\n      jump\t// in\n    tag_337:\n        /* \"#utility.yul\":11811:11885   */\n      swap2\n      pop\n        /* \"#utility.yul\":11894:11987   */\n      tag_338\n        /* \"#utility.yul\":11983:11986   */\n      dup3\n        /* \"#utility.yul\":11894:11987   */\n      tag_209\n      jump\t// in\n    tag_338:\n        /* \"#utility.yul\":12012:12014   */\n      0x20\n        /* \"#utility.yul\":12007:12010   */\n      dup3\n        /* \"#utility.yul\":12003:12015   */\n      add\n        /* \"#utility.yul\":11996:12015   */\n      swap1\n      pop\n        /* \"#utility.yul\":11655:12021   */\n      swap2\n      swap1\n      pop\n      jump\t// out\n        /* \"#utility.yul\":12027:12446   */\n    tag_107:\n        /* \"#utility.yul\":12193:12197   */\n      0x00\n        /* \"#utility.yul\":12231:12233   */\n      0x20\n        /* \"#utility.yul\":12220:12229   */\n      dup3\n        /* \"#utility.yul\":12216:12234   */\n      add\n        /* \"#utility.yul\":12208:12234   */\n      swap1\n      pop\n        /* \"#utility.yul\":12280:12289   */\n      dup2\n        /* \"#utility.yul\":12274:12278   */\n      dup2\n        /* \"#utility.yul\":12270:12290   */\n      sub\n        /* \"#utility.yul\":12266:12267   */\n      0x00\n        /* \"#utility.yul\":12255:12264   */\n      dup4\n        /* \"#utility.yul\":12251:12268   */\n      add\n        /* \"#utility.yul\":12244:12291   */\n      mstore\n        /* \"#utility.yul\":12308:12439   */\n      tag_340\n        /* \"#utility.yul\":12434:12438   */\n      dup2\n        /* \"#utility.yul\":12308:12439   */\n      tag_210\n      jump\t// in\n    tag_340:\n        /* \"#utility.yul\":12300:12439   */\n      swap1\n      pop\n        /* \"#utility.yul\":12027:12446   */\n      swap2\n      swap1\n      pop\n      jump\t// out\n        /* \"#utility.yul\":12452:12595   */\n    tag_211:\n        /* \"#utility.yul\":12509:12514   */\n      0x00\n        /* \"#utility.yul\":12540:12546   */\n      dup2\n        /* \"#utility.yul\":12534:12547   */\n      mload\n        /* \"#utility.yul\":12525:12547   */\n      swap1\n      pop\n        /* \"#utility.yul\":12556:12589   */\n      tag_342\n        /* \"#utility.yul\":12583:12588   */\n      dup2\n        /* \"#utility.yul\":12556:12589   */\n      tag_178\n      jump\t// in\n    tag_342:\n        /* \"#utility.yul\":12452:12595   */\n      swap3\n      swap2\n      pop\n      pop\n      jump\t// out\n        /* \"#utility.yul\":12601:12952   */\n    tag_120:\n        /* \"#utility.yul\":12671:12677   */\n      0x00\n        /* \"#utility.yul\":12720:12722   */\n      0x20\n        /* \"#utility.yul\":12708:12717   */\n      dup3\n        /* \"#utility.yul\":12699:12706   */\n      dup5\n        /* \"#utility.yul\":12695:12718   */\n      sub\n        /* \"#utility.yul\":12691:12723   */\n      slt\n        /* \"#utility.yul\":12688:12807   */\n      iszero\n      tag_344\n      jumpi\n        /* \"#utility.yul\":12726:12805   */\n      tag_345\n      tag_175\n      jump\t// in\n    tag_345:\n        /* \"#utility.yul\":12688:12807   */\n    tag_344:\n        /* \"#utility.yul\":12846:12847   */\n      0x00\n        /* \"#utility.yul\":12871:12935   */\n      tag_346\n        /* \"#utility.yul\":12927:12934   */\n      dup5\n        /* \"#utility.yul\":12918:12924   */\n      dup3\n        /* \"#utility.yul\":12907:12916   */\n      dup6\n        /* \"#utility.yul\":12903:12925   */\n      add\n        /* \"#utility.yul\":12871:12935   */\n      tag_211\n      jump\t// in\n    tag_346:\n        /* \"#utility.yul\":12861:12935   */\n      swap2\n      pop\n        /* \"#utility.yul\":12817:12945   */\n      pop\n        /* \"#utility.yul\":12601:12952   */\n      swap3\n      swap2\n      pop\n      pop\n      jump\t// out\n        /* \"#utility.yul\":12958:13122   */\n    tag_212:\n        /* \"#utility.yul\":13098:13114   */\n      0x456e6f7567682062616c616e6365000000000000000000000000000000000000\n        /* \"#utility.yul\":13094:13095   */\n      0x00\n        /* \"#utility.yul\":13086:13092   */\n      dup3\n        /* \"#utility.yul\":13082:13096   */\n      add\n        /* \"#utility.yul\":13075:13115   */\n      mstore\n        /* \"#utility.yul\":12958:13122   */\n      pop\n      jump\t// out\n        /* \"#utility.yul\":13128:13494   */\n    tag_213:\n        /* \"#utility.yul\":13270:13273   */\n      0x00\n        /* \"#utility.yul\":13291:13358   */\n      tag_349\n        /* \"#utility.yul\":13355:13357   */\n      0x0e\n        /* \"#utility.yul\":13350:13353   */\n      dup4\n        /* \"#utility.yul\":13291:13358   */\n      tag_202\n      jump\t// in\n    tag_349:\n        /* \"#utility.yul\":13284:13358   */\n      swap2\n      pop\n        /* \"#utility.yul\":13367:13460   */\n      tag_350\n        /* \"#utility.yul\":13456:13459   */\n      dup3\n        /* \"#utility.yul\":13367:13460   */\n      tag_212\n      jump\t// in\n    tag_350:\n        /* \"#utility.yul\":13485:13487   */\n      0x20\n        /* \"#utility.yul\":13480:13483   */\n      dup3\n        /* \"#utility.yul\":13476:13488   */\n      add\n        /* \"#utility.yul\":13469:13488   */\n      swap1\n      pop\n        /* \"#utility.yul\":13128:13494   */\n      swap2\n      swap1\n      pop\n      jump\t// out\n        /* \"#utility.yul\":13500:13919   */\n    tag_123:\n        /* \"#utility.yul\":13666:13670   */\n      0x00\n        /* \"#utility.yul\":13704:13706   */\n      0x20\n        /* \"#utility.yul\":13693:13702   */\n      dup3\n        /* \"#utility.yul\":13689:13707   */\n      add\n        /* \"#utility.yul\":13681:13707   */\n      swap1\n      pop\n        /* \"#utility.yul\":13753:13762   */\n      dup2\n        /* \"#utility.yul\":13747:13751   */\n      dup2\n        /* \"#utility.yul\":13743:13763   */\n      sub\n        /* \"#utility.yul\":13739:13740   */\n      0x00\n        /* \"#utility.yul\":13728:13737   */\n      dup4\n        /* \"#utility.yul\":13724:13741   */\n      add\n        /* \"#utility.yul\":13717:13764   */\n      mstore\n        /* \"#utility.yul\":13781:13912   */\n      tag_352\n        /* \"#utility.yul\":13907:13911   */\n      dup2\n        /* \"#utility.yul\":13781:13912   */\n      tag_213\n      jump\t// in\n    tag_352:\n        /* \"#utility.yul\":13773:13912   */\n      swap1\n      pop\n        /* \"#utility.yul\":13500:13919   */\n      swap2\n      swap1\n      pop\n      jump\t// out\n        /* \"#utility.yul\":13925:14367   */\n    tag_125:\n        /* \"#utility.yul\":14074:14078   */\n      0x00\n        /* \"#utility.yul\":14112:14114   */\n      0x60\n        /* \"#utility.yul\":14101:14110   */\n      dup3\n        /* \"#utility.yul\":14097:14115   */\n      add\n        /* \"#utility.yul\":14089:14115   */\n      swap1\n      pop\n        /* \"#utility.yul\":14125:14196   */\n      tag_354\n        /* \"#utility.yul\":14193:14194   */\n      0x00\n        /* \"#utility.yul\":14182:14191   */\n      dup4\n        /* \"#utility.yul\":14178:14195   */\n      add\n        /* \"#utility.yul\":14169:14175   */\n      dup7\n        /* \"#utility.yul\":14125:14196   */\n      tag_185\n      jump\t// in\n    tag_354:\n        /* \"#utility.yul\":14206:14278   */\n      tag_355\n        /* \"#utility.yul\":14274:14276   */\n      0x20\n        /* \"#utility.yul\":14263:14272   */\n      dup4\n        /* \"#utility.yul\":14259:14277   */\n      add\n        /* \"#utility.yul\":14250:14256   */\n      dup6\n        /* \"#utility.yul\":14206:14278   */\n      tag_185\n      jump\t// in\n    tag_355:\n        /* \"#utility.yul\":14288:14360   */\n      tag_356\n        /* \"#utility.yul\":14356:14358   */\n      0x40\n        /* \"#utility.yul\":14345:14354   */\n      dup4\n        /* \"#utility.yul\":14341:14359   */\n      add\n        /* \"#utility.yul\":14332:14338   */\n      dup5\n        /* \"#utility.yul\":14288:14360   */\n      tag_182\n      jump\t// in\n    tag_356:\n        /* \"#utility.yul\":13925:14367   */\n      swap5\n      swap4\n      pop\n      pop\n      pop\n      pop\n      jump\t// out\n        /* \"#utility.yul\":14373:14546   */\n    tag_214:\n        /* \"#utility.yul\":14513:14538   */\n      0x5472616e736665722073686f756c642073756363657373000000000000000000\n        /* \"#utility.yul\":14509:14510   */\n      0x00\n        /* \"#utility.yul\":14501:14507   */\n      dup3\n        /* \"#utility.yul\":14497:14511   */\n      add\n        /* \"#utility.yul\":14490:14539   */\n      mstore\n        /* \"#utility.yul\":14373:14546   */\n      pop\n      jump\t// out\n        /* \"#utility.yul\":14552:14918   */\n    tag_215:\n        /* \"#utility.yul\":14694:14697   */\n      0x00\n        /* \"#utility.yul\":14715:14782   */\n      tag_359\n        /* \"#utility.yul\":14779:14781   */\n      0x17\n        /* \"#utility.yul\":14774:14777   */\n      dup4\n        /* \"#utility.yul\":14715:14782   */\n      tag_202\n      jump\t// in\n    tag_359:\n        /* \"#utility.yul\":14708:14782   */\n      swap2\n      pop\n        /* \"#utility.yul\":14791:14884   */\n      tag_360\n        /* \"#utility.yul\":14880:14883   */\n      dup3\n        /* \"#utility.yul\":14791:14884   */\n      tag_214\n      jump\t// in\n    tag_360:\n        /* \"#utility.yul\":14909:14911   */\n      0x20\n        /* \"#utility.yul\":14904:14907   */\n      dup3\n        /* \"#utility.yul\":14900:14912   */\n      add\n        /* \"#utility.yul\":14893:14912   */\n      swap1\n      pop\n        /* \"#utility.yul\":14552:14918   */\n      swap2\n      swap1\n      pop\n      jump\t// out\n        /* \"#utility.yul\":14924:15343   */\n    tag_131:\n        /* \"#utility.yul\":15090:15094   */\n      0x00\n        /* \"#utility.yul\":15128:15130   */\n      0x20\n        /* \"#utility.yul\":15117:15126   */\n      dup3\n        /* \"#utility.yul\":15113:15131   */\n      add\n        /* \"#utility.yul\":15105:15131   */\n      swap1\n      pop\n        /* \"#utility.yul\":15177:15186   */\n      dup2\n        /* \"#utility.yul\":15171:15175   */\n      dup2\n        /* \"#utility.yul\":15167:15187   */\n      sub\n        /* \"#utility.yul\":15163:15164   */\n      0x00\n        /* \"#utility.yul\":15152:15161   */\n      dup4\n        /* \"#utility.yul\":15148:15165   */\n      add\n        /* \"#utility.yul\":15141:15188   */\n      mstore\n        /* \"#utility.yul\":15205:15336   */\n      tag_362\n        /* \"#utility.yul\":15331:15335   */\n      dup2\n        /* \"#utility.yul\":15205:15336   */\n      tag_215\n      jump\t// in\n    tag_362:\n        /* \"#utility.yul\":15197:15336   */\n      swap1\n      pop\n        /* \"#utility.yul\":14924:15343   */\n      swap2\n      swap1\n      pop\n      jump\t// out\n        /* \"#utility.yul\":15349:15529   */\n    tag_216:\n        /* \"#utility.yul\":15397:15474   */\n      0x4e487b7100000000000000000000000000000000000000000000000000000000\n        /* \"#utility.yul\":15394:15395   */\n      0x00\n        /* \"#utility.yul\":15387:15475   */\n      mstore\n        /* \"#utility.yul\":15494:15498   */\n      0x11\n        /* \"#utility.yul\":15491:15492   */\n      0x04\n        /* \"#utility.yul\":15484:15499   */\n      mstore\n        /* \"#utility.yul\":15518:15522   */\n      0x24\n        /* \"#utility.yul\":15515:15516   */\n      0x00\n        /* \"#utility.yul\":15508:15523   */\n      revert\n        /* \"#utility.yul\":15535:15726   */\n    tag_135:\n        /* \"#utility.yul\":15575:15578   */\n      0x00\n        /* \"#utility.yul\":15594:15614   */\n      tag_365\n        /* \"#utility.yul\":15612:15613   */\n      dup3\n        /* \"#utility.yul\":15594:15614   */\n      tag_177\n      jump\t// in\n    tag_365:\n        /* \"#utility.yul\":15589:15614   */\n      swap2\n      pop\n        /* \"#utility.yul\":15628:15648   */\n      tag_366\n        /* \"#utility.yul\":15646:15647   */\n      dup4\n        /* \"#utility.yul\":15628:15648   */\n      tag_177\n      jump\t// in\n    tag_366:\n        /* \"#utility.yul\":15623:15648   */\n      swap3\n      pop\n        /* \"#utility.yul\":15671:15672   */\n      dup3\n        /* \"#utility.yul\":15668:15669   */\n      dup3\n        /* \"#utility.yul\":15664:15673   */\n      add\n        /* \"#utility.yul\":15657:15673   */\n      swap1\n      pop\n        /* \"#utility.yul\":15692:15695   */\n      dup1\n        /* \"#utility.yul\":15689:15690   */\n      dup3\n        /* \"#utility.yul\":15686:15696   */\n      gt\n        /* \"#utility.yul\":15683:15719   */\n      iszero\n      tag_367\n      jumpi\n        /* \"#utility.yul\":15699:15717   */\n      tag_368\n      tag_216\n      jump\t// in\n    tag_368:\n        /* \"#utility.yul\":15683:15719   */\n    tag_367:\n        /* \"#utility.yul\":15535:15726   */\n      swap3\n      swap2\n      pop\n      pop\n      jump\t// out\n        /* \"#utility.yul\":15732:15893   */\n    tag_217:\n        /* \"#utility.yul\":15872:15885   */\n      0x47616d6520657869737473000000000000000000000000000000000000000000\n        /* \"#utility.yul\":15868:15869   */\n      0x00\n        /* \"#utility.yul\":15860:15866   */\n      dup3\n        /* \"#utility.yul\":15856:15870   */\n      add\n        /* \"#utility.yul\":15849:15886   */\n      mstore\n        /* \"#utility.yul\":15732:15893   */\n      pop\n      jump\t// out\n        /* \"#utility.yul\":15899:16265   */\n    tag_218:\n        /* \"#utility.yul\":16041:16044   */\n      0x00\n        /* \"#utility.yul\":16062:16129   */\n      tag_371\n        /* \"#utility.yul\":16126:16128   */\n      0x0b\n        /* \"#utility.yul\":16121:16124   */\n      dup4\n        /* \"#utility.yul\":16062:16129   */\n      tag_202\n      jump\t// in\n    tag_371:\n        /* \"#utility.yul\":16055:16129   */\n      swap2\n      pop\n        /* \"#utility.yul\":16138:16231   */\n      tag_372\n        /* \"#utility.yul\":16227:16230   */\n      dup3\n        /* \"#utility.yul\":16138:16231   */\n      tag_217\n      jump\t// in\n    tag_372:\n        /* \"#utility.yul\":16256:16258   */\n      0x20\n        /* \"#utility.yul\":16251:16254   */\n      dup3\n        /* \"#utility.yul\":16247:16259   */\n      add\n        /* \"#utility.yul\":16240:16259   */\n      swap1\n      pop\n        /* \"#utility.yul\":15899:16265   */\n      swap2\n      swap1\n      pop\n      jump\t// out\n        /* \"#utility.yul\":16271:16690   */\n    tag_154:\n        /* \"#utility.yul\":16437:16441   */\n      0x00\n        /* \"#utility.yul\":16475:16477   */\n      0x20\n        /* \"#utility.yul\":16464:16473   */\n      dup3\n        /* \"#utility.yul\":16460:16478   */\n      add\n        /* \"#utility.yul\":16452:16478   */\n      swap1\n      pop\n        /* \"#utility.yul\":16524:16533   */\n      dup2\n        /* \"#utility.yul\":16518:16522   */\n      dup2\n        /* \"#utility.yul\":16514:16534   */\n      sub\n        /* \"#utility.yul\":16510:16511   */\n      0x00\n        /* \"#utility.yul\":16499:16508   */\n      dup4\n        /* \"#utility.yul\":16495:16512   */\n      add\n        /* \"#utility.yul\":16488:16535   */\n      mstore\n        /* \"#utility.yul\":16552:16683   */\n      tag_374\n        /* \"#utility.yul\":16678:16682   */\n      dup2\n        /* \"#utility.yul\":16552:16683   */\n      tag_218\n      jump\t// in\n    tag_374:\n        /* \"#utility.yul\":16544:16683   */\n      swap1\n      pop\n        /* \"#utility.yul\":16271:16690   */\n      swap2\n      swap1\n      pop\n      jump\t// out\n\n    auxdata: 0xa2646970667358221220a77d9415cbb3aefeb23b426fc4c376dbf41ab552c2098c85917b0fac4ac3bf6464736f6c63430008120033\n}\n",
				"bytecode": {
					"linkReferences": {},
					"object": "6080604052600a6004553480156200001657600080fd5b5060405162001b4838038062001b4883398181016040528101906200003c9190620001f9565b80600073ffffffffffffffffffffffffffffffffffffffff168173ffffffffffffffffffffffffffffffffffffffff1603620000b25760006040517f1e4fbdf7000000000000000000000000000000000000000000000000000000008152600401620000a991906200023c565b60405180910390fd5b620000c381620000cb60201b60201c565b505062000259565b60008060009054906101000a900473ffffffffffffffffffffffffffffffffffffffff169050816000806101000a81548173ffffffffffffffffffffffffffffffffffffffff021916908373ffffffffffffffffffffffffffffffffffffffff1602179055508173ffffffffffffffffffffffffffffffffffffffff168173ffffffffffffffffffffffffffffffffffffffff167f8be0079c531659141344cd1fd0a4f28419497f9722a3daafe3b4186f6b6457e060405160405180910390a35050565b600080fd5b600073ffffffffffffffffffffffffffffffffffffffff82169050919050565b6000620001c18262000194565b9050919050565b620001d381620001b4565b8114620001df57600080fd5b50565b600081519050620001f381620001c8565b92915050565b6000602082840312156200021257620002116200018f565b5b60006200022284828501620001e2565b91505092915050565b6200023681620001b4565b82525050565b60006020820190506200025360008301846200022b565b92915050565b6118df80620002696000396000f3fe608060405234801561001057600080fd5b50600436106100f55760003560e01c80637fd6f15c11610097578063d82c13f011610066578063d82c13f01461029e578063e5ed1d59146102ce578063ee9b80a4146102fe578063f2fde38b1461032e576100f5565b80637fd6f15c146102145780638da5cb5b146102325780639bc01b3614610250578063ce33bd741461026e576100f5565b806334fcc3e7116100d357806334fcc3e71461018c57806355a373d6146101bc5780636ffcc719146101da578063715018a61461020a576100f5565b8063117a5b90146100fa57806316b169c41461012c5780632c32b1871461015c575b600080fd5b610114600480360381019061010f91906110f9565b61034a565b60405161012393929190611191565b60405180910390f35b610146600480360381019061014191906110f9565b6103a1565b6040516101539190611286565b60405180910390f35b610176600480360381019061017191906112d4565b6104a8565b6040516101839190611314565b60405180910390f35b6101a660048036038101906101a191906112d4565b610723565b6040516101b39190611314565b60405180910390f35b6101c46107e4565b6040516101d1919061132f565b60405180910390f35b6101f460048036038101906101ef919061134a565b61080a565b604051610201919061138a565b60405180910390f35b610212610c47565b005b61021c610c5b565b6040516102299190611314565b60405180910390f35b61023a610c61565b604051610247919061132f565b60405180910390f35b610258610c8a565b6040516102659190611463565b60405180910390f35b610288600480360381019061028391906110f9565b610ce2565b6040516102959190611314565b60405180910390f35b6102b860048036038101906102b391906110f9565b610da2565b6040516102c59190611314565b60405180910390f35b6102e860048036038101906102e391906110f9565b610dc6565b6040516102f5919061138a565b60405180910390f35b61031860048036038101906103139190611485565b610e91565b604051610325919061138a565b60405180910390f35b61034860048036038101906103439190611485565b610ee5565b005b60016020528060005260406000206000915090508060000160009054906101000a900460ff16908060020154908060040160009054906101000a900473ffffffffffffffffffffffffffffffffffffffff16905083565b60606001600083815260200190815260200160002060000160009054906101000a900460ff16610406576040517f08c379a00000000000000000000000000000000000000000000000000000000081526004016103fd9061150f565b60405180910390fd5b6001600083815260200190815260200160002060030180548060200260200160405190810160405280929190818152602001828054801561049c57602002820191906000526020600020905b8160009054906101000a900473ffffffffffffffffffffffffffffffffffffffff1673ffffffffffffffffffffffffffffffffffffffff1681526020019060010190808311610452575b50505050509050919050565b60006104b2610f6b565b6001600084815260200190815260200160002060000160009054906101000a900460ff16610515576040517f08c379a000000000000000000000000000000000000000000000000000000000815260040161050c9061150f565b60405180910390fd5b600073ffffffffffffffffffffffffffffffffffffffff166001600085815260200190815260200160002060040160009054906101000a900473ffffffffffffffffffffffffffffffffffffffff1673ffffffffffffffffffffffffffffffffffffffff16146105ba576040517f08c379a00000000000000000000000000000000000000000000000000000000081526004016105b19061157b565b60405180910390fd5b816001600085815260200190815260200160002060040160006101000a81548173ffffffffffffffffffffffffffffffffffffffff021916908373ffffffffffffffffffffffffffffffffffffffff160217905550600360009054906101000a900473ffffffffffffffffffffffffffffffffffffffff1673ffffffffffffffffffffffffffffffffffffffff1663a9059cbb8360016000878152602001908152602001600020600201546040518363ffffffff1660e01b815260040161068292919061159b565b6020604051808303816000875af11580156106a1573d6000803e3d6000fd5b505050506040513d601f19601f820116820180604052508101906106c591906115f0565b610704576040517f08c379a00000000000000000000000000000000000000000000000000000000081526004016106fb90611669565b60405180910390fd5b6001600084815260200190815260200160002060020154905092915050565b60006001600084815260200190815260200160002060000160009054906101000a900460ff16610788576040517f08c379a000000000000000000000000000000000000000000000000000000000815260040161077f9061150f565b60405180910390fd5b6001600084815260200190815260200160002060010160008373ffffffffffffffffffffffffffffffffffffffff1673ffffffffffffffffffffffffffffffffffffffff16815260200190815260200160002054905092915050565b600360009054906101000a900473ffffffffffffffffffffffffffffffffffffffff1681565b60006001600084815260200190815260200160002060000160009054906101000a900460ff1661086f576040517f08c379a00000000000000000000000000000000000000000000000000000000081526004016108669061150f565b60405180910390fd5b600073ffffffffffffffffffffffffffffffffffffffff166001600085815260200190815260200160002060040160009054906101000a900473ffffffffffffffffffffffffffffffffffffffff1673ffffffffffffffffffffffffffffffffffffffff1614610914576040517f08c379a000000000000000000000000000000000000000000000000000000000815260040161090b9061157b565b60405180910390fd5b81600360009054906101000a900473ffffffffffffffffffffffffffffffffffffffff1673ffffffffffffffffffffffffffffffffffffffff166370a08231336040518263ffffffff1660e01b8152600401610970919061132f565b602060405180830381865afa15801561098d573d6000803e3d6000fd5b505050506040513d601f19601f820116820180604052508101906109b1919061169e565b10156109f2576040517f08c379a00000000000000000000000000000000000000000000000000000000081526004016109e990611717565b60405180910390fd5b600360009054906101000a900473ffffffffffffffffffffffffffffffffffffffff1673ffffffffffffffffffffffffffffffffffffffff166323b872dd3330856040518463ffffffff1660e01b8152600401610a5193929190611737565b6020604051808303816000875af1158015610a70573d6000803e3d6000fd5b505050506040513d601f19601f82011682018060405250810190610a9491906115f0565b610ad3576040517f08c379a0000000000000000000000000000000000000000000000000000000008152600401610aca906117ba565b60405180910390fd5b60006001600085815260200190815260200160002060010160003373ffffffffffffffffffffffffffffffffffffffff1673ffffffffffffffffffffffffffffffffffffffff1681526020019081526020016000205403610ba65760016000848152602001908152602001600020600301339080600181540180825580915050600190039060005260206000200160009091909190916101000a81548173ffffffffffffffffffffffffffffffffffffffff021916908373ffffffffffffffffffffffffffffffffffffffff1602179055505b816001600085815260200190815260200160002060010160003373ffffffffffffffffffffffffffffffffffffffff1673ffffffffffffffffffffffffffffffffffffffff1681526020019081526020016000206000828254610c099190611809565b9250508190555081600160008581526020019081526020016000206002016000828254610c369190611809565b925050819055506001905092915050565b610c4f610f6b565b610c596000610ff2565b565b60045481565b60008060009054906101000a900473ffffffffffffffffffffffffffffffffffffffff16905090565b60606002805480602002602001604051908101604052809291908181526020018280548015610cd857602002820191906000526020600020905b815481526020019060010190808311610cc4575b5050505050905090565b60006001600083815260200190815260200160002060000160009054906101000a900460ff16610d47576040517f08c379a0000000000000000000000000000000000000000000000000000000008152600401610d3e9061150f565b60405180910390fd5b6001600083815260200190815260200160002060010160003373ffffffffffffffffffffffffffffffffffffffff1673ffffffffffffffffffffffffffffffffffffffff168152602001908152602001600020549050919050565b60028181548110610db257600080fd5b906000526020600020016000915090505481565b60008015156001600084815260200190815260200160002060000160009054906101000a900460ff16151514610e31576040517f08c379a0000000000000000000000000000000000000000000000000000000008152600401610e2890611889565b60405180910390fd5b600180600084815260200190815260200160002060000160006101000a81548160ff021916908315150217905550600282908060018154018082558091505060019003906000526020600020016000909190919091505560019050919050565b6000610e9b610f6b565b81600360006101000a81548173ffffffffffffffffffffffffffffffffffffffff021916908373ffffffffffffffffffffffffffffffffffffffff16021790555060019050919050565b610eed610f6b565b600073ffffffffffffffffffffffffffffffffffffffff168173ffffffffffffffffffffffffffffffffffffffff1603610f5f5760006040517f1e4fbdf7000000000000000000000000000000000000000000000000000000008152600401610f56919061132f565b60405180910390fd5b610f6881610ff2565b50565b610f736110b6565b73ffffffffffffffffffffffffffffffffffffffff16610f91610c61565b73ffffffffffffffffffffffffffffffffffffffff1614610ff057610fb46110b6565b6040517f118cdaa7000000000000000000000000000000000000000000000000000000008152600401610fe7919061132f565b60405180910390fd5b565b60008060009054906101000a900473ffffffffffffffffffffffffffffffffffffffff169050816000806101000a81548173ffffffffffffffffffffffffffffffffffffffff021916908373ffffffffffffffffffffffffffffffffffffffff1602179055508173ffffffffffffffffffffffffffffffffffffffff168173ffffffffffffffffffffffffffffffffffffffff167f8be0079c531659141344cd1fd0a4f28419497f9722a3daafe3b4186f6b6457e060405160405180910390a35050565b600033905090565b600080fd5b6000819050919050565b6110d6816110c3565b81146110e157600080fd5b50565b6000813590506110f3816110cd565b92915050565b60006020828403121561110f5761110e6110be565b5b600061111d848285016110e4565b91505092915050565b60008115159050919050565b61113b81611126565b82525050565b61114a816110c3565b82525050565b600073ffffffffffffffffffffffffffffffffffffffff82169050919050565b600061117b82611150565b9050919050565b61118b81611170565b82525050565b60006060820190506111a66000830186611132565b6111b36020830185611141565b6111c06040830184611182565b949350505050565b600081519050919050565b600082825260208201905092915050565b6000819050602082019050919050565b6111fd81611170565b82525050565b600061120f83836111f4565b60208301905092915050565b6000602082019050919050565b6000611233826111c8565b61123d81856111d3565b9350611248836111e4565b8060005b838110156112795781516112608882611203565b975061126b8361121b565b92505060018101905061124c565b5085935050505092915050565b600060208201905081810360008301526112a08184611228565b905092915050565b6112b181611170565b81146112bc57600080fd5b50565b6000813590506112ce816112a8565b92915050565b600080604083850312156112eb576112ea6110be565b5b60006112f9858286016110e4565b925050602061130a858286016112bf565b9150509250929050565b60006020820190506113296000830184611141565b92915050565b60006020820190506113446000830184611182565b92915050565b60008060408385031215611361576113606110be565b5b600061136f858286016110e4565b9250506020611380858286016110e4565b9150509250929050565b600060208201905061139f6000830184611132565b92915050565b600081519050919050565b600082825260208201905092915050565b6000819050602082019050919050565b6113da816110c3565b82525050565b60006113ec83836113d1565b60208301905092915050565b6000602082019050919050565b6000611410826113a5565b61141a81856113b0565b9350611425836113c1565b8060005b8381101561145657815161143d88826113e0565b9750611448836113f8565b925050600181019050611429565b5085935050505092915050565b6000602082019050818103600083015261147d8184611405565b905092915050565b60006020828403121561149b5761149a6110be565b5b60006114a9848285016112bf565b91505092915050565b600082825260208201905092915050565b7f47616d6520496e697469616c697a656400000000000000000000000000000000600082015250565b60006114f96010836114b2565b9150611504826114c3565b602082019050919050565b60006020820190508181036000830152611528816114ec565b9050919050565b7f46696e6973686564000000000000000000000000000000000000000000000000600082015250565b60006115656008836114b2565b91506115708261152f565b602082019050919050565b6000602082019050818103600083015261159481611558565b9050919050565b60006040820190506115b06000830185611182565b6115bd6020830184611141565b9392505050565b6115cd81611126565b81146115d857600080fd5b50565b6000815190506115ea816115c4565b92915050565b600060208284031215611606576116056110be565b5b6000611614848285016115db565b91505092915050565b7f5265776172642073686f756c6420737563636573730000000000000000000000600082015250565b60006116536015836114b2565b915061165e8261161d565b602082019050919050565b6000602082019050818103600083015261168281611646565b9050919050565b600081519050611698816110cd565b92915050565b6000602082840312156116b4576116b36110be565b5b60006116c284828501611689565b91505092915050565b7f456e6f7567682062616c616e6365000000000000000000000000000000000000600082015250565b6000611701600e836114b2565b915061170c826116cb565b602082019050919050565b60006020820190508181036000830152611730816116f4565b9050919050565b600060608201905061174c6000830186611182565b6117596020830185611182565b6117666040830184611141565b949350505050565b7f5472616e736665722073686f756c642073756363657373000000000000000000600082015250565b60006117a46017836114b2565b91506117af8261176e565b602082019050919050565b600060208201905081810360008301526117d381611797565b9050919050565b7f4e487b7100000000000000000000000000000000000000000000000000000000600052601160045260246000fd5b6000611814826110c3565b915061181f836110c3565b9250828201905080821115611837576118366117da565b5b92915050565b7f47616d6520657869737473000000000000000000000000000000000000000000600082015250565b6000611873600b836114b2565b915061187e8261183d565b602082019050919050565b600060208201905081810360008301526118a281611866565b905091905056fea2646970667358221220a77d9415cbb3aefeb23b426fc4c376dbf41ab552c2098c85917b0fac4ac3bf6464736f6c63430008120033",
					"opcodes": "PUSH1 0x80 PUSH1 0x40 MSTORE PUSH1 0xA PUSH1 0x4 SSTORE CALLVALUE DUP1 ISZERO PUSH3 0x16 JUMPI PUSH1 0x0 DUP1 REVERT JUMPDEST POP PUSH1 0x40 MLOAD PUSH3 0x1B48 CODESIZE SUB DUP1 PUSH3 0x1B48 DUP4 CODECOPY DUP2 DUP2 ADD PUSH1 0x40 MSTORE DUP2 ADD SWAP1 PUSH3 0x3C SWAP2 SWAP1 PUSH3 0x1F9 JUMP JUMPDEST DUP1 PUSH1 0x0 PUSH20 0xFFFFFFFFFFFFFFFFFFFFFFFFFFFFFFFFFFFFFFFF AND DUP2 PUSH20 0xFFFFFFFFFFFFFFFFFFFFFFFFFFFFFFFFFFFFFFFF AND SUB PUSH3 0xB2 JUMPI PUSH1 0x0 PUSH1 0x40 MLOAD PUSH32 0x1E4FBDF700000000000000000000000000000000000000000000000000000000 DUP2 MSTORE PUSH1 0x4 ADD PUSH3 0xA9 SWAP2 SWAP1 PUSH3 0x23C JUMP JUMPDEST PUSH1 0x40 MLOAD DUP1 SWAP2 SUB SWAP1 REVERT JUMPDEST PUSH3 0xC3 DUP2 PUSH3 0xCB PUSH1 0x20 SHL PUSH1 0x20 SHR JUMP JUMPDEST POP POP PUSH3 0x259 JUMP JUMPDEST PUSH1 0x0 DUP1 PUSH1 0x0 SWAP1 SLOAD SWAP1 PUSH2 0x100 EXP SWAP1 DIV PUSH20 0xFFFFFFFFFFFFFFFFFFFFFFFFFFFFFFFFFFFFFFFF AND SWAP1 POP DUP2 PUSH1 0x0 DUP1 PUSH2 0x100 EXP DUP2 SLOAD DUP2 PUSH20 0xFFFFFFFFFFFFFFFFFFFFFFFFFFFFFFFFFFFFFFFF MUL NOT AND SWAP1 DUP4 PUSH20 0xFFFFFFFFFFFFFFFFFFFFFFFFFFFFFFFFFFFFFFFF AND MUL OR SWAP1 SSTORE POP DUP2 PUSH20 0xFFFFFFFFFFFFFFFFFFFFFFFFFFFFFFFFFFFFFFFF AND DUP2 PUSH20 0xFFFFFFFFFFFFFFFFFFFFFFFFFFFFFFFFFFFFFFFF AND PUSH32 0x8BE0079C531659141344CD1FD0A4F28419497F9722A3DAAFE3B4186F6B6457E0 PUSH1 0x40 MLOAD PUSH1 0x40 MLOAD DUP1 SWAP2 SUB SWAP1 LOG3 POP POP JUMP JUMPDEST PUSH1 0x0 DUP1 REVERT JUMPDEST PUSH1 0x0 PUSH20 0xFFFFFFFFFFFFFFFFFFFFFFFFFFFFFFFFFFFFFFFF DUP3 AND SWAP1 POP SWAP2 SWAP1 POP JUMP JUMPDEST PUSH1 0x0 PUSH3 0x1C1 DUP3 PUSH3 0x194 JUMP JUMPDEST SWAP1 POP SWAP2 SWAP1 POP JUMP JUMPDEST PUSH3 0x1D3 DUP2 PUSH3 0x1B4 JUMP JUMPDEST DUP2 EQ PUSH3 0x1DF JUMPI PUSH1 0x0 DUP1 REVERT JUMPDEST POP JUMP JUMPDEST PUSH1 0x0 DUP2 MLOAD SWAP1 POP PUSH3 0x1F3 DUP2 PUSH3 0x1C8 JUMP JUMPDEST SWAP3 SWAP2 POP POP JUMP JUMPDEST PUSH1 0x0 PUSH1 0x20 DUP3 DUP5 SUB SLT ISZERO PUSH3 0x212 JUMPI PUSH3 0x211 PUSH3 0x18F JUMP JUMPDEST JUMPDEST PUSH1 0x0 PUSH3 0x222 DUP5 DUP3 DUP6 ADD PUSH3 0x1E2 JUMP JUMPDEST SWAP2 POP POP SWAP3 SWAP2 POP POP JUMP JUMPDEST PUSH3 0x236 DUP2 PUSH3 0x1B4 JUMP JUMPDEST DUP3 MSTORE POP POP JUMP JUMPDEST PUSH1 0x0 PUSH1 0x20 DUP3 ADD SWAP1 POP PUSH3 0x253 PUSH1 0x0 DUP4 ADD DUP5 PUSH3 0x22B JUMP JUMPDEST SWAP3 SWAP2 POP POP JUMP JUMPDEST PUSH2 0x18DF DUP1 PUSH3 0x269 PUSH1 0x0 CODECOPY PUSH1 0x0 RETURN INVALID PUSH1 0x80 PUSH1 0x40 MSTORE CALLVALUE DUP1 ISZERO PUSH2 0x10 JUMPI PUSH1 0x0 DUP1 REVERT JUMPDEST POP PUSH1 0x4 CALLDATASIZE LT PUSH2 0xF5 JUMPI PUSH1 0x0 CALLDATALOAD PUSH1 0xE0 SHR DUP1 PUSH4 0x7FD6F15C GT PUSH2 0x97 JUMPI DUP1 PUSH4 0xD82C13F0 GT PUSH2 0x66 JUMPI DUP1 PUSH4 0xD82C13F0 EQ PUSH2 0x29E JUMPI DUP1 PUSH4 0xE5ED1D59 EQ PUSH2 0x2CE JUMPI DUP1 PUSH4 0xEE9B80A4 EQ PUSH2 0x2FE JUMPI DUP1 PUSH4 0xF2FDE38B EQ PUSH2 0x32E JUMPI PUSH2 0xF5 JUMP JUMPDEST DUP1 PUSH4 0x7FD6F15C EQ PUSH2 0x214 JUMPI DUP1 PUSH4 0x8DA5CB5B EQ PUSH2 0x232 JUMPI DUP1 PUSH4 0x9BC01B36 EQ PUSH2 0x250 JUMPI DUP1 PUSH4 0xCE33BD74 EQ PUSH2 0x26E JUMPI PUSH2 0xF5 JUMP JUMPDEST DUP1 PUSH4 0x34FCC3E7 GT PUSH2 0xD3 JUMPI DUP1 PUSH4 0x34FCC3E7 EQ PUSH2 0x18C JUMPI DUP1 PUSH4 0x55A373D6 EQ PUSH2 0x1BC JUMPI DUP1 PUSH4 0x6FFCC719 EQ PUSH2 0x1DA JUMPI DUP1 PUSH4 0x715018A6 EQ PUSH2 0x20A JUMPI PUSH2 0xF5 JUMP JUMPDEST DUP1 PUSH4 0x117A5B90 EQ PUSH2 0xFA JUMPI DUP1 PUSH4 0x16B169C4 EQ PUSH2 0x12C JUMPI DUP1 PUSH4 0x2C32B187 EQ PUSH2 0x15C JUMPI JUMPDEST PUSH1 0x0 DUP1 REVERT JUMPDEST PUSH2 0x114 PUSH1 0x4 DUP1 CALLDATASIZE SUB DUP2 ADD SWAP1 PUSH2 0x10F SWAP2 SWAP1 PUSH2 0x10F9 JUMP JUMPDEST PUSH2 0x34A JUMP JUMPDEST PUSH1 0x40 MLOAD PUSH2 0x123 SWAP4 SWAP3 SWAP2 SWAP1 PUSH2 0x1191 JUMP JUMPDEST PUSH1 0x40 MLOAD DUP1 SWAP2 SUB SWAP1 RETURN JUMPDEST PUSH2 0x146 PUSH1 0x4 DUP1 CALLDATASIZE SUB DUP2 ADD SWAP1 PUSH2 0x141 SWAP2 SWAP1 PUSH2 0x10F9 JUMP JUMPDEST PUSH2 0x3A1 JUMP JUMPDEST PUSH1 0x40 MLOAD PUSH2 0x153 SWAP2 SWAP1 PUSH2 0x1286 JUMP JUMPDEST PUSH1 0x40 MLOAD DUP1 SWAP2 SUB SWAP1 RETURN JUMPDEST PUSH2 0x176 PUSH1 0x4 DUP1 CALLDATASIZE SUB DUP2 ADD SWAP1 PUSH2 0x171 SWAP2 SWAP1 PUSH2 0x12D4 JUMP JUMPDEST PUSH2 0x4A8 JUMP JUMPDEST PUSH1 0x40 MLOAD PUSH2 0x183 SWAP2 SWAP1 PUSH2 0x1314 JUMP JUMPDEST PUSH1 0x40 MLOAD DUP1 SWAP2 SUB SWAP1 RETURN JUMPDEST PUSH2 0x1A6 PUSH1 0x4 DUP1 CALLDATASIZE SUB DUP2 ADD SWAP1 PUSH2 0x1A1 SWAP2 SWAP1 PUSH2 0x12D4 JUMP JUMPDEST PUSH2 0x723 JUMP JUMPDEST PUSH1 0x40 MLOAD PUSH2 0x1B3 SWAP2 SWAP1 PUSH2 0x1314 JUMP JUMPDEST PUSH1 0x40 MLOAD DUP1 SWAP2 SUB SWAP1 RETURN JUMPDEST PUSH2 0x1C4 PUSH2 0x7E4 JUMP JUMPDEST PUSH1 0x40 MLOAD PUSH2 0x1D1 SWAP2 SWAP1 PUSH2 0x132F JUMP JUMPDEST PUSH1 0x40 MLOAD DUP1 SWAP2 SUB SWAP1 RETURN JUMPDEST PUSH2 0x1F4 PUSH1 0x4 DUP1 CALLDATASIZE SUB DUP2 ADD SWAP1 PUSH2 0x1EF SWAP2 SWAP1 PUSH2 0x134A JUMP JUMPDEST PUSH2 0x80A JUMP JUMPDEST PUSH1 0x40 MLOAD PUSH2 0x201 SWAP2 SWAP1 PUSH2 0x138A JUMP JUMPDEST PUSH1 0x40 MLOAD DUP1 SWAP2 SUB SWAP1 RETURN JUMPDEST PUSH2 0x212 PUSH2 0xC47 JUMP JUMPDEST STOP JUMPDEST PUSH2 0x21C PUSH2 0xC5B JUMP JUMPDEST PUSH1 0x40 MLOAD PUSH2 0x229 SWAP2 SWAP1 PUSH2 0x1314 JUMP JUMPDEST PUSH1 0x40 MLOAD DUP1 SWAP2 SUB SWAP1 RETURN JUMPDEST PUSH2 0x23A PUSH2 0xC61 JUMP JUMPDEST PUSH1 0x40 MLOAD PUSH2 0x247 SWAP2 SWAP1 PUSH2 0x132F JUMP JUMPDEST PUSH1 0x40 MLOAD DUP1 SWAP2 SUB SWAP1 RETURN JUMPDEST PUSH2 0x258 PUSH2 0xC8A JUMP JUMPDEST PUSH1 0x40 MLOAD PUSH2 0x265 SWAP2 SWAP1 PUSH2 0x1463 JUMP JUMPDEST PUSH1 0x40 MLOAD DUP1 SWAP2 SUB SWAP1 RETURN JUMPDEST PUSH2 0x288 PUSH1 0x4 DUP1 CALLDATASIZE SUB DUP2 ADD SWAP1 PUSH2 0x283 SWAP2 SWAP1 PUSH2 0x10F9 JUMP JUMPDEST PUSH2 0xCE2 JUMP JUMPDEST PUSH1 0x40 MLOAD PUSH2 0x295 SWAP2 SWAP1 PUSH2 0x1314 JUMP JUMPDEST PUSH1 0x40 MLOAD DUP1 SWAP2 SUB SWAP1 RETURN JUMPDEST PUSH2 0x2B8 PUSH1 0x4 DUP1 CALLDATASIZE SUB DUP2 ADD SWAP1 PUSH2 0x2B3 SWAP2 SWAP1 PUSH2 0x10F9 JUMP JUMPDEST PUSH2 0xDA2 JUMP JUMPDEST PUSH1 0x40 MLOAD PUSH2 0x2C5 SWAP2 SWAP1 PUSH2 0x1314 JUMP JUMPDEST PUSH1 0x40 MLOAD DUP1 SWAP2 SUB SWAP1 RETURN JUMPDEST PUSH2 0x2E8 PUSH1 0x4 DUP1 CALLDATASIZE SUB DUP2 ADD SWAP1 PUSH2 0x2E3 SWAP2 SWAP1 PUSH2 0x10F9 JUMP JUMPDEST PUSH2 0xDC6 JUMP JUMPDEST PUSH1 0x40 MLOAD PUSH2 0x2F5 SWAP2 SWAP1 PUSH2 0x138A JUMP JUMPDEST PUSH1 0x40 MLOAD DUP1 SWAP2 SUB SWAP1 RETURN JUMPDEST PUSH2 0x318 PUSH1 0x4 DUP1 CALLDATASIZE SUB DUP2 ADD SWAP1 PUSH2 0x313 SWAP2 SWAP1 PUSH2 0x1485 JUMP JUMPDEST PUSH2 0xE91 JUMP JUMPDEST PUSH1 0x40 MLOAD PUSH2 0x325 SWAP2 SWAP1 PUSH2 0x138A JUMP JUMPDEST PUSH1 0x40 MLOAD DUP1 SWAP2 SUB SWAP1 RETURN JUMPDEST PUSH2 0x348 PUSH1 0x4 DUP1 CALLDATASIZE SUB DUP2 ADD SWAP1 PUSH2 0x343 SWAP2 SWAP1 PUSH2 0x1485 JUMP JUMPDEST PUSH2 0xEE5 JUMP JUMPDEST STOP JUMPDEST PUSH1 0x1 PUSH1 0x20 MSTORE DUP1 PUSH1 0x0 MSTORE PUSH1 0x40 PUSH1 0x0 KECCAK256 PUSH1 0x0 SWAP2 POP SWAP1 POP DUP1 PUSH1 0x0 ADD PUSH1 0x0 SWAP1 SLOAD SWAP1 PUSH2 0x100 EXP SWAP1 DIV PUSH1 0xFF AND SWAP1 DUP1 PUSH1 0x2 ADD SLOAD SWAP1 DUP1 PUSH1 0x4 ADD PUSH1 0x0 SWAP1 SLOAD SWAP1 PUSH2 0x100 EXP SWAP1 DIV PUSH20 0xFFFFFFFFFFFFFFFFFFFFFFFFFFFFFFFFFFFFFFFF AND SWAP1 POP DUP4 JUMP JUMPDEST PUSH1 0x60 PUSH1 0x1 PUSH1 0x0 DUP4 DUP2 MSTORE PUSH1 0x20 ADD SWAP1 DUP2 MSTORE PUSH1 0x20 ADD PUSH1 0x0 KECCAK256 PUSH1 0x0 ADD PUSH1 0x0 SWAP1 SLOAD SWAP1 PUSH2 0x100 EXP SWAP1 DIV PUSH1 0xFF AND PUSH2 0x406 JUMPI PUSH1 0x40 MLOAD PUSH32 0x8C379A000000000000000000000000000000000000000000000000000000000 DUP2 MSTORE PUSH1 0x4 ADD PUSH2 0x3FD SWAP1 PUSH2 0x150F JUMP JUMPDEST PUSH1 0x40 MLOAD DUP1 SWAP2 SUB SWAP1 REVERT JUMPDEST PUSH1 0x1 PUSH1 0x0 DUP4 DUP2 MSTORE PUSH1 0x20 ADD SWAP1 DUP2 MSTORE PUSH1 0x20 ADD PUSH1 0x0 KECCAK256 PUSH1 0x3 ADD DUP1 SLOAD DUP1 PUSH1 0x20 MUL PUSH1 0x20 ADD PUSH1 0x40 MLOAD SWAP1 DUP2 ADD PUSH1 0x40 MSTORE DUP1 SWAP3 SWAP2 SWAP1 DUP2 DUP2 MSTORE PUSH1 0x20 ADD DUP3 DUP1 SLOAD DUP1 ISZERO PUSH2 0x49C JUMPI PUSH1 0x20 MUL DUP3 ADD SWAP2 SWAP1 PUSH1 0x0 MSTORE PUSH1 0x20 PUSH1 0x0 KECCAK256 SWAP1 JUMPDEST DUP2 PUSH1 0x0 SWAP1 SLOAD SWAP1 PUSH2 0x100 EXP SWAP1 DIV PUSH20 0xFFFFFFFFFFFFFFFFFFFFFFFFFFFFFFFFFFFFFFFF AND PUSH20 0xFFFFFFFFFFFFFFFFFFFFFFFFFFFFFFFFFFFFFFFF AND DUP2 MSTORE PUSH1 0x20 ADD SWAP1 PUSH1 0x1 ADD SWAP1 DUP1 DUP4 GT PUSH2 0x452 JUMPI JUMPDEST POP POP POP POP POP SWAP1 POP SWAP2 SWAP1 POP JUMP JUMPDEST PUSH1 0x0 PUSH2 0x4B2 PUSH2 0xF6B JUMP JUMPDEST PUSH1 0x1 PUSH1 0x0 DUP5 DUP2 MSTORE PUSH1 0x20 ADD SWAP1 DUP2 MSTORE PUSH1 0x20 ADD PUSH1 0x0 KECCAK256 PUSH1 0x0 ADD PUSH1 0x0 SWAP1 SLOAD SWAP1 PUSH2 0x100 EXP SWAP1 DIV PUSH1 0xFF AND PUSH2 0x515 JUMPI PUSH1 0x40 MLOAD PUSH32 0x8C379A000000000000000000000000000000000000000000000000000000000 DUP2 MSTORE PUSH1 0x4 ADD PUSH2 0x50C SWAP1 PUSH2 0x150F JUMP JUMPDEST PUSH1 0x40 MLOAD DUP1 SWAP2 SUB SWAP1 REVERT JUMPDEST PUSH1 0x0 PUSH20 0xFFFFFFFFFFFFFFFFFFFFFFFFFFFFFFFFFFFFFFFF AND PUSH1 0x1 PUSH1 0x0 DUP6 DUP2 MSTORE PUSH1 0x20 ADD SWAP1 DUP2 MSTORE PUSH1 0x20 ADD PUSH1 0x0 KECCAK256 PUSH1 0x4 ADD PUSH1 0x0 SWAP1 SLOAD SWAP1 PUSH2 0x100 EXP SWAP1 DIV PUSH20 0xFFFFFFFFFFFFFFFFFFFFFFFFFFFFFFFFFFFFFFFF AND PUSH20 0xFFFFFFFFFFFFFFFFFFFFFFFFFFFFFFFFFFFFFFFF AND EQ PUSH2 0x5BA JUMPI PUSH1 0x40 MLOAD PUSH32 0x8C379A000000000000000000000000000000000000000000000000000000000 DUP2 MSTORE PUSH1 0x4 ADD PUSH2 0x5B1 SWAP1 PUSH2 0x157B JUMP JUMPDEST PUSH1 0x40 MLOAD DUP1 SWAP2 SUB SWAP1 REVERT JUMPDEST DUP2 PUSH1 0x1 PUSH1 0x0 DUP6 DUP2 MSTORE PUSH1 0x20 ADD SWAP1 DUP2 MSTORE PUSH1 0x20 ADD PUSH1 0x0 KECCAK256 PUSH1 0x4 ADD PUSH1 0x0 PUSH2 0x100 EXP DUP2 SLOAD DUP2 PUSH20 0xFFFFFFFFFFFFFFFFFFFFFFFFFFFFFFFFFFFFFFFF MUL NOT AND SWAP1 DUP4 PUSH20 0xFFFFFFFFFFFFFFFFFFFFFFFFFFFFFFFFFFFFFFFF AND MUL OR SWAP1 SSTORE POP PUSH1 0x3 PUSH1 0x0 SWAP1 SLOAD SWAP1 PUSH2 0x100 EXP SWAP1 DIV PUSH20 0xFFFFFFFFFFFFFFFFFFFFFFFFFFFFFFFFFFFFFFFF AND PUSH20 0xFFFFFFFFFFFFFFFFFFFFFFFFFFFFFFFFFFFFFFFF AND PUSH4 0xA9059CBB DUP4 PUSH1 0x1 PUSH1 0x0 DUP8 DUP2 MSTORE PUSH1 0x20 ADD SWAP1 DUP2 MSTORE PUSH1 0x20 ADD PUSH1 0x0 KECCAK256 PUSH1 0x2 ADD SLOAD PUSH1 0x40 MLOAD DUP4 PUSH4 0xFFFFFFFF AND PUSH1 0xE0 SHL DUP2 MSTORE PUSH1 0x4 ADD PUSH2 0x682 SWAP3 SWAP2 SWAP1 PUSH2 0x159B JUMP JUMPDEST PUSH1 0x20 PUSH1 0x40 MLOAD DUP1 DUP4 SUB DUP2 PUSH1 0x0 DUP8 GAS CALL ISZERO DUP1 ISZERO PUSH2 0x6A1 JUMPI RETURNDATASIZE PUSH1 0x0 DUP1 RETURNDATACOPY RETURNDATASIZE PUSH1 0x0 REVERT JUMPDEST POP POP POP POP PUSH1 0x40 MLOAD RETURNDATASIZE PUSH1 0x1F NOT PUSH1 0x1F DUP3 ADD AND DUP3 ADD DUP1 PUSH1 0x40 MSTORE POP DUP2 ADD SWAP1 PUSH2 0x6C5 SWAP2 SWAP1 PUSH2 0x15F0 JUMP JUMPDEST PUSH2 0x704 JUMPI PUSH1 0x40 MLOAD PUSH32 0x8C379A000000000000000000000000000000000000000000000000000000000 DUP2 MSTORE PUSH1 0x4 ADD PUSH2 0x6FB SWAP1 PUSH2 0x1669 JUMP JUMPDEST PUSH1 0x40 MLOAD DUP1 SWAP2 SUB SWAP1 REVERT JUMPDEST PUSH1 0x1 PUSH1 0x0 DUP5 DUP2 MSTORE PUSH1 0x20 ADD SWAP1 DUP2 MSTORE PUSH1 0x20 ADD PUSH1 0x0 KECCAK256 PUSH1 0x2 ADD SLOAD SWAP1 POP SWAP3 SWAP2 POP POP JUMP JUMPDEST PUSH1 0x0 PUSH1 0x1 PUSH1 0x0 DUP5 DUP2 MSTORE PUSH1 0x20 ADD SWAP1 DUP2 MSTORE PUSH1 0x20 ADD PUSH1 0x0 KECCAK256 PUSH1 0x0 ADD PUSH1 0x0 SWAP1 SLOAD SWAP1 PUSH2 0x100 EXP SWAP1 DIV PUSH1 0xFF AND PUSH2 0x788 JUMPI PUSH1 0x40 MLOAD PUSH32 0x8C379A000000000000000000000000000000000000000000000000000000000 DUP2 MSTORE PUSH1 0x4 ADD PUSH2 0x77F SWAP1 PUSH2 0x150F JUMP JUMPDEST PUSH1 0x40 MLOAD DUP1 SWAP2 SUB SWAP1 REVERT JUMPDEST PUSH1 0x1 PUSH1 0x0 DUP5 DUP2 MSTORE PUSH1 0x20 ADD SWAP1 DUP2 MSTORE PUSH1 0x20 ADD PUSH1 0x0 KECCAK256 PUSH1 0x1 ADD PUSH1 0x0 DUP4 PUSH20 0xFFFFFFFFFFFFFFFFFFFFFFFFFFFFFFFFFFFFFFFF AND PUSH20 0xFFFFFFFFFFFFFFFFFFFFFFFFFFFFFFFFFFFFFFFF AND DUP2 MSTORE PUSH1 0x20 ADD SWAP1 DUP2 MSTORE PUSH1 0x20 ADD PUSH1 0x0 KECCAK256 SLOAD SWAP1 POP SWAP3 SWAP2 POP POP JUMP JUMPDEST PUSH1 0x3 PUSH1 0x0 SWAP1 SLOAD SWAP1 PUSH2 0x100 EXP SWAP1 DIV PUSH20 0xFFFFFFFFFFFFFFFFFFFFFFFFFFFFFFFFFFFFFFFF AND DUP2 JUMP JUMPDEST PUSH1 0x0 PUSH1 0x1 PUSH1 0x0 DUP5 DUP2 MSTORE PUSH1 0x20 ADD SWAP1 DUP2 MSTORE PUSH1 0x20 ADD PUSH1 0x0 KECCAK256 PUSH1 0x0 ADD PUSH1 0x0 SWAP1 SLOAD SWAP1 PUSH2 0x100 EXP SWAP1 DIV PUSH1 0xFF AND PUSH2 0x86F JUMPI PUSH1 0x40 MLOAD PUSH32 0x8C379A000000000000000000000000000000000000000000000000000000000 DUP2 MSTORE PUSH1 0x4 ADD PUSH2 0x866 SWAP1 PUSH2 0x150F JUMP JUMPDEST PUSH1 0x40 MLOAD DUP1 SWAP2 SUB SWAP1 REVERT JUMPDEST PUSH1 0x0 PUSH20 0xFFFFFFFFFFFFFFFFFFFFFFFFFFFFFFFFFFFFFFFF AND PUSH1 0x1 PUSH1 0x0 DUP6 DUP2 MSTORE PUSH1 0x20 ADD SWAP1 DUP2 MSTORE PUSH1 0x20 ADD PUSH1 0x0 KECCAK256 PUSH1 0x4 ADD PUSH1 0x0 SWAP1 SLOAD SWAP1 PUSH2 0x100 EXP SWAP1 DIV PUSH20 0xFFFFFFFFFFFFFFFFFFFFFFFFFFFFFFFFFFFFFFFF AND PUSH20 0xFFFFFFFFFFFFFFFFFFFFFFFFFFFFFFFFFFFFFFFF AND EQ PUSH2 0x914 JUMPI PUSH1 0x40 MLOAD PUSH32 0x8C379A000000000000000000000000000000000000000000000000000000000 DUP2 MSTORE PUSH1 0x4 ADD PUSH2 0x90B SWAP1 PUSH2 0x157B JUMP JUMPDEST PUSH1 0x40 MLOAD DUP1 SWAP2 SUB SWAP1 REVERT JUMPDEST DUP2 PUSH1 0x3 PUSH1 0x0 SWAP1 SLOAD SWAP1 PUSH2 0x100 EXP SWAP1 DIV PUSH20 0xFFFFFFFFFFFFFFFFFFFFFFFFFFFFFFFFFFFFFFFF AND PUSH20 0xFFFFFFFFFFFFFFFFFFFFFFFFFFFFFFFFFFFFFFFF AND PUSH4 0x70A08231 CALLER PUSH1 0x40 MLOAD DUP3 PUSH4 0xFFFFFFFF AND PUSH1 0xE0 SHL DUP2 MSTORE PUSH1 0x4 ADD PUSH2 0x970 SWAP2 SWAP1 PUSH2 0x132F JUMP JUMPDEST PUSH1 0x20 PUSH1 0x40 MLOAD DUP1 DUP4 SUB DUP2 DUP7 GAS STATICCALL ISZERO DUP1 ISZERO PUSH2 0x98D JUMPI RETURNDATASIZE PUSH1 0x0 DUP1 RETURNDATACOPY RETURNDATASIZE PUSH1 0x0 REVERT JUMPDEST POP POP POP POP PUSH1 0x40 MLOAD RETURNDATASIZE PUSH1 0x1F NOT PUSH1 0x1F DUP3 ADD AND DUP3 ADD DUP1 PUSH1 0x40 MSTORE POP DUP2 ADD SWAP1 PUSH2 0x9B1 SWAP2 SWAP1 PUSH2 0x169E JUMP JUMPDEST LT ISZERO PUSH2 0x9F2 JUMPI PUSH1 0x40 MLOAD PUSH32 0x8C379A000000000000000000000000000000000000000000000000000000000 DUP2 MSTORE PUSH1 0x4 ADD PUSH2 0x9E9 SWAP1 PUSH2 0x1717 JUMP JUMPDEST PUSH1 0x40 MLOAD DUP1 SWAP2 SUB SWAP1 REVERT JUMPDEST PUSH1 0x3 PUSH1 0x0 SWAP1 SLOAD SWAP1 PUSH2 0x100 EXP SWAP1 DIV PUSH20 0xFFFFFFFFFFFFFFFFFFFFFFFFFFFFFFFFFFFFFFFF AND PUSH20 0xFFFFFFFFFFFFFFFFFFFFFFFFFFFFFFFFFFFFFFFF AND PUSH4 0x23B872DD CALLER ADDRESS DUP6 PUSH1 0x40 MLOAD DUP5 PUSH4 0xFFFFFFFF AND PUSH1 0xE0 SHL DUP2 MSTORE PUSH1 0x4 ADD PUSH2 0xA51 SWAP4 SWAP3 SWAP2 SWAP1 PUSH2 0x1737 JUMP JUMPDEST PUSH1 0x20 PUSH1 0x40 MLOAD DUP1 DUP4 SUB DUP2 PUSH1 0x0 DUP8 GAS CALL ISZERO DUP1 ISZERO PUSH2 0xA70 JUMPI RETURNDATASIZE PUSH1 0x0 DUP1 RETURNDATACOPY RETURNDATASIZE PUSH1 0x0 REVERT JUMPDEST POP POP POP POP PUSH1 0x40 MLOAD RETURNDATASIZE PUSH1 0x1F NOT PUSH1 0x1F DUP3 ADD AND DUP3 ADD DUP1 PUSH1 0x40 MSTORE POP DUP2 ADD SWAP1 PUSH2 0xA94 SWAP2 SWAP1 PUSH2 0x15F0 JUMP JUMPDEST PUSH2 0xAD3 JUMPI PUSH1 0x40 MLOAD PUSH32 0x8C379A000000000000000000000000000000000000000000000000000000000 DUP2 MSTORE PUSH1 0x4 ADD PUSH2 0xACA SWAP1 PUSH2 0x17BA JUMP JUMPDEST PUSH1 0x40 MLOAD DUP1 SWAP2 SUB SWAP1 REVERT JUMPDEST PUSH1 0x0 PUSH1 0x1 PUSH1 0x0 DUP6 DUP2 MSTORE PUSH1 0x20 ADD SWAP1 DUP2 MSTORE PUSH1 0x20 ADD PUSH1 0x0 KECCAK256 PUSH1 0x1 ADD PUSH1 0x0 CALLER PUSH20 0xFFFFFFFFFFFFFFFFFFFFFFFFFFFFFFFFFFFFFFFF AND PUSH20 0xFFFFFFFFFFFFFFFFFFFFFFFFFFFFFFFFFFFFFFFF AND DUP2 MSTORE PUSH1 0x20 ADD SWAP1 DUP2 MSTORE PUSH1 0x20 ADD PUSH1 0x0 KECCAK256 SLOAD SUB PUSH2 0xBA6 JUMPI PUSH1 0x1 PUSH1 0x0 DUP5 DUP2 MSTORE PUSH1 0x20 ADD SWAP1 DUP2 MSTORE PUSH1 0x20 ADD PUSH1 0x0 KECCAK256 PUSH1 0x3 ADD CALLER SWAP1 DUP1 PUSH1 0x1 DUP2 SLOAD ADD DUP1 DUP3 SSTORE DUP1 SWAP2 POP POP PUSH1 0x1 SWAP1 SUB SWAP1 PUSH1 0x0 MSTORE PUSH1 0x20 PUSH1 0x0 KECCAK256 ADD PUSH1 0x0 SWAP1 SWAP2 SWAP1 SWAP2 SWAP1 SWAP2 PUSH2 0x100 EXP DUP2 SLOAD DUP2 PUSH20 0xFFFFFFFFFFFFFFFFFFFFFFFFFFFFFFFFFFFFFFFF MUL NOT AND SWAP1 DUP4 PUSH20 0xFFFFFFFFFFFFFFFFFFFFFFFFFFFFFFFFFFFFFFFF AND MUL OR SWAP1 SSTORE POP JUMPDEST DUP2 PUSH1 0x1 PUSH1 0x0 DUP6 DUP2 MSTORE PUSH1 0x20 ADD SWAP1 DUP2 MSTORE PUSH1 0x20 ADD PUSH1 0x0 KECCAK256 PUSH1 0x1 ADD PUSH1 0x0 CALLER PUSH20 0xFFFFFFFFFFFFFFFFFFFFFFFFFFFFFFFFFFFFFFFF AND PUSH20 0xFFFFFFFFFFFFFFFFFFFFFFFFFFFFFFFFFFFFFFFF AND DUP2 MSTORE PUSH1 0x20 ADD SWAP1 DUP2 MSTORE PUSH1 0x20 ADD PUSH1 0x0 KECCAK256 PUSH1 0x0 DUP3 DUP3 SLOAD PUSH2 0xC09 SWAP2 SWAP1 PUSH2 0x1809 JUMP JUMPDEST SWAP3 POP POP DUP2 SWAP1 SSTORE POP DUP2 PUSH1 0x1 PUSH1 0x0 DUP6 DUP2 MSTORE PUSH1 0x20 ADD SWAP1 DUP2 MSTORE PUSH1 0x20 ADD PUSH1 0x0 KECCAK256 PUSH1 0x2 ADD PUSH1 0x0 DUP3 DUP3 SLOAD PUSH2 0xC36 SWAP2 SWAP1 PUSH2 0x1809 JUMP JUMPDEST SWAP3 POP POP DUP2 SWAP1 SSTORE POP PUSH1 0x1 SWAP1 POP SWAP3 SWAP2 POP POP JUMP JUMPDEST PUSH2 0xC4F PUSH2 0xF6B JUMP JUMPDEST PUSH2 0xC59 PUSH1 0x0 PUSH2 0xFF2 JUMP JUMPDEST JUMP JUMPDEST PUSH1 0x4 SLOAD DUP2 JUMP JUMPDEST PUSH1 0x0 DUP1 PUSH1 0x0 SWAP1 SLOAD SWAP1 PUSH2 0x100 EXP SWAP1 DIV PUSH20 0xFFFFFFFFFFFFFFFFFFFFFFFFFFFFFFFFFFFFFFFF AND SWAP1 POP SWAP1 JUMP JUMPDEST PUSH1 0x60 PUSH1 0x2 DUP1 SLOAD DUP1 PUSH1 0x20 MUL PUSH1 0x20 ADD PUSH1 0x40 MLOAD SWAP1 DUP2 ADD PUSH1 0x40 MSTORE DUP1 SWAP3 SWAP2 SWAP1 DUP2 DUP2 MSTORE PUSH1 0x20 ADD DUP3 DUP1 SLOAD DUP1 ISZERO PUSH2 0xCD8 JUMPI PUSH1 0x20 MUL DUP3 ADD SWAP2 SWAP1 PUSH1 0x0 MSTORE PUSH1 0x20 PUSH1 0x0 KECCAK256 SWAP1 JUMPDEST DUP2 SLOAD DUP2 MSTORE PUSH1 0x20 ADD SWAP1 PUSH1 0x1 ADD SWAP1 DUP1 DUP4 GT PUSH2 0xCC4 JUMPI JUMPDEST POP POP POP POP POP SWAP1 POP SWAP1 JUMP JUMPDEST PUSH1 0x0 PUSH1 0x1 PUSH1 0x0 DUP4 DUP2 MSTORE PUSH1 0x20 ADD SWAP1 DUP2 MSTORE PUSH1 0x20 ADD PUSH1 0x0 KECCAK256 PUSH1 0x0 ADD PUSH1 0x0 SWAP1 SLOAD SWAP1 PUSH2 0x100 EXP SWAP1 DIV PUSH1 0xFF AND PUSH2 0xD47 JUMPI PUSH1 0x40 MLOAD PUSH32 0x8C379A000000000000000000000000000000000000000000000000000000000 DUP2 MSTORE PUSH1 0x4 ADD PUSH2 0xD3E SWAP1 PUSH2 0x150F JUMP JUMPDEST PUSH1 0x40 MLOAD DUP1 SWAP2 SUB SWAP1 REVERT JUMPDEST PUSH1 0x1 PUSH1 0x0 DUP4 DUP2 MSTORE PUSH1 0x20 ADD SWAP1 DUP2 MSTORE PUSH1 0x20 ADD PUSH1 0x0 KECCAK256 PUSH1 0x1 ADD PUSH1 0x0 CALLER PUSH20 0xFFFFFFFFFFFFFFFFFFFFFFFFFFFFFFFFFFFFFFFF AND PUSH20 0xFFFFFFFFFFFFFFFFFFFFFFFFFFFFFFFFFFFFFFFF AND DUP2 MSTORE PUSH1 0x20 ADD SWAP1 DUP2 MSTORE PUSH1 0x20 ADD PUSH1 0x0 KECCAK256 SLOAD SWAP1 POP SWAP2 SWAP1 POP JUMP JUMPDEST PUSH1 0x2 DUP2 DUP2 SLOAD DUP2 LT PUSH2 0xDB2 JUMPI PUSH1 0x0 DUP1 REVERT JUMPDEST SWAP1 PUSH1 0x0 MSTORE PUSH1 0x20 PUSH1 0x0 KECCAK256 ADD PUSH1 0x0 SWAP2 POP SWAP1 POP SLOAD DUP2 JUMP JUMPDEST PUSH1 0x0 DUP1 ISZERO ISZERO PUSH1 0x1 PUSH1 0x0 DUP5 DUP2 MSTORE PUSH1 0x20 ADD SWAP1 DUP2 MSTORE PUSH1 0x20 ADD PUSH1 0x0 KECCAK256 PUSH1 0x0 ADD PUSH1 0x0 SWAP1 SLOAD SWAP1 PUSH2 0x100 EXP SWAP1 DIV PUSH1 0xFF AND ISZERO ISZERO EQ PUSH2 0xE31 JUMPI PUSH1 0x40 MLOAD PUSH32 0x8C379A000000000000000000000000000000000000000000000000000000000 DUP2 MSTORE PUSH1 0x4 ADD PUSH2 0xE28 SWAP1 PUSH2 0x1889 JUMP JUMPDEST PUSH1 0x40 MLOAD DUP1 SWAP2 SUB SWAP1 REVERT JUMPDEST PUSH1 0x1 DUP1 PUSH1 0x0 DUP5 DUP2 MSTORE PUSH1 0x20 ADD SWAP1 DUP2 MSTORE PUSH1 0x20 ADD PUSH1 0x0 KECCAK256 PUSH1 0x0 ADD PUSH1 0x0 PUSH2 0x100 EXP DUP2 SLOAD DUP2 PUSH1 0xFF MUL NOT AND SWAP1 DUP4 ISZERO ISZERO MUL OR SWAP1 SSTORE POP PUSH1 0x2 DUP3 SWAP1 DUP1 PUSH1 0x1 DUP2 SLOAD ADD DUP1 DUP3 SSTORE DUP1 SWAP2 POP POP PUSH1 0x1 SWAP1 SUB SWAP1 PUSH1 0x0 MSTORE PUSH1 0x20 PUSH1 0x0 KECCAK256 ADD PUSH1 0x0 SWAP1 SWAP2 SWAP1 SWAP2 SWAP1 SWAP2 POP SSTORE PUSH1 0x1 SWAP1 POP SWAP2 SWAP1 POP JUMP JUMPDEST PUSH1 0x0 PUSH2 0xE9B PUSH2 0xF6B JUMP JUMPDEST DUP2 PUSH1 0x3 PUSH1 0x0 PUSH2 0x100 EXP DUP2 SLOAD DUP2 PUSH20 0xFFFFFFFFFFFFFFFFFFFFFFFFFFFFFFFFFFFFFFFF MUL NOT AND SWAP1 DUP4 PUSH20 0xFFFFFFFFFFFFFFFFFFFFFFFFFFFFFFFFFFFFFFFF AND MUL OR SWAP1 SSTORE POP PUSH1 0x1 SWAP1 POP SWAP2 SWAP1 POP JUMP JUMPDEST PUSH2 0xEED PUSH2 0xF6B JUMP JUMPDEST PUSH1 0x0 PUSH20 0xFFFFFFFFFFFFFFFFFFFFFFFFFFFFFFFFFFFFFFFF AND DUP2 PUSH20 0xFFFFFFFFFFFFFFFFFFFFFFFFFFFFFFFFFFFFFFFF AND SUB PUSH2 0xF5F JUMPI PUSH1 0x0 PUSH1 0x40 MLOAD PUSH32 0x1E4FBDF700000000000000000000000000000000000000000000000000000000 DUP2 MSTORE PUSH1 0x4 ADD PUSH2 0xF56 SWAP2 SWAP1 PUSH2 0x132F JUMP JUMPDEST PUSH1 0x40 MLOAD DUP1 SWAP2 SUB SWAP1 REVERT JUMPDEST PUSH2 0xF68 DUP2 PUSH2 0xFF2 JUMP JUMPDEST POP JUMP JUMPDEST PUSH2 0xF73 PUSH2 0x10B6 JUMP JUMPDEST PUSH20 0xFFFFFFFFFFFFFFFFFFFFFFFFFFFFFFFFFFFFFFFF AND PUSH2 0xF91 PUSH2 0xC61 JUMP JUMPDEST PUSH20 0xFFFFFFFFFFFFFFFFFFFFFFFFFFFFFFFFFFFFFFFF AND EQ PUSH2 0xFF0 JUMPI PUSH2 0xFB4 PUSH2 0x10B6 JUMP JUMPDEST PUSH1 0x40 MLOAD PUSH32 0x118CDAA700000000000000000000000000000000000000000000000000000000 DUP2 MSTORE PUSH1 0x4 ADD PUSH2 0xFE7 SWAP2 SWAP1 PUSH2 0x132F JUMP JUMPDEST PUSH1 0x40 MLOAD DUP1 SWAP2 SUB SWAP1 REVERT JUMPDEST JUMP JUMPDEST PUSH1 0x0 DUP1 PUSH1 0x0 SWAP1 SLOAD SWAP1 PUSH2 0x100 EXP SWAP1 DIV PUSH20 0xFFFFFFFFFFFFFFFFFFFFFFFFFFFFFFFFFFFFFFFF AND SWAP1 POP DUP2 PUSH1 0x0 DUP1 PUSH2 0x100 EXP DUP2 SLOAD DUP2 PUSH20 0xFFFFFFFFFFFFFFFFFFFFFFFFFFFFFFFFFFFFFFFF MUL NOT AND SWAP1 DUP4 PUSH20 0xFFFFFFFFFFFFFFFFFFFFFFFFFFFFFFFFFFFFFFFF AND MUL OR SWAP1 SSTORE POP DUP2 PUSH20 0xFFFFFFFFFFFFFFFFFFFFFFFFFFFFFFFFFFFFFFFF AND DUP2 PUSH20 0xFFFFFFFFFFFFFFFFFFFFFFFFFFFFFFFFFFFFFFFF AND PUSH32 0x8BE0079C531659141344CD1FD0A4F28419497F9722A3DAAFE3B4186F6B6457E0 PUSH1 0x40 MLOAD PUSH1 0x40 MLOAD DUP1 SWAP2 SUB SWAP1 LOG3 POP POP JUMP JUMPDEST PUSH1 0x0 CALLER SWAP1 POP SWAP1 JUMP JUMPDEST PUSH1 0x0 DUP1 REVERT JUMPDEST PUSH1 0x0 DUP2 SWAP1 POP SWAP2 SWAP1 POP JUMP JUMPDEST PUSH2 0x10D6 DUP2 PUSH2 0x10C3 JUMP JUMPDEST DUP2 EQ PUSH2 0x10E1 JUMPI PUSH1 0x0 DUP1 REVERT JUMPDEST POP JUMP JUMPDEST PUSH1 0x0 DUP2 CALLDATALOAD SWAP1 POP PUSH2 0x10F3 DUP2 PUSH2 0x10CD JUMP JUMPDEST SWAP3 SWAP2 POP POP JUMP JUMPDEST PUSH1 0x0 PUSH1 0x20 DUP3 DUP5 SUB SLT ISZERO PUSH2 0x110F JUMPI PUSH2 0x110E PUSH2 0x10BE JUMP JUMPDEST JUMPDEST PUSH1 0x0 PUSH2 0x111D DUP5 DUP3 DUP6 ADD PUSH2 0x10E4 JUMP JUMPDEST SWAP2 POP POP SWAP3 SWAP2 POP POP JUMP JUMPDEST PUSH1 0x0 DUP2 ISZERO ISZERO SWAP1 POP SWAP2 SWAP1 POP JUMP JUMPDEST PUSH2 0x113B DUP2 PUSH2 0x1126 JUMP JUMPDEST DUP3 MSTORE POP POP JUMP JUMPDEST PUSH2 0x114A DUP2 PUSH2 0x10C3 JUMP JUMPDEST DUP3 MSTORE POP POP JUMP JUMPDEST PUSH1 0x0 PUSH20 0xFFFFFFFFFFFFFFFFFFFFFFFFFFFFFFFFFFFFFFFF DUP3 AND SWAP1 POP SWAP2 SWAP1 POP JUMP JUMPDEST PUSH1 0x0 PUSH2 0x117B DUP3 PUSH2 0x1150 JUMP JUMPDEST SWAP1 POP SWAP2 SWAP1 POP JUMP JUMPDEST PUSH2 0x118B DUP2 PUSH2 0x1170 JUMP JUMPDEST DUP3 MSTORE POP POP JUMP JUMPDEST PUSH1 0x0 PUSH1 0x60 DUP3 ADD SWAP1 POP PUSH2 0x11A6 PUSH1 0x0 DUP4 ADD DUP7 PUSH2 0x1132 JUMP JUMPDEST PUSH2 0x11B3 PUSH1 0x20 DUP4 ADD DUP6 PUSH2 0x1141 JUMP JUMPDEST PUSH2 0x11C0 PUSH1 0x40 DUP4 ADD DUP5 PUSH2 0x1182 JUMP JUMPDEST SWAP5 SWAP4 POP POP POP POP JUMP JUMPDEST PUSH1 0x0 DUP2 MLOAD SWAP1 POP SWAP2 SWAP1 POP JUMP JUMPDEST PUSH1 0x0 DUP3 DUP3 MSTORE PUSH1 0x20 DUP3 ADD SWAP1 POP SWAP3 SWAP2 POP POP JUMP JUMPDEST PUSH1 0x0 DUP2 SWAP1 POP PUSH1 0x20 DUP3 ADD SWAP1 POP SWAP2 SWAP1 POP JUMP JUMPDEST PUSH2 0x11FD DUP2 PUSH2 0x1170 JUMP JUMPDEST DUP3 MSTORE POP POP JUMP JUMPDEST PUSH1 0x0 PUSH2 0x120F DUP4 DUP4 PUSH2 0x11F4 JUMP JUMPDEST PUSH1 0x20 DUP4 ADD SWAP1 POP SWAP3 SWAP2 POP POP JUMP JUMPDEST PUSH1 0x0 PUSH1 0x20 DUP3 ADD SWAP1 POP SWAP2 SWAP1 POP JUMP JUMPDEST PUSH1 0x0 PUSH2 0x1233 DUP3 PUSH2 0x11C8 JUMP JUMPDEST PUSH2 0x123D DUP2 DUP6 PUSH2 0x11D3 JUMP JUMPDEST SWAP4 POP PUSH2 0x1248 DUP4 PUSH2 0x11E4 JUMP JUMPDEST DUP1 PUSH1 0x0 JUMPDEST DUP4 DUP2 LT ISZERO PUSH2 0x1279 JUMPI DUP2 MLOAD PUSH2 0x1260 DUP9 DUP3 PUSH2 0x1203 JUMP JUMPDEST SWAP8 POP PUSH2 0x126B DUP4 PUSH2 0x121B JUMP JUMPDEST SWAP3 POP POP PUSH1 0x1 DUP2 ADD SWAP1 POP PUSH2 0x124C JUMP JUMPDEST POP DUP6 SWAP4 POP POP POP POP SWAP3 SWAP2 POP POP JUMP JUMPDEST PUSH1 0x0 PUSH1 0x20 DUP3 ADD SWAP1 POP DUP2 DUP2 SUB PUSH1 0x0 DUP4 ADD MSTORE PUSH2 0x12A0 DUP2 DUP5 PUSH2 0x1228 JUMP JUMPDEST SWAP1 POP SWAP3 SWAP2 POP POP JUMP JUMPDEST PUSH2 0x12B1 DUP2 PUSH2 0x1170 JUMP JUMPDEST DUP2 EQ PUSH2 0x12BC JUMPI PUSH1 0x0 DUP1 REVERT JUMPDEST POP JUMP JUMPDEST PUSH1 0x0 DUP2 CALLDATALOAD SWAP1 POP PUSH2 0x12CE DUP2 PUSH2 0x12A8 JUMP JUMPDEST SWAP3 SWAP2 POP POP JUMP JUMPDEST PUSH1 0x0 DUP1 PUSH1 0x40 DUP4 DUP6 SUB SLT ISZERO PUSH2 0x12EB JUMPI PUSH2 0x12EA PUSH2 0x10BE JUMP JUMPDEST JUMPDEST PUSH1 0x0 PUSH2 0x12F9 DUP6 DUP3 DUP7 ADD PUSH2 0x10E4 JUMP JUMPDEST SWAP3 POP POP PUSH1 0x20 PUSH2 0x130A DUP6 DUP3 DUP7 ADD PUSH2 0x12BF JUMP JUMPDEST SWAP2 POP POP SWAP3 POP SWAP3 SWAP1 POP JUMP JUMPDEST PUSH1 0x0 PUSH1 0x20 DUP3 ADD SWAP1 POP PUSH2 0x1329 PUSH1 0x0 DUP4 ADD DUP5 PUSH2 0x1141 JUMP JUMPDEST SWAP3 SWAP2 POP POP JUMP JUMPDEST PUSH1 0x0 PUSH1 0x20 DUP3 ADD SWAP1 POP PUSH2 0x1344 PUSH1 0x0 DUP4 ADD DUP5 PUSH2 0x1182 JUMP JUMPDEST SWAP3 SWAP2 POP POP JUMP JUMPDEST PUSH1 0x0 DUP1 PUSH1 0x40 DUP4 DUP6 SUB SLT ISZERO PUSH2 0x1361 JUMPI PUSH2 0x1360 PUSH2 0x10BE JUMP JUMPDEST JUMPDEST PUSH1 0x0 PUSH2 0x136F DUP6 DUP3 DUP7 ADD PUSH2 0x10E4 JUMP JUMPDEST SWAP3 POP POP PUSH1 0x20 PUSH2 0x1380 DUP6 DUP3 DUP7 ADD PUSH2 0x10E4 JUMP JUMPDEST SWAP2 POP POP SWAP3 POP SWAP3 SWAP1 POP JUMP JUMPDEST PUSH1 0x0 PUSH1 0x20 DUP3 ADD SWAP1 POP PUSH2 0x139F PUSH1 0x0 DUP4 ADD DUP5 PUSH2 0x1132 JUMP JUMPDEST SWAP3 SWAP2 POP POP JUMP JUMPDEST PUSH1 0x0 DUP2 MLOAD SWAP1 POP SWAP2 SWAP1 POP JUMP JUMPDEST PUSH1 0x0 DUP3 DUP3 MSTORE PUSH1 0x20 DUP3 ADD SWAP1 POP SWAP3 SWAP2 POP POP JUMP JUMPDEST PUSH1 0x0 DUP2 SWAP1 POP PUSH1 0x20 DUP3 ADD SWAP1 POP SWAP2 SWAP1 POP JUMP JUMPDEST PUSH2 0x13DA DUP2 PUSH2 0x10C3 JUMP JUMPDEST DUP3 MSTORE POP POP JUMP JUMPDEST PUSH1 0x0 PUSH2 0x13EC DUP4 DUP4 PUSH2 0x13D1 JUMP JUMPDEST PUSH1 0x20 DUP4 ADD SWAP1 POP SWAP3 SWAP2 POP POP JUMP JUMPDEST PUSH1 0x0 PUSH1 0x20 DUP3 ADD SWAP1 POP SWAP2 SWAP1 POP JUMP JUMPDEST PUSH1 0x0 PUSH2 0x1410 DUP3 PUSH2 0x13A5 JUMP JUMPDEST PUSH2 0x141A DUP2 DUP6 PUSH2 0x13B0 JUMP JUMPDEST SWAP4 POP PUSH2 0x1425 DUP4 PUSH2 0x13C1 JUMP JUMPDEST DUP1 PUSH1 0x0 JUMPDEST DUP4 DUP2 LT ISZERO PUSH2 0x1456 JUMPI DUP2 MLOAD PUSH2 0x143D DUP9 DUP3 PUSH2 0x13E0 JUMP JUMPDEST SWAP8 POP PUSH2 0x1448 DUP4 PUSH2 0x13F8 JUMP JUMPDEST SWAP3 POP POP PUSH1 0x1 DUP2 ADD SWAP1 POP PUSH2 0x1429 JUMP JUMPDEST POP DUP6 SWAP4 POP POP POP POP SWAP3 SWAP2 POP POP JUMP JUMPDEST PUSH1 0x0 PUSH1 0x20 DUP3 ADD SWAP1 POP DUP2 DUP2 SUB PUSH1 0x0 DUP4 ADD MSTORE PUSH2 0x147D DUP2 DUP5 PUSH2 0x1405 JUMP JUMPDEST SWAP1 POP SWAP3 SWAP2 POP POP JUMP JUMPDEST PUSH1 0x0 PUSH1 0x20 DUP3 DUP5 SUB SLT ISZERO PUSH2 0x149B JUMPI PUSH2 0x149A PUSH2 0x10BE JUMP JUMPDEST JUMPDEST PUSH1 0x0 PUSH2 0x14A9 DUP5 DUP3 DUP6 ADD PUSH2 0x12BF JUMP JUMPDEST SWAP2 POP POP SWAP3 SWAP2 POP POP JUMP JUMPDEST PUSH1 0x0 DUP3 DUP3 MSTORE PUSH1 0x20 DUP3 ADD SWAP1 POP SWAP3 SWAP2 POP POP JUMP JUMPDEST PUSH32 0x47616D6520496E697469616C697A656400000000000000000000000000000000 PUSH1 0x0 DUP3 ADD MSTORE POP JUMP JUMPDEST PUSH1 0x0 PUSH2 0x14F9 PUSH1 0x10 DUP4 PUSH2 0x14B2 JUMP JUMPDEST SWAP2 POP PUSH2 0x1504 DUP3 PUSH2 0x14C3 JUMP JUMPDEST PUSH1 0x20 DUP3 ADD SWAP1 POP SWAP2 SWAP1 POP JUMP JUMPDEST PUSH1 0x0 PUSH1 0x20 DUP3 ADD SWAP1 POP DUP2 DUP2 SUB PUSH1 0x0 DUP4 ADD MSTORE PUSH2 0x1528 DUP2 PUSH2 0x14EC JUMP JUMPDEST SWAP1 POP SWAP2 SWAP1 POP JUMP JUMPDEST PUSH32 0x46696E6973686564000000000000000000000000000000000000000000000000 PUSH1 0x0 DUP3 ADD MSTORE POP JUMP JUMPDEST PUSH1 0x0 PUSH2 0x1565 PUSH1 0x8 DUP4 PUSH2 0x14B2 JUMP JUMPDEST SWAP2 POP PUSH2 0x1570 DUP3 PUSH2 0x152F JUMP JUMPDEST PUSH1 0x20 DUP3 ADD SWAP1 POP SWAP2 SWAP1 POP JUMP JUMPDEST PUSH1 0x0 PUSH1 0x20 DUP3 ADD SWAP1 POP DUP2 DUP2 SUB PUSH1 0x0 DUP4 ADD MSTORE PUSH2 0x1594 DUP2 PUSH2 0x1558 JUMP JUMPDEST SWAP1 POP SWAP2 SWAP1 POP JUMP JUMPDEST PUSH1 0x0 PUSH1 0x40 DUP3 ADD SWAP1 POP PUSH2 0x15B0 PUSH1 0x0 DUP4 ADD DUP6 PUSH2 0x1182 JUMP JUMPDEST PUSH2 0x15BD PUSH1 0x20 DUP4 ADD DUP5 PUSH2 0x1141 JUMP JUMPDEST SWAP4 SWAP3 POP POP POP JUMP JUMPDEST PUSH2 0x15CD DUP2 PUSH2 0x1126 JUMP JUMPDEST DUP2 EQ PUSH2 0x15D8 JUMPI PUSH1 0x0 DUP1 REVERT JUMPDEST POP JUMP JUMPDEST PUSH1 0x0 DUP2 MLOAD SWAP1 POP PUSH2 0x15EA DUP2 PUSH2 0x15C4 JUMP JUMPDEST SWAP3 SWAP2 POP POP JUMP JUMPDEST PUSH1 0x0 PUSH1 0x20 DUP3 DUP5 SUB SLT ISZERO PUSH2 0x1606 JUMPI PUSH2 0x1605 PUSH2 0x10BE JUMP JUMPDEST JUMPDEST PUSH1 0x0 PUSH2 0x1614 DUP5 DUP3 DUP6 ADD PUSH2 0x15DB JUMP JUMPDEST SWAP2 POP POP SWAP3 SWAP2 POP POP JUMP JUMPDEST PUSH32 0x5265776172642073686F756C6420737563636573730000000000000000000000 PUSH1 0x0 DUP3 ADD MSTORE POP JUMP JUMPDEST PUSH1 0x0 PUSH2 0x1653 PUSH1 0x15 DUP4 PUSH2 0x14B2 JUMP JUMPDEST SWAP2 POP PUSH2 0x165E DUP3 PUSH2 0x161D JUMP JUMPDEST PUSH1 0x20 DUP3 ADD SWAP1 POP SWAP2 SWAP1 POP JUMP JUMPDEST PUSH1 0x0 PUSH1 0x20 DUP3 ADD SWAP1 POP DUP2 DUP2 SUB PUSH1 0x0 DUP4 ADD MSTORE PUSH2 0x1682 DUP2 PUSH2 0x1646 JUMP JUMPDEST SWAP1 POP SWAP2 SWAP1 POP JUMP JUMPDEST PUSH1 0x0 DUP2 MLOAD SWAP1 POP PUSH2 0x1698 DUP2 PUSH2 0x10CD JUMP JUMPDEST SWAP3 SWAP2 POP POP JUMP JUMPDEST PUSH1 0x0 PUSH1 0x20 DUP3 DUP5 SUB SLT ISZERO PUSH2 0x16B4 JUMPI PUSH2 0x16B3 PUSH2 0x10BE JUMP JUMPDEST JUMPDEST PUSH1 0x0 PUSH2 0x16C2 DUP5 DUP3 DUP6 ADD PUSH2 0x1689 JUMP JUMPDEST SWAP2 POP POP SWAP3 SWAP2 POP POP JUMP JUMPDEST PUSH32 0x456E6F7567682062616C616E6365000000000000000000000000000000000000 PUSH1 0x0 DUP3 ADD MSTORE POP JUMP JUMPDEST PUSH1 0x0 PUSH2 0x1701 PUSH1 0xE DUP4 PUSH2 0x14B2 JUMP JUMPDEST SWAP2 POP PUSH2 0x170C DUP3 PUSH2 0x16CB JUMP JUMPDEST PUSH1 0x20 DUP3 ADD SWAP1 POP SWAP2 SWAP1 POP JUMP JUMPDEST PUSH1 0x0 PUSH1 0x20 DUP3 ADD SWAP1 POP DUP2 DUP2 SUB PUSH1 0x0 DUP4 ADD MSTORE PUSH2 0x1730 DUP2 PUSH2 0x16F4 JUMP JUMPDEST SWAP1 POP SWAP2 SWAP1 POP JUMP JUMPDEST PUSH1 0x0 PUSH1 0x60 DUP3 ADD SWAP1 POP PUSH2 0x174C PUSH1 0x0 DUP4 ADD DUP7 PUSH2 0x1182 JUMP JUMPDEST PUSH2 0x1759 PUSH1 0x20 DUP4 ADD DUP6 PUSH2 0x1182 JUMP JUMPDEST PUSH2 0x1766 PUSH1 0x40 DUP4 ADD DUP5 PUSH2 0x1141 JUMP JUMPDEST SWAP5 SWAP4 POP POP POP POP JUMP JUMPDEST PUSH32 0x5472616E736665722073686F756C642073756363657373000000000000000000 PUSH1 0x0 DUP3 ADD MSTORE POP JUMP JUMPDEST PUSH1 0x0 PUSH2 0x17A4 PUSH1 0x17 DUP4 PUSH2 0x14B2 JUMP JUMPDEST SWAP2 POP PUSH2 0x17AF DUP3 PUSH2 0x176E JUMP JUMPDEST PUSH1 0x20 DUP3 ADD SWAP1 POP SWAP2 SWAP1 POP JUMP JUMPDEST PUSH1 0x0 PUSH1 0x20 DUP3 ADD SWAP1 POP DUP2 DUP2 SUB PUSH1 0x0 DUP4 ADD MSTORE PUSH2 0x17D3 DUP2 PUSH2 0x1797 JUMP JUMPDEST SWAP1 POP SWAP2 SWAP1 POP JUMP JUMPDEST PUSH32 0x4E487B7100000000000000000000000000000000000000000000000000000000 PUSH1 0x0 MSTORE PUSH1 0x11 PUSH1 0x4 MSTORE PUSH1 0x24 PUSH1 0x0 REVERT JUMPDEST PUSH1 0x0 PUSH2 0x1814 DUP3 PUSH2 0x10C3 JUMP JUMPDEST SWAP2 POP PUSH2 0x181F DUP4 PUSH2 0x10C3 JUMP JUMPDEST SWAP3 POP DUP3 DUP3 ADD SWAP1 POP DUP1 DUP3 GT ISZERO PUSH2 0x1837 JUMPI PUSH2 0x1836 PUSH2 0x17DA JUMP JUMPDEST JUMPDEST SWAP3 SWAP2 POP POP JUMP JUMPDEST PUSH32 0x47616D6520657869737473000000000000000000000000000000000000000000 PUSH1 0x0 DUP3 ADD MSTORE POP JUMP JUMPDEST PUSH1 0x0 PUSH2 0x1873 PUSH1 0xB DUP4 PUSH2 0x14B2 JUMP JUMPDEST SWAP2 POP PUSH2 0x187E DUP3 PUSH2 0x183D JUMP JUMPDEST PUSH1 0x20 DUP3 ADD SWAP1 POP SWAP2 SWAP1 POP JUMP JUMPDEST PUSH1 0x0 PUSH1 0x20 DUP3 ADD SWAP1 POP DUP2 DUP2 SUB PUSH1 0x0 DUP4 ADD MSTORE PUSH2 0x18A2 DUP2 PUSH2 0x1866 JUMP JUMPDEST SWAP1 POP SWAP2 SWAP1 POP JUMP INVALID LOG2 PUSH5 0x6970667358 0x22 SLT KECCAK256 0xA7 PUSH30 0x9415CBB3AEFEB23B426FC4C376DBF41AB552C2098C85917B0FAC4AC3BF64 PUSH5 0x736F6C6343 STOP ADDMOD SLT STOP CALLER "
				},
				"gasEstimates": {
					"creation": {
						"codeDepositCost": "1273400",
						"executionCost": "infinite",
						"totalCost": "infinite"
					},
					"external": {
						"bet(uint256,uint256)": "infinite",
						"feePercent()": "2452",
						"finish(uint256,address)": "infinite",
						"gameIds(uint256)": "infinite",
						"gameUsers(uint256)": "infinite",
						"games(uint256)": "infinite",
						"getBetting(uint256,address)": "infinite",
						"listGameIds()": "infinite",
						"myBetting(uint256)": "infinite",
						"owner()": "2567",
						"renounceOwnership()": "infinite",
						"setErc20(address)": "infinite",
						"startGame(uint256)": "73681",
						"tokenContract()": "2559",
						"transferOwnership(address)": "infinite"
					}
				},
				"methodIdentifiers": {
					"bet(uint256,uint256)": "6ffcc719",
					"feePercent()": "7fd6f15c",
					"finish(uint256,address)": "2c32b187",
					"gameIds(uint256)": "d82c13f0",
					"gameUsers(uint256)": "16b169c4",
					"games(uint256)": "117a5b90",
					"getBetting(uint256,address)": "34fcc3e7",
					"listGameIds()": "9bc01b36",
					"myBetting(uint256)": "ce33bd74",
					"owner()": "8da5cb5b",
					"renounceOwnership()": "715018a6",
					"setErc20(address)": "ee9b80a4",
					"startGame(uint256)": "e5ed1d59",
					"tokenContract()": "55a373d6",
					"transferOwnership(address)": "f2fde38b"
				}
			},
			"storageLayout": {
				"storage": [
					{
						"astId": 444,
						"contract": "contracts/4_Hello.sol:Hello",
						"label": "_owner",
						"offset": 0,
						"slot": "0",
						"type": "t_address"
					},
					{
						"astId": 30,
						"contract": "contracts/4_Hello.sol:Hello",
						"label": "games",
						"offset": 0,
						"slot": "1",
						"type": "t_mapping(t_uint256,t_struct(Game)25_storage)"
					},
					{
						"astId": 33,
						"contract": "contracts/4_Hello.sol:Hello",
						"label": "gameIds",
						"offset": 0,
						"slot": "2",
						"type": "t_array(t_uint256)dyn_storage"
					},
					{
						"astId": 35,
						"contract": "contracts/4_Hello.sol:Hello",
						"label": "tokenContract",
						"offset": 0,
						"slot": "3",
						"type": "t_address"
					},
					{
						"astId": 38,
						"contract": "contracts/4_Hello.sol:Hello",
						"label": "feePercent",
						"offset": 0,
						"slot": "4",
						"type": "t_uint256"
					}
				],
				"types": {
					"t_address": {
						"encoding": "inplace",
						"label": "address",
						"numberOfBytes": "20"
					},
					"t_array(t_address)dyn_storage": {
						"base": "t_address",
						"encoding": "dynamic_array",
						"label": "address[]",
						"numberOfBytes": "32"
					},
					"t_array(t_uint256)dyn_storage": {
						"base": "t_uint256",
						"encoding": "dynamic_array",
						"label": "uint256[]",
						"numberOfBytes": "32"
					},
					"t_bool": {
						"encoding": "inplace",
						"label": "bool",
						"numberOfBytes": "1"
					},
					"t_mapping(t_address,t_uint256)": {
						"encoding": "mapping",
						"key": "t_address",
						"label": "mapping(address => uint256)",
						"numberOfBytes": "32",
						"value": "t_uint256"
					},
					"t_mapping(t_uint256,t_struct(Game)25_storage)": {
						"encoding": "mapping",
						"key": "t_uint256",
						"label": "mapping(uint256 => struct Hello.Game)",
						"numberOfBytes": "32",
						"value": "t_struct(Game)25_storage"
					},
					"t_struct(Game)25_storage": {
						"encoding": "inplace",
						"label": "struct Hello.Game",
						"members": [
							{
								"astId": 13,
								"contract": "contracts/4_Hello.sol:Hello",
								"label": "initialized",
								"offset": 0,
								"slot": "0",
								"type": "t_bool"
							},
							{
								"astId": 17,
								"contract": "contracts/4_Hello.sol:Hello",
								"label": "bettings",
								"offset": 0,
								"slot": "1",
								"type": "t_mapping(t_address,t_uint256)"
							},
							{
								"astId": 19,
								"contract": "contracts/4_Hello.sol:Hello",
								"label": "totalBettings",
								"offset": 0,
								"slot": "2",
								"type": "t_uint256"
							},
							{
								"astId": 22,
								"contract": "contracts/4_Hello.sol:Hello",
								"label": "users",
								"offset": 0,
								"slot": "3",
								"type": "t_array(t_address)dyn_storage"
							},
							{
								"astId": 24,
								"contract": "contracts/4_Hello.sol:Hello",
								"label": "winner",
								"offset": 0,
								"slot": "4",
								"type": "t_address"
							}
						],
						"numberOfBytes": "160"
					},
					"t_uint256": {
						"encoding": "inplace",
						"label": "uint256",
						"numberOfBytes": "32"
					}
				}
			},
			"userdoc": {
				"kind": "user",
				"methods": {},
				"version": 1
			}
		}
	}
}