{
	"contracts/4_Hello.sol": {
		"Hello": {
			"abi": [
				{
					"inputs": [],
					"stateMutability": "nonpayable",
					"type": "constructor"
				},
				{
					"inputs": [
						{
							"internalType": "uint256",
							"name": "gameId",
							"type": "uint256"
						},
						{
							"internalType": "uint256",
							"name": "amount",
							"type": "uint256"
						}
					],
					"name": "bet",
					"outputs": [
						{
							"internalType": "bool",
							"name": "",
							"type": "bool"
						}
					],
					"stateMutability": "nonpayable",
					"type": "function"
				},
				{
					"inputs": [
						{
							"internalType": "uint256",
							"name": "gameId",
							"type": "uint256"
						},
						{
							"internalType": "address",
							"name": "winner",
							"type": "address"
						}
					],
					"name": "finish",
					"outputs": [
						{
							"internalType": "uint256",
							"name": "",
							"type": "uint256"
						}
					],
					"stateMutability": "nonpayable",
					"type": "function"
				},
				{
					"inputs": [
						{
							"internalType": "uint256",
							"name": "",
							"type": "uint256"
						}
					],
					"name": "gameIds",
					"outputs": [
						{
							"internalType": "uint256",
							"name": "",
							"type": "uint256"
						}
					],
					"stateMutability": "view",
					"type": "function"
				},
				{
					"inputs": [
						{
							"internalType": "uint256",
							"name": "gameId",
							"type": "uint256"
						}
					],
					"name": "gameUsers",
					"outputs": [
						{
							"internalType": "address[]",
							"name": "",
							"type": "address[]"
						}
					],
					"stateMutability": "view",
					"type": "function"
				},
				{
					"inputs": [
						{
							"internalType": "uint256",
							"name": "",
							"type": "uint256"
						}
					],
					"name": "games",
					"outputs": [
						{
							"internalType": "bool",
							"name": "initialized",
							"type": "bool"
						},
						{
							"internalType": "uint256",
							"name": "totalBettings",
							"type": "uint256"
						},
						{
							"internalType": "address",
							"name": "winner",
							"type": "address"
						}
					],
					"stateMutability": "view",
					"type": "function"
				},
				{
					"inputs": [
						{
							"internalType": "uint256",
							"name": "gameId",
							"type": "uint256"
						},
						{
							"internalType": "address",
							"name": "better",
							"type": "address"
						}
					],
					"name": "getBetting",
					"outputs": [
						{
							"internalType": "uint256",
							"name": "",
							"type": "uint256"
						}
					],
					"stateMutability": "view",
					"type": "function"
				},
				{
					"inputs": [],
					"name": "listGameIds",
					"outputs": [
						{
							"internalType": "uint256[]",
							"name": "",
							"type": "uint256[]"
						}
					],
					"stateMutability": "view",
					"type": "function"
				},
				{
					"inputs": [
						{
							"internalType": "uint256",
							"name": "gameId",
							"type": "uint256"
						}
					],
					"name": "myBetting",
					"outputs": [
						{
							"internalType": "uint256",
							"name": "",
							"type": "uint256"
						}
					],
					"stateMutability": "view",
					"type": "function"
				},
				{
					"inputs": [
						{
							"internalType": "uint256",
							"name": "newId",
							"type": "uint256"
						}
					],
					"name": "startGame",
					"outputs": [
						{
							"internalType": "bool",
							"name": "",
							"type": "bool"
						}
					],
					"stateMutability": "nonpayable",
					"type": "function"
				}
			],
			"devdoc": {
				"details": "Implements voting process along with vote delegation",
				"kind": "dev",
				"methods": {},
				"title": "Ballot",
				"version": 1
			},
			"evm": {
				"assembly": "    /* \"contracts/4_Hello.sol\":126:2158  contract Hello {... */\n  mstore(0x40, 0x80)\n    /* \"contracts/4_Hello.sol\":398:420  constructor() {... */\n  callvalue\n  dup1\n  iszero\n  tag_1\n  jumpi\n  0x00\n  dup1\n  revert\ntag_1:\n  pop\n    /* \"contracts/4_Hello.sol\":126:2158  contract Hello {... */\n  dataSize(sub_0)\n  dup1\n  dataOffset(sub_0)\n  0x00\n  codecopy\n  0x00\n  return\nstop\n\nsub_0: assembly {\n        /* \"contracts/4_Hello.sol\":126:2158  contract Hello {... */\n      mstore(0x40, 0x80)\n      callvalue\n      dup1\n      iszero\n      tag_1\n      jumpi\n      0x00\n      dup1\n      revert\n    tag_1:\n      pop\n      jumpi(tag_2, lt(calldatasize, 0x04))\n      shr(0xe0, calldataload(0x00))\n      dup1\n      0x6ffcc719\n      gt\n      tag_12\n      jumpi\n      dup1\n      0x6ffcc719\n      eq\n      tag_7\n      jumpi\n      dup1\n      0x9bc01b36\n      eq\n      tag_8\n      jumpi\n      dup1\n      0xce33bd74\n      eq\n      tag_9\n      jumpi\n      dup1\n      0xd82c13f0\n      eq\n      tag_10\n      jumpi\n      dup1\n      0xe5ed1d59\n      eq\n      tag_11\n      jumpi\n      jump(tag_2)\n    tag_12:\n      dup1\n      0x117a5b90\n      eq\n      tag_3\n      jumpi\n      dup1\n      0x16b169c4\n      eq\n      tag_4\n      jumpi\n      dup1\n      0x2c32b187\n      eq\n      tag_5\n      jumpi\n      dup1\n      0x34fcc3e7\n      eq\n      tag_6\n      jumpi\n    tag_2:\n      0x00\n      dup1\n      revert\n        /* \"contracts/4_Hello.sol\":327:361  mapping(uint => Game) public games */\n    tag_3:\n      tag_13\n      0x04\n      dup1\n      calldatasize\n      sub\n      dup2\n      add\n      swap1\n      tag_14\n      swap2\n      swap1\n      tag_15\n      jump\t// in\n    tag_14:\n      tag_16\n      jump\t// in\n    tag_13:\n      mload(0x40)\n      tag_17\n      swap4\n      swap3\n      swap2\n      swap1\n      tag_18\n      jump\t// in\n    tag_17:\n      mload(0x40)\n      dup1\n      swap2\n      sub\n      swap1\n      return\n        /* \"contracts/4_Hello.sol\":1575:1756  function gameUsers(uint gameId) public view returns (address[] memory) {... */\n    tag_4:\n      tag_19\n      0x04\n      dup1\n      calldatasize\n      sub\n      dup2\n      add\n      swap1\n      tag_20\n      swap2\n      swap1\n      tag_15\n      jump\t// in\n    tag_20:\n      tag_21\n      jump\t// in\n    tag_19:\n      mload(0x40)\n      tag_22\n      swap2\n      swap1\n      tag_23\n      jump\t// in\n    tag_22:\n      mload(0x40)\n      dup1\n      swap2\n      sub\n      swap1\n      return\n        /* \"contracts/4_Hello.sol\":1242:1567  function finish(uint gameId, address winner) public returns (uint) {... */\n    tag_5:\n      tag_24\n      0x04\n      dup1\n      calldatasize\n      sub\n      dup2\n      add\n      swap1\n      tag_25\n      swap2\n      swap1\n      tag_26\n      jump\t// in\n    tag_25:\n      tag_27\n      jump\t// in\n    tag_24:\n      mload(0x40)\n      tag_28\n      swap2\n      swap1\n      tag_29\n      jump\t// in\n    tag_28:\n      mload(0x40)\n      dup1\n      swap2\n      sub\n      swap1\n      return\n        /* \"contracts/4_Hello.sol\":1764:1961  function getBetting(uint gameId, address better) public view returns (uint) {... */\n    tag_6:\n      tag_30\n      0x04\n      dup1\n      calldatasize\n      sub\n      dup2\n      add\n      swap1\n      tag_31\n      swap2\n      swap1\n      tag_26\n      jump\t// in\n    tag_31:\n      tag_32\n      jump\t// in\n    tag_30:\n      mload(0x40)\n      tag_33\n      swap2\n      swap1\n      tag_29\n      jump\t// in\n    tag_33:\n      mload(0x40)\n      dup1\n      swap2\n      sub\n      swap1\n      return\n        /* \"contracts/4_Hello.sol\":759:1234  function bet(uint gameId, uint amount) public returns (bool) {... */\n    tag_7:\n      tag_34\n      0x04\n      dup1\n      calldatasize\n      sub\n      dup2\n      add\n      swap1\n      tag_35\n      swap2\n      swap1\n      tag_36\n      jump\t// in\n    tag_35:\n      tag_37\n      jump\t// in\n    tag_34:\n      mload(0x40)\n      tag_38\n      swap2\n      swap1\n      tag_39\n      jump\t// in\n    tag_38:\n      mload(0x40)\n      dup1\n      swap2\n      sub\n      swap1\n      return\n        /* \"contracts/4_Hello.sol\":659:751  function listGameIds() public view returns (uint[] memory) {... */\n    tag_8:\n      tag_40\n      tag_41\n      jump\t// in\n    tag_40:\n      mload(0x40)\n      tag_42\n      swap2\n      swap1\n      tag_43\n      jump\t// in\n    tag_42:\n      mload(0x40)\n      dup1\n      swap2\n      sub\n      swap1\n      return\n        /* \"contracts/4_Hello.sol\":1969:2155  function myBetting(uint gameId) public view returns (uint) {... */\n    tag_9:\n      tag_44\n      0x04\n      dup1\n      calldatasize\n      sub\n      dup2\n      add\n      swap1\n      tag_45\n      swap2\n      swap1\n      tag_15\n      jump\t// in\n    tag_45:\n      tag_46\n      jump\t// in\n    tag_44:\n      mload(0x40)\n      tag_47\n      swap2\n      swap1\n      tag_29\n      jump\t// in\n    tag_47:\n      mload(0x40)\n      dup1\n      swap2\n      sub\n      swap1\n      return\n        /* \"contracts/4_Hello.sol\":368:389  uint[] public gameIds */\n    tag_10:\n      tag_48\n      0x04\n      dup1\n      calldatasize\n      sub\n      dup2\n      add\n      swap1\n      tag_49\n      swap2\n      swap1\n      tag_15\n      jump\t// in\n    tag_49:\n      tag_50\n      jump\t// in\n    tag_48:\n      mload(0x40)\n      tag_51\n      swap2\n      swap1\n      tag_29\n      jump\t// in\n    tag_51:\n      mload(0x40)\n      dup1\n      swap2\n      sub\n      swap1\n      return\n        /* \"contracts/4_Hello.sol\":428:651  function startGame(uint newId) public returns (bool) {... */\n    tag_11:\n      tag_52\n      0x04\n      dup1\n      calldatasize\n      sub\n      dup2\n      add\n      swap1\n      tag_53\n      swap2\n      swap1\n      tag_15\n      jump\t// in\n    tag_53:\n      tag_54\n      jump\t// in\n    tag_52:\n      mload(0x40)\n      tag_55\n      swap2\n      swap1\n      tag_39\n      jump\t// in\n    tag_55:\n      mload(0x40)\n      dup1\n      swap2\n      sub\n      swap1\n      return\n        /* \"contracts/4_Hello.sol\":327:361  mapping(uint => Game) public games */\n    tag_16:\n      mstore(0x20, 0x00)\n      dup1\n      0x00\n      mstore\n      keccak256(0x00, 0x40)\n      0x00\n      swap2\n      pop\n      swap1\n      pop\n      dup1\n      0x00\n      add\n      0x00\n      swap1\n      sload\n      swap1\n      0x0100\n      exp\n      swap1\n      div\n      0xff\n      and\n      swap1\n      dup1\n      0x02\n      add\n      sload\n      swap1\n      dup1\n      0x04\n      add\n      0x00\n      swap1\n      sload\n      swap1\n      0x0100\n      exp\n      swap1\n      div\n      0xffffffffffffffffffffffffffffffffffffffff\n      and\n      swap1\n      pop\n      dup4\n      jump\t// out\n        /* \"contracts/4_Hello.sol\":1575:1756  function gameUsers(uint gameId) public view returns (address[] memory) {... */\n    tag_21:\n        /* \"contracts/4_Hello.sol\":1628:1644  address[] memory */\n      0x60\n        /* \"contracts/4_Hello.sol\":1665:1670  games */\n      0x00\n        /* \"contracts/4_Hello.sol\":1665:1678  games[gameId] */\n      dup1\n        /* \"contracts/4_Hello.sol\":1671:1677  gameId */\n      dup4\n        /* \"contracts/4_Hello.sol\":1665:1678  games[gameId] */\n      dup2\n      mstore\n      0x20\n      add\n      swap1\n      dup2\n      mstore\n      0x20\n      add\n      0x00\n      keccak256\n        /* \"contracts/4_Hello.sol\":1665:1690  games[gameId].initialized */\n      0x00\n      add\n      0x00\n      swap1\n      sload\n      swap1\n      0x0100\n      exp\n      swap1\n      div\n      0xff\n      and\n        /* \"contracts/4_Hello.sol\":1657:1711  require(games[gameId].initialized, \"Game Initialized\") */\n      tag_57\n      jumpi\n      mload(0x40)\n      0x08c379a000000000000000000000000000000000000000000000000000000000\n      dup2\n      mstore\n      0x04\n      add\n      tag_58\n      swap1\n      tag_59\n      jump\t// in\n    tag_58:\n      mload(0x40)\n      dup1\n      swap2\n      sub\n      swap1\n      revert\n    tag_57:\n        /* \"contracts/4_Hello.sol\":1729:1734  games */\n      0x00\n        /* \"contracts/4_Hello.sol\":1729:1742  games[gameId] */\n      dup1\n        /* \"contracts/4_Hello.sol\":1735:1741  gameId */\n      dup4\n        /* \"contracts/4_Hello.sol\":1729:1742  games[gameId] */\n      dup2\n      mstore\n      0x20\n      add\n      swap1\n      dup2\n      mstore\n      0x20\n      add\n      0x00\n      keccak256\n        /* \"contracts/4_Hello.sol\":1729:1748  games[gameId].users */\n      0x03\n      add\n        /* \"contracts/4_Hello.sol\":1722:1748  return games[gameId].users */\n      dup1\n      sload\n      dup1\n      0x20\n      mul\n      0x20\n      add\n      mload(0x40)\n      swap1\n      dup2\n      add\n      0x40\n      mstore\n      dup1\n      swap3\n      swap2\n      swap1\n      dup2\n      dup2\n      mstore\n      0x20\n      add\n      dup3\n      dup1\n      sload\n      dup1\n      iszero\n      tag_60\n      jumpi\n      0x20\n      mul\n      dup3\n      add\n      swap2\n      swap1\n      0x00\n      mstore\n      keccak256(0x00, 0x20)\n      swap1\n    tag_61:\n      dup2\n      0x00\n      swap1\n      sload\n      swap1\n      0x0100\n      exp\n      swap1\n      div\n      0xffffffffffffffffffffffffffffffffffffffff\n      and\n      0xffffffffffffffffffffffffffffffffffffffff\n      and\n      dup2\n      mstore\n      0x20\n      add\n      swap1\n      0x01\n      add\n      swap1\n      dup1\n      dup4\n      gt\n      tag_61\n      jumpi\n    tag_60:\n      pop\n      pop\n      pop\n      pop\n      pop\n      swap1\n      pop\n        /* \"contracts/4_Hello.sol\":1575:1756  function gameUsers(uint gameId) public view returns (address[] memory) {... */\n      swap2\n      swap1\n      pop\n      jump\t// out\n        /* \"contracts/4_Hello.sol\":1242:1567  function finish(uint gameId, address winner) public returns (uint) {... */\n    tag_27:\n        /* \"contracts/4_Hello.sol\":1303:1307  uint */\n      0x00\n        /* \"contracts/4_Hello.sol\":1328:1333  games */\n      dup1\n        /* \"contracts/4_Hello.sol\":1328:1341  games[gameId] */\n      0x00\n        /* \"contracts/4_Hello.sol\":1334:1340  gameId */\n      dup5\n        /* \"contracts/4_Hello.sol\":1328:1341  games[gameId] */\n      dup2\n      mstore\n      0x20\n      add\n      swap1\n      dup2\n      mstore\n      0x20\n      add\n      0x00\n      keccak256\n        /* \"contracts/4_Hello.sol\":1328:1353  games[gameId].initialized */\n      0x00\n      add\n      0x00\n      swap1\n      sload\n      swap1\n      0x0100\n      exp\n      swap1\n      div\n      0xff\n      and\n        /* \"contracts/4_Hello.sol\":1320:1374  require(games[gameId].initialized, \"Game Initialized\") */\n      tag_63\n      jumpi\n      mload(0x40)\n      0x08c379a000000000000000000000000000000000000000000000000000000000\n      dup2\n      mstore\n      0x04\n      add\n      tag_64\n      swap1\n      tag_59\n      jump\t// in\n    tag_64:\n      mload(0x40)\n      dup1\n      swap2\n      sub\n      swap1\n      revert\n    tag_63:\n        /* \"contracts/4_Hello.sol\":1425:1426  0 */\n      0x00\n        /* \"contracts/4_Hello.sol\":1393:1427  games[gameId].winner == address(0) */\n      0xffffffffffffffffffffffffffffffffffffffff\n      and\n        /* \"contracts/4_Hello.sol\":1393:1398  games */\n      0x00\n        /* \"contracts/4_Hello.sol\":1393:1406  games[gameId] */\n      dup1\n        /* \"contracts/4_Hello.sol\":1399:1405  gameId */\n      dup6\n        /* \"contracts/4_Hello.sol\":1393:1406  games[gameId] */\n      dup2\n      mstore\n      0x20\n      add\n      swap1\n      dup2\n      mstore\n      0x20\n      add\n      0x00\n      keccak256\n        /* \"contracts/4_Hello.sol\":1393:1413  games[gameId].winner */\n      0x04\n      add\n      0x00\n      swap1\n      sload\n      swap1\n      0x0100\n      exp\n      swap1\n      div\n      0xffffffffffffffffffffffffffffffffffffffff\n      and\n        /* \"contracts/4_Hello.sol\":1393:1427  games[gameId].winner == address(0) */\n      0xffffffffffffffffffffffffffffffffffffffff\n      and\n      eq\n        /* \"contracts/4_Hello.sol\":1385:1440  require(games[gameId].winner == address(0), \"Finished\") */\n      tag_65\n      jumpi\n      mload(0x40)\n      0x08c379a000000000000000000000000000000000000000000000000000000000\n      dup2\n      mstore\n      0x04\n      add\n      tag_66\n      swap1\n      tag_67\n      jump\t// in\n    tag_66:\n      mload(0x40)\n      dup1\n      swap2\n      sub\n      swap1\n      revert\n    tag_65:\n        /* \"contracts/4_Hello.sol\":1474:1480  winner */\n      dup2\n        /* \"contracts/4_Hello.sol\":1451:1456  games */\n      0x00\n        /* \"contracts/4_Hello.sol\":1451:1464  games[gameId] */\n      dup1\n        /* \"contracts/4_Hello.sol\":1457:1463  gameId */\n      dup6\n        /* \"contracts/4_Hello.sol\":1451:1464  games[gameId] */\n      dup2\n      mstore\n      0x20\n      add\n      swap1\n      dup2\n      mstore\n      0x20\n      add\n      0x00\n      keccak256\n        /* \"contracts/4_Hello.sol\":1451:1471  games[gameId].winner */\n      0x04\n      add\n      0x00\n        /* \"contracts/4_Hello.sol\":1451:1480  games[gameId].winner = winner */\n      0x0100\n      exp\n      dup2\n      sload\n      dup2\n      0xffffffffffffffffffffffffffffffffffffffff\n      mul\n      not\n      and\n      swap1\n      dup4\n      0xffffffffffffffffffffffffffffffffffffffff\n      and\n      mul\n      or\n      swap1\n      sstore\n      pop\n        /* \"contracts/4_Hello.sol\":1532:1537  games */\n      0x00\n        /* \"contracts/4_Hello.sol\":1532:1545  games[gameId] */\n      dup1\n        /* \"contracts/4_Hello.sol\":1538:1544  gameId */\n      dup5\n        /* \"contracts/4_Hello.sol\":1532:1545  games[gameId] */\n      dup2\n      mstore\n      0x20\n      add\n      swap1\n      dup2\n      mstore\n      0x20\n      add\n      0x00\n      keccak256\n        /* \"contracts/4_Hello.sol\":1532:1559  games[gameId].totalBettings */\n      0x02\n      add\n      sload\n        /* \"contracts/4_Hello.sol\":1525:1559  return games[gameId].totalBettings */\n      swap1\n      pop\n        /* \"contracts/4_Hello.sol\":1242:1567  function finish(uint gameId, address winner) public returns (uint) {... */\n      swap3\n      swap2\n      pop\n      pop\n      jump\t// out\n        /* \"contracts/4_Hello.sol\":1764:1961  function getBetting(uint gameId, address better) public view returns (uint) {... */\n    tag_32:\n        /* \"contracts/4_Hello.sol\":1834:1838  uint */\n      0x00\n        /* \"contracts/4_Hello.sol\":1859:1864  games */\n      dup1\n        /* \"contracts/4_Hello.sol\":1859:1872  games[gameId] */\n      0x00\n        /* \"contracts/4_Hello.sol\":1865:1871  gameId */\n      dup5\n        /* \"contracts/4_Hello.sol\":1859:1872  games[gameId] */\n      dup2\n      mstore\n      0x20\n      add\n      swap1\n      dup2\n      mstore\n      0x20\n      add\n      0x00\n      keccak256\n        /* \"contracts/4_Hello.sol\":1859:1884  games[gameId].initialized */\n      0x00\n      add\n      0x00\n      swap1\n      sload\n      swap1\n      0x0100\n      exp\n      swap1\n      div\n      0xff\n      and\n        /* \"contracts/4_Hello.sol\":1851:1905  require(games[gameId].initialized, \"Game Initialized\") */\n      tag_69\n      jumpi\n      mload(0x40)\n      0x08c379a000000000000000000000000000000000000000000000000000000000\n      dup2\n      mstore\n      0x04\n      add\n      tag_70\n      swap1\n      tag_59\n      jump\t// in\n    tag_70:\n      mload(0x40)\n      dup1\n      swap2\n      sub\n      swap1\n      revert\n    tag_69:\n        /* \"contracts/4_Hello.sol\":1923:1928  games */\n      0x00\n        /* \"contracts/4_Hello.sol\":1923:1936  games[gameId] */\n      dup1\n        /* \"contracts/4_Hello.sol\":1929:1935  gameId */\n      dup5\n        /* \"contracts/4_Hello.sol\":1923:1936  games[gameId] */\n      dup2\n      mstore\n      0x20\n      add\n      swap1\n      dup2\n      mstore\n      0x20\n      add\n      0x00\n      keccak256\n        /* \"contracts/4_Hello.sol\":1923:1945  games[gameId].bettings */\n      0x01\n      add\n        /* \"contracts/4_Hello.sol\":1923:1953  games[gameId].bettings[better] */\n      0x00\n        /* \"contracts/4_Hello.sol\":1946:1952  better */\n      dup4\n        /* \"contracts/4_Hello.sol\":1923:1953  games[gameId].bettings[better] */\n      0xffffffffffffffffffffffffffffffffffffffff\n      and\n      0xffffffffffffffffffffffffffffffffffffffff\n      and\n      dup2\n      mstore\n      0x20\n      add\n      swap1\n      dup2\n      mstore\n      0x20\n      add\n      0x00\n      keccak256\n      sload\n        /* \"contracts/4_Hello.sol\":1916:1953  return games[gameId].bettings[better] */\n      swap1\n      pop\n        /* \"contracts/4_Hello.sol\":1764:1961  function getBetting(uint gameId, address better) public view returns (uint) {... */\n      swap3\n      swap2\n      pop\n      pop\n      jump\t// out\n        /* \"contracts/4_Hello.sol\":759:1234  function bet(uint gameId, uint amount) public returns (bool) {... */\n    tag_37:\n        /* \"contracts/4_Hello.sol\":814:818  bool */\n      0x00\n        /* \"contracts/4_Hello.sol\":839:844  games */\n      dup1\n        /* \"contracts/4_Hello.sol\":839:852  games[gameId] */\n      0x00\n        /* \"contracts/4_Hello.sol\":845:851  gameId */\n      dup5\n        /* \"contracts/4_Hello.sol\":839:852  games[gameId] */\n      dup2\n      mstore\n      0x20\n      add\n      swap1\n      dup2\n      mstore\n      0x20\n      add\n      0x00\n      keccak256\n        /* \"contracts/4_Hello.sol\":839:864  games[gameId].initialized */\n      0x00\n      add\n      0x00\n      swap1\n      sload\n      swap1\n      0x0100\n      exp\n      swap1\n      div\n      0xff\n      and\n        /* \"contracts/4_Hello.sol\":831:885  require(games[gameId].initialized, \"Game Initialized\") */\n      tag_72\n      jumpi\n      mload(0x40)\n      0x08c379a000000000000000000000000000000000000000000000000000000000\n      dup2\n      mstore\n      0x04\n      add\n      tag_73\n      swap1\n      tag_59\n      jump\t// in\n    tag_73:\n      mload(0x40)\n      dup1\n      swap2\n      sub\n      swap1\n      revert\n    tag_72:\n        /* \"contracts/4_Hello.sol\":936:937  0 */\n      0x00\n        /* \"contracts/4_Hello.sol\":904:938  games[gameId].winner == address(0) */\n      0xffffffffffffffffffffffffffffffffffffffff\n      and\n        /* \"contracts/4_Hello.sol\":904:909  games */\n      0x00\n        /* \"contracts/4_Hello.sol\":904:917  games[gameId] */\n      dup1\n        /* \"contracts/4_Hello.sol\":910:916  gameId */\n      dup6\n        /* \"contracts/4_Hello.sol\":904:917  games[gameId] */\n      dup2\n      mstore\n      0x20\n      add\n      swap1\n      dup2\n      mstore\n      0x20\n      add\n      0x00\n      keccak256\n        /* \"contracts/4_Hello.sol\":904:924  games[gameId].winner */\n      0x04\n      add\n      0x00\n      swap1\n      sload\n      swap1\n      0x0100\n      exp\n      swap1\n      div\n      0xffffffffffffffffffffffffffffffffffffffff\n      and\n        /* \"contracts/4_Hello.sol\":904:938  games[gameId].winner == address(0) */\n      0xffffffffffffffffffffffffffffffffffffffff\n      and\n      eq\n        /* \"contracts/4_Hello.sol\":896:951  require(games[gameId].winner == address(0), \"Finished\") */\n      tag_74\n      jumpi\n      mload(0x40)\n      0x08c379a000000000000000000000000000000000000000000000000000000000\n      dup2\n      mstore\n      0x04\n      add\n      tag_75\n      swap1\n      tag_67\n      jump\t// in\n    tag_75:\n      mload(0x40)\n      dup1\n      swap2\n      sub\n      swap1\n      revert\n    tag_74:\n        /* \"contracts/4_Hello.sol\":1036:1037  0 */\n      0x00\n        /* \"contracts/4_Hello.sol\":998:1003  games */\n      dup1\n        /* \"contracts/4_Hello.sol\":998:1011  games[gameId] */\n      0x00\n        /* \"contracts/4_Hello.sol\":1004:1010  gameId */\n      dup6\n        /* \"contracts/4_Hello.sol\":998:1011  games[gameId] */\n      dup2\n      mstore\n      0x20\n      add\n      swap1\n      dup2\n      mstore\n      0x20\n      add\n      0x00\n      keccak256\n        /* \"contracts/4_Hello.sol\":998:1020  games[gameId].bettings */\n      0x01\n      add\n        /* \"contracts/4_Hello.sol\":998:1032  games[gameId].bettings[msg.sender] */\n      0x00\n        /* \"contracts/4_Hello.sol\":1021:1031  msg.sender */\n      caller\n        /* \"contracts/4_Hello.sol\":998:1032  games[gameId].bettings[msg.sender] */\n      0xffffffffffffffffffffffffffffffffffffffff\n      and\n      0xffffffffffffffffffffffffffffffffffffffff\n      and\n      dup2\n      mstore\n      0x20\n      add\n      swap1\n      dup2\n      mstore\n      0x20\n      add\n      0x00\n      keccak256\n      sload\n        /* \"contracts/4_Hello.sol\":998:1037  games[gameId].bettings[msg.sender] == 0 */\n      sub\n        /* \"contracts/4_Hello.sol\":994:1102  if (games[gameId].bettings[msg.sender] == 0) {... */\n      tag_76\n      jumpi\n        /* \"contracts/4_Hello.sol\":1054:1059  games */\n      0x00\n        /* \"contracts/4_Hello.sol\":1054:1067  games[gameId] */\n      dup1\n        /* \"contracts/4_Hello.sol\":1060:1066  gameId */\n      dup5\n        /* \"contracts/4_Hello.sol\":1054:1067  games[gameId] */\n      dup2\n      mstore\n      0x20\n      add\n      swap1\n      dup2\n      mstore\n      0x20\n      add\n      0x00\n      keccak256\n        /* \"contracts/4_Hello.sol\":1054:1073  games[gameId].users */\n      0x03\n      add\n        /* \"contracts/4_Hello.sol\":1079:1089  msg.sender */\n      caller\n        /* \"contracts/4_Hello.sol\":1054:1090  games[gameId].users.push(msg.sender) */\n      swap1\n      dup1\n      0x01\n      dup2\n      sload\n      add\n      dup1\n      dup3\n      sstore\n      dup1\n      swap2\n      pop\n      pop\n      0x01\n      swap1\n      sub\n      swap1\n      0x00\n      mstore\n      keccak256(0x00, 0x20)\n      add\n      0x00\n      swap1\n      swap2\n      swap1\n      swap2\n      swap1\n      swap2\n      0x0100\n      exp\n      dup2\n      sload\n      dup2\n      0xffffffffffffffffffffffffffffffffffffffff\n      mul\n      not\n      and\n      swap1\n      dup4\n      0xffffffffffffffffffffffffffffffffffffffff\n      and\n      mul\n      or\n      swap1\n      sstore\n      pop\n        /* \"contracts/4_Hello.sol\":994:1102  if (games[gameId].bettings[msg.sender] == 0) {... */\n    tag_76:\n        /* \"contracts/4_Hello.sol\":1150:1156  amount */\n      dup2\n        /* \"contracts/4_Hello.sol\":1112:1117  games */\n      0x00\n        /* \"contracts/4_Hello.sol\":1112:1125  games[gameId] */\n      dup1\n        /* \"contracts/4_Hello.sol\":1118:1124  gameId */\n      dup6\n        /* \"contracts/4_Hello.sol\":1112:1125  games[gameId] */\n      dup2\n      mstore\n      0x20\n      add\n      swap1\n      dup2\n      mstore\n      0x20\n      add\n      0x00\n      keccak256\n        /* \"contracts/4_Hello.sol\":1112:1134  games[gameId].bettings */\n      0x01\n      add\n        /* \"contracts/4_Hello.sol\":1112:1146  games[gameId].bettings[msg.sender] */\n      0x00\n        /* \"contracts/4_Hello.sol\":1135:1145  msg.sender */\n      caller\n        /* \"contracts/4_Hello.sol\":1112:1146  games[gameId].bettings[msg.sender] */\n      0xffffffffffffffffffffffffffffffffffffffff\n      and\n      0xffffffffffffffffffffffffffffffffffffffff\n      and\n      dup2\n      mstore\n      0x20\n      add\n      swap1\n      dup2\n      mstore\n      0x20\n      add\n      0x00\n      keccak256\n      0x00\n        /* \"contracts/4_Hello.sol\":1112:1156  games[gameId].bettings[msg.sender] += amount */\n      dup3\n      dup3\n      sload\n      tag_78\n      swap2\n      swap1\n      tag_79\n      jump\t// in\n    tag_78:\n      swap3\n      pop\n      pop\n      dup2\n      swap1\n      sstore\n      pop\n        /* \"contracts/4_Hello.sol\":1198:1204  amount */\n      dup2\n        /* \"contracts/4_Hello.sol\":1167:1172  games */\n      0x00\n        /* \"contracts/4_Hello.sol\":1167:1180  games[gameId] */\n      dup1\n        /* \"contracts/4_Hello.sol\":1173:1179  gameId */\n      dup6\n        /* \"contracts/4_Hello.sol\":1167:1180  games[gameId] */\n      dup2\n      mstore\n      0x20\n      add\n      swap1\n      dup2\n      mstore\n      0x20\n      add\n      0x00\n      keccak256\n        /* \"contracts/4_Hello.sol\":1167:1194  games[gameId].totalBettings */\n      0x02\n      add\n      0x00\n        /* \"contracts/4_Hello.sol\":1167:1204  games[gameId].totalBettings += amount */\n      dup3\n      dup3\n      sload\n      tag_80\n      swap2\n      swap1\n      tag_79\n      jump\t// in\n    tag_80:\n      swap3\n      pop\n      pop\n      dup2\n      swap1\n      sstore\n      pop\n        /* \"contracts/4_Hello.sol\":1222:1226  true */\n      0x01\n        /* \"contracts/4_Hello.sol\":1215:1226  return true */\n      swap1\n      pop\n        /* \"contracts/4_Hello.sol\":759:1234  function bet(uint gameId, uint amount) public returns (bool) {... */\n      swap3\n      swap2\n      pop\n      pop\n      jump\t// out\n        /* \"contracts/4_Hello.sol\":659:751  function listGameIds() public view returns (uint[] memory) {... */\n    tag_41:\n        /* \"contracts/4_Hello.sol\":703:716  uint[] memory */\n      0x60\n        /* \"contracts/4_Hello.sol\":736:743  gameIds */\n      0x01\n        /* \"contracts/4_Hello.sol\":729:743  return gameIds */\n      dup1\n      sload\n      dup1\n      0x20\n      mul\n      0x20\n      add\n      mload(0x40)\n      swap1\n      dup2\n      add\n      0x40\n      mstore\n      dup1\n      swap3\n      swap2\n      swap1\n      dup2\n      dup2\n      mstore\n      0x20\n      add\n      dup3\n      dup1\n      sload\n      dup1\n      iszero\n      tag_82\n      jumpi\n      0x20\n      mul\n      dup3\n      add\n      swap2\n      swap1\n      0x00\n      mstore\n      keccak256(0x00, 0x20)\n      swap1\n    tag_83:\n      dup2\n      sload\n      dup2\n      mstore\n      0x20\n      add\n      swap1\n      0x01\n      add\n      swap1\n      dup1\n      dup4\n      gt\n      tag_83\n      jumpi\n    tag_82:\n      pop\n      pop\n      pop\n      pop\n      pop\n      swap1\n      pop\n        /* \"contracts/4_Hello.sol\":659:751  function listGameIds() public view returns (uint[] memory) {... */\n      swap1\n      jump\t// out\n        /* \"contracts/4_Hello.sol\":1969:2155  function myBetting(uint gameId) public view returns (uint) {... */\n    tag_46:\n        /* \"contracts/4_Hello.sol\":2022:2026  uint */\n      0x00\n        /* \"contracts/4_Hello.sol\":2047:2052  games */\n      dup1\n        /* \"contracts/4_Hello.sol\":2047:2060  games[gameId] */\n      0x00\n        /* \"contracts/4_Hello.sol\":2053:2059  gameId */\n      dup4\n        /* \"contracts/4_Hello.sol\":2047:2060  games[gameId] */\n      dup2\n      mstore\n      0x20\n      add\n      swap1\n      dup2\n      mstore\n      0x20\n      add\n      0x00\n      keccak256\n        /* \"contracts/4_Hello.sol\":2047:2072  games[gameId].initialized */\n      0x00\n      add\n      0x00\n      swap1\n      sload\n      swap1\n      0x0100\n      exp\n      swap1\n      div\n      0xff\n      and\n        /* \"contracts/4_Hello.sol\":2039:2093  require(games[gameId].initialized, \"Game Initialized\") */\n      tag_85\n      jumpi\n      mload(0x40)\n      0x08c379a000000000000000000000000000000000000000000000000000000000\n      dup2\n      mstore\n      0x04\n      add\n      tag_86\n      swap1\n      tag_59\n      jump\t// in\n    tag_86:\n      mload(0x40)\n      dup1\n      swap2\n      sub\n      swap1\n      revert\n    tag_85:\n        /* \"contracts/4_Hello.sol\":2111:2116  games */\n      0x00\n        /* \"contracts/4_Hello.sol\":2111:2124  games[gameId] */\n      dup1\n        /* \"contracts/4_Hello.sol\":2117:2123  gameId */\n      dup4\n        /* \"contracts/4_Hello.sol\":2111:2124  games[gameId] */\n      dup2\n      mstore\n      0x20\n      add\n      swap1\n      dup2\n      mstore\n      0x20\n      add\n      0x00\n      keccak256\n        /* \"contracts/4_Hello.sol\":2111:2133  games[gameId].bettings */\n      0x01\n      add\n        /* \"contracts/4_Hello.sol\":2111:2145  games[gameId].bettings[msg.sender] */\n      0x00\n        /* \"contracts/4_Hello.sol\":2134:2144  msg.sender */\n      caller\n        /* \"contracts/4_Hello.sol\":2111:2145  games[gameId].bettings[msg.sender] */\n      0xffffffffffffffffffffffffffffffffffffffff\n      and\n      0xffffffffffffffffffffffffffffffffffffffff\n      and\n      dup2\n      mstore\n      0x20\n      add\n      swap1\n      dup2\n      mstore\n      0x20\n      add\n      0x00\n      keccak256\n      sload\n        /* \"contracts/4_Hello.sol\":2104:2145  return games[gameId].bettings[msg.sender] */\n      swap1\n      pop\n        /* \"contracts/4_Hello.sol\":1969:2155  function myBetting(uint gameId) public view returns (uint) {... */\n      swap2\n      swap1\n      pop\n      jump\t// out\n        /* \"contracts/4_Hello.sol\":368:389  uint[] public gameIds */\n    tag_50:\n      0x01\n      dup2\n      dup2\n      sload\n      dup2\n      lt\n      tag_87\n      jumpi\n      0x00\n      dup1\n      revert\n    tag_87:\n      swap1\n      0x00\n      mstore\n      keccak256(0x00, 0x20)\n      add\n      0x00\n      swap2\n      pop\n      swap1\n      pop\n      sload\n      dup2\n      jump\t// out\n        /* \"contracts/4_Hello.sol\":428:651  function startGame(uint newId) public returns (bool) {... */\n    tag_54:\n        /* \"contracts/4_Hello.sol\":475:479  bool */\n      0x00\n        /* \"contracts/4_Hello.sol\":528:533  false */\n      dup1\n        /* \"contracts/4_Hello.sol\":500:533  games[newId].initialized == false */\n      iszero\n      iszero\n        /* \"contracts/4_Hello.sol\":500:505  games */\n      0x00\n        /* \"contracts/4_Hello.sol\":500:512  games[newId] */\n      dup1\n        /* \"contracts/4_Hello.sol\":506:511  newId */\n      dup5\n        /* \"contracts/4_Hello.sol\":500:512  games[newId] */\n      dup2\n      mstore\n      0x20\n      add\n      swap1\n      dup2\n      mstore\n      0x20\n      add\n      0x00\n      keccak256\n        /* \"contracts/4_Hello.sol\":500:524  games[newId].initialized */\n      0x00\n      add\n      0x00\n      swap1\n      sload\n      swap1\n      0x0100\n      exp\n      swap1\n      div\n      0xff\n      and\n        /* \"contracts/4_Hello.sol\":500:533  games[newId].initialized == false */\n      iszero\n      iszero\n      eq\n        /* \"contracts/4_Hello.sol\":492:549  require(games[newId].initialized == false, \"Game exists\") */\n      tag_90\n      jumpi\n      mload(0x40)\n      0x08c379a000000000000000000000000000000000000000000000000000000000\n      dup2\n      mstore\n      0x04\n      add\n      tag_91\n      swap1\n      tag_92\n      jump\t// in\n    tag_91:\n      mload(0x40)\n      dup1\n      swap2\n      sub\n      swap1\n      revert\n    tag_90:\n        /* \"contracts/4_Hello.sol\":587:591  true */\n      0x01\n        /* \"contracts/4_Hello.sol\":560:565  games */\n      0x00\n        /* \"contracts/4_Hello.sol\":560:572  games[newId] */\n      dup1\n        /* \"contracts/4_Hello.sol\":566:571  newId */\n      dup5\n        /* \"contracts/4_Hello.sol\":560:572  games[newId] */\n      dup2\n      mstore\n      0x20\n      add\n      swap1\n      dup2\n      mstore\n      0x20\n      add\n      0x00\n      keccak256\n        /* \"contracts/4_Hello.sol\":560:584  games[newId].initialized */\n      0x00\n      add\n      0x00\n        /* \"contracts/4_Hello.sol\":560:591  games[newId].initialized = true */\n      0x0100\n      exp\n      dup2\n      sload\n      dup2\n      0xff\n      mul\n      not\n      and\n      swap1\n      dup4\n      iszero\n      iszero\n      mul\n      or\n      swap1\n      sstore\n      pop\n        /* \"contracts/4_Hello.sol\":602:609  gameIds */\n      0x01\n        /* \"contracts/4_Hello.sol\":615:620  newId */\n      dup3\n        /* \"contracts/4_Hello.sol\":602:621  gameIds.push(newId) */\n      swap1\n      dup1\n      0x01\n      dup2\n      sload\n      add\n      dup1\n      dup3\n      sstore\n      dup1\n      swap2\n      pop\n      pop\n      0x01\n      swap1\n      sub\n      swap1\n      0x00\n      mstore\n      keccak256(0x00, 0x20)\n      add\n      0x00\n      swap1\n      swap2\n      swap1\n      swap2\n      swap1\n      swap2\n      pop\n      sstore\n        /* \"contracts/4_Hello.sol\":639:643  true */\n      0x01\n        /* \"contracts/4_Hello.sol\":632:643  return true */\n      swap1\n      pop\n        /* \"contracts/4_Hello.sol\":428:651  function startGame(uint newId) public returns (bool) {... */\n      swap2\n      swap1\n      pop\n      jump\t// out\n        /* \"#utility.yul\":88:205   */\n    tag_95:\n        /* \"#utility.yul\":197:198   */\n      0x00\n        /* \"#utility.yul\":194:195   */\n      dup1\n        /* \"#utility.yul\":187:199   */\n      revert\n        /* \"#utility.yul\":334:411   */\n    tag_97:\n        /* \"#utility.yul\":371:378   */\n      0x00\n        /* \"#utility.yul\":400:405   */\n      dup2\n        /* \"#utility.yul\":389:405   */\n      swap1\n      pop\n        /* \"#utility.yul\":334:411   */\n      swap2\n      swap1\n      pop\n      jump\t// out\n        /* \"#utility.yul\":417:539   */\n    tag_98:\n        /* \"#utility.yul\":490:514   */\n      tag_136\n        /* \"#utility.yul\":508:513   */\n      dup2\n        /* \"#utility.yul\":490:514   */\n      tag_97\n      jump\t// in\n    tag_136:\n        /* \"#utility.yul\":483:488   */\n      dup2\n        /* \"#utility.yul\":480:515   */\n      eq\n        /* \"#utility.yul\":470:533   */\n      tag_137\n      jumpi\n        /* \"#utility.yul\":529:530   */\n      0x00\n        /* \"#utility.yul\":526:527   */\n      dup1\n        /* \"#utility.yul\":519:531   */\n      revert\n        /* \"#utility.yul\":470:533   */\n    tag_137:\n        /* \"#utility.yul\":417:539   */\n      pop\n      jump\t// out\n        /* \"#utility.yul\":545:684   */\n    tag_99:\n        /* \"#utility.yul\":591:596   */\n      0x00\n        /* \"#utility.yul\":629:635   */\n      dup2\n        /* \"#utility.yul\":616:636   */\n      calldataload\n        /* \"#utility.yul\":607:636   */\n      swap1\n      pop\n        /* \"#utility.yul\":645:678   */\n      tag_139\n        /* \"#utility.yul\":672:677   */\n      dup2\n        /* \"#utility.yul\":645:678   */\n      tag_98\n      jump\t// in\n    tag_139:\n        /* \"#utility.yul\":545:684   */\n      swap3\n      swap2\n      pop\n      pop\n      jump\t// out\n        /* \"#utility.yul\":690:1019   */\n    tag_15:\n        /* \"#utility.yul\":749:755   */\n      0x00\n        /* \"#utility.yul\":798:800   */\n      0x20\n        /* \"#utility.yul\":786:795   */\n      dup3\n        /* \"#utility.yul\":777:784   */\n      dup5\n        /* \"#utility.yul\":773:796   */\n      sub\n        /* \"#utility.yul\":769:801   */\n      slt\n        /* \"#utility.yul\":766:885   */\n      iszero\n      tag_141\n      jumpi\n        /* \"#utility.yul\":804:883   */\n      tag_142\n      tag_95\n      jump\t// in\n    tag_142:\n        /* \"#utility.yul\":766:885   */\n    tag_141:\n        /* \"#utility.yul\":924:925   */\n      0x00\n        /* \"#utility.yul\":949:1002   */\n      tag_143\n        /* \"#utility.yul\":994:1001   */\n      dup5\n        /* \"#utility.yul\":985:991   */\n      dup3\n        /* \"#utility.yul\":974:983   */\n      dup6\n        /* \"#utility.yul\":970:992   */\n      add\n        /* \"#utility.yul\":949:1002   */\n      tag_99\n      jump\t// in\n    tag_143:\n        /* \"#utility.yul\":939:1002   */\n      swap2\n      pop\n        /* \"#utility.yul\":895:1012   */\n      pop\n        /* \"#utility.yul\":690:1019   */\n      swap3\n      swap2\n      pop\n      pop\n      jump\t// out\n        /* \"#utility.yul\":1025:1115   */\n    tag_100:\n        /* \"#utility.yul\":1059:1066   */\n      0x00\n        /* \"#utility.yul\":1102:1107   */\n      dup2\n        /* \"#utility.yul\":1095:1108   */\n      iszero\n        /* \"#utility.yul\":1088:1109   */\n      iszero\n        /* \"#utility.yul\":1077:1109   */\n      swap1\n      pop\n        /* \"#utility.yul\":1025:1115   */\n      swap2\n      swap1\n      pop\n      jump\t// out\n        /* \"#utility.yul\":1121:1230   */\n    tag_101:\n        /* \"#utility.yul\":1202:1223   */\n      tag_146\n        /* \"#utility.yul\":1217:1222   */\n      dup2\n        /* \"#utility.yul\":1202:1223   */\n      tag_100\n      jump\t// in\n    tag_146:\n        /* \"#utility.yul\":1197:1200   */\n      dup3\n        /* \"#utility.yul\":1190:1224   */\n      mstore\n        /* \"#utility.yul\":1121:1230   */\n      pop\n      pop\n      jump\t// out\n        /* \"#utility.yul\":1236:1354   */\n    tag_102:\n        /* \"#utility.yul\":1323:1347   */\n      tag_148\n        /* \"#utility.yul\":1341:1346   */\n      dup2\n        /* \"#utility.yul\":1323:1347   */\n      tag_97\n      jump\t// in\n    tag_148:\n        /* \"#utility.yul\":1318:1321   */\n      dup3\n        /* \"#utility.yul\":1311:1348   */\n      mstore\n        /* \"#utility.yul\":1236:1354   */\n      pop\n      pop\n      jump\t// out\n        /* \"#utility.yul\":1360:1486   */\n    tag_103:\n        /* \"#utility.yul\":1397:1404   */\n      0x00\n        /* \"#utility.yul\":1437:1479   */\n      0xffffffffffffffffffffffffffffffffffffffff\n        /* \"#utility.yul\":1430:1435   */\n      dup3\n        /* \"#utility.yul\":1426:1480   */\n      and\n        /* \"#utility.yul\":1415:1480   */\n      swap1\n      pop\n        /* \"#utility.yul\":1360:1486   */\n      swap2\n      swap1\n      pop\n      jump\t// out\n        /* \"#utility.yul\":1492:1588   */\n    tag_104:\n        /* \"#utility.yul\":1529:1536   */\n      0x00\n        /* \"#utility.yul\":1558:1582   */\n      tag_151\n        /* \"#utility.yul\":1576:1581   */\n      dup3\n        /* \"#utility.yul\":1558:1582   */\n      tag_103\n      jump\t// in\n    tag_151:\n        /* \"#utility.yul\":1547:1582   */\n      swap1\n      pop\n        /* \"#utility.yul\":1492:1588   */\n      swap2\n      swap1\n      pop\n      jump\t// out\n        /* \"#utility.yul\":1594:1712   */\n    tag_105:\n        /* \"#utility.yul\":1681:1705   */\n      tag_153\n        /* \"#utility.yul\":1699:1704   */\n      dup2\n        /* \"#utility.yul\":1681:1705   */\n      tag_104\n      jump\t// in\n    tag_153:\n        /* \"#utility.yul\":1676:1679   */\n      dup3\n        /* \"#utility.yul\":1669:1706   */\n      mstore\n        /* \"#utility.yul\":1594:1712   */\n      pop\n      pop\n      jump\t// out\n        /* \"#utility.yul\":1718:2148   */\n    tag_18:\n        /* \"#utility.yul\":1861:1865   */\n      0x00\n        /* \"#utility.yul\":1899:1901   */\n      0x60\n        /* \"#utility.yul\":1888:1897   */\n      dup3\n        /* \"#utility.yul\":1884:1902   */\n      add\n        /* \"#utility.yul\":1876:1902   */\n      swap1\n      pop\n        /* \"#utility.yul\":1912:1977   */\n      tag_155\n        /* \"#utility.yul\":1974:1975   */\n      0x00\n        /* \"#utility.yul\":1963:1972   */\n      dup4\n        /* \"#utility.yul\":1959:1976   */\n      add\n        /* \"#utility.yul\":1950:1956   */\n      dup7\n        /* \"#utility.yul\":1912:1977   */\n      tag_101\n      jump\t// in\n    tag_155:\n        /* \"#utility.yul\":1987:2059   */\n      tag_156\n        /* \"#utility.yul\":2055:2057   */\n      0x20\n        /* \"#utility.yul\":2044:2053   */\n      dup4\n        /* \"#utility.yul\":2040:2058   */\n      add\n        /* \"#utility.yul\":2031:2037   */\n      dup6\n        /* \"#utility.yul\":1987:2059   */\n      tag_102\n      jump\t// in\n    tag_156:\n        /* \"#utility.yul\":2069:2141   */\n      tag_157\n        /* \"#utility.yul\":2137:2139   */\n      0x40\n        /* \"#utility.yul\":2126:2135   */\n      dup4\n        /* \"#utility.yul\":2122:2140   */\n      add\n        /* \"#utility.yul\":2113:2119   */\n      dup5\n        /* \"#utility.yul\":2069:2141   */\n      tag_105\n      jump\t// in\n    tag_157:\n        /* \"#utility.yul\":1718:2148   */\n      swap5\n      swap4\n      pop\n      pop\n      pop\n      pop\n      jump\t// out\n        /* \"#utility.yul\":2154:2268   */\n    tag_106:\n        /* \"#utility.yul\":2221:2227   */\n      0x00\n        /* \"#utility.yul\":2255:2260   */\n      dup2\n        /* \"#utility.yul\":2249:2261   */\n      mload\n        /* \"#utility.yul\":2239:2261   */\n      swap1\n      pop\n        /* \"#utility.yul\":2154:2268   */\n      swap2\n      swap1\n      pop\n      jump\t// out\n        /* \"#utility.yul\":2274:2458   */\n    tag_107:\n        /* \"#utility.yul\":2373:2384   */\n      0x00\n        /* \"#utility.yul\":2407:2413   */\n      dup3\n        /* \"#utility.yul\":2402:2405   */\n      dup3\n        /* \"#utility.yul\":2395:2414   */\n      mstore\n        /* \"#utility.yul\":2447:2451   */\n      0x20\n        /* \"#utility.yul\":2442:2445   */\n      dup3\n        /* \"#utility.yul\":2438:2452   */\n      add\n        /* \"#utility.yul\":2423:2452   */\n      swap1\n      pop\n        /* \"#utility.yul\":2274:2458   */\n      swap3\n      swap2\n      pop\n      pop\n      jump\t// out\n        /* \"#utility.yul\":2464:2596   */\n    tag_108:\n        /* \"#utility.yul\":2531:2535   */\n      0x00\n        /* \"#utility.yul\":2554:2557   */\n      dup2\n        /* \"#utility.yul\":2546:2557   */\n      swap1\n      pop\n        /* \"#utility.yul\":2584:2588   */\n      0x20\n        /* \"#utility.yul\":2579:2582   */\n      dup3\n        /* \"#utility.yul\":2575:2589   */\n      add\n        /* \"#utility.yul\":2567:2589   */\n      swap1\n      pop\n        /* \"#utility.yul\":2464:2596   */\n      swap2\n      swap1\n      pop\n      jump\t// out\n        /* \"#utility.yul\":2602:2710   */\n    tag_109:\n        /* \"#utility.yul\":2679:2703   */\n      tag_162\n        /* \"#utility.yul\":2697:2702   */\n      dup2\n        /* \"#utility.yul\":2679:2703   */\n      tag_104\n      jump\t// in\n    tag_162:\n        /* \"#utility.yul\":2674:2677   */\n      dup3\n        /* \"#utility.yul\":2667:2704   */\n      mstore\n        /* \"#utility.yul\":2602:2710   */\n      pop\n      pop\n      jump\t// out\n        /* \"#utility.yul\":2716:2895   */\n    tag_110:\n        /* \"#utility.yul\":2785:2795   */\n      0x00\n        /* \"#utility.yul\":2806:2852   */\n      tag_164\n        /* \"#utility.yul\":2848:2851   */\n      dup4\n        /* \"#utility.yul\":2840:2846   */\n      dup4\n        /* \"#utility.yul\":2806:2852   */\n      tag_109\n      jump\t// in\n    tag_164:\n        /* \"#utility.yul\":2884:2888   */\n      0x20\n        /* \"#utility.yul\":2879:2882   */\n      dup4\n        /* \"#utility.yul\":2875:2889   */\n      add\n        /* \"#utility.yul\":2861:2889   */\n      swap1\n      pop\n        /* \"#utility.yul\":2716:2895   */\n      swap3\n      swap2\n      pop\n      pop\n      jump\t// out\n        /* \"#utility.yul\":2901:3014   */\n    tag_111:\n        /* \"#utility.yul\":2971:2975   */\n      0x00\n        /* \"#utility.yul\":3003:3007   */\n      0x20\n        /* \"#utility.yul\":2998:3001   */\n      dup3\n        /* \"#utility.yul\":2994:3008   */\n      add\n        /* \"#utility.yul\":2986:3008   */\n      swap1\n      pop\n        /* \"#utility.yul\":2901:3014   */\n      swap2\n      swap1\n      pop\n      jump\t// out\n        /* \"#utility.yul\":3050:3782   */\n    tag_112:\n        /* \"#utility.yul\":3169:3172   */\n      0x00\n        /* \"#utility.yul\":3198:3252   */\n      tag_167\n        /* \"#utility.yul\":3246:3251   */\n      dup3\n        /* \"#utility.yul\":3198:3252   */\n      tag_106\n      jump\t// in\n    tag_167:\n        /* \"#utility.yul\":3268:3354   */\n      tag_168\n        /* \"#utility.yul\":3347:3353   */\n      dup2\n        /* \"#utility.yul\":3342:3345   */\n      dup6\n        /* \"#utility.yul\":3268:3354   */\n      tag_107\n      jump\t// in\n    tag_168:\n        /* \"#utility.yul\":3261:3354   */\n      swap4\n      pop\n        /* \"#utility.yul\":3378:3434   */\n      tag_169\n        /* \"#utility.yul\":3428:3433   */\n      dup4\n        /* \"#utility.yul\":3378:3434   */\n      tag_108\n      jump\t// in\n    tag_169:\n        /* \"#utility.yul\":3457:3464   */\n      dup1\n        /* \"#utility.yul\":3488:3489   */\n      0x00\n        /* \"#utility.yul\":3473:3757   */\n    tag_170:\n        /* \"#utility.yul\":3498:3504   */\n      dup4\n        /* \"#utility.yul\":3495:3496   */\n      dup2\n        /* \"#utility.yul\":3492:3505   */\n      lt\n        /* \"#utility.yul\":3473:3757   */\n      iszero\n      tag_172\n      jumpi\n        /* \"#utility.yul\":3574:3580   */\n      dup2\n        /* \"#utility.yul\":3568:3581   */\n      mload\n        /* \"#utility.yul\":3601:3664   */\n      tag_173\n        /* \"#utility.yul\":3660:3663   */\n      dup9\n        /* \"#utility.yul\":3645:3658   */\n      dup3\n        /* \"#utility.yul\":3601:3664   */\n      tag_110\n      jump\t// in\n    tag_173:\n        /* \"#utility.yul\":3594:3664   */\n      swap8\n      pop\n        /* \"#utility.yul\":3687:3747   */\n      tag_174\n        /* \"#utility.yul\":3740:3746   */\n      dup4\n        /* \"#utility.yul\":3687:3747   */\n      tag_111\n      jump\t// in\n    tag_174:\n        /* \"#utility.yul\":3677:3747   */\n      swap3\n      pop\n        /* \"#utility.yul\":3533:3757   */\n      pop\n        /* \"#utility.yul\":3520:3521   */\n      0x01\n        /* \"#utility.yul\":3517:3518   */\n      dup2\n        /* \"#utility.yul\":3513:3522   */\n      add\n        /* \"#utility.yul\":3508:3522   */\n      swap1\n      pop\n        /* \"#utility.yul\":3473:3757   */\n      jump(tag_170)\n    tag_172:\n        /* \"#utility.yul\":3477:3491   */\n      pop\n        /* \"#utility.yul\":3773:3776   */\n      dup6\n        /* \"#utility.yul\":3766:3776   */\n      swap4\n      pop\n        /* \"#utility.yul\":3174:3782   */\n      pop\n      pop\n      pop\n        /* \"#utility.yul\":3050:3782   */\n      swap3\n      swap2\n      pop\n      pop\n      jump\t// out\n        /* \"#utility.yul\":3788:4161   */\n    tag_23:\n        /* \"#utility.yul\":3931:3935   */\n      0x00\n        /* \"#utility.yul\":3969:3971   */\n      0x20\n        /* \"#utility.yul\":3958:3967   */\n      dup3\n        /* \"#utility.yul\":3954:3972   */\n      add\n        /* \"#utility.yul\":3946:3972   */\n      swap1\n      pop\n        /* \"#utility.yul\":4018:4027   */\n      dup2\n        /* \"#utility.yul\":4012:4016   */\n      dup2\n        /* \"#utility.yul\":4008:4028   */\n      sub\n        /* \"#utility.yul\":4004:4005   */\n      0x00\n        /* \"#utility.yul\":3993:4002   */\n      dup4\n        /* \"#utility.yul\":3989:4006   */\n      add\n        /* \"#utility.yul\":3982:4029   */\n      mstore\n        /* \"#utility.yul\":4046:4154   */\n      tag_176\n        /* \"#utility.yul\":4149:4153   */\n      dup2\n        /* \"#utility.yul\":4140:4146   */\n      dup5\n        /* \"#utility.yul\":4046:4154   */\n      tag_112\n      jump\t// in\n    tag_176:\n        /* \"#utility.yul\":4038:4154   */\n      swap1\n      pop\n        /* \"#utility.yul\":3788:4161   */\n      swap3\n      swap2\n      pop\n      pop\n      jump\t// out\n        /* \"#utility.yul\":4167:4289   */\n    tag_113:\n        /* \"#utility.yul\":4240:4264   */\n      tag_178\n        /* \"#utility.yul\":4258:4263   */\n      dup2\n        /* \"#utility.yul\":4240:4264   */\n      tag_104\n      jump\t// in\n    tag_178:\n        /* \"#utility.yul\":4233:4238   */\n      dup2\n        /* \"#utility.yul\":4230:4265   */\n      eq\n        /* \"#utility.yul\":4220:4283   */\n      tag_179\n      jumpi\n        /* \"#utility.yul\":4279:4280   */\n      0x00\n        /* \"#utility.yul\":4276:4277   */\n      dup1\n        /* \"#utility.yul\":4269:4281   */\n      revert\n        /* \"#utility.yul\":4220:4283   */\n    tag_179:\n        /* \"#utility.yul\":4167:4289   */\n      pop\n      jump\t// out\n        /* \"#utility.yul\":4295:4434   */\n    tag_114:\n        /* \"#utility.yul\":4341:4346   */\n      0x00\n        /* \"#utility.yul\":4379:4385   */\n      dup2\n        /* \"#utility.yul\":4366:4386   */\n      calldataload\n        /* \"#utility.yul\":4357:4386   */\n      swap1\n      pop\n        /* \"#utility.yul\":4395:4428   */\n      tag_181\n        /* \"#utility.yul\":4422:4427   */\n      dup2\n        /* \"#utility.yul\":4395:4428   */\n      tag_113\n      jump\t// in\n    tag_181:\n        /* \"#utility.yul\":4295:4434   */\n      swap3\n      swap2\n      pop\n      pop\n      jump\t// out\n        /* \"#utility.yul\":4440:4914   */\n    tag_26:\n        /* \"#utility.yul\":4508:4514   */\n      0x00\n        /* \"#utility.yul\":4516:4522   */\n      dup1\n        /* \"#utility.yul\":4565:4567   */\n      0x40\n        /* \"#utility.yul\":4553:4562   */\n      dup4\n        /* \"#utility.yul\":4544:4551   */\n      dup6\n        /* \"#utility.yul\":4540:4563   */\n      sub\n        /* \"#utility.yul\":4536:4568   */\n      slt\n        /* \"#utility.yul\":4533:4652   */\n      iszero\n      tag_183\n      jumpi\n        /* \"#utility.yul\":4571:4650   */\n      tag_184\n      tag_95\n      jump\t// in\n    tag_184:\n        /* \"#utility.yul\":4533:4652   */\n    tag_183:\n        /* \"#utility.yul\":4691:4692   */\n      0x00\n        /* \"#utility.yul\":4716:4769   */\n      tag_185\n        /* \"#utility.yul\":4761:4768   */\n      dup6\n        /* \"#utility.yul\":4752:4758   */\n      dup3\n        /* \"#utility.yul\":4741:4750   */\n      dup7\n        /* \"#utility.yul\":4737:4759   */\n      add\n        /* \"#utility.yul\":4716:4769   */\n      tag_99\n      jump\t// in\n    tag_185:\n        /* \"#utility.yul\":4706:4769   */\n      swap3\n      pop\n        /* \"#utility.yul\":4662:4779   */\n      pop\n        /* \"#utility.yul\":4818:4820   */\n      0x20\n        /* \"#utility.yul\":4844:4897   */\n      tag_186\n        /* \"#utility.yul\":4889:4896   */\n      dup6\n        /* \"#utility.yul\":4880:4886   */\n      dup3\n        /* \"#utility.yul\":4869:4878   */\n      dup7\n        /* \"#utility.yul\":4865:4887   */\n      add\n        /* \"#utility.yul\":4844:4897   */\n      tag_114\n      jump\t// in\n    tag_186:\n        /* \"#utility.yul\":4834:4897   */\n      swap2\n      pop\n        /* \"#utility.yul\":4789:4907   */\n      pop\n        /* \"#utility.yul\":4440:4914   */\n      swap3\n      pop\n      swap3\n      swap1\n      pop\n      jump\t// out\n        /* \"#utility.yul\":4920:5142   */\n    tag_29:\n        /* \"#utility.yul\":5013:5017   */\n      0x00\n        /* \"#utility.yul\":5051:5053   */\n      0x20\n        /* \"#utility.yul\":5040:5049   */\n      dup3\n        /* \"#utility.yul\":5036:5054   */\n      add\n        /* \"#utility.yul\":5028:5054   */\n      swap1\n      pop\n        /* \"#utility.yul\":5064:5135   */\n      tag_188\n        /* \"#utility.yul\":5132:5133   */\n      0x00\n        /* \"#utility.yul\":5121:5130   */\n      dup4\n        /* \"#utility.yul\":5117:5134   */\n      add\n        /* \"#utility.yul\":5108:5114   */\n      dup5\n        /* \"#utility.yul\":5064:5135   */\n      tag_102\n      jump\t// in\n    tag_188:\n        /* \"#utility.yul\":4920:5142   */\n      swap3\n      swap2\n      pop\n      pop\n      jump\t// out\n        /* \"#utility.yul\":5148:5622   */\n    tag_36:\n        /* \"#utility.yul\":5216:5222   */\n      0x00\n        /* \"#utility.yul\":5224:5230   */\n      dup1\n        /* \"#utility.yul\":5273:5275   */\n      0x40\n        /* \"#utility.yul\":5261:5270   */\n      dup4\n        /* \"#utility.yul\":5252:5259   */\n      dup6\n        /* \"#utility.yul\":5248:5271   */\n      sub\n        /* \"#utility.yul\":5244:5276   */\n      slt\n        /* \"#utility.yul\":5241:5360   */\n      iszero\n      tag_190\n      jumpi\n        /* \"#utility.yul\":5279:5358   */\n      tag_191\n      tag_95\n      jump\t// in\n    tag_191:\n        /* \"#utility.yul\":5241:5360   */\n    tag_190:\n        /* \"#utility.yul\":5399:5400   */\n      0x00\n        /* \"#utility.yul\":5424:5477   */\n      tag_192\n        /* \"#utility.yul\":5469:5476   */\n      dup6\n        /* \"#utility.yul\":5460:5466   */\n      dup3\n        /* \"#utility.yul\":5449:5458   */\n      dup7\n        /* \"#utility.yul\":5445:5467   */\n      add\n        /* \"#utility.yul\":5424:5477   */\n      tag_99\n      jump\t// in\n    tag_192:\n        /* \"#utility.yul\":5414:5477   */\n      swap3\n      pop\n        /* \"#utility.yul\":5370:5487   */\n      pop\n        /* \"#utility.yul\":5526:5528   */\n      0x20\n        /* \"#utility.yul\":5552:5605   */\n      tag_193\n        /* \"#utility.yul\":5597:5604   */\n      dup6\n        /* \"#utility.yul\":5588:5594   */\n      dup3\n        /* \"#utility.yul\":5577:5586   */\n      dup7\n        /* \"#utility.yul\":5573:5595   */\n      add\n        /* \"#utility.yul\":5552:5605   */\n      tag_99\n      jump\t// in\n    tag_193:\n        /* \"#utility.yul\":5542:5605   */\n      swap2\n      pop\n        /* \"#utility.yul\":5497:5615   */\n      pop\n        /* \"#utility.yul\":5148:5622   */\n      swap3\n      pop\n      swap3\n      swap1\n      pop\n      jump\t// out\n        /* \"#utility.yul\":5628:5838   */\n    tag_39:\n        /* \"#utility.yul\":5715:5719   */\n      0x00\n        /* \"#utility.yul\":5753:5755   */\n      0x20\n        /* \"#utility.yul\":5742:5751   */\n      dup3\n        /* \"#utility.yul\":5738:5756   */\n      add\n        /* \"#utility.yul\":5730:5756   */\n      swap1\n      pop\n        /* \"#utility.yul\":5766:5831   */\n      tag_195\n        /* \"#utility.yul\":5828:5829   */\n      0x00\n        /* \"#utility.yul\":5817:5826   */\n      dup4\n        /* \"#utility.yul\":5813:5830   */\n      add\n        /* \"#utility.yul\":5804:5810   */\n      dup5\n        /* \"#utility.yul\":5766:5831   */\n      tag_101\n      jump\t// in\n    tag_195:\n        /* \"#utility.yul\":5628:5838   */\n      swap3\n      swap2\n      pop\n      pop\n      jump\t// out\n        /* \"#utility.yul\":5844:5958   */\n    tag_115:\n        /* \"#utility.yul\":5911:5917   */\n      0x00\n        /* \"#utility.yul\":5945:5950   */\n      dup2\n        /* \"#utility.yul\":5939:5951   */\n      mload\n        /* \"#utility.yul\":5929:5951   */\n      swap1\n      pop\n        /* \"#utility.yul\":5844:5958   */\n      swap2\n      swap1\n      pop\n      jump\t// out\n        /* \"#utility.yul\":5964:6148   */\n    tag_116:\n        /* \"#utility.yul\":6063:6074   */\n      0x00\n        /* \"#utility.yul\":6097:6103   */\n      dup3\n        /* \"#utility.yul\":6092:6095   */\n      dup3\n        /* \"#utility.yul\":6085:6104   */\n      mstore\n        /* \"#utility.yul\":6137:6141   */\n      0x20\n        /* \"#utility.yul\":6132:6135   */\n      dup3\n        /* \"#utility.yul\":6128:6142   */\n      add\n        /* \"#utility.yul\":6113:6142   */\n      swap1\n      pop\n        /* \"#utility.yul\":5964:6148   */\n      swap3\n      swap2\n      pop\n      pop\n      jump\t// out\n        /* \"#utility.yul\":6154:6286   */\n    tag_117:\n        /* \"#utility.yul\":6221:6225   */\n      0x00\n        /* \"#utility.yul\":6244:6247   */\n      dup2\n        /* \"#utility.yul\":6236:6247   */\n      swap1\n      pop\n        /* \"#utility.yul\":6274:6278   */\n      0x20\n        /* \"#utility.yul\":6269:6272   */\n      dup3\n        /* \"#utility.yul\":6265:6279   */\n      add\n        /* \"#utility.yul\":6257:6279   */\n      swap1\n      pop\n        /* \"#utility.yul\":6154:6286   */\n      swap2\n      swap1\n      pop\n      jump\t// out\n        /* \"#utility.yul\":6292:6400   */\n    tag_118:\n        /* \"#utility.yul\":6369:6393   */\n      tag_200\n        /* \"#utility.yul\":6387:6392   */\n      dup2\n        /* \"#utility.yul\":6369:6393   */\n      tag_97\n      jump\t// in\n    tag_200:\n        /* \"#utility.yul\":6364:6367   */\n      dup3\n        /* \"#utility.yul\":6357:6394   */\n      mstore\n        /* \"#utility.yul\":6292:6400   */\n      pop\n      pop\n      jump\t// out\n        /* \"#utility.yul\":6406:6585   */\n    tag_119:\n        /* \"#utility.yul\":6475:6485   */\n      0x00\n        /* \"#utility.yul\":6496:6542   */\n      tag_202\n        /* \"#utility.yul\":6538:6541   */\n      dup4\n        /* \"#utility.yul\":6530:6536   */\n      dup4\n        /* \"#utility.yul\":6496:6542   */\n      tag_118\n      jump\t// in\n    tag_202:\n        /* \"#utility.yul\":6574:6578   */\n      0x20\n        /* \"#utility.yul\":6569:6572   */\n      dup4\n        /* \"#utility.yul\":6565:6579   */\n      add\n        /* \"#utility.yul\":6551:6579   */\n      swap1\n      pop\n        /* \"#utility.yul\":6406:6585   */\n      swap3\n      swap2\n      pop\n      pop\n      jump\t// out\n        /* \"#utility.yul\":6591:6704   */\n    tag_120:\n        /* \"#utility.yul\":6661:6665   */\n      0x00\n        /* \"#utility.yul\":6693:6697   */\n      0x20\n        /* \"#utility.yul\":6688:6691   */\n      dup3\n        /* \"#utility.yul\":6684:6698   */\n      add\n        /* \"#utility.yul\":6676:6698   */\n      swap1\n      pop\n        /* \"#utility.yul\":6591:6704   */\n      swap2\n      swap1\n      pop\n      jump\t// out\n        /* \"#utility.yul\":6740:7472   */\n    tag_121:\n        /* \"#utility.yul\":6859:6862   */\n      0x00\n        /* \"#utility.yul\":6888:6942   */\n      tag_205\n        /* \"#utility.yul\":6936:6941   */\n      dup3\n        /* \"#utility.yul\":6888:6942   */\n      tag_115\n      jump\t// in\n    tag_205:\n        /* \"#utility.yul\":6958:7044   */\n      tag_206\n        /* \"#utility.yul\":7037:7043   */\n      dup2\n        /* \"#utility.yul\":7032:7035   */\n      dup6\n        /* \"#utility.yul\":6958:7044   */\n      tag_116\n      jump\t// in\n    tag_206:\n        /* \"#utility.yul\":6951:7044   */\n      swap4\n      pop\n        /* \"#utility.yul\":7068:7124   */\n      tag_207\n        /* \"#utility.yul\":7118:7123   */\n      dup4\n        /* \"#utility.yul\":7068:7124   */\n      tag_117\n      jump\t// in\n    tag_207:\n        /* \"#utility.yul\":7147:7154   */\n      dup1\n        /* \"#utility.yul\":7178:7179   */\n      0x00\n        /* \"#utility.yul\":7163:7447   */\n    tag_208:\n        /* \"#utility.yul\":7188:7194   */\n      dup4\n        /* \"#utility.yul\":7185:7186   */\n      dup2\n        /* \"#utility.yul\":7182:7195   */\n      lt\n        /* \"#utility.yul\":7163:7447   */\n      iszero\n      tag_210\n      jumpi\n        /* \"#utility.yul\":7264:7270   */\n      dup2\n        /* \"#utility.yul\":7258:7271   */\n      mload\n        /* \"#utility.yul\":7291:7354   */\n      tag_211\n        /* \"#utility.yul\":7350:7353   */\n      dup9\n        /* \"#utility.yul\":7335:7348   */\n      dup3\n        /* \"#utility.yul\":7291:7354   */\n      tag_119\n      jump\t// in\n    tag_211:\n        /* \"#utility.yul\":7284:7354   */\n      swap8\n      pop\n        /* \"#utility.yul\":7377:7437   */\n      tag_212\n        /* \"#utility.yul\":7430:7436   */\n      dup4\n        /* \"#utility.yul\":7377:7437   */\n      tag_120\n      jump\t// in\n    tag_212:\n        /* \"#utility.yul\":7367:7437   */\n      swap3\n      pop\n        /* \"#utility.yul\":7223:7447   */\n      pop\n        /* \"#utility.yul\":7210:7211   */\n      0x01\n        /* \"#utility.yul\":7207:7208   */\n      dup2\n        /* \"#utility.yul\":7203:7212   */\n      add\n        /* \"#utility.yul\":7198:7212   */\n      swap1\n      pop\n        /* \"#utility.yul\":7163:7447   */\n      jump(tag_208)\n    tag_210:\n        /* \"#utility.yul\":7167:7181   */\n      pop\n        /* \"#utility.yul\":7463:7466   */\n      dup6\n        /* \"#utility.yul\":7456:7466   */\n      swap4\n      pop\n        /* \"#utility.yul\":6864:7472   */\n      pop\n      pop\n      pop\n        /* \"#utility.yul\":6740:7472   */\n      swap3\n      swap2\n      pop\n      pop\n      jump\t// out\n        /* \"#utility.yul\":7478:7851   */\n    tag_43:\n        /* \"#utility.yul\":7621:7625   */\n      0x00\n        /* \"#utility.yul\":7659:7661   */\n      0x20\n        /* \"#utility.yul\":7648:7657   */\n      dup3\n        /* \"#utility.yul\":7644:7662   */\n      add\n        /* \"#utility.yul\":7636:7662   */\n      swap1\n      pop\n        /* \"#utility.yul\":7708:7717   */\n      dup2\n        /* \"#utility.yul\":7702:7706   */\n      dup2\n        /* \"#utility.yul\":7698:7718   */\n      sub\n        /* \"#utility.yul\":7694:7695   */\n      0x00\n        /* \"#utility.yul\":7683:7692   */\n      dup4\n        /* \"#utility.yul\":7679:7696   */\n      add\n        /* \"#utility.yul\":7672:7719   */\n      mstore\n        /* \"#utility.yul\":7736:7844   */\n      tag_214\n        /* \"#utility.yul\":7839:7843   */\n      dup2\n        /* \"#utility.yul\":7830:7836   */\n      dup5\n        /* \"#utility.yul\":7736:7844   */\n      tag_121\n      jump\t// in\n    tag_214:\n        /* \"#utility.yul\":7728:7844   */\n      swap1\n      pop\n        /* \"#utility.yul\":7478:7851   */\n      swap3\n      swap2\n      pop\n      pop\n      jump\t// out\n        /* \"#utility.yul\":7857:8026   */\n    tag_122:\n        /* \"#utility.yul\":7941:7952   */\n      0x00\n        /* \"#utility.yul\":7975:7981   */\n      dup3\n        /* \"#utility.yul\":7970:7973   */\n      dup3\n        /* \"#utility.yul\":7963:7982   */\n      mstore\n        /* \"#utility.yul\":8015:8019   */\n      0x20\n        /* \"#utility.yul\":8010:8013   */\n      dup3\n        /* \"#utility.yul\":8006:8020   */\n      add\n        /* \"#utility.yul\":7991:8020   */\n      swap1\n      pop\n        /* \"#utility.yul\":7857:8026   */\n      swap3\n      swap2\n      pop\n      pop\n      jump\t// out\n        /* \"#utility.yul\":8032:8198   */\n    tag_123:\n        /* \"#utility.yul\":8172:8190   */\n      0x47616d6520496e697469616c697a656400000000000000000000000000000000\n        /* \"#utility.yul\":8168:8169   */\n      0x00\n        /* \"#utility.yul\":8160:8166   */\n      dup3\n        /* \"#utility.yul\":8156:8170   */\n      add\n        /* \"#utility.yul\":8149:8191   */\n      mstore\n        /* \"#utility.yul\":8032:8198   */\n      pop\n      jump\t// out\n        /* \"#utility.yul\":8204:8570   */\n    tag_124:\n        /* \"#utility.yul\":8346:8349   */\n      0x00\n        /* \"#utility.yul\":8367:8434   */\n      tag_218\n        /* \"#utility.yul\":8431:8433   */\n      0x10\n        /* \"#utility.yul\":8426:8429   */\n      dup4\n        /* \"#utility.yul\":8367:8434   */\n      tag_122\n      jump\t// in\n    tag_218:\n        /* \"#utility.yul\":8360:8434   */\n      swap2\n      pop\n        /* \"#utility.yul\":8443:8536   */\n      tag_219\n        /* \"#utility.yul\":8532:8535   */\n      dup3\n        /* \"#utility.yul\":8443:8536   */\n      tag_123\n      jump\t// in\n    tag_219:\n        /* \"#utility.yul\":8561:8563   */\n      0x20\n        /* \"#utility.yul\":8556:8559   */\n      dup3\n        /* \"#utility.yul\":8552:8564   */\n      add\n        /* \"#utility.yul\":8545:8564   */\n      swap1\n      pop\n        /* \"#utility.yul\":8204:8570   */\n      swap2\n      swap1\n      pop\n      jump\t// out\n        /* \"#utility.yul\":8576:8995   */\n    tag_59:\n        /* \"#utility.yul\":8742:8746   */\n      0x00\n        /* \"#utility.yul\":8780:8782   */\n      0x20\n        /* \"#utility.yul\":8769:8778   */\n      dup3\n        /* \"#utility.yul\":8765:8783   */\n      add\n        /* \"#utility.yul\":8757:8783   */\n      swap1\n      pop\n        /* \"#utility.yul\":8829:8838   */\n      dup2\n        /* \"#utility.yul\":8823:8827   */\n      dup2\n        /* \"#utility.yul\":8819:8839   */\n      sub\n        /* \"#utility.yul\":8815:8816   */\n      0x00\n        /* \"#utility.yul\":8804:8813   */\n      dup4\n        /* \"#utility.yul\":8800:8817   */\n      add\n        /* \"#utility.yul\":8793:8840   */\n      mstore\n        /* \"#utility.yul\":8857:8988   */\n      tag_221\n        /* \"#utility.yul\":8983:8987   */\n      dup2\n        /* \"#utility.yul\":8857:8988   */\n      tag_124\n      jump\t// in\n    tag_221:\n        /* \"#utility.yul\":8849:8988   */\n      swap1\n      pop\n        /* \"#utility.yul\":8576:8995   */\n      swap2\n      swap1\n      pop\n      jump\t// out\n        /* \"#utility.yul\":9001:9159   */\n    tag_125:\n        /* \"#utility.yul\":9141:9151   */\n      0x46696e6973686564000000000000000000000000000000000000000000000000\n        /* \"#utility.yul\":9137:9138   */\n      0x00\n        /* \"#utility.yul\":9129:9135   */\n      dup3\n        /* \"#utility.yul\":9125:9139   */\n      add\n        /* \"#utility.yul\":9118:9152   */\n      mstore\n        /* \"#utility.yul\":9001:9159   */\n      pop\n      jump\t// out\n        /* \"#utility.yul\":9165:9530   */\n    tag_126:\n        /* \"#utility.yul\":9307:9310   */\n      0x00\n        /* \"#utility.yul\":9328:9394   */\n      tag_224\n        /* \"#utility.yul\":9392:9393   */\n      0x08\n        /* \"#utility.yul\":9387:9390   */\n      dup4\n        /* \"#utility.yul\":9328:9394   */\n      tag_122\n      jump\t// in\n    tag_224:\n        /* \"#utility.yul\":9321:9394   */\n      swap2\n      pop\n        /* \"#utility.yul\":9403:9496   */\n      tag_225\n        /* \"#utility.yul\":9492:9495   */\n      dup3\n        /* \"#utility.yul\":9403:9496   */\n      tag_125\n      jump\t// in\n    tag_225:\n        /* \"#utility.yul\":9521:9523   */\n      0x20\n        /* \"#utility.yul\":9516:9519   */\n      dup3\n        /* \"#utility.yul\":9512:9524   */\n      add\n        /* \"#utility.yul\":9505:9524   */\n      swap1\n      pop\n        /* \"#utility.yul\":9165:9530   */\n      swap2\n      swap1\n      pop\n      jump\t// out\n        /* \"#utility.yul\":9536:9955   */\n    tag_67:\n        /* \"#utility.yul\":9702:9706   */\n      0x00\n        /* \"#utility.yul\":9740:9742   */\n      0x20\n        /* \"#utility.yul\":9729:9738   */\n      dup3\n        /* \"#utility.yul\":9725:9743   */\n      add\n        /* \"#utility.yul\":9717:9743   */\n      swap1\n      pop\n        /* \"#utility.yul\":9789:9798   */\n      dup2\n        /* \"#utility.yul\":9783:9787   */\n      dup2\n        /* \"#utility.yul\":9779:9799   */\n      sub\n        /* \"#utility.yul\":9775:9776   */\n      0x00\n        /* \"#utility.yul\":9764:9773   */\n      dup4\n        /* \"#utility.yul\":9760:9777   */\n      add\n        /* \"#utility.yul\":9753:9800   */\n      mstore\n        /* \"#utility.yul\":9817:9948   */\n      tag_227\n        /* \"#utility.yul\":9943:9947   */\n      dup2\n        /* \"#utility.yul\":9817:9948   */\n      tag_126\n      jump\t// in\n    tag_227:\n        /* \"#utility.yul\":9809:9948   */\n      swap1\n      pop\n        /* \"#utility.yul\":9536:9955   */\n      swap2\n      swap1\n      pop\n      jump\t// out\n        /* \"#utility.yul\":9961:10141   */\n    tag_127:\n        /* \"#utility.yul\":10009:10086   */\n      0x4e487b7100000000000000000000000000000000000000000000000000000000\n        /* \"#utility.yul\":10006:10007   */\n      0x00\n        /* \"#utility.yul\":9999:10087   */\n      mstore\n        /* \"#utility.yul\":10106:10110   */\n      0x11\n        /* \"#utility.yul\":10103:10104   */\n      0x04\n        /* \"#utility.yul\":10096:10111   */\n      mstore\n        /* \"#utility.yul\":10130:10134   */\n      0x24\n        /* \"#utility.yul\":10127:10128   */\n      0x00\n        /* \"#utility.yul\":10120:10135   */\n      revert\n        /* \"#utility.yul\":10147:10338   */\n    tag_79:\n        /* \"#utility.yul\":10187:10190   */\n      0x00\n        /* \"#utility.yul\":10206:10226   */\n      tag_230\n        /* \"#utility.yul\":10224:10225   */\n      dup3\n        /* \"#utility.yul\":10206:10226   */\n      tag_97\n      jump\t// in\n    tag_230:\n        /* \"#utility.yul\":10201:10226   */\n      swap2\n      pop\n        /* \"#utility.yul\":10240:10260   */\n      tag_231\n        /* \"#utility.yul\":10258:10259   */\n      dup4\n        /* \"#utility.yul\":10240:10260   */\n      tag_97\n      jump\t// in\n    tag_231:\n        /* \"#utility.yul\":10235:10260   */\n      swap3\n      pop\n        /* \"#utility.yul\":10283:10284   */\n      dup3\n        /* \"#utility.yul\":10280:10281   */\n      dup3\n        /* \"#utility.yul\":10276:10285   */\n      add\n        /* \"#utility.yul\":10269:10285   */\n      swap1\n      pop\n        /* \"#utility.yul\":10304:10307   */\n      dup1\n        /* \"#utility.yul\":10301:10302   */\n      dup3\n        /* \"#utility.yul\":10298:10308   */\n      gt\n        /* \"#utility.yul\":10295:10331   */\n      iszero\n      tag_232\n      jumpi\n        /* \"#utility.yul\":10311:10329   */\n      tag_233\n      tag_127\n      jump\t// in\n    tag_233:\n        /* \"#utility.yul\":10295:10331   */\n    tag_232:\n        /* \"#utility.yul\":10147:10338   */\n      swap3\n      swap2\n      pop\n      pop\n      jump\t// out\n        /* \"#utility.yul\":10344:10505   */\n    tag_128:\n        /* \"#utility.yul\":10484:10497   */\n      0x47616d6520657869737473000000000000000000000000000000000000000000\n        /* \"#utility.yul\":10480:10481   */\n      0x00\n        /* \"#utility.yul\":10472:10478   */\n      dup3\n        /* \"#utility.yul\":10468:10482   */\n      add\n        /* \"#utility.yul\":10461:10498   */\n      mstore\n        /* \"#utility.yul\":10344:10505   */\n      pop\n      jump\t// out\n        /* \"#utility.yul\":10511:10877   */\n    tag_129:\n        /* \"#utility.yul\":10653:10656   */\n      0x00\n        /* \"#utility.yul\":10674:10741   */\n      tag_236\n        /* \"#utility.yul\":10738:10740   */\n      0x0b\n        /* \"#utility.yul\":10733:10736   */\n      dup4\n        /* \"#utility.yul\":10674:10741   */\n      tag_122\n      jump\t// in\n    tag_236:\n        /* \"#utility.yul\":10667:10741   */\n      swap2\n      pop\n        /* \"#utility.yul\":10750:10843   */\n      tag_237\n        /* \"#utility.yul\":10839:10842   */\n      dup3\n        /* \"#utility.yul\":10750:10843   */\n      tag_128\n      jump\t// in\n    tag_237:\n        /* \"#utility.yul\":10868:10870   */\n      0x20\n        /* \"#utility.yul\":10863:10866   */\n      dup3\n        /* \"#utility.yul\":10859:10871   */\n      add\n        /* \"#utility.yul\":10852:10871   */\n      swap1\n      pop\n        /* \"#utility.yul\":10511:10877   */\n      swap2\n      swap1\n      pop\n      jump\t// out\n        /* \"#utility.yul\":10883:11302   */\n    tag_92:\n        /* \"#utility.yul\":11049:11053   */\n      0x00\n        /* \"#utility.yul\":11087:11089   */\n      0x20\n        /* \"#utility.yul\":11076:11085   */\n      dup3\n        /* \"#utility.yul\":11072:11090   */\n      add\n        /* \"#utility.yul\":11064:11090   */\n      swap1\n      pop\n        /* \"#utility.yul\":11136:11145   */\n      dup2\n        /* \"#utility.yul\":11130:11134   */\n      dup2\n        /* \"#utility.yul\":11126:11146   */\n      sub\n        /* \"#utility.yul\":11122:11123   */\n      0x00\n        /* \"#utility.yul\":11111:11120   */\n      dup4\n        /* \"#utility.yul\":11107:11124   */\n      add\n        /* \"#utility.yul\":11100:11147   */\n      mstore\n        /* \"#utility.yul\":11164:11295   */\n      tag_239\n        /* \"#utility.yul\":11290:11294   */\n      dup2\n        /* \"#utility.yul\":11164:11295   */\n      tag_129\n      jump\t// in\n    tag_239:\n        /* \"#utility.yul\":11156:11295   */\n      swap1\n      pop\n        /* \"#utility.yul\":10883:11302   */\n      swap2\n      swap1\n      pop\n      jump\t// out\n\n    auxdata: 0xa2646970667358221220a5cd7e429c2008fc5852f5d59b707c30d2f4c5e8e4814dca7dd649202d3e40cf64736f6c63430008120033\n}\n",
				"bytecode": {
					"linkReferences": {},
					"object": "608060405234801561001057600080fd5b50610fe3806100206000396000f3fe608060405234801561001057600080fd5b50600436106100935760003560e01c80636ffcc719116100665780636ffcc7191461015a5780639bc01b361461018a578063ce33bd74146101a8578063d82c13f0146101d8578063e5ed1d591461020857610093565b8063117a5b901461009857806316b169c4146100ca5780632c32b187146100fa57806334fcc3e71461012a575b600080fd5b6100b260048036038101906100ad9190610a84565b610238565b6040516100c193929190610b1c565b60405180910390f35b6100e460048036038101906100df9190610a84565b61028f565b6040516100f19190610c11565b60405180910390f35b610114600480360381019061010f9190610c5f565b610394565b6040516101219190610c9f565b60405180910390f35b610144600480360381019061013f9190610c5f565b61050e565b6040516101519190610c9f565b60405180910390f35b610174600480360381019061016f9190610cba565b6105cd565b6040516101819190610cfa565b60405180910390f35b610192610845565b60405161019f9190610dd3565b60405180910390f35b6101c260048036038101906101bd9190610a84565b61089d565b6040516101cf9190610c9f565b60405180910390f35b6101f260048036038101906101ed9190610a84565b61095b565b6040516101ff9190610c9f565b60405180910390f35b610222600480360381019061021d9190610a84565b61097f565b60405161022f9190610cfa565b60405180910390f35b60006020528060005260406000206000915090508060000160009054906101000a900460ff16908060020154908060040160009054906101000a900473ffffffffffffffffffffffffffffffffffffffff16905083565b606060008083815260200190815260200160002060000160009054906101000a900460ff166102f3576040517f08c379a00000000000000000000000000000000000000000000000000000000081526004016102ea90610e52565b60405180910390fd5b60008083815260200190815260200160002060030180548060200260200160405190810160405280929190818152602001828054801561038857602002820191906000526020600020905b8160009054906101000a900473ffffffffffffffffffffffffffffffffffffffff1673ffffffffffffffffffffffffffffffffffffffff168152602001906001019080831161033e575b50505050509050919050565b600080600084815260200190815260200160002060000160009054906101000a900460ff166103f8576040517f08c379a00000000000000000000000000000000000000000000000000000000081526004016103ef90610e52565b60405180910390fd5b600073ffffffffffffffffffffffffffffffffffffffff1660008085815260200190815260200160002060040160009054906101000a900473ffffffffffffffffffffffffffffffffffffffff1673ffffffffffffffffffffffffffffffffffffffff161461049c576040517f08c379a000000000000000000000000000000000000000000000000000000000815260040161049390610ebe565b60405180910390fd5b8160008085815260200190815260200160002060040160006101000a81548173ffffffffffffffffffffffffffffffffffffffff021916908373ffffffffffffffffffffffffffffffffffffffff16021790555060008084815260200190815260200160002060020154905092915050565b600080600084815260200190815260200160002060000160009054906101000a900460ff16610572576040517f08c379a000000000000000000000000000000000000000000000000000000000815260040161056990610e52565b60405180910390fd5b60008084815260200190815260200160002060010160008373ffffffffffffffffffffffffffffffffffffffff1673ffffffffffffffffffffffffffffffffffffffff16815260200190815260200160002054905092915050565b600080600084815260200190815260200160002060000160009054906101000a900460ff16610631576040517f08c379a000000000000000000000000000000000000000000000000000000000815260040161062890610e52565b60405180910390fd5b600073ffffffffffffffffffffffffffffffffffffffff1660008085815260200190815260200160002060040160009054906101000a900473ffffffffffffffffffffffffffffffffffffffff1673ffffffffffffffffffffffffffffffffffffffff16146106d5576040517f08c379a00000000000000000000000000000000000000000000000000000000081526004016106cc90610ebe565b60405180910390fd5b600080600085815260200190815260200160002060010160003373ffffffffffffffffffffffffffffffffffffffff1673ffffffffffffffffffffffffffffffffffffffff16815260200190815260200160002054036107a657600080848152602001908152602001600020600301339080600181540180825580915050600190039060005260206000200160009091909190916101000a81548173ffffffffffffffffffffffffffffffffffffffff021916908373ffffffffffffffffffffffffffffffffffffffff1602179055505b8160008085815260200190815260200160002060010160003373ffffffffffffffffffffffffffffffffffffffff1673ffffffffffffffffffffffffffffffffffffffff16815260200190815260200160002060008282546108089190610f0d565b925050819055508160008085815260200190815260200160002060020160008282546108349190610f0d565b925050819055506001905092915050565b6060600180548060200260200160405190810160405280929190818152602001828054801561089357602002820191906000526020600020905b81548152602001906001019080831161087f575b5050505050905090565b600080600083815260200190815260200160002060000160009054906101000a900460ff16610901576040517f08c379a00000000000000000000000000000000000000000000000000000000081526004016108f890610e52565b60405180910390fd5b60008083815260200190815260200160002060010160003373ffffffffffffffffffffffffffffffffffffffff1673ffffffffffffffffffffffffffffffffffffffff168152602001908152602001600020549050919050565b6001818154811061096b57600080fd5b906000526020600020016000915090505481565b600080151560008084815260200190815260200160002060000160009054906101000a900460ff161515146109e9576040517f08c379a00000000000000000000000000000000000000000000000000000000081526004016109e090610f8d565b60405180910390fd5b600160008084815260200190815260200160002060000160006101000a81548160ff021916908315150217905550600182908060018154018082558091505060019003906000526020600020016000909190919091505560019050919050565b600080fd5b6000819050919050565b610a6181610a4e565b8114610a6c57600080fd5b50565b600081359050610a7e81610a58565b92915050565b600060208284031215610a9a57610a99610a49565b5b6000610aa884828501610a6f565b91505092915050565b60008115159050919050565b610ac681610ab1565b82525050565b610ad581610a4e565b82525050565b600073ffffffffffffffffffffffffffffffffffffffff82169050919050565b6000610b0682610adb565b9050919050565b610b1681610afb565b82525050565b6000606082019050610b316000830186610abd565b610b3e6020830185610acc565b610b4b6040830184610b0d565b949350505050565b600081519050919050565b600082825260208201905092915050565b6000819050602082019050919050565b610b8881610afb565b82525050565b6000610b9a8383610b7f565b60208301905092915050565b6000602082019050919050565b6000610bbe82610b53565b610bc88185610b5e565b9350610bd383610b6f565b8060005b83811015610c04578151610beb8882610b8e565b9750610bf683610ba6565b925050600181019050610bd7565b5085935050505092915050565b60006020820190508181036000830152610c2b8184610bb3565b905092915050565b610c3c81610afb565b8114610c4757600080fd5b50565b600081359050610c5981610c33565b92915050565b60008060408385031215610c7657610c75610a49565b5b6000610c8485828601610a6f565b9250506020610c9585828601610c4a565b9150509250929050565b6000602082019050610cb46000830184610acc565b92915050565b60008060408385031215610cd157610cd0610a49565b5b6000610cdf85828601610a6f565b9250506020610cf085828601610a6f565b9150509250929050565b6000602082019050610d0f6000830184610abd565b92915050565b600081519050919050565b600082825260208201905092915050565b6000819050602082019050919050565b610d4a81610a4e565b82525050565b6000610d5c8383610d41565b60208301905092915050565b6000602082019050919050565b6000610d8082610d15565b610d8a8185610d20565b9350610d9583610d31565b8060005b83811015610dc6578151610dad8882610d50565b9750610db883610d68565b925050600181019050610d99565b5085935050505092915050565b60006020820190508181036000830152610ded8184610d75565b905092915050565b600082825260208201905092915050565b7f47616d6520496e697469616c697a656400000000000000000000000000000000600082015250565b6000610e3c601083610df5565b9150610e4782610e06565b602082019050919050565b60006020820190508181036000830152610e6b81610e2f565b9050919050565b7f46696e6973686564000000000000000000000000000000000000000000000000600082015250565b6000610ea8600883610df5565b9150610eb382610e72565b602082019050919050565b60006020820190508181036000830152610ed781610e9b565b9050919050565b7f4e487b7100000000000000000000000000000000000000000000000000000000600052601160045260246000fd5b6000610f1882610a4e565b9150610f2383610a4e565b9250828201905080821115610f3b57610f3a610ede565b5b92915050565b7f47616d6520657869737473000000000000000000000000000000000000000000600082015250565b6000610f77600b83610df5565b9150610f8282610f41565b602082019050919050565b60006020820190508181036000830152610fa681610f6a565b905091905056fea2646970667358221220a5cd7e429c2008fc5852f5d59b707c30d2f4c5e8e4814dca7dd649202d3e40cf64736f6c63430008120033",
					"opcodes": "PUSH1 0x80 PUSH1 0x40 MSTORE CALLVALUE DUP1 ISZERO PUSH2 0x10 JUMPI PUSH1 0x0 DUP1 REVERT JUMPDEST POP PUSH2 0xFE3 DUP1 PUSH2 0x20 PUSH1 0x0 CODECOPY PUSH1 0x0 RETURN INVALID PUSH1 0x80 PUSH1 0x40 MSTORE CALLVALUE DUP1 ISZERO PUSH2 0x10 JUMPI PUSH1 0x0 DUP1 REVERT JUMPDEST POP PUSH1 0x4 CALLDATASIZE LT PUSH2 0x93 JUMPI PUSH1 0x0 CALLDATALOAD PUSH1 0xE0 SHR DUP1 PUSH4 0x6FFCC719 GT PUSH2 0x66 JUMPI DUP1 PUSH4 0x6FFCC719 EQ PUSH2 0x15A JUMPI DUP1 PUSH4 0x9BC01B36 EQ PUSH2 0x18A JUMPI DUP1 PUSH4 0xCE33BD74 EQ PUSH2 0x1A8 JUMPI DUP1 PUSH4 0xD82C13F0 EQ PUSH2 0x1D8 JUMPI DUP1 PUSH4 0xE5ED1D59 EQ PUSH2 0x208 JUMPI PUSH2 0x93 JUMP JUMPDEST DUP1 PUSH4 0x117A5B90 EQ PUSH2 0x98 JUMPI DUP1 PUSH4 0x16B169C4 EQ PUSH2 0xCA JUMPI DUP1 PUSH4 0x2C32B187 EQ PUSH2 0xFA JUMPI DUP1 PUSH4 0x34FCC3E7 EQ PUSH2 0x12A JUMPI JUMPDEST PUSH1 0x0 DUP1 REVERT JUMPDEST PUSH2 0xB2 PUSH1 0x4 DUP1 CALLDATASIZE SUB DUP2 ADD SWAP1 PUSH2 0xAD SWAP2 SWAP1 PUSH2 0xA84 JUMP JUMPDEST PUSH2 0x238 JUMP JUMPDEST PUSH1 0x40 MLOAD PUSH2 0xC1 SWAP4 SWAP3 SWAP2 SWAP1 PUSH2 0xB1C JUMP JUMPDEST PUSH1 0x40 MLOAD DUP1 SWAP2 SUB SWAP1 RETURN JUMPDEST PUSH2 0xE4 PUSH1 0x4 DUP1 CALLDATASIZE SUB DUP2 ADD SWAP1 PUSH2 0xDF SWAP2 SWAP1 PUSH2 0xA84 JUMP JUMPDEST PUSH2 0x28F JUMP JUMPDEST PUSH1 0x40 MLOAD PUSH2 0xF1 SWAP2 SWAP1 PUSH2 0xC11 JUMP JUMPDEST PUSH1 0x40 MLOAD DUP1 SWAP2 SUB SWAP1 RETURN JUMPDEST PUSH2 0x114 PUSH1 0x4 DUP1 CALLDATASIZE SUB DUP2 ADD SWAP1 PUSH2 0x10F SWAP2 SWAP1 PUSH2 0xC5F JUMP JUMPDEST PUSH2 0x394 JUMP JUMPDEST PUSH1 0x40 MLOAD PUSH2 0x121 SWAP2 SWAP1 PUSH2 0xC9F JUMP JUMPDEST PUSH1 0x40 MLOAD DUP1 SWAP2 SUB SWAP1 RETURN JUMPDEST PUSH2 0x144 PUSH1 0x4 DUP1 CALLDATASIZE SUB DUP2 ADD SWAP1 PUSH2 0x13F SWAP2 SWAP1 PUSH2 0xC5F JUMP JUMPDEST PUSH2 0x50E JUMP JUMPDEST PUSH1 0x40 MLOAD PUSH2 0x151 SWAP2 SWAP1 PUSH2 0xC9F JUMP JUMPDEST PUSH1 0x40 MLOAD DUP1 SWAP2 SUB SWAP1 RETURN JUMPDEST PUSH2 0x174 PUSH1 0x4 DUP1 CALLDATASIZE SUB DUP2 ADD SWAP1 PUSH2 0x16F SWAP2 SWAP1 PUSH2 0xCBA JUMP JUMPDEST PUSH2 0x5CD JUMP JUMPDEST PUSH1 0x40 MLOAD PUSH2 0x181 SWAP2 SWAP1 PUSH2 0xCFA JUMP JUMPDEST PUSH1 0x40 MLOAD DUP1 SWAP2 SUB SWAP1 RETURN JUMPDEST PUSH2 0x192 PUSH2 0x845 JUMP JUMPDEST PUSH1 0x40 MLOAD PUSH2 0x19F SWAP2 SWAP1 PUSH2 0xDD3 JUMP JUMPDEST PUSH1 0x40 MLOAD DUP1 SWAP2 SUB SWAP1 RETURN JUMPDEST PUSH2 0x1C2 PUSH1 0x4 DUP1 CALLDATASIZE SUB DUP2 ADD SWAP1 PUSH2 0x1BD SWAP2 SWAP1 PUSH2 0xA84 JUMP JUMPDEST PUSH2 0x89D JUMP JUMPDEST PUSH1 0x40 MLOAD PUSH2 0x1CF SWAP2 SWAP1 PUSH2 0xC9F JUMP JUMPDEST PUSH1 0x40 MLOAD DUP1 SWAP2 SUB SWAP1 RETURN JUMPDEST PUSH2 0x1F2 PUSH1 0x4 DUP1 CALLDATASIZE SUB DUP2 ADD SWAP1 PUSH2 0x1ED SWAP2 SWAP1 PUSH2 0xA84 JUMP JUMPDEST PUSH2 0x95B JUMP JUMPDEST PUSH1 0x40 MLOAD PUSH2 0x1FF SWAP2 SWAP1 PUSH2 0xC9F JUMP JUMPDEST PUSH1 0x40 MLOAD DUP1 SWAP2 SUB SWAP1 RETURN JUMPDEST PUSH2 0x222 PUSH1 0x4 DUP1 CALLDATASIZE SUB DUP2 ADD SWAP1 PUSH2 0x21D SWAP2 SWAP1 PUSH2 0xA84 JUMP JUMPDEST PUSH2 0x97F JUMP JUMPDEST PUSH1 0x40 MLOAD PUSH2 0x22F SWAP2 SWAP1 PUSH2 0xCFA JUMP JUMPDEST PUSH1 0x40 MLOAD DUP1 SWAP2 SUB SWAP1 RETURN JUMPDEST PUSH1 0x0 PUSH1 0x20 MSTORE DUP1 PUSH1 0x0 MSTORE PUSH1 0x40 PUSH1 0x0 KECCAK256 PUSH1 0x0 SWAP2 POP SWAP1 POP DUP1 PUSH1 0x0 ADD PUSH1 0x0 SWAP1 SLOAD SWAP1 PUSH2 0x100 EXP SWAP1 DIV PUSH1 0xFF AND SWAP1 DUP1 PUSH1 0x2 ADD SLOAD SWAP1 DUP1 PUSH1 0x4 ADD PUSH1 0x0 SWAP1 SLOAD SWAP1 PUSH2 0x100 EXP SWAP1 DIV PUSH20 0xFFFFFFFFFFFFFFFFFFFFFFFFFFFFFFFFFFFFFFFF AND SWAP1 POP DUP4 JUMP JUMPDEST PUSH1 0x60 PUSH1 0x0 DUP1 DUP4 DUP2 MSTORE PUSH1 0x20 ADD SWAP1 DUP2 MSTORE PUSH1 0x20 ADD PUSH1 0x0 KECCAK256 PUSH1 0x0 ADD PUSH1 0x0 SWAP1 SLOAD SWAP1 PUSH2 0x100 EXP SWAP1 DIV PUSH1 0xFF AND PUSH2 0x2F3 JUMPI PUSH1 0x40 MLOAD PUSH32 0x8C379A000000000000000000000000000000000000000000000000000000000 DUP2 MSTORE PUSH1 0x4 ADD PUSH2 0x2EA SWAP1 PUSH2 0xE52 JUMP JUMPDEST PUSH1 0x40 MLOAD DUP1 SWAP2 SUB SWAP1 REVERT JUMPDEST PUSH1 0x0 DUP1 DUP4 DUP2 MSTORE PUSH1 0x20 ADD SWAP1 DUP2 MSTORE PUSH1 0x20 ADD PUSH1 0x0 KECCAK256 PUSH1 0x3 ADD DUP1 SLOAD DUP1 PUSH1 0x20 MUL PUSH1 0x20 ADD PUSH1 0x40 MLOAD SWAP1 DUP2 ADD PUSH1 0x40 MSTORE DUP1 SWAP3 SWAP2 SWAP1 DUP2 DUP2 MSTORE PUSH1 0x20 ADD DUP3 DUP1 SLOAD DUP1 ISZERO PUSH2 0x388 JUMPI PUSH1 0x20 MUL DUP3 ADD SWAP2 SWAP1 PUSH1 0x0 MSTORE PUSH1 0x20 PUSH1 0x0 KECCAK256 SWAP1 JUMPDEST DUP2 PUSH1 0x0 SWAP1 SLOAD SWAP1 PUSH2 0x100 EXP SWAP1 DIV PUSH20 0xFFFFFFFFFFFFFFFFFFFFFFFFFFFFFFFFFFFFFFFF AND PUSH20 0xFFFFFFFFFFFFFFFFFFFFFFFFFFFFFFFFFFFFFFFF AND DUP2 MSTORE PUSH1 0x20 ADD SWAP1 PUSH1 0x1 ADD SWAP1 DUP1 DUP4 GT PUSH2 0x33E JUMPI JUMPDEST POP POP POP POP POP SWAP1 POP SWAP2 SWAP1 POP JUMP JUMPDEST PUSH1 0x0 DUP1 PUSH1 0x0 DUP5 DUP2 MSTORE PUSH1 0x20 ADD SWAP1 DUP2 MSTORE PUSH1 0x20 ADD PUSH1 0x0 KECCAK256 PUSH1 0x0 ADD PUSH1 0x0 SWAP1 SLOAD SWAP1 PUSH2 0x100 EXP SWAP1 DIV PUSH1 0xFF AND PUSH2 0x3F8 JUMPI PUSH1 0x40 MLOAD PUSH32 0x8C379A000000000000000000000000000000000000000000000000000000000 DUP2 MSTORE PUSH1 0x4 ADD PUSH2 0x3EF SWAP1 PUSH2 0xE52 JUMP JUMPDEST PUSH1 0x40 MLOAD DUP1 SWAP2 SUB SWAP1 REVERT JUMPDEST PUSH1 0x0 PUSH20 0xFFFFFFFFFFFFFFFFFFFFFFFFFFFFFFFFFFFFFFFF AND PUSH1 0x0 DUP1 DUP6 DUP2 MSTORE PUSH1 0x20 ADD SWAP1 DUP2 MSTORE PUSH1 0x20 ADD PUSH1 0x0 KECCAK256 PUSH1 0x4 ADD PUSH1 0x0 SWAP1 SLOAD SWAP1 PUSH2 0x100 EXP SWAP1 DIV PUSH20 0xFFFFFFFFFFFFFFFFFFFFFFFFFFFFFFFFFFFFFFFF AND PUSH20 0xFFFFFFFFFFFFFFFFFFFFFFFFFFFFFFFFFFFFFFFF AND EQ PUSH2 0x49C JUMPI PUSH1 0x40 MLOAD PUSH32 0x8C379A000000000000000000000000000000000000000000000000000000000 DUP2 MSTORE PUSH1 0x4 ADD PUSH2 0x493 SWAP1 PUSH2 0xEBE JUMP JUMPDEST PUSH1 0x40 MLOAD DUP1 SWAP2 SUB SWAP1 REVERT JUMPDEST DUP2 PUSH1 0x0 DUP1 DUP6 DUP2 MSTORE PUSH1 0x20 ADD SWAP1 DUP2 MSTORE PUSH1 0x20 ADD PUSH1 0x0 KECCAK256 PUSH1 0x4 ADD PUSH1 0x0 PUSH2 0x100 EXP DUP2 SLOAD DUP2 PUSH20 0xFFFFFFFFFFFFFFFFFFFFFFFFFFFFFFFFFFFFFFFF MUL NOT AND SWAP1 DUP4 PUSH20 0xFFFFFFFFFFFFFFFFFFFFFFFFFFFFFFFFFFFFFFFF AND MUL OR SWAP1 SSTORE POP PUSH1 0x0 DUP1 DUP5 DUP2 MSTORE PUSH1 0x20 ADD SWAP1 DUP2 MSTORE PUSH1 0x20 ADD PUSH1 0x0 KECCAK256 PUSH1 0x2 ADD SLOAD SWAP1 POP SWAP3 SWAP2 POP POP JUMP JUMPDEST PUSH1 0x0 DUP1 PUSH1 0x0 DUP5 DUP2 MSTORE PUSH1 0x20 ADD SWAP1 DUP2 MSTORE PUSH1 0x20 ADD PUSH1 0x0 KECCAK256 PUSH1 0x0 ADD PUSH1 0x0 SWAP1 SLOAD SWAP1 PUSH2 0x100 EXP SWAP1 DIV PUSH1 0xFF AND PUSH2 0x572 JUMPI PUSH1 0x40 MLOAD PUSH32 0x8C379A000000000000000000000000000000000000000000000000000000000 DUP2 MSTORE PUSH1 0x4 ADD PUSH2 0x569 SWAP1 PUSH2 0xE52 JUMP JUMPDEST PUSH1 0x40 MLOAD DUP1 SWAP2 SUB SWAP1 REVERT JUMPDEST PUSH1 0x0 DUP1 DUP5 DUP2 MSTORE PUSH1 0x20 ADD SWAP1 DUP2 MSTORE PUSH1 0x20 ADD PUSH1 0x0 KECCAK256 PUSH1 0x1 ADD PUSH1 0x0 DUP4 PUSH20 0xFFFFFFFFFFFFFFFFFFFFFFFFFFFFFFFFFFFFFFFF AND PUSH20 0xFFFFFFFFFFFFFFFFFFFFFFFFFFFFFFFFFFFFFFFF AND DUP2 MSTORE PUSH1 0x20 ADD SWAP1 DUP2 MSTORE PUSH1 0x20 ADD PUSH1 0x0 KECCAK256 SLOAD SWAP1 POP SWAP3 SWAP2 POP POP JUMP JUMPDEST PUSH1 0x0 DUP1 PUSH1 0x0 DUP5 DUP2 MSTORE PUSH1 0x20 ADD SWAP1 DUP2 MSTORE PUSH1 0x20 ADD PUSH1 0x0 KECCAK256 PUSH1 0x0 ADD PUSH1 0x0 SWAP1 SLOAD SWAP1 PUSH2 0x100 EXP SWAP1 DIV PUSH1 0xFF AND PUSH2 0x631 JUMPI PUSH1 0x40 MLOAD PUSH32 0x8C379A000000000000000000000000000000000000000000000000000000000 DUP2 MSTORE PUSH1 0x4 ADD PUSH2 0x628 SWAP1 PUSH2 0xE52 JUMP JUMPDEST PUSH1 0x40 MLOAD DUP1 SWAP2 SUB SWAP1 REVERT JUMPDEST PUSH1 0x0 PUSH20 0xFFFFFFFFFFFFFFFFFFFFFFFFFFFFFFFFFFFFFFFF AND PUSH1 0x0 DUP1 DUP6 DUP2 MSTORE PUSH1 0x20 ADD SWAP1 DUP2 MSTORE PUSH1 0x20 ADD PUSH1 0x0 KECCAK256 PUSH1 0x4 ADD PUSH1 0x0 SWAP1 SLOAD SWAP1 PUSH2 0x100 EXP SWAP1 DIV PUSH20 0xFFFFFFFFFFFFFFFFFFFFFFFFFFFFFFFFFFFFFFFF AND PUSH20 0xFFFFFFFFFFFFFFFFFFFFFFFFFFFFFFFFFFFFFFFF AND EQ PUSH2 0x6D5 JUMPI PUSH1 0x40 MLOAD PUSH32 0x8C379A000000000000000000000000000000000000000000000000000000000 DUP2 MSTORE PUSH1 0x4 ADD PUSH2 0x6CC SWAP1 PUSH2 0xEBE JUMP JUMPDEST PUSH1 0x40 MLOAD DUP1 SWAP2 SUB SWAP1 REVERT JUMPDEST PUSH1 0x0 DUP1 PUSH1 0x0 DUP6 DUP2 MSTORE PUSH1 0x20 ADD SWAP1 DUP2 MSTORE PUSH1 0x20 ADD PUSH1 0x0 KECCAK256 PUSH1 0x1 ADD PUSH1 0x0 CALLER PUSH20 0xFFFFFFFFFFFFFFFFFFFFFFFFFFFFFFFFFFFFFFFF AND PUSH20 0xFFFFFFFFFFFFFFFFFFFFFFFFFFFFFFFFFFFFFFFF AND DUP2 MSTORE PUSH1 0x20 ADD SWAP1 DUP2 MSTORE PUSH1 0x20 ADD PUSH1 0x0 KECCAK256 SLOAD SUB PUSH2 0x7A6 JUMPI PUSH1 0x0 DUP1 DUP5 DUP2 MSTORE PUSH1 0x20 ADD SWAP1 DUP2 MSTORE PUSH1 0x20 ADD PUSH1 0x0 KECCAK256 PUSH1 0x3 ADD CALLER SWAP1 DUP1 PUSH1 0x1 DUP2 SLOAD ADD DUP1 DUP3 SSTORE DUP1 SWAP2 POP POP PUSH1 0x1 SWAP1 SUB SWAP1 PUSH1 0x0 MSTORE PUSH1 0x20 PUSH1 0x0 KECCAK256 ADD PUSH1 0x0 SWAP1 SWAP2 SWAP1 SWAP2 SWAP1 SWAP2 PUSH2 0x100 EXP DUP2 SLOAD DUP2 PUSH20 0xFFFFFFFFFFFFFFFFFFFFFFFFFFFFFFFFFFFFFFFF MUL NOT AND SWAP1 DUP4 PUSH20 0xFFFFFFFFFFFFFFFFFFFFFFFFFFFFFFFFFFFFFFFF AND MUL OR SWAP1 SSTORE POP JUMPDEST DUP2 PUSH1 0x0 DUP1 DUP6 DUP2 MSTORE PUSH1 0x20 ADD SWAP1 DUP2 MSTORE PUSH1 0x20 ADD PUSH1 0x0 KECCAK256 PUSH1 0x1 ADD PUSH1 0x0 CALLER PUSH20 0xFFFFFFFFFFFFFFFFFFFFFFFFFFFFFFFFFFFFFFFF AND PUSH20 0xFFFFFFFFFFFFFFFFFFFFFFFFFFFFFFFFFFFFFFFF AND DUP2 MSTORE PUSH1 0x20 ADD SWAP1 DUP2 MSTORE PUSH1 0x20 ADD PUSH1 0x0 KECCAK256 PUSH1 0x0 DUP3 DUP3 SLOAD PUSH2 0x808 SWAP2 SWAP1 PUSH2 0xF0D JUMP JUMPDEST SWAP3 POP POP DUP2 SWAP1 SSTORE POP DUP2 PUSH1 0x0 DUP1 DUP6 DUP2 MSTORE PUSH1 0x20 ADD SWAP1 DUP2 MSTORE PUSH1 0x20 ADD PUSH1 0x0 KECCAK256 PUSH1 0x2 ADD PUSH1 0x0 DUP3 DUP3 SLOAD PUSH2 0x834 SWAP2 SWAP1 PUSH2 0xF0D JUMP JUMPDEST SWAP3 POP POP DUP2 SWAP1 SSTORE POP PUSH1 0x1 SWAP1 POP SWAP3 SWAP2 POP POP JUMP JUMPDEST PUSH1 0x60 PUSH1 0x1 DUP1 SLOAD DUP1 PUSH1 0x20 MUL PUSH1 0x20 ADD PUSH1 0x40 MLOAD SWAP1 DUP2 ADD PUSH1 0x40 MSTORE DUP1 SWAP3 SWAP2 SWAP1 DUP2 DUP2 MSTORE PUSH1 0x20 ADD DUP3 DUP1 SLOAD DUP1 ISZERO PUSH2 0x893 JUMPI PUSH1 0x20 MUL DUP3 ADD SWAP2 SWAP1 PUSH1 0x0 MSTORE PUSH1 0x20 PUSH1 0x0 KECCAK256 SWAP1 JUMPDEST DUP2 SLOAD DUP2 MSTORE PUSH1 0x20 ADD SWAP1 PUSH1 0x1 ADD SWAP1 DUP1 DUP4 GT PUSH2 0x87F JUMPI JUMPDEST POP POP POP POP POP SWAP1 POP SWAP1 JUMP JUMPDEST PUSH1 0x0 DUP1 PUSH1 0x0 DUP4 DUP2 MSTORE PUSH1 0x20 ADD SWAP1 DUP2 MSTORE PUSH1 0x20 ADD PUSH1 0x0 KECCAK256 PUSH1 0x0 ADD PUSH1 0x0 SWAP1 SLOAD SWAP1 PUSH2 0x100 EXP SWAP1 DIV PUSH1 0xFF AND PUSH2 0x901 JUMPI PUSH1 0x40 MLOAD PUSH32 0x8C379A000000000000000000000000000000000000000000000000000000000 DUP2 MSTORE PUSH1 0x4 ADD PUSH2 0x8F8 SWAP1 PUSH2 0xE52 JUMP JUMPDEST PUSH1 0x40 MLOAD DUP1 SWAP2 SUB SWAP1 REVERT JUMPDEST PUSH1 0x0 DUP1 DUP4 DUP2 MSTORE PUSH1 0x20 ADD SWAP1 DUP2 MSTORE PUSH1 0x20 ADD PUSH1 0x0 KECCAK256 PUSH1 0x1 ADD PUSH1 0x0 CALLER PUSH20 0xFFFFFFFFFFFFFFFFFFFFFFFFFFFFFFFFFFFFFFFF AND PUSH20 0xFFFFFFFFFFFFFFFFFFFFFFFFFFFFFFFFFFFFFFFF AND DUP2 MSTORE PUSH1 0x20 ADD SWAP1 DUP2 MSTORE PUSH1 0x20 ADD PUSH1 0x0 KECCAK256 SLOAD SWAP1 POP SWAP2 SWAP1 POP JUMP JUMPDEST PUSH1 0x1 DUP2 DUP2 SLOAD DUP2 LT PUSH2 0x96B JUMPI PUSH1 0x0 DUP1 REVERT JUMPDEST SWAP1 PUSH1 0x0 MSTORE PUSH1 0x20 PUSH1 0x0 KECCAK256 ADD PUSH1 0x0 SWAP2 POP SWAP1 POP SLOAD DUP2 JUMP JUMPDEST PUSH1 0x0 DUP1 ISZERO ISZERO PUSH1 0x0 DUP1 DUP5 DUP2 MSTORE PUSH1 0x20 ADD SWAP1 DUP2 MSTORE PUSH1 0x20 ADD PUSH1 0x0 KECCAK256 PUSH1 0x0 ADD PUSH1 0x0 SWAP1 SLOAD SWAP1 PUSH2 0x100 EXP SWAP1 DIV PUSH1 0xFF AND ISZERO ISZERO EQ PUSH2 0x9E9 JUMPI PUSH1 0x40 MLOAD PUSH32 0x8C379A000000000000000000000000000000000000000000000000000000000 DUP2 MSTORE PUSH1 0x4 ADD PUSH2 0x9E0 SWAP1 PUSH2 0xF8D JUMP JUMPDEST PUSH1 0x40 MLOAD DUP1 SWAP2 SUB SWAP1 REVERT JUMPDEST PUSH1 0x1 PUSH1 0x0 DUP1 DUP5 DUP2 MSTORE PUSH1 0x20 ADD SWAP1 DUP2 MSTORE PUSH1 0x20 ADD PUSH1 0x0 KECCAK256 PUSH1 0x0 ADD PUSH1 0x0 PUSH2 0x100 EXP DUP2 SLOAD DUP2 PUSH1 0xFF MUL NOT AND SWAP1 DUP4 ISZERO ISZERO MUL OR SWAP1 SSTORE POP PUSH1 0x1 DUP3 SWAP1 DUP1 PUSH1 0x1 DUP2 SLOAD ADD DUP1 DUP3 SSTORE DUP1 SWAP2 POP POP PUSH1 0x1 SWAP1 SUB SWAP1 PUSH1 0x0 MSTORE PUSH1 0x20 PUSH1 0x0 KECCAK256 ADD PUSH1 0x0 SWAP1 SWAP2 SWAP1 SWAP2 SWAP1 SWAP2 POP SSTORE PUSH1 0x1 SWAP1 POP SWAP2 SWAP1 POP JUMP JUMPDEST PUSH1 0x0 DUP1 REVERT JUMPDEST PUSH1 0x0 DUP2 SWAP1 POP SWAP2 SWAP1 POP JUMP JUMPDEST PUSH2 0xA61 DUP2 PUSH2 0xA4E JUMP JUMPDEST DUP2 EQ PUSH2 0xA6C JUMPI PUSH1 0x0 DUP1 REVERT JUMPDEST POP JUMP JUMPDEST PUSH1 0x0 DUP2 CALLDATALOAD SWAP1 POP PUSH2 0xA7E DUP2 PUSH2 0xA58 JUMP JUMPDEST SWAP3 SWAP2 POP POP JUMP JUMPDEST PUSH1 0x0 PUSH1 0x20 DUP3 DUP5 SUB SLT ISZERO PUSH2 0xA9A JUMPI PUSH2 0xA99 PUSH2 0xA49 JUMP JUMPDEST JUMPDEST PUSH1 0x0 PUSH2 0xAA8 DUP5 DUP3 DUP6 ADD PUSH2 0xA6F JUMP JUMPDEST SWAP2 POP POP SWAP3 SWAP2 POP POP JUMP JUMPDEST PUSH1 0x0 DUP2 ISZERO ISZERO SWAP1 POP SWAP2 SWAP1 POP JUMP JUMPDEST PUSH2 0xAC6 DUP2 PUSH2 0xAB1 JUMP JUMPDEST DUP3 MSTORE POP POP JUMP JUMPDEST PUSH2 0xAD5 DUP2 PUSH2 0xA4E JUMP JUMPDEST DUP3 MSTORE POP POP JUMP JUMPDEST PUSH1 0x0 PUSH20 0xFFFFFFFFFFFFFFFFFFFFFFFFFFFFFFFFFFFFFFFF DUP3 AND SWAP1 POP SWAP2 SWAP1 POP JUMP JUMPDEST PUSH1 0x0 PUSH2 0xB06 DUP3 PUSH2 0xADB JUMP JUMPDEST SWAP1 POP SWAP2 SWAP1 POP JUMP JUMPDEST PUSH2 0xB16 DUP2 PUSH2 0xAFB JUMP JUMPDEST DUP3 MSTORE POP POP JUMP JUMPDEST PUSH1 0x0 PUSH1 0x60 DUP3 ADD SWAP1 POP PUSH2 0xB31 PUSH1 0x0 DUP4 ADD DUP7 PUSH2 0xABD JUMP JUMPDEST PUSH2 0xB3E PUSH1 0x20 DUP4 ADD DUP6 PUSH2 0xACC JUMP JUMPDEST PUSH2 0xB4B PUSH1 0x40 DUP4 ADD DUP5 PUSH2 0xB0D JUMP JUMPDEST SWAP5 SWAP4 POP POP POP POP JUMP JUMPDEST PUSH1 0x0 DUP2 MLOAD SWAP1 POP SWAP2 SWAP1 POP JUMP JUMPDEST PUSH1 0x0 DUP3 DUP3 MSTORE PUSH1 0x20 DUP3 ADD SWAP1 POP SWAP3 SWAP2 POP POP JUMP JUMPDEST PUSH1 0x0 DUP2 SWAP1 POP PUSH1 0x20 DUP3 ADD SWAP1 POP SWAP2 SWAP1 POP JUMP JUMPDEST PUSH2 0xB88 DUP2 PUSH2 0xAFB JUMP JUMPDEST DUP3 MSTORE POP POP JUMP JUMPDEST PUSH1 0x0 PUSH2 0xB9A DUP4 DUP4 PUSH2 0xB7F JUMP JUMPDEST PUSH1 0x20 DUP4 ADD SWAP1 POP SWAP3 SWAP2 POP POP JUMP JUMPDEST PUSH1 0x0 PUSH1 0x20 DUP3 ADD SWAP1 POP SWAP2 SWAP1 POP JUMP JUMPDEST PUSH1 0x0 PUSH2 0xBBE DUP3 PUSH2 0xB53 JUMP JUMPDEST PUSH2 0xBC8 DUP2 DUP6 PUSH2 0xB5E JUMP JUMPDEST SWAP4 POP PUSH2 0xBD3 DUP4 PUSH2 0xB6F JUMP JUMPDEST DUP1 PUSH1 0x0 JUMPDEST DUP4 DUP2 LT ISZERO PUSH2 0xC04 JUMPI DUP2 MLOAD PUSH2 0xBEB DUP9 DUP3 PUSH2 0xB8E JUMP JUMPDEST SWAP8 POP PUSH2 0xBF6 DUP4 PUSH2 0xBA6 JUMP JUMPDEST SWAP3 POP POP PUSH1 0x1 DUP2 ADD SWAP1 POP PUSH2 0xBD7 JUMP JUMPDEST POP DUP6 SWAP4 POP POP POP POP SWAP3 SWAP2 POP POP JUMP JUMPDEST PUSH1 0x0 PUSH1 0x20 DUP3 ADD SWAP1 POP DUP2 DUP2 SUB PUSH1 0x0 DUP4 ADD MSTORE PUSH2 0xC2B DUP2 DUP5 PUSH2 0xBB3 JUMP JUMPDEST SWAP1 POP SWAP3 SWAP2 POP POP JUMP JUMPDEST PUSH2 0xC3C DUP2 PUSH2 0xAFB JUMP JUMPDEST DUP2 EQ PUSH2 0xC47 JUMPI PUSH1 0x0 DUP1 REVERT JUMPDEST POP JUMP JUMPDEST PUSH1 0x0 DUP2 CALLDATALOAD SWAP1 POP PUSH2 0xC59 DUP2 PUSH2 0xC33 JUMP JUMPDEST SWAP3 SWAP2 POP POP JUMP JUMPDEST PUSH1 0x0 DUP1 PUSH1 0x40 DUP4 DUP6 SUB SLT ISZERO PUSH2 0xC76 JUMPI PUSH2 0xC75 PUSH2 0xA49 JUMP JUMPDEST JUMPDEST PUSH1 0x0 PUSH2 0xC84 DUP6 DUP3 DUP7 ADD PUSH2 0xA6F JUMP JUMPDEST SWAP3 POP POP PUSH1 0x20 PUSH2 0xC95 DUP6 DUP3 DUP7 ADD PUSH2 0xC4A JUMP JUMPDEST SWAP2 POP POP SWAP3 POP SWAP3 SWAP1 POP JUMP JUMPDEST PUSH1 0x0 PUSH1 0x20 DUP3 ADD SWAP1 POP PUSH2 0xCB4 PUSH1 0x0 DUP4 ADD DUP5 PUSH2 0xACC JUMP JUMPDEST SWAP3 SWAP2 POP POP JUMP JUMPDEST PUSH1 0x0 DUP1 PUSH1 0x40 DUP4 DUP6 SUB SLT ISZERO PUSH2 0xCD1 JUMPI PUSH2 0xCD0 PUSH2 0xA49 JUMP JUMPDEST JUMPDEST PUSH1 0x0 PUSH2 0xCDF DUP6 DUP3 DUP7 ADD PUSH2 0xA6F JUMP JUMPDEST SWAP3 POP POP PUSH1 0x20 PUSH2 0xCF0 DUP6 DUP3 DUP7 ADD PUSH2 0xA6F JUMP JUMPDEST SWAP2 POP POP SWAP3 POP SWAP3 SWAP1 POP JUMP JUMPDEST PUSH1 0x0 PUSH1 0x20 DUP3 ADD SWAP1 POP PUSH2 0xD0F PUSH1 0x0 DUP4 ADD DUP5 PUSH2 0xABD JUMP JUMPDEST SWAP3 SWAP2 POP POP JUMP JUMPDEST PUSH1 0x0 DUP2 MLOAD SWAP1 POP SWAP2 SWAP1 POP JUMP JUMPDEST PUSH1 0x0 DUP3 DUP3 MSTORE PUSH1 0x20 DUP3 ADD SWAP1 POP SWAP3 SWAP2 POP POP JUMP JUMPDEST PUSH1 0x0 DUP2 SWAP1 POP PUSH1 0x20 DUP3 ADD SWAP1 POP SWAP2 SWAP1 POP JUMP JUMPDEST PUSH2 0xD4A DUP2 PUSH2 0xA4E JUMP JUMPDEST DUP3 MSTORE POP POP JUMP JUMPDEST PUSH1 0x0 PUSH2 0xD5C DUP4 DUP4 PUSH2 0xD41 JUMP JUMPDEST PUSH1 0x20 DUP4 ADD SWAP1 POP SWAP3 SWAP2 POP POP JUMP JUMPDEST PUSH1 0x0 PUSH1 0x20 DUP3 ADD SWAP1 POP SWAP2 SWAP1 POP JUMP JUMPDEST PUSH1 0x0 PUSH2 0xD80 DUP3 PUSH2 0xD15 JUMP JUMPDEST PUSH2 0xD8A DUP2 DUP6 PUSH2 0xD20 JUMP JUMPDEST SWAP4 POP PUSH2 0xD95 DUP4 PUSH2 0xD31 JUMP JUMPDEST DUP1 PUSH1 0x0 JUMPDEST DUP4 DUP2 LT ISZERO PUSH2 0xDC6 JUMPI DUP2 MLOAD PUSH2 0xDAD DUP9 DUP3 PUSH2 0xD50 JUMP JUMPDEST SWAP8 POP PUSH2 0xDB8 DUP4 PUSH2 0xD68 JUMP JUMPDEST SWAP3 POP POP PUSH1 0x1 DUP2 ADD SWAP1 POP PUSH2 0xD99 JUMP JUMPDEST POP DUP6 SWAP4 POP POP POP POP SWAP3 SWAP2 POP POP JUMP JUMPDEST PUSH1 0x0 PUSH1 0x20 DUP3 ADD SWAP1 POP DUP2 DUP2 SUB PUSH1 0x0 DUP4 ADD MSTORE PUSH2 0xDED DUP2 DUP5 PUSH2 0xD75 JUMP JUMPDEST SWAP1 POP SWAP3 SWAP2 POP POP JUMP JUMPDEST PUSH1 0x0 DUP3 DUP3 MSTORE PUSH1 0x20 DUP3 ADD SWAP1 POP SWAP3 SWAP2 POP POP JUMP JUMPDEST PUSH32 0x47616D6520496E697469616C697A656400000000000000000000000000000000 PUSH1 0x0 DUP3 ADD MSTORE POP JUMP JUMPDEST PUSH1 0x0 PUSH2 0xE3C PUSH1 0x10 DUP4 PUSH2 0xDF5 JUMP JUMPDEST SWAP2 POP PUSH2 0xE47 DUP3 PUSH2 0xE06 JUMP JUMPDEST PUSH1 0x20 DUP3 ADD SWAP1 POP SWAP2 SWAP1 POP JUMP JUMPDEST PUSH1 0x0 PUSH1 0x20 DUP3 ADD SWAP1 POP DUP2 DUP2 SUB PUSH1 0x0 DUP4 ADD MSTORE PUSH2 0xE6B DUP2 PUSH2 0xE2F JUMP JUMPDEST SWAP1 POP SWAP2 SWAP1 POP JUMP JUMPDEST PUSH32 0x46696E6973686564000000000000000000000000000000000000000000000000 PUSH1 0x0 DUP3 ADD MSTORE POP JUMP JUMPDEST PUSH1 0x0 PUSH2 0xEA8 PUSH1 0x8 DUP4 PUSH2 0xDF5 JUMP JUMPDEST SWAP2 POP PUSH2 0xEB3 DUP3 PUSH2 0xE72 JUMP JUMPDEST PUSH1 0x20 DUP3 ADD SWAP1 POP SWAP2 SWAP1 POP JUMP JUMPDEST PUSH1 0x0 PUSH1 0x20 DUP3 ADD SWAP1 POP DUP2 DUP2 SUB PUSH1 0x0 DUP4 ADD MSTORE PUSH2 0xED7 DUP2 PUSH2 0xE9B JUMP JUMPDEST SWAP1 POP SWAP2 SWAP1 POP JUMP JUMPDEST PUSH32 0x4E487B7100000000000000000000000000000000000000000000000000000000 PUSH1 0x0 MSTORE PUSH1 0x11 PUSH1 0x4 MSTORE PUSH1 0x24 PUSH1 0x0 REVERT JUMPDEST PUSH1 0x0 PUSH2 0xF18 DUP3 PUSH2 0xA4E JUMP JUMPDEST SWAP2 POP PUSH2 0xF23 DUP4 PUSH2 0xA4E JUMP JUMPDEST SWAP3 POP DUP3 DUP3 ADD SWAP1 POP DUP1 DUP3 GT ISZERO PUSH2 0xF3B JUMPI PUSH2 0xF3A PUSH2 0xEDE JUMP JUMPDEST JUMPDEST SWAP3 SWAP2 POP POP JUMP JUMPDEST PUSH32 0x47616D6520657869737473000000000000000000000000000000000000000000 PUSH1 0x0 DUP3 ADD MSTORE POP JUMP JUMPDEST PUSH1 0x0 PUSH2 0xF77 PUSH1 0xB DUP4 PUSH2 0xDF5 JUMP JUMPDEST SWAP2 POP PUSH2 0xF82 DUP3 PUSH2 0xF41 JUMP JUMPDEST PUSH1 0x20 DUP3 ADD SWAP1 POP SWAP2 SWAP1 POP JUMP JUMPDEST PUSH1 0x0 PUSH1 0x20 DUP3 ADD SWAP1 POP DUP2 DUP2 SUB PUSH1 0x0 DUP4 ADD MSTORE PUSH2 0xFA6 DUP2 PUSH2 0xF6A JUMP JUMPDEST SWAP1 POP SWAP2 SWAP1 POP JUMP INVALID LOG2 PUSH5 0x6970667358 0x22 SLT KECCAK256 0xA5 0xCD PUSH31 0x429C2008FC5852F5D59B707C30D2F4C5E8E4814DCA7DD649202D3E40CF6473 PUSH16 0x6C634300081200330000000000000000 "
				},
				"gasEstimates": {
					"creation": {
						"codeDepositCost": "813400",
						"executionCost": "851",
						"totalCost": "814251"
					},
					"external": {
						"bet(uint256,uint256)": "infinite",
						"finish(uint256,address)": "infinite",
						"gameIds(uint256)": "infinite",
						"gameUsers(uint256)": "infinite",
						"games(uint256)": "infinite",
						"getBetting(uint256,address)": "infinite",
						"listGameIds()": "infinite",
						"myBetting(uint256)": "infinite",
						"startGame(uint256)": "73725"
					}
				},
				"methodIdentifiers": {
					"bet(uint256,uint256)": "6ffcc719",
					"finish(uint256,address)": "2c32b187",
					"gameIds(uint256)": "d82c13f0",
					"gameUsers(uint256)": "16b169c4",
					"games(uint256)": "117a5b90",
					"getBetting(uint256,address)": "34fcc3e7",
					"listGameIds()": "9bc01b36",
					"myBetting(uint256)": "ce33bd74",
					"startGame(uint256)": "e5ed1d59"
				}
			},
			"storageLayout": {
				"storage": [
					{
						"astId": 21,
						"contract": "contracts/4_Hello.sol:Hello",
						"label": "games",
						"offset": 0,
						"slot": "0",
						"type": "t_mapping(t_uint256,t_struct(Game)16_storage)"
					},
					{
						"astId": 24,
						"contract": "contracts/4_Hello.sol:Hello",
						"label": "gameIds",
						"offset": 0,
						"slot": "1",
						"type": "t_array(t_uint256)dyn_storage"
					}
				],
				"types": {
					"t_address": {
						"encoding": "inplace",
						"label": "address",
						"numberOfBytes": "20"
					},
					"t_array(t_address)dyn_storage": {
						"base": "t_address",
						"encoding": "dynamic_array",
						"label": "address[]",
						"numberOfBytes": "32"
					},
					"t_array(t_uint256)dyn_storage": {
						"base": "t_uint256",
						"encoding": "dynamic_array",
						"label": "uint256[]",
						"numberOfBytes": "32"
					},
					"t_bool": {
						"encoding": "inplace",
						"label": "bool",
						"numberOfBytes": "1"
					},
					"t_mapping(t_address,t_uint256)": {
						"encoding": "mapping",
						"key": "t_address",
						"label": "mapping(address => uint256)",
						"numberOfBytes": "32",
						"value": "t_uint256"
					},
					"t_mapping(t_uint256,t_struct(Game)16_storage)": {
						"encoding": "mapping",
						"key": "t_uint256",
						"label": "mapping(uint256 => struct Hello.Game)",
						"numberOfBytes": "32",
						"value": "t_struct(Game)16_storage"
					},
					"t_struct(Game)16_storage": {
						"encoding": "inplace",
						"label": "struct Hello.Game",
						"members": [
							{
								"astId": 4,
								"contract": "contracts/4_Hello.sol:Hello",
								"label": "initialized",
								"offset": 0,
								"slot": "0",
								"type": "t_bool"
							},
							{
								"astId": 8,
								"contract": "contracts/4_Hello.sol:Hello",
								"label": "bettings",
								"offset": 0,
								"slot": "1",
								"type": "t_mapping(t_address,t_uint256)"
							},
							{
								"astId": 10,
								"contract": "contracts/4_Hello.sol:Hello",
								"label": "totalBettings",
								"offset": 0,
								"slot": "2",
								"type": "t_uint256"
							},
							{
								"astId": 13,
								"contract": "contracts/4_Hello.sol:Hello",
								"label": "users",
								"offset": 0,
								"slot": "3",
								"type": "t_array(t_address)dyn_storage"
							},
							{
								"astId": 15,
								"contract": "contracts/4_Hello.sol:Hello",
								"label": "winner",
								"offset": 0,
								"slot": "4",
								"type": "t_address"
							}
						],
						"numberOfBytes": "160"
					},
					"t_uint256": {
						"encoding": "inplace",
						"label": "uint256",
						"numberOfBytes": "32"
					}
				}
			},
			"userdoc": {
				"kind": "user",
				"methods": {},
				"version": 1
			}
		}
	}
}