{
	"contracts/4_Game.sol": {
		"GameContract": {
			"abi": [
				{
					"inputs": [],
					"stateMutability": "nonpayable",
					"type": "constructor"
				},
				{
					"anonymous": false,
					"inputs": [
						{
							"indexed": false,
							"internalType": "address",
							"name": "batter",
							"type": "address"
						},
						{
							"indexed": false,
							"internalType": "uint256",
							"name": "amount",
							"type": "uint256"
						}
					],
					"name": "Bat",
					"type": "event"
				},
				{
					"anonymous": false,
					"inputs": [
						{
							"indexed": false,
							"internalType": "address",
							"name": "winner",
							"type": "address"
						},
						{
							"indexed": false,
							"internalType": "uint256",
							"name": "reward",
							"type": "uint256"
						},
						{
							"indexed": false,
							"internalType": "uint256",
							"name": "fee",
							"type": "uint256"
						}
					],
					"name": "GameFinish",
					"type": "event"
				},
				{
					"anonymous": false,
					"inputs": [
						{
							"indexed": false,
							"internalType": "uint256",
							"name": "gameId",
							"type": "uint256"
						}
					],
					"name": "GameStart",
					"type": "event"
				},
				{
					"anonymous": false,
					"inputs": [
						{
							"indexed": true,
							"internalType": "bytes32",
							"name": "role",
							"type": "bytes32"
						},
						{
							"indexed": true,
							"internalType": "bytes32",
							"name": "previousAdminRole",
							"type": "bytes32"
						},
						{
							"indexed": true,
							"internalType": "bytes32",
							"name": "newAdminRole",
							"type": "bytes32"
						}
					],
					"name": "RoleAdminChanged",
					"type": "event"
				},
				{
					"anonymous": false,
					"inputs": [
						{
							"indexed": true,
							"internalType": "bytes32",
							"name": "role",
							"type": "bytes32"
						},
						{
							"indexed": true,
							"internalType": "address",
							"name": "account",
							"type": "address"
						},
						{
							"indexed": true,
							"internalType": "address",
							"name": "sender",
							"type": "address"
						}
					],
					"name": "RoleGranted",
					"type": "event"
				},
				{
					"anonymous": false,
					"inputs": [
						{
							"indexed": true,
							"internalType": "bytes32",
							"name": "role",
							"type": "bytes32"
						},
						{
							"indexed": true,
							"internalType": "address",
							"name": "account",
							"type": "address"
						},
						{
							"indexed": true,
							"internalType": "address",
							"name": "sender",
							"type": "address"
						}
					],
					"name": "RoleRevoked",
					"type": "event"
				},
				{
					"anonymous": false,
					"inputs": [
						{
							"indexed": false,
							"internalType": "address",
							"name": "withdrawer",
							"type": "address"
						},
						{
							"indexed": false,
							"internalType": "uint256",
							"name": "amount",
							"type": "uint256"
						}
					],
					"name": "Withdraw",
					"type": "event"
				},
				{
					"inputs": [],
					"name": "DEFAULT_ADMIN_ROLE",
					"outputs": [
						{
							"internalType": "bytes32",
							"name": "",
							"type": "bytes32"
						}
					],
					"stateMutability": "view",
					"type": "function"
				},
				{
					"inputs": [
						{
							"internalType": "uint256",
							"name": "gameId",
							"type": "uint256"
						},
						{
							"internalType": "uint256",
							"name": "amount",
							"type": "uint256"
						}
					],
					"name": "bet",
					"outputs": [
						{
							"internalType": "bool",
							"name": "",
							"type": "bool"
						}
					],
					"stateMutability": "nonpayable",
					"type": "function"
				},
				{
					"inputs": [],
					"name": "feePercent",
					"outputs": [
						{
							"internalType": "uint256",
							"name": "",
							"type": "uint256"
						}
					],
					"stateMutability": "view",
					"type": "function"
				},
				{
					"inputs": [],
					"name": "feeTotal",
					"outputs": [
						{
							"internalType": "uint256",
							"name": "",
							"type": "uint256"
						}
					],
					"stateMutability": "view",
					"type": "function"
				},
				{
					"inputs": [
						{
							"internalType": "uint256",
							"name": "gameId",
							"type": "uint256"
						},
						{
							"internalType": "address",
							"name": "winner",
							"type": "address"
						}
					],
					"name": "finish",
					"outputs": [
						{
							"internalType": "uint256",
							"name": "",
							"type": "uint256"
						}
					],
					"stateMutability": "nonpayable",
					"type": "function"
				},
				{
					"inputs": [
						{
							"internalType": "uint256",
							"name": "",
							"type": "uint256"
						}
					],
					"name": "gameIds",
					"outputs": [
						{
							"internalType": "uint256",
							"name": "",
							"type": "uint256"
						}
					],
					"stateMutability": "view",
					"type": "function"
				},
				{
					"inputs": [
						{
							"internalType": "uint256",
							"name": "gameId",
							"type": "uint256"
						}
					],
					"name": "gameUsers",
					"outputs": [
						{
							"internalType": "address[]",
							"name": "",
							"type": "address[]"
						}
					],
					"stateMutability": "view",
					"type": "function"
				},
				{
					"inputs": [
						{
							"internalType": "uint256",
							"name": "",
							"type": "uint256"
						}
					],
					"name": "games",
					"outputs": [
						{
							"internalType": "bool",
							"name": "initialized",
							"type": "bool"
						},
						{
							"internalType": "uint256",
							"name": "totalBettings",
							"type": "uint256"
						},
						{
							"internalType": "address",
							"name": "winner",
							"type": "address"
						}
					],
					"stateMutability": "view",
					"type": "function"
				},
				{
					"inputs": [
						{
							"internalType": "uint256",
							"name": "gameId",
							"type": "uint256"
						},
						{
							"internalType": "address",
							"name": "better",
							"type": "address"
						}
					],
					"name": "getBetting",
					"outputs": [
						{
							"internalType": "uint256",
							"name": "",
							"type": "uint256"
						}
					],
					"stateMutability": "view",
					"type": "function"
				},
				{
					"inputs": [
						{
							"internalType": "bytes32",
							"name": "role",
							"type": "bytes32"
						}
					],
					"name": "getRoleAdmin",
					"outputs": [
						{
							"internalType": "bytes32",
							"name": "",
							"type": "bytes32"
						}
					],
					"stateMutability": "view",
					"type": "function"
				},
				{
					"inputs": [
						{
							"internalType": "bytes32",
							"name": "role",
							"type": "bytes32"
						},
						{
							"internalType": "address",
							"name": "account",
							"type": "address"
						}
					],
					"name": "grantRole",
					"outputs": [],
					"stateMutability": "nonpayable",
					"type": "function"
				},
				{
					"inputs": [
						{
							"internalType": "bytes32",
							"name": "role",
							"type": "bytes32"
						},
						{
							"internalType": "address",
							"name": "account",
							"type": "address"
						}
					],
					"name": "hasRole",
					"outputs": [
						{
							"internalType": "bool",
							"name": "",
							"type": "bool"
						}
					],
					"stateMutability": "view",
					"type": "function"
				},
				{
					"inputs": [],
					"name": "listGameIds",
					"outputs": [
						{
							"internalType": "uint256[]",
							"name": "",
							"type": "uint256[]"
						}
					],
					"stateMutability": "view",
					"type": "function"
				},
				{
					"inputs": [
						{
							"internalType": "uint256",
							"name": "gameId",
							"type": "uint256"
						}
					],
					"name": "myBetting",
					"outputs": [
						{
							"internalType": "uint256",
							"name": "",
							"type": "uint256"
						}
					],
					"stateMutability": "view",
					"type": "function"
				},
				{
					"inputs": [
						{
							"internalType": "bytes32",
							"name": "role",
							"type": "bytes32"
						},
						{
							"internalType": "address",
							"name": "account",
							"type": "address"
						}
					],
					"name": "renounceRole",
					"outputs": [],
					"stateMutability": "nonpayable",
					"type": "function"
				},
				{
					"inputs": [
						{
							"internalType": "bytes32",
							"name": "role",
							"type": "bytes32"
						},
						{
							"internalType": "address",
							"name": "account",
							"type": "address"
						}
					],
					"name": "revokeRole",
					"outputs": [],
					"stateMutability": "nonpayable",
					"type": "function"
				},
				{
					"inputs": [
						{
							"internalType": "address",
							"name": "newContract",
							"type": "address"
						}
					],
					"name": "setErc20",
					"outputs": [
						{
							"internalType": "bool",
							"name": "",
							"type": "bool"
						}
					],
					"stateMutability": "nonpayable",
					"type": "function"
				},
				{
					"inputs": [
						{
							"internalType": "uint256",
							"name": "newId",
							"type": "uint256"
						}
					],
					"name": "startGame",
					"outputs": [
						{
							"internalType": "bool",
							"name": "",
							"type": "bool"
						}
					],
					"stateMutability": "nonpayable",
					"type": "function"
				},
				{
					"inputs": [
						{
							"internalType": "bytes4",
							"name": "interfaceId",
							"type": "bytes4"
						}
					],
					"name": "supportsInterface",
					"outputs": [
						{
							"internalType": "bool",
							"name": "",
							"type": "bool"
						}
					],
					"stateMutability": "view",
					"type": "function"
				},
				{
					"inputs": [],
					"name": "tokenContract",
					"outputs": [
						{
							"internalType": "address",
							"name": "",
							"type": "address"
						}
					],
					"stateMutability": "view",
					"type": "function"
				},
				{
					"inputs": [],
					"name": "withdrawAll",
					"outputs": [
						{
							"internalType": "uint256",
							"name": "amount",
							"type": "uint256"
						}
					],
					"stateMutability": "nonpayable",
					"type": "function"
				}
			],
			"devdoc": {
				"events": {
					"RoleAdminChanged(bytes32,bytes32,bytes32)": {
						"details": "Emitted when `newAdminRole` is set as ``role``'s admin role, replacing `previousAdminRole` `DEFAULT_ADMIN_ROLE` is the starting admin for all roles, despite {RoleAdminChanged} not being emitted signaling this. _Available since v3.1._"
					},
					"RoleGranted(bytes32,address,address)": {
						"details": "Emitted when `account` is granted `role`. `sender` is the account that originated the contract call, an admin role bearer except when using {AccessControl-_setupRole}."
					},
					"RoleRevoked(bytes32,address,address)": {
						"details": "Emitted when `account` is revoked `role`. `sender` is the account that originated the contract call:   - if using `revokeRole`, it is the admin role bearer   - if using `renounceRole`, it is the role bearer (i.e. `account`)"
					}
				},
				"kind": "dev",
				"methods": {
					"getRoleAdmin(bytes32)": {
						"details": "Returns the admin role that controls `role`. See {grantRole} and {revokeRole}. To change a role's admin, use {_setRoleAdmin}."
					},
					"grantRole(bytes32,address)": {
						"details": "Grants `role` to `account`. If `account` had not been already granted `role`, emits a {RoleGranted} event. Requirements: - the caller must have ``role``'s admin role. May emit a {RoleGranted} event."
					},
					"hasRole(bytes32,address)": {
						"details": "Returns `true` if `account` has been granted `role`."
					},
					"renounceRole(bytes32,address)": {
						"details": "Revokes `role` from the calling account. Roles are often managed via {grantRole} and {revokeRole}: this function's purpose is to provide a mechanism for accounts to lose their privileges if they are compromised (such as when a trusted device is misplaced). If the calling account had been revoked `role`, emits a {RoleRevoked} event. Requirements: - the caller must be `account`. May emit a {RoleRevoked} event."
					},
					"revokeRole(bytes32,address)": {
						"details": "Revokes `role` from `account`. If `account` had been granted `role`, emits a {RoleRevoked} event. Requirements: - the caller must have ``role``'s admin role. May emit a {RoleRevoked} event."
					},
					"supportsInterface(bytes4)": {
						"details": "See {IERC165-supportsInterface}."
					}
				},
				"version": 1
			},
			"evm": {
				"assembly": "    /* \"contracts/4_Game.sol\":539:4152  contract GameContract is Context, AccessControl {... */\n  mstore(0x40, 0x80)\n    /* \"contracts/4_Game.sol\":1100:1102  20 */\n  0x14\n    /* \"contracts/4_Game.sol\":1075:1102  uint public feePercent = 20 */\n  0x04\n  sstore\n    /* \"contracts/4_Game.sol\":1132:1133  0 */\n  0x00\n    /* \"contracts/4_Game.sol\":1109:1133  uint public feeTotal = 0 */\n  0x05\n  sstore\n    /* \"contracts/4_Game.sol\":1142:1217  constructor() {... */\n  callvalue\n  dup1\n  iszero\n  tag_1\n  jumpi\n  0x00\n  dup1\n  revert\ntag_1:\n  pop\n    /* \"contracts/4_Game.sol\":1167:1209  _setupRole(DEFAULT_ADMIN_ROLE, msg.sender) */\n  tag_4\n    /* \"https://github.com/OpenZeppelin/openzeppelin-contracts/blob/v4.9.3/contracts/access/AccessControl.sol\":2198:2202  0x00 */\n  0x00\n    /* \"contracts/4_Game.sol\":1178:1196  DEFAULT_ADMIN_ROLE */\n  dup1\n  shl\n    /* \"contracts/4_Game.sol\":1198:1208  msg.sender */\n  caller\n    /* \"contracts/4_Game.sol\":1167:1177  _setupRole */\n  shl(0x20, tag_5)\n    /* \"contracts/4_Game.sol\":1167:1209  _setupRole(DEFAULT_ADMIN_ROLE, msg.sender) */\n  0x20\n  shr\n  jump\t// in\ntag_4:\n    /* \"contracts/4_Game.sol\":539:4152  contract GameContract is Context, AccessControl {... */\n  jump(tag_6)\n    /* \"https://github.com/OpenZeppelin/openzeppelin-contracts/blob/v4.9.3/contracts/access/AccessControl.sol\":6937:7047  function _setupRole(bytes32 role, address account) internal virtual {... */\ntag_5:\n    /* \"https://github.com/OpenZeppelin/openzeppelin-contracts/blob/v4.9.3/contracts/access/AccessControl.sol\":7015:7040  _grantRole(role, account) */\n  tag_8\n    /* \"https://github.com/OpenZeppelin/openzeppelin-contracts/blob/v4.9.3/contracts/access/AccessControl.sol\":7026:7030  role */\n  dup3\n    /* \"https://github.com/OpenZeppelin/openzeppelin-contracts/blob/v4.9.3/contracts/access/AccessControl.sol\":7032:7039  account */\n  dup3\n    /* \"https://github.com/OpenZeppelin/openzeppelin-contracts/blob/v4.9.3/contracts/access/AccessControl.sol\":7015:7025  _grantRole */\n  shl(0x20, tag_9)\n    /* \"https://github.com/OpenZeppelin/openzeppelin-contracts/blob/v4.9.3/contracts/access/AccessControl.sol\":7015:7040  _grantRole(role, account) */\n  0x20\n  shr\n  jump\t// in\ntag_8:\n    /* \"https://github.com/OpenZeppelin/openzeppelin-contracts/blob/v4.9.3/contracts/access/AccessControl.sol\":6937:7047  function _setupRole(bytes32 role, address account) internal virtual {... */\n  pop\n  pop\n  jump\t// out\n    /* \"https://github.com/OpenZeppelin/openzeppelin-contracts/blob/v4.9.3/contracts/access/AccessControl.sol\":7587:7820  function _grantRole(bytes32 role, address account) internal virtual {... */\ntag_9:\n    /* \"https://github.com/OpenZeppelin/openzeppelin-contracts/blob/v4.9.3/contracts/access/AccessControl.sol\":7670:7692  hasRole(role, account) */\n  tag_11\n    /* \"https://github.com/OpenZeppelin/openzeppelin-contracts/blob/v4.9.3/contracts/access/AccessControl.sol\":7678:7682  role */\n  dup3\n    /* \"https://github.com/OpenZeppelin/openzeppelin-contracts/blob/v4.9.3/contracts/access/AccessControl.sol\":7684:7691  account */\n  dup3\n    /* \"https://github.com/OpenZeppelin/openzeppelin-contracts/blob/v4.9.3/contracts/access/AccessControl.sol\":7670:7677  hasRole */\n  shl(0x20, tag_12)\n    /* \"https://github.com/OpenZeppelin/openzeppelin-contracts/blob/v4.9.3/contracts/access/AccessControl.sol\":7670:7692  hasRole(role, account) */\n  0x20\n  shr\n  jump\t// in\ntag_11:\n    /* \"https://github.com/OpenZeppelin/openzeppelin-contracts/blob/v4.9.3/contracts/access/AccessControl.sol\":7665:7814  if (!hasRole(role, account)) {... */\n  tag_13\n  jumpi\n    /* \"https://github.com/OpenZeppelin/openzeppelin-contracts/blob/v4.9.3/contracts/access/AccessControl.sol\":7740:7744  true */\n  0x01\n    /* \"https://github.com/OpenZeppelin/openzeppelin-contracts/blob/v4.9.3/contracts/access/AccessControl.sol\":7708:7714  _roles */\n  0x00\n    /* \"https://github.com/OpenZeppelin/openzeppelin-contracts/blob/v4.9.3/contracts/access/AccessControl.sol\":7708:7720  _roles[role] */\n  dup1\n    /* \"https://github.com/OpenZeppelin/openzeppelin-contracts/blob/v4.9.3/contracts/access/AccessControl.sol\":7715:7719  role */\n  dup5\n    /* \"https://github.com/OpenZeppelin/openzeppelin-contracts/blob/v4.9.3/contracts/access/AccessControl.sol\":7708:7720  _roles[role] */\n  dup2\n  mstore\n  0x20\n  add\n  swap1\n  dup2\n  mstore\n  0x20\n  add\n  0x00\n  keccak256\n    /* \"https://github.com/OpenZeppelin/openzeppelin-contracts/blob/v4.9.3/contracts/access/AccessControl.sol\":7708:7728  _roles[role].members */\n  0x00\n  add\n    /* \"https://github.com/OpenZeppelin/openzeppelin-contracts/blob/v4.9.3/contracts/access/AccessControl.sol\":7708:7737  _roles[role].members[account] */\n  0x00\n    /* \"https://github.com/OpenZeppelin/openzeppelin-contracts/blob/v4.9.3/contracts/access/AccessControl.sol\":7729:7736  account */\n  dup4\n    /* \"https://github.com/OpenZeppelin/openzeppelin-contracts/blob/v4.9.3/contracts/access/AccessControl.sol\":7708:7737  _roles[role].members[account] */\n  0xffffffffffffffffffffffffffffffffffffffff\n  and\n  0xffffffffffffffffffffffffffffffffffffffff\n  and\n  dup2\n  mstore\n  0x20\n  add\n  swap1\n  dup2\n  mstore\n  0x20\n  add\n  0x00\n  keccak256\n  0x00\n    /* \"https://github.com/OpenZeppelin/openzeppelin-contracts/blob/v4.9.3/contracts/access/AccessControl.sol\":7708:7744  _roles[role].members[account] = true */\n  0x0100\n  exp\n  dup2\n  sload\n  dup2\n  0xff\n  mul\n  not\n  and\n  swap1\n  dup4\n  iszero\n  iszero\n  mul\n  or\n  swap1\n  sstore\n  pop\n    /* \"https://github.com/OpenZeppelin/openzeppelin-contracts/blob/v4.9.3/contracts/access/AccessControl.sol\":7790:7802  _msgSender() */\n  tag_14\n    /* \"https://github.com/OpenZeppelin/openzeppelin-contracts/blob/v4.9.3/contracts/access/AccessControl.sol\":7790:7800  _msgSender */\n  shl(0x20, tag_15)\n    /* \"https://github.com/OpenZeppelin/openzeppelin-contracts/blob/v4.9.3/contracts/access/AccessControl.sol\":7790:7802  _msgSender() */\n  0x20\n  shr\n  jump\t// in\ntag_14:\n    /* \"https://github.com/OpenZeppelin/openzeppelin-contracts/blob/v4.9.3/contracts/access/AccessControl.sol\":7763:7803  RoleGranted(role, account, _msgSender()) */\n  0xffffffffffffffffffffffffffffffffffffffff\n  and\n    /* \"https://github.com/OpenZeppelin/openzeppelin-contracts/blob/v4.9.3/contracts/access/AccessControl.sol\":7781:7788  account */\n  dup2\n    /* \"https://github.com/OpenZeppelin/openzeppelin-contracts/blob/v4.9.3/contracts/access/AccessControl.sol\":7763:7803  RoleGranted(role, account, _msgSender()) */\n  0xffffffffffffffffffffffffffffffffffffffff\n  and\n    /* \"https://github.com/OpenZeppelin/openzeppelin-contracts/blob/v4.9.3/contracts/access/AccessControl.sol\":7775:7779  role */\n  dup4\n    /* \"https://github.com/OpenZeppelin/openzeppelin-contracts/blob/v4.9.3/contracts/access/AccessControl.sol\":7763:7803  RoleGranted(role, account, _msgSender()) */\n  0x2f8788117e7eff1d82e926ec794901d17c78024a50270940304540a733656f0d\n  mload(0x40)\n  mload(0x40)\n  dup1\n  swap2\n  sub\n  swap1\n  log4\n    /* \"https://github.com/OpenZeppelin/openzeppelin-contracts/blob/v4.9.3/contracts/access/AccessControl.sol\":7665:7814  if (!hasRole(role, account)) {... */\ntag_13:\n    /* \"https://github.com/OpenZeppelin/openzeppelin-contracts/blob/v4.9.3/contracts/access/AccessControl.sol\":7587:7820  function _grantRole(bytes32 role, address account) internal virtual {... */\n  pop\n  pop\n  jump\t// out\n    /* \"https://github.com/OpenZeppelin/openzeppelin-contracts/blob/v4.9.3/contracts/access/AccessControl.sol\":3021:3166  function hasRole(bytes32 role, address account) public view virtual override returns (bool) {... */\ntag_12:\n    /* \"https://github.com/OpenZeppelin/openzeppelin-contracts/blob/v4.9.3/contracts/access/AccessControl.sol\":3107:3111  bool */\n  0x00\n    /* \"https://github.com/OpenZeppelin/openzeppelin-contracts/blob/v4.9.3/contracts/access/AccessControl.sol\":3130:3136  _roles */\n  dup1\n    /* \"https://github.com/OpenZeppelin/openzeppelin-contracts/blob/v4.9.3/contracts/access/AccessControl.sol\":3130:3142  _roles[role] */\n  0x00\n    /* \"https://github.com/OpenZeppelin/openzeppelin-contracts/blob/v4.9.3/contracts/access/AccessControl.sol\":3137:3141  role */\n  dup5\n    /* \"https://github.com/OpenZeppelin/openzeppelin-contracts/blob/v4.9.3/contracts/access/AccessControl.sol\":3130:3142  _roles[role] */\n  dup2\n  mstore\n  0x20\n  add\n  swap1\n  dup2\n  mstore\n  0x20\n  add\n  0x00\n  keccak256\n    /* \"https://github.com/OpenZeppelin/openzeppelin-contracts/blob/v4.9.3/contracts/access/AccessControl.sol\":3130:3150  _roles[role].members */\n  0x00\n  add\n    /* \"https://github.com/OpenZeppelin/openzeppelin-contracts/blob/v4.9.3/contracts/access/AccessControl.sol\":3130:3159  _roles[role].members[account] */\n  0x00\n    /* \"https://github.com/OpenZeppelin/openzeppelin-contracts/blob/v4.9.3/contracts/access/AccessControl.sol\":3151:3158  account */\n  dup4\n    /* \"https://github.com/OpenZeppelin/openzeppelin-contracts/blob/v4.9.3/contracts/access/AccessControl.sol\":3130:3159  _roles[role].members[account] */\n  0xffffffffffffffffffffffffffffffffffffffff\n  and\n  0xffffffffffffffffffffffffffffffffffffffff\n  and\n  dup2\n  mstore\n  0x20\n  add\n  swap1\n  dup2\n  mstore\n  0x20\n  add\n  0x00\n  keccak256\n  0x00\n  swap1\n  sload\n  swap1\n  0x0100\n  exp\n  swap1\n  div\n  0xff\n  and\n    /* \"https://github.com/OpenZeppelin/openzeppelin-contracts/blob/v4.9.3/contracts/access/AccessControl.sol\":3123:3159  return _roles[role].members[account] */\n  swap1\n  pop\n    /* \"https://github.com/OpenZeppelin/openzeppelin-contracts/blob/v4.9.3/contracts/access/AccessControl.sol\":3021:3166  function hasRole(bytes32 role, address account) public view virtual override returns (bool) {... */\n  swap3\n  swap2\n  pop\n  pop\n  jump\t// out\n    /* \"https://github.com/OpenZeppelin/openzeppelin-contracts/blob/v4.9.3/contracts/utils/Context.sol\":640:736  function _msgSender() internal view virtual returns (address) {... */\ntag_15:\n    /* \"https://github.com/OpenZeppelin/openzeppelin-contracts/blob/v4.9.3/contracts/utils/Context.sol\":693:700  address */\n  0x00\n    /* \"https://github.com/OpenZeppelin/openzeppelin-contracts/blob/v4.9.3/contracts/utils/Context.sol\":719:729  msg.sender */\n  caller\n    /* \"https://github.com/OpenZeppelin/openzeppelin-contracts/blob/v4.9.3/contracts/utils/Context.sol\":712:729  return msg.sender */\n  swap1\n  pop\n    /* \"https://github.com/OpenZeppelin/openzeppelin-contracts/blob/v4.9.3/contracts/utils/Context.sol\":640:736  function _msgSender() internal view virtual returns (address) {... */\n  swap1\n  jump\t// out\n    /* \"contracts/4_Game.sol\":539:4152  contract GameContract is Context, AccessControl {... */\ntag_6:\n  dataSize(sub_0)\n  dup1\n  dataOffset(sub_0)\n  0x00\n  codecopy\n  0x00\n  return\nstop\n\nsub_0: assembly {\n        /* \"contracts/4_Game.sol\":539:4152  contract GameContract is Context, AccessControl {... */\n      mstore(0x40, 0x80)\n      callvalue\n      dup1\n      iszero\n      tag_1\n      jumpi\n      0x00\n      dup1\n      revert\n    tag_1:\n      pop\n      jumpi(tag_2, lt(calldatasize, 0x04))\n      shr(0xe0, calldataload(0x00))\n      dup1\n      0x6ffcc719\n      gt\n      tag_24\n      jumpi\n      dup1\n      0xa217fddf\n      gt\n      tag_25\n      jumpi\n      dup1\n      0xa217fddf\n      eq\n      tag_18\n      jumpi\n      dup1\n      0xce33bd74\n      eq\n      tag_19\n      jumpi\n      dup1\n      0xd547741f\n      eq\n      tag_20\n      jumpi\n      dup1\n      0xd82c13f0\n      eq\n      tag_21\n      jumpi\n      dup1\n      0xe5ed1d59\n      eq\n      tag_22\n      jumpi\n      dup1\n      0xee9b80a4\n      eq\n      tag_23\n      jumpi\n      jump(tag_2)\n    tag_25:\n      dup1\n      0x6ffcc719\n      eq\n      tag_13\n      jumpi\n      dup1\n      0x7fd6f15c\n      eq\n      tag_14\n      jumpi\n      dup1\n      0x853828b6\n      eq\n      tag_15\n      jumpi\n      dup1\n      0x91d14854\n      eq\n      tag_16\n      jumpi\n      dup1\n      0x9bc01b36\n      eq\n      tag_17\n      jumpi\n      jump(tag_2)\n    tag_24:\n      dup1\n      0x2f2ff15d\n      gt\n      tag_26\n      jumpi\n      dup1\n      0x2f2ff15d\n      eq\n      tag_8\n      jumpi\n      dup1\n      0x34fcc3e7\n      eq\n      tag_9\n      jumpi\n      dup1\n      0x36568abe\n      eq\n      tag_10\n      jumpi\n      dup1\n      0x37bfc1ef\n      eq\n      tag_11\n      jumpi\n      dup1\n      0x55a373d6\n      eq\n      tag_12\n      jumpi\n      jump(tag_2)\n    tag_26:\n      dup1\n      0x01ffc9a7\n      eq\n      tag_3\n      jumpi\n      dup1\n      0x117a5b90\n      eq\n      tag_4\n      jumpi\n      dup1\n      0x16b169c4\n      eq\n      tag_5\n      jumpi\n      dup1\n      0x248a9ca3\n      eq\n      tag_6\n      jumpi\n      dup1\n      0x2c32b187\n      eq\n      tag_7\n      jumpi\n    tag_2:\n      0x00\n      dup1\n      revert\n        /* \"https://github.com/OpenZeppelin/openzeppelin-contracts/blob/v4.9.3/contracts/access/AccessControl.sol\":2732:2934  function supportsInterface(bytes4 interfaceId) public view virtual override returns (bool) {... */\n    tag_3:\n      tag_27\n      0x04\n      dup1\n      calldatasize\n      sub\n      dup2\n      add\n      swap1\n      tag_28\n      swap2\n      swap1\n      tag_29\n      jump\t// in\n    tag_28:\n      tag_30\n      jump\t// in\n    tag_27:\n      mload(0x40)\n      tag_31\n      swap2\n      swap1\n      tag_32\n      jump\t// in\n    tag_31:\n      mload(0x40)\n      dup1\n      swap2\n      sub\n      swap1\n      return\n        /* \"contracts/4_Game.sol\":971:1005  mapping(uint => Game) public games */\n    tag_4:\n      tag_33\n      0x04\n      dup1\n      calldatasize\n      sub\n      dup2\n      add\n      swap1\n      tag_34\n      swap2\n      swap1\n      tag_35\n      jump\t// in\n    tag_34:\n      tag_36\n      jump\t// in\n    tag_33:\n      mload(0x40)\n      tag_37\n      swap4\n      swap3\n      swap2\n      swap1\n      tag_38\n      jump\t// in\n    tag_37:\n      mload(0x40)\n      dup1\n      swap2\n      sub\n      swap1\n      return\n        /* \"contracts/4_Game.sol\":3249:3430  function gameUsers(uint gameId) public view returns (address[] memory) {... */\n    tag_5:\n      tag_39\n      0x04\n      dup1\n      calldatasize\n      sub\n      dup2\n      add\n      swap1\n      tag_40\n      swap2\n      swap1\n      tag_35\n      jump\t// in\n    tag_40:\n      tag_41\n      jump\t// in\n    tag_39:\n      mload(0x40)\n      tag_42\n      swap2\n      swap1\n      tag_43\n      jump\t// in\n    tag_42:\n      mload(0x40)\n      dup1\n      swap2\n      sub\n      swap1\n      return\n        /* \"https://github.com/OpenZeppelin/openzeppelin-contracts/blob/v4.9.3/contracts/access/AccessControl.sol\":4504:4633  function getRoleAdmin(bytes32 role) public view virtual override returns (bytes32) {... */\n    tag_6:\n      tag_44\n      0x04\n      dup1\n      calldatasize\n      sub\n      dup2\n      add\n      swap1\n      tag_45\n      swap2\n      swap1\n      tag_46\n      jump\t// in\n    tag_45:\n      tag_47\n      jump\t// in\n    tag_44:\n      mload(0x40)\n      tag_48\n      swap2\n      swap1\n      tag_49\n      jump\t// in\n    tag_48:\n      mload(0x40)\n      dup1\n      swap2\n      sub\n      swap1\n      return\n        /* \"contracts/4_Game.sol\":2455:3241  function finish(uint gameId, address winner) public onlyRole(DEFAULT_ADMIN_ROLE) returns (uint) {... */\n    tag_7:\n      tag_50\n      0x04\n      dup1\n      calldatasize\n      sub\n      dup2\n      add\n      swap1\n      tag_51\n      swap2\n      swap1\n      tag_52\n      jump\t// in\n    tag_51:\n      tag_53\n      jump\t// in\n    tag_50:\n      mload(0x40)\n      tag_54\n      swap2\n      swap1\n      tag_55\n      jump\t// in\n    tag_54:\n      mload(0x40)\n      dup1\n      swap2\n      sub\n      swap1\n      return\n        /* \"https://github.com/OpenZeppelin/openzeppelin-contracts/blob/v4.9.3/contracts/access/AccessControl.sol\":4929:5074  function grantRole(bytes32 role, address account) public virtual override onlyRole(getRoleAdmin(role)) {... */\n    tag_8:\n      tag_56\n      0x04\n      dup1\n      calldatasize\n      sub\n      dup2\n      add\n      swap1\n      tag_57\n      swap2\n      swap1\n      tag_58\n      jump\t// in\n    tag_57:\n      tag_59\n      jump\t// in\n    tag_56:\n      stop\n        /* \"contracts/4_Game.sol\":3438:3635  function getBetting(uint gameId, address better) public view returns (uint) {... */\n    tag_9:\n      tag_60\n      0x04\n      dup1\n      calldatasize\n      sub\n      dup2\n      add\n      swap1\n      tag_61\n      swap2\n      swap1\n      tag_52\n      jump\t// in\n    tag_61:\n      tag_62\n      jump\t// in\n    tag_60:\n      mload(0x40)\n      tag_63\n      swap2\n      swap1\n      tag_55\n      jump\t// in\n    tag_63:\n      mload(0x40)\n      dup1\n      swap2\n      sub\n      swap1\n      return\n        /* \"https://github.com/OpenZeppelin/openzeppelin-contracts/blob/v4.9.3/contracts/access/AccessControl.sol\":6038:6252  function renounceRole(bytes32 role, address account) public virtual override {... */\n    tag_10:\n      tag_64\n      0x04\n      dup1\n      calldatasize\n      sub\n      dup2\n      add\n      swap1\n      tag_65\n      swap2\n      swap1\n      tag_58\n      jump\t// in\n    tag_65:\n      tag_66\n      jump\t// in\n    tag_64:\n      stop\n        /* \"contracts/4_Game.sol\":1109:1133  uint public feeTotal = 0 */\n    tag_11:\n      tag_67\n      tag_68\n      jump\t// in\n    tag_67:\n      mload(0x40)\n      tag_69\n      swap2\n      swap1\n      tag_55\n      jump\t// in\n    tag_69:\n      mload(0x40)\n      dup1\n      swap2\n      sub\n      swap1\n      return\n        /* \"contracts/4_Game.sol\":1040:1068  address public tokenContract */\n    tag_12:\n      tag_70\n      tag_71\n      jump\t// in\n    tag_70:\n      mload(0x40)\n      tag_72\n      swap2\n      swap1\n      tag_73\n      jump\t// in\n    tag_72:\n      mload(0x40)\n      dup1\n      swap2\n      sub\n      swap1\n      return\n        /* \"contracts/4_Game.sol\":1756:2447  function bet(uint gameId, uint amount) public returns (bool) {... */\n    tag_13:\n      tag_74\n      0x04\n      dup1\n      calldatasize\n      sub\n      dup2\n      add\n      swap1\n      tag_75\n      swap2\n      swap1\n      tag_76\n      jump\t// in\n    tag_75:\n      tag_77\n      jump\t// in\n    tag_74:\n      mload(0x40)\n      tag_78\n      swap2\n      swap1\n      tag_32\n      jump\t// in\n    tag_78:\n      mload(0x40)\n      dup1\n      swap2\n      sub\n      swap1\n      return\n        /* \"contracts/4_Game.sol\":1075:1102  uint public feePercent = 20 */\n    tag_14:\n      tag_79\n      tag_80\n      jump\t// in\n    tag_79:\n      mload(0x40)\n      tag_81\n      swap2\n      swap1\n      tag_55\n      jump\t// in\n    tag_81:\n      mload(0x40)\n      dup1\n      swap2\n      sub\n      swap1\n      return\n        /* \"contracts/4_Game.sol\":3835:4149  function withdrawAll() public onlyRole(DEFAULT_ADMIN_ROLE) returns (uint amount) {... */\n    tag_15:\n      tag_82\n      tag_83\n      jump\t// in\n    tag_82:\n      mload(0x40)\n      tag_84\n      swap2\n      swap1\n      tag_55\n      jump\t// in\n    tag_84:\n      mload(0x40)\n      dup1\n      swap2\n      sub\n      swap1\n      return\n        /* \"https://github.com/OpenZeppelin/openzeppelin-contracts/blob/v4.9.3/contracts/access/AccessControl.sol\":3021:3166  function hasRole(bytes32 role, address account) public view virtual override returns (bool) {... */\n    tag_16:\n      tag_85\n      0x04\n      dup1\n      calldatasize\n      sub\n      dup2\n      add\n      swap1\n      tag_86\n      swap2\n      swap1\n      tag_58\n      jump\t// in\n    tag_86:\n      tag_87\n      jump\t// in\n    tag_85:\n      mload(0x40)\n      tag_88\n      swap2\n      swap1\n      tag_32\n      jump\t// in\n    tag_88:\n      mload(0x40)\n      dup1\n      swap2\n      sub\n      swap1\n      return\n        /* \"contracts/4_Game.sol\":1656:1748  function listGameIds() public view returns (uint[] memory) {... */\n    tag_17:\n      tag_89\n      tag_90\n      jump\t// in\n    tag_89:\n      mload(0x40)\n      tag_91\n      swap2\n      swap1\n      tag_92\n      jump\t// in\n    tag_91:\n      mload(0x40)\n      dup1\n      swap2\n      sub\n      swap1\n      return\n        /* \"https://github.com/OpenZeppelin/openzeppelin-contracts/blob/v4.9.3/contracts/access/AccessControl.sol\":2153:2202  bytes32 public constant DEFAULT_ADMIN_ROLE = 0x00 */\n    tag_18:\n      tag_93\n      tag_94\n      jump\t// in\n    tag_93:\n      mload(0x40)\n      tag_95\n      swap2\n      swap1\n      tag_49\n      jump\t// in\n    tag_95:\n      mload(0x40)\n      dup1\n      swap2\n      sub\n      swap1\n      return\n        /* \"contracts/4_Game.sol\":3643:3827  function myBetting(uint gameId) public view returns (uint) {... */\n    tag_19:\n      tag_96\n      0x04\n      dup1\n      calldatasize\n      sub\n      dup2\n      add\n      swap1\n      tag_97\n      swap2\n      swap1\n      tag_35\n      jump\t// in\n    tag_97:\n      tag_98\n      jump\t// in\n    tag_96:\n      mload(0x40)\n      tag_99\n      swap2\n      swap1\n      tag_55\n      jump\t// in\n    tag_99:\n      mload(0x40)\n      dup1\n      swap2\n      sub\n      swap1\n      return\n        /* \"https://github.com/OpenZeppelin/openzeppelin-contracts/blob/v4.9.3/contracts/access/AccessControl.sol\":5354:5501  function revokeRole(bytes32 role, address account) public virtual override onlyRole(getRoleAdmin(role)) {... */\n    tag_20:\n      tag_100\n      0x04\n      dup1\n      calldatasize\n      sub\n      dup2\n      add\n      swap1\n      tag_101\n      swap2\n      swap1\n      tag_58\n      jump\t// in\n    tag_101:\n      tag_102\n      jump\t// in\n    tag_100:\n      stop\n        /* \"contracts/4_Game.sol\":1012:1033  uint[] public gameIds */\n    tag_21:\n      tag_103\n      0x04\n      dup1\n      calldatasize\n      sub\n      dup2\n      add\n      swap1\n      tag_104\n      swap2\n      swap1\n      tag_35\n      jump\t// in\n    tag_104:\n      tag_105\n      jump\t// in\n    tag_103:\n      mload(0x40)\n      tag_106\n      swap2\n      swap1\n      tag_55\n      jump\t// in\n    tag_106:\n      mload(0x40)\n      dup1\n      swap2\n      sub\n      swap1\n      return\n        /* \"contracts/4_Game.sol\":1393:1648  function startGame(uint newId) public returns (bool) {... */\n    tag_22:\n      tag_107\n      0x04\n      dup1\n      calldatasize\n      sub\n      dup2\n      add\n      swap1\n      tag_108\n      swap2\n      swap1\n      tag_35\n      jump\t// in\n    tag_108:\n      tag_109\n      jump\t// in\n    tag_107:\n      mload(0x40)\n      tag_110\n      swap2\n      swap1\n      tag_32\n      jump\t// in\n    tag_110:\n      mload(0x40)\n      dup1\n      swap2\n      sub\n      swap1\n      return\n        /* \"contracts/4_Game.sol\":1227:1385  function setErc20(address newContract) public onlyRole(DEFAULT_ADMIN_ROLE) returns (bool) {... */\n    tag_23:\n      tag_111\n      0x04\n      dup1\n      calldatasize\n      sub\n      dup2\n      add\n      swap1\n      tag_112\n      swap2\n      swap1\n      tag_113\n      jump\t// in\n    tag_112:\n      tag_114\n      jump\t// in\n    tag_111:\n      mload(0x40)\n      tag_115\n      swap2\n      swap1\n      tag_32\n      jump\t// in\n    tag_115:\n      mload(0x40)\n      dup1\n      swap2\n      sub\n      swap1\n      return\n        /* \"https://github.com/OpenZeppelin/openzeppelin-contracts/blob/v4.9.3/contracts/access/AccessControl.sol\":2732:2934  function supportsInterface(bytes4 interfaceId) public view virtual override returns (bool) {... */\n    tag_30:\n        /* \"https://github.com/OpenZeppelin/openzeppelin-contracts/blob/v4.9.3/contracts/access/AccessControl.sol\":2817:2821  bool */\n      0x00\n        /* \"https://github.com/OpenZeppelin/openzeppelin-contracts/blob/v4.9.3/contracts/access/AccessControl.sol\":2855:2887  type(IAccessControl).interfaceId */\n      0x7965db0b00000000000000000000000000000000000000000000000000000000\n        /* \"https://github.com/OpenZeppelin/openzeppelin-contracts/blob/v4.9.3/contracts/access/AccessControl.sol\":2840:2887  interfaceId == type(IAccessControl).interfaceId */\n      not(0xffffffffffffffffffffffffffffffffffffffffffffffffffffffff)\n      and\n        /* \"https://github.com/OpenZeppelin/openzeppelin-contracts/blob/v4.9.3/contracts/access/AccessControl.sol\":2840:2851  interfaceId */\n      dup3\n        /* \"https://github.com/OpenZeppelin/openzeppelin-contracts/blob/v4.9.3/contracts/access/AccessControl.sol\":2840:2887  interfaceId == type(IAccessControl).interfaceId */\n      not(0xffffffffffffffffffffffffffffffffffffffffffffffffffffffff)\n      and\n      eq\n        /* \"https://github.com/OpenZeppelin/openzeppelin-contracts/blob/v4.9.3/contracts/access/AccessControl.sol\":2840:2927  interfaceId == type(IAccessControl).interfaceId || super.supportsInterface(interfaceId) */\n      dup1\n      tag_117\n      jumpi\n      pop\n        /* \"https://github.com/OpenZeppelin/openzeppelin-contracts/blob/v4.9.3/contracts/access/AccessControl.sol\":2891:2927  super.supportsInterface(interfaceId) */\n      tag_118\n        /* \"https://github.com/OpenZeppelin/openzeppelin-contracts/blob/v4.9.3/contracts/access/AccessControl.sol\":2915:2926  interfaceId */\n      dup3\n        /* \"https://github.com/OpenZeppelin/openzeppelin-contracts/blob/v4.9.3/contracts/access/AccessControl.sol\":2891:2914  super.supportsInterface */\n      tag_119\n        /* \"https://github.com/OpenZeppelin/openzeppelin-contracts/blob/v4.9.3/contracts/access/AccessControl.sol\":2891:2927  super.supportsInterface(interfaceId) */\n      jump\t// in\n    tag_118:\n        /* \"https://github.com/OpenZeppelin/openzeppelin-contracts/blob/v4.9.3/contracts/access/AccessControl.sol\":2840:2927  interfaceId == type(IAccessControl).interfaceId || super.supportsInterface(interfaceId) */\n    tag_117:\n        /* \"https://github.com/OpenZeppelin/openzeppelin-contracts/blob/v4.9.3/contracts/access/AccessControl.sol\":2833:2927  return interfaceId == type(IAccessControl).interfaceId || super.supportsInterface(interfaceId) */\n      swap1\n      pop\n        /* \"https://github.com/OpenZeppelin/openzeppelin-contracts/blob/v4.9.3/contracts/access/AccessControl.sol\":2732:2934  function supportsInterface(bytes4 interfaceId) public view virtual override returns (bool) {... */\n      swap2\n      swap1\n      pop\n      jump\t// out\n        /* \"contracts/4_Game.sol\":971:1005  mapping(uint => Game) public games */\n    tag_36:\n      mstore(0x20, 0x01)\n      dup1\n      0x00\n      mstore\n      keccak256(0x00, 0x40)\n      0x00\n      swap2\n      pop\n      swap1\n      pop\n      dup1\n      0x00\n      add\n      0x00\n      swap1\n      sload\n      swap1\n      0x0100\n      exp\n      swap1\n      div\n      0xff\n      and\n      swap1\n      dup1\n      0x02\n      add\n      sload\n      swap1\n      dup1\n      0x04\n      add\n      0x00\n      swap1\n      sload\n      swap1\n      0x0100\n      exp\n      swap1\n      div\n      0xffffffffffffffffffffffffffffffffffffffff\n      and\n      swap1\n      pop\n      dup4\n      jump\t// out\n        /* \"contracts/4_Game.sol\":3249:3430  function gameUsers(uint gameId) public view returns (address[] memory) {... */\n    tag_41:\n        /* \"contracts/4_Game.sol\":3302:3318  address[] memory */\n      0x60\n        /* \"contracts/4_Game.sol\":3339:3344  games */\n      0x01\n        /* \"contracts/4_Game.sol\":3339:3352  games[gameId] */\n      0x00\n        /* \"contracts/4_Game.sol\":3345:3351  gameId */\n      dup4\n        /* \"contracts/4_Game.sol\":3339:3352  games[gameId] */\n      dup2\n      mstore\n      0x20\n      add\n      swap1\n      dup2\n      mstore\n      0x20\n      add\n      0x00\n      keccak256\n        /* \"contracts/4_Game.sol\":3339:3364  games[gameId].initialized */\n      0x00\n      add\n      0x00\n      swap1\n      sload\n      swap1\n      0x0100\n      exp\n      swap1\n      div\n      0xff\n      and\n        /* \"contracts/4_Game.sol\":3331:3385  require(games[gameId].initialized, \"Game Initialized\") */\n      tag_121\n      jumpi\n      mload(0x40)\n      0x08c379a000000000000000000000000000000000000000000000000000000000\n      dup2\n      mstore\n      0x04\n      add\n      tag_122\n      swap1\n      tag_123\n      jump\t// in\n    tag_122:\n      mload(0x40)\n      dup1\n      swap2\n      sub\n      swap1\n      revert\n    tag_121:\n        /* \"contracts/4_Game.sol\":3403:3408  games */\n      0x01\n        /* \"contracts/4_Game.sol\":3403:3416  games[gameId] */\n      0x00\n        /* \"contracts/4_Game.sol\":3409:3415  gameId */\n      dup4\n        /* \"contracts/4_Game.sol\":3403:3416  games[gameId] */\n      dup2\n      mstore\n      0x20\n      add\n      swap1\n      dup2\n      mstore\n      0x20\n      add\n      0x00\n      keccak256\n        /* \"contracts/4_Game.sol\":3403:3422  games[gameId].users */\n      0x03\n      add\n        /* \"contracts/4_Game.sol\":3396:3422  return games[gameId].users */\n      dup1\n      sload\n      dup1\n      0x20\n      mul\n      0x20\n      add\n      mload(0x40)\n      swap1\n      dup2\n      add\n      0x40\n      mstore\n      dup1\n      swap3\n      swap2\n      swap1\n      dup2\n      dup2\n      mstore\n      0x20\n      add\n      dup3\n      dup1\n      sload\n      dup1\n      iszero\n      tag_124\n      jumpi\n      0x20\n      mul\n      dup3\n      add\n      swap2\n      swap1\n      0x00\n      mstore\n      keccak256(0x00, 0x20)\n      swap1\n    tag_125:\n      dup2\n      0x00\n      swap1\n      sload\n      swap1\n      0x0100\n      exp\n      swap1\n      div\n      0xffffffffffffffffffffffffffffffffffffffff\n      and\n      0xffffffffffffffffffffffffffffffffffffffff\n      and\n      dup2\n      mstore\n      0x20\n      add\n      swap1\n      0x01\n      add\n      swap1\n      dup1\n      dup4\n      gt\n      tag_125\n      jumpi\n    tag_124:\n      pop\n      pop\n      pop\n      pop\n      pop\n      swap1\n      pop\n        /* \"contracts/4_Game.sol\":3249:3430  function gameUsers(uint gameId) public view returns (address[] memory) {... */\n      swap2\n      swap1\n      pop\n      jump\t// out\n        /* \"https://github.com/OpenZeppelin/openzeppelin-contracts/blob/v4.9.3/contracts/access/AccessControl.sol\":4504:4633  function getRoleAdmin(bytes32 role) public view virtual override returns (bytes32) {... */\n    tag_47:\n        /* \"https://github.com/OpenZeppelin/openzeppelin-contracts/blob/v4.9.3/contracts/access/AccessControl.sol\":4578:4585  bytes32 */\n      0x00\n        /* \"https://github.com/OpenZeppelin/openzeppelin-contracts/blob/v4.9.3/contracts/access/AccessControl.sol\":4604:4610  _roles */\n      dup1\n        /* \"https://github.com/OpenZeppelin/openzeppelin-contracts/blob/v4.9.3/contracts/access/AccessControl.sol\":4604:4616  _roles[role] */\n      0x00\n        /* \"https://github.com/OpenZeppelin/openzeppelin-contracts/blob/v4.9.3/contracts/access/AccessControl.sol\":4611:4615  role */\n      dup4\n        /* \"https://github.com/OpenZeppelin/openzeppelin-contracts/blob/v4.9.3/contracts/access/AccessControl.sol\":4604:4616  _roles[role] */\n      dup2\n      mstore\n      0x20\n      add\n      swap1\n      dup2\n      mstore\n      0x20\n      add\n      0x00\n      keccak256\n        /* \"https://github.com/OpenZeppelin/openzeppelin-contracts/blob/v4.9.3/contracts/access/AccessControl.sol\":4604:4626  _roles[role].adminRole */\n      0x01\n      add\n      sload\n        /* \"https://github.com/OpenZeppelin/openzeppelin-contracts/blob/v4.9.3/contracts/access/AccessControl.sol\":4597:4626  return _roles[role].adminRole */\n      swap1\n      pop\n        /* \"https://github.com/OpenZeppelin/openzeppelin-contracts/blob/v4.9.3/contracts/access/AccessControl.sol\":4504:4633  function getRoleAdmin(bytes32 role) public view virtual override returns (bytes32) {... */\n      swap2\n      swap1\n      pop\n      jump\t// out\n        /* \"contracts/4_Game.sol\":2455:3241  function finish(uint gameId, address winner) public onlyRole(DEFAULT_ADMIN_ROLE) returns (uint) {... */\n    tag_53:\n        /* \"contracts/4_Game.sol\":2545:2549  uint */\n      0x00\n        /* \"https://github.com/OpenZeppelin/openzeppelin-contracts/blob/v4.9.3/contracts/access/AccessControl.sol\":2198:2202  0x00 */\n      dup1\n        /* \"contracts/4_Game.sol\":2516:2534  DEFAULT_ADMIN_ROLE */\n      0x00\n      shl\n        /* \"https://github.com/OpenZeppelin/openzeppelin-contracts/blob/v4.9.3/contracts/access/AccessControl.sol\":2631:2647  _checkRole(role) */\n      tag_128\n        /* \"https://github.com/OpenZeppelin/openzeppelin-contracts/blob/v4.9.3/contracts/access/AccessControl.sol\":2642:2646  role */\n      dup2\n        /* \"https://github.com/OpenZeppelin/openzeppelin-contracts/blob/v4.9.3/contracts/access/AccessControl.sol\":2631:2641  _checkRole */\n      tag_129\n        /* \"https://github.com/OpenZeppelin/openzeppelin-contracts/blob/v4.9.3/contracts/access/AccessControl.sol\":2631:2647  _checkRole(role) */\n      jump\t// in\n    tag_128:\n        /* \"contracts/4_Game.sol\":2570:2575  games */\n      0x01\n        /* \"contracts/4_Game.sol\":2570:2583  games[gameId] */\n      0x00\n        /* \"contracts/4_Game.sol\":2576:2582  gameId */\n      dup6\n        /* \"contracts/4_Game.sol\":2570:2583  games[gameId] */\n      dup2\n      mstore\n      0x20\n      add\n      swap1\n      dup2\n      mstore\n      0x20\n      add\n      0x00\n      keccak256\n        /* \"contracts/4_Game.sol\":2570:2595  games[gameId].initialized */\n      0x00\n      add\n      0x00\n      swap1\n      sload\n      swap1\n      0x0100\n      exp\n      swap1\n      div\n      0xff\n      and\n        /* \"contracts/4_Game.sol\":2562:2616  require(games[gameId].initialized, \"Game Initialized\") */\n      tag_131\n      jumpi\n      mload(0x40)\n      0x08c379a000000000000000000000000000000000000000000000000000000000\n      dup2\n      mstore\n      0x04\n      add\n      tag_132\n      swap1\n      tag_123\n      jump\t// in\n    tag_132:\n      mload(0x40)\n      dup1\n      swap2\n      sub\n      swap1\n      revert\n    tag_131:\n        /* \"contracts/4_Game.sol\":2667:2668  0 */\n      0x00\n        /* \"contracts/4_Game.sol\":2635:2669  games[gameId].winner == address(0) */\n      0xffffffffffffffffffffffffffffffffffffffff\n      and\n        /* \"contracts/4_Game.sol\":2635:2640  games */\n      0x01\n        /* \"contracts/4_Game.sol\":2635:2648  games[gameId] */\n      0x00\n        /* \"contracts/4_Game.sol\":2641:2647  gameId */\n      dup7\n        /* \"contracts/4_Game.sol\":2635:2648  games[gameId] */\n      dup2\n      mstore\n      0x20\n      add\n      swap1\n      dup2\n      mstore\n      0x20\n      add\n      0x00\n      keccak256\n        /* \"contracts/4_Game.sol\":2635:2655  games[gameId].winner */\n      0x04\n      add\n      0x00\n      swap1\n      sload\n      swap1\n      0x0100\n      exp\n      swap1\n      div\n      0xffffffffffffffffffffffffffffffffffffffff\n      and\n        /* \"contracts/4_Game.sol\":2635:2669  games[gameId].winner == address(0) */\n      0xffffffffffffffffffffffffffffffffffffffff\n      and\n      eq\n        /* \"contracts/4_Game.sol\":2627:2682  require(games[gameId].winner == address(0), \"Finished\") */\n      tag_133\n      jumpi\n      mload(0x40)\n      0x08c379a000000000000000000000000000000000000000000000000000000000\n      dup2\n      mstore\n      0x04\n      add\n      tag_134\n      swap1\n      tag_135\n      jump\t// in\n    tag_134:\n      mload(0x40)\n      dup1\n      swap2\n      sub\n      swap1\n      revert\n    tag_133:\n        /* \"contracts/4_Game.sol\":2716:2722  winner */\n      dup3\n        /* \"contracts/4_Game.sol\":2693:2698  games */\n      0x01\n        /* \"contracts/4_Game.sol\":2693:2706  games[gameId] */\n      0x00\n        /* \"contracts/4_Game.sol\":2699:2705  gameId */\n      dup7\n        /* \"contracts/4_Game.sol\":2693:2706  games[gameId] */\n      dup2\n      mstore\n      0x20\n      add\n      swap1\n      dup2\n      mstore\n      0x20\n      add\n      0x00\n      keccak256\n        /* \"contracts/4_Game.sol\":2693:2713  games[gameId].winner */\n      0x04\n      add\n      0x00\n        /* \"contracts/4_Game.sol\":2693:2722  games[gameId].winner = winner */\n      0x0100\n      exp\n      dup2\n      sload\n      dup2\n      0xffffffffffffffffffffffffffffffffffffffff\n      mul\n      not\n      and\n      swap1\n      dup4\n      0xffffffffffffffffffffffffffffffffffffffff\n      and\n      mul\n      or\n      swap1\n      sstore\n      pop\n        /* \"contracts/4_Game.sol\":2733:2744  uint reward */\n      0x00\n        /* \"contracts/4_Game.sol\":2800:2803  100 */\n      0x64\n        /* \"contracts/4_Game.sol\":2769:2774  games */\n      0x01\n        /* \"contracts/4_Game.sol\":2769:2782  games[gameId] */\n      0x00\n        /* \"contracts/4_Game.sol\":2775:2781  gameId */\n      dup8\n        /* \"contracts/4_Game.sol\":2769:2782  games[gameId] */\n      dup2\n      mstore\n      0x20\n      add\n      swap1\n      dup2\n      mstore\n      0x20\n      add\n      0x00\n      keccak256\n        /* \"contracts/4_Game.sol\":2769:2796  games[gameId].totalBettings */\n      0x02\n      add\n      sload\n        /* \"contracts/4_Game.sol\":2755:2765  feePercent */\n      sload(0x04)\n        /* \"contracts/4_Game.sol\":2749:2752  100 */\n      0x64\n        /* \"contracts/4_Game.sol\":2749:2765  100 - feePercent */\n      tag_136\n      swap2\n      swap1\n      tag_137\n      jump\t// in\n    tag_136:\n        /* \"contracts/4_Game.sol\":2748:2796  (100 - feePercent) * games[gameId].totalBettings */\n      tag_138\n      swap2\n      swap1\n      tag_139\n      jump\t// in\n    tag_138:\n        /* \"contracts/4_Game.sol\":2747:2803  ((100 - feePercent) * games[gameId].totalBettings) / 100 */\n      tag_140\n      swap2\n      swap1\n      tag_141\n      jump\t// in\n    tag_140:\n        /* \"contracts/4_Game.sol\":2733:2803  uint reward = ((100 - feePercent) * games[gameId].totalBettings) / 100 */\n      swap1\n      pop\n        /* \"contracts/4_Game.sol\":2814:2822  uint fee */\n      0x00\n        /* \"contracts/4_Game.sol\":2855:2861  reward */\n      dup2\n        /* \"contracts/4_Game.sol\":2825:2830  games */\n      0x01\n        /* \"contracts/4_Game.sol\":2825:2838  games[gameId] */\n      0x00\n        /* \"contracts/4_Game.sol\":2831:2837  gameId */\n      dup9\n        /* \"contracts/4_Game.sol\":2825:2838  games[gameId] */\n      dup2\n      mstore\n      0x20\n      add\n      swap1\n      dup2\n      mstore\n      0x20\n      add\n      0x00\n      keccak256\n        /* \"contracts/4_Game.sol\":2825:2852  games[gameId].totalBettings */\n      0x02\n      add\n      sload\n        /* \"contracts/4_Game.sol\":2825:2861  games[gameId].totalBettings - reward */\n      tag_142\n      swap2\n      swap1\n      tag_137\n      jump\t// in\n    tag_142:\n        /* \"contracts/4_Game.sol\":2814:2861  uint fee = games[gameId].totalBettings - reward */\n      swap1\n      pop\n        /* \"contracts/4_Game.sol\":2896:2901  games */\n      0x01\n        /* \"contracts/4_Game.sol\":2896:2909  games[gameId] */\n      0x00\n        /* \"contracts/4_Game.sol\":2902:2908  gameId */\n      dup8\n        /* \"contracts/4_Game.sol\":2896:2909  games[gameId] */\n      dup2\n      mstore\n      0x20\n      add\n      swap1\n      dup2\n      mstore\n      0x20\n      add\n      0x00\n      keccak256\n        /* \"contracts/4_Game.sol\":2896:2923  games[gameId].totalBettings */\n      0x02\n      add\n      sload\n        /* \"contracts/4_Game.sol\":2886:2892  reward */\n      dup3\n        /* \"contracts/4_Game.sol\":2880:2883  fee */\n      dup3\n        /* \"contracts/4_Game.sol\":2880:2892  fee + reward */\n      tag_143\n      swap2\n      swap1\n      tag_144\n      jump\t// in\n    tag_143:\n        /* \"contracts/4_Game.sol\":2880:2923  fee + reward == games[gameId].totalBettings */\n      eq\n        /* \"contracts/4_Game.sol\":2872:2948  require(fee + reward == games[gameId].totalBettings, \"reward + fee = total\") */\n      tag_145\n      jumpi\n      mload(0x40)\n      0x08c379a000000000000000000000000000000000000000000000000000000000\n      dup2\n      mstore\n      0x04\n      add\n      tag_146\n      swap1\n      tag_147\n      jump\t// in\n    tag_146:\n      mload(0x40)\n      dup1\n      swap2\n      sub\n      swap1\n      revert\n    tag_145:\n        /* \"contracts/4_Game.sol\":2977:2978  0 */\n      0x00\n        /* \"contracts/4_Game.sol\":2967:2973  reward */\n      dup3\n        /* \"contracts/4_Game.sol\":2967:2978  reward >= 0 */\n      lt\n      iszero\n        /* \"contracts/4_Game.sol\":2967:2990  reward >= 0 && fee >= 0 */\n      dup1\n      iszero\n      tag_148\n      jumpi\n      pop\n        /* \"contracts/4_Game.sol\":2989:2990  0 */\n      0x00\n        /* \"contracts/4_Game.sol\":2982:2985  fee */\n      dup2\n        /* \"contracts/4_Game.sol\":2982:2990  fee >= 0 */\n      lt\n      iszero\n        /* \"contracts/4_Game.sol\":2967:2990  reward >= 0 && fee >= 0 */\n    tag_148:\n        /* \"contracts/4_Game.sol\":2967:3026  reward >= 0 && fee >= 0 && games[gameId].totalBettings >= 0 */\n      dup1\n      iszero\n      tag_149\n      jumpi\n      pop\n        /* \"contracts/4_Game.sol\":3025:3026  0 */\n      0x00\n        /* \"contracts/4_Game.sol\":2994:2999  games */\n      0x01\n        /* \"contracts/4_Game.sol\":2994:3007  games[gameId] */\n      0x00\n        /* \"contracts/4_Game.sol\":3000:3006  gameId */\n      dup9\n        /* \"contracts/4_Game.sol\":2994:3007  games[gameId] */\n      dup2\n      mstore\n      0x20\n      add\n      swap1\n      dup2\n      mstore\n      0x20\n      add\n      0x00\n      keccak256\n        /* \"contracts/4_Game.sol\":2994:3021  games[gameId].totalBettings */\n      0x02\n      add\n      sload\n        /* \"contracts/4_Game.sol\":2994:3026  games[gameId].totalBettings >= 0 */\n      lt\n      iszero\n        /* \"contracts/4_Game.sol\":2967:3026  reward >= 0 && fee >= 0 && games[gameId].totalBettings >= 0 */\n    tag_149:\n        /* \"contracts/4_Game.sol\":2959:3043  require(reward >= 0 && fee >= 0 && games[gameId].totalBettings >= 0, \"all positive\") */\n      tag_150\n      jumpi\n      mload(0x40)\n      0x08c379a000000000000000000000000000000000000000000000000000000000\n      dup2\n      mstore\n      0x04\n      add\n      tag_151\n      swap1\n      tag_152\n      jump\t// in\n    tag_151:\n      mload(0x40)\n      dup1\n      swap2\n      sub\n      swap1\n      revert\n    tag_150:\n        /* \"contracts/4_Game.sol\":3071:3084  tokenContract */\n      0x03\n      0x00\n      swap1\n      sload\n      swap1\n      0x0100\n      exp\n      swap1\n      div\n      0xffffffffffffffffffffffffffffffffffffffff\n      and\n        /* \"contracts/4_Game.sol\":3064:3094  IERC20(tokenContract).transfer */\n      0xffffffffffffffffffffffffffffffffffffffff\n      and\n      0xa9059cbb\n        /* \"contracts/4_Game.sol\":3095:3101  winner */\n      dup7\n        /* \"contracts/4_Game.sol\":3103:3109  reward */\n      dup5\n        /* \"contracts/4_Game.sol\":3064:3110  IERC20(tokenContract).transfer(winner, reward) */\n      mload(0x40)\n      dup4\n      0xffffffff\n      and\n      0xe0\n      shl\n      dup2\n      mstore\n      0x04\n      add\n      tag_153\n      swap3\n      swap2\n      swap1\n      tag_154\n      jump\t// in\n    tag_153:\n      0x20\n      mload(0x40)\n      dup1\n      dup4\n      sub\n      dup2\n      0x00\n      dup8\n      gas\n      call\n      iszero\n      dup1\n      iszero\n      tag_156\n      jumpi\n      returndatasize\n      0x00\n      dup1\n      returndatacopy\n      revert(0x00, returndatasize)\n    tag_156:\n      pop\n      pop\n      pop\n      pop\n      mload(0x40)\n      returndatasize\n      not(0x1f)\n      0x1f\n      dup3\n      add\n      and\n      dup3\n      add\n      dup1\n      0x40\n      mstore\n      pop\n      dup2\n      add\n      swap1\n      tag_157\n      swap2\n      swap1\n      tag_158\n      jump\t// in\n    tag_157:\n        /* \"contracts/4_Game.sol\":3056:3136  require(IERC20(tokenContract).transfer(winner, reward), \"Reward should success\") */\n      tag_159\n      jumpi\n      mload(0x40)\n      0x08c379a000000000000000000000000000000000000000000000000000000000\n      dup2\n      mstore\n      0x04\n      add\n      tag_160\n      swap1\n      tag_161\n      jump\t// in\n    tag_160:\n      mload(0x40)\n      dup1\n      swap2\n      sub\n      swap1\n      revert\n    tag_159:\n        /* \"contracts/4_Game.sol\":3159:3162  fee */\n      dup1\n        /* \"contracts/4_Game.sol\":3147:3155  feeTotal */\n      0x05\n      0x00\n        /* \"contracts/4_Game.sol\":3147:3162  feeTotal += fee */\n      dup3\n      dup3\n      sload\n      tag_162\n      swap2\n      swap1\n      tag_144\n      jump\t// in\n    tag_162:\n      swap3\n      pop\n      pop\n      dup2\n      swap1\n      sstore\n      pop\n        /* \"contracts/4_Game.sol\":3178:3209  GameFinish(winner, reward, fee) */\n      0x3b6f6a175407b0e278b9798f8be45bcc2cdba01a995bf768f528b457d7e27e85\n        /* \"contracts/4_Game.sol\":3189:3195  winner */\n      dup6\n        /* \"contracts/4_Game.sol\":3197:3203  reward */\n      dup4\n        /* \"contracts/4_Game.sol\":3205:3208  fee */\n      dup4\n        /* \"contracts/4_Game.sol\":3178:3209  GameFinish(winner, reward, fee) */\n      mload(0x40)\n      tag_163\n      swap4\n      swap3\n      swap2\n      swap1\n      tag_164\n      jump\t// in\n    tag_163:\n      mload(0x40)\n      dup1\n      swap2\n      sub\n      swap1\n      log1\n        /* \"contracts/4_Game.sol\":3227:3233  reward */\n      dup2\n        /* \"contracts/4_Game.sol\":3220:3233  return reward */\n      swap4\n      pop\n      pop\n      pop\n        /* \"contracts/4_Game.sol\":2455:3241  function finish(uint gameId, address winner) public onlyRole(DEFAULT_ADMIN_ROLE) returns (uint) {... */\n      pop\n      swap3\n      swap2\n      pop\n      pop\n      jump\t// out\n        /* \"https://github.com/OpenZeppelin/openzeppelin-contracts/blob/v4.9.3/contracts/access/AccessControl.sol\":4929:5074  function grantRole(bytes32 role, address account) public virtual override onlyRole(getRoleAdmin(role)) {... */\n    tag_59:\n        /* \"https://github.com/OpenZeppelin/openzeppelin-contracts/blob/v4.9.3/contracts/access/AccessControl.sol\":5012:5030  getRoleAdmin(role) */\n      tag_165\n        /* \"https://github.com/OpenZeppelin/openzeppelin-contracts/blob/v4.9.3/contracts/access/AccessControl.sol\":5025:5029  role */\n      dup3\n        /* \"https://github.com/OpenZeppelin/openzeppelin-contracts/blob/v4.9.3/contracts/access/AccessControl.sol\":5012:5024  getRoleAdmin */\n      tag_47\n        /* \"https://github.com/OpenZeppelin/openzeppelin-contracts/blob/v4.9.3/contracts/access/AccessControl.sol\":5012:5030  getRoleAdmin(role) */\n      jump\t// in\n    tag_165:\n        /* \"https://github.com/OpenZeppelin/openzeppelin-contracts/blob/v4.9.3/contracts/access/AccessControl.sol\":2631:2647  _checkRole(role) */\n      tag_167\n        /* \"https://github.com/OpenZeppelin/openzeppelin-contracts/blob/v4.9.3/contracts/access/AccessControl.sol\":2642:2646  role */\n      dup2\n        /* \"https://github.com/OpenZeppelin/openzeppelin-contracts/blob/v4.9.3/contracts/access/AccessControl.sol\":2631:2641  _checkRole */\n      tag_129\n        /* \"https://github.com/OpenZeppelin/openzeppelin-contracts/blob/v4.9.3/contracts/access/AccessControl.sol\":2631:2647  _checkRole(role) */\n      jump\t// in\n    tag_167:\n        /* \"https://github.com/OpenZeppelin/openzeppelin-contracts/blob/v4.9.3/contracts/access/AccessControl.sol\":5042:5067  _grantRole(role, account) */\n      tag_169\n        /* \"https://github.com/OpenZeppelin/openzeppelin-contracts/blob/v4.9.3/contracts/access/AccessControl.sol\":5053:5057  role */\n      dup4\n        /* \"https://github.com/OpenZeppelin/openzeppelin-contracts/blob/v4.9.3/contracts/access/AccessControl.sol\":5059:5066  account */\n      dup4\n        /* \"https://github.com/OpenZeppelin/openzeppelin-contracts/blob/v4.9.3/contracts/access/AccessControl.sol\":5042:5052  _grantRole */\n      tag_170\n        /* \"https://github.com/OpenZeppelin/openzeppelin-contracts/blob/v4.9.3/contracts/access/AccessControl.sol\":5042:5067  _grantRole(role, account) */\n      jump\t// in\n    tag_169:\n        /* \"https://github.com/OpenZeppelin/openzeppelin-contracts/blob/v4.9.3/contracts/access/AccessControl.sol\":4929:5074  function grantRole(bytes32 role, address account) public virtual override onlyRole(getRoleAdmin(role)) {... */\n      pop\n      pop\n      pop\n      jump\t// out\n        /* \"contracts/4_Game.sol\":3438:3635  function getBetting(uint gameId, address better) public view returns (uint) {... */\n    tag_62:\n        /* \"contracts/4_Game.sol\":3508:3512  uint */\n      0x00\n        /* \"contracts/4_Game.sol\":3533:3538  games */\n      0x01\n        /* \"contracts/4_Game.sol\":3533:3546  games[gameId] */\n      0x00\n        /* \"contracts/4_Game.sol\":3539:3545  gameId */\n      dup5\n        /* \"contracts/4_Game.sol\":3533:3546  games[gameId] */\n      dup2\n      mstore\n      0x20\n      add\n      swap1\n      dup2\n      mstore\n      0x20\n      add\n      0x00\n      keccak256\n        /* \"contracts/4_Game.sol\":3533:3558  games[gameId].initialized */\n      0x00\n      add\n      0x00\n      swap1\n      sload\n      swap1\n      0x0100\n      exp\n      swap1\n      div\n      0xff\n      and\n        /* \"contracts/4_Game.sol\":3525:3579  require(games[gameId].initialized, \"Game Initialized\") */\n      tag_172\n      jumpi\n      mload(0x40)\n      0x08c379a000000000000000000000000000000000000000000000000000000000\n      dup2\n      mstore\n      0x04\n      add\n      tag_173\n      swap1\n      tag_123\n      jump\t// in\n    tag_173:\n      mload(0x40)\n      dup1\n      swap2\n      sub\n      swap1\n      revert\n    tag_172:\n        /* \"contracts/4_Game.sol\":3597:3602  games */\n      0x01\n        /* \"contracts/4_Game.sol\":3597:3610  games[gameId] */\n      0x00\n        /* \"contracts/4_Game.sol\":3603:3609  gameId */\n      dup5\n        /* \"contracts/4_Game.sol\":3597:3610  games[gameId] */\n      dup2\n      mstore\n      0x20\n      add\n      swap1\n      dup2\n      mstore\n      0x20\n      add\n      0x00\n      keccak256\n        /* \"contracts/4_Game.sol\":3597:3619  games[gameId].bettings */\n      0x01\n      add\n        /* \"contracts/4_Game.sol\":3597:3627  games[gameId].bettings[better] */\n      0x00\n        /* \"contracts/4_Game.sol\":3620:3626  better */\n      dup4\n        /* \"contracts/4_Game.sol\":3597:3627  games[gameId].bettings[better] */\n      0xffffffffffffffffffffffffffffffffffffffff\n      and\n      0xffffffffffffffffffffffffffffffffffffffff\n      and\n      dup2\n      mstore\n      0x20\n      add\n      swap1\n      dup2\n      mstore\n      0x20\n      add\n      0x00\n      keccak256\n      sload\n        /* \"contracts/4_Game.sol\":3590:3627  return games[gameId].bettings[better] */\n      swap1\n      pop\n        /* \"contracts/4_Game.sol\":3438:3635  function getBetting(uint gameId, address better) public view returns (uint) {... */\n      swap3\n      swap2\n      pop\n      pop\n      jump\t// out\n        /* \"https://github.com/OpenZeppelin/openzeppelin-contracts/blob/v4.9.3/contracts/access/AccessControl.sol\":6038:6252  function renounceRole(bytes32 role, address account) public virtual override {... */\n    tag_66:\n        /* \"https://github.com/OpenZeppelin/openzeppelin-contracts/blob/v4.9.3/contracts/access/AccessControl.sol\":6144:6156  _msgSender() */\n      tag_175\n        /* \"https://github.com/OpenZeppelin/openzeppelin-contracts/blob/v4.9.3/contracts/access/AccessControl.sol\":6144:6154  _msgSender */\n      tag_176\n        /* \"https://github.com/OpenZeppelin/openzeppelin-contracts/blob/v4.9.3/contracts/access/AccessControl.sol\":6144:6156  _msgSender() */\n      jump\t// in\n    tag_175:\n        /* \"https://github.com/OpenZeppelin/openzeppelin-contracts/blob/v4.9.3/contracts/access/AccessControl.sol\":6133:6156  account == _msgSender() */\n      0xffffffffffffffffffffffffffffffffffffffff\n      and\n        /* \"https://github.com/OpenZeppelin/openzeppelin-contracts/blob/v4.9.3/contracts/access/AccessControl.sol\":6133:6140  account */\n      dup2\n        /* \"https://github.com/OpenZeppelin/openzeppelin-contracts/blob/v4.9.3/contracts/access/AccessControl.sol\":6133:6156  account == _msgSender() */\n      0xffffffffffffffffffffffffffffffffffffffff\n      and\n      eq\n        /* \"https://github.com/OpenZeppelin/openzeppelin-contracts/blob/v4.9.3/contracts/access/AccessControl.sol\":6125:6208  require(account == _msgSender(), \"AccessControl: can only renounce roles for self\") */\n      tag_177\n      jumpi\n      mload(0x40)\n      0x08c379a000000000000000000000000000000000000000000000000000000000\n      dup2\n      mstore\n      0x04\n      add\n      tag_178\n      swap1\n      tag_179\n      jump\t// in\n    tag_178:\n      mload(0x40)\n      dup1\n      swap2\n      sub\n      swap1\n      revert\n    tag_177:\n        /* \"https://github.com/OpenZeppelin/openzeppelin-contracts/blob/v4.9.3/contracts/access/AccessControl.sol\":6219:6245  _revokeRole(role, account) */\n      tag_180\n        /* \"https://github.com/OpenZeppelin/openzeppelin-contracts/blob/v4.9.3/contracts/access/AccessControl.sol\":6231:6235  role */\n      dup3\n        /* \"https://github.com/OpenZeppelin/openzeppelin-contracts/blob/v4.9.3/contracts/access/AccessControl.sol\":6237:6244  account */\n      dup3\n        /* \"https://github.com/OpenZeppelin/openzeppelin-contracts/blob/v4.9.3/contracts/access/AccessControl.sol\":6219:6230  _revokeRole */\n      tag_181\n        /* \"https://github.com/OpenZeppelin/openzeppelin-contracts/blob/v4.9.3/contracts/access/AccessControl.sol\":6219:6245  _revokeRole(role, account) */\n      jump\t// in\n    tag_180:\n        /* \"https://github.com/OpenZeppelin/openzeppelin-contracts/blob/v4.9.3/contracts/access/AccessControl.sol\":6038:6252  function renounceRole(bytes32 role, address account) public virtual override {... */\n      pop\n      pop\n      jump\t// out\n        /* \"contracts/4_Game.sol\":1109:1133  uint public feeTotal = 0 */\n    tag_68:\n      sload(0x05)\n      dup2\n      jump\t// out\n        /* \"contracts/4_Game.sol\":1040:1068  address public tokenContract */\n    tag_71:\n      0x03\n      0x00\n      swap1\n      sload\n      swap1\n      0x0100\n      exp\n      swap1\n      div\n      0xffffffffffffffffffffffffffffffffffffffff\n      and\n      dup2\n      jump\t// out\n        /* \"contracts/4_Game.sol\":1756:2447  function bet(uint gameId, uint amount) public returns (bool) {... */\n    tag_77:\n        /* \"contracts/4_Game.sol\":1811:1815  bool */\n      0x00\n        /* \"contracts/4_Game.sol\":1836:1841  games */\n      0x01\n        /* \"contracts/4_Game.sol\":1836:1849  games[gameId] */\n      0x00\n        /* \"contracts/4_Game.sol\":1842:1848  gameId */\n      dup5\n        /* \"contracts/4_Game.sol\":1836:1849  games[gameId] */\n      dup2\n      mstore\n      0x20\n      add\n      swap1\n      dup2\n      mstore\n      0x20\n      add\n      0x00\n      keccak256\n        /* \"contracts/4_Game.sol\":1836:1861  games[gameId].initialized */\n      0x00\n      add\n      0x00\n      swap1\n      sload\n      swap1\n      0x0100\n      exp\n      swap1\n      div\n      0xff\n      and\n        /* \"contracts/4_Game.sol\":1828:1882  require(games[gameId].initialized, \"Game Initialized\") */\n      tag_183\n      jumpi\n      mload(0x40)\n      0x08c379a000000000000000000000000000000000000000000000000000000000\n      dup2\n      mstore\n      0x04\n      add\n      tag_184\n      swap1\n      tag_123\n      jump\t// in\n    tag_184:\n      mload(0x40)\n      dup1\n      swap2\n      sub\n      swap1\n      revert\n    tag_183:\n        /* \"contracts/4_Game.sol\":1933:1934  0 */\n      0x00\n        /* \"contracts/4_Game.sol\":1901:1935  games[gameId].winner == address(0) */\n      0xffffffffffffffffffffffffffffffffffffffff\n      and\n        /* \"contracts/4_Game.sol\":1901:1906  games */\n      0x01\n        /* \"contracts/4_Game.sol\":1901:1914  games[gameId] */\n      0x00\n        /* \"contracts/4_Game.sol\":1907:1913  gameId */\n      dup6\n        /* \"contracts/4_Game.sol\":1901:1914  games[gameId] */\n      dup2\n      mstore\n      0x20\n      add\n      swap1\n      dup2\n      mstore\n      0x20\n      add\n      0x00\n      keccak256\n        /* \"contracts/4_Game.sol\":1901:1921  games[gameId].winner */\n      0x04\n      add\n      0x00\n      swap1\n      sload\n      swap1\n      0x0100\n      exp\n      swap1\n      div\n      0xffffffffffffffffffffffffffffffffffffffff\n      and\n        /* \"contracts/4_Game.sol\":1901:1935  games[gameId].winner == address(0) */\n      0xffffffffffffffffffffffffffffffffffffffff\n      and\n      eq\n        /* \"contracts/4_Game.sol\":1893:1948  require(games[gameId].winner == address(0), \"Finished\") */\n      tag_185\n      jumpi\n      mload(0x40)\n      0x08c379a000000000000000000000000000000000000000000000000000000000\n      dup2\n      mstore\n      0x04\n      add\n      tag_186\n      swap1\n      tag_135\n      jump\t// in\n    tag_186:\n      mload(0x40)\n      dup1\n      swap2\n      sub\n      swap1\n      revert\n    tag_185:\n        /* \"contracts/4_Game.sol\":2014:2020  amount */\n      dup2\n        /* \"contracts/4_Game.sol\":1974:1987  tokenContract */\n      0x03\n      0x00\n      swap1\n      sload\n      swap1\n      0x0100\n      exp\n      swap1\n      div\n      0xffffffffffffffffffffffffffffffffffffffff\n      and\n        /* \"contracts/4_Game.sol\":1967:1998  IERC20(tokenContract).balanceOf */\n      0xffffffffffffffffffffffffffffffffffffffff\n      and\n      0x70a08231\n        /* \"contracts/4_Game.sol\":1999:2009  msg.sender */\n      caller\n        /* \"contracts/4_Game.sol\":1967:2010  IERC20(tokenContract).balanceOf(msg.sender) */\n      mload(0x40)\n      dup3\n      0xffffffff\n      and\n      0xe0\n      shl\n      dup2\n      mstore\n      0x04\n      add\n      tag_187\n      swap2\n      swap1\n      tag_73\n      jump\t// in\n    tag_187:\n      0x20\n      mload(0x40)\n      dup1\n      dup4\n      sub\n      dup2\n      dup7\n      gas\n      staticcall\n      iszero\n      dup1\n      iszero\n      tag_189\n      jumpi\n      returndatasize\n      0x00\n      dup1\n      returndatacopy\n      revert(0x00, returndatasize)\n    tag_189:\n      pop\n      pop\n      pop\n      pop\n      mload(0x40)\n      returndatasize\n      not(0x1f)\n      0x1f\n      dup3\n      add\n      and\n      dup3\n      add\n      dup1\n      0x40\n      mstore\n      pop\n      dup2\n      add\n      swap1\n      tag_190\n      swap2\n      swap1\n      tag_191\n      jump\t// in\n    tag_190:\n        /* \"contracts/4_Game.sol\":1967:2020  IERC20(tokenContract).balanceOf(msg.sender) >= amount */\n      lt\n      iszero\n        /* \"contracts/4_Game.sol\":1959:2039  require(IERC20(tokenContract).balanceOf(msg.sender) >= amount, \"Enough balance\") */\n      tag_192\n      jumpi\n      mload(0x40)\n      0x08c379a000000000000000000000000000000000000000000000000000000000\n      dup2\n      mstore\n      0x04\n      add\n      tag_193\n      swap1\n      tag_194\n      jump\t// in\n    tag_193:\n      mload(0x40)\n      dup1\n      swap2\n      sub\n      swap1\n      revert\n    tag_192:\n        /* \"contracts/4_Game.sol\":2067:2080  tokenContract */\n      0x03\n      0x00\n      swap1\n      sload\n      swap1\n      0x0100\n      exp\n      swap1\n      div\n      0xffffffffffffffffffffffffffffffffffffffff\n      and\n        /* \"contracts/4_Game.sol\":2060:2094  IERC20(tokenContract).transferFrom */\n      0xffffffffffffffffffffffffffffffffffffffff\n      and\n      0x23b872dd\n        /* \"contracts/4_Game.sol\":2095:2105  msg.sender */\n      caller\n        /* \"contracts/4_Game.sol\":2115:2119  this */\n      address\n        /* \"contracts/4_Game.sol\":2122:2128  amount */\n      dup6\n        /* \"contracts/4_Game.sol\":2060:2129  IERC20(tokenContract).transferFrom(msg.sender, address(this), amount) */\n      mload(0x40)\n      dup5\n      0xffffffff\n      and\n      0xe0\n      shl\n      dup2\n      mstore\n      0x04\n      add\n      tag_195\n      swap4\n      swap3\n      swap2\n      swap1\n      tag_196\n      jump\t// in\n    tag_195:\n      0x20\n      mload(0x40)\n      dup1\n      dup4\n      sub\n      dup2\n      0x00\n      dup8\n      gas\n      call\n      iszero\n      dup1\n      iszero\n      tag_198\n      jumpi\n      returndatasize\n      0x00\n      dup1\n      returndatacopy\n      revert(0x00, returndatasize)\n    tag_198:\n      pop\n      pop\n      pop\n      pop\n      mload(0x40)\n      returndatasize\n      not(0x1f)\n      0x1f\n      dup3\n      add\n      and\n      dup3\n      add\n      dup1\n      0x40\n      mstore\n      pop\n      dup2\n      add\n      swap1\n      tag_199\n      swap2\n      swap1\n      tag_158\n      jump\t// in\n    tag_199:\n        /* \"contracts/4_Game.sol\":2052:2157  require(IERC20(tokenContract).transferFrom(msg.sender, address(this), amount), \"Transfer should success\") */\n      tag_200\n      jumpi\n      mload(0x40)\n      0x08c379a000000000000000000000000000000000000000000000000000000000\n      dup2\n      mstore\n      0x04\n      add\n      tag_201\n      swap1\n      tag_202\n      jump\t// in\n    tag_201:\n      mload(0x40)\n      dup1\n      swap2\n      sub\n      swap1\n      revert\n    tag_200:\n        /* \"contracts/4_Game.sol\":2210:2211  0 */\n      0x00\n        /* \"contracts/4_Game.sol\":2172:2177  games */\n      0x01\n        /* \"contracts/4_Game.sol\":2172:2185  games[gameId] */\n      0x00\n        /* \"contracts/4_Game.sol\":2178:2184  gameId */\n      dup6\n        /* \"contracts/4_Game.sol\":2172:2185  games[gameId] */\n      dup2\n      mstore\n      0x20\n      add\n      swap1\n      dup2\n      mstore\n      0x20\n      add\n      0x00\n      keccak256\n        /* \"contracts/4_Game.sol\":2172:2194  games[gameId].bettings */\n      0x01\n      add\n        /* \"contracts/4_Game.sol\":2172:2206  games[gameId].bettings[msg.sender] */\n      0x00\n        /* \"contracts/4_Game.sol\":2195:2205  msg.sender */\n      caller\n        /* \"contracts/4_Game.sol\":2172:2206  games[gameId].bettings[msg.sender] */\n      0xffffffffffffffffffffffffffffffffffffffff\n      and\n      0xffffffffffffffffffffffffffffffffffffffff\n      and\n      dup2\n      mstore\n      0x20\n      add\n      swap1\n      dup2\n      mstore\n      0x20\n      add\n      0x00\n      keccak256\n      sload\n        /* \"contracts/4_Game.sol\":2172:2211  games[gameId].bettings[msg.sender] == 0 */\n      sub\n        /* \"contracts/4_Game.sol\":2168:2276  if (games[gameId].bettings[msg.sender] == 0) {... */\n      tag_203\n      jumpi\n        /* \"contracts/4_Game.sol\":2228:2233  games */\n      0x01\n        /* \"contracts/4_Game.sol\":2228:2241  games[gameId] */\n      0x00\n        /* \"contracts/4_Game.sol\":2234:2240  gameId */\n      dup5\n        /* \"contracts/4_Game.sol\":2228:2241  games[gameId] */\n      dup2\n      mstore\n      0x20\n      add\n      swap1\n      dup2\n      mstore\n      0x20\n      add\n      0x00\n      keccak256\n        /* \"contracts/4_Game.sol\":2228:2247  games[gameId].users */\n      0x03\n      add\n        /* \"contracts/4_Game.sol\":2253:2263  msg.sender */\n      caller\n        /* \"contracts/4_Game.sol\":2228:2264  games[gameId].users.push(msg.sender) */\n      swap1\n      dup1\n      0x01\n      dup2\n      sload\n      add\n      dup1\n      dup3\n      sstore\n      dup1\n      swap2\n      pop\n      pop\n      0x01\n      swap1\n      sub\n      swap1\n      0x00\n      mstore\n      keccak256(0x00, 0x20)\n      add\n      0x00\n      swap1\n      swap2\n      swap1\n      swap2\n      swap1\n      swap2\n      0x0100\n      exp\n      dup2\n      sload\n      dup2\n      0xffffffffffffffffffffffffffffffffffffffff\n      mul\n      not\n      and\n      swap1\n      dup4\n      0xffffffffffffffffffffffffffffffffffffffff\n      and\n      mul\n      or\n      swap1\n      sstore\n      pop\n        /* \"contracts/4_Game.sol\":2168:2276  if (games[gameId].bettings[msg.sender] == 0) {... */\n    tag_203:\n        /* \"contracts/4_Game.sol\":2324:2330  amount */\n      dup2\n        /* \"contracts/4_Game.sol\":2286:2291  games */\n      0x01\n        /* \"contracts/4_Game.sol\":2286:2299  games[gameId] */\n      0x00\n        /* \"contracts/4_Game.sol\":2292:2298  gameId */\n      dup6\n        /* \"contracts/4_Game.sol\":2286:2299  games[gameId] */\n      dup2\n      mstore\n      0x20\n      add\n      swap1\n      dup2\n      mstore\n      0x20\n      add\n      0x00\n      keccak256\n        /* \"contracts/4_Game.sol\":2286:2308  games[gameId].bettings */\n      0x01\n      add\n        /* \"contracts/4_Game.sol\":2286:2320  games[gameId].bettings[msg.sender] */\n      0x00\n        /* \"contracts/4_Game.sol\":2309:2319  msg.sender */\n      caller\n        /* \"contracts/4_Game.sol\":2286:2320  games[gameId].bettings[msg.sender] */\n      0xffffffffffffffffffffffffffffffffffffffff\n      and\n      0xffffffffffffffffffffffffffffffffffffffff\n      and\n      dup2\n      mstore\n      0x20\n      add\n      swap1\n      dup2\n      mstore\n      0x20\n      add\n      0x00\n      keccak256\n      0x00\n        /* \"contracts/4_Game.sol\":2286:2330  games[gameId].bettings[msg.sender] += amount */\n      dup3\n      dup3\n      sload\n      tag_205\n      swap2\n      swap1\n      tag_144\n      jump\t// in\n    tag_205:\n      swap3\n      pop\n      pop\n      dup2\n      swap1\n      sstore\n      pop\n        /* \"contracts/4_Game.sol\":2372:2378  amount */\n      dup2\n        /* \"contracts/4_Game.sol\":2341:2346  games */\n      0x01\n        /* \"contracts/4_Game.sol\":2341:2354  games[gameId] */\n      0x00\n        /* \"contracts/4_Game.sol\":2347:2353  gameId */\n      dup6\n        /* \"contracts/4_Game.sol\":2341:2354  games[gameId] */\n      dup2\n      mstore\n      0x20\n      add\n      swap1\n      dup2\n      mstore\n      0x20\n      add\n      0x00\n      keccak256\n        /* \"contracts/4_Game.sol\":2341:2368  games[gameId].totalBettings */\n      0x02\n      add\n      0x00\n        /* \"contracts/4_Game.sol\":2341:2378  games[gameId].totalBettings += amount */\n      dup3\n      dup3\n      sload\n      tag_206\n      swap2\n      swap1\n      tag_144\n      jump\t// in\n    tag_206:\n      swap3\n      pop\n      pop\n      dup2\n      swap1\n      sstore\n      pop\n        /* \"contracts/4_Game.sol\":2394:2417  Bat(msg.sender, amount) */\n      0xfb4c42ca2d93f0a673c2125aaa3c7b3fbeee9533e34b1f2c0f8f5c4d4d8bf106\n        /* \"contracts/4_Game.sol\":2398:2408  msg.sender */\n      caller\n        /* \"contracts/4_Game.sol\":2410:2416  amount */\n      dup4\n        /* \"contracts/4_Game.sol\":2394:2417  Bat(msg.sender, amount) */\n      mload(0x40)\n      tag_207\n      swap3\n      swap2\n      swap1\n      tag_154\n      jump\t// in\n    tag_207:\n      mload(0x40)\n      dup1\n      swap2\n      sub\n      swap1\n      log1\n        /* \"contracts/4_Game.sol\":2435:2439  true */\n      0x01\n        /* \"contracts/4_Game.sol\":2428:2439  return true */\n      swap1\n      pop\n        /* \"contracts/4_Game.sol\":1756:2447  function bet(uint gameId, uint amount) public returns (bool) {... */\n      swap3\n      swap2\n      pop\n      pop\n      jump\t// out\n        /* \"contracts/4_Game.sol\":1075:1102  uint public feePercent = 20 */\n    tag_80:\n      sload(0x04)\n      dup2\n      jump\t// out\n        /* \"contracts/4_Game.sol\":3835:4149  function withdrawAll() public onlyRole(DEFAULT_ADMIN_ROLE) returns (uint amount) {... */\n    tag_83:\n        /* \"contracts/4_Game.sol\":3903:3914  uint amount */\n      0x00\n        /* \"https://github.com/OpenZeppelin/openzeppelin-contracts/blob/v4.9.3/contracts/access/AccessControl.sol\":2198:2202  0x00 */\n      dup1\n        /* \"contracts/4_Game.sol\":3874:3892  DEFAULT_ADMIN_ROLE */\n      0x00\n      shl\n        /* \"https://github.com/OpenZeppelin/openzeppelin-contracts/blob/v4.9.3/contracts/access/AccessControl.sol\":2631:2647  _checkRole(role) */\n      tag_209\n        /* \"https://github.com/OpenZeppelin/openzeppelin-contracts/blob/v4.9.3/contracts/access/AccessControl.sol\":2642:2646  role */\n      dup2\n        /* \"https://github.com/OpenZeppelin/openzeppelin-contracts/blob/v4.9.3/contracts/access/AccessControl.sol\":2631:2641  _checkRole */\n      tag_129\n        /* \"https://github.com/OpenZeppelin/openzeppelin-contracts/blob/v4.9.3/contracts/access/AccessControl.sol\":2631:2647  _checkRole(role) */\n      jump\t// in\n    tag_209:\n        /* \"contracts/4_Game.sol\":3946:3947  0 */\n      0x00\n        /* \"contracts/4_Game.sol\":3935:3943  feeTotal */\n      sload(0x05)\n        /* \"contracts/4_Game.sol\":3935:3947  feeTotal > 0 */\n      gt\n        /* \"contracts/4_Game.sol\":3927:3958  require(feeTotal > 0, \"No fee\") */\n      tag_211\n      jumpi\n      mload(0x40)\n      0x08c379a000000000000000000000000000000000000000000000000000000000\n      dup2\n      mstore\n      0x04\n      add\n      tag_212\n      swap1\n      tag_213\n      jump\t// in\n    tag_212:\n      mload(0x40)\n      dup1\n      swap2\n      sub\n      swap1\n      revert\n    tag_211:\n        /* \"contracts/4_Game.sol\":3984:3997  tokenContract */\n      0x03\n      0x00\n      swap1\n      sload\n      swap1\n      0x0100\n      exp\n      swap1\n      div\n      0xffffffffffffffffffffffffffffffffffffffff\n      and\n        /* \"contracts/4_Game.sol\":3977:4007  IERC20(tokenContract).transfer */\n      0xffffffffffffffffffffffffffffffffffffffff\n      and\n      0xa9059cbb\n        /* \"contracts/4_Game.sol\":4008:4018  msg.sender */\n      caller\n        /* \"contracts/4_Game.sol\":4020:4028  feeTotal */\n      sload(0x05)\n        /* \"contracts/4_Game.sol\":3977:4029  IERC20(tokenContract).transfer(msg.sender, feeTotal) */\n      mload(0x40)\n      dup4\n      0xffffffff\n      and\n      0xe0\n      shl\n      dup2\n      mstore\n      0x04\n      add\n      tag_214\n      swap3\n      swap2\n      swap1\n      tag_154\n      jump\t// in\n    tag_214:\n      0x20\n      mload(0x40)\n      dup1\n      dup4\n      sub\n      dup2\n      0x00\n      dup8\n      gas\n      call\n      iszero\n      dup1\n      iszero\n      tag_216\n      jumpi\n      returndatasize\n      0x00\n      dup1\n      returndatacopy\n      revert(0x00, returndatasize)\n    tag_216:\n      pop\n      pop\n      pop\n      pop\n      mload(0x40)\n      returndatasize\n      not(0x1f)\n      0x1f\n      dup3\n      add\n      and\n      dup3\n      add\n      dup1\n      0x40\n      mstore\n      pop\n      dup2\n      add\n      swap1\n      tag_217\n      swap2\n      swap1\n      tag_158\n      jump\t// in\n    tag_217:\n        /* \"contracts/4_Game.sol\":3969:4046  require(IERC20(tokenContract).transfer(msg.sender, feeTotal), \"transfer fee\") */\n      tag_218\n      jumpi\n      mload(0x40)\n      0x08c379a000000000000000000000000000000000000000000000000000000000\n      dup2\n      mstore\n      0x04\n      add\n      tag_219\n      swap1\n      tag_220\n      jump\t// in\n    tag_219:\n      mload(0x40)\n      dup1\n      swap2\n      sub\n      swap1\n      revert\n    tag_218:\n        /* \"contracts/4_Game.sol\":4066:4074  feeTotal */\n      sload(0x05)\n        /* \"contracts/4_Game.sol\":4057:4074  amount = feeTotal */\n      swap2\n      pop\n        /* \"contracts/4_Game.sol\":4096:4097  0 */\n      0x00\n        /* \"contracts/4_Game.sol\":4085:4093  feeTotal */\n      0x05\n        /* \"contracts/4_Game.sol\":4085:4097  feeTotal = 0 */\n      dup2\n      swap1\n      sstore\n      pop\n        /* \"contracts/4_Game.sol\":4113:4141  Withdraw(msg.sender, amount) */\n      0x884edad9ce6fa2440d8a54cc123490eb96d2768479d49ff9c7366125a9424364\n        /* \"contracts/4_Game.sol\":4122:4132  msg.sender */\n      caller\n        /* \"contracts/4_Game.sol\":4134:4140  amount */\n      dup4\n        /* \"contracts/4_Game.sol\":4113:4141  Withdraw(msg.sender, amount) */\n      mload(0x40)\n      tag_221\n      swap3\n      swap2\n      swap1\n      tag_154\n      jump\t// in\n    tag_221:\n      mload(0x40)\n      dup1\n      swap2\n      sub\n      swap1\n      log1\n        /* \"contracts/4_Game.sol\":3835:4149  function withdrawAll() public onlyRole(DEFAULT_ADMIN_ROLE) returns (uint amount) {... */\n      pop\n      swap1\n      jump\t// out\n        /* \"https://github.com/OpenZeppelin/openzeppelin-contracts/blob/v4.9.3/contracts/access/AccessControl.sol\":3021:3166  function hasRole(bytes32 role, address account) public view virtual override returns (bool) {... */\n    tag_87:\n        /* \"https://github.com/OpenZeppelin/openzeppelin-contracts/blob/v4.9.3/contracts/access/AccessControl.sol\":3107:3111  bool */\n      0x00\n        /* \"https://github.com/OpenZeppelin/openzeppelin-contracts/blob/v4.9.3/contracts/access/AccessControl.sol\":3130:3136  _roles */\n      dup1\n        /* \"https://github.com/OpenZeppelin/openzeppelin-contracts/blob/v4.9.3/contracts/access/AccessControl.sol\":3130:3142  _roles[role] */\n      0x00\n        /* \"https://github.com/OpenZeppelin/openzeppelin-contracts/blob/v4.9.3/contracts/access/AccessControl.sol\":3137:3141  role */\n      dup5\n        /* \"https://github.com/OpenZeppelin/openzeppelin-contracts/blob/v4.9.3/contracts/access/AccessControl.sol\":3130:3142  _roles[role] */\n      dup2\n      mstore\n      0x20\n      add\n      swap1\n      dup2\n      mstore\n      0x20\n      add\n      0x00\n      keccak256\n        /* \"https://github.com/OpenZeppelin/openzeppelin-contracts/blob/v4.9.3/contracts/access/AccessControl.sol\":3130:3150  _roles[role].members */\n      0x00\n      add\n        /* \"https://github.com/OpenZeppelin/openzeppelin-contracts/blob/v4.9.3/contracts/access/AccessControl.sol\":3130:3159  _roles[role].members[account] */\n      0x00\n        /* \"https://github.com/OpenZeppelin/openzeppelin-contracts/blob/v4.9.3/contracts/access/AccessControl.sol\":3151:3158  account */\n      dup4\n        /* \"https://github.com/OpenZeppelin/openzeppelin-contracts/blob/v4.9.3/contracts/access/AccessControl.sol\":3130:3159  _roles[role].members[account] */\n      0xffffffffffffffffffffffffffffffffffffffff\n      and\n      0xffffffffffffffffffffffffffffffffffffffff\n      and\n      dup2\n      mstore\n      0x20\n      add\n      swap1\n      dup2\n      mstore\n      0x20\n      add\n      0x00\n      keccak256\n      0x00\n      swap1\n      sload\n      swap1\n      0x0100\n      exp\n      swap1\n      div\n      0xff\n      and\n        /* \"https://github.com/OpenZeppelin/openzeppelin-contracts/blob/v4.9.3/contracts/access/AccessControl.sol\":3123:3159  return _roles[role].members[account] */\n      swap1\n      pop\n        /* \"https://github.com/OpenZeppelin/openzeppelin-contracts/blob/v4.9.3/contracts/access/AccessControl.sol\":3021:3166  function hasRole(bytes32 role, address account) public view virtual override returns (bool) {... */\n      swap3\n      swap2\n      pop\n      pop\n      jump\t// out\n        /* \"contracts/4_Game.sol\":1656:1748  function listGameIds() public view returns (uint[] memory) {... */\n    tag_90:\n        /* \"contracts/4_Game.sol\":1700:1713  uint[] memory */\n      0x60\n        /* \"contracts/4_Game.sol\":1733:1740  gameIds */\n      0x02\n        /* \"contracts/4_Game.sol\":1726:1740  return gameIds */\n      dup1\n      sload\n      dup1\n      0x20\n      mul\n      0x20\n      add\n      mload(0x40)\n      swap1\n      dup2\n      add\n      0x40\n      mstore\n      dup1\n      swap3\n      swap2\n      swap1\n      dup2\n      dup2\n      mstore\n      0x20\n      add\n      dup3\n      dup1\n      sload\n      dup1\n      iszero\n      tag_224\n      jumpi\n      0x20\n      mul\n      dup3\n      add\n      swap2\n      swap1\n      0x00\n      mstore\n      keccak256(0x00, 0x20)\n      swap1\n    tag_225:\n      dup2\n      sload\n      dup2\n      mstore\n      0x20\n      add\n      swap1\n      0x01\n      add\n      swap1\n      dup1\n      dup4\n      gt\n      tag_225\n      jumpi\n    tag_224:\n      pop\n      pop\n      pop\n      pop\n      pop\n      swap1\n      pop\n        /* \"contracts/4_Game.sol\":1656:1748  function listGameIds() public view returns (uint[] memory) {... */\n      swap1\n      jump\t// out\n        /* \"https://github.com/OpenZeppelin/openzeppelin-contracts/blob/v4.9.3/contracts/access/AccessControl.sol\":2153:2202  bytes32 public constant DEFAULT_ADMIN_ROLE = 0x00 */\n    tag_94:\n        /* \"https://github.com/OpenZeppelin/openzeppelin-contracts/blob/v4.9.3/contracts/access/AccessControl.sol\":2198:2202  0x00 */\n      0x00\n        /* \"https://github.com/OpenZeppelin/openzeppelin-contracts/blob/v4.9.3/contracts/access/AccessControl.sol\":2153:2202  bytes32 public constant DEFAULT_ADMIN_ROLE = 0x00 */\n      dup1\n      shl\n      dup2\n      jump\t// out\n        /* \"contracts/4_Game.sol\":3643:3827  function myBetting(uint gameId) public view returns (uint) {... */\n    tag_98:\n        /* \"contracts/4_Game.sol\":3696:3700  uint */\n      0x00\n        /* \"contracts/4_Game.sol\":3721:3726  games */\n      0x01\n        /* \"contracts/4_Game.sol\":3721:3734  games[gameId] */\n      0x00\n        /* \"contracts/4_Game.sol\":3727:3733  gameId */\n      dup4\n        /* \"contracts/4_Game.sol\":3721:3734  games[gameId] */\n      dup2\n      mstore\n      0x20\n      add\n      swap1\n      dup2\n      mstore\n      0x20\n      add\n      0x00\n      keccak256\n        /* \"contracts/4_Game.sol\":3721:3746  games[gameId].initialized */\n      0x00\n      add\n      0x00\n      swap1\n      sload\n      swap1\n      0x0100\n      exp\n      swap1\n      div\n      0xff\n      and\n        /* \"contracts/4_Game.sol\":3713:3767  require(games[gameId].initialized, \"Game Initialized\") */\n      tag_227\n      jumpi\n      mload(0x40)\n      0x08c379a000000000000000000000000000000000000000000000000000000000\n      dup2\n      mstore\n      0x04\n      add\n      tag_228\n      swap1\n      tag_123\n      jump\t// in\n    tag_228:\n      mload(0x40)\n      dup1\n      swap2\n      sub\n      swap1\n      revert\n    tag_227:\n        /* \"contracts/4_Game.sol\":3785:3790  games */\n      0x01\n        /* \"contracts/4_Game.sol\":3785:3798  games[gameId] */\n      0x00\n        /* \"contracts/4_Game.sol\":3791:3797  gameId */\n      dup4\n        /* \"contracts/4_Game.sol\":3785:3798  games[gameId] */\n      dup2\n      mstore\n      0x20\n      add\n      swap1\n      dup2\n      mstore\n      0x20\n      add\n      0x00\n      keccak256\n        /* \"contracts/4_Game.sol\":3785:3807  games[gameId].bettings */\n      0x01\n      add\n        /* \"contracts/4_Game.sol\":3785:3819  games[gameId].bettings[msg.sender] */\n      0x00\n        /* \"contracts/4_Game.sol\":3808:3818  msg.sender */\n      caller\n        /* \"contracts/4_Game.sol\":3785:3819  games[gameId].bettings[msg.sender] */\n      0xffffffffffffffffffffffffffffffffffffffff\n      and\n      0xffffffffffffffffffffffffffffffffffffffff\n      and\n      dup2\n      mstore\n      0x20\n      add\n      swap1\n      dup2\n      mstore\n      0x20\n      add\n      0x00\n      keccak256\n      sload\n        /* \"contracts/4_Game.sol\":3778:3819  return games[gameId].bettings[msg.sender] */\n      swap1\n      pop\n        /* \"contracts/4_Game.sol\":3643:3827  function myBetting(uint gameId) public view returns (uint) {... */\n      swap2\n      swap1\n      pop\n      jump\t// out\n        /* \"https://github.com/OpenZeppelin/openzeppelin-contracts/blob/v4.9.3/contracts/access/AccessControl.sol\":5354:5501  function revokeRole(bytes32 role, address account) public virtual override onlyRole(getRoleAdmin(role)) {... */\n    tag_102:\n        /* \"https://github.com/OpenZeppelin/openzeppelin-contracts/blob/v4.9.3/contracts/access/AccessControl.sol\":5438:5456  getRoleAdmin(role) */\n      tag_229\n        /* \"https://github.com/OpenZeppelin/openzeppelin-contracts/blob/v4.9.3/contracts/access/AccessControl.sol\":5451:5455  role */\n      dup3\n        /* \"https://github.com/OpenZeppelin/openzeppelin-contracts/blob/v4.9.3/contracts/access/AccessControl.sol\":5438:5450  getRoleAdmin */\n      tag_47\n        /* \"https://github.com/OpenZeppelin/openzeppelin-contracts/blob/v4.9.3/contracts/access/AccessControl.sol\":5438:5456  getRoleAdmin(role) */\n      jump\t// in\n    tag_229:\n        /* \"https://github.com/OpenZeppelin/openzeppelin-contracts/blob/v4.9.3/contracts/access/AccessControl.sol\":2631:2647  _checkRole(role) */\n      tag_231\n        /* \"https://github.com/OpenZeppelin/openzeppelin-contracts/blob/v4.9.3/contracts/access/AccessControl.sol\":2642:2646  role */\n      dup2\n        /* \"https://github.com/OpenZeppelin/openzeppelin-contracts/blob/v4.9.3/contracts/access/AccessControl.sol\":2631:2641  _checkRole */\n      tag_129\n        /* \"https://github.com/OpenZeppelin/openzeppelin-contracts/blob/v4.9.3/contracts/access/AccessControl.sol\":2631:2647  _checkRole(role) */\n      jump\t// in\n    tag_231:\n        /* \"https://github.com/OpenZeppelin/openzeppelin-contracts/blob/v4.9.3/contracts/access/AccessControl.sol\":5468:5494  _revokeRole(role, account) */\n      tag_233\n        /* \"https://github.com/OpenZeppelin/openzeppelin-contracts/blob/v4.9.3/contracts/access/AccessControl.sol\":5480:5484  role */\n      dup4\n        /* \"https://github.com/OpenZeppelin/openzeppelin-contracts/blob/v4.9.3/contracts/access/AccessControl.sol\":5486:5493  account */\n      dup4\n        /* \"https://github.com/OpenZeppelin/openzeppelin-contracts/blob/v4.9.3/contracts/access/AccessControl.sol\":5468:5479  _revokeRole */\n      tag_181\n        /* \"https://github.com/OpenZeppelin/openzeppelin-contracts/blob/v4.9.3/contracts/access/AccessControl.sol\":5468:5494  _revokeRole(role, account) */\n      jump\t// in\n    tag_233:\n        /* \"https://github.com/OpenZeppelin/openzeppelin-contracts/blob/v4.9.3/contracts/access/AccessControl.sol\":5354:5501  function revokeRole(bytes32 role, address account) public virtual override onlyRole(getRoleAdmin(role)) {... */\n      pop\n      pop\n      pop\n      jump\t// out\n        /* \"contracts/4_Game.sol\":1012:1033  uint[] public gameIds */\n    tag_105:\n      0x02\n      dup2\n      dup2\n      sload\n      dup2\n      lt\n      tag_234\n      jumpi\n      0x00\n      dup1\n      revert\n    tag_234:\n      swap1\n      0x00\n      mstore\n      keccak256(0x00, 0x20)\n      add\n      0x00\n      swap2\n      pop\n      swap1\n      pop\n      sload\n      dup2\n      jump\t// out\n        /* \"contracts/4_Game.sol\":1393:1648  function startGame(uint newId) public returns (bool) {... */\n    tag_109:\n        /* \"contracts/4_Game.sol\":1440:1444  bool */\n      0x00\n        /* \"contracts/4_Game.sol\":1493:1498  false */\n      dup1\n        /* \"contracts/4_Game.sol\":1465:1498  games[newId].initialized == false */\n      iszero\n      iszero\n        /* \"contracts/4_Game.sol\":1465:1470  games */\n      0x01\n        /* \"contracts/4_Game.sol\":1465:1477  games[newId] */\n      0x00\n        /* \"contracts/4_Game.sol\":1471:1476  newId */\n      dup5\n        /* \"contracts/4_Game.sol\":1465:1477  games[newId] */\n      dup2\n      mstore\n      0x20\n      add\n      swap1\n      dup2\n      mstore\n      0x20\n      add\n      0x00\n      keccak256\n        /* \"contracts/4_Game.sol\":1465:1489  games[newId].initialized */\n      0x00\n      add\n      0x00\n      swap1\n      sload\n      swap1\n      0x0100\n      exp\n      swap1\n      div\n      0xff\n      and\n        /* \"contracts/4_Game.sol\":1465:1498  games[newId].initialized == false */\n      iszero\n      iszero\n      eq\n        /* \"contracts/4_Game.sol\":1457:1514  require(games[newId].initialized == false, \"Game exists\") */\n      tag_237\n      jumpi\n      mload(0x40)\n      0x08c379a000000000000000000000000000000000000000000000000000000000\n      dup2\n      mstore\n      0x04\n      add\n      tag_238\n      swap1\n      tag_239\n      jump\t// in\n    tag_238:\n      mload(0x40)\n      dup1\n      swap2\n      sub\n      swap1\n      revert\n    tag_237:\n        /* \"contracts/4_Game.sol\":1552:1556  true */\n      0x01\n        /* \"contracts/4_Game.sol\":1525:1530  games */\n      dup1\n        /* \"contracts/4_Game.sol\":1525:1537  games[newId] */\n      0x00\n        /* \"contracts/4_Game.sol\":1531:1536  newId */\n      dup5\n        /* \"contracts/4_Game.sol\":1525:1537  games[newId] */\n      dup2\n      mstore\n      0x20\n      add\n      swap1\n      dup2\n      mstore\n      0x20\n      add\n      0x00\n      keccak256\n        /* \"contracts/4_Game.sol\":1525:1549  games[newId].initialized */\n      0x00\n      add\n      0x00\n        /* \"contracts/4_Game.sol\":1525:1556  games[newId].initialized = true */\n      0x0100\n      exp\n      dup2\n      sload\n      dup2\n      0xff\n      mul\n      not\n      and\n      swap1\n      dup4\n      iszero\n      iszero\n      mul\n      or\n      swap1\n      sstore\n      pop\n        /* \"contracts/4_Game.sol\":1567:1574  gameIds */\n      0x02\n        /* \"contracts/4_Game.sol\":1580:1585  newId */\n      dup3\n        /* \"contracts/4_Game.sol\":1567:1586  gameIds.push(newId) */\n      swap1\n      dup1\n      0x01\n      dup2\n      sload\n      add\n      dup1\n      dup3\n      sstore\n      dup1\n      swap2\n      pop\n      pop\n      0x01\n      swap1\n      sub\n      swap1\n      0x00\n      mstore\n      keccak256(0x00, 0x20)\n      add\n      0x00\n      swap1\n      swap2\n      swap1\n      swap2\n      swap1\n      swap2\n      pop\n      sstore\n        /* \"contracts/4_Game.sol\":1602:1618  GameStart(newId) */\n      0xb5e8a4470f7bcac7f2c0f3e23471bd7016a9f6f049884cd27dfa8960f361287b\n        /* \"contracts/4_Game.sol\":1612:1617  newId */\n      dup3\n        /* \"contracts/4_Game.sol\":1602:1618  GameStart(newId) */\n      mload(0x40)\n      tag_241\n      swap2\n      swap1\n      tag_55\n      jump\t// in\n    tag_241:\n      mload(0x40)\n      dup1\n      swap2\n      sub\n      swap1\n      log1\n        /* \"contracts/4_Game.sol\":1636:1640  true */\n      0x01\n        /* \"contracts/4_Game.sol\":1629:1640  return true */\n      swap1\n      pop\n        /* \"contracts/4_Game.sol\":1393:1648  function startGame(uint newId) public returns (bool) {... */\n      swap2\n      swap1\n      pop\n      jump\t// out\n        /* \"contracts/4_Game.sol\":1227:1385  function setErc20(address newContract) public onlyRole(DEFAULT_ADMIN_ROLE) returns (bool) {... */\n    tag_114:\n        /* \"contracts/4_Game.sol\":1311:1315  bool */\n      0x00\n        /* \"https://github.com/OpenZeppelin/openzeppelin-contracts/blob/v4.9.3/contracts/access/AccessControl.sol\":2198:2202  0x00 */\n      dup1\n        /* \"contracts/4_Game.sol\":1282:1300  DEFAULT_ADMIN_ROLE */\n      0x00\n      shl\n        /* \"https://github.com/OpenZeppelin/openzeppelin-contracts/blob/v4.9.3/contracts/access/AccessControl.sol\":2631:2647  _checkRole(role) */\n      tag_243\n        /* \"https://github.com/OpenZeppelin/openzeppelin-contracts/blob/v4.9.3/contracts/access/AccessControl.sol\":2642:2646  role */\n      dup2\n        /* \"https://github.com/OpenZeppelin/openzeppelin-contracts/blob/v4.9.3/contracts/access/AccessControl.sol\":2631:2641  _checkRole */\n      tag_129\n        /* \"https://github.com/OpenZeppelin/openzeppelin-contracts/blob/v4.9.3/contracts/access/AccessControl.sol\":2631:2647  _checkRole(role) */\n      jump\t// in\n    tag_243:\n        /* \"contracts/4_Game.sol\":1344:1355  newContract */\n      dup3\n        /* \"contracts/4_Game.sol\":1328:1341  tokenContract */\n      0x03\n      0x00\n        /* \"contracts/4_Game.sol\":1328:1355  tokenContract = newContract */\n      0x0100\n      exp\n      dup2\n      sload\n      dup2\n      0xffffffffffffffffffffffffffffffffffffffff\n      mul\n      not\n      and\n      swap1\n      dup4\n      0xffffffffffffffffffffffffffffffffffffffff\n      and\n      mul\n      or\n      swap1\n      sstore\n      pop\n        /* \"contracts/4_Game.sol\":1373:1377  true */\n      0x01\n        /* \"contracts/4_Game.sol\":1366:1377  return true */\n      swap2\n      pop\n        /* \"contracts/4_Game.sol\":1227:1385  function setErc20(address newContract) public onlyRole(DEFAULT_ADMIN_ROLE) returns (bool) {... */\n      pop\n      swap2\n      swap1\n      pop\n      jump\t// out\n        /* \"https://github.com/OpenZeppelin/openzeppelin-contracts/blob/v4.9.3/contracts/utils/introspection/ERC165.sol\":829:984  function supportsInterface(bytes4 interfaceId) public view virtual override returns (bool) {... */\n    tag_119:\n        /* \"https://github.com/OpenZeppelin/openzeppelin-contracts/blob/v4.9.3/contracts/utils/introspection/ERC165.sol\":914:918  bool */\n      0x00\n        /* \"https://github.com/OpenZeppelin/openzeppelin-contracts/blob/v4.9.3/contracts/utils/introspection/ERC165.sol\":952:977  type(IERC165).interfaceId */\n      0x01ffc9a700000000000000000000000000000000000000000000000000000000\n        /* \"https://github.com/OpenZeppelin/openzeppelin-contracts/blob/v4.9.3/contracts/utils/introspection/ERC165.sol\":937:977  interfaceId == type(IERC165).interfaceId */\n      not(0xffffffffffffffffffffffffffffffffffffffffffffffffffffffff)\n      and\n        /* \"https://github.com/OpenZeppelin/openzeppelin-contracts/blob/v4.9.3/contracts/utils/introspection/ERC165.sol\":937:948  interfaceId */\n      dup3\n        /* \"https://github.com/OpenZeppelin/openzeppelin-contracts/blob/v4.9.3/contracts/utils/introspection/ERC165.sol\":937:977  interfaceId == type(IERC165).interfaceId */\n      not(0xffffffffffffffffffffffffffffffffffffffffffffffffffffffff)\n      and\n      eq\n        /* \"https://github.com/OpenZeppelin/openzeppelin-contracts/blob/v4.9.3/contracts/utils/introspection/ERC165.sol\":930:977  return interfaceId == type(IERC165).interfaceId */\n      swap1\n      pop\n        /* \"https://github.com/OpenZeppelin/openzeppelin-contracts/blob/v4.9.3/contracts/utils/introspection/ERC165.sol\":829:984  function supportsInterface(bytes4 interfaceId) public view virtual override returns (bool) {... */\n      swap2\n      swap1\n      pop\n      jump\t// out\n        /* \"https://github.com/OpenZeppelin/openzeppelin-contracts/blob/v4.9.3/contracts/access/AccessControl.sol\":3460:3563  function _checkRole(bytes32 role) internal view virtual {... */\n    tag_129:\n        /* \"https://github.com/OpenZeppelin/openzeppelin-contracts/blob/v4.9.3/contracts/access/AccessControl.sol\":3526:3556  _checkRole(role, _msgSender()) */\n      tag_247\n        /* \"https://github.com/OpenZeppelin/openzeppelin-contracts/blob/v4.9.3/contracts/access/AccessControl.sol\":3537:3541  role */\n      dup2\n        /* \"https://github.com/OpenZeppelin/openzeppelin-contracts/blob/v4.9.3/contracts/access/AccessControl.sol\":3543:3555  _msgSender() */\n      tag_248\n        /* \"https://github.com/OpenZeppelin/openzeppelin-contracts/blob/v4.9.3/contracts/access/AccessControl.sol\":3543:3553  _msgSender */\n      tag_176\n        /* \"https://github.com/OpenZeppelin/openzeppelin-contracts/blob/v4.9.3/contracts/access/AccessControl.sol\":3543:3555  _msgSender() */\n      jump\t// in\n    tag_248:\n        /* \"https://github.com/OpenZeppelin/openzeppelin-contracts/blob/v4.9.3/contracts/access/AccessControl.sol\":3526:3536  _checkRole */\n      tag_249\n        /* \"https://github.com/OpenZeppelin/openzeppelin-contracts/blob/v4.9.3/contracts/access/AccessControl.sol\":3526:3556  _checkRole(role, _msgSender()) */\n      jump\t// in\n    tag_247:\n        /* \"https://github.com/OpenZeppelin/openzeppelin-contracts/blob/v4.9.3/contracts/access/AccessControl.sol\":3460:3563  function _checkRole(bytes32 role) internal view virtual {... */\n      pop\n      jump\t// out\n        /* \"https://github.com/OpenZeppelin/openzeppelin-contracts/blob/v4.9.3/contracts/access/AccessControl.sol\":7587:7820  function _grantRole(bytes32 role, address account) internal virtual {... */\n    tag_170:\n        /* \"https://github.com/OpenZeppelin/openzeppelin-contracts/blob/v4.9.3/contracts/access/AccessControl.sol\":7670:7692  hasRole(role, account) */\n      tag_251\n        /* \"https://github.com/OpenZeppelin/openzeppelin-contracts/blob/v4.9.3/contracts/access/AccessControl.sol\":7678:7682  role */\n      dup3\n        /* \"https://github.com/OpenZeppelin/openzeppelin-contracts/blob/v4.9.3/contracts/access/AccessControl.sol\":7684:7691  account */\n      dup3\n        /* \"https://github.com/OpenZeppelin/openzeppelin-contracts/blob/v4.9.3/contracts/access/AccessControl.sol\":7670:7677  hasRole */\n      tag_87\n        /* \"https://github.com/OpenZeppelin/openzeppelin-contracts/blob/v4.9.3/contracts/access/AccessControl.sol\":7670:7692  hasRole(role, account) */\n      jump\t// in\n    tag_251:\n        /* \"https://github.com/OpenZeppelin/openzeppelin-contracts/blob/v4.9.3/contracts/access/AccessControl.sol\":7665:7814  if (!hasRole(role, account)) {... */\n      tag_252\n      jumpi\n        /* \"https://github.com/OpenZeppelin/openzeppelin-contracts/blob/v4.9.3/contracts/access/AccessControl.sol\":7740:7744  true */\n      0x01\n        /* \"https://github.com/OpenZeppelin/openzeppelin-contracts/blob/v4.9.3/contracts/access/AccessControl.sol\":7708:7714  _roles */\n      0x00\n        /* \"https://github.com/OpenZeppelin/openzeppelin-contracts/blob/v4.9.3/contracts/access/AccessControl.sol\":7708:7720  _roles[role] */\n      dup1\n        /* \"https://github.com/OpenZeppelin/openzeppelin-contracts/blob/v4.9.3/contracts/access/AccessControl.sol\":7715:7719  role */\n      dup5\n        /* \"https://github.com/OpenZeppelin/openzeppelin-contracts/blob/v4.9.3/contracts/access/AccessControl.sol\":7708:7720  _roles[role] */\n      dup2\n      mstore\n      0x20\n      add\n      swap1\n      dup2\n      mstore\n      0x20\n      add\n      0x00\n      keccak256\n        /* \"https://github.com/OpenZeppelin/openzeppelin-contracts/blob/v4.9.3/contracts/access/AccessControl.sol\":7708:7728  _roles[role].members */\n      0x00\n      add\n        /* \"https://github.com/OpenZeppelin/openzeppelin-contracts/blob/v4.9.3/contracts/access/AccessControl.sol\":7708:7737  _roles[role].members[account] */\n      0x00\n        /* \"https://github.com/OpenZeppelin/openzeppelin-contracts/blob/v4.9.3/contracts/access/AccessControl.sol\":7729:7736  account */\n      dup4\n        /* \"https://github.com/OpenZeppelin/openzeppelin-contracts/blob/v4.9.3/contracts/access/AccessControl.sol\":7708:7737  _roles[role].members[account] */\n      0xffffffffffffffffffffffffffffffffffffffff\n      and\n      0xffffffffffffffffffffffffffffffffffffffff\n      and\n      dup2\n      mstore\n      0x20\n      add\n      swap1\n      dup2\n      mstore\n      0x20\n      add\n      0x00\n      keccak256\n      0x00\n        /* \"https://github.com/OpenZeppelin/openzeppelin-contracts/blob/v4.9.3/contracts/access/AccessControl.sol\":7708:7744  _roles[role].members[account] = true */\n      0x0100\n      exp\n      dup2\n      sload\n      dup2\n      0xff\n      mul\n      not\n      and\n      swap1\n      dup4\n      iszero\n      iszero\n      mul\n      or\n      swap1\n      sstore\n      pop\n        /* \"https://github.com/OpenZeppelin/openzeppelin-contracts/blob/v4.9.3/contracts/access/AccessControl.sol\":7790:7802  _msgSender() */\n      tag_253\n        /* \"https://github.com/OpenZeppelin/openzeppelin-contracts/blob/v4.9.3/contracts/access/AccessControl.sol\":7790:7800  _msgSender */\n      tag_176\n        /* \"https://github.com/OpenZeppelin/openzeppelin-contracts/blob/v4.9.3/contracts/access/AccessControl.sol\":7790:7802  _msgSender() */\n      jump\t// in\n    tag_253:\n        /* \"https://github.com/OpenZeppelin/openzeppelin-contracts/blob/v4.9.3/contracts/access/AccessControl.sol\":7763:7803  RoleGranted(role, account, _msgSender()) */\n      0xffffffffffffffffffffffffffffffffffffffff\n      and\n        /* \"https://github.com/OpenZeppelin/openzeppelin-contracts/blob/v4.9.3/contracts/access/AccessControl.sol\":7781:7788  account */\n      dup2\n        /* \"https://github.com/OpenZeppelin/openzeppelin-contracts/blob/v4.9.3/contracts/access/AccessControl.sol\":7763:7803  RoleGranted(role, account, _msgSender()) */\n      0xffffffffffffffffffffffffffffffffffffffff\n      and\n        /* \"https://github.com/OpenZeppelin/openzeppelin-contracts/blob/v4.9.3/contracts/access/AccessControl.sol\":7775:7779  role */\n      dup4\n        /* \"https://github.com/OpenZeppelin/openzeppelin-contracts/blob/v4.9.3/contracts/access/AccessControl.sol\":7763:7803  RoleGranted(role, account, _msgSender()) */\n      0x2f8788117e7eff1d82e926ec794901d17c78024a50270940304540a733656f0d\n      mload(0x40)\n      mload(0x40)\n      dup1\n      swap2\n      sub\n      swap1\n      log4\n        /* \"https://github.com/OpenZeppelin/openzeppelin-contracts/blob/v4.9.3/contracts/access/AccessControl.sol\":7665:7814  if (!hasRole(role, account)) {... */\n    tag_252:\n        /* \"https://github.com/OpenZeppelin/openzeppelin-contracts/blob/v4.9.3/contracts/access/AccessControl.sol\":7587:7820  function _grantRole(bytes32 role, address account) internal virtual {... */\n      pop\n      pop\n      jump\t// out\n        /* \"https://github.com/OpenZeppelin/openzeppelin-contracts/blob/v4.9.3/contracts/utils/Context.sol\":640:736  function _msgSender() internal view virtual returns (address) {... */\n    tag_176:\n        /* \"https://github.com/OpenZeppelin/openzeppelin-contracts/blob/v4.9.3/contracts/utils/Context.sol\":693:700  address */\n      0x00\n        /* \"https://github.com/OpenZeppelin/openzeppelin-contracts/blob/v4.9.3/contracts/utils/Context.sol\":719:729  msg.sender */\n      caller\n        /* \"https://github.com/OpenZeppelin/openzeppelin-contracts/blob/v4.9.3/contracts/utils/Context.sol\":712:729  return msg.sender */\n      swap1\n      pop\n        /* \"https://github.com/OpenZeppelin/openzeppelin-contracts/blob/v4.9.3/contracts/utils/Context.sol\":640:736  function _msgSender() internal view virtual returns (address) {... */\n      swap1\n      jump\t// out\n        /* \"https://github.com/OpenZeppelin/openzeppelin-contracts/blob/v4.9.3/contracts/access/AccessControl.sol\":7991:8225  function _revokeRole(bytes32 role, address account) internal virtual {... */\n    tag_181:\n        /* \"https://github.com/OpenZeppelin/openzeppelin-contracts/blob/v4.9.3/contracts/access/AccessControl.sol\":8074:8096  hasRole(role, account) */\n      tag_256\n        /* \"https://github.com/OpenZeppelin/openzeppelin-contracts/blob/v4.9.3/contracts/access/AccessControl.sol\":8082:8086  role */\n      dup3\n        /* \"https://github.com/OpenZeppelin/openzeppelin-contracts/blob/v4.9.3/contracts/access/AccessControl.sol\":8088:8095  account */\n      dup3\n        /* \"https://github.com/OpenZeppelin/openzeppelin-contracts/blob/v4.9.3/contracts/access/AccessControl.sol\":8074:8081  hasRole */\n      tag_87\n        /* \"https://github.com/OpenZeppelin/openzeppelin-contracts/blob/v4.9.3/contracts/access/AccessControl.sol\":8074:8096  hasRole(role, account) */\n      jump\t// in\n    tag_256:\n        /* \"https://github.com/OpenZeppelin/openzeppelin-contracts/blob/v4.9.3/contracts/access/AccessControl.sol\":8070:8219  if (hasRole(role, account)) {... */\n      iszero\n      tag_257\n      jumpi\n        /* \"https://github.com/OpenZeppelin/openzeppelin-contracts/blob/v4.9.3/contracts/access/AccessControl.sol\":8144:8149  false */\n      0x00\n        /* \"https://github.com/OpenZeppelin/openzeppelin-contracts/blob/v4.9.3/contracts/access/AccessControl.sol\":8112:8118  _roles */\n      dup1\n        /* \"https://github.com/OpenZeppelin/openzeppelin-contracts/blob/v4.9.3/contracts/access/AccessControl.sol\":8112:8124  _roles[role] */\n      0x00\n        /* \"https://github.com/OpenZeppelin/openzeppelin-contracts/blob/v4.9.3/contracts/access/AccessControl.sol\":8119:8123  role */\n      dup5\n        /* \"https://github.com/OpenZeppelin/openzeppelin-contracts/blob/v4.9.3/contracts/access/AccessControl.sol\":8112:8124  _roles[role] */\n      dup2\n      mstore\n      0x20\n      add\n      swap1\n      dup2\n      mstore\n      0x20\n      add\n      0x00\n      keccak256\n        /* \"https://github.com/OpenZeppelin/openzeppelin-contracts/blob/v4.9.3/contracts/access/AccessControl.sol\":8112:8132  _roles[role].members */\n      0x00\n      add\n        /* \"https://github.com/OpenZeppelin/openzeppelin-contracts/blob/v4.9.3/contracts/access/AccessControl.sol\":8112:8141  _roles[role].members[account] */\n      0x00\n        /* \"https://github.com/OpenZeppelin/openzeppelin-contracts/blob/v4.9.3/contracts/access/AccessControl.sol\":8133:8140  account */\n      dup4\n        /* \"https://github.com/OpenZeppelin/openzeppelin-contracts/blob/v4.9.3/contracts/access/AccessControl.sol\":8112:8141  _roles[role].members[account] */\n      0xffffffffffffffffffffffffffffffffffffffff\n      and\n      0xffffffffffffffffffffffffffffffffffffffff\n      and\n      dup2\n      mstore\n      0x20\n      add\n      swap1\n      dup2\n      mstore\n      0x20\n      add\n      0x00\n      keccak256\n      0x00\n        /* \"https://github.com/OpenZeppelin/openzeppelin-contracts/blob/v4.9.3/contracts/access/AccessControl.sol\":8112:8149  _roles[role].members[account] = false */\n      0x0100\n      exp\n      dup2\n      sload\n      dup2\n      0xff\n      mul\n      not\n      and\n      swap1\n      dup4\n      iszero\n      iszero\n      mul\n      or\n      swap1\n      sstore\n      pop\n        /* \"https://github.com/OpenZeppelin/openzeppelin-contracts/blob/v4.9.3/contracts/access/AccessControl.sol\":8195:8207  _msgSender() */\n      tag_258\n        /* \"https://github.com/OpenZeppelin/openzeppelin-contracts/blob/v4.9.3/contracts/access/AccessControl.sol\":8195:8205  _msgSender */\n      tag_176\n        /* \"https://github.com/OpenZeppelin/openzeppelin-contracts/blob/v4.9.3/contracts/access/AccessControl.sol\":8195:8207  _msgSender() */\n      jump\t// in\n    tag_258:\n        /* \"https://github.com/OpenZeppelin/openzeppelin-contracts/blob/v4.9.3/contracts/access/AccessControl.sol\":8168:8208  RoleRevoked(role, account, _msgSender()) */\n      0xffffffffffffffffffffffffffffffffffffffff\n      and\n        /* \"https://github.com/OpenZeppelin/openzeppelin-contracts/blob/v4.9.3/contracts/access/AccessControl.sol\":8186:8193  account */\n      dup2\n        /* \"https://github.com/OpenZeppelin/openzeppelin-contracts/blob/v4.9.3/contracts/access/AccessControl.sol\":8168:8208  RoleRevoked(role, account, _msgSender()) */\n      0xffffffffffffffffffffffffffffffffffffffff\n      and\n        /* \"https://github.com/OpenZeppelin/openzeppelin-contracts/blob/v4.9.3/contracts/access/AccessControl.sol\":8180:8184  role */\n      dup4\n        /* \"https://github.com/OpenZeppelin/openzeppelin-contracts/blob/v4.9.3/contracts/access/AccessControl.sol\":8168:8208  RoleRevoked(role, account, _msgSender()) */\n      0xf6391f5c32d9c69d2a47ea670b442974b53935d1edc7fd64eb21e047a839171b\n      mload(0x40)\n      mload(0x40)\n      dup1\n      swap2\n      sub\n      swap1\n      log4\n        /* \"https://github.com/OpenZeppelin/openzeppelin-contracts/blob/v4.9.3/contracts/access/AccessControl.sol\":8070:8219  if (hasRole(role, account)) {... */\n    tag_257:\n        /* \"https://github.com/OpenZeppelin/openzeppelin-contracts/blob/v4.9.3/contracts/access/AccessControl.sol\":7991:8225  function _revokeRole(bytes32 role, address account) internal virtual {... */\n      pop\n      pop\n      jump\t// out\n        /* \"https://github.com/OpenZeppelin/openzeppelin-contracts/blob/v4.9.3/contracts/access/AccessControl.sol\":3844:4323  function _checkRole(bytes32 role, address account) internal view virtual {... */\n    tag_249:\n        /* \"https://github.com/OpenZeppelin/openzeppelin-contracts/blob/v4.9.3/contracts/access/AccessControl.sol\":3932:3954  hasRole(role, account) */\n      tag_260\n        /* \"https://github.com/OpenZeppelin/openzeppelin-contracts/blob/v4.9.3/contracts/access/AccessControl.sol\":3940:3944  role */\n      dup3\n        /* \"https://github.com/OpenZeppelin/openzeppelin-contracts/blob/v4.9.3/contracts/access/AccessControl.sol\":3946:3953  account */\n      dup3\n        /* \"https://github.com/OpenZeppelin/openzeppelin-contracts/blob/v4.9.3/contracts/access/AccessControl.sol\":3932:3939  hasRole */\n      tag_87\n        /* \"https://github.com/OpenZeppelin/openzeppelin-contracts/blob/v4.9.3/contracts/access/AccessControl.sol\":3932:3954  hasRole(role, account) */\n      jump\t// in\n    tag_260:\n        /* \"https://github.com/OpenZeppelin/openzeppelin-contracts/blob/v4.9.3/contracts/access/AccessControl.sol\":3927:4317  if (!hasRole(role, account)) {... */\n      tag_261\n      jumpi\n        /* \"https://github.com/OpenZeppelin/openzeppelin-contracts/blob/v4.9.3/contracts/access/AccessControl.sol\":4115:4143  Strings.toHexString(account) */\n      tag_262\n        /* \"https://github.com/OpenZeppelin/openzeppelin-contracts/blob/v4.9.3/contracts/access/AccessControl.sol\":4135:4142  account */\n      dup2\n        /* \"https://github.com/OpenZeppelin/openzeppelin-contracts/blob/v4.9.3/contracts/access/AccessControl.sol\":4115:4134  Strings.toHexString */\n      tag_263\n        /* \"https://github.com/OpenZeppelin/openzeppelin-contracts/blob/v4.9.3/contracts/access/AccessControl.sol\":4115:4143  Strings.toHexString(account) */\n      jump\t// in\n    tag_262:\n        /* \"https://github.com/OpenZeppelin/openzeppelin-contracts/blob/v4.9.3/contracts/access/AccessControl.sol\":4214:4252  Strings.toHexString(uint256(role), 32) */\n      tag_264\n        /* \"https://github.com/OpenZeppelin/openzeppelin-contracts/blob/v4.9.3/contracts/access/AccessControl.sol\":4242:4246  role */\n      dup4\n        /* \"https://github.com/OpenZeppelin/openzeppelin-contracts/blob/v4.9.3/contracts/access/AccessControl.sol\":4234:4247  uint256(role) */\n      0x00\n      shr\n        /* \"https://github.com/OpenZeppelin/openzeppelin-contracts/blob/v4.9.3/contracts/access/AccessControl.sol\":4249:4251  32 */\n      0x20\n        /* \"https://github.com/OpenZeppelin/openzeppelin-contracts/blob/v4.9.3/contracts/access/AccessControl.sol\":4214:4233  Strings.toHexString */\n      tag_265\n        /* \"https://github.com/OpenZeppelin/openzeppelin-contracts/blob/v4.9.3/contracts/access/AccessControl.sol\":4214:4252  Strings.toHexString(uint256(role), 32) */\n      jump\t// in\n    tag_264:\n        /* \"https://github.com/OpenZeppelin/openzeppelin-contracts/blob/v4.9.3/contracts/access/AccessControl.sol\":4022:4274  abi.encodePacked(... */\n      add(0x20, mload(0x40))\n      tag_266\n      swap3\n      swap2\n      swap1\n      tag_267\n      jump\t// in\n    tag_266:\n      mload(0x40)\n      0x20\n      dup2\n      dup4\n      sub\n      sub\n      dup2\n      mstore\n      swap1\n      0x40\n      mstore\n        /* \"https://github.com/OpenZeppelin/openzeppelin-contracts/blob/v4.9.3/contracts/access/AccessControl.sol\":3970:4306  revert(... */\n      mload(0x40)\n      0x08c379a000000000000000000000000000000000000000000000000000000000\n      dup2\n      mstore\n      0x04\n      add\n      tag_268\n      swap2\n      swap1\n      tag_269\n      jump\t// in\n    tag_268:\n      mload(0x40)\n      dup1\n      swap2\n      sub\n      swap1\n      revert\n        /* \"https://github.com/OpenZeppelin/openzeppelin-contracts/blob/v4.9.3/contracts/access/AccessControl.sol\":3927:4317  if (!hasRole(role, account)) {... */\n    tag_261:\n        /* \"https://github.com/OpenZeppelin/openzeppelin-contracts/blob/v4.9.3/contracts/access/AccessControl.sol\":3844:4323  function _checkRole(bytes32 role, address account) internal view virtual {... */\n      pop\n      pop\n      jump\t// out\n        /* \"https://github.com/OpenZeppelin/openzeppelin-contracts/blob/v4.9.3/contracts/utils/Strings.sol\":2407:2556  function toHexString(address addr) internal pure returns (string memory) {... */\n    tag_263:\n        /* \"https://github.com/OpenZeppelin/openzeppelin-contracts/blob/v4.9.3/contracts/utils/Strings.sol\":2465:2478  string memory */\n      0x60\n        /* \"https://github.com/OpenZeppelin/openzeppelin-contracts/blob/v4.9.3/contracts/utils/Strings.sol\":2497:2549  toHexString(uint256(uint160(addr)), _ADDRESS_LENGTH) */\n      tag_271\n        /* \"https://github.com/OpenZeppelin/openzeppelin-contracts/blob/v4.9.3/contracts/utils/Strings.sol\":2525:2529  addr */\n      dup3\n        /* \"https://github.com/OpenZeppelin/openzeppelin-contracts/blob/v4.9.3/contracts/utils/Strings.sol\":2509:2531  uint256(uint160(addr)) */\n      0xffffffffffffffffffffffffffffffffffffffff\n      and\n        /* \"https://github.com/OpenZeppelin/openzeppelin-contracts/blob/v4.9.3/contracts/utils/Strings.sol\":343:345  20 */\n      0x14\n        /* \"https://github.com/OpenZeppelin/openzeppelin-contracts/blob/v4.9.3/contracts/utils/Strings.sol\":2497:2549  toHexString(uint256(uint160(addr)), _ADDRESS_LENGTH) */\n      0xff\n      and\n        /* \"https://github.com/OpenZeppelin/openzeppelin-contracts/blob/v4.9.3/contracts/utils/Strings.sol\":2497:2508  toHexString */\n      tag_265\n        /* \"https://github.com/OpenZeppelin/openzeppelin-contracts/blob/v4.9.3/contracts/utils/Strings.sol\":2497:2549  toHexString(uint256(uint160(addr)), _ADDRESS_LENGTH) */\n      jump\t// in\n    tag_271:\n        /* \"https://github.com/OpenZeppelin/openzeppelin-contracts/blob/v4.9.3/contracts/utils/Strings.sol\":2490:2549  return toHexString(uint256(uint160(addr)), _ADDRESS_LENGTH) */\n      swap1\n      pop\n        /* \"https://github.com/OpenZeppelin/openzeppelin-contracts/blob/v4.9.3/contracts/utils/Strings.sol\":2407:2556  function toHexString(address addr) internal pure returns (string memory) {... */\n      swap2\n      swap1\n      pop\n      jump\t// out\n        /* \"https://github.com/OpenZeppelin/openzeppelin-contracts/blob/v4.9.3/contracts/utils/Strings.sol\":1818:2255  function toHexString(uint256 value, uint256 length) internal pure returns (string memory) {... */\n    tag_265:\n        /* \"https://github.com/OpenZeppelin/openzeppelin-contracts/blob/v4.9.3/contracts/utils/Strings.sol\":1893:1906  string memory */\n      0x60\n        /* \"https://github.com/OpenZeppelin/openzeppelin-contracts/blob/v4.9.3/contracts/utils/Strings.sol\":1918:1937  bytes memory buffer */\n      0x00\n        /* \"https://github.com/OpenZeppelin/openzeppelin-contracts/blob/v4.9.3/contracts/utils/Strings.sol\":1963:1964  2 */\n      0x02\n        /* \"https://github.com/OpenZeppelin/openzeppelin-contracts/blob/v4.9.3/contracts/utils/Strings.sol\":1954:1960  length */\n      dup4\n        /* \"https://github.com/OpenZeppelin/openzeppelin-contracts/blob/v4.9.3/contracts/utils/Strings.sol\":1950:1951  2 */\n      0x02\n        /* \"https://github.com/OpenZeppelin/openzeppelin-contracts/blob/v4.9.3/contracts/utils/Strings.sol\":1950:1960  2 * length */\n      tag_273\n      swap2\n      swap1\n      tag_139\n      jump\t// in\n    tag_273:\n        /* \"https://github.com/OpenZeppelin/openzeppelin-contracts/blob/v4.9.3/contracts/utils/Strings.sol\":1950:1964  2 * length + 2 */\n      tag_274\n      swap2\n      swap1\n      tag_144\n      jump\t// in\n    tag_274:\n        /* \"https://github.com/OpenZeppelin/openzeppelin-contracts/blob/v4.9.3/contracts/utils/Strings.sol\":1940:1965  new bytes(2 * length + 2) */\n      0xffffffffffffffff\n      dup2\n      gt\n      iszero\n      tag_275\n      jumpi\n      tag_276\n      tag_277\n      jump\t// in\n    tag_276:\n    tag_275:\n      mload(0x40)\n      swap1\n      dup1\n      dup3\n      mstore\n      dup1\n      0x1f\n      add\n      not(0x1f)\n      and\n      0x20\n      add\n      dup3\n      add\n      0x40\n      mstore\n      dup1\n      iszero\n      tag_278\n      jumpi\n      dup2\n      0x20\n      add\n      0x01\n      dup3\n      mul\n      dup1\n      calldatasize\n      dup4\n      calldatacopy\n      dup1\n      dup3\n      add\n      swap2\n      pop\n      pop\n      swap1\n      pop\n    tag_278:\n      pop\n        /* \"https://github.com/OpenZeppelin/openzeppelin-contracts/blob/v4.9.3/contracts/utils/Strings.sol\":1918:1965  bytes memory buffer = new bytes(2 * length + 2) */\n      swap1\n      pop\n        /* \"https://github.com/OpenZeppelin/openzeppelin-contracts/blob/v4.9.3/contracts/utils/Strings.sol\":1975:1990  buffer[0] = \"0\" */\n      0x3000000000000000000000000000000000000000000000000000000000000000\n        /* \"https://github.com/OpenZeppelin/openzeppelin-contracts/blob/v4.9.3/contracts/utils/Strings.sol\":1975:1981  buffer */\n      dup2\n        /* \"https://github.com/OpenZeppelin/openzeppelin-contracts/blob/v4.9.3/contracts/utils/Strings.sol\":1982:1983  0 */\n      0x00\n        /* \"https://github.com/OpenZeppelin/openzeppelin-contracts/blob/v4.9.3/contracts/utils/Strings.sol\":1975:1984  buffer[0] */\n      dup2\n      mload\n      dup2\n      lt\n      tag_279\n      jumpi\n      tag_280\n      tag_281\n      jump\t// in\n    tag_280:\n    tag_279:\n      0x20\n      add\n      add\n        /* \"https://github.com/OpenZeppelin/openzeppelin-contracts/blob/v4.9.3/contracts/utils/Strings.sol\":1975:1990  buffer[0] = \"0\" */\n      swap1\n      not(0xffffffffffffffffffffffffffffffffffffffffffffffffffffffffffffff)\n      and\n      swap1\n      dup2\n      0x00\n      byte\n      swap1\n      mstore8\n      pop\n        /* \"https://github.com/OpenZeppelin/openzeppelin-contracts/blob/v4.9.3/contracts/utils/Strings.sol\":2000:2015  buffer[1] = \"x\" */\n      0x7800000000000000000000000000000000000000000000000000000000000000\n        /* \"https://github.com/OpenZeppelin/openzeppelin-contracts/blob/v4.9.3/contracts/utils/Strings.sol\":2000:2006  buffer */\n      dup2\n        /* \"https://github.com/OpenZeppelin/openzeppelin-contracts/blob/v4.9.3/contracts/utils/Strings.sol\":2007:2008  1 */\n      0x01\n        /* \"https://github.com/OpenZeppelin/openzeppelin-contracts/blob/v4.9.3/contracts/utils/Strings.sol\":2000:2009  buffer[1] */\n      dup2\n      mload\n      dup2\n      lt\n      tag_282\n      jumpi\n      tag_283\n      tag_281\n      jump\t// in\n    tag_283:\n    tag_282:\n      0x20\n      add\n      add\n        /* \"https://github.com/OpenZeppelin/openzeppelin-contracts/blob/v4.9.3/contracts/utils/Strings.sol\":2000:2015  buffer[1] = \"x\" */\n      swap1\n      not(0xffffffffffffffffffffffffffffffffffffffffffffffffffffffffffffff)\n      and\n      swap1\n      dup2\n      0x00\n      byte\n      swap1\n      mstore8\n      pop\n        /* \"https://github.com/OpenZeppelin/openzeppelin-contracts/blob/v4.9.3/contracts/utils/Strings.sol\":2030:2039  uint256 i */\n      0x00\n        /* \"https://github.com/OpenZeppelin/openzeppelin-contracts/blob/v4.9.3/contracts/utils/Strings.sol\":2055:2056  1 */\n      0x01\n        /* \"https://github.com/OpenZeppelin/openzeppelin-contracts/blob/v4.9.3/contracts/utils/Strings.sol\":2046:2052  length */\n      dup5\n        /* \"https://github.com/OpenZeppelin/openzeppelin-contracts/blob/v4.9.3/contracts/utils/Strings.sol\":2042:2043  2 */\n      0x02\n        /* \"https://github.com/OpenZeppelin/openzeppelin-contracts/blob/v4.9.3/contracts/utils/Strings.sol\":2042:2052  2 * length */\n      tag_287\n      swap2\n      swap1\n      tag_139\n      jump\t// in\n    tag_287:\n        /* \"https://github.com/OpenZeppelin/openzeppelin-contracts/blob/v4.9.3/contracts/utils/Strings.sol\":2042:2056  2 * length + 1 */\n      tag_288\n      swap2\n      swap1\n      tag_144\n      jump\t// in\n    tag_288:\n        /* \"https://github.com/OpenZeppelin/openzeppelin-contracts/blob/v4.9.3/contracts/utils/Strings.sol\":2030:2056  uint256 i = 2 * length + 1 */\n      swap1\n      pop\n        /* \"https://github.com/OpenZeppelin/openzeppelin-contracts/blob/v4.9.3/contracts/utils/Strings.sol\":2025:2153  for (uint256 i = 2 * length + 1; i > 1; --i) {... */\n    tag_284:\n        /* \"https://github.com/OpenZeppelin/openzeppelin-contracts/blob/v4.9.3/contracts/utils/Strings.sol\":2062:2063  1 */\n      0x01\n        /* \"https://github.com/OpenZeppelin/openzeppelin-contracts/blob/v4.9.3/contracts/utils/Strings.sol\":2058:2059  i */\n      dup2\n        /* \"https://github.com/OpenZeppelin/openzeppelin-contracts/blob/v4.9.3/contracts/utils/Strings.sol\":2058:2063  i > 1 */\n      gt\n        /* \"https://github.com/OpenZeppelin/openzeppelin-contracts/blob/v4.9.3/contracts/utils/Strings.sol\":2025:2153  for (uint256 i = 2 * length + 1; i > 1; --i) {... */\n      iszero\n      tag_285\n      jumpi\n        /* \"https://github.com/OpenZeppelin/openzeppelin-contracts/blob/v4.9.3/contracts/utils/Strings.sol\":2096:2104  _SYMBOLS */\n      0x3031323334353637383961626364656600000000000000000000000000000000\n        /* \"https://github.com/OpenZeppelin/openzeppelin-contracts/blob/v4.9.3/contracts/utils/Strings.sol\":2113:2116  0xf */\n      0x0f\n        /* \"https://github.com/OpenZeppelin/openzeppelin-contracts/blob/v4.9.3/contracts/utils/Strings.sol\":2105:2110  value */\n      dup7\n        /* \"https://github.com/OpenZeppelin/openzeppelin-contracts/blob/v4.9.3/contracts/utils/Strings.sol\":2105:2116  value & 0xf */\n      and\n        /* \"https://github.com/OpenZeppelin/openzeppelin-contracts/blob/v4.9.3/contracts/utils/Strings.sol\":2096:2117  _SYMBOLS[value & 0xf] */\n      0x10\n      dup2\n      lt\n      tag_289\n      jumpi\n      tag_290\n      tag_281\n      jump\t// in\n    tag_290:\n    tag_289:\n      byte\n      0xf8\n      shl\n        /* \"https://github.com/OpenZeppelin/openzeppelin-contracts/blob/v4.9.3/contracts/utils/Strings.sol\":2084:2090  buffer */\n      dup3\n        /* \"https://github.com/OpenZeppelin/openzeppelin-contracts/blob/v4.9.3/contracts/utils/Strings.sol\":2091:2092  i */\n      dup3\n        /* \"https://github.com/OpenZeppelin/openzeppelin-contracts/blob/v4.9.3/contracts/utils/Strings.sol\":2084:2093  buffer[i] */\n      dup2\n      mload\n      dup2\n      lt\n      tag_291\n      jumpi\n      tag_292\n      tag_281\n      jump\t// in\n    tag_292:\n    tag_291:\n      0x20\n      add\n      add\n        /* \"https://github.com/OpenZeppelin/openzeppelin-contracts/blob/v4.9.3/contracts/utils/Strings.sol\":2084:2117  buffer[i] = _SYMBOLS[value & 0xf] */\n      swap1\n      not(0xffffffffffffffffffffffffffffffffffffffffffffffffffffffffffffff)\n      and\n      swap1\n      dup2\n      0x00\n      byte\n      swap1\n      mstore8\n      pop\n        /* \"https://github.com/OpenZeppelin/openzeppelin-contracts/blob/v4.9.3/contracts/utils/Strings.sol\":2141:2142  4 */\n      0x04\n        /* \"https://github.com/OpenZeppelin/openzeppelin-contracts/blob/v4.9.3/contracts/utils/Strings.sol\":2131:2142  value >>= 4 */\n      dup6\n      swap1\n      shr\n      swap5\n      pop\n        /* \"https://github.com/OpenZeppelin/openzeppelin-contracts/blob/v4.9.3/contracts/utils/Strings.sol\":2065:2068  --i */\n      dup1\n      tag_293\n      swap1\n      tag_294\n      jump\t// in\n    tag_293:\n      swap1\n      pop\n        /* \"https://github.com/OpenZeppelin/openzeppelin-contracts/blob/v4.9.3/contracts/utils/Strings.sol\":2025:2153  for (uint256 i = 2 * length + 1; i > 1; --i) {... */\n      jump(tag_284)\n    tag_285:\n      pop\n        /* \"https://github.com/OpenZeppelin/openzeppelin-contracts/blob/v4.9.3/contracts/utils/Strings.sol\":2179:2180  0 */\n      0x00\n        /* \"https://github.com/OpenZeppelin/openzeppelin-contracts/blob/v4.9.3/contracts/utils/Strings.sol\":2170:2175  value */\n      dup5\n        /* \"https://github.com/OpenZeppelin/openzeppelin-contracts/blob/v4.9.3/contracts/utils/Strings.sol\":2170:2180  value == 0 */\n      eq\n        /* \"https://github.com/OpenZeppelin/openzeppelin-contracts/blob/v4.9.3/contracts/utils/Strings.sol\":2162:2217  require(value == 0, \"Strings: hex length insufficient\") */\n      tag_295\n      jumpi\n      mload(0x40)\n      0x08c379a000000000000000000000000000000000000000000000000000000000\n      dup2\n      mstore\n      0x04\n      add\n      tag_296\n      swap1\n      tag_297\n      jump\t// in\n    tag_296:\n      mload(0x40)\n      dup1\n      swap2\n      sub\n      swap1\n      revert\n    tag_295:\n        /* \"https://github.com/OpenZeppelin/openzeppelin-contracts/blob/v4.9.3/contracts/utils/Strings.sol\":2241:2247  buffer */\n      dup1\n        /* \"https://github.com/OpenZeppelin/openzeppelin-contracts/blob/v4.9.3/contracts/utils/Strings.sol\":2227:2248  return string(buffer) */\n      swap2\n      pop\n      pop\n        /* \"https://github.com/OpenZeppelin/openzeppelin-contracts/blob/v4.9.3/contracts/utils/Strings.sol\":1818:2255  function toHexString(uint256 value, uint256 length) internal pure returns (string memory) {... */\n      swap3\n      swap2\n      pop\n      pop\n      jump\t// out\n        /* \"#utility.yul\":88:205   */\n    tag_299:\n        /* \"#utility.yul\":197:198   */\n      0x00\n        /* \"#utility.yul\":194:195   */\n      dup1\n        /* \"#utility.yul\":187:199   */\n      revert\n        /* \"#utility.yul\":334:483   */\n    tag_301:\n        /* \"#utility.yul\":370:377   */\n      0x00\n        /* \"#utility.yul\":410:476   */\n      0xffffffff00000000000000000000000000000000000000000000000000000000\n        /* \"#utility.yul\":403:408   */\n      dup3\n        /* \"#utility.yul\":399:477   */\n      and\n        /* \"#utility.yul\":388:477   */\n      swap1\n      pop\n        /* \"#utility.yul\":334:483   */\n      swap2\n      swap1\n      pop\n      jump\t// out\n        /* \"#utility.yul\":489:609   */\n    tag_302:\n        /* \"#utility.yul\":561:584   */\n      tag_379\n        /* \"#utility.yul\":578:583   */\n      dup2\n        /* \"#utility.yul\":561:584   */\n      tag_301\n      jump\t// in\n    tag_379:\n        /* \"#utility.yul\":554:559   */\n      dup2\n        /* \"#utility.yul\":551:585   */\n      eq\n        /* \"#utility.yul\":541:603   */\n      tag_380\n      jumpi\n        /* \"#utility.yul\":599:600   */\n      0x00\n        /* \"#utility.yul\":596:597   */\n      dup1\n        /* \"#utility.yul\":589:601   */\n      revert\n        /* \"#utility.yul\":541:603   */\n    tag_380:\n        /* \"#utility.yul\":489:609   */\n      pop\n      jump\t// out\n        /* \"#utility.yul\":615:752   */\n    tag_303:\n        /* \"#utility.yul\":660:665   */\n      0x00\n        /* \"#utility.yul\":698:704   */\n      dup2\n        /* \"#utility.yul\":685:705   */\n      calldataload\n        /* \"#utility.yul\":676:705   */\n      swap1\n      pop\n        /* \"#utility.yul\":714:746   */\n      tag_382\n        /* \"#utility.yul\":740:745   */\n      dup2\n        /* \"#utility.yul\":714:746   */\n      tag_302\n      jump\t// in\n    tag_382:\n        /* \"#utility.yul\":615:752   */\n      swap3\n      swap2\n      pop\n      pop\n      jump\t// out\n        /* \"#utility.yul\":758:1085   */\n    tag_29:\n        /* \"#utility.yul\":816:822   */\n      0x00\n        /* \"#utility.yul\":865:867   */\n      0x20\n        /* \"#utility.yul\":853:862   */\n      dup3\n        /* \"#utility.yul\":844:851   */\n      dup5\n        /* \"#utility.yul\":840:863   */\n      sub\n        /* \"#utility.yul\":836:868   */\n      slt\n        /* \"#utility.yul\":833:952   */\n      iszero\n      tag_384\n      jumpi\n        /* \"#utility.yul\":871:950   */\n      tag_385\n      tag_299\n      jump\t// in\n    tag_385:\n        /* \"#utility.yul\":833:952   */\n    tag_384:\n        /* \"#utility.yul\":991:992   */\n      0x00\n        /* \"#utility.yul\":1016:1068   */\n      tag_386\n        /* \"#utility.yul\":1060:1067   */\n      dup5\n        /* \"#utility.yul\":1051:1057   */\n      dup3\n        /* \"#utility.yul\":1040:1049   */\n      dup6\n        /* \"#utility.yul\":1036:1058   */\n      add\n        /* \"#utility.yul\":1016:1068   */\n      tag_303\n      jump\t// in\n    tag_386:\n        /* \"#utility.yul\":1006:1068   */\n      swap2\n      pop\n        /* \"#utility.yul\":962:1078   */\n      pop\n        /* \"#utility.yul\":758:1085   */\n      swap3\n      swap2\n      pop\n      pop\n      jump\t// out\n        /* \"#utility.yul\":1091:1181   */\n    tag_304:\n        /* \"#utility.yul\":1125:1132   */\n      0x00\n        /* \"#utility.yul\":1168:1173   */\n      dup2\n        /* \"#utility.yul\":1161:1174   */\n      iszero\n        /* \"#utility.yul\":1154:1175   */\n      iszero\n        /* \"#utility.yul\":1143:1175   */\n      swap1\n      pop\n        /* \"#utility.yul\":1091:1181   */\n      swap2\n      swap1\n      pop\n      jump\t// out\n        /* \"#utility.yul\":1187:1296   */\n    tag_305:\n        /* \"#utility.yul\":1268:1289   */\n      tag_389\n        /* \"#utility.yul\":1283:1288   */\n      dup2\n        /* \"#utility.yul\":1268:1289   */\n      tag_304\n      jump\t// in\n    tag_389:\n        /* \"#utility.yul\":1263:1266   */\n      dup3\n        /* \"#utility.yul\":1256:1290   */\n      mstore\n        /* \"#utility.yul\":1187:1296   */\n      pop\n      pop\n      jump\t// out\n        /* \"#utility.yul\":1302:1512   */\n    tag_32:\n        /* \"#utility.yul\":1389:1393   */\n      0x00\n        /* \"#utility.yul\":1427:1429   */\n      0x20\n        /* \"#utility.yul\":1416:1425   */\n      dup3\n        /* \"#utility.yul\":1412:1430   */\n      add\n        /* \"#utility.yul\":1404:1430   */\n      swap1\n      pop\n        /* \"#utility.yul\":1440:1505   */\n      tag_391\n        /* \"#utility.yul\":1502:1503   */\n      0x00\n        /* \"#utility.yul\":1491:1500   */\n      dup4\n        /* \"#utility.yul\":1487:1504   */\n      add\n        /* \"#utility.yul\":1478:1484   */\n      dup5\n        /* \"#utility.yul\":1440:1505   */\n      tag_305\n      jump\t// in\n    tag_391:\n        /* \"#utility.yul\":1302:1512   */\n      swap3\n      swap2\n      pop\n      pop\n      jump\t// out\n        /* \"#utility.yul\":1518:1595   */\n    tag_306:\n        /* \"#utility.yul\":1555:1562   */\n      0x00\n        /* \"#utility.yul\":1584:1589   */\n      dup2\n        /* \"#utility.yul\":1573:1589   */\n      swap1\n      pop\n        /* \"#utility.yul\":1518:1595   */\n      swap2\n      swap1\n      pop\n      jump\t// out\n        /* \"#utility.yul\":1601:1723   */\n    tag_307:\n        /* \"#utility.yul\":1674:1698   */\n      tag_394\n        /* \"#utility.yul\":1692:1697   */\n      dup2\n        /* \"#utility.yul\":1674:1698   */\n      tag_306\n      jump\t// in\n    tag_394:\n        /* \"#utility.yul\":1667:1672   */\n      dup2\n        /* \"#utility.yul\":1664:1699   */\n      eq\n        /* \"#utility.yul\":1654:1717   */\n      tag_395\n      jumpi\n        /* \"#utility.yul\":1713:1714   */\n      0x00\n        /* \"#utility.yul\":1710:1711   */\n      dup1\n        /* \"#utility.yul\":1703:1715   */\n      revert\n        /* \"#utility.yul\":1654:1717   */\n    tag_395:\n        /* \"#utility.yul\":1601:1723   */\n      pop\n      jump\t// out\n        /* \"#utility.yul\":1729:1868   */\n    tag_308:\n        /* \"#utility.yul\":1775:1780   */\n      0x00\n        /* \"#utility.yul\":1813:1819   */\n      dup2\n        /* \"#utility.yul\":1800:1820   */\n      calldataload\n        /* \"#utility.yul\":1791:1820   */\n      swap1\n      pop\n        /* \"#utility.yul\":1829:1862   */\n      tag_397\n        /* \"#utility.yul\":1856:1861   */\n      dup2\n        /* \"#utility.yul\":1829:1862   */\n      tag_307\n      jump\t// in\n    tag_397:\n        /* \"#utility.yul\":1729:1868   */\n      swap3\n      swap2\n      pop\n      pop\n      jump\t// out\n        /* \"#utility.yul\":1874:2203   */\n    tag_35:\n        /* \"#utility.yul\":1933:1939   */\n      0x00\n        /* \"#utility.yul\":1982:1984   */\n      0x20\n        /* \"#utility.yul\":1970:1979   */\n      dup3\n        /* \"#utility.yul\":1961:1968   */\n      dup5\n        /* \"#utility.yul\":1957:1980   */\n      sub\n        /* \"#utility.yul\":1953:1985   */\n      slt\n        /* \"#utility.yul\":1950:2069   */\n      iszero\n      tag_399\n      jumpi\n        /* \"#utility.yul\":1988:2067   */\n      tag_400\n      tag_299\n      jump\t// in\n    tag_400:\n        /* \"#utility.yul\":1950:2069   */\n    tag_399:\n        /* \"#utility.yul\":2108:2109   */\n      0x00\n        /* \"#utility.yul\":2133:2186   */\n      tag_401\n        /* \"#utility.yul\":2178:2185   */\n      dup5\n        /* \"#utility.yul\":2169:2175   */\n      dup3\n        /* \"#utility.yul\":2158:2167   */\n      dup6\n        /* \"#utility.yul\":2154:2176   */\n      add\n        /* \"#utility.yul\":2133:2186   */\n      tag_308\n      jump\t// in\n    tag_401:\n        /* \"#utility.yul\":2123:2186   */\n      swap2\n      pop\n        /* \"#utility.yul\":2079:2196   */\n      pop\n        /* \"#utility.yul\":1874:2203   */\n      swap3\n      swap2\n      pop\n      pop\n      jump\t// out\n        /* \"#utility.yul\":2209:2327   */\n    tag_309:\n        /* \"#utility.yul\":2296:2320   */\n      tag_403\n        /* \"#utility.yul\":2314:2319   */\n      dup2\n        /* \"#utility.yul\":2296:2320   */\n      tag_306\n      jump\t// in\n    tag_403:\n        /* \"#utility.yul\":2291:2294   */\n      dup3\n        /* \"#utility.yul\":2284:2321   */\n      mstore\n        /* \"#utility.yul\":2209:2327   */\n      pop\n      pop\n      jump\t// out\n        /* \"#utility.yul\":2333:2459   */\n    tag_310:\n        /* \"#utility.yul\":2370:2377   */\n      0x00\n        /* \"#utility.yul\":2410:2452   */\n      0xffffffffffffffffffffffffffffffffffffffff\n        /* \"#utility.yul\":2403:2408   */\n      dup3\n        /* \"#utility.yul\":2399:2453   */\n      and\n        /* \"#utility.yul\":2388:2453   */\n      swap1\n      pop\n        /* \"#utility.yul\":2333:2459   */\n      swap2\n      swap1\n      pop\n      jump\t// out\n        /* \"#utility.yul\":2465:2561   */\n    tag_311:\n        /* \"#utility.yul\":2502:2509   */\n      0x00\n        /* \"#utility.yul\":2531:2555   */\n      tag_406\n        /* \"#utility.yul\":2549:2554   */\n      dup3\n        /* \"#utility.yul\":2531:2555   */\n      tag_310\n      jump\t// in\n    tag_406:\n        /* \"#utility.yul\":2520:2555   */\n      swap1\n      pop\n        /* \"#utility.yul\":2465:2561   */\n      swap2\n      swap1\n      pop\n      jump\t// out\n        /* \"#utility.yul\":2567:2685   */\n    tag_312:\n        /* \"#utility.yul\":2654:2678   */\n      tag_408\n        /* \"#utility.yul\":2672:2677   */\n      dup2\n        /* \"#utility.yul\":2654:2678   */\n      tag_311\n      jump\t// in\n    tag_408:\n        /* \"#utility.yul\":2649:2652   */\n      dup3\n        /* \"#utility.yul\":2642:2679   */\n      mstore\n        /* \"#utility.yul\":2567:2685   */\n      pop\n      pop\n      jump\t// out\n        /* \"#utility.yul\":2691:3121   */\n    tag_38:\n        /* \"#utility.yul\":2834:2838   */\n      0x00\n        /* \"#utility.yul\":2872:2874   */\n      0x60\n        /* \"#utility.yul\":2861:2870   */\n      dup3\n        /* \"#utility.yul\":2857:2875   */\n      add\n        /* \"#utility.yul\":2849:2875   */\n      swap1\n      pop\n        /* \"#utility.yul\":2885:2950   */\n      tag_410\n        /* \"#utility.yul\":2947:2948   */\n      0x00\n        /* \"#utility.yul\":2936:2945   */\n      dup4\n        /* \"#utility.yul\":2932:2949   */\n      add\n        /* \"#utility.yul\":2923:2929   */\n      dup7\n        /* \"#utility.yul\":2885:2950   */\n      tag_305\n      jump\t// in\n    tag_410:\n        /* \"#utility.yul\":2960:3032   */\n      tag_411\n        /* \"#utility.yul\":3028:3030   */\n      0x20\n        /* \"#utility.yul\":3017:3026   */\n      dup4\n        /* \"#utility.yul\":3013:3031   */\n      add\n        /* \"#utility.yul\":3004:3010   */\n      dup6\n        /* \"#utility.yul\":2960:3032   */\n      tag_309\n      jump\t// in\n    tag_411:\n        /* \"#utility.yul\":3042:3114   */\n      tag_412\n        /* \"#utility.yul\":3110:3112   */\n      0x40\n        /* \"#utility.yul\":3099:3108   */\n      dup4\n        /* \"#utility.yul\":3095:3113   */\n      add\n        /* \"#utility.yul\":3086:3092   */\n      dup5\n        /* \"#utility.yul\":3042:3114   */\n      tag_312\n      jump\t// in\n    tag_412:\n        /* \"#utility.yul\":2691:3121   */\n      swap5\n      swap4\n      pop\n      pop\n      pop\n      pop\n      jump\t// out\n        /* \"#utility.yul\":3127:3241   */\n    tag_313:\n        /* \"#utility.yul\":3194:3200   */\n      0x00\n        /* \"#utility.yul\":3228:3233   */\n      dup2\n        /* \"#utility.yul\":3222:3234   */\n      mload\n        /* \"#utility.yul\":3212:3234   */\n      swap1\n      pop\n        /* \"#utility.yul\":3127:3241   */\n      swap2\n      swap1\n      pop\n      jump\t// out\n        /* \"#utility.yul\":3247:3431   */\n    tag_314:\n        /* \"#utility.yul\":3346:3357   */\n      0x00\n        /* \"#utility.yul\":3380:3386   */\n      dup3\n        /* \"#utility.yul\":3375:3378   */\n      dup3\n        /* \"#utility.yul\":3368:3387   */\n      mstore\n        /* \"#utility.yul\":3420:3424   */\n      0x20\n        /* \"#utility.yul\":3415:3418   */\n      dup3\n        /* \"#utility.yul\":3411:3425   */\n      add\n        /* \"#utility.yul\":3396:3425   */\n      swap1\n      pop\n        /* \"#utility.yul\":3247:3431   */\n      swap3\n      swap2\n      pop\n      pop\n      jump\t// out\n        /* \"#utility.yul\":3437:3569   */\n    tag_315:\n        /* \"#utility.yul\":3504:3508   */\n      0x00\n        /* \"#utility.yul\":3527:3530   */\n      dup2\n        /* \"#utility.yul\":3519:3530   */\n      swap1\n      pop\n        /* \"#utility.yul\":3557:3561   */\n      0x20\n        /* \"#utility.yul\":3552:3555   */\n      dup3\n        /* \"#utility.yul\":3548:3562   */\n      add\n        /* \"#utility.yul\":3540:3562   */\n      swap1\n      pop\n        /* \"#utility.yul\":3437:3569   */\n      swap2\n      swap1\n      pop\n      jump\t// out\n        /* \"#utility.yul\":3575:3683   */\n    tag_316:\n        /* \"#utility.yul\":3652:3676   */\n      tag_417\n        /* \"#utility.yul\":3670:3675   */\n      dup2\n        /* \"#utility.yul\":3652:3676   */\n      tag_311\n      jump\t// in\n    tag_417:\n        /* \"#utility.yul\":3647:3650   */\n      dup3\n        /* \"#utility.yul\":3640:3677   */\n      mstore\n        /* \"#utility.yul\":3575:3683   */\n      pop\n      pop\n      jump\t// out\n        /* \"#utility.yul\":3689:3868   */\n    tag_317:\n        /* \"#utility.yul\":3758:3768   */\n      0x00\n        /* \"#utility.yul\":3779:3825   */\n      tag_419\n        /* \"#utility.yul\":3821:3824   */\n      dup4\n        /* \"#utility.yul\":3813:3819   */\n      dup4\n        /* \"#utility.yul\":3779:3825   */\n      tag_316\n      jump\t// in\n    tag_419:\n        /* \"#utility.yul\":3857:3861   */\n      0x20\n        /* \"#utility.yul\":3852:3855   */\n      dup4\n        /* \"#utility.yul\":3848:3862   */\n      add\n        /* \"#utility.yul\":3834:3862   */\n      swap1\n      pop\n        /* \"#utility.yul\":3689:3868   */\n      swap3\n      swap2\n      pop\n      pop\n      jump\t// out\n        /* \"#utility.yul\":3874:3987   */\n    tag_318:\n        /* \"#utility.yul\":3944:3948   */\n      0x00\n        /* \"#utility.yul\":3976:3980   */\n      0x20\n        /* \"#utility.yul\":3971:3974   */\n      dup3\n        /* \"#utility.yul\":3967:3981   */\n      add\n        /* \"#utility.yul\":3959:3981   */\n      swap1\n      pop\n        /* \"#utility.yul\":3874:3987   */\n      swap2\n      swap1\n      pop\n      jump\t// out\n        /* \"#utility.yul\":4023:4755   */\n    tag_319:\n        /* \"#utility.yul\":4142:4145   */\n      0x00\n        /* \"#utility.yul\":4171:4225   */\n      tag_422\n        /* \"#utility.yul\":4219:4224   */\n      dup3\n        /* \"#utility.yul\":4171:4225   */\n      tag_313\n      jump\t// in\n    tag_422:\n        /* \"#utility.yul\":4241:4327   */\n      tag_423\n        /* \"#utility.yul\":4320:4326   */\n      dup2\n        /* \"#utility.yul\":4315:4318   */\n      dup6\n        /* \"#utility.yul\":4241:4327   */\n      tag_314\n      jump\t// in\n    tag_423:\n        /* \"#utility.yul\":4234:4327   */\n      swap4\n      pop\n        /* \"#utility.yul\":4351:4407   */\n      tag_424\n        /* \"#utility.yul\":4401:4406   */\n      dup4\n        /* \"#utility.yul\":4351:4407   */\n      tag_315\n      jump\t// in\n    tag_424:\n        /* \"#utility.yul\":4430:4437   */\n      dup1\n        /* \"#utility.yul\":4461:4462   */\n      0x00\n        /* \"#utility.yul\":4446:4730   */\n    tag_425:\n        /* \"#utility.yul\":4471:4477   */\n      dup4\n        /* \"#utility.yul\":4468:4469   */\n      dup2\n        /* \"#utility.yul\":4465:4478   */\n      lt\n        /* \"#utility.yul\":4446:4730   */\n      iszero\n      tag_427\n      jumpi\n        /* \"#utility.yul\":4547:4553   */\n      dup2\n        /* \"#utility.yul\":4541:4554   */\n      mload\n        /* \"#utility.yul\":4574:4637   */\n      tag_428\n        /* \"#utility.yul\":4633:4636   */\n      dup9\n        /* \"#utility.yul\":4618:4631   */\n      dup3\n        /* \"#utility.yul\":4574:4637   */\n      tag_317\n      jump\t// in\n    tag_428:\n        /* \"#utility.yul\":4567:4637   */\n      swap8\n      pop\n        /* \"#utility.yul\":4660:4720   */\n      tag_429\n        /* \"#utility.yul\":4713:4719   */\n      dup4\n        /* \"#utility.yul\":4660:4720   */\n      tag_318\n      jump\t// in\n    tag_429:\n        /* \"#utility.yul\":4650:4720   */\n      swap3\n      pop\n        /* \"#utility.yul\":4506:4730   */\n      pop\n        /* \"#utility.yul\":4493:4494   */\n      0x01\n        /* \"#utility.yul\":4490:4491   */\n      dup2\n        /* \"#utility.yul\":4486:4495   */\n      add\n        /* \"#utility.yul\":4481:4495   */\n      swap1\n      pop\n        /* \"#utility.yul\":4446:4730   */\n      jump(tag_425)\n    tag_427:\n        /* \"#utility.yul\":4450:4464   */\n      pop\n        /* \"#utility.yul\":4746:4749   */\n      dup6\n        /* \"#utility.yul\":4739:4749   */\n      swap4\n      pop\n        /* \"#utility.yul\":4147:4755   */\n      pop\n      pop\n      pop\n        /* \"#utility.yul\":4023:4755   */\n      swap3\n      swap2\n      pop\n      pop\n      jump\t// out\n        /* \"#utility.yul\":4761:5134   */\n    tag_43:\n        /* \"#utility.yul\":4904:4908   */\n      0x00\n        /* \"#utility.yul\":4942:4944   */\n      0x20\n        /* \"#utility.yul\":4931:4940   */\n      dup3\n        /* \"#utility.yul\":4927:4945   */\n      add\n        /* \"#utility.yul\":4919:4945   */\n      swap1\n      pop\n        /* \"#utility.yul\":4991:5000   */\n      dup2\n        /* \"#utility.yul\":4985:4989   */\n      dup2\n        /* \"#utility.yul\":4981:5001   */\n      sub\n        /* \"#utility.yul\":4977:4978   */\n      0x00\n        /* \"#utility.yul\":4966:4975   */\n      dup4\n        /* \"#utility.yul\":4962:4979   */\n      add\n        /* \"#utility.yul\":4955:5002   */\n      mstore\n        /* \"#utility.yul\":5019:5127   */\n      tag_431\n        /* \"#utility.yul\":5122:5126   */\n      dup2\n        /* \"#utility.yul\":5113:5119   */\n      dup5\n        /* \"#utility.yul\":5019:5127   */\n      tag_319\n      jump\t// in\n    tag_431:\n        /* \"#utility.yul\":5011:5127   */\n      swap1\n      pop\n        /* \"#utility.yul\":4761:5134   */\n      swap3\n      swap2\n      pop\n      pop\n      jump\t// out\n        /* \"#utility.yul\":5140:5217   */\n    tag_320:\n        /* \"#utility.yul\":5177:5184   */\n      0x00\n        /* \"#utility.yul\":5206:5211   */\n      dup2\n        /* \"#utility.yul\":5195:5211   */\n      swap1\n      pop\n        /* \"#utility.yul\":5140:5217   */\n      swap2\n      swap1\n      pop\n      jump\t// out\n        /* \"#utility.yul\":5223:5345   */\n    tag_321:\n        /* \"#utility.yul\":5296:5320   */\n      tag_434\n        /* \"#utility.yul\":5314:5319   */\n      dup2\n        /* \"#utility.yul\":5296:5320   */\n      tag_320\n      jump\t// in\n    tag_434:\n        /* \"#utility.yul\":5289:5294   */\n      dup2\n        /* \"#utility.yul\":5286:5321   */\n      eq\n        /* \"#utility.yul\":5276:5339   */\n      tag_435\n      jumpi\n        /* \"#utility.yul\":5335:5336   */\n      0x00\n        /* \"#utility.yul\":5332:5333   */\n      dup1\n        /* \"#utility.yul\":5325:5337   */\n      revert\n        /* \"#utility.yul\":5276:5339   */\n    tag_435:\n        /* \"#utility.yul\":5223:5345   */\n      pop\n      jump\t// out\n        /* \"#utility.yul\":5351:5490   */\n    tag_322:\n        /* \"#utility.yul\":5397:5402   */\n      0x00\n        /* \"#utility.yul\":5435:5441   */\n      dup2\n        /* \"#utility.yul\":5422:5442   */\n      calldataload\n        /* \"#utility.yul\":5413:5442   */\n      swap1\n      pop\n        /* \"#utility.yul\":5451:5484   */\n      tag_437\n        /* \"#utility.yul\":5478:5483   */\n      dup2\n        /* \"#utility.yul\":5451:5484   */\n      tag_321\n      jump\t// in\n    tag_437:\n        /* \"#utility.yul\":5351:5490   */\n      swap3\n      swap2\n      pop\n      pop\n      jump\t// out\n        /* \"#utility.yul\":5496:5825   */\n    tag_46:\n        /* \"#utility.yul\":5555:5561   */\n      0x00\n        /* \"#utility.yul\":5604:5606   */\n      0x20\n        /* \"#utility.yul\":5592:5601   */\n      dup3\n        /* \"#utility.yul\":5583:5590   */\n      dup5\n        /* \"#utility.yul\":5579:5602   */\n      sub\n        /* \"#utility.yul\":5575:5607   */\n      slt\n        /* \"#utility.yul\":5572:5691   */\n      iszero\n      tag_439\n      jumpi\n        /* \"#utility.yul\":5610:5689   */\n      tag_440\n      tag_299\n      jump\t// in\n    tag_440:\n        /* \"#utility.yul\":5572:5691   */\n    tag_439:\n        /* \"#utility.yul\":5730:5731   */\n      0x00\n        /* \"#utility.yul\":5755:5808   */\n      tag_441\n        /* \"#utility.yul\":5800:5807   */\n      dup5\n        /* \"#utility.yul\":5791:5797   */\n      dup3\n        /* \"#utility.yul\":5780:5789   */\n      dup6\n        /* \"#utility.yul\":5776:5798   */\n      add\n        /* \"#utility.yul\":5755:5808   */\n      tag_322\n      jump\t// in\n    tag_441:\n        /* \"#utility.yul\":5745:5808   */\n      swap2\n      pop\n        /* \"#utility.yul\":5701:5818   */\n      pop\n        /* \"#utility.yul\":5496:5825   */\n      swap3\n      swap2\n      pop\n      pop\n      jump\t// out\n        /* \"#utility.yul\":5831:5949   */\n    tag_323:\n        /* \"#utility.yul\":5918:5942   */\n      tag_443\n        /* \"#utility.yul\":5936:5941   */\n      dup2\n        /* \"#utility.yul\":5918:5942   */\n      tag_320\n      jump\t// in\n    tag_443:\n        /* \"#utility.yul\":5913:5916   */\n      dup3\n        /* \"#utility.yul\":5906:5943   */\n      mstore\n        /* \"#utility.yul\":5831:5949   */\n      pop\n      pop\n      jump\t// out\n        /* \"#utility.yul\":5955:6177   */\n    tag_49:\n        /* \"#utility.yul\":6048:6052   */\n      0x00\n        /* \"#utility.yul\":6086:6088   */\n      0x20\n        /* \"#utility.yul\":6075:6084   */\n      dup3\n        /* \"#utility.yul\":6071:6089   */\n      add\n        /* \"#utility.yul\":6063:6089   */\n      swap1\n      pop\n        /* \"#utility.yul\":6099:6170   */\n      tag_445\n        /* \"#utility.yul\":6167:6168   */\n      0x00\n        /* \"#utility.yul\":6156:6165   */\n      dup4\n        /* \"#utility.yul\":6152:6169   */\n      add\n        /* \"#utility.yul\":6143:6149   */\n      dup5\n        /* \"#utility.yul\":6099:6170   */\n      tag_323\n      jump\t// in\n    tag_445:\n        /* \"#utility.yul\":5955:6177   */\n      swap3\n      swap2\n      pop\n      pop\n      jump\t// out\n        /* \"#utility.yul\":6183:6305   */\n    tag_324:\n        /* \"#utility.yul\":6256:6280   */\n      tag_447\n        /* \"#utility.yul\":6274:6279   */\n      dup2\n        /* \"#utility.yul\":6256:6280   */\n      tag_311\n      jump\t// in\n    tag_447:\n        /* \"#utility.yul\":6249:6254   */\n      dup2\n        /* \"#utility.yul\":6246:6281   */\n      eq\n        /* \"#utility.yul\":6236:6299   */\n      tag_448\n      jumpi\n        /* \"#utility.yul\":6295:6296   */\n      0x00\n        /* \"#utility.yul\":6292:6293   */\n      dup1\n        /* \"#utility.yul\":6285:6297   */\n      revert\n        /* \"#utility.yul\":6236:6299   */\n    tag_448:\n        /* \"#utility.yul\":6183:6305   */\n      pop\n      jump\t// out\n        /* \"#utility.yul\":6311:6450   */\n    tag_325:\n        /* \"#utility.yul\":6357:6362   */\n      0x00\n        /* \"#utility.yul\":6395:6401   */\n      dup2\n        /* \"#utility.yul\":6382:6402   */\n      calldataload\n        /* \"#utility.yul\":6373:6402   */\n      swap1\n      pop\n        /* \"#utility.yul\":6411:6444   */\n      tag_450\n        /* \"#utility.yul\":6438:6443   */\n      dup2\n        /* \"#utility.yul\":6411:6444   */\n      tag_324\n      jump\t// in\n    tag_450:\n        /* \"#utility.yul\":6311:6450   */\n      swap3\n      swap2\n      pop\n      pop\n      jump\t// out\n        /* \"#utility.yul\":6456:6930   */\n    tag_52:\n        /* \"#utility.yul\":6524:6530   */\n      0x00\n        /* \"#utility.yul\":6532:6538   */\n      dup1\n        /* \"#utility.yul\":6581:6583   */\n      0x40\n        /* \"#utility.yul\":6569:6578   */\n      dup4\n        /* \"#utility.yul\":6560:6567   */\n      dup6\n        /* \"#utility.yul\":6556:6579   */\n      sub\n        /* \"#utility.yul\":6552:6584   */\n      slt\n        /* \"#utility.yul\":6549:6668   */\n      iszero\n      tag_452\n      jumpi\n        /* \"#utility.yul\":6587:6666   */\n      tag_453\n      tag_299\n      jump\t// in\n    tag_453:\n        /* \"#utility.yul\":6549:6668   */\n    tag_452:\n        /* \"#utility.yul\":6707:6708   */\n      0x00\n        /* \"#utility.yul\":6732:6785   */\n      tag_454\n        /* \"#utility.yul\":6777:6784   */\n      dup6\n        /* \"#utility.yul\":6768:6774   */\n      dup3\n        /* \"#utility.yul\":6757:6766   */\n      dup7\n        /* \"#utility.yul\":6753:6775   */\n      add\n        /* \"#utility.yul\":6732:6785   */\n      tag_308\n      jump\t// in\n    tag_454:\n        /* \"#utility.yul\":6722:6785   */\n      swap3\n      pop\n        /* \"#utility.yul\":6678:6795   */\n      pop\n        /* \"#utility.yul\":6834:6836   */\n      0x20\n        /* \"#utility.yul\":6860:6913   */\n      tag_455\n        /* \"#utility.yul\":6905:6912   */\n      dup6\n        /* \"#utility.yul\":6896:6902   */\n      dup3\n        /* \"#utility.yul\":6885:6894   */\n      dup7\n        /* \"#utility.yul\":6881:6903   */\n      add\n        /* \"#utility.yul\":6860:6913   */\n      tag_325\n      jump\t// in\n    tag_455:\n        /* \"#utility.yul\":6850:6913   */\n      swap2\n      pop\n        /* \"#utility.yul\":6805:6923   */\n      pop\n        /* \"#utility.yul\":6456:6930   */\n      swap3\n      pop\n      swap3\n      swap1\n      pop\n      jump\t// out\n        /* \"#utility.yul\":6936:7158   */\n    tag_55:\n        /* \"#utility.yul\":7029:7033   */\n      0x00\n        /* \"#utility.yul\":7067:7069   */\n      0x20\n        /* \"#utility.yul\":7056:7065   */\n      dup3\n        /* \"#utility.yul\":7052:7070   */\n      add\n        /* \"#utility.yul\":7044:7070   */\n      swap1\n      pop\n        /* \"#utility.yul\":7080:7151   */\n      tag_457\n        /* \"#utility.yul\":7148:7149   */\n      0x00\n        /* \"#utility.yul\":7137:7146   */\n      dup4\n        /* \"#utility.yul\":7133:7150   */\n      add\n        /* \"#utility.yul\":7124:7130   */\n      dup5\n        /* \"#utility.yul\":7080:7151   */\n      tag_309\n      jump\t// in\n    tag_457:\n        /* \"#utility.yul\":6936:7158   */\n      swap3\n      swap2\n      pop\n      pop\n      jump\t// out\n        /* \"#utility.yul\":7164:7638   */\n    tag_58:\n        /* \"#utility.yul\":7232:7238   */\n      0x00\n        /* \"#utility.yul\":7240:7246   */\n      dup1\n        /* \"#utility.yul\":7289:7291   */\n      0x40\n        /* \"#utility.yul\":7277:7286   */\n      dup4\n        /* \"#utility.yul\":7268:7275   */\n      dup6\n        /* \"#utility.yul\":7264:7287   */\n      sub\n        /* \"#utility.yul\":7260:7292   */\n      slt\n        /* \"#utility.yul\":7257:7376   */\n      iszero\n      tag_459\n      jumpi\n        /* \"#utility.yul\":7295:7374   */\n      tag_460\n      tag_299\n      jump\t// in\n    tag_460:\n        /* \"#utility.yul\":7257:7376   */\n    tag_459:\n        /* \"#utility.yul\":7415:7416   */\n      0x00\n        /* \"#utility.yul\":7440:7493   */\n      tag_461\n        /* \"#utility.yul\":7485:7492   */\n      dup6\n        /* \"#utility.yul\":7476:7482   */\n      dup3\n        /* \"#utility.yul\":7465:7474   */\n      dup7\n        /* \"#utility.yul\":7461:7483   */\n      add\n        /* \"#utility.yul\":7440:7493   */\n      tag_322\n      jump\t// in\n    tag_461:\n        /* \"#utility.yul\":7430:7493   */\n      swap3\n      pop\n        /* \"#utility.yul\":7386:7503   */\n      pop\n        /* \"#utility.yul\":7542:7544   */\n      0x20\n        /* \"#utility.yul\":7568:7621   */\n      tag_462\n        /* \"#utility.yul\":7613:7620   */\n      dup6\n        /* \"#utility.yul\":7604:7610   */\n      dup3\n        /* \"#utility.yul\":7593:7602   */\n      dup7\n        /* \"#utility.yul\":7589:7611   */\n      add\n        /* \"#utility.yul\":7568:7621   */\n      tag_325\n      jump\t// in\n    tag_462:\n        /* \"#utility.yul\":7558:7621   */\n      swap2\n      pop\n        /* \"#utility.yul\":7513:7631   */\n      pop\n        /* \"#utility.yul\":7164:7638   */\n      swap3\n      pop\n      swap3\n      swap1\n      pop\n      jump\t// out\n        /* \"#utility.yul\":7644:7866   */\n    tag_73:\n        /* \"#utility.yul\":7737:7741   */\n      0x00\n        /* \"#utility.yul\":7775:7777   */\n      0x20\n        /* \"#utility.yul\":7764:7773   */\n      dup3\n        /* \"#utility.yul\":7760:7778   */\n      add\n        /* \"#utility.yul\":7752:7778   */\n      swap1\n      pop\n        /* \"#utility.yul\":7788:7859   */\n      tag_464\n        /* \"#utility.yul\":7856:7857   */\n      0x00\n        /* \"#utility.yul\":7845:7854   */\n      dup4\n        /* \"#utility.yul\":7841:7858   */\n      add\n        /* \"#utility.yul\":7832:7838   */\n      dup5\n        /* \"#utility.yul\":7788:7859   */\n      tag_312\n      jump\t// in\n    tag_464:\n        /* \"#utility.yul\":7644:7866   */\n      swap3\n      swap2\n      pop\n      pop\n      jump\t// out\n        /* \"#utility.yul\":7872:8346   */\n    tag_76:\n        /* \"#utility.yul\":7940:7946   */\n      0x00\n        /* \"#utility.yul\":7948:7954   */\n      dup1\n        /* \"#utility.yul\":7997:7999   */\n      0x40\n        /* \"#utility.yul\":7985:7994   */\n      dup4\n        /* \"#utility.yul\":7976:7983   */\n      dup6\n        /* \"#utility.yul\":7972:7995   */\n      sub\n        /* \"#utility.yul\":7968:8000   */\n      slt\n        /* \"#utility.yul\":7965:8084   */\n      iszero\n      tag_466\n      jumpi\n        /* \"#utility.yul\":8003:8082   */\n      tag_467\n      tag_299\n      jump\t// in\n    tag_467:\n        /* \"#utility.yul\":7965:8084   */\n    tag_466:\n        /* \"#utility.yul\":8123:8124   */\n      0x00\n        /* \"#utility.yul\":8148:8201   */\n      tag_468\n        /* \"#utility.yul\":8193:8200   */\n      dup6\n        /* \"#utility.yul\":8184:8190   */\n      dup3\n        /* \"#utility.yul\":8173:8182   */\n      dup7\n        /* \"#utility.yul\":8169:8191   */\n      add\n        /* \"#utility.yul\":8148:8201   */\n      tag_308\n      jump\t// in\n    tag_468:\n        /* \"#utility.yul\":8138:8201   */\n      swap3\n      pop\n        /* \"#utility.yul\":8094:8211   */\n      pop\n        /* \"#utility.yul\":8250:8252   */\n      0x20\n        /* \"#utility.yul\":8276:8329   */\n      tag_469\n        /* \"#utility.yul\":8321:8328   */\n      dup6\n        /* \"#utility.yul\":8312:8318   */\n      dup3\n        /* \"#utility.yul\":8301:8310   */\n      dup7\n        /* \"#utility.yul\":8297:8319   */\n      add\n        /* \"#utility.yul\":8276:8329   */\n      tag_308\n      jump\t// in\n    tag_469:\n        /* \"#utility.yul\":8266:8329   */\n      swap2\n      pop\n        /* \"#utility.yul\":8221:8339   */\n      pop\n        /* \"#utility.yul\":7872:8346   */\n      swap3\n      pop\n      swap3\n      swap1\n      pop\n      jump\t// out\n        /* \"#utility.yul\":8352:8466   */\n    tag_326:\n        /* \"#utility.yul\":8419:8425   */\n      0x00\n        /* \"#utility.yul\":8453:8458   */\n      dup2\n        /* \"#utility.yul\":8447:8459   */\n      mload\n        /* \"#utility.yul\":8437:8459   */\n      swap1\n      pop\n        /* \"#utility.yul\":8352:8466   */\n      swap2\n      swap1\n      pop\n      jump\t// out\n        /* \"#utility.yul\":8472:8656   */\n    tag_327:\n        /* \"#utility.yul\":8571:8582   */\n      0x00\n        /* \"#utility.yul\":8605:8611   */\n      dup3\n        /* \"#utility.yul\":8600:8603   */\n      dup3\n        /* \"#utility.yul\":8593:8612   */\n      mstore\n        /* \"#utility.yul\":8645:8649   */\n      0x20\n        /* \"#utility.yul\":8640:8643   */\n      dup3\n        /* \"#utility.yul\":8636:8650   */\n      add\n        /* \"#utility.yul\":8621:8650   */\n      swap1\n      pop\n        /* \"#utility.yul\":8472:8656   */\n      swap3\n      swap2\n      pop\n      pop\n      jump\t// out\n        /* \"#utility.yul\":8662:8794   */\n    tag_328:\n        /* \"#utility.yul\":8729:8733   */\n      0x00\n        /* \"#utility.yul\":8752:8755   */\n      dup2\n        /* \"#utility.yul\":8744:8755   */\n      swap1\n      pop\n        /* \"#utility.yul\":8782:8786   */\n      0x20\n        /* \"#utility.yul\":8777:8780   */\n      dup3\n        /* \"#utility.yul\":8773:8787   */\n      add\n        /* \"#utility.yul\":8765:8787   */\n      swap1\n      pop\n        /* \"#utility.yul\":8662:8794   */\n      swap2\n      swap1\n      pop\n      jump\t// out\n        /* \"#utility.yul\":8800:8908   */\n    tag_329:\n        /* \"#utility.yul\":8877:8901   */\n      tag_474\n        /* \"#utility.yul\":8895:8900   */\n      dup2\n        /* \"#utility.yul\":8877:8901   */\n      tag_306\n      jump\t// in\n    tag_474:\n        /* \"#utility.yul\":8872:8875   */\n      dup3\n        /* \"#utility.yul\":8865:8902   */\n      mstore\n        /* \"#utility.yul\":8800:8908   */\n      pop\n      pop\n      jump\t// out\n        /* \"#utility.yul\":8914:9093   */\n    tag_330:\n        /* \"#utility.yul\":8983:8993   */\n      0x00\n        /* \"#utility.yul\":9004:9050   */\n      tag_476\n        /* \"#utility.yul\":9046:9049   */\n      dup4\n        /* \"#utility.yul\":9038:9044   */\n      dup4\n        /* \"#utility.yul\":9004:9050   */\n      tag_329\n      jump\t// in\n    tag_476:\n        /* \"#utility.yul\":9082:9086   */\n      0x20\n        /* \"#utility.yul\":9077:9080   */\n      dup4\n        /* \"#utility.yul\":9073:9087   */\n      add\n        /* \"#utility.yul\":9059:9087   */\n      swap1\n      pop\n        /* \"#utility.yul\":8914:9093   */\n      swap3\n      swap2\n      pop\n      pop\n      jump\t// out\n        /* \"#utility.yul\":9099:9212   */\n    tag_331:\n        /* \"#utility.yul\":9169:9173   */\n      0x00\n        /* \"#utility.yul\":9201:9205   */\n      0x20\n        /* \"#utility.yul\":9196:9199   */\n      dup3\n        /* \"#utility.yul\":9192:9206   */\n      add\n        /* \"#utility.yul\":9184:9206   */\n      swap1\n      pop\n        /* \"#utility.yul\":9099:9212   */\n      swap2\n      swap1\n      pop\n      jump\t// out\n        /* \"#utility.yul\":9248:9980   */\n    tag_332:\n        /* \"#utility.yul\":9367:9370   */\n      0x00\n        /* \"#utility.yul\":9396:9450   */\n      tag_479\n        /* \"#utility.yul\":9444:9449   */\n      dup3\n        /* \"#utility.yul\":9396:9450   */\n      tag_326\n      jump\t// in\n    tag_479:\n        /* \"#utility.yul\":9466:9552   */\n      tag_480\n        /* \"#utility.yul\":9545:9551   */\n      dup2\n        /* \"#utility.yul\":9540:9543   */\n      dup6\n        /* \"#utility.yul\":9466:9552   */\n      tag_327\n      jump\t// in\n    tag_480:\n        /* \"#utility.yul\":9459:9552   */\n      swap4\n      pop\n        /* \"#utility.yul\":9576:9632   */\n      tag_481\n        /* \"#utility.yul\":9626:9631   */\n      dup4\n        /* \"#utility.yul\":9576:9632   */\n      tag_328\n      jump\t// in\n    tag_481:\n        /* \"#utility.yul\":9655:9662   */\n      dup1\n        /* \"#utility.yul\":9686:9687   */\n      0x00\n        /* \"#utility.yul\":9671:9955   */\n    tag_482:\n        /* \"#utility.yul\":9696:9702   */\n      dup4\n        /* \"#utility.yul\":9693:9694   */\n      dup2\n        /* \"#utility.yul\":9690:9703   */\n      lt\n        /* \"#utility.yul\":9671:9955   */\n      iszero\n      tag_484\n      jumpi\n        /* \"#utility.yul\":9772:9778   */\n      dup2\n        /* \"#utility.yul\":9766:9779   */\n      mload\n        /* \"#utility.yul\":9799:9862   */\n      tag_485\n        /* \"#utility.yul\":9858:9861   */\n      dup9\n        /* \"#utility.yul\":9843:9856   */\n      dup3\n        /* \"#utility.yul\":9799:9862   */\n      tag_330\n      jump\t// in\n    tag_485:\n        /* \"#utility.yul\":9792:9862   */\n      swap8\n      pop\n        /* \"#utility.yul\":9885:9945   */\n      tag_486\n        /* \"#utility.yul\":9938:9944   */\n      dup4\n        /* \"#utility.yul\":9885:9945   */\n      tag_331\n      jump\t// in\n    tag_486:\n        /* \"#utility.yul\":9875:9945   */\n      swap3\n      pop\n        /* \"#utility.yul\":9731:9955   */\n      pop\n        /* \"#utility.yul\":9718:9719   */\n      0x01\n        /* \"#utility.yul\":9715:9716   */\n      dup2\n        /* \"#utility.yul\":9711:9720   */\n      add\n        /* \"#utility.yul\":9706:9720   */\n      swap1\n      pop\n        /* \"#utility.yul\":9671:9955   */\n      jump(tag_482)\n    tag_484:\n        /* \"#utility.yul\":9675:9689   */\n      pop\n        /* \"#utility.yul\":9971:9974   */\n      dup6\n        /* \"#utility.yul\":9964:9974   */\n      swap4\n      pop\n        /* \"#utility.yul\":9372:9980   */\n      pop\n      pop\n      pop\n        /* \"#utility.yul\":9248:9980   */\n      swap3\n      swap2\n      pop\n      pop\n      jump\t// out\n        /* \"#utility.yul\":9986:10359   */\n    tag_92:\n        /* \"#utility.yul\":10129:10133   */\n      0x00\n        /* \"#utility.yul\":10167:10169   */\n      0x20\n        /* \"#utility.yul\":10156:10165   */\n      dup3\n        /* \"#utility.yul\":10152:10170   */\n      add\n        /* \"#utility.yul\":10144:10170   */\n      swap1\n      pop\n        /* \"#utility.yul\":10216:10225   */\n      dup2\n        /* \"#utility.yul\":10210:10214   */\n      dup2\n        /* \"#utility.yul\":10206:10226   */\n      sub\n        /* \"#utility.yul\":10202:10203   */\n      0x00\n        /* \"#utility.yul\":10191:10200   */\n      dup4\n        /* \"#utility.yul\":10187:10204   */\n      add\n        /* \"#utility.yul\":10180:10227   */\n      mstore\n        /* \"#utility.yul\":10244:10352   */\n      tag_488\n        /* \"#utility.yul\":10347:10351   */\n      dup2\n        /* \"#utility.yul\":10338:10344   */\n      dup5\n        /* \"#utility.yul\":10244:10352   */\n      tag_332\n      jump\t// in\n    tag_488:\n        /* \"#utility.yul\":10236:10352   */\n      swap1\n      pop\n        /* \"#utility.yul\":9986:10359   */\n      swap3\n      swap2\n      pop\n      pop\n      jump\t// out\n        /* \"#utility.yul\":10365:10694   */\n    tag_113:\n        /* \"#utility.yul\":10424:10430   */\n      0x00\n        /* \"#utility.yul\":10473:10475   */\n      0x20\n        /* \"#utility.yul\":10461:10470   */\n      dup3\n        /* \"#utility.yul\":10452:10459   */\n      dup5\n        /* \"#utility.yul\":10448:10471   */\n      sub\n        /* \"#utility.yul\":10444:10476   */\n      slt\n        /* \"#utility.yul\":10441:10560   */\n      iszero\n      tag_490\n      jumpi\n        /* \"#utility.yul\":10479:10558   */\n      tag_491\n      tag_299\n      jump\t// in\n    tag_491:\n        /* \"#utility.yul\":10441:10560   */\n    tag_490:\n        /* \"#utility.yul\":10599:10600   */\n      0x00\n        /* \"#utility.yul\":10624:10677   */\n      tag_492\n        /* \"#utility.yul\":10669:10676   */\n      dup5\n        /* \"#utility.yul\":10660:10666   */\n      dup3\n        /* \"#utility.yul\":10649:10658   */\n      dup6\n        /* \"#utility.yul\":10645:10667   */\n      add\n        /* \"#utility.yul\":10624:10677   */\n      tag_325\n      jump\t// in\n    tag_492:\n        /* \"#utility.yul\":10614:10677   */\n      swap2\n      pop\n        /* \"#utility.yul\":10570:10687   */\n      pop\n        /* \"#utility.yul\":10365:10694   */\n      swap3\n      swap2\n      pop\n      pop\n      jump\t// out\n        /* \"#utility.yul\":10700:10869   */\n    tag_333:\n        /* \"#utility.yul\":10784:10795   */\n      0x00\n        /* \"#utility.yul\":10818:10824   */\n      dup3\n        /* \"#utility.yul\":10813:10816   */\n      dup3\n        /* \"#utility.yul\":10806:10825   */\n      mstore\n        /* \"#utility.yul\":10858:10862   */\n      0x20\n        /* \"#utility.yul\":10853:10856   */\n      dup3\n        /* \"#utility.yul\":10849:10863   */\n      add\n        /* \"#utility.yul\":10834:10863   */\n      swap1\n      pop\n        /* \"#utility.yul\":10700:10869   */\n      swap3\n      swap2\n      pop\n      pop\n      jump\t// out\n        /* \"#utility.yul\":10875:11041   */\n    tag_334:\n        /* \"#utility.yul\":11015:11033   */\n      0x47616d6520496e697469616c697a656400000000000000000000000000000000\n        /* \"#utility.yul\":11011:11012   */\n      0x00\n        /* \"#utility.yul\":11003:11009   */\n      dup3\n        /* \"#utility.yul\":10999:11013   */\n      add\n        /* \"#utility.yul\":10992:11034   */\n      mstore\n        /* \"#utility.yul\":10875:11041   */\n      pop\n      jump\t// out\n        /* \"#utility.yul\":11047:11413   */\n    tag_335:\n        /* \"#utility.yul\":11189:11192   */\n      0x00\n        /* \"#utility.yul\":11210:11277   */\n      tag_496\n        /* \"#utility.yul\":11274:11276   */\n      0x10\n        /* \"#utility.yul\":11269:11272   */\n      dup4\n        /* \"#utility.yul\":11210:11277   */\n      tag_333\n      jump\t// in\n    tag_496:\n        /* \"#utility.yul\":11203:11277   */\n      swap2\n      pop\n        /* \"#utility.yul\":11286:11379   */\n      tag_497\n        /* \"#utility.yul\":11375:11378   */\n      dup3\n        /* \"#utility.yul\":11286:11379   */\n      tag_334\n      jump\t// in\n    tag_497:\n        /* \"#utility.yul\":11404:11406   */\n      0x20\n        /* \"#utility.yul\":11399:11402   */\n      dup3\n        /* \"#utility.yul\":11395:11407   */\n      add\n        /* \"#utility.yul\":11388:11407   */\n      swap1\n      pop\n        /* \"#utility.yul\":11047:11413   */\n      swap2\n      swap1\n      pop\n      jump\t// out\n        /* \"#utility.yul\":11419:11838   */\n    tag_123:\n        /* \"#utility.yul\":11585:11589   */\n      0x00\n        /* \"#utility.yul\":11623:11625   */\n      0x20\n        /* \"#utility.yul\":11612:11621   */\n      dup3\n        /* \"#utility.yul\":11608:11626   */\n      add\n        /* \"#utility.yul\":11600:11626   */\n      swap1\n      pop\n        /* \"#utility.yul\":11672:11681   */\n      dup2\n        /* \"#utility.yul\":11666:11670   */\n      dup2\n        /* \"#utility.yul\":11662:11682   */\n      sub\n        /* \"#utility.yul\":11658:11659   */\n      0x00\n        /* \"#utility.yul\":11647:11656   */\n      dup4\n        /* \"#utility.yul\":11643:11660   */\n      add\n        /* \"#utility.yul\":11636:11683   */\n      mstore\n        /* \"#utility.yul\":11700:11831   */\n      tag_499\n        /* \"#utility.yul\":11826:11830   */\n      dup2\n        /* \"#utility.yul\":11700:11831   */\n      tag_335\n      jump\t// in\n    tag_499:\n        /* \"#utility.yul\":11692:11831   */\n      swap1\n      pop\n        /* \"#utility.yul\":11419:11838   */\n      swap2\n      swap1\n      pop\n      jump\t// out\n        /* \"#utility.yul\":11844:12002   */\n    tag_336:\n        /* \"#utility.yul\":11984:11994   */\n      0x46696e6973686564000000000000000000000000000000000000000000000000\n        /* \"#utility.yul\":11980:11981   */\n      0x00\n        /* \"#utility.yul\":11972:11978   */\n      dup3\n        /* \"#utility.yul\":11968:11982   */\n      add\n        /* \"#utility.yul\":11961:11995   */\n      mstore\n        /* \"#utility.yul\":11844:12002   */\n      pop\n      jump\t// out\n        /* \"#utility.yul\":12008:12373   */\n    tag_337:\n        /* \"#utility.yul\":12150:12153   */\n      0x00\n        /* \"#utility.yul\":12171:12237   */\n      tag_502\n        /* \"#utility.yul\":12235:12236   */\n      0x08\n        /* \"#utility.yul\":12230:12233   */\n      dup4\n        /* \"#utility.yul\":12171:12237   */\n      tag_333\n      jump\t// in\n    tag_502:\n        /* \"#utility.yul\":12164:12237   */\n      swap2\n      pop\n        /* \"#utility.yul\":12246:12339   */\n      tag_503\n        /* \"#utility.yul\":12335:12338   */\n      dup3\n        /* \"#utility.yul\":12246:12339   */\n      tag_336\n      jump\t// in\n    tag_503:\n        /* \"#utility.yul\":12364:12366   */\n      0x20\n        /* \"#utility.yul\":12359:12362   */\n      dup3\n        /* \"#utility.yul\":12355:12367   */\n      add\n        /* \"#utility.yul\":12348:12367   */\n      swap1\n      pop\n        /* \"#utility.yul\":12008:12373   */\n      swap2\n      swap1\n      pop\n      jump\t// out\n        /* \"#utility.yul\":12379:12798   */\n    tag_135:\n        /* \"#utility.yul\":12545:12549   */\n      0x00\n        /* \"#utility.yul\":12583:12585   */\n      0x20\n        /* \"#utility.yul\":12572:12581   */\n      dup3\n        /* \"#utility.yul\":12568:12586   */\n      add\n        /* \"#utility.yul\":12560:12586   */\n      swap1\n      pop\n        /* \"#utility.yul\":12632:12641   */\n      dup2\n        /* \"#utility.yul\":12626:12630   */\n      dup2\n        /* \"#utility.yul\":12622:12642   */\n      sub\n        /* \"#utility.yul\":12618:12619   */\n      0x00\n        /* \"#utility.yul\":12607:12616   */\n      dup4\n        /* \"#utility.yul\":12603:12620   */\n      add\n        /* \"#utility.yul\":12596:12643   */\n      mstore\n        /* \"#utility.yul\":12660:12791   */\n      tag_505\n        /* \"#utility.yul\":12786:12790   */\n      dup2\n        /* \"#utility.yul\":12660:12791   */\n      tag_337\n      jump\t// in\n    tag_505:\n        /* \"#utility.yul\":12652:12791   */\n      swap1\n      pop\n        /* \"#utility.yul\":12379:12798   */\n      swap2\n      swap1\n      pop\n      jump\t// out\n        /* \"#utility.yul\":12804:12984   */\n    tag_338:\n        /* \"#utility.yul\":12852:12929   */\n      0x4e487b7100000000000000000000000000000000000000000000000000000000\n        /* \"#utility.yul\":12849:12850   */\n      0x00\n        /* \"#utility.yul\":12842:12930   */\n      mstore\n        /* \"#utility.yul\":12949:12953   */\n      0x11\n        /* \"#utility.yul\":12946:12947   */\n      0x04\n        /* \"#utility.yul\":12939:12954   */\n      mstore\n        /* \"#utility.yul\":12973:12977   */\n      0x24\n        /* \"#utility.yul\":12970:12971   */\n      0x00\n        /* \"#utility.yul\":12963:12978   */\n      revert\n        /* \"#utility.yul\":12990:13184   */\n    tag_137:\n        /* \"#utility.yul\":13030:13034   */\n      0x00\n        /* \"#utility.yul\":13050:13070   */\n      tag_508\n        /* \"#utility.yul\":13068:13069   */\n      dup3\n        /* \"#utility.yul\":13050:13070   */\n      tag_306\n      jump\t// in\n    tag_508:\n        /* \"#utility.yul\":13045:13070   */\n      swap2\n      pop\n        /* \"#utility.yul\":13084:13104   */\n      tag_509\n        /* \"#utility.yul\":13102:13103   */\n      dup4\n        /* \"#utility.yul\":13084:13104   */\n      tag_306\n      jump\t// in\n    tag_509:\n        /* \"#utility.yul\":13079:13104   */\n      swap3\n      pop\n        /* \"#utility.yul\":13128:13129   */\n      dup3\n        /* \"#utility.yul\":13125:13126   */\n      dup3\n        /* \"#utility.yul\":13121:13130   */\n      sub\n        /* \"#utility.yul\":13113:13130   */\n      swap1\n      pop\n        /* \"#utility.yul\":13152:13153   */\n      dup2\n        /* \"#utility.yul\":13146:13150   */\n      dup2\n        /* \"#utility.yul\":13143:13154   */\n      gt\n        /* \"#utility.yul\":13140:13177   */\n      iszero\n      tag_510\n      jumpi\n        /* \"#utility.yul\":13157:13175   */\n      tag_511\n      tag_338\n      jump\t// in\n    tag_511:\n        /* \"#utility.yul\":13140:13177   */\n    tag_510:\n        /* \"#utility.yul\":12990:13184   */\n      swap3\n      swap2\n      pop\n      pop\n      jump\t// out\n        /* \"#utility.yul\":13190:13600   */\n    tag_139:\n        /* \"#utility.yul\":13230:13237   */\n      0x00\n        /* \"#utility.yul\":13253:13273   */\n      tag_513\n        /* \"#utility.yul\":13271:13272   */\n      dup3\n        /* \"#utility.yul\":13253:13273   */\n      tag_306\n      jump\t// in\n    tag_513:\n        /* \"#utility.yul\":13248:13273   */\n      swap2\n      pop\n        /* \"#utility.yul\":13287:13307   */\n      tag_514\n        /* \"#utility.yul\":13305:13306   */\n      dup4\n        /* \"#utility.yul\":13287:13307   */\n      tag_306\n      jump\t// in\n    tag_514:\n        /* \"#utility.yul\":13282:13307   */\n      swap3\n      pop\n        /* \"#utility.yul\":13342:13343   */\n      dup3\n        /* \"#utility.yul\":13339:13340   */\n      dup3\n        /* \"#utility.yul\":13335:13344   */\n      mul\n        /* \"#utility.yul\":13364:13394   */\n      tag_515\n        /* \"#utility.yul\":13382:13393   */\n      dup2\n        /* \"#utility.yul\":13364:13394   */\n      tag_306\n      jump\t// in\n    tag_515:\n        /* \"#utility.yul\":13353:13394   */\n      swap2\n      pop\n        /* \"#utility.yul\":13543:13544   */\n      dup3\n        /* \"#utility.yul\":13534:13541   */\n      dup3\n        /* \"#utility.yul\":13530:13545   */\n      div\n        /* \"#utility.yul\":13527:13528   */\n      dup5\n        /* \"#utility.yul\":13524:13546   */\n      eq\n        /* \"#utility.yul\":13504:13505   */\n      dup4\n        /* \"#utility.yul\":13497:13506   */\n      iszero\n        /* \"#utility.yul\":13477:13560   */\n      or\n        /* \"#utility.yul\":13454:13593   */\n      tag_516\n      jumpi\n        /* \"#utility.yul\":13573:13591   */\n      tag_517\n      tag_338\n      jump\t// in\n    tag_517:\n        /* \"#utility.yul\":13454:13593   */\n    tag_516:\n        /* \"#utility.yul\":13238:13600   */\n      pop\n        /* \"#utility.yul\":13190:13600   */\n      swap3\n      swap2\n      pop\n      pop\n      jump\t// out\n        /* \"#utility.yul\":13606:13786   */\n    tag_339:\n        /* \"#utility.yul\":13654:13731   */\n      0x4e487b7100000000000000000000000000000000000000000000000000000000\n        /* \"#utility.yul\":13651:13652   */\n      0x00\n        /* \"#utility.yul\":13644:13732   */\n      mstore\n        /* \"#utility.yul\":13751:13755   */\n      0x12\n        /* \"#utility.yul\":13748:13749   */\n      0x04\n        /* \"#utility.yul\":13741:13756   */\n      mstore\n        /* \"#utility.yul\":13775:13779   */\n      0x24\n        /* \"#utility.yul\":13772:13773   */\n      0x00\n        /* \"#utility.yul\":13765:13780   */\n      revert\n        /* \"#utility.yul\":13792:13977   */\n    tag_141:\n        /* \"#utility.yul\":13832:13833   */\n      0x00\n        /* \"#utility.yul\":13849:13869   */\n      tag_520\n        /* \"#utility.yul\":13867:13868   */\n      dup3\n        /* \"#utility.yul\":13849:13869   */\n      tag_306\n      jump\t// in\n    tag_520:\n        /* \"#utility.yul\":13844:13869   */\n      swap2\n      pop\n        /* \"#utility.yul\":13883:13903   */\n      tag_521\n        /* \"#utility.yul\":13901:13902   */\n      dup4\n        /* \"#utility.yul\":13883:13903   */\n      tag_306\n      jump\t// in\n    tag_521:\n        /* \"#utility.yul\":13878:13903   */\n      swap3\n      pop\n        /* \"#utility.yul\":13922:13923   */\n      dup3\n        /* \"#utility.yul\":13912:13947   */\n      tag_522\n      jumpi\n        /* \"#utility.yul\":13927:13945   */\n      tag_523\n      tag_339\n      jump\t// in\n    tag_523:\n        /* \"#utility.yul\":13912:13947   */\n    tag_522:\n        /* \"#utility.yul\":13969:13970   */\n      dup3\n        /* \"#utility.yul\":13966:13967   */\n      dup3\n        /* \"#utility.yul\":13962:13971   */\n      div\n        /* \"#utility.yul\":13957:13971   */\n      swap1\n      pop\n        /* \"#utility.yul\":13792:13977   */\n      swap3\n      swap2\n      pop\n      pop\n      jump\t// out\n        /* \"#utility.yul\":13983:14174   */\n    tag_144:\n        /* \"#utility.yul\":14023:14026   */\n      0x00\n        /* \"#utility.yul\":14042:14062   */\n      tag_525\n        /* \"#utility.yul\":14060:14061   */\n      dup3\n        /* \"#utility.yul\":14042:14062   */\n      tag_306\n      jump\t// in\n    tag_525:\n        /* \"#utility.yul\":14037:14062   */\n      swap2\n      pop\n        /* \"#utility.yul\":14076:14096   */\n      tag_526\n        /* \"#utility.yul\":14094:14095   */\n      dup4\n        /* \"#utility.yul\":14076:14096   */\n      tag_306\n      jump\t// in\n    tag_526:\n        /* \"#utility.yul\":14071:14096   */\n      swap3\n      pop\n        /* \"#utility.yul\":14119:14120   */\n      dup3\n        /* \"#utility.yul\":14116:14117   */\n      dup3\n        /* \"#utility.yul\":14112:14121   */\n      add\n        /* \"#utility.yul\":14105:14121   */\n      swap1\n      pop\n        /* \"#utility.yul\":14140:14143   */\n      dup1\n        /* \"#utility.yul\":14137:14138   */\n      dup3\n        /* \"#utility.yul\":14134:14144   */\n      gt\n        /* \"#utility.yul\":14131:14167   */\n      iszero\n      tag_527\n      jumpi\n        /* \"#utility.yul\":14147:14165   */\n      tag_528\n      tag_338\n      jump\t// in\n    tag_528:\n        /* \"#utility.yul\":14131:14167   */\n    tag_527:\n        /* \"#utility.yul\":13983:14174   */\n      swap3\n      swap2\n      pop\n      pop\n      jump\t// out\n        /* \"#utility.yul\":14180:14350   */\n    tag_340:\n        /* \"#utility.yul\":14320:14342   */\n      0x726577617264202b20666565203d20746f74616c000000000000000000000000\n        /* \"#utility.yul\":14316:14317   */\n      0x00\n        /* \"#utility.yul\":14308:14314   */\n      dup3\n        /* \"#utility.yul\":14304:14318   */\n      add\n        /* \"#utility.yul\":14297:14343   */\n      mstore\n        /* \"#utility.yul\":14180:14350   */\n      pop\n      jump\t// out\n        /* \"#utility.yul\":14356:14722   */\n    tag_341:\n        /* \"#utility.yul\":14498:14501   */\n      0x00\n        /* \"#utility.yul\":14519:14586   */\n      tag_531\n        /* \"#utility.yul\":14583:14585   */\n      0x14\n        /* \"#utility.yul\":14578:14581   */\n      dup4\n        /* \"#utility.yul\":14519:14586   */\n      tag_333\n      jump\t// in\n    tag_531:\n        /* \"#utility.yul\":14512:14586   */\n      swap2\n      pop\n        /* \"#utility.yul\":14595:14688   */\n      tag_532\n        /* \"#utility.yul\":14684:14687   */\n      dup3\n        /* \"#utility.yul\":14595:14688   */\n      tag_340\n      jump\t// in\n    tag_532:\n        /* \"#utility.yul\":14713:14715   */\n      0x20\n        /* \"#utility.yul\":14708:14711   */\n      dup3\n        /* \"#utility.yul\":14704:14716   */\n      add\n        /* \"#utility.yul\":14697:14716   */\n      swap1\n      pop\n        /* \"#utility.yul\":14356:14722   */\n      swap2\n      swap1\n      pop\n      jump\t// out\n        /* \"#utility.yul\":14728:15147   */\n    tag_147:\n        /* \"#utility.yul\":14894:14898   */\n      0x00\n        /* \"#utility.yul\":14932:14934   */\n      0x20\n        /* \"#utility.yul\":14921:14930   */\n      dup3\n        /* \"#utility.yul\":14917:14935   */\n      add\n        /* \"#utility.yul\":14909:14935   */\n      swap1\n      pop\n        /* \"#utility.yul\":14981:14990   */\n      dup2\n        /* \"#utility.yul\":14975:14979   */\n      dup2\n        /* \"#utility.yul\":14971:14991   */\n      sub\n        /* \"#utility.yul\":14967:14968   */\n      0x00\n        /* \"#utility.yul\":14956:14965   */\n      dup4\n        /* \"#utility.yul\":14952:14969   */\n      add\n        /* \"#utility.yul\":14945:14992   */\n      mstore\n        /* \"#utility.yul\":15009:15140   */\n      tag_534\n        /* \"#utility.yul\":15135:15139   */\n      dup2\n        /* \"#utility.yul\":15009:15140   */\n      tag_341\n      jump\t// in\n    tag_534:\n        /* \"#utility.yul\":15001:15140   */\n      swap1\n      pop\n        /* \"#utility.yul\":14728:15147   */\n      swap2\n      swap1\n      pop\n      jump\t// out\n        /* \"#utility.yul\":15153:15315   */\n    tag_342:\n        /* \"#utility.yul\":15293:15307   */\n      0x616c6c20706f7369746976650000000000000000000000000000000000000000\n        /* \"#utility.yul\":15289:15290   */\n      0x00\n        /* \"#utility.yul\":15281:15287   */\n      dup3\n        /* \"#utility.yul\":15277:15291   */\n      add\n        /* \"#utility.yul\":15270:15308   */\n      mstore\n        /* \"#utility.yul\":15153:15315   */\n      pop\n      jump\t// out\n        /* \"#utility.yul\":15321:15687   */\n    tag_343:\n        /* \"#utility.yul\":15463:15466   */\n      0x00\n        /* \"#utility.yul\":15484:15551   */\n      tag_537\n        /* \"#utility.yul\":15548:15550   */\n      0x0c\n        /* \"#utility.yul\":15543:15546   */\n      dup4\n        /* \"#utility.yul\":15484:15551   */\n      tag_333\n      jump\t// in\n    tag_537:\n        /* \"#utility.yul\":15477:15551   */\n      swap2\n      pop\n        /* \"#utility.yul\":15560:15653   */\n      tag_538\n        /* \"#utility.yul\":15649:15652   */\n      dup3\n        /* \"#utility.yul\":15560:15653   */\n      tag_342\n      jump\t// in\n    tag_538:\n        /* \"#utility.yul\":15678:15680   */\n      0x20\n        /* \"#utility.yul\":15673:15676   */\n      dup3\n        /* \"#utility.yul\":15669:15681   */\n      add\n        /* \"#utility.yul\":15662:15681   */\n      swap1\n      pop\n        /* \"#utility.yul\":15321:15687   */\n      swap2\n      swap1\n      pop\n      jump\t// out\n        /* \"#utility.yul\":15693:16112   */\n    tag_152:\n        /* \"#utility.yul\":15859:15863   */\n      0x00\n        /* \"#utility.yul\":15897:15899   */\n      0x20\n        /* \"#utility.yul\":15886:15895   */\n      dup3\n        /* \"#utility.yul\":15882:15900   */\n      add\n        /* \"#utility.yul\":15874:15900   */\n      swap1\n      pop\n        /* \"#utility.yul\":15946:15955   */\n      dup2\n        /* \"#utility.yul\":15940:15944   */\n      dup2\n        /* \"#utility.yul\":15936:15956   */\n      sub\n        /* \"#utility.yul\":15932:15933   */\n      0x00\n        /* \"#utility.yul\":15921:15930   */\n      dup4\n        /* \"#utility.yul\":15917:15934   */\n      add\n        /* \"#utility.yul\":15910:15957   */\n      mstore\n        /* \"#utility.yul\":15974:16105   */\n      tag_540\n        /* \"#utility.yul\":16100:16104   */\n      dup2\n        /* \"#utility.yul\":15974:16105   */\n      tag_343\n      jump\t// in\n    tag_540:\n        /* \"#utility.yul\":15966:16105   */\n      swap1\n      pop\n        /* \"#utility.yul\":15693:16112   */\n      swap2\n      swap1\n      pop\n      jump\t// out\n        /* \"#utility.yul\":16118:16450   */\n    tag_154:\n        /* \"#utility.yul\":16239:16243   */\n      0x00\n        /* \"#utility.yul\":16277:16279   */\n      0x40\n        /* \"#utility.yul\":16266:16275   */\n      dup3\n        /* \"#utility.yul\":16262:16280   */\n      add\n        /* \"#utility.yul\":16254:16280   */\n      swap1\n      pop\n        /* \"#utility.yul\":16290:16361   */\n      tag_542\n        /* \"#utility.yul\":16358:16359   */\n      0x00\n        /* \"#utility.yul\":16347:16356   */\n      dup4\n        /* \"#utility.yul\":16343:16360   */\n      add\n        /* \"#utility.yul\":16334:16340   */\n      dup6\n        /* \"#utility.yul\":16290:16361   */\n      tag_312\n      jump\t// in\n    tag_542:\n        /* \"#utility.yul\":16371:16443   */\n      tag_543\n        /* \"#utility.yul\":16439:16441   */\n      0x20\n        /* \"#utility.yul\":16428:16437   */\n      dup4\n        /* \"#utility.yul\":16424:16442   */\n      add\n        /* \"#utility.yul\":16415:16421   */\n      dup5\n        /* \"#utility.yul\":16371:16443   */\n      tag_309\n      jump\t// in\n    tag_543:\n        /* \"#utility.yul\":16118:16450   */\n      swap4\n      swap3\n      pop\n      pop\n      pop\n      jump\t// out\n        /* \"#utility.yul\":16456:16572   */\n    tag_344:\n        /* \"#utility.yul\":16526:16547   */\n      tag_545\n        /* \"#utility.yul\":16541:16546   */\n      dup2\n        /* \"#utility.yul\":16526:16547   */\n      tag_304\n      jump\t// in\n    tag_545:\n        /* \"#utility.yul\":16519:16524   */\n      dup2\n        /* \"#utility.yul\":16516:16548   */\n      eq\n        /* \"#utility.yul\":16506:16566   */\n      tag_546\n      jumpi\n        /* \"#utility.yul\":16562:16563   */\n      0x00\n        /* \"#utility.yul\":16559:16560   */\n      dup1\n        /* \"#utility.yul\":16552:16564   */\n      revert\n        /* \"#utility.yul\":16506:16566   */\n    tag_546:\n        /* \"#utility.yul\":16456:16572   */\n      pop\n      jump\t// out\n        /* \"#utility.yul\":16578:16715   */\n    tag_345:\n        /* \"#utility.yul\":16632:16637   */\n      0x00\n        /* \"#utility.yul\":16663:16669   */\n      dup2\n        /* \"#utility.yul\":16657:16670   */\n      mload\n        /* \"#utility.yul\":16648:16670   */\n      swap1\n      pop\n        /* \"#utility.yul\":16679:16709   */\n      tag_548\n        /* \"#utility.yul\":16703:16708   */\n      dup2\n        /* \"#utility.yul\":16679:16709   */\n      tag_344\n      jump\t// in\n    tag_548:\n        /* \"#utility.yul\":16578:16715   */\n      swap3\n      swap2\n      pop\n      pop\n      jump\t// out\n        /* \"#utility.yul\":16721:17066   */\n    tag_158:\n        /* \"#utility.yul\":16788:16794   */\n      0x00\n        /* \"#utility.yul\":16837:16839   */\n      0x20\n        /* \"#utility.yul\":16825:16834   */\n      dup3\n        /* \"#utility.yul\":16816:16823   */\n      dup5\n        /* \"#utility.yul\":16812:16835   */\n      sub\n        /* \"#utility.yul\":16808:16840   */\n      slt\n        /* \"#utility.yul\":16805:16924   */\n      iszero\n      tag_550\n      jumpi\n        /* \"#utility.yul\":16843:16922   */\n      tag_551\n      tag_299\n      jump\t// in\n    tag_551:\n        /* \"#utility.yul\":16805:16924   */\n    tag_550:\n        /* \"#utility.yul\":16963:16964   */\n      0x00\n        /* \"#utility.yul\":16988:17049   */\n      tag_552\n        /* \"#utility.yul\":17041:17048   */\n      dup5\n        /* \"#utility.yul\":17032:17038   */\n      dup3\n        /* \"#utility.yul\":17021:17030   */\n      dup6\n        /* \"#utility.yul\":17017:17039   */\n      add\n        /* \"#utility.yul\":16988:17049   */\n      tag_345\n      jump\t// in\n    tag_552:\n        /* \"#utility.yul\":16978:17049   */\n      swap2\n      pop\n        /* \"#utility.yul\":16934:17059   */\n      pop\n        /* \"#utility.yul\":16721:17066   */\n      swap3\n      swap2\n      pop\n      pop\n      jump\t// out\n        /* \"#utility.yul\":17072:17243   */\n    tag_346:\n        /* \"#utility.yul\":17212:17235   */\n      0x5265776172642073686f756c6420737563636573730000000000000000000000\n        /* \"#utility.yul\":17208:17209   */\n      0x00\n        /* \"#utility.yul\":17200:17206   */\n      dup3\n        /* \"#utility.yul\":17196:17210   */\n      add\n        /* \"#utility.yul\":17189:17236   */\n      mstore\n        /* \"#utility.yul\":17072:17243   */\n      pop\n      jump\t// out\n        /* \"#utility.yul\":17249:17615   */\n    tag_347:\n        /* \"#utility.yul\":17391:17394   */\n      0x00\n        /* \"#utility.yul\":17412:17479   */\n      tag_555\n        /* \"#utility.yul\":17476:17478   */\n      0x15\n        /* \"#utility.yul\":17471:17474   */\n      dup4\n        /* \"#utility.yul\":17412:17479   */\n      tag_333\n      jump\t// in\n    tag_555:\n        /* \"#utility.yul\":17405:17479   */\n      swap2\n      pop\n        /* \"#utility.yul\":17488:17581   */\n      tag_556\n        /* \"#utility.yul\":17577:17580   */\n      dup3\n        /* \"#utility.yul\":17488:17581   */\n      tag_346\n      jump\t// in\n    tag_556:\n        /* \"#utility.yul\":17606:17608   */\n      0x20\n        /* \"#utility.yul\":17601:17604   */\n      dup3\n        /* \"#utility.yul\":17597:17609   */\n      add\n        /* \"#utility.yul\":17590:17609   */\n      swap1\n      pop\n        /* \"#utility.yul\":17249:17615   */\n      swap2\n      swap1\n      pop\n      jump\t// out\n        /* \"#utility.yul\":17621:18040   */\n    tag_161:\n        /* \"#utility.yul\":17787:17791   */\n      0x00\n        /* \"#utility.yul\":17825:17827   */\n      0x20\n        /* \"#utility.yul\":17814:17823   */\n      dup3\n        /* \"#utility.yul\":17810:17828   */\n      add\n        /* \"#utility.yul\":17802:17828   */\n      swap1\n      pop\n        /* \"#utility.yul\":17874:17883   */\n      dup2\n        /* \"#utility.yul\":17868:17872   */\n      dup2\n        /* \"#utility.yul\":17864:17884   */\n      sub\n        /* \"#utility.yul\":17860:17861   */\n      0x00\n        /* \"#utility.yul\":17849:17858   */\n      dup4\n        /* \"#utility.yul\":17845:17862   */\n      add\n        /* \"#utility.yul\":17838:17885   */\n      mstore\n        /* \"#utility.yul\":17902:18033   */\n      tag_558\n        /* \"#utility.yul\":18028:18032   */\n      dup2\n        /* \"#utility.yul\":17902:18033   */\n      tag_347\n      jump\t// in\n    tag_558:\n        /* \"#utility.yul\":17894:18033   */\n      swap1\n      pop\n        /* \"#utility.yul\":17621:18040   */\n      swap2\n      swap1\n      pop\n      jump\t// out\n        /* \"#utility.yul\":18046:18488   */\n    tag_164:\n        /* \"#utility.yul\":18195:18199   */\n      0x00\n        /* \"#utility.yul\":18233:18235   */\n      0x60\n        /* \"#utility.yul\":18222:18231   */\n      dup3\n        /* \"#utility.yul\":18218:18236   */\n      add\n        /* \"#utility.yul\":18210:18236   */\n      swap1\n      pop\n        /* \"#utility.yul\":18246:18317   */\n      tag_560\n        /* \"#utility.yul\":18314:18315   */\n      0x00\n        /* \"#utility.yul\":18303:18312   */\n      dup4\n        /* \"#utility.yul\":18299:18316   */\n      add\n        /* \"#utility.yul\":18290:18296   */\n      dup7\n        /* \"#utility.yul\":18246:18317   */\n      tag_312\n      jump\t// in\n    tag_560:\n        /* \"#utility.yul\":18327:18399   */\n      tag_561\n        /* \"#utility.yul\":18395:18397   */\n      0x20\n        /* \"#utility.yul\":18384:18393   */\n      dup4\n        /* \"#utility.yul\":18380:18398   */\n      add\n        /* \"#utility.yul\":18371:18377   */\n      dup6\n        /* \"#utility.yul\":18327:18399   */\n      tag_309\n      jump\t// in\n    tag_561:\n        /* \"#utility.yul\":18409:18481   */\n      tag_562\n        /* \"#utility.yul\":18477:18479   */\n      0x40\n        /* \"#utility.yul\":18466:18475   */\n      dup4\n        /* \"#utility.yul\":18462:18480   */\n      add\n        /* \"#utility.yul\":18453:18459   */\n      dup5\n        /* \"#utility.yul\":18409:18481   */\n      tag_309\n      jump\t// in\n    tag_562:\n        /* \"#utility.yul\":18046:18488   */\n      swap5\n      swap4\n      pop\n      pop\n      pop\n      pop\n      jump\t// out\n        /* \"#utility.yul\":18494:18728   */\n    tag_348:\n        /* \"#utility.yul\":18634:18668   */\n      0x416363657373436f6e74726f6c3a2063616e206f6e6c792072656e6f756e6365\n        /* \"#utility.yul\":18630:18631   */\n      0x00\n        /* \"#utility.yul\":18622:18628   */\n      dup3\n        /* \"#utility.yul\":18618:18632   */\n      add\n        /* \"#utility.yul\":18611:18669   */\n      mstore\n        /* \"#utility.yul\":18703:18720   */\n      0x20726f6c657320666f722073656c660000000000000000000000000000000000\n        /* \"#utility.yul\":18698:18700   */\n      0x20\n        /* \"#utility.yul\":18690:18696   */\n      dup3\n        /* \"#utility.yul\":18686:18701   */\n      add\n        /* \"#utility.yul\":18679:18721   */\n      mstore\n        /* \"#utility.yul\":18494:18728   */\n      pop\n      jump\t// out\n        /* \"#utility.yul\":18734:19100   */\n    tag_349:\n        /* \"#utility.yul\":18876:18879   */\n      0x00\n        /* \"#utility.yul\":18897:18964   */\n      tag_565\n        /* \"#utility.yul\":18961:18963   */\n      0x2f\n        /* \"#utility.yul\":18956:18959   */\n      dup4\n        /* \"#utility.yul\":18897:18964   */\n      tag_333\n      jump\t// in\n    tag_565:\n        /* \"#utility.yul\":18890:18964   */\n      swap2\n      pop\n        /* \"#utility.yul\":18973:19066   */\n      tag_566\n        /* \"#utility.yul\":19062:19065   */\n      dup3\n        /* \"#utility.yul\":18973:19066   */\n      tag_348\n      jump\t// in\n    tag_566:\n        /* \"#utility.yul\":19091:19093   */\n      0x40\n        /* \"#utility.yul\":19086:19089   */\n      dup3\n        /* \"#utility.yul\":19082:19094   */\n      add\n        /* \"#utility.yul\":19075:19094   */\n      swap1\n      pop\n        /* \"#utility.yul\":18734:19100   */\n      swap2\n      swap1\n      pop\n      jump\t// out\n        /* \"#utility.yul\":19106:19525   */\n    tag_179:\n        /* \"#utility.yul\":19272:19276   */\n      0x00\n        /* \"#utility.yul\":19310:19312   */\n      0x20\n        /* \"#utility.yul\":19299:19308   */\n      dup3\n        /* \"#utility.yul\":19295:19313   */\n      add\n        /* \"#utility.yul\":19287:19313   */\n      swap1\n      pop\n        /* \"#utility.yul\":19359:19368   */\n      dup2\n        /* \"#utility.yul\":19353:19357   */\n      dup2\n        /* \"#utility.yul\":19349:19369   */\n      sub\n        /* \"#utility.yul\":19345:19346   */\n      0x00\n        /* \"#utility.yul\":19334:19343   */\n      dup4\n        /* \"#utility.yul\":19330:19347   */\n      add\n        /* \"#utility.yul\":19323:19370   */\n      mstore\n        /* \"#utility.yul\":19387:19518   */\n      tag_568\n        /* \"#utility.yul\":19513:19517   */\n      dup2\n        /* \"#utility.yul\":19387:19518   */\n      tag_349\n      jump\t// in\n    tag_568:\n        /* \"#utility.yul\":19379:19518   */\n      swap1\n      pop\n        /* \"#utility.yul\":19106:19525   */\n      swap2\n      swap1\n      pop\n      jump\t// out\n        /* \"#utility.yul\":19531:19674   */\n    tag_350:\n        /* \"#utility.yul\":19588:19593   */\n      0x00\n        /* \"#utility.yul\":19619:19625   */\n      dup2\n        /* \"#utility.yul\":19613:19626   */\n      mload\n        /* \"#utility.yul\":19604:19626   */\n      swap1\n      pop\n        /* \"#utility.yul\":19635:19668   */\n      tag_570\n        /* \"#utility.yul\":19662:19667   */\n      dup2\n        /* \"#utility.yul\":19635:19668   */\n      tag_307\n      jump\t// in\n    tag_570:\n        /* \"#utility.yul\":19531:19674   */\n      swap3\n      swap2\n      pop\n      pop\n      jump\t// out\n        /* \"#utility.yul\":19680:20031   */\n    tag_191:\n        /* \"#utility.yul\":19750:19756   */\n      0x00\n        /* \"#utility.yul\":19799:19801   */\n      0x20\n        /* \"#utility.yul\":19787:19796   */\n      dup3\n        /* \"#utility.yul\":19778:19785   */\n      dup5\n        /* \"#utility.yul\":19774:19797   */\n      sub\n        /* \"#utility.yul\":19770:19802   */\n      slt\n        /* \"#utility.yul\":19767:19886   */\n      iszero\n      tag_572\n      jumpi\n        /* \"#utility.yul\":19805:19884   */\n      tag_573\n      tag_299\n      jump\t// in\n    tag_573:\n        /* \"#utility.yul\":19767:19886   */\n    tag_572:\n        /* \"#utility.yul\":19925:19926   */\n      0x00\n        /* \"#utility.yul\":19950:20014   */\n      tag_574\n        /* \"#utility.yul\":20006:20013   */\n      dup5\n        /* \"#utility.yul\":19997:20003   */\n      dup3\n        /* \"#utility.yul\":19986:19995   */\n      dup6\n        /* \"#utility.yul\":19982:20004   */\n      add\n        /* \"#utility.yul\":19950:20014   */\n      tag_350\n      jump\t// in\n    tag_574:\n        /* \"#utility.yul\":19940:20014   */\n      swap2\n      pop\n        /* \"#utility.yul\":19896:20024   */\n      pop\n        /* \"#utility.yul\":19680:20031   */\n      swap3\n      swap2\n      pop\n      pop\n      jump\t// out\n        /* \"#utility.yul\":20037:20201   */\n    tag_351:\n        /* \"#utility.yul\":20177:20193   */\n      0x456e6f7567682062616c616e6365000000000000000000000000000000000000\n        /* \"#utility.yul\":20173:20174   */\n      0x00\n        /* \"#utility.yul\":20165:20171   */\n      dup3\n        /* \"#utility.yul\":20161:20175   */\n      add\n        /* \"#utility.yul\":20154:20194   */\n      mstore\n        /* \"#utility.yul\":20037:20201   */\n      pop\n      jump\t// out\n        /* \"#utility.yul\":20207:20573   */\n    tag_352:\n        /* \"#utility.yul\":20349:20352   */\n      0x00\n        /* \"#utility.yul\":20370:20437   */\n      tag_577\n        /* \"#utility.yul\":20434:20436   */\n      0x0e\n        /* \"#utility.yul\":20429:20432   */\n      dup4\n        /* \"#utility.yul\":20370:20437   */\n      tag_333\n      jump\t// in\n    tag_577:\n        /* \"#utility.yul\":20363:20437   */\n      swap2\n      pop\n        /* \"#utility.yul\":20446:20539   */\n      tag_578\n        /* \"#utility.yul\":20535:20538   */\n      dup3\n        /* \"#utility.yul\":20446:20539   */\n      tag_351\n      jump\t// in\n    tag_578:\n        /* \"#utility.yul\":20564:20566   */\n      0x20\n        /* \"#utility.yul\":20559:20562   */\n      dup3\n        /* \"#utility.yul\":20555:20567   */\n      add\n        /* \"#utility.yul\":20548:20567   */\n      swap1\n      pop\n        /* \"#utility.yul\":20207:20573   */\n      swap2\n      swap1\n      pop\n      jump\t// out\n        /* \"#utility.yul\":20579:20998   */\n    tag_194:\n        /* \"#utility.yul\":20745:20749   */\n      0x00\n        /* \"#utility.yul\":20783:20785   */\n      0x20\n        /* \"#utility.yul\":20772:20781   */\n      dup3\n        /* \"#utility.yul\":20768:20786   */\n      add\n        /* \"#utility.yul\":20760:20786   */\n      swap1\n      pop\n        /* \"#utility.yul\":20832:20841   */\n      dup2\n        /* \"#utility.yul\":20826:20830   */\n      dup2\n        /* \"#utility.yul\":20822:20842   */\n      sub\n        /* \"#utility.yul\":20818:20819   */\n      0x00\n        /* \"#utility.yul\":20807:20816   */\n      dup4\n        /* \"#utility.yul\":20803:20820   */\n      add\n        /* \"#utility.yul\":20796:20843   */\n      mstore\n        /* \"#utility.yul\":20860:20991   */\n      tag_580\n        /* \"#utility.yul\":20986:20990   */\n      dup2\n        /* \"#utility.yul\":20860:20991   */\n      tag_352\n      jump\t// in\n    tag_580:\n        /* \"#utility.yul\":20852:20991   */\n      swap1\n      pop\n        /* \"#utility.yul\":20579:20998   */\n      swap2\n      swap1\n      pop\n      jump\t// out\n        /* \"#utility.yul\":21004:21446   */\n    tag_196:\n        /* \"#utility.yul\":21153:21157   */\n      0x00\n        /* \"#utility.yul\":21191:21193   */\n      0x60\n        /* \"#utility.yul\":21180:21189   */\n      dup3\n        /* \"#utility.yul\":21176:21194   */\n      add\n        /* \"#utility.yul\":21168:21194   */\n      swap1\n      pop\n        /* \"#utility.yul\":21204:21275   */\n      tag_582\n        /* \"#utility.yul\":21272:21273   */\n      0x00\n        /* \"#utility.yul\":21261:21270   */\n      dup4\n        /* \"#utility.yul\":21257:21274   */\n      add\n        /* \"#utility.yul\":21248:21254   */\n      dup7\n        /* \"#utility.yul\":21204:21275   */\n      tag_312\n      jump\t// in\n    tag_582:\n        /* \"#utility.yul\":21285:21357   */\n      tag_583\n        /* \"#utility.yul\":21353:21355   */\n      0x20\n        /* \"#utility.yul\":21342:21351   */\n      dup4\n        /* \"#utility.yul\":21338:21356   */\n      add\n        /* \"#utility.yul\":21329:21335   */\n      dup6\n        /* \"#utility.yul\":21285:21357   */\n      tag_312\n      jump\t// in\n    tag_583:\n        /* \"#utility.yul\":21367:21439   */\n      tag_584\n        /* \"#utility.yul\":21435:21437   */\n      0x40\n        /* \"#utility.yul\":21424:21433   */\n      dup4\n        /* \"#utility.yul\":21420:21438   */\n      add\n        /* \"#utility.yul\":21411:21417   */\n      dup5\n        /* \"#utility.yul\":21367:21439   */\n      tag_309\n      jump\t// in\n    tag_584:\n        /* \"#utility.yul\":21004:21446   */\n      swap5\n      swap4\n      pop\n      pop\n      pop\n      pop\n      jump\t// out\n        /* \"#utility.yul\":21452:21625   */\n    tag_353:\n        /* \"#utility.yul\":21592:21617   */\n      0x5472616e736665722073686f756c642073756363657373000000000000000000\n        /* \"#utility.yul\":21588:21589   */\n      0x00\n        /* \"#utility.yul\":21580:21586   */\n      dup3\n        /* \"#utility.yul\":21576:21590   */\n      add\n        /* \"#utility.yul\":21569:21618   */\n      mstore\n        /* \"#utility.yul\":21452:21625   */\n      pop\n      jump\t// out\n        /* \"#utility.yul\":21631:21997   */\n    tag_354:\n        /* \"#utility.yul\":21773:21776   */\n      0x00\n        /* \"#utility.yul\":21794:21861   */\n      tag_587\n        /* \"#utility.yul\":21858:21860   */\n      0x17\n        /* \"#utility.yul\":21853:21856   */\n      dup4\n        /* \"#utility.yul\":21794:21861   */\n      tag_333\n      jump\t// in\n    tag_587:\n        /* \"#utility.yul\":21787:21861   */\n      swap2\n      pop\n        /* \"#utility.yul\":21870:21963   */\n      tag_588\n        /* \"#utility.yul\":21959:21962   */\n      dup3\n        /* \"#utility.yul\":21870:21963   */\n      tag_353\n      jump\t// in\n    tag_588:\n        /* \"#utility.yul\":21988:21990   */\n      0x20\n        /* \"#utility.yul\":21983:21986   */\n      dup3\n        /* \"#utility.yul\":21979:21991   */\n      add\n        /* \"#utility.yul\":21972:21991   */\n      swap1\n      pop\n        /* \"#utility.yul\":21631:21997   */\n      swap2\n      swap1\n      pop\n      jump\t// out\n        /* \"#utility.yul\":22003:22422   */\n    tag_202:\n        /* \"#utility.yul\":22169:22173   */\n      0x00\n        /* \"#utility.yul\":22207:22209   */\n      0x20\n        /* \"#utility.yul\":22196:22205   */\n      dup3\n        /* \"#utility.yul\":22192:22210   */\n      add\n        /* \"#utility.yul\":22184:22210   */\n      swap1\n      pop\n        /* \"#utility.yul\":22256:22265   */\n      dup2\n        /* \"#utility.yul\":22250:22254   */\n      dup2\n        /* \"#utility.yul\":22246:22266   */\n      sub\n        /* \"#utility.yul\":22242:22243   */\n      0x00\n        /* \"#utility.yul\":22231:22240   */\n      dup4\n        /* \"#utility.yul\":22227:22244   */\n      add\n        /* \"#utility.yul\":22220:22267   */\n      mstore\n        /* \"#utility.yul\":22284:22415   */\n      tag_590\n        /* \"#utility.yul\":22410:22414   */\n      dup2\n        /* \"#utility.yul\":22284:22415   */\n      tag_354\n      jump\t// in\n    tag_590:\n        /* \"#utility.yul\":22276:22415   */\n      swap1\n      pop\n        /* \"#utility.yul\":22003:22422   */\n      swap2\n      swap1\n      pop\n      jump\t// out\n        /* \"#utility.yul\":22428:22584   */\n    tag_355:\n        /* \"#utility.yul\":22568:22576   */\n      0x4e6f206665650000000000000000000000000000000000000000000000000000\n        /* \"#utility.yul\":22564:22565   */\n      0x00\n        /* \"#utility.yul\":22556:22562   */\n      dup3\n        /* \"#utility.yul\":22552:22566   */\n      add\n        /* \"#utility.yul\":22545:22577   */\n      mstore\n        /* \"#utility.yul\":22428:22584   */\n      pop\n      jump\t// out\n        /* \"#utility.yul\":22590:22955   */\n    tag_356:\n        /* \"#utility.yul\":22732:22735   */\n      0x00\n        /* \"#utility.yul\":22753:22819   */\n      tag_593\n        /* \"#utility.yul\":22817:22818   */\n      0x06\n        /* \"#utility.yul\":22812:22815   */\n      dup4\n        /* \"#utility.yul\":22753:22819   */\n      tag_333\n      jump\t// in\n    tag_593:\n        /* \"#utility.yul\":22746:22819   */\n      swap2\n      pop\n        /* \"#utility.yul\":22828:22921   */\n      tag_594\n        /* \"#utility.yul\":22917:22920   */\n      dup3\n        /* \"#utility.yul\":22828:22921   */\n      tag_355\n      jump\t// in\n    tag_594:\n        /* \"#utility.yul\":22946:22948   */\n      0x20\n        /* \"#utility.yul\":22941:22944   */\n      dup3\n        /* \"#utility.yul\":22937:22949   */\n      add\n        /* \"#utility.yul\":22930:22949   */\n      swap1\n      pop\n        /* \"#utility.yul\":22590:22955   */\n      swap2\n      swap1\n      pop\n      jump\t// out\n        /* \"#utility.yul\":22961:23380   */\n    tag_213:\n        /* \"#utility.yul\":23127:23131   */\n      0x00\n        /* \"#utility.yul\":23165:23167   */\n      0x20\n        /* \"#utility.yul\":23154:23163   */\n      dup3\n        /* \"#utility.yul\":23150:23168   */\n      add\n        /* \"#utility.yul\":23142:23168   */\n      swap1\n      pop\n        /* \"#utility.yul\":23214:23223   */\n      dup2\n        /* \"#utility.yul\":23208:23212   */\n      dup2\n        /* \"#utility.yul\":23204:23224   */\n      sub\n        /* \"#utility.yul\":23200:23201   */\n      0x00\n        /* \"#utility.yul\":23189:23198   */\n      dup4\n        /* \"#utility.yul\":23185:23202   */\n      add\n        /* \"#utility.yul\":23178:23225   */\n      mstore\n        /* \"#utility.yul\":23242:23373   */\n      tag_596\n        /* \"#utility.yul\":23368:23372   */\n      dup2\n        /* \"#utility.yul\":23242:23373   */\n      tag_356\n      jump\t// in\n    tag_596:\n        /* \"#utility.yul\":23234:23373   */\n      swap1\n      pop\n        /* \"#utility.yul\":22961:23380   */\n      swap2\n      swap1\n      pop\n      jump\t// out\n        /* \"#utility.yul\":23386:23548   */\n    tag_357:\n        /* \"#utility.yul\":23526:23540   */\n      0x7472616e73666572206665650000000000000000000000000000000000000000\n        /* \"#utility.yul\":23522:23523   */\n      0x00\n        /* \"#utility.yul\":23514:23520   */\n      dup3\n        /* \"#utility.yul\":23510:23524   */\n      add\n        /* \"#utility.yul\":23503:23541   */\n      mstore\n        /* \"#utility.yul\":23386:23548   */\n      pop\n      jump\t// out\n        /* \"#utility.yul\":23554:23920   */\n    tag_358:\n        /* \"#utility.yul\":23696:23699   */\n      0x00\n        /* \"#utility.yul\":23717:23784   */\n      tag_599\n        /* \"#utility.yul\":23781:23783   */\n      0x0c\n        /* \"#utility.yul\":23776:23779   */\n      dup4\n        /* \"#utility.yul\":23717:23784   */\n      tag_333\n      jump\t// in\n    tag_599:\n        /* \"#utility.yul\":23710:23784   */\n      swap2\n      pop\n        /* \"#utility.yul\":23793:23886   */\n      tag_600\n        /* \"#utility.yul\":23882:23885   */\n      dup3\n        /* \"#utility.yul\":23793:23886   */\n      tag_357\n      jump\t// in\n    tag_600:\n        /* \"#utility.yul\":23911:23913   */\n      0x20\n        /* \"#utility.yul\":23906:23909   */\n      dup3\n        /* \"#utility.yul\":23902:23914   */\n      add\n        /* \"#utility.yul\":23895:23914   */\n      swap1\n      pop\n        /* \"#utility.yul\":23554:23920   */\n      swap2\n      swap1\n      pop\n      jump\t// out\n        /* \"#utility.yul\":23926:24345   */\n    tag_220:\n        /* \"#utility.yul\":24092:24096   */\n      0x00\n        /* \"#utility.yul\":24130:24132   */\n      0x20\n        /* \"#utility.yul\":24119:24128   */\n      dup3\n        /* \"#utility.yul\":24115:24133   */\n      add\n        /* \"#utility.yul\":24107:24133   */\n      swap1\n      pop\n        /* \"#utility.yul\":24179:24188   */\n      dup2\n        /* \"#utility.yul\":24173:24177   */\n      dup2\n        /* \"#utility.yul\":24169:24189   */\n      sub\n        /* \"#utility.yul\":24165:24166   */\n      0x00\n        /* \"#utility.yul\":24154:24163   */\n      dup4\n        /* \"#utility.yul\":24150:24167   */\n      add\n        /* \"#utility.yul\":24143:24190   */\n      mstore\n        /* \"#utility.yul\":24207:24338   */\n      tag_602\n        /* \"#utility.yul\":24333:24337   */\n      dup2\n        /* \"#utility.yul\":24207:24338   */\n      tag_358\n      jump\t// in\n    tag_602:\n        /* \"#utility.yul\":24199:24338   */\n      swap1\n      pop\n        /* \"#utility.yul\":23926:24345   */\n      swap2\n      swap1\n      pop\n      jump\t// out\n        /* \"#utility.yul\":24351:24512   */\n    tag_359:\n        /* \"#utility.yul\":24491:24504   */\n      0x47616d6520657869737473000000000000000000000000000000000000000000\n        /* \"#utility.yul\":24487:24488   */\n      0x00\n        /* \"#utility.yul\":24479:24485   */\n      dup3\n        /* \"#utility.yul\":24475:24489   */\n      add\n        /* \"#utility.yul\":24468:24505   */\n      mstore\n        /* \"#utility.yul\":24351:24512   */\n      pop\n      jump\t// out\n        /* \"#utility.yul\":24518:24884   */\n    tag_360:\n        /* \"#utility.yul\":24660:24663   */\n      0x00\n        /* \"#utility.yul\":24681:24748   */\n      tag_605\n        /* \"#utility.yul\":24745:24747   */\n      0x0b\n        /* \"#utility.yul\":24740:24743   */\n      dup4\n        /* \"#utility.yul\":24681:24748   */\n      tag_333\n      jump\t// in\n    tag_605:\n        /* \"#utility.yul\":24674:24748   */\n      swap2\n      pop\n        /* \"#utility.yul\":24757:24850   */\n      tag_606\n        /* \"#utility.yul\":24846:24849   */\n      dup3\n        /* \"#utility.yul\":24757:24850   */\n      tag_359\n      jump\t// in\n    tag_606:\n        /* \"#utility.yul\":24875:24877   */\n      0x20\n        /* \"#utility.yul\":24870:24873   */\n      dup3\n        /* \"#utility.yul\":24866:24878   */\n      add\n        /* \"#utility.yul\":24859:24878   */\n      swap1\n      pop\n        /* \"#utility.yul\":24518:24884   */\n      swap2\n      swap1\n      pop\n      jump\t// out\n        /* \"#utility.yul\":24890:25309   */\n    tag_239:\n        /* \"#utility.yul\":25056:25060   */\n      0x00\n        /* \"#utility.yul\":25094:25096   */\n      0x20\n        /* \"#utility.yul\":25083:25092   */\n      dup3\n        /* \"#utility.yul\":25079:25097   */\n      add\n        /* \"#utility.yul\":25071:25097   */\n      swap1\n      pop\n        /* \"#utility.yul\":25143:25152   */\n      dup2\n        /* \"#utility.yul\":25137:25141   */\n      dup2\n        /* \"#utility.yul\":25133:25153   */\n      sub\n        /* \"#utility.yul\":25129:25130   */\n      0x00\n        /* \"#utility.yul\":25118:25127   */\n      dup4\n        /* \"#utility.yul\":25114:25131   */\n      add\n        /* \"#utility.yul\":25107:25154   */\n      mstore\n        /* \"#utility.yul\":25171:25302   */\n      tag_608\n        /* \"#utility.yul\":25297:25301   */\n      dup2\n        /* \"#utility.yul\":25171:25302   */\n      tag_360\n      jump\t// in\n    tag_608:\n        /* \"#utility.yul\":25163:25302   */\n      swap1\n      pop\n        /* \"#utility.yul\":24890:25309   */\n      swap2\n      swap1\n      pop\n      jump\t// out\n        /* \"#utility.yul\":25315:25463   */\n    tag_361:\n        /* \"#utility.yul\":25417:25428   */\n      0x00\n        /* \"#utility.yul\":25454:25457   */\n      dup2\n        /* \"#utility.yul\":25439:25457   */\n      swap1\n      pop\n        /* \"#utility.yul\":25315:25463   */\n      swap3\n      swap2\n      pop\n      pop\n      jump\t// out\n        /* \"#utility.yul\":25469:25642   */\n    tag_362:\n        /* \"#utility.yul\":25609:25634   */\n      0x416363657373436f6e74726f6c3a206163636f756e7420000000000000000000\n        /* \"#utility.yul\":25605:25606   */\n      0x00\n        /* \"#utility.yul\":25597:25603   */\n      dup3\n        /* \"#utility.yul\":25593:25607   */\n      add\n        /* \"#utility.yul\":25586:25635   */\n      mstore\n        /* \"#utility.yul\":25469:25642   */\n      pop\n      jump\t// out\n        /* \"#utility.yul\":25648:26050   */\n    tag_363:\n        /* \"#utility.yul\":25808:25811   */\n      0x00\n        /* \"#utility.yul\":25829:25914   */\n      tag_612\n        /* \"#utility.yul\":25911:25913   */\n      0x17\n        /* \"#utility.yul\":25906:25909   */\n      dup4\n        /* \"#utility.yul\":25829:25914   */\n      tag_361\n      jump\t// in\n    tag_612:\n        /* \"#utility.yul\":25822:25914   */\n      swap2\n      pop\n        /* \"#utility.yul\":25923:26016   */\n      tag_613\n        /* \"#utility.yul\":26012:26015   */\n      dup3\n        /* \"#utility.yul\":25923:26016   */\n      tag_362\n      jump\t// in\n    tag_613:\n        /* \"#utility.yul\":26041:26043   */\n      0x17\n        /* \"#utility.yul\":26036:26039   */\n      dup3\n        /* \"#utility.yul\":26032:26044   */\n      add\n        /* \"#utility.yul\":26025:26044   */\n      swap1\n      pop\n        /* \"#utility.yul\":25648:26050   */\n      swap2\n      swap1\n      pop\n      jump\t// out\n        /* \"#utility.yul\":26056:26155   */\n    tag_364:\n        /* \"#utility.yul\":26108:26114   */\n      0x00\n        /* \"#utility.yul\":26142:26147   */\n      dup2\n        /* \"#utility.yul\":26136:26148   */\n      mload\n        /* \"#utility.yul\":26126:26148   */\n      swap1\n      pop\n        /* \"#utility.yul\":26056:26155   */\n      swap2\n      swap1\n      pop\n      jump\t// out\n        /* \"#utility.yul\":26161:26407   */\n    tag_365:\n        /* \"#utility.yul\":26242:26243   */\n      0x00\n        /* \"#utility.yul\":26252:26365   */\n    tag_616:\n        /* \"#utility.yul\":26266:26272   */\n      dup4\n        /* \"#utility.yul\":26263:26264   */\n      dup2\n        /* \"#utility.yul\":26260:26273   */\n      lt\n        /* \"#utility.yul\":26252:26365   */\n      iszero\n      tag_618\n      jumpi\n        /* \"#utility.yul\":26351:26352   */\n      dup1\n        /* \"#utility.yul\":26346:26349   */\n      dup3\n        /* \"#utility.yul\":26342:26353   */\n      add\n        /* \"#utility.yul\":26336:26354   */\n      mload\n        /* \"#utility.yul\":26332:26333   */\n      dup2\n        /* \"#utility.yul\":26327:26330   */\n      dup5\n        /* \"#utility.yul\":26323:26334   */\n      add\n        /* \"#utility.yul\":26316:26355   */\n      mstore\n        /* \"#utility.yul\":26288:26290   */\n      0x20\n        /* \"#utility.yul\":26285:26286   */\n      dup2\n        /* \"#utility.yul\":26281:26291   */\n      add\n        /* \"#utility.yul\":26276:26291   */\n      swap1\n      pop\n        /* \"#utility.yul\":26252:26365   */\n      jump(tag_616)\n    tag_618:\n        /* \"#utility.yul\":26399:26400   */\n      0x00\n        /* \"#utility.yul\":26390:26396   */\n      dup5\n        /* \"#utility.yul\":26385:26388   */\n      dup5\n        /* \"#utility.yul\":26381:26397   */\n      add\n        /* \"#utility.yul\":26374:26401   */\n      mstore\n        /* \"#utility.yul\":26223:26407   */\n      pop\n        /* \"#utility.yul\":26161:26407   */\n      pop\n      pop\n      pop\n      jump\t// out\n        /* \"#utility.yul\":26413:26803   */\n    tag_366:\n        /* \"#utility.yul\":26519:26522   */\n      0x00\n        /* \"#utility.yul\":26547:26586   */\n      tag_620\n        /* \"#utility.yul\":26580:26585   */\n      dup3\n        /* \"#utility.yul\":26547:26586   */\n      tag_364\n      jump\t// in\n    tag_620:\n        /* \"#utility.yul\":26602:26691   */\n      tag_621\n        /* \"#utility.yul\":26684:26690   */\n      dup2\n        /* \"#utility.yul\":26679:26682   */\n      dup6\n        /* \"#utility.yul\":26602:26691   */\n      tag_361\n      jump\t// in\n    tag_621:\n        /* \"#utility.yul\":26595:26691   */\n      swap4\n      pop\n        /* \"#utility.yul\":26700:26765   */\n      tag_622\n        /* \"#utility.yul\":26758:26764   */\n      dup2\n        /* \"#utility.yul\":26753:26756   */\n      dup6\n        /* \"#utility.yul\":26746:26750   */\n      0x20\n        /* \"#utility.yul\":26739:26744   */\n      dup7\n        /* \"#utility.yul\":26735:26751   */\n      add\n        /* \"#utility.yul\":26700:26765   */\n      tag_365\n      jump\t// in\n    tag_622:\n        /* \"#utility.yul\":26790:26796   */\n      dup1\n        /* \"#utility.yul\":26785:26788   */\n      dup5\n        /* \"#utility.yul\":26781:26797   */\n      add\n        /* \"#utility.yul\":26774:26797   */\n      swap2\n      pop\n        /* \"#utility.yul\":26523:26803   */\n      pop\n        /* \"#utility.yul\":26413:26803   */\n      swap3\n      swap2\n      pop\n      pop\n      jump\t// out\n        /* \"#utility.yul\":26809:26976   */\n    tag_367:\n        /* \"#utility.yul\":26949:26968   */\n      0x206973206d697373696e6720726f6c6520000000000000000000000000000000\n        /* \"#utility.yul\":26945:26946   */\n      0x00\n        /* \"#utility.yul\":26937:26943   */\n      dup3\n        /* \"#utility.yul\":26933:26947   */\n      add\n        /* \"#utility.yul\":26926:26969   */\n      mstore\n        /* \"#utility.yul\":26809:26976   */\n      pop\n      jump\t// out\n        /* \"#utility.yul\":26982:27384   */\n    tag_368:\n        /* \"#utility.yul\":27142:27145   */\n      0x00\n        /* \"#utility.yul\":27163:27248   */\n      tag_625\n        /* \"#utility.yul\":27245:27247   */\n      0x11\n        /* \"#utility.yul\":27240:27243   */\n      dup4\n        /* \"#utility.yul\":27163:27248   */\n      tag_361\n      jump\t// in\n    tag_625:\n        /* \"#utility.yul\":27156:27248   */\n      swap2\n      pop\n        /* \"#utility.yul\":27257:27350   */\n      tag_626\n        /* \"#utility.yul\":27346:27349   */\n      dup3\n        /* \"#utility.yul\":27257:27350   */\n      tag_367\n      jump\t// in\n    tag_626:\n        /* \"#utility.yul\":27375:27377   */\n      0x11\n        /* \"#utility.yul\":27370:27373   */\n      dup3\n        /* \"#utility.yul\":27366:27378   */\n      add\n        /* \"#utility.yul\":27359:27378   */\n      swap1\n      pop\n        /* \"#utility.yul\":26982:27384   */\n      swap2\n      swap1\n      pop\n      jump\t// out\n        /* \"#utility.yul\":27390:28357   */\n    tag_267:\n        /* \"#utility.yul\":27772:27775   */\n      0x00\n        /* \"#utility.yul\":27794:27942   */\n      tag_628\n        /* \"#utility.yul\":27938:27941   */\n      dup3\n        /* \"#utility.yul\":27794:27942   */\n      tag_363\n      jump\t// in\n    tag_628:\n        /* \"#utility.yul\":27787:27942   */\n      swap2\n      pop\n        /* \"#utility.yul\":27959:28054   */\n      tag_629\n        /* \"#utility.yul\":28050:28053   */\n      dup3\n        /* \"#utility.yul\":28041:28047   */\n      dup6\n        /* \"#utility.yul\":27959:28054   */\n      tag_366\n      jump\t// in\n    tag_629:\n        /* \"#utility.yul\":27952:28054   */\n      swap2\n      pop\n        /* \"#utility.yul\":28071:28219   */\n      tag_630\n        /* \"#utility.yul\":28215:28218   */\n      dup3\n        /* \"#utility.yul\":28071:28219   */\n      tag_368\n      jump\t// in\n    tag_630:\n        /* \"#utility.yul\":28064:28219   */\n      swap2\n      pop\n        /* \"#utility.yul\":28236:28331   */\n      tag_631\n        /* \"#utility.yul\":28327:28330   */\n      dup3\n        /* \"#utility.yul\":28318:28324   */\n      dup5\n        /* \"#utility.yul\":28236:28331   */\n      tag_366\n      jump\t// in\n    tag_631:\n        /* \"#utility.yul\":28229:28331   */\n      swap2\n      pop\n        /* \"#utility.yul\":28348:28351   */\n      dup2\n        /* \"#utility.yul\":28341:28351   */\n      swap1\n      pop\n        /* \"#utility.yul\":27390:28357   */\n      swap4\n      swap3\n      pop\n      pop\n      pop\n      jump\t// out\n        /* \"#utility.yul\":28363:28465   */\n    tag_369:\n        /* \"#utility.yul\":28404:28410   */\n      0x00\n        /* \"#utility.yul\":28455:28457   */\n      0x1f\n        /* \"#utility.yul\":28451:28458   */\n      not\n        /* \"#utility.yul\":28446:28448   */\n      0x1f\n        /* \"#utility.yul\":28439:28444   */\n      dup4\n        /* \"#utility.yul\":28435:28449   */\n      add\n        /* \"#utility.yul\":28431:28459   */\n      and\n        /* \"#utility.yul\":28421:28459   */\n      swap1\n      pop\n        /* \"#utility.yul\":28363:28465   */\n      swap2\n      swap1\n      pop\n      jump\t// out\n        /* \"#utility.yul\":28471:28848   */\n    tag_370:\n        /* \"#utility.yul\":28559:28562   */\n      0x00\n        /* \"#utility.yul\":28587:28626   */\n      tag_634\n        /* \"#utility.yul\":28620:28625   */\n      dup3\n        /* \"#utility.yul\":28587:28626   */\n      tag_364\n      jump\t// in\n    tag_634:\n        /* \"#utility.yul\":28642:28713   */\n      tag_635\n        /* \"#utility.yul\":28706:28712   */\n      dup2\n        /* \"#utility.yul\":28701:28704   */\n      dup6\n        /* \"#utility.yul\":28642:28713   */\n      tag_333\n      jump\t// in\n    tag_635:\n        /* \"#utility.yul\":28635:28713   */\n      swap4\n      pop\n        /* \"#utility.yul\":28722:28787   */\n      tag_636\n        /* \"#utility.yul\":28780:28786   */\n      dup2\n        /* \"#utility.yul\":28775:28778   */\n      dup6\n        /* \"#utility.yul\":28768:28772   */\n      0x20\n        /* \"#utility.yul\":28761:28766   */\n      dup7\n        /* \"#utility.yul\":28757:28773   */\n      add\n        /* \"#utility.yul\":28722:28787   */\n      tag_365\n      jump\t// in\n    tag_636:\n        /* \"#utility.yul\":28812:28841   */\n      tag_637\n        /* \"#utility.yul\":28834:28840   */\n      dup2\n        /* \"#utility.yul\":28812:28841   */\n      tag_369\n      jump\t// in\n    tag_637:\n        /* \"#utility.yul\":28807:28810   */\n      dup5\n        /* \"#utility.yul\":28803:28842   */\n      add\n        /* \"#utility.yul\":28796:28842   */\n      swap2\n      pop\n        /* \"#utility.yul\":28563:28848   */\n      pop\n        /* \"#utility.yul\":28471:28848   */\n      swap3\n      swap2\n      pop\n      pop\n      jump\t// out\n        /* \"#utility.yul\":28854:29167   */\n    tag_269:\n        /* \"#utility.yul\":28967:28971   */\n      0x00\n        /* \"#utility.yul\":29005:29007   */\n      0x20\n        /* \"#utility.yul\":28994:29003   */\n      dup3\n        /* \"#utility.yul\":28990:29008   */\n      add\n        /* \"#utility.yul\":28982:29008   */\n      swap1\n      pop\n        /* \"#utility.yul\":29054:29063   */\n      dup2\n        /* \"#utility.yul\":29048:29052   */\n      dup2\n        /* \"#utility.yul\":29044:29064   */\n      sub\n        /* \"#utility.yul\":29040:29041   */\n      0x00\n        /* \"#utility.yul\":29029:29038   */\n      dup4\n        /* \"#utility.yul\":29025:29042   */\n      add\n        /* \"#utility.yul\":29018:29065   */\n      mstore\n        /* \"#utility.yul\":29082:29160   */\n      tag_639\n        /* \"#utility.yul\":29155:29159   */\n      dup2\n        /* \"#utility.yul\":29146:29152   */\n      dup5\n        /* \"#utility.yul\":29082:29160   */\n      tag_370\n      jump\t// in\n    tag_639:\n        /* \"#utility.yul\":29074:29160   */\n      swap1\n      pop\n        /* \"#utility.yul\":28854:29167   */\n      swap3\n      swap2\n      pop\n      pop\n      jump\t// out\n        /* \"#utility.yul\":29173:29353   */\n    tag_277:\n        /* \"#utility.yul\":29221:29298   */\n      0x4e487b7100000000000000000000000000000000000000000000000000000000\n        /* \"#utility.yul\":29218:29219   */\n      0x00\n        /* \"#utility.yul\":29211:29299   */\n      mstore\n        /* \"#utility.yul\":29318:29322   */\n      0x41\n        /* \"#utility.yul\":29315:29316   */\n      0x04\n        /* \"#utility.yul\":29308:29323   */\n      mstore\n        /* \"#utility.yul\":29342:29346   */\n      0x24\n        /* \"#utility.yul\":29339:29340   */\n      0x00\n        /* \"#utility.yul\":29332:29347   */\n      revert\n        /* \"#utility.yul\":29359:29539   */\n    tag_281:\n        /* \"#utility.yul\":29407:29484   */\n      0x4e487b7100000000000000000000000000000000000000000000000000000000\n        /* \"#utility.yul\":29404:29405   */\n      0x00\n        /* \"#utility.yul\":29397:29485   */\n      mstore\n        /* \"#utility.yul\":29504:29508   */\n      0x32\n        /* \"#utility.yul\":29501:29502   */\n      0x04\n        /* \"#utility.yul\":29494:29509   */\n      mstore\n        /* \"#utility.yul\":29528:29532   */\n      0x24\n        /* \"#utility.yul\":29525:29526   */\n      0x00\n        /* \"#utility.yul\":29518:29533   */\n      revert\n        /* \"#utility.yul\":29545:29716   */\n    tag_294:\n        /* \"#utility.yul\":29584:29587   */\n      0x00\n        /* \"#utility.yul\":29607:29631   */\n      tag_643\n        /* \"#utility.yul\":29625:29630   */\n      dup3\n        /* \"#utility.yul\":29607:29631   */\n      tag_306\n      jump\t// in\n    tag_643:\n        /* \"#utility.yul\":29598:29631   */\n      swap2\n      pop\n        /* \"#utility.yul\":29653:29657   */\n      0x00\n        /* \"#utility.yul\":29646:29651   */\n      dup3\n        /* \"#utility.yul\":29643:29658   */\n      sub\n        /* \"#utility.yul\":29640:29681   */\n      tag_644\n      jumpi\n        /* \"#utility.yul\":29661:29679   */\n      tag_645\n      tag_338\n      jump\t// in\n    tag_645:\n        /* \"#utility.yul\":29640:29681   */\n    tag_644:\n        /* \"#utility.yul\":29708:29709   */\n      0x01\n        /* \"#utility.yul\":29701:29706   */\n      dup3\n        /* \"#utility.yul\":29697:29710   */\n      sub\n        /* \"#utility.yul\":29690:29710   */\n      swap1\n      pop\n        /* \"#utility.yul\":29545:29716   */\n      swap2\n      swap1\n      pop\n      jump\t// out\n        /* \"#utility.yul\":29722:29904   */\n    tag_371:\n        /* \"#utility.yul\":29862:29896   */\n      0x537472696e67733a20686578206c656e67746820696e73756666696369656e74\n        /* \"#utility.yul\":29858:29859   */\n      0x00\n        /* \"#utility.yul\":29850:29856   */\n      dup3\n        /* \"#utility.yul\":29846:29860   */\n      add\n        /* \"#utility.yul\":29839:29897   */\n      mstore\n        /* \"#utility.yul\":29722:29904   */\n      pop\n      jump\t// out\n        /* \"#utility.yul\":29910:30276   */\n    tag_372:\n        /* \"#utility.yul\":30052:30055   */\n      0x00\n        /* \"#utility.yul\":30073:30140   */\n      tag_648\n        /* \"#utility.yul\":30137:30139   */\n      0x20\n        /* \"#utility.yul\":30132:30135   */\n      dup4\n        /* \"#utility.yul\":30073:30140   */\n      tag_333\n      jump\t// in\n    tag_648:\n        /* \"#utility.yul\":30066:30140   */\n      swap2\n      pop\n        /* \"#utility.yul\":30149:30242   */\n      tag_649\n        /* \"#utility.yul\":30238:30241   */\n      dup3\n        /* \"#utility.yul\":30149:30242   */\n      tag_371\n      jump\t// in\n    tag_649:\n        /* \"#utility.yul\":30267:30269   */\n      0x20\n        /* \"#utility.yul\":30262:30265   */\n      dup3\n        /* \"#utility.yul\":30258:30270   */\n      add\n        /* \"#utility.yul\":30251:30270   */\n      swap1\n      pop\n        /* \"#utility.yul\":29910:30276   */\n      swap2\n      swap1\n      pop\n      jump\t// out\n        /* \"#utility.yul\":30282:30701   */\n    tag_297:\n        /* \"#utility.yul\":30448:30452   */\n      0x00\n        /* \"#utility.yul\":30486:30488   */\n      0x20\n        /* \"#utility.yul\":30475:30484   */\n      dup3\n        /* \"#utility.yul\":30471:30489   */\n      add\n        /* \"#utility.yul\":30463:30489   */\n      swap1\n      pop\n        /* \"#utility.yul\":30535:30544   */\n      dup2\n        /* \"#utility.yul\":30529:30533   */\n      dup2\n        /* \"#utility.yul\":30525:30545   */\n      sub\n        /* \"#utility.yul\":30521:30522   */\n      0x00\n        /* \"#utility.yul\":30510:30519   */\n      dup4\n        /* \"#utility.yul\":30506:30523   */\n      add\n        /* \"#utility.yul\":30499:30546   */\n      mstore\n        /* \"#utility.yul\":30563:30694   */\n      tag_651\n        /* \"#utility.yul\":30689:30693   */\n      dup2\n        /* \"#utility.yul\":30563:30694   */\n      tag_372\n      jump\t// in\n    tag_651:\n        /* \"#utility.yul\":30555:30694   */\n      swap1\n      pop\n        /* \"#utility.yul\":30282:30701   */\n      swap2\n      swap1\n      pop\n      jump\t// out\n\n    auxdata: 0xa2646970667358221220a765c11ed3949342ad53d1a9da39994dff752662b25b13a282a33fd5bc2ea90364736f6c63430008120033\n}\n",
				"bytecode": {
					"linkReferences": {},
					"object": "6080604052601460045560006005553480156200001b57600080fd5b50620000316000801b336200003760201b60201c565b620001b0565b6200004982826200004d60201b60201c565b5050565b6200005f82826200013e60201b60201c565b6200013a57600160008084815260200190815260200160002060000160008373ffffffffffffffffffffffffffffffffffffffff1673ffffffffffffffffffffffffffffffffffffffff16815260200190815260200160002060006101000a81548160ff021916908315150217905550620000df620001a860201b60201c565b73ffffffffffffffffffffffffffffffffffffffff168173ffffffffffffffffffffffffffffffffffffffff16837f2f8788117e7eff1d82e926ec794901d17c78024a50270940304540a733656f0d60405160405180910390a45b5050565b600080600084815260200190815260200160002060000160008373ffffffffffffffffffffffffffffffffffffffff1673ffffffffffffffffffffffffffffffffffffffff16815260200190815260200160002060009054906101000a900460ff16905092915050565b600033905090565b6129b480620001c06000396000f3fe608060405234801561001057600080fd5b50600436106101375760003560e01c80636ffcc719116100b8578063a217fddf1161007c578063a217fddf1461038c578063ce33bd74146103aa578063d547741f146103da578063d82c13f0146103f6578063e5ed1d5914610426578063ee9b80a41461045657610137565b80636ffcc719146102d25780637fd6f15c14610302578063853828b61461032057806391d148541461033e5780639bc01b361461036e57610137565b80632f2ff15d116100ff5780632f2ff15d1461022e57806334fcc3e71461024a57806336568abe1461027a57806337bfc1ef1461029657806355a373d6146102b457610137565b806301ffc9a71461013c578063117a5b901461016c57806316b169c41461019e578063248a9ca3146101ce5780632c32b187146101fe575b600080fd5b61015660048036038101906101519190611aad565b610486565b6040516101639190611af5565b60405180910390f35b61018660048036038101906101819190611b46565b610500565b60405161019593929190611bc3565b60405180910390f35b6101b860048036038101906101b39190611b46565b610557565b6040516101c59190611cb8565b60405180910390f35b6101e860048036038101906101e39190611d10565b61065e565b6040516101f59190611d4c565b60405180910390f35b61021860048036038101906102139190611d93565b61067d565b6040516102259190611dd3565b60405180910390f35b61024860048036038101906102439190611dee565b610a65565b005b610264600480360381019061025f9190611d93565b610a86565b6040516102719190611dd3565b60405180910390f35b610294600480360381019061028f9190611dee565b610b47565b005b61029e610bca565b6040516102ab9190611dd3565b60405180910390f35b6102bc610bd0565b6040516102c99190611e2e565b60405180910390f35b6102ec60048036038101906102e79190611e49565b610bf6565b6040516102f99190611af5565b60405180910390f35b61030a61106c565b6040516103179190611dd3565b60405180910390f35b610328611072565b6040516103359190611dd3565b60405180910390f35b61035860048036038101906103539190611dee565b6111f1565b6040516103659190611af5565b60405180910390f35b61037661125b565b6040516103839190611f47565b60405180910390f35b6103946112b3565b6040516103a19190611d4c565b60405180910390f35b6103c460048036038101906103bf9190611b46565b6112ba565b6040516103d19190611dd3565b60405180910390f35b6103f460048036038101906103ef9190611dee565b61137a565b005b610410600480360381019061040b9190611b46565b61139b565b60405161041d9190611dd3565b60405180910390f35b610440600480360381019061043b9190611b46565b6113bf565b60405161044d9190611af5565b60405180910390f35b610470600480360381019061046b9190611f69565b6114c1565b60405161047d9190611af5565b60405180910390f35b60007f7965db0b000000000000000000000000000000000000000000000000000000007bffffffffffffffffffffffffffffffffffffffffffffffffffffffff1916827bffffffffffffffffffffffffffffffffffffffffffffffffffffffff191614806104f957506104f88261151b565b5b9050919050565b60016020528060005260406000206000915090508060000160009054906101000a900460ff16908060020154908060040160009054906101000a900473ffffffffffffffffffffffffffffffffffffffff16905083565b60606001600083815260200190815260200160002060000160009054906101000a900460ff166105bc576040517f08c379a00000000000000000000000000000000000000000000000000000000081526004016105b390611ff3565b60405180910390fd5b6001600083815260200190815260200160002060030180548060200260200160405190810160405280929190818152602001828054801561065257602002820191906000526020600020905b8160009054906101000a900473ffffffffffffffffffffffffffffffffffffffff1673ffffffffffffffffffffffffffffffffffffffff1681526020019060010190808311610608575b50505050509050919050565b6000806000838152602001908152602001600020600101549050919050565b60008060001b61068c81611585565b6001600085815260200190815260200160002060000160009054906101000a900460ff166106ef576040517f08c379a00000000000000000000000000000000000000000000000000000000081526004016106e690611ff3565b60405180910390fd5b600073ffffffffffffffffffffffffffffffffffffffff166001600086815260200190815260200160002060040160009054906101000a900473ffffffffffffffffffffffffffffffffffffffff1673ffffffffffffffffffffffffffffffffffffffff1614610794576040517f08c379a000000000000000000000000000000000000000000000000000000000815260040161078b9061205f565b60405180910390fd5b826001600086815260200190815260200160002060040160006101000a81548173ffffffffffffffffffffffffffffffffffffffff021916908373ffffffffffffffffffffffffffffffffffffffff160217905550600060646001600087815260200190815260200160002060020154600454606461081391906120ae565b61081d91906120e2565b6108279190612153565b9050600081600160008881526020019081526020016000206002015461084d91906120ae565b9050600160008781526020019081526020016000206002015482826108729190612184565b146108b2576040517f08c379a00000000000000000000000000000000000000000000000000000000081526004016108a990612204565b60405180910390fd5b600082101580156108c4575060008110155b80156108e757506000600160008881526020019081526020016000206002015410155b610926576040517f08c379a000000000000000000000000000000000000000000000000000000000815260040161091d90612270565b60405180910390fd5b600360009054906101000a900473ffffffffffffffffffffffffffffffffffffffff1673ffffffffffffffffffffffffffffffffffffffff1663a9059cbb86846040518363ffffffff1660e01b8152600401610983929190612290565b6020604051808303816000875af11580156109a2573d6000803e3d6000fd5b505050506040513d601f19601f820116820180604052508101906109c691906122e5565b610a05576040517f08c379a00000000000000000000000000000000000000000000000000000000081526004016109fc9061235e565b60405180910390fd5b8060056000828254610a179190612184565b925050819055507f3b6f6a175407b0e278b9798f8be45bcc2cdba01a995bf768f528b457d7e27e85858383604051610a519392919061237e565b60405180910390a181935050505092915050565b610a6e8261065e565b610a7781611585565b610a818383611599565b505050565b60006001600084815260200190815260200160002060000160009054906101000a900460ff16610aeb576040517f08c379a0000000000000000000000000000000000000000000000000000000008152600401610ae290611ff3565b60405180910390fd5b6001600084815260200190815260200160002060010160008373ffffffffffffffffffffffffffffffffffffffff1673ffffffffffffffffffffffffffffffffffffffff16815260200190815260200160002054905092915050565b610b4f611679565b73ffffffffffffffffffffffffffffffffffffffff168173ffffffffffffffffffffffffffffffffffffffff1614610bbc576040517f08c379a0000000000000000000000000000000000000000000000000000000008152600401610bb390612427565b60405180910390fd5b610bc68282611681565b5050565b60055481565b600360009054906101000a900473ffffffffffffffffffffffffffffffffffffffff1681565b60006001600084815260200190815260200160002060000160009054906101000a900460ff16610c5b576040517f08c379a0000000000000000000000000000000000000000000000000000000008152600401610c5290611ff3565b60405180910390fd5b600073ffffffffffffffffffffffffffffffffffffffff166001600085815260200190815260200160002060040160009054906101000a900473ffffffffffffffffffffffffffffffffffffffff1673ffffffffffffffffffffffffffffffffffffffff1614610d00576040517f08c379a0000000000000000000000000000000000000000000000000000000008152600401610cf79061205f565b60405180910390fd5b81600360009054906101000a900473ffffffffffffffffffffffffffffffffffffffff1673ffffffffffffffffffffffffffffffffffffffff166370a08231336040518263ffffffff1660e01b8152600401610d5c9190611e2e565b602060405180830381865afa158015610d79573d6000803e3d6000fd5b505050506040513d601f19601f82011682018060405250810190610d9d919061245c565b1015610dde576040517f08c379a0000000000000000000000000000000000000000000000000000000008152600401610dd5906124d5565b60405180910390fd5b600360009054906101000a900473ffffffffffffffffffffffffffffffffffffffff1673ffffffffffffffffffffffffffffffffffffffff166323b872dd3330856040518463ffffffff1660e01b8152600401610e3d939291906124f5565b6020604051808303816000875af1158015610e5c573d6000803e3d6000fd5b505050506040513d601f19601f82011682018060405250810190610e8091906122e5565b610ebf576040517f08c379a0000000000000000000000000000000000000000000000000000000008152600401610eb690612578565b60405180910390fd5b60006001600085815260200190815260200160002060010160003373ffffffffffffffffffffffffffffffffffffffff1673ffffffffffffffffffffffffffffffffffffffff1681526020019081526020016000205403610f925760016000848152602001908152602001600020600301339080600181540180825580915050600190039060005260206000200160009091909190916101000a81548173ffffffffffffffffffffffffffffffffffffffff021916908373ffffffffffffffffffffffffffffffffffffffff1602179055505b816001600085815260200190815260200160002060010160003373ffffffffffffffffffffffffffffffffffffffff1673ffffffffffffffffffffffffffffffffffffffff1681526020019081526020016000206000828254610ff59190612184565b92505081905550816001600085815260200190815260200160002060020160008282546110229190612184565b925050819055507ffb4c42ca2d93f0a673c2125aaa3c7b3fbeee9533e34b1f2c0f8f5c4d4d8bf106338360405161105a929190612290565b60405180910390a16001905092915050565b60045481565b60008060001b61108181611585565b6000600554116110c6576040517f08c379a00000000000000000000000000000000000000000000000000000000081526004016110bd906125e4565b60405180910390fd5b600360009054906101000a900473ffffffffffffffffffffffffffffffffffffffff1673ffffffffffffffffffffffffffffffffffffffff1663a9059cbb336005546040518363ffffffff1660e01b8152600401611125929190612290565b6020604051808303816000875af1158015611144573d6000803e3d6000fd5b505050506040513d601f19601f8201168201806040525081019061116891906122e5565b6111a7576040517f08c379a000000000000000000000000000000000000000000000000000000000815260040161119e90612650565b60405180910390fd5b600554915060006005819055507f884edad9ce6fa2440d8a54cc123490eb96d2768479d49ff9c7366125a942436433836040516111e5929190612290565b60405180910390a15090565b600080600084815260200190815260200160002060000160008373ffffffffffffffffffffffffffffffffffffffff1673ffffffffffffffffffffffffffffffffffffffff16815260200190815260200160002060009054906101000a900460ff16905092915050565b606060028054806020026020016040519081016040528092919081815260200182805480156112a957602002820191906000526020600020905b815481526020019060010190808311611295575b5050505050905090565b6000801b81565b60006001600083815260200190815260200160002060000160009054906101000a900460ff1661131f576040517f08c379a000000000000000000000000000000000000000000000000000000000815260040161131690611ff3565b60405180910390fd5b6001600083815260200190815260200160002060010160003373ffffffffffffffffffffffffffffffffffffffff1673ffffffffffffffffffffffffffffffffffffffff168152602001908152602001600020549050919050565b6113838261065e565b61138c81611585565b6113968383611681565b505050565b600281815481106113ab57600080fd5b906000526020600020016000915090505481565b60008015156001600084815260200190815260200160002060000160009054906101000a900460ff1615151461142a576040517f08c379a0000000000000000000000000000000000000000000000000000000008152600401611421906126bc565b60405180910390fd5b600180600084815260200190815260200160002060000160006101000a81548160ff02191690831515021790555060028290806001815401808255809150506001900390600052602060002001600090919091909150557fb5e8a4470f7bcac7f2c0f3e23471bd7016a9f6f049884cd27dfa8960f361287b826040516114b09190611dd3565b60405180910390a160019050919050565b60008060001b6114d081611585565b82600360006101000a81548173ffffffffffffffffffffffffffffffffffffffff021916908373ffffffffffffffffffffffffffffffffffffffff1602179055506001915050919050565b60007f01ffc9a7000000000000000000000000000000000000000000000000000000007bffffffffffffffffffffffffffffffffffffffffffffffffffffffff1916827bffffffffffffffffffffffffffffffffffffffffffffffffffffffff1916149050919050565b61159681611591611679565b611762565b50565b6115a382826111f1565b61167557600160008084815260200190815260200160002060000160008373ffffffffffffffffffffffffffffffffffffffff1673ffffffffffffffffffffffffffffffffffffffff16815260200190815260200160002060006101000a81548160ff02191690831515021790555061161a611679565b73ffffffffffffffffffffffffffffffffffffffff168173ffffffffffffffffffffffffffffffffffffffff16837f2f8788117e7eff1d82e926ec794901d17c78024a50270940304540a733656f0d60405160405180910390a45b5050565b600033905090565b61168b82826111f1565b1561175e57600080600084815260200190815260200160002060000160008373ffffffffffffffffffffffffffffffffffffffff1673ffffffffffffffffffffffffffffffffffffffff16815260200190815260200160002060006101000a81548160ff021916908315150217905550611703611679565b73ffffffffffffffffffffffffffffffffffffffff168173ffffffffffffffffffffffffffffffffffffffff16837ff6391f5c32d9c69d2a47ea670b442974b53935d1edc7fd64eb21e047a839171b60405160405180910390a45b5050565b61176c82826111f1565b6117e357611779816117e7565b6117878360001c6020611814565b6040516020016117989291906127e5565b6040516020818303038152906040526040517f08c379a00000000000000000000000000000000000000000000000000000000081526004016117da9190612869565b60405180910390fd5b5050565b606061180d8273ffffffffffffffffffffffffffffffffffffffff16601460ff16611814565b9050919050565b60606000600283600261182791906120e2565b6118319190612184565b67ffffffffffffffff81111561184a5761184961288b565b5b6040519080825280601f01601f19166020018201604052801561187c5781602001600182028036833780820191505090505b5090507f3000000000000000000000000000000000000000000000000000000000000000816000815181106118b4576118b36128ba565b5b60200101907effffffffffffffffffffffffffffffffffffffffffffffffffffffffffffff1916908160001a9053507f780000000000000000000000000000000000000000000000000000000000000081600181518110611918576119176128ba565b5b60200101907effffffffffffffffffffffffffffffffffffffffffffffffffffffffffffff1916908160001a9053506000600184600261195891906120e2565b6119629190612184565b90505b6001811115611a02577f3031323334353637383961626364656600000000000000000000000000000000600f8616601081106119a4576119a36128ba565b5b1a60f81b8282815181106119bb576119ba6128ba565b5b60200101907effffffffffffffffffffffffffffffffffffffffffffffffffffffffffffff1916908160001a905350600485901c9450806119fb906128e9565b9050611965565b5060008414611a46576040517f08c379a0000000000000000000000000000000000000000000000000000000008152600401611a3d9061295e565b60405180910390fd5b8091505092915050565b600080fd5b60007fffffffff0000000000000000000000000000000000000000000000000000000082169050919050565b611a8a81611a55565b8114611a9557600080fd5b50565b600081359050611aa781611a81565b92915050565b600060208284031215611ac357611ac2611a50565b5b6000611ad184828501611a98565b91505092915050565b60008115159050919050565b611aef81611ada565b82525050565b6000602082019050611b0a6000830184611ae6565b92915050565b6000819050919050565b611b2381611b10565b8114611b2e57600080fd5b50565b600081359050611b4081611b1a565b92915050565b600060208284031215611b5c57611b5b611a50565b5b6000611b6a84828501611b31565b91505092915050565b611b7c81611b10565b82525050565b600073ffffffffffffffffffffffffffffffffffffffff82169050919050565b6000611bad82611b82565b9050919050565b611bbd81611ba2565b82525050565b6000606082019050611bd86000830186611ae6565b611be56020830185611b73565b611bf26040830184611bb4565b949350505050565b600081519050919050565b600082825260208201905092915050565b6000819050602082019050919050565b611c2f81611ba2565b82525050565b6000611c418383611c26565b60208301905092915050565b6000602082019050919050565b6000611c6582611bfa565b611c6f8185611c05565b9350611c7a83611c16565b8060005b83811015611cab578151611c928882611c35565b9750611c9d83611c4d565b925050600181019050611c7e565b5085935050505092915050565b60006020820190508181036000830152611cd28184611c5a565b905092915050565b6000819050919050565b611ced81611cda565b8114611cf857600080fd5b50565b600081359050611d0a81611ce4565b92915050565b600060208284031215611d2657611d25611a50565b5b6000611d3484828501611cfb565b91505092915050565b611d4681611cda565b82525050565b6000602082019050611d616000830184611d3d565b92915050565b611d7081611ba2565b8114611d7b57600080fd5b50565b600081359050611d8d81611d67565b92915050565b60008060408385031215611daa57611da9611a50565b5b6000611db885828601611b31565b9250506020611dc985828601611d7e565b9150509250929050565b6000602082019050611de86000830184611b73565b92915050565b60008060408385031215611e0557611e04611a50565b5b6000611e1385828601611cfb565b9250506020611e2485828601611d7e565b9150509250929050565b6000602082019050611e436000830184611bb4565b92915050565b60008060408385031215611e6057611e5f611a50565b5b6000611e6e85828601611b31565b9250506020611e7f85828601611b31565b9150509250929050565b600081519050919050565b600082825260208201905092915050565b6000819050602082019050919050565b611ebe81611b10565b82525050565b6000611ed08383611eb5565b60208301905092915050565b6000602082019050919050565b6000611ef482611e89565b611efe8185611e94565b9350611f0983611ea5565b8060005b83811015611f3a578151611f218882611ec4565b9750611f2c83611edc565b925050600181019050611f0d565b5085935050505092915050565b60006020820190508181036000830152611f618184611ee9565b905092915050565b600060208284031215611f7f57611f7e611a50565b5b6000611f8d84828501611d7e565b91505092915050565b600082825260208201905092915050565b7f47616d6520496e697469616c697a656400000000000000000000000000000000600082015250565b6000611fdd601083611f96565b9150611fe882611fa7565b602082019050919050565b6000602082019050818103600083015261200c81611fd0565b9050919050565b7f46696e6973686564000000000000000000000000000000000000000000000000600082015250565b6000612049600883611f96565b915061205482612013565b602082019050919050565b600060208201905081810360008301526120788161203c565b9050919050565b7f4e487b7100000000000000000000000000000000000000000000000000000000600052601160045260246000fd5b60006120b982611b10565b91506120c483611b10565b92508282039050818111156120dc576120db61207f565b5b92915050565b60006120ed82611b10565b91506120f883611b10565b925082820261210681611b10565b9150828204841483151761211d5761211c61207f565b5b5092915050565b7f4e487b7100000000000000000000000000000000000000000000000000000000600052601260045260246000fd5b600061215e82611b10565b915061216983611b10565b92508261217957612178612124565b5b828204905092915050565b600061218f82611b10565b915061219a83611b10565b92508282019050808211156121b2576121b161207f565b5b92915050565b7f726577617264202b20666565203d20746f74616c000000000000000000000000600082015250565b60006121ee601483611f96565b91506121f9826121b8565b602082019050919050565b6000602082019050818103600083015261221d816121e1565b9050919050565b7f616c6c20706f7369746976650000000000000000000000000000000000000000600082015250565b600061225a600c83611f96565b915061226582612224565b602082019050919050565b600060208201905081810360008301526122898161224d565b9050919050565b60006040820190506122a56000830185611bb4565b6122b26020830184611b73565b9392505050565b6122c281611ada565b81146122cd57600080fd5b50565b6000815190506122df816122b9565b92915050565b6000602082840312156122fb576122fa611a50565b5b6000612309848285016122d0565b91505092915050565b7f5265776172642073686f756c6420737563636573730000000000000000000000600082015250565b6000612348601583611f96565b915061235382612312565b602082019050919050565b600060208201905081810360008301526123778161233b565b9050919050565b60006060820190506123936000830186611bb4565b6123a06020830185611b73565b6123ad6040830184611b73565b949350505050565b7f416363657373436f6e74726f6c3a2063616e206f6e6c792072656e6f756e636560008201527f20726f6c657320666f722073656c660000000000000000000000000000000000602082015250565b6000612411602f83611f96565b915061241c826123b5565b604082019050919050565b6000602082019050818103600083015261244081612404565b9050919050565b60008151905061245681611b1a565b92915050565b60006020828403121561247257612471611a50565b5b600061248084828501612447565b91505092915050565b7f456e6f7567682062616c616e6365000000000000000000000000000000000000600082015250565b60006124bf600e83611f96565b91506124ca82612489565b602082019050919050565b600060208201905081810360008301526124ee816124b2565b9050919050565b600060608201905061250a6000830186611bb4565b6125176020830185611bb4565b6125246040830184611b73565b949350505050565b7f5472616e736665722073686f756c642073756363657373000000000000000000600082015250565b6000612562601783611f96565b915061256d8261252c565b602082019050919050565b6000602082019050818103600083015261259181612555565b9050919050565b7f4e6f206665650000000000000000000000000000000000000000000000000000600082015250565b60006125ce600683611f96565b91506125d982612598565b602082019050919050565b600060208201905081810360008301526125fd816125c1565b9050919050565b7f7472616e73666572206665650000000000000000000000000000000000000000600082015250565b600061263a600c83611f96565b915061264582612604565b602082019050919050565b600060208201905081810360008301526126698161262d565b9050919050565b7f47616d6520657869737473000000000000000000000000000000000000000000600082015250565b60006126a6600b83611f96565b91506126b182612670565b602082019050919050565b600060208201905081810360008301526126d581612699565b9050919050565b600081905092915050565b7f416363657373436f6e74726f6c3a206163636f756e7420000000000000000000600082015250565b600061271d6017836126dc565b9150612728826126e7565b601782019050919050565b600081519050919050565b60005b8381101561275c578082015181840152602081019050612741565b60008484015250505050565b600061277382612733565b61277d81856126dc565b935061278d81856020860161273e565b80840191505092915050565b7f206973206d697373696e6720726f6c6520000000000000000000000000000000600082015250565b60006127cf6011836126dc565b91506127da82612799565b601182019050919050565b60006127f082612710565b91506127fc8285612768565b9150612807826127c2565b91506128138284612768565b91508190509392505050565b6000601f19601f8301169050919050565b600061283b82612733565b6128458185611f96565b935061285581856020860161273e565b61285e8161281f565b840191505092915050565b600060208201905081810360008301526128838184612830565b905092915050565b7f4e487b7100000000000000000000000000000000000000000000000000000000600052604160045260246000fd5b7f4e487b7100000000000000000000000000000000000000000000000000000000600052603260045260246000fd5b60006128f482611b10565b9150600082036129075761290661207f565b5b600182039050919050565b7f537472696e67733a20686578206c656e67746820696e73756666696369656e74600082015250565b6000612948602083611f96565b915061295382612912565b602082019050919050565b600060208201905081810360008301526129778161293b565b905091905056fea2646970667358221220a765c11ed3949342ad53d1a9da39994dff752662b25b13a282a33fd5bc2ea90364736f6c63430008120033",
					"opcodes": "PUSH1 0x80 PUSH1 0x40 MSTORE PUSH1 0x14 PUSH1 0x4 SSTORE PUSH1 0x0 PUSH1 0x5 SSTORE CALLVALUE DUP1 ISZERO PUSH3 0x1B JUMPI PUSH1 0x0 DUP1 REVERT JUMPDEST POP PUSH3 0x31 PUSH1 0x0 DUP1 SHL CALLER PUSH3 0x37 PUSH1 0x20 SHL PUSH1 0x20 SHR JUMP JUMPDEST PUSH3 0x1B0 JUMP JUMPDEST PUSH3 0x49 DUP3 DUP3 PUSH3 0x4D PUSH1 0x20 SHL PUSH1 0x20 SHR JUMP JUMPDEST POP POP JUMP JUMPDEST PUSH3 0x5F DUP3 DUP3 PUSH3 0x13E PUSH1 0x20 SHL PUSH1 0x20 SHR JUMP JUMPDEST PUSH3 0x13A JUMPI PUSH1 0x1 PUSH1 0x0 DUP1 DUP5 DUP2 MSTORE PUSH1 0x20 ADD SWAP1 DUP2 MSTORE PUSH1 0x20 ADD PUSH1 0x0 KECCAK256 PUSH1 0x0 ADD PUSH1 0x0 DUP4 PUSH20 0xFFFFFFFFFFFFFFFFFFFFFFFFFFFFFFFFFFFFFFFF AND PUSH20 0xFFFFFFFFFFFFFFFFFFFFFFFFFFFFFFFFFFFFFFFF AND DUP2 MSTORE PUSH1 0x20 ADD SWAP1 DUP2 MSTORE PUSH1 0x20 ADD PUSH1 0x0 KECCAK256 PUSH1 0x0 PUSH2 0x100 EXP DUP2 SLOAD DUP2 PUSH1 0xFF MUL NOT AND SWAP1 DUP4 ISZERO ISZERO MUL OR SWAP1 SSTORE POP PUSH3 0xDF PUSH3 0x1A8 PUSH1 0x20 SHL PUSH1 0x20 SHR JUMP JUMPDEST PUSH20 0xFFFFFFFFFFFFFFFFFFFFFFFFFFFFFFFFFFFFFFFF AND DUP2 PUSH20 0xFFFFFFFFFFFFFFFFFFFFFFFFFFFFFFFFFFFFFFFF AND DUP4 PUSH32 0x2F8788117E7EFF1D82E926EC794901D17C78024A50270940304540A733656F0D PUSH1 0x40 MLOAD PUSH1 0x40 MLOAD DUP1 SWAP2 SUB SWAP1 LOG4 JUMPDEST POP POP JUMP JUMPDEST PUSH1 0x0 DUP1 PUSH1 0x0 DUP5 DUP2 MSTORE PUSH1 0x20 ADD SWAP1 DUP2 MSTORE PUSH1 0x20 ADD PUSH1 0x0 KECCAK256 PUSH1 0x0 ADD PUSH1 0x0 DUP4 PUSH20 0xFFFFFFFFFFFFFFFFFFFFFFFFFFFFFFFFFFFFFFFF AND PUSH20 0xFFFFFFFFFFFFFFFFFFFFFFFFFFFFFFFFFFFFFFFF AND DUP2 MSTORE PUSH1 0x20 ADD SWAP1 DUP2 MSTORE PUSH1 0x20 ADD PUSH1 0x0 KECCAK256 PUSH1 0x0 SWAP1 SLOAD SWAP1 PUSH2 0x100 EXP SWAP1 DIV PUSH1 0xFF AND SWAP1 POP SWAP3 SWAP2 POP POP JUMP JUMPDEST PUSH1 0x0 CALLER SWAP1 POP SWAP1 JUMP JUMPDEST PUSH2 0x29B4 DUP1 PUSH3 0x1C0 PUSH1 0x0 CODECOPY PUSH1 0x0 RETURN INVALID PUSH1 0x80 PUSH1 0x40 MSTORE CALLVALUE DUP1 ISZERO PUSH2 0x10 JUMPI PUSH1 0x0 DUP1 REVERT JUMPDEST POP PUSH1 0x4 CALLDATASIZE LT PUSH2 0x137 JUMPI PUSH1 0x0 CALLDATALOAD PUSH1 0xE0 SHR DUP1 PUSH4 0x6FFCC719 GT PUSH2 0xB8 JUMPI DUP1 PUSH4 0xA217FDDF GT PUSH2 0x7C JUMPI DUP1 PUSH4 0xA217FDDF EQ PUSH2 0x38C JUMPI DUP1 PUSH4 0xCE33BD74 EQ PUSH2 0x3AA JUMPI DUP1 PUSH4 0xD547741F EQ PUSH2 0x3DA JUMPI DUP1 PUSH4 0xD82C13F0 EQ PUSH2 0x3F6 JUMPI DUP1 PUSH4 0xE5ED1D59 EQ PUSH2 0x426 JUMPI DUP1 PUSH4 0xEE9B80A4 EQ PUSH2 0x456 JUMPI PUSH2 0x137 JUMP JUMPDEST DUP1 PUSH4 0x6FFCC719 EQ PUSH2 0x2D2 JUMPI DUP1 PUSH4 0x7FD6F15C EQ PUSH2 0x302 JUMPI DUP1 PUSH4 0x853828B6 EQ PUSH2 0x320 JUMPI DUP1 PUSH4 0x91D14854 EQ PUSH2 0x33E JUMPI DUP1 PUSH4 0x9BC01B36 EQ PUSH2 0x36E JUMPI PUSH2 0x137 JUMP JUMPDEST DUP1 PUSH4 0x2F2FF15D GT PUSH2 0xFF JUMPI DUP1 PUSH4 0x2F2FF15D EQ PUSH2 0x22E JUMPI DUP1 PUSH4 0x34FCC3E7 EQ PUSH2 0x24A JUMPI DUP1 PUSH4 0x36568ABE EQ PUSH2 0x27A JUMPI DUP1 PUSH4 0x37BFC1EF EQ PUSH2 0x296 JUMPI DUP1 PUSH4 0x55A373D6 EQ PUSH2 0x2B4 JUMPI PUSH2 0x137 JUMP JUMPDEST DUP1 PUSH4 0x1FFC9A7 EQ PUSH2 0x13C JUMPI DUP1 PUSH4 0x117A5B90 EQ PUSH2 0x16C JUMPI DUP1 PUSH4 0x16B169C4 EQ PUSH2 0x19E JUMPI DUP1 PUSH4 0x248A9CA3 EQ PUSH2 0x1CE JUMPI DUP1 PUSH4 0x2C32B187 EQ PUSH2 0x1FE JUMPI JUMPDEST PUSH1 0x0 DUP1 REVERT JUMPDEST PUSH2 0x156 PUSH1 0x4 DUP1 CALLDATASIZE SUB DUP2 ADD SWAP1 PUSH2 0x151 SWAP2 SWAP1 PUSH2 0x1AAD JUMP JUMPDEST PUSH2 0x486 JUMP JUMPDEST PUSH1 0x40 MLOAD PUSH2 0x163 SWAP2 SWAP1 PUSH2 0x1AF5 JUMP JUMPDEST PUSH1 0x40 MLOAD DUP1 SWAP2 SUB SWAP1 RETURN JUMPDEST PUSH2 0x186 PUSH1 0x4 DUP1 CALLDATASIZE SUB DUP2 ADD SWAP1 PUSH2 0x181 SWAP2 SWAP1 PUSH2 0x1B46 JUMP JUMPDEST PUSH2 0x500 JUMP JUMPDEST PUSH1 0x40 MLOAD PUSH2 0x195 SWAP4 SWAP3 SWAP2 SWAP1 PUSH2 0x1BC3 JUMP JUMPDEST PUSH1 0x40 MLOAD DUP1 SWAP2 SUB SWAP1 RETURN JUMPDEST PUSH2 0x1B8 PUSH1 0x4 DUP1 CALLDATASIZE SUB DUP2 ADD SWAP1 PUSH2 0x1B3 SWAP2 SWAP1 PUSH2 0x1B46 JUMP JUMPDEST PUSH2 0x557 JUMP JUMPDEST PUSH1 0x40 MLOAD PUSH2 0x1C5 SWAP2 SWAP1 PUSH2 0x1CB8 JUMP JUMPDEST PUSH1 0x40 MLOAD DUP1 SWAP2 SUB SWAP1 RETURN JUMPDEST PUSH2 0x1E8 PUSH1 0x4 DUP1 CALLDATASIZE SUB DUP2 ADD SWAP1 PUSH2 0x1E3 SWAP2 SWAP1 PUSH2 0x1D10 JUMP JUMPDEST PUSH2 0x65E JUMP JUMPDEST PUSH1 0x40 MLOAD PUSH2 0x1F5 SWAP2 SWAP1 PUSH2 0x1D4C JUMP JUMPDEST PUSH1 0x40 MLOAD DUP1 SWAP2 SUB SWAP1 RETURN JUMPDEST PUSH2 0x218 PUSH1 0x4 DUP1 CALLDATASIZE SUB DUP2 ADD SWAP1 PUSH2 0x213 SWAP2 SWAP1 PUSH2 0x1D93 JUMP JUMPDEST PUSH2 0x67D JUMP JUMPDEST PUSH1 0x40 MLOAD PUSH2 0x225 SWAP2 SWAP1 PUSH2 0x1DD3 JUMP JUMPDEST PUSH1 0x40 MLOAD DUP1 SWAP2 SUB SWAP1 RETURN JUMPDEST PUSH2 0x248 PUSH1 0x4 DUP1 CALLDATASIZE SUB DUP2 ADD SWAP1 PUSH2 0x243 SWAP2 SWAP1 PUSH2 0x1DEE JUMP JUMPDEST PUSH2 0xA65 JUMP JUMPDEST STOP JUMPDEST PUSH2 0x264 PUSH1 0x4 DUP1 CALLDATASIZE SUB DUP2 ADD SWAP1 PUSH2 0x25F SWAP2 SWAP1 PUSH2 0x1D93 JUMP JUMPDEST PUSH2 0xA86 JUMP JUMPDEST PUSH1 0x40 MLOAD PUSH2 0x271 SWAP2 SWAP1 PUSH2 0x1DD3 JUMP JUMPDEST PUSH1 0x40 MLOAD DUP1 SWAP2 SUB SWAP1 RETURN JUMPDEST PUSH2 0x294 PUSH1 0x4 DUP1 CALLDATASIZE SUB DUP2 ADD SWAP1 PUSH2 0x28F SWAP2 SWAP1 PUSH2 0x1DEE JUMP JUMPDEST PUSH2 0xB47 JUMP JUMPDEST STOP JUMPDEST PUSH2 0x29E PUSH2 0xBCA JUMP JUMPDEST PUSH1 0x40 MLOAD PUSH2 0x2AB SWAP2 SWAP1 PUSH2 0x1DD3 JUMP JUMPDEST PUSH1 0x40 MLOAD DUP1 SWAP2 SUB SWAP1 RETURN JUMPDEST PUSH2 0x2BC PUSH2 0xBD0 JUMP JUMPDEST PUSH1 0x40 MLOAD PUSH2 0x2C9 SWAP2 SWAP1 PUSH2 0x1E2E JUMP JUMPDEST PUSH1 0x40 MLOAD DUP1 SWAP2 SUB SWAP1 RETURN JUMPDEST PUSH2 0x2EC PUSH1 0x4 DUP1 CALLDATASIZE SUB DUP2 ADD SWAP1 PUSH2 0x2E7 SWAP2 SWAP1 PUSH2 0x1E49 JUMP JUMPDEST PUSH2 0xBF6 JUMP JUMPDEST PUSH1 0x40 MLOAD PUSH2 0x2F9 SWAP2 SWAP1 PUSH2 0x1AF5 JUMP JUMPDEST PUSH1 0x40 MLOAD DUP1 SWAP2 SUB SWAP1 RETURN JUMPDEST PUSH2 0x30A PUSH2 0x106C JUMP JUMPDEST PUSH1 0x40 MLOAD PUSH2 0x317 SWAP2 SWAP1 PUSH2 0x1DD3 JUMP JUMPDEST PUSH1 0x40 MLOAD DUP1 SWAP2 SUB SWAP1 RETURN JUMPDEST PUSH2 0x328 PUSH2 0x1072 JUMP JUMPDEST PUSH1 0x40 MLOAD PUSH2 0x335 SWAP2 SWAP1 PUSH2 0x1DD3 JUMP JUMPDEST PUSH1 0x40 MLOAD DUP1 SWAP2 SUB SWAP1 RETURN JUMPDEST PUSH2 0x358 PUSH1 0x4 DUP1 CALLDATASIZE SUB DUP2 ADD SWAP1 PUSH2 0x353 SWAP2 SWAP1 PUSH2 0x1DEE JUMP JUMPDEST PUSH2 0x11F1 JUMP JUMPDEST PUSH1 0x40 MLOAD PUSH2 0x365 SWAP2 SWAP1 PUSH2 0x1AF5 JUMP JUMPDEST PUSH1 0x40 MLOAD DUP1 SWAP2 SUB SWAP1 RETURN JUMPDEST PUSH2 0x376 PUSH2 0x125B JUMP JUMPDEST PUSH1 0x40 MLOAD PUSH2 0x383 SWAP2 SWAP1 PUSH2 0x1F47 JUMP JUMPDEST PUSH1 0x40 MLOAD DUP1 SWAP2 SUB SWAP1 RETURN JUMPDEST PUSH2 0x394 PUSH2 0x12B3 JUMP JUMPDEST PUSH1 0x40 MLOAD PUSH2 0x3A1 SWAP2 SWAP1 PUSH2 0x1D4C JUMP JUMPDEST PUSH1 0x40 MLOAD DUP1 SWAP2 SUB SWAP1 RETURN JUMPDEST PUSH2 0x3C4 PUSH1 0x4 DUP1 CALLDATASIZE SUB DUP2 ADD SWAP1 PUSH2 0x3BF SWAP2 SWAP1 PUSH2 0x1B46 JUMP JUMPDEST PUSH2 0x12BA JUMP JUMPDEST PUSH1 0x40 MLOAD PUSH2 0x3D1 SWAP2 SWAP1 PUSH2 0x1DD3 JUMP JUMPDEST PUSH1 0x40 MLOAD DUP1 SWAP2 SUB SWAP1 RETURN JUMPDEST PUSH2 0x3F4 PUSH1 0x4 DUP1 CALLDATASIZE SUB DUP2 ADD SWAP1 PUSH2 0x3EF SWAP2 SWAP1 PUSH2 0x1DEE JUMP JUMPDEST PUSH2 0x137A JUMP JUMPDEST STOP JUMPDEST PUSH2 0x410 PUSH1 0x4 DUP1 CALLDATASIZE SUB DUP2 ADD SWAP1 PUSH2 0x40B SWAP2 SWAP1 PUSH2 0x1B46 JUMP JUMPDEST PUSH2 0x139B JUMP JUMPDEST PUSH1 0x40 MLOAD PUSH2 0x41D SWAP2 SWAP1 PUSH2 0x1DD3 JUMP JUMPDEST PUSH1 0x40 MLOAD DUP1 SWAP2 SUB SWAP1 RETURN JUMPDEST PUSH2 0x440 PUSH1 0x4 DUP1 CALLDATASIZE SUB DUP2 ADD SWAP1 PUSH2 0x43B SWAP2 SWAP1 PUSH2 0x1B46 JUMP JUMPDEST PUSH2 0x13BF JUMP JUMPDEST PUSH1 0x40 MLOAD PUSH2 0x44D SWAP2 SWAP1 PUSH2 0x1AF5 JUMP JUMPDEST PUSH1 0x40 MLOAD DUP1 SWAP2 SUB SWAP1 RETURN JUMPDEST PUSH2 0x470 PUSH1 0x4 DUP1 CALLDATASIZE SUB DUP2 ADD SWAP1 PUSH2 0x46B SWAP2 SWAP1 PUSH2 0x1F69 JUMP JUMPDEST PUSH2 0x14C1 JUMP JUMPDEST PUSH1 0x40 MLOAD PUSH2 0x47D SWAP2 SWAP1 PUSH2 0x1AF5 JUMP JUMPDEST PUSH1 0x40 MLOAD DUP1 SWAP2 SUB SWAP1 RETURN JUMPDEST PUSH1 0x0 PUSH32 0x7965DB0B00000000000000000000000000000000000000000000000000000000 PUSH28 0xFFFFFFFFFFFFFFFFFFFFFFFFFFFFFFFFFFFFFFFFFFFFFFFFFFFFFFFF NOT AND DUP3 PUSH28 0xFFFFFFFFFFFFFFFFFFFFFFFFFFFFFFFFFFFFFFFFFFFFFFFFFFFFFFFF NOT AND EQ DUP1 PUSH2 0x4F9 JUMPI POP PUSH2 0x4F8 DUP3 PUSH2 0x151B JUMP JUMPDEST JUMPDEST SWAP1 POP SWAP2 SWAP1 POP JUMP JUMPDEST PUSH1 0x1 PUSH1 0x20 MSTORE DUP1 PUSH1 0x0 MSTORE PUSH1 0x40 PUSH1 0x0 KECCAK256 PUSH1 0x0 SWAP2 POP SWAP1 POP DUP1 PUSH1 0x0 ADD PUSH1 0x0 SWAP1 SLOAD SWAP1 PUSH2 0x100 EXP SWAP1 DIV PUSH1 0xFF AND SWAP1 DUP1 PUSH1 0x2 ADD SLOAD SWAP1 DUP1 PUSH1 0x4 ADD PUSH1 0x0 SWAP1 SLOAD SWAP1 PUSH2 0x100 EXP SWAP1 DIV PUSH20 0xFFFFFFFFFFFFFFFFFFFFFFFFFFFFFFFFFFFFFFFF AND SWAP1 POP DUP4 JUMP JUMPDEST PUSH1 0x60 PUSH1 0x1 PUSH1 0x0 DUP4 DUP2 MSTORE PUSH1 0x20 ADD SWAP1 DUP2 MSTORE PUSH1 0x20 ADD PUSH1 0x0 KECCAK256 PUSH1 0x0 ADD PUSH1 0x0 SWAP1 SLOAD SWAP1 PUSH2 0x100 EXP SWAP1 DIV PUSH1 0xFF AND PUSH2 0x5BC JUMPI PUSH1 0x40 MLOAD PUSH32 0x8C379A000000000000000000000000000000000000000000000000000000000 DUP2 MSTORE PUSH1 0x4 ADD PUSH2 0x5B3 SWAP1 PUSH2 0x1FF3 JUMP JUMPDEST PUSH1 0x40 MLOAD DUP1 SWAP2 SUB SWAP1 REVERT JUMPDEST PUSH1 0x1 PUSH1 0x0 DUP4 DUP2 MSTORE PUSH1 0x20 ADD SWAP1 DUP2 MSTORE PUSH1 0x20 ADD PUSH1 0x0 KECCAK256 PUSH1 0x3 ADD DUP1 SLOAD DUP1 PUSH1 0x20 MUL PUSH1 0x20 ADD PUSH1 0x40 MLOAD SWAP1 DUP2 ADD PUSH1 0x40 MSTORE DUP1 SWAP3 SWAP2 SWAP1 DUP2 DUP2 MSTORE PUSH1 0x20 ADD DUP3 DUP1 SLOAD DUP1 ISZERO PUSH2 0x652 JUMPI PUSH1 0x20 MUL DUP3 ADD SWAP2 SWAP1 PUSH1 0x0 MSTORE PUSH1 0x20 PUSH1 0x0 KECCAK256 SWAP1 JUMPDEST DUP2 PUSH1 0x0 SWAP1 SLOAD SWAP1 PUSH2 0x100 EXP SWAP1 DIV PUSH20 0xFFFFFFFFFFFFFFFFFFFFFFFFFFFFFFFFFFFFFFFF AND PUSH20 0xFFFFFFFFFFFFFFFFFFFFFFFFFFFFFFFFFFFFFFFF AND DUP2 MSTORE PUSH1 0x20 ADD SWAP1 PUSH1 0x1 ADD SWAP1 DUP1 DUP4 GT PUSH2 0x608 JUMPI JUMPDEST POP POP POP POP POP SWAP1 POP SWAP2 SWAP1 POP JUMP JUMPDEST PUSH1 0x0 DUP1 PUSH1 0x0 DUP4 DUP2 MSTORE PUSH1 0x20 ADD SWAP1 DUP2 MSTORE PUSH1 0x20 ADD PUSH1 0x0 KECCAK256 PUSH1 0x1 ADD SLOAD SWAP1 POP SWAP2 SWAP1 POP JUMP JUMPDEST PUSH1 0x0 DUP1 PUSH1 0x0 SHL PUSH2 0x68C DUP2 PUSH2 0x1585 JUMP JUMPDEST PUSH1 0x1 PUSH1 0x0 DUP6 DUP2 MSTORE PUSH1 0x20 ADD SWAP1 DUP2 MSTORE PUSH1 0x20 ADD PUSH1 0x0 KECCAK256 PUSH1 0x0 ADD PUSH1 0x0 SWAP1 SLOAD SWAP1 PUSH2 0x100 EXP SWAP1 DIV PUSH1 0xFF AND PUSH2 0x6EF JUMPI PUSH1 0x40 MLOAD PUSH32 0x8C379A000000000000000000000000000000000000000000000000000000000 DUP2 MSTORE PUSH1 0x4 ADD PUSH2 0x6E6 SWAP1 PUSH2 0x1FF3 JUMP JUMPDEST PUSH1 0x40 MLOAD DUP1 SWAP2 SUB SWAP1 REVERT JUMPDEST PUSH1 0x0 PUSH20 0xFFFFFFFFFFFFFFFFFFFFFFFFFFFFFFFFFFFFFFFF AND PUSH1 0x1 PUSH1 0x0 DUP7 DUP2 MSTORE PUSH1 0x20 ADD SWAP1 DUP2 MSTORE PUSH1 0x20 ADD PUSH1 0x0 KECCAK256 PUSH1 0x4 ADD PUSH1 0x0 SWAP1 SLOAD SWAP1 PUSH2 0x100 EXP SWAP1 DIV PUSH20 0xFFFFFFFFFFFFFFFFFFFFFFFFFFFFFFFFFFFFFFFF AND PUSH20 0xFFFFFFFFFFFFFFFFFFFFFFFFFFFFFFFFFFFFFFFF AND EQ PUSH2 0x794 JUMPI PUSH1 0x40 MLOAD PUSH32 0x8C379A000000000000000000000000000000000000000000000000000000000 DUP2 MSTORE PUSH1 0x4 ADD PUSH2 0x78B SWAP1 PUSH2 0x205F JUMP JUMPDEST PUSH1 0x40 MLOAD DUP1 SWAP2 SUB SWAP1 REVERT JUMPDEST DUP3 PUSH1 0x1 PUSH1 0x0 DUP7 DUP2 MSTORE PUSH1 0x20 ADD SWAP1 DUP2 MSTORE PUSH1 0x20 ADD PUSH1 0x0 KECCAK256 PUSH1 0x4 ADD PUSH1 0x0 PUSH2 0x100 EXP DUP2 SLOAD DUP2 PUSH20 0xFFFFFFFFFFFFFFFFFFFFFFFFFFFFFFFFFFFFFFFF MUL NOT AND SWAP1 DUP4 PUSH20 0xFFFFFFFFFFFFFFFFFFFFFFFFFFFFFFFFFFFFFFFF AND MUL OR SWAP1 SSTORE POP PUSH1 0x0 PUSH1 0x64 PUSH1 0x1 PUSH1 0x0 DUP8 DUP2 MSTORE PUSH1 0x20 ADD SWAP1 DUP2 MSTORE PUSH1 0x20 ADD PUSH1 0x0 KECCAK256 PUSH1 0x2 ADD SLOAD PUSH1 0x4 SLOAD PUSH1 0x64 PUSH2 0x813 SWAP2 SWAP1 PUSH2 0x20AE JUMP JUMPDEST PUSH2 0x81D SWAP2 SWAP1 PUSH2 0x20E2 JUMP JUMPDEST PUSH2 0x827 SWAP2 SWAP1 PUSH2 0x2153 JUMP JUMPDEST SWAP1 POP PUSH1 0x0 DUP2 PUSH1 0x1 PUSH1 0x0 DUP9 DUP2 MSTORE PUSH1 0x20 ADD SWAP1 DUP2 MSTORE PUSH1 0x20 ADD PUSH1 0x0 KECCAK256 PUSH1 0x2 ADD SLOAD PUSH2 0x84D SWAP2 SWAP1 PUSH2 0x20AE JUMP JUMPDEST SWAP1 POP PUSH1 0x1 PUSH1 0x0 DUP8 DUP2 MSTORE PUSH1 0x20 ADD SWAP1 DUP2 MSTORE PUSH1 0x20 ADD PUSH1 0x0 KECCAK256 PUSH1 0x2 ADD SLOAD DUP3 DUP3 PUSH2 0x872 SWAP2 SWAP1 PUSH2 0x2184 JUMP JUMPDEST EQ PUSH2 0x8B2 JUMPI PUSH1 0x40 MLOAD PUSH32 0x8C379A000000000000000000000000000000000000000000000000000000000 DUP2 MSTORE PUSH1 0x4 ADD PUSH2 0x8A9 SWAP1 PUSH2 0x2204 JUMP JUMPDEST PUSH1 0x40 MLOAD DUP1 SWAP2 SUB SWAP1 REVERT JUMPDEST PUSH1 0x0 DUP3 LT ISZERO DUP1 ISZERO PUSH2 0x8C4 JUMPI POP PUSH1 0x0 DUP2 LT ISZERO JUMPDEST DUP1 ISZERO PUSH2 0x8E7 JUMPI POP PUSH1 0x0 PUSH1 0x1 PUSH1 0x0 DUP9 DUP2 MSTORE PUSH1 0x20 ADD SWAP1 DUP2 MSTORE PUSH1 0x20 ADD PUSH1 0x0 KECCAK256 PUSH1 0x2 ADD SLOAD LT ISZERO JUMPDEST PUSH2 0x926 JUMPI PUSH1 0x40 MLOAD PUSH32 0x8C379A000000000000000000000000000000000000000000000000000000000 DUP2 MSTORE PUSH1 0x4 ADD PUSH2 0x91D SWAP1 PUSH2 0x2270 JUMP JUMPDEST PUSH1 0x40 MLOAD DUP1 SWAP2 SUB SWAP1 REVERT JUMPDEST PUSH1 0x3 PUSH1 0x0 SWAP1 SLOAD SWAP1 PUSH2 0x100 EXP SWAP1 DIV PUSH20 0xFFFFFFFFFFFFFFFFFFFFFFFFFFFFFFFFFFFFFFFF AND PUSH20 0xFFFFFFFFFFFFFFFFFFFFFFFFFFFFFFFFFFFFFFFF AND PUSH4 0xA9059CBB DUP7 DUP5 PUSH1 0x40 MLOAD DUP4 PUSH4 0xFFFFFFFF AND PUSH1 0xE0 SHL DUP2 MSTORE PUSH1 0x4 ADD PUSH2 0x983 SWAP3 SWAP2 SWAP1 PUSH2 0x2290 JUMP JUMPDEST PUSH1 0x20 PUSH1 0x40 MLOAD DUP1 DUP4 SUB DUP2 PUSH1 0x0 DUP8 GAS CALL ISZERO DUP1 ISZERO PUSH2 0x9A2 JUMPI RETURNDATASIZE PUSH1 0x0 DUP1 RETURNDATACOPY RETURNDATASIZE PUSH1 0x0 REVERT JUMPDEST POP POP POP POP PUSH1 0x40 MLOAD RETURNDATASIZE PUSH1 0x1F NOT PUSH1 0x1F DUP3 ADD AND DUP3 ADD DUP1 PUSH1 0x40 MSTORE POP DUP2 ADD SWAP1 PUSH2 0x9C6 SWAP2 SWAP1 PUSH2 0x22E5 JUMP JUMPDEST PUSH2 0xA05 JUMPI PUSH1 0x40 MLOAD PUSH32 0x8C379A000000000000000000000000000000000000000000000000000000000 DUP2 MSTORE PUSH1 0x4 ADD PUSH2 0x9FC SWAP1 PUSH2 0x235E JUMP JUMPDEST PUSH1 0x40 MLOAD DUP1 SWAP2 SUB SWAP1 REVERT JUMPDEST DUP1 PUSH1 0x5 PUSH1 0x0 DUP3 DUP3 SLOAD PUSH2 0xA17 SWAP2 SWAP1 PUSH2 0x2184 JUMP JUMPDEST SWAP3 POP POP DUP2 SWAP1 SSTORE POP PUSH32 0x3B6F6A175407B0E278B9798F8BE45BCC2CDBA01A995BF768F528B457D7E27E85 DUP6 DUP4 DUP4 PUSH1 0x40 MLOAD PUSH2 0xA51 SWAP4 SWAP3 SWAP2 SWAP1 PUSH2 0x237E JUMP JUMPDEST PUSH1 0x40 MLOAD DUP1 SWAP2 SUB SWAP1 LOG1 DUP2 SWAP4 POP POP POP POP SWAP3 SWAP2 POP POP JUMP JUMPDEST PUSH2 0xA6E DUP3 PUSH2 0x65E JUMP JUMPDEST PUSH2 0xA77 DUP2 PUSH2 0x1585 JUMP JUMPDEST PUSH2 0xA81 DUP4 DUP4 PUSH2 0x1599 JUMP JUMPDEST POP POP POP JUMP JUMPDEST PUSH1 0x0 PUSH1 0x1 PUSH1 0x0 DUP5 DUP2 MSTORE PUSH1 0x20 ADD SWAP1 DUP2 MSTORE PUSH1 0x20 ADD PUSH1 0x0 KECCAK256 PUSH1 0x0 ADD PUSH1 0x0 SWAP1 SLOAD SWAP1 PUSH2 0x100 EXP SWAP1 DIV PUSH1 0xFF AND PUSH2 0xAEB JUMPI PUSH1 0x40 MLOAD PUSH32 0x8C379A000000000000000000000000000000000000000000000000000000000 DUP2 MSTORE PUSH1 0x4 ADD PUSH2 0xAE2 SWAP1 PUSH2 0x1FF3 JUMP JUMPDEST PUSH1 0x40 MLOAD DUP1 SWAP2 SUB SWAP1 REVERT JUMPDEST PUSH1 0x1 PUSH1 0x0 DUP5 DUP2 MSTORE PUSH1 0x20 ADD SWAP1 DUP2 MSTORE PUSH1 0x20 ADD PUSH1 0x0 KECCAK256 PUSH1 0x1 ADD PUSH1 0x0 DUP4 PUSH20 0xFFFFFFFFFFFFFFFFFFFFFFFFFFFFFFFFFFFFFFFF AND PUSH20 0xFFFFFFFFFFFFFFFFFFFFFFFFFFFFFFFFFFFFFFFF AND DUP2 MSTORE PUSH1 0x20 ADD SWAP1 DUP2 MSTORE PUSH1 0x20 ADD PUSH1 0x0 KECCAK256 SLOAD SWAP1 POP SWAP3 SWAP2 POP POP JUMP JUMPDEST PUSH2 0xB4F PUSH2 0x1679 JUMP JUMPDEST PUSH20 0xFFFFFFFFFFFFFFFFFFFFFFFFFFFFFFFFFFFFFFFF AND DUP2 PUSH20 0xFFFFFFFFFFFFFFFFFFFFFFFFFFFFFFFFFFFFFFFF AND EQ PUSH2 0xBBC JUMPI PUSH1 0x40 MLOAD PUSH32 0x8C379A000000000000000000000000000000000000000000000000000000000 DUP2 MSTORE PUSH1 0x4 ADD PUSH2 0xBB3 SWAP1 PUSH2 0x2427 JUMP JUMPDEST PUSH1 0x40 MLOAD DUP1 SWAP2 SUB SWAP1 REVERT JUMPDEST PUSH2 0xBC6 DUP3 DUP3 PUSH2 0x1681 JUMP JUMPDEST POP POP JUMP JUMPDEST PUSH1 0x5 SLOAD DUP2 JUMP JUMPDEST PUSH1 0x3 PUSH1 0x0 SWAP1 SLOAD SWAP1 PUSH2 0x100 EXP SWAP1 DIV PUSH20 0xFFFFFFFFFFFFFFFFFFFFFFFFFFFFFFFFFFFFFFFF AND DUP2 JUMP JUMPDEST PUSH1 0x0 PUSH1 0x1 PUSH1 0x0 DUP5 DUP2 MSTORE PUSH1 0x20 ADD SWAP1 DUP2 MSTORE PUSH1 0x20 ADD PUSH1 0x0 KECCAK256 PUSH1 0x0 ADD PUSH1 0x0 SWAP1 SLOAD SWAP1 PUSH2 0x100 EXP SWAP1 DIV PUSH1 0xFF AND PUSH2 0xC5B JUMPI PUSH1 0x40 MLOAD PUSH32 0x8C379A000000000000000000000000000000000000000000000000000000000 DUP2 MSTORE PUSH1 0x4 ADD PUSH2 0xC52 SWAP1 PUSH2 0x1FF3 JUMP JUMPDEST PUSH1 0x40 MLOAD DUP1 SWAP2 SUB SWAP1 REVERT JUMPDEST PUSH1 0x0 PUSH20 0xFFFFFFFFFFFFFFFFFFFFFFFFFFFFFFFFFFFFFFFF AND PUSH1 0x1 PUSH1 0x0 DUP6 DUP2 MSTORE PUSH1 0x20 ADD SWAP1 DUP2 MSTORE PUSH1 0x20 ADD PUSH1 0x0 KECCAK256 PUSH1 0x4 ADD PUSH1 0x0 SWAP1 SLOAD SWAP1 PUSH2 0x100 EXP SWAP1 DIV PUSH20 0xFFFFFFFFFFFFFFFFFFFFFFFFFFFFFFFFFFFFFFFF AND PUSH20 0xFFFFFFFFFFFFFFFFFFFFFFFFFFFFFFFFFFFFFFFF AND EQ PUSH2 0xD00 JUMPI PUSH1 0x40 MLOAD PUSH32 0x8C379A000000000000000000000000000000000000000000000000000000000 DUP2 MSTORE PUSH1 0x4 ADD PUSH2 0xCF7 SWAP1 PUSH2 0x205F JUMP JUMPDEST PUSH1 0x40 MLOAD DUP1 SWAP2 SUB SWAP1 REVERT JUMPDEST DUP2 PUSH1 0x3 PUSH1 0x0 SWAP1 SLOAD SWAP1 PUSH2 0x100 EXP SWAP1 DIV PUSH20 0xFFFFFFFFFFFFFFFFFFFFFFFFFFFFFFFFFFFFFFFF AND PUSH20 0xFFFFFFFFFFFFFFFFFFFFFFFFFFFFFFFFFFFFFFFF AND PUSH4 0x70A08231 CALLER PUSH1 0x40 MLOAD DUP3 PUSH4 0xFFFFFFFF AND PUSH1 0xE0 SHL DUP2 MSTORE PUSH1 0x4 ADD PUSH2 0xD5C SWAP2 SWAP1 PUSH2 0x1E2E JUMP JUMPDEST PUSH1 0x20 PUSH1 0x40 MLOAD DUP1 DUP4 SUB DUP2 DUP7 GAS STATICCALL ISZERO DUP1 ISZERO PUSH2 0xD79 JUMPI RETURNDATASIZE PUSH1 0x0 DUP1 RETURNDATACOPY RETURNDATASIZE PUSH1 0x0 REVERT JUMPDEST POP POP POP POP PUSH1 0x40 MLOAD RETURNDATASIZE PUSH1 0x1F NOT PUSH1 0x1F DUP3 ADD AND DUP3 ADD DUP1 PUSH1 0x40 MSTORE POP DUP2 ADD SWAP1 PUSH2 0xD9D SWAP2 SWAP1 PUSH2 0x245C JUMP JUMPDEST LT ISZERO PUSH2 0xDDE JUMPI PUSH1 0x40 MLOAD PUSH32 0x8C379A000000000000000000000000000000000000000000000000000000000 DUP2 MSTORE PUSH1 0x4 ADD PUSH2 0xDD5 SWAP1 PUSH2 0x24D5 JUMP JUMPDEST PUSH1 0x40 MLOAD DUP1 SWAP2 SUB SWAP1 REVERT JUMPDEST PUSH1 0x3 PUSH1 0x0 SWAP1 SLOAD SWAP1 PUSH2 0x100 EXP SWAP1 DIV PUSH20 0xFFFFFFFFFFFFFFFFFFFFFFFFFFFFFFFFFFFFFFFF AND PUSH20 0xFFFFFFFFFFFFFFFFFFFFFFFFFFFFFFFFFFFFFFFF AND PUSH4 0x23B872DD CALLER ADDRESS DUP6 PUSH1 0x40 MLOAD DUP5 PUSH4 0xFFFFFFFF AND PUSH1 0xE0 SHL DUP2 MSTORE PUSH1 0x4 ADD PUSH2 0xE3D SWAP4 SWAP3 SWAP2 SWAP1 PUSH2 0x24F5 JUMP JUMPDEST PUSH1 0x20 PUSH1 0x40 MLOAD DUP1 DUP4 SUB DUP2 PUSH1 0x0 DUP8 GAS CALL ISZERO DUP1 ISZERO PUSH2 0xE5C JUMPI RETURNDATASIZE PUSH1 0x0 DUP1 RETURNDATACOPY RETURNDATASIZE PUSH1 0x0 REVERT JUMPDEST POP POP POP POP PUSH1 0x40 MLOAD RETURNDATASIZE PUSH1 0x1F NOT PUSH1 0x1F DUP3 ADD AND DUP3 ADD DUP1 PUSH1 0x40 MSTORE POP DUP2 ADD SWAP1 PUSH2 0xE80 SWAP2 SWAP1 PUSH2 0x22E5 JUMP JUMPDEST PUSH2 0xEBF JUMPI PUSH1 0x40 MLOAD PUSH32 0x8C379A000000000000000000000000000000000000000000000000000000000 DUP2 MSTORE PUSH1 0x4 ADD PUSH2 0xEB6 SWAP1 PUSH2 0x2578 JUMP JUMPDEST PUSH1 0x40 MLOAD DUP1 SWAP2 SUB SWAP1 REVERT JUMPDEST PUSH1 0x0 PUSH1 0x1 PUSH1 0x0 DUP6 DUP2 MSTORE PUSH1 0x20 ADD SWAP1 DUP2 MSTORE PUSH1 0x20 ADD PUSH1 0x0 KECCAK256 PUSH1 0x1 ADD PUSH1 0x0 CALLER PUSH20 0xFFFFFFFFFFFFFFFFFFFFFFFFFFFFFFFFFFFFFFFF AND PUSH20 0xFFFFFFFFFFFFFFFFFFFFFFFFFFFFFFFFFFFFFFFF AND DUP2 MSTORE PUSH1 0x20 ADD SWAP1 DUP2 MSTORE PUSH1 0x20 ADD PUSH1 0x0 KECCAK256 SLOAD SUB PUSH2 0xF92 JUMPI PUSH1 0x1 PUSH1 0x0 DUP5 DUP2 MSTORE PUSH1 0x20 ADD SWAP1 DUP2 MSTORE PUSH1 0x20 ADD PUSH1 0x0 KECCAK256 PUSH1 0x3 ADD CALLER SWAP1 DUP1 PUSH1 0x1 DUP2 SLOAD ADD DUP1 DUP3 SSTORE DUP1 SWAP2 POP POP PUSH1 0x1 SWAP1 SUB SWAP1 PUSH1 0x0 MSTORE PUSH1 0x20 PUSH1 0x0 KECCAK256 ADD PUSH1 0x0 SWAP1 SWAP2 SWAP1 SWAP2 SWAP1 SWAP2 PUSH2 0x100 EXP DUP2 SLOAD DUP2 PUSH20 0xFFFFFFFFFFFFFFFFFFFFFFFFFFFFFFFFFFFFFFFF MUL NOT AND SWAP1 DUP4 PUSH20 0xFFFFFFFFFFFFFFFFFFFFFFFFFFFFFFFFFFFFFFFF AND MUL OR SWAP1 SSTORE POP JUMPDEST DUP2 PUSH1 0x1 PUSH1 0x0 DUP6 DUP2 MSTORE PUSH1 0x20 ADD SWAP1 DUP2 MSTORE PUSH1 0x20 ADD PUSH1 0x0 KECCAK256 PUSH1 0x1 ADD PUSH1 0x0 CALLER PUSH20 0xFFFFFFFFFFFFFFFFFFFFFFFFFFFFFFFFFFFFFFFF AND PUSH20 0xFFFFFFFFFFFFFFFFFFFFFFFFFFFFFFFFFFFFFFFF AND DUP2 MSTORE PUSH1 0x20 ADD SWAP1 DUP2 MSTORE PUSH1 0x20 ADD PUSH1 0x0 KECCAK256 PUSH1 0x0 DUP3 DUP3 SLOAD PUSH2 0xFF5 SWAP2 SWAP1 PUSH2 0x2184 JUMP JUMPDEST SWAP3 POP POP DUP2 SWAP1 SSTORE POP DUP2 PUSH1 0x1 PUSH1 0x0 DUP6 DUP2 MSTORE PUSH1 0x20 ADD SWAP1 DUP2 MSTORE PUSH1 0x20 ADD PUSH1 0x0 KECCAK256 PUSH1 0x2 ADD PUSH1 0x0 DUP3 DUP3 SLOAD PUSH2 0x1022 SWAP2 SWAP1 PUSH2 0x2184 JUMP JUMPDEST SWAP3 POP POP DUP2 SWAP1 SSTORE POP PUSH32 0xFB4C42CA2D93F0A673C2125AAA3C7B3FBEEE9533E34B1F2C0F8F5C4D4D8BF106 CALLER DUP4 PUSH1 0x40 MLOAD PUSH2 0x105A SWAP3 SWAP2 SWAP1 PUSH2 0x2290 JUMP JUMPDEST PUSH1 0x40 MLOAD DUP1 SWAP2 SUB SWAP1 LOG1 PUSH1 0x1 SWAP1 POP SWAP3 SWAP2 POP POP JUMP JUMPDEST PUSH1 0x4 SLOAD DUP2 JUMP JUMPDEST PUSH1 0x0 DUP1 PUSH1 0x0 SHL PUSH2 0x1081 DUP2 PUSH2 0x1585 JUMP JUMPDEST PUSH1 0x0 PUSH1 0x5 SLOAD GT PUSH2 0x10C6 JUMPI PUSH1 0x40 MLOAD PUSH32 0x8C379A000000000000000000000000000000000000000000000000000000000 DUP2 MSTORE PUSH1 0x4 ADD PUSH2 0x10BD SWAP1 PUSH2 0x25E4 JUMP JUMPDEST PUSH1 0x40 MLOAD DUP1 SWAP2 SUB SWAP1 REVERT JUMPDEST PUSH1 0x3 PUSH1 0x0 SWAP1 SLOAD SWAP1 PUSH2 0x100 EXP SWAP1 DIV PUSH20 0xFFFFFFFFFFFFFFFFFFFFFFFFFFFFFFFFFFFFFFFF AND PUSH20 0xFFFFFFFFFFFFFFFFFFFFFFFFFFFFFFFFFFFFFFFF AND PUSH4 0xA9059CBB CALLER PUSH1 0x5 SLOAD PUSH1 0x40 MLOAD DUP4 PUSH4 0xFFFFFFFF AND PUSH1 0xE0 SHL DUP2 MSTORE PUSH1 0x4 ADD PUSH2 0x1125 SWAP3 SWAP2 SWAP1 PUSH2 0x2290 JUMP JUMPDEST PUSH1 0x20 PUSH1 0x40 MLOAD DUP1 DUP4 SUB DUP2 PUSH1 0x0 DUP8 GAS CALL ISZERO DUP1 ISZERO PUSH2 0x1144 JUMPI RETURNDATASIZE PUSH1 0x0 DUP1 RETURNDATACOPY RETURNDATASIZE PUSH1 0x0 REVERT JUMPDEST POP POP POP POP PUSH1 0x40 MLOAD RETURNDATASIZE PUSH1 0x1F NOT PUSH1 0x1F DUP3 ADD AND DUP3 ADD DUP1 PUSH1 0x40 MSTORE POP DUP2 ADD SWAP1 PUSH2 0x1168 SWAP2 SWAP1 PUSH2 0x22E5 JUMP JUMPDEST PUSH2 0x11A7 JUMPI PUSH1 0x40 MLOAD PUSH32 0x8C379A000000000000000000000000000000000000000000000000000000000 DUP2 MSTORE PUSH1 0x4 ADD PUSH2 0x119E SWAP1 PUSH2 0x2650 JUMP JUMPDEST PUSH1 0x40 MLOAD DUP1 SWAP2 SUB SWAP1 REVERT JUMPDEST PUSH1 0x5 SLOAD SWAP2 POP PUSH1 0x0 PUSH1 0x5 DUP2 SWAP1 SSTORE POP PUSH32 0x884EDAD9CE6FA2440D8A54CC123490EB96D2768479D49FF9C7366125A9424364 CALLER DUP4 PUSH1 0x40 MLOAD PUSH2 0x11E5 SWAP3 SWAP2 SWAP1 PUSH2 0x2290 JUMP JUMPDEST PUSH1 0x40 MLOAD DUP1 SWAP2 SUB SWAP1 LOG1 POP SWAP1 JUMP JUMPDEST PUSH1 0x0 DUP1 PUSH1 0x0 DUP5 DUP2 MSTORE PUSH1 0x20 ADD SWAP1 DUP2 MSTORE PUSH1 0x20 ADD PUSH1 0x0 KECCAK256 PUSH1 0x0 ADD PUSH1 0x0 DUP4 PUSH20 0xFFFFFFFFFFFFFFFFFFFFFFFFFFFFFFFFFFFFFFFF AND PUSH20 0xFFFFFFFFFFFFFFFFFFFFFFFFFFFFFFFFFFFFFFFF AND DUP2 MSTORE PUSH1 0x20 ADD SWAP1 DUP2 MSTORE PUSH1 0x20 ADD PUSH1 0x0 KECCAK256 PUSH1 0x0 SWAP1 SLOAD SWAP1 PUSH2 0x100 EXP SWAP1 DIV PUSH1 0xFF AND SWAP1 POP SWAP3 SWAP2 POP POP JUMP JUMPDEST PUSH1 0x60 PUSH1 0x2 DUP1 SLOAD DUP1 PUSH1 0x20 MUL PUSH1 0x20 ADD PUSH1 0x40 MLOAD SWAP1 DUP2 ADD PUSH1 0x40 MSTORE DUP1 SWAP3 SWAP2 SWAP1 DUP2 DUP2 MSTORE PUSH1 0x20 ADD DUP3 DUP1 SLOAD DUP1 ISZERO PUSH2 0x12A9 JUMPI PUSH1 0x20 MUL DUP3 ADD SWAP2 SWAP1 PUSH1 0x0 MSTORE PUSH1 0x20 PUSH1 0x0 KECCAK256 SWAP1 JUMPDEST DUP2 SLOAD DUP2 MSTORE PUSH1 0x20 ADD SWAP1 PUSH1 0x1 ADD SWAP1 DUP1 DUP4 GT PUSH2 0x1295 JUMPI JUMPDEST POP POP POP POP POP SWAP1 POP SWAP1 JUMP JUMPDEST PUSH1 0x0 DUP1 SHL DUP2 JUMP JUMPDEST PUSH1 0x0 PUSH1 0x1 PUSH1 0x0 DUP4 DUP2 MSTORE PUSH1 0x20 ADD SWAP1 DUP2 MSTORE PUSH1 0x20 ADD PUSH1 0x0 KECCAK256 PUSH1 0x0 ADD PUSH1 0x0 SWAP1 SLOAD SWAP1 PUSH2 0x100 EXP SWAP1 DIV PUSH1 0xFF AND PUSH2 0x131F JUMPI PUSH1 0x40 MLOAD PUSH32 0x8C379A000000000000000000000000000000000000000000000000000000000 DUP2 MSTORE PUSH1 0x4 ADD PUSH2 0x1316 SWAP1 PUSH2 0x1FF3 JUMP JUMPDEST PUSH1 0x40 MLOAD DUP1 SWAP2 SUB SWAP1 REVERT JUMPDEST PUSH1 0x1 PUSH1 0x0 DUP4 DUP2 MSTORE PUSH1 0x20 ADD SWAP1 DUP2 MSTORE PUSH1 0x20 ADD PUSH1 0x0 KECCAK256 PUSH1 0x1 ADD PUSH1 0x0 CALLER PUSH20 0xFFFFFFFFFFFFFFFFFFFFFFFFFFFFFFFFFFFFFFFF AND PUSH20 0xFFFFFFFFFFFFFFFFFFFFFFFFFFFFFFFFFFFFFFFF AND DUP2 MSTORE PUSH1 0x20 ADD SWAP1 DUP2 MSTORE PUSH1 0x20 ADD PUSH1 0x0 KECCAK256 SLOAD SWAP1 POP SWAP2 SWAP1 POP JUMP JUMPDEST PUSH2 0x1383 DUP3 PUSH2 0x65E JUMP JUMPDEST PUSH2 0x138C DUP2 PUSH2 0x1585 JUMP JUMPDEST PUSH2 0x1396 DUP4 DUP4 PUSH2 0x1681 JUMP JUMPDEST POP POP POP JUMP JUMPDEST PUSH1 0x2 DUP2 DUP2 SLOAD DUP2 LT PUSH2 0x13AB JUMPI PUSH1 0x0 DUP1 REVERT JUMPDEST SWAP1 PUSH1 0x0 MSTORE PUSH1 0x20 PUSH1 0x0 KECCAK256 ADD PUSH1 0x0 SWAP2 POP SWAP1 POP SLOAD DUP2 JUMP JUMPDEST PUSH1 0x0 DUP1 ISZERO ISZERO PUSH1 0x1 PUSH1 0x0 DUP5 DUP2 MSTORE PUSH1 0x20 ADD SWAP1 DUP2 MSTORE PUSH1 0x20 ADD PUSH1 0x0 KECCAK256 PUSH1 0x0 ADD PUSH1 0x0 SWAP1 SLOAD SWAP1 PUSH2 0x100 EXP SWAP1 DIV PUSH1 0xFF AND ISZERO ISZERO EQ PUSH2 0x142A JUMPI PUSH1 0x40 MLOAD PUSH32 0x8C379A000000000000000000000000000000000000000000000000000000000 DUP2 MSTORE PUSH1 0x4 ADD PUSH2 0x1421 SWAP1 PUSH2 0x26BC JUMP JUMPDEST PUSH1 0x40 MLOAD DUP1 SWAP2 SUB SWAP1 REVERT JUMPDEST PUSH1 0x1 DUP1 PUSH1 0x0 DUP5 DUP2 MSTORE PUSH1 0x20 ADD SWAP1 DUP2 MSTORE PUSH1 0x20 ADD PUSH1 0x0 KECCAK256 PUSH1 0x0 ADD PUSH1 0x0 PUSH2 0x100 EXP DUP2 SLOAD DUP2 PUSH1 0xFF MUL NOT AND SWAP1 DUP4 ISZERO ISZERO MUL OR SWAP1 SSTORE POP PUSH1 0x2 DUP3 SWAP1 DUP1 PUSH1 0x1 DUP2 SLOAD ADD DUP1 DUP3 SSTORE DUP1 SWAP2 POP POP PUSH1 0x1 SWAP1 SUB SWAP1 PUSH1 0x0 MSTORE PUSH1 0x20 PUSH1 0x0 KECCAK256 ADD PUSH1 0x0 SWAP1 SWAP2 SWAP1 SWAP2 SWAP1 SWAP2 POP SSTORE PUSH32 0xB5E8A4470F7BCAC7F2C0F3E23471BD7016A9F6F049884CD27DFA8960F361287B DUP3 PUSH1 0x40 MLOAD PUSH2 0x14B0 SWAP2 SWAP1 PUSH2 0x1DD3 JUMP JUMPDEST PUSH1 0x40 MLOAD DUP1 SWAP2 SUB SWAP1 LOG1 PUSH1 0x1 SWAP1 POP SWAP2 SWAP1 POP JUMP JUMPDEST PUSH1 0x0 DUP1 PUSH1 0x0 SHL PUSH2 0x14D0 DUP2 PUSH2 0x1585 JUMP JUMPDEST DUP3 PUSH1 0x3 PUSH1 0x0 PUSH2 0x100 EXP DUP2 SLOAD DUP2 PUSH20 0xFFFFFFFFFFFFFFFFFFFFFFFFFFFFFFFFFFFFFFFF MUL NOT AND SWAP1 DUP4 PUSH20 0xFFFFFFFFFFFFFFFFFFFFFFFFFFFFFFFFFFFFFFFF AND MUL OR SWAP1 SSTORE POP PUSH1 0x1 SWAP2 POP POP SWAP2 SWAP1 POP JUMP JUMPDEST PUSH1 0x0 PUSH32 0x1FFC9A700000000000000000000000000000000000000000000000000000000 PUSH28 0xFFFFFFFFFFFFFFFFFFFFFFFFFFFFFFFFFFFFFFFFFFFFFFFFFFFFFFFF NOT AND DUP3 PUSH28 0xFFFFFFFFFFFFFFFFFFFFFFFFFFFFFFFFFFFFFFFFFFFFFFFFFFFFFFFF NOT AND EQ SWAP1 POP SWAP2 SWAP1 POP JUMP JUMPDEST PUSH2 0x1596 DUP2 PUSH2 0x1591 PUSH2 0x1679 JUMP JUMPDEST PUSH2 0x1762 JUMP JUMPDEST POP JUMP JUMPDEST PUSH2 0x15A3 DUP3 DUP3 PUSH2 0x11F1 JUMP JUMPDEST PUSH2 0x1675 JUMPI PUSH1 0x1 PUSH1 0x0 DUP1 DUP5 DUP2 MSTORE PUSH1 0x20 ADD SWAP1 DUP2 MSTORE PUSH1 0x20 ADD PUSH1 0x0 KECCAK256 PUSH1 0x0 ADD PUSH1 0x0 DUP4 PUSH20 0xFFFFFFFFFFFFFFFFFFFFFFFFFFFFFFFFFFFFFFFF AND PUSH20 0xFFFFFFFFFFFFFFFFFFFFFFFFFFFFFFFFFFFFFFFF AND DUP2 MSTORE PUSH1 0x20 ADD SWAP1 DUP2 MSTORE PUSH1 0x20 ADD PUSH1 0x0 KECCAK256 PUSH1 0x0 PUSH2 0x100 EXP DUP2 SLOAD DUP2 PUSH1 0xFF MUL NOT AND SWAP1 DUP4 ISZERO ISZERO MUL OR SWAP1 SSTORE POP PUSH2 0x161A PUSH2 0x1679 JUMP JUMPDEST PUSH20 0xFFFFFFFFFFFFFFFFFFFFFFFFFFFFFFFFFFFFFFFF AND DUP2 PUSH20 0xFFFFFFFFFFFFFFFFFFFFFFFFFFFFFFFFFFFFFFFF AND DUP4 PUSH32 0x2F8788117E7EFF1D82E926EC794901D17C78024A50270940304540A733656F0D PUSH1 0x40 MLOAD PUSH1 0x40 MLOAD DUP1 SWAP2 SUB SWAP1 LOG4 JUMPDEST POP POP JUMP JUMPDEST PUSH1 0x0 CALLER SWAP1 POP SWAP1 JUMP JUMPDEST PUSH2 0x168B DUP3 DUP3 PUSH2 0x11F1 JUMP JUMPDEST ISZERO PUSH2 0x175E JUMPI PUSH1 0x0 DUP1 PUSH1 0x0 DUP5 DUP2 MSTORE PUSH1 0x20 ADD SWAP1 DUP2 MSTORE PUSH1 0x20 ADD PUSH1 0x0 KECCAK256 PUSH1 0x0 ADD PUSH1 0x0 DUP4 PUSH20 0xFFFFFFFFFFFFFFFFFFFFFFFFFFFFFFFFFFFFFFFF AND PUSH20 0xFFFFFFFFFFFFFFFFFFFFFFFFFFFFFFFFFFFFFFFF AND DUP2 MSTORE PUSH1 0x20 ADD SWAP1 DUP2 MSTORE PUSH1 0x20 ADD PUSH1 0x0 KECCAK256 PUSH1 0x0 PUSH2 0x100 EXP DUP2 SLOAD DUP2 PUSH1 0xFF MUL NOT AND SWAP1 DUP4 ISZERO ISZERO MUL OR SWAP1 SSTORE POP PUSH2 0x1703 PUSH2 0x1679 JUMP JUMPDEST PUSH20 0xFFFFFFFFFFFFFFFFFFFFFFFFFFFFFFFFFFFFFFFF AND DUP2 PUSH20 0xFFFFFFFFFFFFFFFFFFFFFFFFFFFFFFFFFFFFFFFF AND DUP4 PUSH32 0xF6391F5C32D9C69D2A47EA670B442974B53935D1EDC7FD64EB21E047A839171B PUSH1 0x40 MLOAD PUSH1 0x40 MLOAD DUP1 SWAP2 SUB SWAP1 LOG4 JUMPDEST POP POP JUMP JUMPDEST PUSH2 0x176C DUP3 DUP3 PUSH2 0x11F1 JUMP JUMPDEST PUSH2 0x17E3 JUMPI PUSH2 0x1779 DUP2 PUSH2 0x17E7 JUMP JUMPDEST PUSH2 0x1787 DUP4 PUSH1 0x0 SHR PUSH1 0x20 PUSH2 0x1814 JUMP JUMPDEST PUSH1 0x40 MLOAD PUSH1 0x20 ADD PUSH2 0x1798 SWAP3 SWAP2 SWAP1 PUSH2 0x27E5 JUMP JUMPDEST PUSH1 0x40 MLOAD PUSH1 0x20 DUP2 DUP4 SUB SUB DUP2 MSTORE SWAP1 PUSH1 0x40 MSTORE PUSH1 0x40 MLOAD PUSH32 0x8C379A000000000000000000000000000000000000000000000000000000000 DUP2 MSTORE PUSH1 0x4 ADD PUSH2 0x17DA SWAP2 SWAP1 PUSH2 0x2869 JUMP JUMPDEST PUSH1 0x40 MLOAD DUP1 SWAP2 SUB SWAP1 REVERT JUMPDEST POP POP JUMP JUMPDEST PUSH1 0x60 PUSH2 0x180D DUP3 PUSH20 0xFFFFFFFFFFFFFFFFFFFFFFFFFFFFFFFFFFFFFFFF AND PUSH1 0x14 PUSH1 0xFF AND PUSH2 0x1814 JUMP JUMPDEST SWAP1 POP SWAP2 SWAP1 POP JUMP JUMPDEST PUSH1 0x60 PUSH1 0x0 PUSH1 0x2 DUP4 PUSH1 0x2 PUSH2 0x1827 SWAP2 SWAP1 PUSH2 0x20E2 JUMP JUMPDEST PUSH2 0x1831 SWAP2 SWAP1 PUSH2 0x2184 JUMP JUMPDEST PUSH8 0xFFFFFFFFFFFFFFFF DUP2 GT ISZERO PUSH2 0x184A JUMPI PUSH2 0x1849 PUSH2 0x288B JUMP JUMPDEST JUMPDEST PUSH1 0x40 MLOAD SWAP1 DUP1 DUP3 MSTORE DUP1 PUSH1 0x1F ADD PUSH1 0x1F NOT AND PUSH1 0x20 ADD DUP3 ADD PUSH1 0x40 MSTORE DUP1 ISZERO PUSH2 0x187C JUMPI DUP2 PUSH1 0x20 ADD PUSH1 0x1 DUP3 MUL DUP1 CALLDATASIZE DUP4 CALLDATACOPY DUP1 DUP3 ADD SWAP2 POP POP SWAP1 POP JUMPDEST POP SWAP1 POP PUSH32 0x3000000000000000000000000000000000000000000000000000000000000000 DUP2 PUSH1 0x0 DUP2 MLOAD DUP2 LT PUSH2 0x18B4 JUMPI PUSH2 0x18B3 PUSH2 0x28BA JUMP JUMPDEST JUMPDEST PUSH1 0x20 ADD ADD SWAP1 PUSH31 0xFFFFFFFFFFFFFFFFFFFFFFFFFFFFFFFFFFFFFFFFFFFFFFFFFFFFFFFFFFFFFF NOT AND SWAP1 DUP2 PUSH1 0x0 BYTE SWAP1 MSTORE8 POP PUSH32 0x7800000000000000000000000000000000000000000000000000000000000000 DUP2 PUSH1 0x1 DUP2 MLOAD DUP2 LT PUSH2 0x1918 JUMPI PUSH2 0x1917 PUSH2 0x28BA JUMP JUMPDEST JUMPDEST PUSH1 0x20 ADD ADD SWAP1 PUSH31 0xFFFFFFFFFFFFFFFFFFFFFFFFFFFFFFFFFFFFFFFFFFFFFFFFFFFFFFFFFFFFFF NOT AND SWAP1 DUP2 PUSH1 0x0 BYTE SWAP1 MSTORE8 POP PUSH1 0x0 PUSH1 0x1 DUP5 PUSH1 0x2 PUSH2 0x1958 SWAP2 SWAP1 PUSH2 0x20E2 JUMP JUMPDEST PUSH2 0x1962 SWAP2 SWAP1 PUSH2 0x2184 JUMP JUMPDEST SWAP1 POP JUMPDEST PUSH1 0x1 DUP2 GT ISZERO PUSH2 0x1A02 JUMPI PUSH32 0x3031323334353637383961626364656600000000000000000000000000000000 PUSH1 0xF DUP7 AND PUSH1 0x10 DUP2 LT PUSH2 0x19A4 JUMPI PUSH2 0x19A3 PUSH2 0x28BA JUMP JUMPDEST JUMPDEST BYTE PUSH1 0xF8 SHL DUP3 DUP3 DUP2 MLOAD DUP2 LT PUSH2 0x19BB JUMPI PUSH2 0x19BA PUSH2 0x28BA JUMP JUMPDEST JUMPDEST PUSH1 0x20 ADD ADD SWAP1 PUSH31 0xFFFFFFFFFFFFFFFFFFFFFFFFFFFFFFFFFFFFFFFFFFFFFFFFFFFFFFFFFFFFFF NOT AND SWAP1 DUP2 PUSH1 0x0 BYTE SWAP1 MSTORE8 POP PUSH1 0x4 DUP6 SWAP1 SHR SWAP5 POP DUP1 PUSH2 0x19FB SWAP1 PUSH2 0x28E9 JUMP JUMPDEST SWAP1 POP PUSH2 0x1965 JUMP JUMPDEST POP PUSH1 0x0 DUP5 EQ PUSH2 0x1A46 JUMPI PUSH1 0x40 MLOAD PUSH32 0x8C379A000000000000000000000000000000000000000000000000000000000 DUP2 MSTORE PUSH1 0x4 ADD PUSH2 0x1A3D SWAP1 PUSH2 0x295E JUMP JUMPDEST PUSH1 0x40 MLOAD DUP1 SWAP2 SUB SWAP1 REVERT JUMPDEST DUP1 SWAP2 POP POP SWAP3 SWAP2 POP POP JUMP JUMPDEST PUSH1 0x0 DUP1 REVERT JUMPDEST PUSH1 0x0 PUSH32 0xFFFFFFFF00000000000000000000000000000000000000000000000000000000 DUP3 AND SWAP1 POP SWAP2 SWAP1 POP JUMP JUMPDEST PUSH2 0x1A8A DUP2 PUSH2 0x1A55 JUMP JUMPDEST DUP2 EQ PUSH2 0x1A95 JUMPI PUSH1 0x0 DUP1 REVERT JUMPDEST POP JUMP JUMPDEST PUSH1 0x0 DUP2 CALLDATALOAD SWAP1 POP PUSH2 0x1AA7 DUP2 PUSH2 0x1A81 JUMP JUMPDEST SWAP3 SWAP2 POP POP JUMP JUMPDEST PUSH1 0x0 PUSH1 0x20 DUP3 DUP5 SUB SLT ISZERO PUSH2 0x1AC3 JUMPI PUSH2 0x1AC2 PUSH2 0x1A50 JUMP JUMPDEST JUMPDEST PUSH1 0x0 PUSH2 0x1AD1 DUP5 DUP3 DUP6 ADD PUSH2 0x1A98 JUMP JUMPDEST SWAP2 POP POP SWAP3 SWAP2 POP POP JUMP JUMPDEST PUSH1 0x0 DUP2 ISZERO ISZERO SWAP1 POP SWAP2 SWAP1 POP JUMP JUMPDEST PUSH2 0x1AEF DUP2 PUSH2 0x1ADA JUMP JUMPDEST DUP3 MSTORE POP POP JUMP JUMPDEST PUSH1 0x0 PUSH1 0x20 DUP3 ADD SWAP1 POP PUSH2 0x1B0A PUSH1 0x0 DUP4 ADD DUP5 PUSH2 0x1AE6 JUMP JUMPDEST SWAP3 SWAP2 POP POP JUMP JUMPDEST PUSH1 0x0 DUP2 SWAP1 POP SWAP2 SWAP1 POP JUMP JUMPDEST PUSH2 0x1B23 DUP2 PUSH2 0x1B10 JUMP JUMPDEST DUP2 EQ PUSH2 0x1B2E JUMPI PUSH1 0x0 DUP1 REVERT JUMPDEST POP JUMP JUMPDEST PUSH1 0x0 DUP2 CALLDATALOAD SWAP1 POP PUSH2 0x1B40 DUP2 PUSH2 0x1B1A JUMP JUMPDEST SWAP3 SWAP2 POP POP JUMP JUMPDEST PUSH1 0x0 PUSH1 0x20 DUP3 DUP5 SUB SLT ISZERO PUSH2 0x1B5C JUMPI PUSH2 0x1B5B PUSH2 0x1A50 JUMP JUMPDEST JUMPDEST PUSH1 0x0 PUSH2 0x1B6A DUP5 DUP3 DUP6 ADD PUSH2 0x1B31 JUMP JUMPDEST SWAP2 POP POP SWAP3 SWAP2 POP POP JUMP JUMPDEST PUSH2 0x1B7C DUP2 PUSH2 0x1B10 JUMP JUMPDEST DUP3 MSTORE POP POP JUMP JUMPDEST PUSH1 0x0 PUSH20 0xFFFFFFFFFFFFFFFFFFFFFFFFFFFFFFFFFFFFFFFF DUP3 AND SWAP1 POP SWAP2 SWAP1 POP JUMP JUMPDEST PUSH1 0x0 PUSH2 0x1BAD DUP3 PUSH2 0x1B82 JUMP JUMPDEST SWAP1 POP SWAP2 SWAP1 POP JUMP JUMPDEST PUSH2 0x1BBD DUP2 PUSH2 0x1BA2 JUMP JUMPDEST DUP3 MSTORE POP POP JUMP JUMPDEST PUSH1 0x0 PUSH1 0x60 DUP3 ADD SWAP1 POP PUSH2 0x1BD8 PUSH1 0x0 DUP4 ADD DUP7 PUSH2 0x1AE6 JUMP JUMPDEST PUSH2 0x1BE5 PUSH1 0x20 DUP4 ADD DUP6 PUSH2 0x1B73 JUMP JUMPDEST PUSH2 0x1BF2 PUSH1 0x40 DUP4 ADD DUP5 PUSH2 0x1BB4 JUMP JUMPDEST SWAP5 SWAP4 POP POP POP POP JUMP JUMPDEST PUSH1 0x0 DUP2 MLOAD SWAP1 POP SWAP2 SWAP1 POP JUMP JUMPDEST PUSH1 0x0 DUP3 DUP3 MSTORE PUSH1 0x20 DUP3 ADD SWAP1 POP SWAP3 SWAP2 POP POP JUMP JUMPDEST PUSH1 0x0 DUP2 SWAP1 POP PUSH1 0x20 DUP3 ADD SWAP1 POP SWAP2 SWAP1 POP JUMP JUMPDEST PUSH2 0x1C2F DUP2 PUSH2 0x1BA2 JUMP JUMPDEST DUP3 MSTORE POP POP JUMP JUMPDEST PUSH1 0x0 PUSH2 0x1C41 DUP4 DUP4 PUSH2 0x1C26 JUMP JUMPDEST PUSH1 0x20 DUP4 ADD SWAP1 POP SWAP3 SWAP2 POP POP JUMP JUMPDEST PUSH1 0x0 PUSH1 0x20 DUP3 ADD SWAP1 POP SWAP2 SWAP1 POP JUMP JUMPDEST PUSH1 0x0 PUSH2 0x1C65 DUP3 PUSH2 0x1BFA JUMP JUMPDEST PUSH2 0x1C6F DUP2 DUP6 PUSH2 0x1C05 JUMP JUMPDEST SWAP4 POP PUSH2 0x1C7A DUP4 PUSH2 0x1C16 JUMP JUMPDEST DUP1 PUSH1 0x0 JUMPDEST DUP4 DUP2 LT ISZERO PUSH2 0x1CAB JUMPI DUP2 MLOAD PUSH2 0x1C92 DUP9 DUP3 PUSH2 0x1C35 JUMP JUMPDEST SWAP8 POP PUSH2 0x1C9D DUP4 PUSH2 0x1C4D JUMP JUMPDEST SWAP3 POP POP PUSH1 0x1 DUP2 ADD SWAP1 POP PUSH2 0x1C7E JUMP JUMPDEST POP DUP6 SWAP4 POP POP POP POP SWAP3 SWAP2 POP POP JUMP JUMPDEST PUSH1 0x0 PUSH1 0x20 DUP3 ADD SWAP1 POP DUP2 DUP2 SUB PUSH1 0x0 DUP4 ADD MSTORE PUSH2 0x1CD2 DUP2 DUP5 PUSH2 0x1C5A JUMP JUMPDEST SWAP1 POP SWAP3 SWAP2 POP POP JUMP JUMPDEST PUSH1 0x0 DUP2 SWAP1 POP SWAP2 SWAP1 POP JUMP JUMPDEST PUSH2 0x1CED DUP2 PUSH2 0x1CDA JUMP JUMPDEST DUP2 EQ PUSH2 0x1CF8 JUMPI PUSH1 0x0 DUP1 REVERT JUMPDEST POP JUMP JUMPDEST PUSH1 0x0 DUP2 CALLDATALOAD SWAP1 POP PUSH2 0x1D0A DUP2 PUSH2 0x1CE4 JUMP JUMPDEST SWAP3 SWAP2 POP POP JUMP JUMPDEST PUSH1 0x0 PUSH1 0x20 DUP3 DUP5 SUB SLT ISZERO PUSH2 0x1D26 JUMPI PUSH2 0x1D25 PUSH2 0x1A50 JUMP JUMPDEST JUMPDEST PUSH1 0x0 PUSH2 0x1D34 DUP5 DUP3 DUP6 ADD PUSH2 0x1CFB JUMP JUMPDEST SWAP2 POP POP SWAP3 SWAP2 POP POP JUMP JUMPDEST PUSH2 0x1D46 DUP2 PUSH2 0x1CDA JUMP JUMPDEST DUP3 MSTORE POP POP JUMP JUMPDEST PUSH1 0x0 PUSH1 0x20 DUP3 ADD SWAP1 POP PUSH2 0x1D61 PUSH1 0x0 DUP4 ADD DUP5 PUSH2 0x1D3D JUMP JUMPDEST SWAP3 SWAP2 POP POP JUMP JUMPDEST PUSH2 0x1D70 DUP2 PUSH2 0x1BA2 JUMP JUMPDEST DUP2 EQ PUSH2 0x1D7B JUMPI PUSH1 0x0 DUP1 REVERT JUMPDEST POP JUMP JUMPDEST PUSH1 0x0 DUP2 CALLDATALOAD SWAP1 POP PUSH2 0x1D8D DUP2 PUSH2 0x1D67 JUMP JUMPDEST SWAP3 SWAP2 POP POP JUMP JUMPDEST PUSH1 0x0 DUP1 PUSH1 0x40 DUP4 DUP6 SUB SLT ISZERO PUSH2 0x1DAA JUMPI PUSH2 0x1DA9 PUSH2 0x1A50 JUMP JUMPDEST JUMPDEST PUSH1 0x0 PUSH2 0x1DB8 DUP6 DUP3 DUP7 ADD PUSH2 0x1B31 JUMP JUMPDEST SWAP3 POP POP PUSH1 0x20 PUSH2 0x1DC9 DUP6 DUP3 DUP7 ADD PUSH2 0x1D7E JUMP JUMPDEST SWAP2 POP POP SWAP3 POP SWAP3 SWAP1 POP JUMP JUMPDEST PUSH1 0x0 PUSH1 0x20 DUP3 ADD SWAP1 POP PUSH2 0x1DE8 PUSH1 0x0 DUP4 ADD DUP5 PUSH2 0x1B73 JUMP JUMPDEST SWAP3 SWAP2 POP POP JUMP JUMPDEST PUSH1 0x0 DUP1 PUSH1 0x40 DUP4 DUP6 SUB SLT ISZERO PUSH2 0x1E05 JUMPI PUSH2 0x1E04 PUSH2 0x1A50 JUMP JUMPDEST JUMPDEST PUSH1 0x0 PUSH2 0x1E13 DUP6 DUP3 DUP7 ADD PUSH2 0x1CFB JUMP JUMPDEST SWAP3 POP POP PUSH1 0x20 PUSH2 0x1E24 DUP6 DUP3 DUP7 ADD PUSH2 0x1D7E JUMP JUMPDEST SWAP2 POP POP SWAP3 POP SWAP3 SWAP1 POP JUMP JUMPDEST PUSH1 0x0 PUSH1 0x20 DUP3 ADD SWAP1 POP PUSH2 0x1E43 PUSH1 0x0 DUP4 ADD DUP5 PUSH2 0x1BB4 JUMP JUMPDEST SWAP3 SWAP2 POP POP JUMP JUMPDEST PUSH1 0x0 DUP1 PUSH1 0x40 DUP4 DUP6 SUB SLT ISZERO PUSH2 0x1E60 JUMPI PUSH2 0x1E5F PUSH2 0x1A50 JUMP JUMPDEST JUMPDEST PUSH1 0x0 PUSH2 0x1E6E DUP6 DUP3 DUP7 ADD PUSH2 0x1B31 JUMP JUMPDEST SWAP3 POP POP PUSH1 0x20 PUSH2 0x1E7F DUP6 DUP3 DUP7 ADD PUSH2 0x1B31 JUMP JUMPDEST SWAP2 POP POP SWAP3 POP SWAP3 SWAP1 POP JUMP JUMPDEST PUSH1 0x0 DUP2 MLOAD SWAP1 POP SWAP2 SWAP1 POP JUMP JUMPDEST PUSH1 0x0 DUP3 DUP3 MSTORE PUSH1 0x20 DUP3 ADD SWAP1 POP SWAP3 SWAP2 POP POP JUMP JUMPDEST PUSH1 0x0 DUP2 SWAP1 POP PUSH1 0x20 DUP3 ADD SWAP1 POP SWAP2 SWAP1 POP JUMP JUMPDEST PUSH2 0x1EBE DUP2 PUSH2 0x1B10 JUMP JUMPDEST DUP3 MSTORE POP POP JUMP JUMPDEST PUSH1 0x0 PUSH2 0x1ED0 DUP4 DUP4 PUSH2 0x1EB5 JUMP JUMPDEST PUSH1 0x20 DUP4 ADD SWAP1 POP SWAP3 SWAP2 POP POP JUMP JUMPDEST PUSH1 0x0 PUSH1 0x20 DUP3 ADD SWAP1 POP SWAP2 SWAP1 POP JUMP JUMPDEST PUSH1 0x0 PUSH2 0x1EF4 DUP3 PUSH2 0x1E89 JUMP JUMPDEST PUSH2 0x1EFE DUP2 DUP6 PUSH2 0x1E94 JUMP JUMPDEST SWAP4 POP PUSH2 0x1F09 DUP4 PUSH2 0x1EA5 JUMP JUMPDEST DUP1 PUSH1 0x0 JUMPDEST DUP4 DUP2 LT ISZERO PUSH2 0x1F3A JUMPI DUP2 MLOAD PUSH2 0x1F21 DUP9 DUP3 PUSH2 0x1EC4 JUMP JUMPDEST SWAP8 POP PUSH2 0x1F2C DUP4 PUSH2 0x1EDC JUMP JUMPDEST SWAP3 POP POP PUSH1 0x1 DUP2 ADD SWAP1 POP PUSH2 0x1F0D JUMP JUMPDEST POP DUP6 SWAP4 POP POP POP POP SWAP3 SWAP2 POP POP JUMP JUMPDEST PUSH1 0x0 PUSH1 0x20 DUP3 ADD SWAP1 POP DUP2 DUP2 SUB PUSH1 0x0 DUP4 ADD MSTORE PUSH2 0x1F61 DUP2 DUP5 PUSH2 0x1EE9 JUMP JUMPDEST SWAP1 POP SWAP3 SWAP2 POP POP JUMP JUMPDEST PUSH1 0x0 PUSH1 0x20 DUP3 DUP5 SUB SLT ISZERO PUSH2 0x1F7F JUMPI PUSH2 0x1F7E PUSH2 0x1A50 JUMP JUMPDEST JUMPDEST PUSH1 0x0 PUSH2 0x1F8D DUP5 DUP3 DUP6 ADD PUSH2 0x1D7E JUMP JUMPDEST SWAP2 POP POP SWAP3 SWAP2 POP POP JUMP JUMPDEST PUSH1 0x0 DUP3 DUP3 MSTORE PUSH1 0x20 DUP3 ADD SWAP1 POP SWAP3 SWAP2 POP POP JUMP JUMPDEST PUSH32 0x47616D6520496E697469616C697A656400000000000000000000000000000000 PUSH1 0x0 DUP3 ADD MSTORE POP JUMP JUMPDEST PUSH1 0x0 PUSH2 0x1FDD PUSH1 0x10 DUP4 PUSH2 0x1F96 JUMP JUMPDEST SWAP2 POP PUSH2 0x1FE8 DUP3 PUSH2 0x1FA7 JUMP JUMPDEST PUSH1 0x20 DUP3 ADD SWAP1 POP SWAP2 SWAP1 POP JUMP JUMPDEST PUSH1 0x0 PUSH1 0x20 DUP3 ADD SWAP1 POP DUP2 DUP2 SUB PUSH1 0x0 DUP4 ADD MSTORE PUSH2 0x200C DUP2 PUSH2 0x1FD0 JUMP JUMPDEST SWAP1 POP SWAP2 SWAP1 POP JUMP JUMPDEST PUSH32 0x46696E6973686564000000000000000000000000000000000000000000000000 PUSH1 0x0 DUP3 ADD MSTORE POP JUMP JUMPDEST PUSH1 0x0 PUSH2 0x2049 PUSH1 0x8 DUP4 PUSH2 0x1F96 JUMP JUMPDEST SWAP2 POP PUSH2 0x2054 DUP3 PUSH2 0x2013 JUMP JUMPDEST PUSH1 0x20 DUP3 ADD SWAP1 POP SWAP2 SWAP1 POP JUMP JUMPDEST PUSH1 0x0 PUSH1 0x20 DUP3 ADD SWAP1 POP DUP2 DUP2 SUB PUSH1 0x0 DUP4 ADD MSTORE PUSH2 0x2078 DUP2 PUSH2 0x203C JUMP JUMPDEST SWAP1 POP SWAP2 SWAP1 POP JUMP JUMPDEST PUSH32 0x4E487B7100000000000000000000000000000000000000000000000000000000 PUSH1 0x0 MSTORE PUSH1 0x11 PUSH1 0x4 MSTORE PUSH1 0x24 PUSH1 0x0 REVERT JUMPDEST PUSH1 0x0 PUSH2 0x20B9 DUP3 PUSH2 0x1B10 JUMP JUMPDEST SWAP2 POP PUSH2 0x20C4 DUP4 PUSH2 0x1B10 JUMP JUMPDEST SWAP3 POP DUP3 DUP3 SUB SWAP1 POP DUP2 DUP2 GT ISZERO PUSH2 0x20DC JUMPI PUSH2 0x20DB PUSH2 0x207F JUMP JUMPDEST JUMPDEST SWAP3 SWAP2 POP POP JUMP JUMPDEST PUSH1 0x0 PUSH2 0x20ED DUP3 PUSH2 0x1B10 JUMP JUMPDEST SWAP2 POP PUSH2 0x20F8 DUP4 PUSH2 0x1B10 JUMP JUMPDEST SWAP3 POP DUP3 DUP3 MUL PUSH2 0x2106 DUP2 PUSH2 0x1B10 JUMP JUMPDEST SWAP2 POP DUP3 DUP3 DIV DUP5 EQ DUP4 ISZERO OR PUSH2 0x211D JUMPI PUSH2 0x211C PUSH2 0x207F JUMP JUMPDEST JUMPDEST POP SWAP3 SWAP2 POP POP JUMP JUMPDEST PUSH32 0x4E487B7100000000000000000000000000000000000000000000000000000000 PUSH1 0x0 MSTORE PUSH1 0x12 PUSH1 0x4 MSTORE PUSH1 0x24 PUSH1 0x0 REVERT JUMPDEST PUSH1 0x0 PUSH2 0x215E DUP3 PUSH2 0x1B10 JUMP JUMPDEST SWAP2 POP PUSH2 0x2169 DUP4 PUSH2 0x1B10 JUMP JUMPDEST SWAP3 POP DUP3 PUSH2 0x2179 JUMPI PUSH2 0x2178 PUSH2 0x2124 JUMP JUMPDEST JUMPDEST DUP3 DUP3 DIV SWAP1 POP SWAP3 SWAP2 POP POP JUMP JUMPDEST PUSH1 0x0 PUSH2 0x218F DUP3 PUSH2 0x1B10 JUMP JUMPDEST SWAP2 POP PUSH2 0x219A DUP4 PUSH2 0x1B10 JUMP JUMPDEST SWAP3 POP DUP3 DUP3 ADD SWAP1 POP DUP1 DUP3 GT ISZERO PUSH2 0x21B2 JUMPI PUSH2 0x21B1 PUSH2 0x207F JUMP JUMPDEST JUMPDEST SWAP3 SWAP2 POP POP JUMP JUMPDEST PUSH32 0x726577617264202B20666565203D20746F74616C000000000000000000000000 PUSH1 0x0 DUP3 ADD MSTORE POP JUMP JUMPDEST PUSH1 0x0 PUSH2 0x21EE PUSH1 0x14 DUP4 PUSH2 0x1F96 JUMP JUMPDEST SWAP2 POP PUSH2 0x21F9 DUP3 PUSH2 0x21B8 JUMP JUMPDEST PUSH1 0x20 DUP3 ADD SWAP1 POP SWAP2 SWAP1 POP JUMP JUMPDEST PUSH1 0x0 PUSH1 0x20 DUP3 ADD SWAP1 POP DUP2 DUP2 SUB PUSH1 0x0 DUP4 ADD MSTORE PUSH2 0x221D DUP2 PUSH2 0x21E1 JUMP JUMPDEST SWAP1 POP SWAP2 SWAP1 POP JUMP JUMPDEST PUSH32 0x616C6C20706F7369746976650000000000000000000000000000000000000000 PUSH1 0x0 DUP3 ADD MSTORE POP JUMP JUMPDEST PUSH1 0x0 PUSH2 0x225A PUSH1 0xC DUP4 PUSH2 0x1F96 JUMP JUMPDEST SWAP2 POP PUSH2 0x2265 DUP3 PUSH2 0x2224 JUMP JUMPDEST PUSH1 0x20 DUP3 ADD SWAP1 POP SWAP2 SWAP1 POP JUMP JUMPDEST PUSH1 0x0 PUSH1 0x20 DUP3 ADD SWAP1 POP DUP2 DUP2 SUB PUSH1 0x0 DUP4 ADD MSTORE PUSH2 0x2289 DUP2 PUSH2 0x224D JUMP JUMPDEST SWAP1 POP SWAP2 SWAP1 POP JUMP JUMPDEST PUSH1 0x0 PUSH1 0x40 DUP3 ADD SWAP1 POP PUSH2 0x22A5 PUSH1 0x0 DUP4 ADD DUP6 PUSH2 0x1BB4 JUMP JUMPDEST PUSH2 0x22B2 PUSH1 0x20 DUP4 ADD DUP5 PUSH2 0x1B73 JUMP JUMPDEST SWAP4 SWAP3 POP POP POP JUMP JUMPDEST PUSH2 0x22C2 DUP2 PUSH2 0x1ADA JUMP JUMPDEST DUP2 EQ PUSH2 0x22CD JUMPI PUSH1 0x0 DUP1 REVERT JUMPDEST POP JUMP JUMPDEST PUSH1 0x0 DUP2 MLOAD SWAP1 POP PUSH2 0x22DF DUP2 PUSH2 0x22B9 JUMP JUMPDEST SWAP3 SWAP2 POP POP JUMP JUMPDEST PUSH1 0x0 PUSH1 0x20 DUP3 DUP5 SUB SLT ISZERO PUSH2 0x22FB JUMPI PUSH2 0x22FA PUSH2 0x1A50 JUMP JUMPDEST JUMPDEST PUSH1 0x0 PUSH2 0x2309 DUP5 DUP3 DUP6 ADD PUSH2 0x22D0 JUMP JUMPDEST SWAP2 POP POP SWAP3 SWAP2 POP POP JUMP JUMPDEST PUSH32 0x5265776172642073686F756C6420737563636573730000000000000000000000 PUSH1 0x0 DUP3 ADD MSTORE POP JUMP JUMPDEST PUSH1 0x0 PUSH2 0x2348 PUSH1 0x15 DUP4 PUSH2 0x1F96 JUMP JUMPDEST SWAP2 POP PUSH2 0x2353 DUP3 PUSH2 0x2312 JUMP JUMPDEST PUSH1 0x20 DUP3 ADD SWAP1 POP SWAP2 SWAP1 POP JUMP JUMPDEST PUSH1 0x0 PUSH1 0x20 DUP3 ADD SWAP1 POP DUP2 DUP2 SUB PUSH1 0x0 DUP4 ADD MSTORE PUSH2 0x2377 DUP2 PUSH2 0x233B JUMP JUMPDEST SWAP1 POP SWAP2 SWAP1 POP JUMP JUMPDEST PUSH1 0x0 PUSH1 0x60 DUP3 ADD SWAP1 POP PUSH2 0x2393 PUSH1 0x0 DUP4 ADD DUP7 PUSH2 0x1BB4 JUMP JUMPDEST PUSH2 0x23A0 PUSH1 0x20 DUP4 ADD DUP6 PUSH2 0x1B73 JUMP JUMPDEST PUSH2 0x23AD PUSH1 0x40 DUP4 ADD DUP5 PUSH2 0x1B73 JUMP JUMPDEST SWAP5 SWAP4 POP POP POP POP JUMP JUMPDEST PUSH32 0x416363657373436F6E74726F6C3A2063616E206F6E6C792072656E6F756E6365 PUSH1 0x0 DUP3 ADD MSTORE PUSH32 0x20726F6C657320666F722073656C660000000000000000000000000000000000 PUSH1 0x20 DUP3 ADD MSTORE POP JUMP JUMPDEST PUSH1 0x0 PUSH2 0x2411 PUSH1 0x2F DUP4 PUSH2 0x1F96 JUMP JUMPDEST SWAP2 POP PUSH2 0x241C DUP3 PUSH2 0x23B5 JUMP JUMPDEST PUSH1 0x40 DUP3 ADD SWAP1 POP SWAP2 SWAP1 POP JUMP JUMPDEST PUSH1 0x0 PUSH1 0x20 DUP3 ADD SWAP1 POP DUP2 DUP2 SUB PUSH1 0x0 DUP4 ADD MSTORE PUSH2 0x2440 DUP2 PUSH2 0x2404 JUMP JUMPDEST SWAP1 POP SWAP2 SWAP1 POP JUMP JUMPDEST PUSH1 0x0 DUP2 MLOAD SWAP1 POP PUSH2 0x2456 DUP2 PUSH2 0x1B1A JUMP JUMPDEST SWAP3 SWAP2 POP POP JUMP JUMPDEST PUSH1 0x0 PUSH1 0x20 DUP3 DUP5 SUB SLT ISZERO PUSH2 0x2472 JUMPI PUSH2 0x2471 PUSH2 0x1A50 JUMP JUMPDEST JUMPDEST PUSH1 0x0 PUSH2 0x2480 DUP5 DUP3 DUP6 ADD PUSH2 0x2447 JUMP JUMPDEST SWAP2 POP POP SWAP3 SWAP2 POP POP JUMP JUMPDEST PUSH32 0x456E6F7567682062616C616E6365000000000000000000000000000000000000 PUSH1 0x0 DUP3 ADD MSTORE POP JUMP JUMPDEST PUSH1 0x0 PUSH2 0x24BF PUSH1 0xE DUP4 PUSH2 0x1F96 JUMP JUMPDEST SWAP2 POP PUSH2 0x24CA DUP3 PUSH2 0x2489 JUMP JUMPDEST PUSH1 0x20 DUP3 ADD SWAP1 POP SWAP2 SWAP1 POP JUMP JUMPDEST PUSH1 0x0 PUSH1 0x20 DUP3 ADD SWAP1 POP DUP2 DUP2 SUB PUSH1 0x0 DUP4 ADD MSTORE PUSH2 0x24EE DUP2 PUSH2 0x24B2 JUMP JUMPDEST SWAP1 POP SWAP2 SWAP1 POP JUMP JUMPDEST PUSH1 0x0 PUSH1 0x60 DUP3 ADD SWAP1 POP PUSH2 0x250A PUSH1 0x0 DUP4 ADD DUP7 PUSH2 0x1BB4 JUMP JUMPDEST PUSH2 0x2517 PUSH1 0x20 DUP4 ADD DUP6 PUSH2 0x1BB4 JUMP JUMPDEST PUSH2 0x2524 PUSH1 0x40 DUP4 ADD DUP5 PUSH2 0x1B73 JUMP JUMPDEST SWAP5 SWAP4 POP POP POP POP JUMP JUMPDEST PUSH32 0x5472616E736665722073686F756C642073756363657373000000000000000000 PUSH1 0x0 DUP3 ADD MSTORE POP JUMP JUMPDEST PUSH1 0x0 PUSH2 0x2562 PUSH1 0x17 DUP4 PUSH2 0x1F96 JUMP JUMPDEST SWAP2 POP PUSH2 0x256D DUP3 PUSH2 0x252C JUMP JUMPDEST PUSH1 0x20 DUP3 ADD SWAP1 POP SWAP2 SWAP1 POP JUMP JUMPDEST PUSH1 0x0 PUSH1 0x20 DUP3 ADD SWAP1 POP DUP2 DUP2 SUB PUSH1 0x0 DUP4 ADD MSTORE PUSH2 0x2591 DUP2 PUSH2 0x2555 JUMP JUMPDEST SWAP1 POP SWAP2 SWAP1 POP JUMP JUMPDEST PUSH32 0x4E6F206665650000000000000000000000000000000000000000000000000000 PUSH1 0x0 DUP3 ADD MSTORE POP JUMP JUMPDEST PUSH1 0x0 PUSH2 0x25CE PUSH1 0x6 DUP4 PUSH2 0x1F96 JUMP JUMPDEST SWAP2 POP PUSH2 0x25D9 DUP3 PUSH2 0x2598 JUMP JUMPDEST PUSH1 0x20 DUP3 ADD SWAP1 POP SWAP2 SWAP1 POP JUMP JUMPDEST PUSH1 0x0 PUSH1 0x20 DUP3 ADD SWAP1 POP DUP2 DUP2 SUB PUSH1 0x0 DUP4 ADD MSTORE PUSH2 0x25FD DUP2 PUSH2 0x25C1 JUMP JUMPDEST SWAP1 POP SWAP2 SWAP1 POP JUMP JUMPDEST PUSH32 0x7472616E73666572206665650000000000000000000000000000000000000000 PUSH1 0x0 DUP3 ADD MSTORE POP JUMP JUMPDEST PUSH1 0x0 PUSH2 0x263A PUSH1 0xC DUP4 PUSH2 0x1F96 JUMP JUMPDEST SWAP2 POP PUSH2 0x2645 DUP3 PUSH2 0x2604 JUMP JUMPDEST PUSH1 0x20 DUP3 ADD SWAP1 POP SWAP2 SWAP1 POP JUMP JUMPDEST PUSH1 0x0 PUSH1 0x20 DUP3 ADD SWAP1 POP DUP2 DUP2 SUB PUSH1 0x0 DUP4 ADD MSTORE PUSH2 0x2669 DUP2 PUSH2 0x262D JUMP JUMPDEST SWAP1 POP SWAP2 SWAP1 POP JUMP JUMPDEST PUSH32 0x47616D6520657869737473000000000000000000000000000000000000000000 PUSH1 0x0 DUP3 ADD MSTORE POP JUMP JUMPDEST PUSH1 0x0 PUSH2 0x26A6 PUSH1 0xB DUP4 PUSH2 0x1F96 JUMP JUMPDEST SWAP2 POP PUSH2 0x26B1 DUP3 PUSH2 0x2670 JUMP JUMPDEST PUSH1 0x20 DUP3 ADD SWAP1 POP SWAP2 SWAP1 POP JUMP JUMPDEST PUSH1 0x0 PUSH1 0x20 DUP3 ADD SWAP1 POP DUP2 DUP2 SUB PUSH1 0x0 DUP4 ADD MSTORE PUSH2 0x26D5 DUP2 PUSH2 0x2699 JUMP JUMPDEST SWAP1 POP SWAP2 SWAP1 POP JUMP JUMPDEST PUSH1 0x0 DUP2 SWAP1 POP SWAP3 SWAP2 POP POP JUMP JUMPDEST PUSH32 0x416363657373436F6E74726F6C3A206163636F756E7420000000000000000000 PUSH1 0x0 DUP3 ADD MSTORE POP JUMP JUMPDEST PUSH1 0x0 PUSH2 0x271D PUSH1 0x17 DUP4 PUSH2 0x26DC JUMP JUMPDEST SWAP2 POP PUSH2 0x2728 DUP3 PUSH2 0x26E7 JUMP JUMPDEST PUSH1 0x17 DUP3 ADD SWAP1 POP SWAP2 SWAP1 POP JUMP JUMPDEST PUSH1 0x0 DUP2 MLOAD SWAP1 POP SWAP2 SWAP1 POP JUMP JUMPDEST PUSH1 0x0 JUMPDEST DUP4 DUP2 LT ISZERO PUSH2 0x275C JUMPI DUP1 DUP3 ADD MLOAD DUP2 DUP5 ADD MSTORE PUSH1 0x20 DUP2 ADD SWAP1 POP PUSH2 0x2741 JUMP JUMPDEST PUSH1 0x0 DUP5 DUP5 ADD MSTORE POP POP POP POP JUMP JUMPDEST PUSH1 0x0 PUSH2 0x2773 DUP3 PUSH2 0x2733 JUMP JUMPDEST PUSH2 0x277D DUP2 DUP6 PUSH2 0x26DC JUMP JUMPDEST SWAP4 POP PUSH2 0x278D DUP2 DUP6 PUSH1 0x20 DUP7 ADD PUSH2 0x273E JUMP JUMPDEST DUP1 DUP5 ADD SWAP2 POP POP SWAP3 SWAP2 POP POP JUMP JUMPDEST PUSH32 0x206973206D697373696E6720726F6C6520000000000000000000000000000000 PUSH1 0x0 DUP3 ADD MSTORE POP JUMP JUMPDEST PUSH1 0x0 PUSH2 0x27CF PUSH1 0x11 DUP4 PUSH2 0x26DC JUMP JUMPDEST SWAP2 POP PUSH2 0x27DA DUP3 PUSH2 0x2799 JUMP JUMPDEST PUSH1 0x11 DUP3 ADD SWAP1 POP SWAP2 SWAP1 POP JUMP JUMPDEST PUSH1 0x0 PUSH2 0x27F0 DUP3 PUSH2 0x2710 JUMP JUMPDEST SWAP2 POP PUSH2 0x27FC DUP3 DUP6 PUSH2 0x2768 JUMP JUMPDEST SWAP2 POP PUSH2 0x2807 DUP3 PUSH2 0x27C2 JUMP JUMPDEST SWAP2 POP PUSH2 0x2813 DUP3 DUP5 PUSH2 0x2768 JUMP JUMPDEST SWAP2 POP DUP2 SWAP1 POP SWAP4 SWAP3 POP POP POP JUMP JUMPDEST PUSH1 0x0 PUSH1 0x1F NOT PUSH1 0x1F DUP4 ADD AND SWAP1 POP SWAP2 SWAP1 POP JUMP JUMPDEST PUSH1 0x0 PUSH2 0x283B DUP3 PUSH2 0x2733 JUMP JUMPDEST PUSH2 0x2845 DUP2 DUP6 PUSH2 0x1F96 JUMP JUMPDEST SWAP4 POP PUSH2 0x2855 DUP2 DUP6 PUSH1 0x20 DUP7 ADD PUSH2 0x273E JUMP JUMPDEST PUSH2 0x285E DUP2 PUSH2 0x281F JUMP JUMPDEST DUP5 ADD SWAP2 POP POP SWAP3 SWAP2 POP POP JUMP JUMPDEST PUSH1 0x0 PUSH1 0x20 DUP3 ADD SWAP1 POP DUP2 DUP2 SUB PUSH1 0x0 DUP4 ADD MSTORE PUSH2 0x2883 DUP2 DUP5 PUSH2 0x2830 JUMP JUMPDEST SWAP1 POP SWAP3 SWAP2 POP POP JUMP JUMPDEST PUSH32 0x4E487B7100000000000000000000000000000000000000000000000000000000 PUSH1 0x0 MSTORE PUSH1 0x41 PUSH1 0x4 MSTORE PUSH1 0x24 PUSH1 0x0 REVERT JUMPDEST PUSH32 0x4E487B7100000000000000000000000000000000000000000000000000000000 PUSH1 0x0 MSTORE PUSH1 0x32 PUSH1 0x4 MSTORE PUSH1 0x24 PUSH1 0x0 REVERT JUMPDEST PUSH1 0x0 PUSH2 0x28F4 DUP3 PUSH2 0x1B10 JUMP JUMPDEST SWAP2 POP PUSH1 0x0 DUP3 SUB PUSH2 0x2907 JUMPI PUSH2 0x2906 PUSH2 0x207F JUMP JUMPDEST JUMPDEST PUSH1 0x1 DUP3 SUB SWAP1 POP SWAP2 SWAP1 POP JUMP JUMPDEST PUSH32 0x537472696E67733A20686578206C656E67746820696E73756666696369656E74 PUSH1 0x0 DUP3 ADD MSTORE POP JUMP JUMPDEST PUSH1 0x0 PUSH2 0x2948 PUSH1 0x20 DUP4 PUSH2 0x1F96 JUMP JUMPDEST SWAP2 POP PUSH2 0x2953 DUP3 PUSH2 0x2912 JUMP JUMPDEST PUSH1 0x20 DUP3 ADD SWAP1 POP SWAP2 SWAP1 POP JUMP JUMPDEST PUSH1 0x0 PUSH1 0x20 DUP3 ADD SWAP1 POP DUP2 DUP2 SUB PUSH1 0x0 DUP4 ADD MSTORE PUSH2 0x2977 DUP2 PUSH2 0x293B JUMP JUMPDEST SWAP1 POP SWAP2 SWAP1 POP JUMP INVALID LOG2 PUSH5 0x6970667358 0x22 SLT KECCAK256 0xA7 PUSH6 0xC11ED3949342 0xAD MSTORE8 0xD1 0xA9 0xDA CODECOPY SWAP10 0x4D SELFDESTRUCT PUSH22 0x2662B25B13A282A33FD5BC2EA90364736F6C63430008 SLT STOP CALLER "
				},
				"gasEstimates": {
					"creation": {
						"codeDepositCost": "2135200",
						"executionCost": "infinite",
						"totalCost": "infinite"
					},
					"external": {
						"DEFAULT_ADMIN_ROLE()": "357",
						"bet(uint256,uint256)": "infinite",
						"feePercent()": "2474",
						"feeTotal()": "2518",
						"finish(uint256,address)": "infinite",
						"gameIds(uint256)": "infinite",
						"gameUsers(uint256)": "infinite",
						"games(uint256)": "infinite",
						"getBetting(uint256,address)": "infinite",
						"getRoleAdmin(bytes32)": "infinite",
						"grantRole(bytes32,address)": "infinite",
						"hasRole(bytes32,address)": "3229",
						"listGameIds()": "infinite",
						"myBetting(uint256)": "infinite",
						"renounceRole(bytes32,address)": "infinite",
						"revokeRole(bytes32,address)": "infinite",
						"setErc20(address)": "infinite",
						"startGame(uint256)": "infinite",
						"supportsInterface(bytes4)": "751",
						"tokenContract()": "2625",
						"withdrawAll()": "infinite"
					}
				},
				"methodIdentifiers": {
					"DEFAULT_ADMIN_ROLE()": "a217fddf",
					"bet(uint256,uint256)": "6ffcc719",
					"feePercent()": "7fd6f15c",
					"feeTotal()": "37bfc1ef",
					"finish(uint256,address)": "2c32b187",
					"gameIds(uint256)": "d82c13f0",
					"gameUsers(uint256)": "16b169c4",
					"games(uint256)": "117a5b90",
					"getBetting(uint256,address)": "34fcc3e7",
					"getRoleAdmin(bytes32)": "248a9ca3",
					"grantRole(bytes32,address)": "2f2ff15d",
					"hasRole(bytes32,address)": "91d14854",
					"listGameIds()": "9bc01b36",
					"myBetting(uint256)": "ce33bd74",
					"renounceRole(bytes32,address)": "36568abe",
					"revokeRole(bytes32,address)": "d547741f",
					"setErc20(address)": "ee9b80a4",
					"startGame(uint256)": "e5ed1d59",
					"supportsInterface(bytes4)": "01ffc9a7",
					"tokenContract()": "55a373d6",
					"withdrawAll()": "853828b6"
				}
			},
			"storageLayout": {
				"storage": [
					{
						"astId": 502,
						"contract": "contracts/4_Game.sol:GameContract",
						"label": "_roles",
						"offset": 0,
						"slot": "0",
						"type": "t_mapping(t_bytes32,t_struct(RoleData)497_storage)"
					},
					{
						"astId": 56,
						"contract": "contracts/4_Game.sol:GameContract",
						"label": "games",
						"offset": 0,
						"slot": "1",
						"type": "t_mapping(t_uint256,t_struct(Game)27_storage)"
					},
					{
						"astId": 59,
						"contract": "contracts/4_Game.sol:GameContract",
						"label": "gameIds",
						"offset": 0,
						"slot": "2",
						"type": "t_array(t_uint256)dyn_storage"
					},
					{
						"astId": 61,
						"contract": "contracts/4_Game.sol:GameContract",
						"label": "tokenContract",
						"offset": 0,
						"slot": "3",
						"type": "t_address"
					},
					{
						"astId": 64,
						"contract": "contracts/4_Game.sol:GameContract",
						"label": "feePercent",
						"offset": 0,
						"slot": "4",
						"type": "t_uint256"
					},
					{
						"astId": 67,
						"contract": "contracts/4_Game.sol:GameContract",
						"label": "feeTotal",
						"offset": 0,
						"slot": "5",
						"type": "t_uint256"
					}
				],
				"types": {
					"t_address": {
						"encoding": "inplace",
						"label": "address",
						"numberOfBytes": "20"
					},
					"t_array(t_address)dyn_storage": {
						"base": "t_address",
						"encoding": "dynamic_array",
						"label": "address[]",
						"numberOfBytes": "32"
					},
					"t_array(t_uint256)dyn_storage": {
						"base": "t_uint256",
						"encoding": "dynamic_array",
						"label": "uint256[]",
						"numberOfBytes": "32"
					},
					"t_bool": {
						"encoding": "inplace",
						"label": "bool",
						"numberOfBytes": "1"
					},
					"t_bytes32": {
						"encoding": "inplace",
						"label": "bytes32",
						"numberOfBytes": "32"
					},
					"t_mapping(t_address,t_bool)": {
						"encoding": "mapping",
						"key": "t_address",
						"label": "mapping(address => bool)",
						"numberOfBytes": "32",
						"value": "t_bool"
					},
					"t_mapping(t_address,t_uint256)": {
						"encoding": "mapping",
						"key": "t_address",
						"label": "mapping(address => uint256)",
						"numberOfBytes": "32",
						"value": "t_uint256"
					},
					"t_mapping(t_bytes32,t_struct(RoleData)497_storage)": {
						"encoding": "mapping",
						"key": "t_bytes32",
						"label": "mapping(bytes32 => struct AccessControl.RoleData)",
						"numberOfBytes": "32",
						"value": "t_struct(RoleData)497_storage"
					},
					"t_mapping(t_uint256,t_struct(Game)27_storage)": {
						"encoding": "mapping",
						"key": "t_uint256",
						"label": "mapping(uint256 => struct GameContract.Game)",
						"numberOfBytes": "32",
						"value": "t_struct(Game)27_storage"
					},
					"t_struct(Game)27_storage": {
						"encoding": "inplace",
						"label": "struct GameContract.Game",
						"members": [
							{
								"astId": 15,
								"contract": "contracts/4_Game.sol:GameContract",
								"label": "initialized",
								"offset": 0,
								"slot": "0",
								"type": "t_bool"
							},
							{
								"astId": 19,
								"contract": "contracts/4_Game.sol:GameContract",
								"label": "bettings",
								"offset": 0,
								"slot": "1",
								"type": "t_mapping(t_address,t_uint256)"
							},
							{
								"astId": 21,
								"contract": "contracts/4_Game.sol:GameContract",
								"label": "totalBettings",
								"offset": 0,
								"slot": "2",
								"type": "t_uint256"
							},
							{
								"astId": 24,
								"contract": "contracts/4_Game.sol:GameContract",
								"label": "users",
								"offset": 0,
								"slot": "3",
								"type": "t_array(t_address)dyn_storage"
							},
							{
								"astId": 26,
								"contract": "contracts/4_Game.sol:GameContract",
								"label": "winner",
								"offset": 0,
								"slot": "4",
								"type": "t_address"
							}
						],
						"numberOfBytes": "160"
					},
					"t_struct(RoleData)497_storage": {
						"encoding": "inplace",
						"label": "struct AccessControl.RoleData",
						"members": [
							{
								"astId": 494,
								"contract": "contracts/4_Game.sol:GameContract",
								"label": "members",
								"offset": 0,
								"slot": "0",
								"type": "t_mapping(t_address,t_bool)"
							},
							{
								"astId": 496,
								"contract": "contracts/4_Game.sol:GameContract",
								"label": "adminRole",
								"offset": 0,
								"slot": "1",
								"type": "t_bytes32"
							}
						],
						"numberOfBytes": "64"
					},
					"t_uint256": {
						"encoding": "inplace",
						"label": "uint256",
						"numberOfBytes": "32"
					}
				}
			},
			"userdoc": {
				"kind": "user",
				"methods": {},
				"version": 1
			}
		}
	}
}